:100000000C946B040C948A040C948A040C948A0457
:100010000C948A040C9491100C944E110C94501171
:100020000C94C5110C948A040C948A040C948A04D0
:100030000C948A040C948A040C948A040C948A0408
:100040000C948A040C948A040C948A040C948A04F8
:100050000C948A040C948A040C948A040C948A04E8
:100060000C948A040C94CC250C948A040C948A0475
:100070000C948A040C948A040C948A040C948A04C8
:100080000C948A040C948A040C948A040C948A04B8
:100090000C941F260C948A040C948A040C948A04F1
:1000A0000C948A040C948A040C948A040C948A0498
:1000B0000C948A040C948A040C948A040C94962858
:1000C0000C948A040C948A040C948A040C2315233F
:1000D00018231B230E230E231E232E2335233C23FC
:1000E000402312232D2D2D2D2D2D2D2D204D45342A
:1000F0003035204C61622034205374617274696E13
:10010000672050726F6772616D202D2D2D2D2D2D62
:100110002D2D005F5F5F5F5F5F5F5F204D45343077
:1001200035204C61622033204D6F646966696564D7
:100130002050726F6772616D205F5F5F5F5F5F5F0E
:100140005F004D61792031342032303136005379EF
:100150007374656D2074696D653A20002C204865C4
:1001600061703A20002C204F435235413A20002044
:10017000202020723A2020202020205265747572A1
:100180006E20746F204D61696E204D656E75002084
:100190002043746C2D433A202020205265736574EF
:1001A00020415652206D6963726F636F6E74726F77
:1001B0006C6C65720020202020733A2020202020C3
:1001C00020456E74657220736574706F696E747308
:1001D0002078787878787820666F72204D6F746F09
:1001E000722031207468656E204D6F746F722032FA
:1001F000002D2D2D2D2D2D2D2D2D2D2D2D2D2D2D5C
:10020000204155544F4E4F4D4F5553204D454E555F
:10021000202D2D2D2D2D2D2D2D2D2D2D2D2D2D2D1B
:100220000020202020723A202020202020526574B7
:1002300075726E20746F204D61696E204D656E750C
:1002400000202043746C2D433A20202020526573F7
:10025000657420415652206D6963726F636F6E74CE
:10026000726F6C6C65720020202020733A20202071
:1002700020202046756C6C204272616B6500202046
:100280002020623A2020202020204D6F746F7220A1
:100290004252414B4520776974682050574D205B8E
:1002A0002D3235352C203235355D00202020207050
:1002B0003A2020202020204D6F746F7220504F571D
:1002C000455220776974682050574D205B2D323598
:1002D000352C203235355D002D2D2D2D2D2D2D2D3C
:1002E0002D2D2D2D2D2D2D2D2D204D4F544F5220A8
:1002F0004D454E55202D2D2D2D2D2D2D2D2D2D2DBA
:100300002D2D2D2D2D2D0020202020723A20202053
:1003100020202052657475726E20746F204D6169C3
:100320006E204D656E7500202043746C2D433A207D
:10033000202020526573657420415652206D6963F8
:10034000726F636F6E74726F6C6C65720020202028
:10035000206D3A2020202020204D6F746F72207372
:10036000656C65637420616E6420506F77657220E0
:1003700076616C75650020202020613A20202020C5
:100380002020456E61626C652F44697361626C6503
:10039000204175746F6E6F6D6F7573204D6F64655E
:1003A0002028504944290020202020643A20202081
:1003B000202020537461636B2064756D7020666F1C
:1003C00072207461736B730020202020733A202008
:1003D0002020202056657273696F6E2F53657475E7
:1003E0007020696E666F726D6174696F6E00202097
:1003F0002020743A20202020202053686F7720741A
:1004000068652063757272656E742074696D65002D
:100410002D2D2D2D2D2D2D2D2D2D2D2D2D2D2D2D0C
:100420002D204D41494E204D454E55202D2D2D2D31
:100430002D2D2D2D2D2D2D2D2D2D2D2D2D00496CBE
:100440006C6567616C2073746174652120526573FB
:10045000657474696E6720415652002220003C2D5D
:100460002D20556E6B6E6F776E20636F6D6D616EB4
:10047000642E205479706520636F6D6D616E642009
:1004800066726F6D206D656E752E005265736574B2
:1004900074696E672041565200496E7075742073FE
:1004A0006574706F696E7420666F72204D6F746F23
:1004B0007220313A20002220003C2D2D20556E6BF9
:1004C0006E6F776E20636F6D6D616E642E20547950
:1004D000706520636F6D6D616E642066726F6D2054
:1004E0006D656E752E00526573657474696E672054
:1004F000415652004D6F746F7220002048414C5499
:1005000045442100456E746572206E756D6265729A
:1005100020666F72204D6F746F722000456E746597
:1005200072206E756D62657220666F72204D6F74F9
:100530006F7220002220003C2D2D20556E6B6E6FB7
:10054000776E20636F6D6D616E642E2054797065D7
:1005500020636F6D6D616E642066726F6D206D65D6
:100560006E752E004D6F746F72203220736574703B
:100570006F696E743A2000496E70757420736574EB
:10058000706F696E7420666F72204D6F746F722089
:10059000323A20004D6F746F722031207365747091
:1005A0006F696E743A2000506C65617365207479D0
:1005B00070652061206E756D62657220626574776A
:1005C00065656E203020746F203235352C207468BC
:1005D000656E20454E54455200506C656173652030
:1005E000747970652061206E756D62657220626538
:1005F000747765656E202D32353520746F20323565
:10060000352C207468656E20454E54455200506C60
:1006100065617365207479706520612031206F7287
:10062000203220666F72206D6F746F722073656C5C
:100630006563742C207468656E20454E54455200E5
:100640004E756D62657220456E74657265643A2000
:10065000004E756D62657220456E74657265643A10
:10066000202D002220003C2D2D20556E6B6E6F77C3
:100670006E20636F6D6D616E642E205479706520FD
:10068000636F6D6D616E642066726F6D206D656E57
:10069000752E00526573657474696E6720415652F9
:1006A00000456E746572206E756D6265722C203126
:1006B000206F7220322C20666F72206D6F746F7203
:1006C0002073656C656374696F6E3A2000417574C0
:1006D0006F6E6F6D6F7573204D6F64653A20484182
:1006E0004C544544004175746F6E6F6D6F75732087
:1006F0004D6F64653A204143544956450041444397
:100700005352413A200041444D55583A200041444B
:100710004330203D200041444331203D20004144EE
:100720004332203D200041444333203D20004144DA
:100730004334203D200041444335203D20004144C6
:100740004336203D200041444337203D20004F7573
:1007500070757420202020202020202020203A2086
:1007600000466565646261636B20202020202020A4
:10077000203A200073685F736574706F696E745FF0
:10078000322020203A20005B7469636B735D007334
:10079000685F6D6F746F725F325F73706565643A26
:1007A0002000456E636F64657220636F756E742000
:1007B00032203D20004E6F207368617265642064B2
:1007C000617461206974656D7320746F2070726943
:1007D0006E74002D2D2D2D20202020202020202063
:1007E0002020202D2D2D2D202020202D2D2D2D2D94
:1007F0002D2D2D2D2D0053686172652F5175657556
:100800006520202020205479706520202020467209
:1008100065652F546F74616C004552524F522063CE
:1008200072656174696E67207461736B2022005475
:1008300061736B2022002220637265617465642CF1
:1008400020737461636B206174203078005461738D
:100850006B3A20005461736B3A2049444C4500497F
:10086000444C45090930092D09002F0009092D00C4
:100870002D2D2D2D09092D2D2D2D092D2D2D2D2D14
:1008800000092D2D2D2D2D2D2D2D2D2D00092D2D3A
:100890002D2D004E616D6509095072692E09537442
:1008A0006174650009467265652F546F74616C0050
:1008B0000952756E73005461736B09092020092079
:1008C0000009537461636B00090009002F000900DF
:1008D00009002020000011241FBECFEFD1E2DEBFAF
:1008E000CDBF15E0A0E0B2E0EEECF8E600E00BBF13
:1008F00002C007900D92A232B107D9F71DE1A2E222
:10090000B5E001C01D92A230B107E1F70E94DF2FD0
:100910000C9465340C9400000F931F93CF93DF93D6
:10092000EC010E94411E8FE294E099838883DF915D
:10093000CF911F910F9108950F931F93CF93DF9342
:10094000EC0166E08E819F810E94FF226BE08E8128
:100950009F810E94FF228C0160E174E00E94BA2214
:1009600066E0C8010E94FF226BE08E819F810E9499
:10097000FF228C016EEE73E00E94BA2266E0C8018D
:100980000E94FF226BE08E819F810E94FF228C01DA
:1009900068EC73E00E94BA2266E0C8010E94FF2260
:1009A0006BE08E819F810E94FF228C0167EA73E0D9
:1009B0000E94BA2266E0C8010E94FF226BE08E818D
:1009C0009F810E94FF228C0166E773E00E94BA2299
:1009D00066E0C8010E94FF226BE08E819F810E9429
:1009E000FF228C016DE473E00E94BA2266E0C80128
:1009F0000E94FF226BE08E819F810E94FF228C016A
:100A000067E273E00E94BA2266E0C8010E94FF22FA
:100A10006BE08E819F810E94FF228C0167E073E072
:100A20000E94BA2266E0C8010E94FF2266E08E8121
:100A30009F81DF91CF911F910F910C94FF220F9313
:100A40001F93CF93DF93EC0166E08E819F810E941C
:100A5000FF226BE08E819F810E94FF228C0168ED56
:100A600072E00E94BA2266E0C8010E94FF226BE099
:100A70008E819F810E94FF228C016BEA72E00E94AE
:100A8000BA2266E0C8010E94FF226BE08E819F813E
:100A90000E94FF228C016EE772E00E94BA2266E09B
:100AA000C8010E94FF226BE08E819F810E94FF227D
:100AB0008C0167E672E00E94BA2266E0C8010E94DB
:100AC000FF226BE08E819F810E94FF228C0161E4F6
:100AD00072E00E94BA2266E0C8010E94FF226BE029
:100AE0008E819F810E94FF228C0161E272E00E9450
:100AF000BA2266E0C8010E94FF2266E08E819F81D3
:100B0000DF91CF911F910F910C94FF220F931F93B0
:100B1000CF93DF93EC0166E08E819F810E94FF22DC
:100B20006BE08E819F810E94FF228C0161EF71E05A
:100B30000E94BA2266E0C8010E94FF226BE08E810B
:100B40009F810E94FF228C0165EB71E00E94BA2216
:100B500066E0C8010E94FF226BE08E819F810E94A7
:100B6000FF228C016FE871E00E94BA2266E0C801A2
:100B70000E94FF226BE08E819F810E94FF228C01E8
:100B80006FE671E00E94BA2266E0C8010E94FF226F
:100B900066E08E819F81DF91CF911F910F910C9420
:100BA000FF228F929F92AF92BF92CF92DF92EF92ED
:100BB000FF920F931F93CF93DF9300D000D000D00C
:100BC000CDB7DEB78C0119821A821B821C821E826D
:100BD0001D82C0902801D09029010E94BC165C01A2
:100BE000CE0101960E94EB214C0166E0F80186815E
:100BF00097810E94FF226BE00E94FF227C0163E14B
:100C000071E00E94BA226BE0C7010E94FF227C01C2
:100C100062E471E00E94BA2266E0C7010E94FF22EE
:100C20006BE00E94FF227C016EE471E00E94BA2218
:100C3000B401C7010E948A216BE00E94FF227C015F
:100C40006CE571E00E94BA22B501C7010E94E12360
:100C50007C0164E174E00E94BA2248E357E160E05D
:100C600070E0C7010E941B246BE00E94FF227C0100
:100C700065E671E00E94BA22B601C7010E94E12335
:100C800066E00E94FF2266E00E94FF22F801868152
:100C900097810E943C2066E0F801868197810E943E
:100CA000FF22F801868197810E94FC1D26960FB6CF
:100CB000F894DEBF0FBECDBFDF91CF911F910F9192
:100CC000FF90EF90DF90CF90BF90AF909F908F906C
:100CD0000895CF93DF93CDB7DEB727970FB6F8947B
:100CE000DEBF0FBECDBF8C0119821A821B821C820F
:100CF0001E821D820FB6F8940F92E0914A05F09182
:100D00004B0510860F900FBE0E949C04D12CC12C65
:100D1000912CE12CF12C6AE0662E712CD8011C96E6
:100D20008C91813081F1813008F4F5C0823009F472
:100D3000A2C0833009F084C0F80186819781DC016C
:100D4000ED91FC910480F581E02D099581118DC212
:100D5000D8011E964D915D916D917C9151974F5F99
:100D60005F4F6F4F7F4FF80146875787608B718BBE
:100D700061E070E080E090E00E94F21AD8011C96D9
:100D80008C91813081F6F80186819781DC01ED91AB
:100D9000FC910480F581E02D0995882309F473C442
:100DA000F80186819781DC01ED91FC910680F78145
:100DB000E02D0995482F80ED840F8A3008F440C457
:100DC0004D3209F407C44F3709F4D0C34A3009F44F
:100DD000F9C34D3009F0CCC366E0C11010C3F8016F
:100DE000868197810E94FF226BE00E94FF225C01B6
:100DF00060E476E0C5010E94BA22B701C5010E94F5
:100E0000442366E00E94FF229110BDC2C7010197F2
:100E1000029708F466C26BE0D80116968D919C91FA
:100E200017970E94FF227C016EE076E0C7010E94C6
:100E3000BA2266E0C7010E94FF22E12CF12C88CF84
:100E40006BE0F801868197810E94FF228C016EE39E
:100E500074E00E94BA2266E0C8010E94FF222BE0E3
:100E600088E190E00FB6F894A895809360000FBEDB
:100E700020936000FFCFD80116968D919C91179713
:100E8000DC01ED91FC910480F581E02D099588232A
:100E900009F45ECFF80186819781DC01ED91FC9128
:100EA0000680F781E02D0995282F803709F4B4C119
:100EB0000CF081C1833009F4ABC0823609F080C0E8
:100EC0000FB6F8940F92E0914A05F0914B0590848B
:100ED0000F900FBE6BE0D80116968D919C911797DD
:100EE0000E94FF225C0164E075E00E94BA22692D35
:100EF000C5010E94A5235C0160E274E00E94BA2251
:100F000066E0C5010E94FF2261E0C8010E94F71E51
:100F100092E0992E1DCFF80186819781DC01ED9139
:100F2000FC910480F581E02D0995882309F410CF08
:100F3000F80186819781DC01ED91FC910680F781B3
:100F4000E02D0995282F8D3609F4E4C00CF0D7C0A8
:100F5000813609F49FC0843609F494C0833009F4C3
:100F600074C0F801A680B780D501ED91FC91028094
:100F7000F381E02D62E2C5012F830995D501ED9142
:100F8000FC910280F381E02D2F81622FC50109952C
:100F90006BE0C5010E94FF225C0163E676E00E94DF
:100FA000BA226BE0C5010E94FF225C0166E676E092
:100FB000C5010E94BA2266E0C5010E94FF22C8CE88
:100FC000F801A680B780D501ED91FC910280F381F4
:100FD000E02D62E2C5012F830995D501ED91FC91C9
:100FE0000280F381E02D2F81622FC50109956BE00E
:100FF000C5010E94FF225C0166EB74E00E94BA22E8
:101000006BE0C5010E94FF225C0169EB74E0D0CF68
:101010006BE0D80116968D919C9117970E94FF2244
:101020008C0166EE74E00E94BA2266E0C8010E945C
:10103000FF222BE088E190E00FB6F894A89580930A
:1010400060000FBE20936000FFCF6BE0D8011696C2
:101050008D919C9117970E94FF228C0163E976E0A5
:101060000E94BA2266E0C8010E94FF222BE088E1BC
:1010700090E00FB6F894A895809360000FBE20937F
:101080006000FFCFD80116968D919C9117970E9412
:10109000561F5ECEE0912205F09123050FB6F8941D
:1010A0000F9280850F900FBE882309F466C00FB69B
:1010B000F8940F920F900FBE813009F049CE0FB611
:1010C000F8940F9210860F900FBE6BE0D801169621
:1010D0008D919C9117970E94FF225C016DEC76E048
:1010E000C5010E94BA2266E0C5010E94FF22C80124
:1010F0000E949C0460E0C8010E94F71E29CE83373D
:10110000C1F1843741F1823709F02BCFC8010E9429
:101110009C041ECE6BE0F801868197810E94FF221D
:101120007C0161EA76E00E94BA2266E0C7010E9473
:10113000FF220FB6F8940F92E0914A05F0914B050B
:1011400010860F900FBE61E0C8010E94F71E912C1F
:10115000E12CF12CFDCDCE0101960E94EB21BC01CA
:10116000F801868197810E948A2166E00E94FF2211
:10117000EFCDC8010E94D105EBCD0FB6F8940F92C8
:1011800081E080870F900FBE6BE0F8018681978128
:101190000E94FF225C0165EE76E00E94BA2266E0C2
:1011A000C5010E94FF22C8010E94860563E0C801B4
:1011B0000E94F71ECDCD823709F499CF833709F00D
:1011C000FFCE0FB6F8940F92E0914005F0914105E3
:1011D00081E080870F900FBE0FB6F8940F92E091D8
:1011E0004A05F0914B0580840F900FBE6BE0F8012B
:1011F000868197810E94FF225C0164EF74E00E9467
:10120000BA22682DC5010E94A5236BE00E94FF222F
:101210005C016BEF74E064CF0FB6F8940F92E0912D
:101220004A05F0914B0590840F900FBE6BE0F801DA
:10123000868197810E94FF225C016CE175E00E942B
:10124000BA22692DC5010E94A5235C0168E174E002
:101250000E94BA2266E0C5010E94FF2261E0C80137
:101260000E94F71E9924939473CDF801868197818B
:10127000DC01ED91FC910680F781E02D0995282F86
:10128000823709F475C0833709F45CC0833009F4F0
:101290003CC0F801A680B780D501ED91FC91028099
:1012A000F381E02D62E2C5012F830995D501ED910F
:1012B000FC910280F381E02D2F81622FC5010995F9
:1012C0006BE0C5010E94FF225C016BE574E00E94A7
:1012D000BA226BE0C5010E94FF225C016EE574E05A
:1012E00067CE0FB6F8940F92E0914A05F0914B0546
:1012F000E0860F900FBEC8010E941F0562E0C80182
:101300000E94F71EE12CF12C23CD6BE0D80116963C
:101310008D919C9117970E94FF228C016BE874E0DD
:101320000E94BA2266E0C8010E94FF222BE088E1F9
:1013300090E00FB6F894A895809360000FBE2093BC
:101340006000FFCF6BE0F801868197810E94FF2249
:101350005C0169E974E00E94BA2266E0C5010E945E
:10136000FF2261E0C8010E94F71E83E0982EF0CCB6
:101370000FB6F8940F92E0912205F09123051086A4
:101380000F900FBEB4CEB1E09B1609F4ABC0B2E033
:101390009B1609F480C0B3E09B1609F43EC0B4E08C
:1013A0009B12D6CC0FB6F8940F92E0912805F091DD
:1013B0002905C701AA2797FDA095BA2F8087918795
:1013C000A287B3870F900FBE6BE0F80186819781EB
:1013D0000E94FF225C0164E675E00E94BA22B70118
:1013E000C5010E94442366E00E94FF22C8010E94BA
:1013F0009C0460E0C8010E94F71E912CA9CCD80182
:1014000016968D919C9117970E94FF226BE00E9487
:10141000FF225C0161E576E0EDCC0FB6F8940F9207
:10142000E0912A05F0912B05C701AA2797FDA09509
:10143000BA2F80879187A287B3870F900FBE6BE08A
:10144000F801868197810E94FF225C0164E975E0C2
:101450000E94BA22B701C5010E94442366E00E949F
:10146000FF226BE0D80116968D919C9117970E94F0
:10147000FF227C0167E775E00E94BA2266E0C7019F
:101480000E94FF2261E0C8010E94F71E24E0922E14
:10149000E12CF12C5DCCEFEFEE16F10411F008F029
:1014A00059C00FB6F8940F92E0914405F0914505AC
:1014B000F186E0860F900FBE0FB6F8940F92E09180
:1014C0004205F091430581E080870F900FBEC8016F
:1014D0000E949C0460E0C8010E94F71E912CE12C40
:1014E000F12C36CCEFEFEE16F10409F038F5CC20F4
:1014F00019F0F194E194F1080FB6F8940F92E0918D
:101500004805F0914905F186E0860F900FBE0FB6B1
:10151000F8940F92E0914605F091470581E08087AD
:101520000F900FBEC8010E949C0460E0C8010E9499
:10153000F71EC12C912CE12CF12C0ACC6BE0D801C8
:1015400016968D919C9117970E94FF227C0169ED60
:1015500075E06CCC6BE0D80116968D919C91179735
:101560000E94FF227C0167EA75E060CCD11040C088
:10157000D8011696ED90FC901797D701ED91FC914C
:101580000280F381E02D62E2C7014F830995D70104
:10159000ED91FC910280F381E02D4F81642FC70112
:1015A00009956BE0C7010E94FF227C0164E375E0AE
:1015B0000E94BA226BE0C7010E94FF227C0167E310
:1015C00075E034CC66E174E0F801868197810E9471
:1015D000BA22BECBF80186819781DC01ED91FC91A6
:1015E0000280F381E02D6DE20995CC24C394B0CB49
:1015F000F80186819781DC01ED91FC910280F381F5
:10160000E02D6FE70995F80186819781DC01ED9166
:10161000FC910280F381E02D60E20995F80186815A
:101620009781DC01ED91FC910280F381E02D6FE761
:101630000995C701B3010E9455327B01DA9488CB2A
:10164000F80186819781DC01ED91FC910280F381A4
:10165000E02D642F4F8309959701220F331FEE0C65
:10166000FF1CEE0CFF1CEE0CFF1C2E0D3F1D4F81CE
:10167000E42EFF24E7FCF094B0E3EB1AF108E20E4D
:10168000F31ED39465CB80914C0590914D05DC0100
:10169000ED91FC910480F581E02D0995882309F4F2
:1016A00057CBD8011696ED91FC9117970190F081D8
:1016B000E02DA280B38080914C0590914D05DC0116
:1016C000ED91FC910680F781E02D0995682FF801D6
:1016D00086819781F50109953BCBFC01718360837D
:1016E000EAE7F0E080818068808380818160808388
:1016F00080818D7F8083808184608083ECE7F0E04F
:1017000080818064808380818F7780830895809139
:101710007C00887F80937C0080917C006770682BC0
:1017200060937C0080917A00806480937A0080913D
:101730007A0086FDFCCF8091780090917900089521
:10174000403430F1ECE3F0E04CE3677080E090E08F
:1017500020917C00287F20937C0020917C00262B08
:1017600020937C0020917A00206420937A002091BD
:101770007A0026FDFCCF2091780030917900820F0D
:10178000931F415029F7BF010E944132CB010895B8
:10179000442319F0E42FF0E0D8CFE0E0F0E080E05F
:1017A00090E0BF010E944132CB0108952F923F92F9
:1017B0004F925F926F927F928F929F92AF92BF9261
:1017C000CF92DF92EF92FF920F931F93CF93DF930D
:1017D00000D000D000D0CDB7DEB79E838D8380913E
:1017E0007C00887F80937C0080917C008760809360
:1017F0007C0080917A00806480937A0080917A00E6
:1018000086FDFCCF209178003091790080917C009A
:10181000887F80937C0080917C00866080937C0030
:1018200080917A00806480937A0080917A0086FDAE
:10183000FCCF209078003090790080917C00887FE8
:1018400080937C0080917C00856080937C008091F7
:101850007A00806480937A0080917A0086FDFCCFC4
:10186000409078005090790080917C00887F809330
:101870007C0080917C00846080937C0080917A0061
:10188000806480937A0080917A0086FDFCCF00917D
:1018900078001091790080917C00887F80937C0093
:1018A00080917C00836080937C0080917A008064CA
:1018B00080937A0080917A0086FDFCCFE0907800DA
:1018C000F090790080917C00887F80937C008091EB
:1018D0007C00826080937C0080917A008064809399
:1018E0007A0080917A0086FDFCCFC0907800D0907D
:1018F000790080917C00887F80937C0080917C00BF
:10190000816080937C0080917A00806480937A006B
:1019100080917A0086FDFCCFA0907800B09079008D
:1019200080917C00887F80937C0080917C008093F4
:101930007C0080917A00806480937A0080917A00A4
:1019400086FDFCCF809078009090790040917C00DB
:1019500050917A006BE08D819E812B833C834A837A
:1019600059830E94FF223C016DEF76E00E94BA226B
:101970005981652FC3010E94632466E00E94FF2203
:101980006BE00E94FF223C0166E077E00E94BA22F1
:101990004A81642FC3010E94632466E00E94FF22F3
:1019A0006BE00E94FF223C016EE077E00E94BA22C9
:1019B000B401C3010E94E12366E00E94FF226BE0B4
:1019C0000E94FF224C0166E177E00E94BA22B50135
:1019D000C4010E94E12366E00E94FF226BE00E94A6
:1019E000FF225C016EE177E00E94BA22B601C501D8
:1019F0000E94E12366E00E94FF226BE00E94FF222A
:101A00006C0166E277E00E94BA22B701C6010E942B
:101A1000E12366E00E94FF226BE00E94FF227C012E
:101A20006EE277E00E94BA22B801C7010E94E1236A
:101A300066E00E94FF226BE00E94FF228C0166E3B9
:101A400077E00E94BA22B201C8010E94E12366E059
:101A50000E94FF226BE00E94FF228C016EE377E080
:101A60000E94BA22B101C8010E94E12366E00E94EF
:101A7000FF226BE00E94FF228C0166E477E00E9467
:101A8000BA222B813C81B901C8010E94E12366E0A2
:101A90000E94FF228D819E8126960FB6F894DEBFAC
:101AA0000FBECDBFDF91CF911F910F91FF90EF90AF
:101AB000DF90CF90BF90AF909F908F907F906F906E
:101AC0005F904F903F902F900895CF93DF93FC014C
:101AD00071836083428380918000816A809380005B
:101AE0008091800080938000809181008A60809343
:101AF000810080918100809381008281813089F012
:101B00008230B9F0C081D181209781F063E374E025
:101B1000CE010E94BA2266E0CE01DF91CF910C94F3
:101B2000FF2287B1876087B9329A269ADF91CF91D9
:101B300008958AB1806E8AB94F9A259ADF91CF9124
:101B40000895FC012281213071F0223009F00895BE
:101B500077FD18C08BB18BB95E985D9A7093890040
:101B600060938800089528B128B977FD13C0419883
:101B7000409A70938B0060938A00FC0182818230CE
:101B800049F308958BB18BB95E9A5D987195619513
:101B90007109E4CF419A4098719561957109E9CF37
:101BA000FC012281213039F0223009F008958BB1F7
:101BB00080668BB9089528B1236028B92281F4CFBB
:101BC000FC012281213059F0223009F008958BB1B7
:101BD0008BB970E07093890060938800089528B1F4
:101BE00028B9262F30E030938B0020938A00228181
:101BF000EBCFEC0183E090E00E9483228C016E81A8
:101C00007F8141E00E94650D83E090E00E94832285
:101C10007C016E817F8142E00E94650D0FB6F894D1
:101C20000F92E0914605F091470510860F900FBE88
:101C300037C00FB6F8940F920F900FBE81112AC0D3
:101C4000E0914605F09147050FB6F8940F920F907A
:101C50000FBE8085813009F49CC0A0914205B091EF
:101C600043050FB6F8940F920F900FBE18968C9103
:101C70001897813009F469C02091400530914105E1
:101C80000FB6F8940F920F900FBEE901888581304E
:101C900009F430C065E070E080E090E00E94F21A44
:101CA0000FB6F8940F92E0912205F09123058085FC
:101CB0000F900FBE813009F0BCCF0FB6F8940F9291
:101CC0000F900FBEE0912605F09127056085718584
:101CD000C8010E94A10D0FB6F8940F920F900FBE8D
:101CE000E0912405F091250560857185C7010E946A
:101CF000A10DD0CF0FB6F8940F9280914A05909124
:101D00004B05EC0188850F900FBE813009F474C03B
:101D10000FB6F8940F920F900FBE823009F4B8C03E
:101D2000E9010FB6F8940F9210860F900FBE0FB610
:101D3000F8940F9218961C920F900FBE0FB6F8945D
:101D40000F9218860F900FBEA5CF0FB6F8940F9282
:101D5000C0914A05D0914B0588850F900FBE813008
:101D600009F434C00FB6F8940F920F900FBE823072
:101D700009F478C00FB6F8940F9210860F900FBE3A
:101D80000FB6F8940F9218961C9218970F900FBEEA
:101D900073CF0FB6F8940F92A0914A05B0914B05FE
:101DA00018968C910F900FBE813009F435C00FB694
:101DB000F8940F920F900FBE823009F440C00FB616
:101DC000F8940F9210860F900FBE47CF0FB6F8947D
:101DD0000F920F900FBEE0914405F091450560858C
:101DE000C8010E94E00DA0914205B0914305E09129
:101DF0004605F0914705BECFC8010E94D00DC091A5
:101E00004005D0914105E0914605F0914705A0912C
:101E10004205B091430585CF0FB6F8940F920F900D
:101E20000FBEE0914805F091490560857185C801B4
:101E30000E94A10DE0914605F0914705C0CF0FB675
:101E4000F8940F920F900FBEE0914805F09149056C
:101E500060857185C7010E94A10DE0914605F09152
:101E60004705ADCF0FB6F8940F920F900FBEE091DB
:101E70004405F09145056085C7010E94E00DA091E1
:101E80004205B0914305E0914605F091470572CFB8
:101E9000C7010E94D00DC0914005D0914105E0914D
:101EA0004605F0914705A0914205B091430539CF11
:101EB0000F931F93CF93DF93EC010E94411E88E69E
:101EC00094E099838883DF91CF911F910F910895BA
:101ED000CF93DF93CDB7DEB728970FB6F894DEBF68
:101EE0000FBECDBF8C010E94EB1869837A838B8370
:101EF0009C8382E090E00E9483225C01F80166816D
:101F0000778147E00E94FF0F82E090E00E948322E9
:101F1000F8016681778145E00E94FF0FE0912E0570
:101F2000F0912F050FB6F8940F92118610860F903E
:101F30000FBEE0912C05F0912D050FB6F8940F928D
:101F4000118610860F900FBEC12CD12C60E070E07E
:101F5000E0913E05F0913F050FB6F8940F92808511
:101F6000918598878F830F900FBE0F811885E09120
:101F70003C05F0913D050FB6F8940F928085918550
:101F80009E838D830F900FBEED80FE8025E0A8011B
:101F9000C5010E948710E0912E05F0912F050FB624
:101FA000F8940F92718760870F900FBEC7018C194C
:101FB0009D09E0912C05F0912D050FB6F8940F9234
:101FC000918780870F900FBE45E050E060E070E0A1
:101FD000CE0101960E948B1AB8016701B9CF0F9309
:101FE0001F93CF93DF93EC010E94411E80E794E0A2
:101FF00099838883DF91CF911F910F910895DC0120
:102000006D937C93E0913E05F0913F050FB6F894F7
:102010000F92118610860F900FBEE0913C05F09153
:102020003D050FB6F8940F92118610860F900FBEE3
:10203000E0913A05F0913B050FB6F8940F921086A7
:102040000F900FBEE0913805F09139050FB6F89466
:102050000F9210860F900FBEE0913605F091370574
:102060000FB6F8940F9210860F900FBEE0913405D2
:10207000F09135050FB6F8940F9210860F900FBEB1
:102080008FB780688FBFEAE6F0E06081242F30E0F0
:1020900081E090E0DC0102C0AA0FBB1F4A95E2F785
:1020A000AD015A2F5095562350835081B90161508C
:1020B0007109DC0102C0AA0FBB1F6A95E2F7BD01DE
:1020C0005A2B50835DB3542B5DBB7081A9014250E4
:1020D0005109DC0102C0AA0FBB1F4A95E2F7AD010E
:1020E000409547234083408123503109022E01C08F
:1020F000880F0A94EAF7482B40838DB3862B8DBB5B
:102100008DB18F708DB98EB1806F8EB90895CA016F
:10211000861B970B622F70E00E94413280E090E0B6
:1021200008951F920F920FB60F9211240BB60F92C3
:102130008F939F93AF93BF93EF93FF93CF93DF93CF
:10214000CDB7DEB72597DEBFCDBFE0913805F09162
:1021500039050FB6F8940F9280858D830F900FBECE
:102160008D81A0913A05B0913B050FB6F8940F927E
:1021700018968C9318970F900FBE9CB18CB18072FB
:102180009071892B90E09595879595958795959574
:102190008795959587950FB6F8940F9280870F9045
:1021A0000FBE18968C91813009F454C008F442C0D7
:1021B000823039F1833089F48085813009F451C04F
:1021C0008085823009F03CC0E0913E05F0913F05EA
:1021D000808591850197918780870F900F900F9050
:1021E0000F900F90DF91CF91FF91EF91BF91AF9141
:1021F0009F918F910F900BBE0F900FBE0F901F906D
:1022000018958085833069F18085811119C0E0912E
:102210003E05F0913F050FB6F8940F9280859185A9
:102220009A8389830F900FBE89819A810197918744
:102230008087D3CF80858230A1F080858130D9F02E
:10224000E0913205F0913305808591850196918763
:102250008087C3CF8085882321F08085833081F7F4
:10226000B3CFE0913E05F0913F05808591850196C1
:1022700091878087B2CFE0913E05F0913F050FB680
:10228000F8940F92808591859C838B830F900FBE6D
:102290008B819C810197918780879FCF0C949110AF
:1022A0001F920F920FB60F9211240BB60F928F93BD
:1022B0009F93AF93BF93EF93FF93E0913405F09119
:1022C00035058085A0913605B091370518968C9319
:1022D00018979CB18CB180789074892B90E0082E6F
:1022E000892F000C881F990B000C881F991F80876D
:1022F00018968C918130C1F138F1823049F08330E9
:10230000B1F480858130B9F18085823019F506C03D
:102310008085833081F1808581111CC0E0913C056E
:10232000F0913D0580859185019791878087FF9188
:10233000EF91BF91AF919F918F910F900BBE0F9036
:102340000FBE0F901F90189580858230A1F0808578
:10235000813021F3E0913005F09131058085918540
:10236000019691878087E3CF8085882321F080853F
:10237000833081F7D3CFE0913C05F0913D05808516
:102380009185019691878087D2CF0C945011CF937D
:10239000DF93EC01DC016D937D938DE0E8E0F2E0EA
:1023A00001900D928A95E1F7188A1F861A8A198A78
:1023B0001C8A1B8A1E8A1D8A188E1F8A1C8E1B8EE1
:1023C000DF91CF910895FC016283148E138E0895DE
:1023D000CF93DF93EC01CB016F857889788F6F8B7A
:1023E000988B8F870E9410149A8F898FDF91CF91DD
:1023F0000895FC01728B618B0895FC01748B638BD3
:102400000895AF92BF92CF92DF92EF92FF920F9317
:102410001F93CF93DF93CDB7DEB72D970FB6F89408
:10242000DEBF0FBECDBFA982BA82CB82DC82ED8235
:10243000FE820F83188729873A874B875C876D87D1
:102440002DE0FE013196DC01129601900D922A9545
:10245000E1F7FC01148E138E2D960FB6F894DEBFB3
:102460000FBECDBFDF91CF911F910F91FF90EF90E5
:10247000DF90CF90BF90AF900895FC017483638389
:102480000895FC01768365830895FC017087678356
:102490000895FC01728761870895FC017487638742
:1024A000568745870895FC0182810895FC01878540
:1024B00090890895FC01818992890895FC0183899E
:1024C000948908952DE0FB013296DC0101900D9274
:1024D0002A95E1F70895FC01858196810895FC0114
:1024E000838194810895FC01878190850895FC0182
:1024F000818592850895FC01838594850895FC016A
:102500008585968508950F931F93CF93DF93EC01F4
:102510008B899C892F853889821B930B9E8B8D8B91
:102520006D8D7E8D89859A850E945A1440E054E015
:102530000E946C148C016D897E898B8D9C8D0E940C
:10254000F313B8010E9410149C8F8B8F8A81833003
:1025500009F472C090F5813009F463C0823009F04B
:1025600044C06D897E898B819C810E945A1440E011
:1025700054E00E946C148C016B8D7C8D8D819E814A
:102580000E945A1440E054E00E946C14B8010E946A
:10259000F3136D857E8568177907D4F06B857C858C
:1025A000861797070CF458C01E8E1D8E9A8B898B48
:1025B000DF91CF911F910F9108958430C9F085303C
:1025C000A1F489899A896D857E856817790734F722
:1025D0000E9410149E8F8D8F8D859E85898B9A8B7E
:1025E000DF91CF911F910F91089580E090E0D1CFBE
:1025F0006D897E898B819C810E945A1440E054E051
:102600000E946C148C01698D7A8D8F8198850E944F
:102610005A1440E054E00E946C14B8010E94F31375
:10262000AACF6D897E898B819C810E945A1440E0DB
:1026300054E00E946C14ADCF6D897E898B819C81A2
:102640000E945A1440E054E00E946C148C01698D81
:102650007A8D8F81988594CF0E9410149E8F8D8FD4
:102660008B859C85898B9A8BDF91CF911F910F91E0
:1026700008950F931F93CF93DF93EC01CB018A0151
:102680006F857889788F6F8B988B8F870E94101455
:102690009A8F898F1C8B0B8BCE01DF91CF911F916D
:1026A0000F910C9483124F925F926F927F928F9250
:1026B0009F92AF92BF92CF92DF92EF92FF920F93D1
:1026C0001F93CF93DF93EC01FB0141845284678019
:1026D000708403811481E580F680C584D684A38448
:1026E000B4848280912C64E774E00E94BA2262E094
:1026F000CE010E94FF22B4010E94442366E00E94A2
:10270000FF224C016FE774E00E94BA2262E0C4012C
:102710000E94FF22B5010E9444235C016CE874E032
:102720000E94BA2262E0C5010E94FF22B6010E9407
:10273000442366E00E94FF226C0161E974E00E947C
:10274000BA2266E0C6010E94FF226C0168E974E0CB
:102750000E94BA2262E0C6010E94FF22B7010E94D5
:10276000442366E00E94FF227C0164EA74E00E9438
:10277000BA2262E0C7010E94FF22B8010E944423EE
:1027800066E00E94FF228C0160EB74E00E94BA2296
:1027900062E0C8010E94FF22B3010E94442366E068
:1027A0000E94FF228C016CEB74E00E94BA2262E06E
:1027B000C8010E94FF22B2010E94442366E00E94E9
:1027C000FF22CE01DF91CF911F910F91FF90EF90EB
:1027D000DF90CF90BF90AF909F908F907F906F9041
:1027E0005F904F9008959C01432F4095441F4427CC
:1027F000441F80E090E8841B9109AC01421B530BFD
:10280000E1E0461757070CF0E0E0432F4095441FE6
:102810004427441FE41719F0C901860F971F089534
:102820008617970799F1611520E8720741F17195B4
:1028300061957109492F4095441F4427441F20E0AA
:1028400030E8241B3109A901481B590BE1E0461768
:10285000570764F4492F4095441F4427441FE41749
:1028600019F0860F971F0895C9010895E0E0492FD8
:102870004095441F4427441FE417B1F3F2CF97FD5E
:1028800003C06FEF7FE7D6CF0196FBCF80E090E0EB
:102890000895811520E8920729F09C0197FD05C055
:1028A000C90108958FEF9FE708953195219531096A
:1028B000C9010895811520E8920729F09C01DB01E8
:1028C0000E9408320895611520E87207B9F76FEF8A
:1028D0007FEF8FEF9FE708959A01442737FD4095DA
:1028E000542F0E948B32211580E83807410551058D
:1028F00024F02FEF3FE740E050E0DA01C9018115F5
:1029000020E892072FEFA207B20724F480E090E8B6
:10291000AFEFBFEF0895CF93DF93CDB7DEB76797E3
:102920000FB6F894DEBF0FBECDBF4C010E94EB186E
:102930006E877F87888B998B8FE190E00E9483223E
:102940003C01F401668177810E94C711E0912C055A
:10295000F0912D050FB6F8940F92118610860F9006
:102960000FBE0FB6F8940F92E0912805F09129055B
:1029700010861186128613860F900FBE82E089831F
:1029800080E094E0B82E8A839B8320E0D22E2C83B3
:1029900024E12D831F821E82182F8887998781E06A
:1029A000382F8A878FEF8B87582F8C871D8682E080
:1029B000A82E94E0C92E24E1E22EF12C0F8124E010
:1029C0004FEF60E0C3010E94011237EAC32ED12C01
:1029D000E12CF12C16C0F401468557856089718978
:1029E0004F5F5F4F6F4F7F4FF40146875787608B74
:1029F000718B45E050E060E070E0CE010E960E94E1
:102A00008B1A0FB6F8940F920F900FBEE09122052B
:102A1000F091230580858130F1F60FB6F8940F927E
:102A20000F900FBEE0912805F09129054085518552
:102A3000E0912C05F0912D050FB6F8940F9280854A
:102A400091859F8B8E8B0F900FBE6E897F89C301FE
:102A50000E9439130FB6F8940F92E0912405F0917B
:102A60002505918780870F900FBEF401A684B78457
:102A700000891189B501C801A70196010E94693238
:102A8000672B682B692B19F0A501B801A9CFE0913C
:102A90003C05F0913D050FB6F8940F928085918525
:102AA0009D8B8C8B0F900FBE0C891D896BE0F40100
:102AB000868197810E94FF225C0162EA77E00E9492
:102AC000BA2262E0C5010E94FF22B8010E94E12300
:102AD00066E00E94FF22E0912C05F0912D050FB6D3
:102AE000F8940F92808591859B8B8A8B0F900FBEF7
:102AF0000A891B896BE0F401868197810E94FF227D
:102B00005C016FE877E00E94BA22B801C5010E941B
:102B1000442366E00E94FF220FB6F8940F92E091E2
:102B20002805F091290520843184428453840F9034
:102B30000FBE6BE0F401868197810E94FF228C0119
:102B400064E777E00E94BA22B201A101C8010E94A5
:102B500073236BE00E94FF228C0167E877E00E94FC
:102B6000BA2266E0C8010E94FF22C3010E945612E9
:102B70008C016BE0F401868197810E94FF225C0149
:102B800061E677E00E94BA22B801C5010E944423A1
:102B900066E00E94FF22C3010E945A128C016BE082
:102BA000F401868197810E94FF225C016EE477E048
:102BB0000E94BA22B801C5010E94442366E00E9427
:102BC000FF2266E0F401868197810E94FF2203CFF5
:102BD0000F931F93CF93DF93EC010E94411E8CEC67
:102BE00094E099838883DF91CF911F910F9108958D
:102BF0000F931F93CF93DF93EC010E94E518809110
:102C00004E05811121C088E595E09093540580938D
:102C10005305109256051092550587E397E190935E
:102C20005205809351051092500510924F059093D4
:102C30005B0580935A058FE495E090935905809346
:102C4000580581E080934E05209709F460C0AE01DD
:102C50004C5F5F4F2396C633D74108F058C0E091D0
:102C60005305F0915405A3E5B5E006C0808191813C
:102C7000009739F0DF01FC012281338124173507E9
:102C8000A8F3C5E0EF34FC0709F441C00D911C9195
:102C900011970C5F1F4F808191818D939C93C90187
:102CA000841B950B8930910500F1BF01640F751FDE
:102CB000DB0113969C938E93129753834283129653
:102CC0008D919C911397A3E5B5E001C0DF01ED91D3
:102CD000FC9111972281338128173907B8F3EB0152
:102CE000F983E8836D937C939A018091000290911F
:102CF0000102821B930B90930102809300020E94B9
:102D0000181AC801DF91CF911F910F91089500E02B
:102D100010E00E94181AC801DF91CF911F910F9106
:102D20000895CF93DF93009721F1EC0124970E943F
:102D3000E5184A815B81A3E5B5E001C0DF01ED91B3
:102D4000FC9111972281338124173507B8F3F98359
:102D5000E883CD93DC938091000290910102840F6F
:102D6000951F9093010280930002DF91CF910C9404
:102D7000181ADF91CF91089580910002909101027D
:102D8000089508958091C41C823018F00E94E127B4
:102D9000F9CFFFCFCF92DF92EF92FF926B017C01D0
:102DA000E0918F1CF091901C6283738384839583E0
:102DB0008091981C9091991CA0919A1CB0919B1C99
:102DC00060918F1C7091901CC816D906EA06FB060C
:102DD00010F18091AC1C9091AD1C6E5F7F4F0E94F2
:102DE000A8268091020290910302A0910402B09162
:102DF0000502C816D906EA06FB0640F4C092020294
:102E0000D0920302E0920402F0920502FF90EF904C
:102E1000DF90CF9008958091AA1C9091AB1C6E5FBB
:102E20007F4FFF90EF90DF90CF900C94A8265F9299
:102E30006F927F928F929F92AF92BF92CF92DF92CA
:102E4000EF92FF920F931F93CF93DF934C01162FB6
:102E5000572E5A01390189E290E00E94F815EC01E1
:102E6000009709F4E9C0C114D10409F4DAC0DC8E7A
:102E7000CB8EC601A50165EA70E00E94AF3321E068
:102E8000A21AB108CB8CDC8CCA0CDB1CAE01435EF1
:102E90005F4FE12FF52D2AE0CF013191DA013D930B
:102EA000AD01DC018C91882311F02150A9F71EA2FD
:102EB000102F043008F07DC01A8F1FA318A65E01E2
:102EC000B2E0AB0EB11CC5010E948326CE010E9666
:102ED0000E948326DB87CA8784E090E0A0E0B0E010
:102EE000811B9109A109B1098E879F87A88BB98B96
:102EF000DF8BCE8BA301B401C6010E9411279983F9
:102F00008883E114F10419F0F701D183C0830FB66F
:102F1000F8940F9280919C1C8F5F80939C1C8091F1
:102F20008F1C9091901C892B09F449C08091961CAC
:102F300081110BC0E0918F1CF091901C828D0817BD
:102F400020F0D093901CC0938F1C8091921C8F5FB7
:102F50008093921C8A8D9091971C981738F1FBE012
:102F60008F9FC0011124B5018C53934E0E94872678
:102F70000F900FBE8091961C882339F0E0918F1C32
:102F8000F091901C828D8017B0F081E0DF91CF919D
:102F90001F910F91FF90EF90DF90CF90BF90AF9077
:102FA0009F908F907F906F905F9008958093971C73
:102FB000D6CF13E081CF0E94E12781E0E7CFD09305
:102FC000901CC0938F1C80919C1C813009F0BDCF58
:102FD00084EC9CE10E9472268FEC9CE10E94722698
:102FE0008AED9CE10E94722685EE9CE10E94722689
:102FF00089EB9CE10E9472268EEA9CE10E94722677
:103000008FE99CE10E94722689EB9CE19093AD1CB4
:103010008093AC1C8EEA9CE19093AB1C8093AA1C1D
:1030200094CFC5010E94F8159C8F8B8F009709F0F3
:1030300021CFCE010E9491168FEFA8CF0FB6F89442
:103040000F92009729F00F900FBEFC01828D08951A
:1030500080918F1C9091901C0F900FBEFC01828D6F
:103060000895EF92FF921F93CF93DF93EC01262FE9
:10307000643008F023E00FB6F8940F92209709F41B
:103080004AC03FA13217A9F180918F1C9091901CEA
:103090003217B8F5C817D90741F0E0918F1CF091AD
:1030A000901C11E0828D281708F410E08A8D3817E3
:1030B00069F12FA34E855F856889798977FD0CC0FA
:1030C00044E050E060E070E0421B51096109710981
:1030D0004E875F87688B798B2BE0829FC00111241C
:1030E0008C53934E2C853D8528173907C9F0113034
:1030F00079F00F900FBEDF91CF911F91FF90EF906D
:10310000089511E0C817D90781F6D0CF2A8FD1CF03
:103110000E94E127EECFC0918F1CD091901CB1CFBF
:103120007E0182E0E80EF11CC7010E94E5268A8D2F
:103130009091971C981710F48093971C2BE0829F16
:10314000C0011124B7018C53934E0E948726CFCF24
:10315000AF92BF92CF92DF92EF92FF920F93A12C8A
:10316000B12CC12CD12C8DE9E82E8CE1F82E00E099
:1031700020E030E044E650E060ED74E082EC96E15F
:103180000E941717813041F00F91FF90EF90DF9070
:10319000CF90BF90AF900895F8948093961C1092B2
:1031A000981C1092991C10929A1C10929B1C0F91C3
:1031B000FF90EF90DF90CF90BF90AF900C94A52739
:1031C000F8941092961C0C94E0278091911C8F5FCC
:1031D0008093911C08950FB6F8940F926091981CFB
:1031E0007091991C80919A1C90919B1C0F900FBE1E
:1031F00008956091981C7091991C80919A1C9091EF
:103200009B1C089580919C1C0895009711F04D9689
:10321000089580918F1C9091901C4D9608958091F7
:103220009D1C90919E1C0895AF92BF92CF92DF9209
:10323000EF92FF920F931F93CF93DF938091911C96
:103240008111CFC08091981C9091991CA0919A1CDB
:10325000B0919B1C0196A11DB11D8093981C909369
:10326000991CA0939A1CB0939B1CC090981CD09062
:10327000991CE0909A1CF0909B1CC114D104E104AD
:10328000F10439F58091AC1C9091AD1C2091AA1CE1
:103290003091AB1C3093AD1C2093AC1C9093AB1CB5
:1032A0008093AA1C8091931C8F5F8093931CE09164
:1032B000AC1CF091AD1C808181119AC08FEF9FEF03
:1032C000DC018093020290930302A0930402B09366
:1032D00005028091020290910302A0910402B09134
:1032E0000502B12CC816D906EA06FB0608F457C039
:1032F0009BE0A92EE091AC1CF091AD1C808188234D
:1033000009F442C0E091AC1CF091AD1C0780F0853F
:10331000E02DC085D1854A815B816C817D81C41699
:10332000D506E606F70608F47AC08E010E5F1F4F39
:10333000C8010E94E526888D998D892B21F0CE0148
:103340000E960E94E5268A8D9091971C981710F48E
:103350008093971CA89EC0011124B8018C53934EF2
:103360000E948726E0918F1CF091901C9A8D828D8F
:10337000981708F4BFCFBB24B394E091AC1CF09134
:10338000AD1C80818111BECF4FEF5FEFBA0140933A
:103390000202509303026093040270930502E091CD
:1033A0008F1CF091901CE28D8BE0E89FF0011124BE
:1033B000EC53F34E8081823010F0BB24B3948091A3
:1033C000941C882311F0BB24B3948B2DDF91CF91F3
:1033D0001F910F91FF90EF90DF90CF90BF90AF9033
:1033E00008958091951C8F5F8093951CB12CE7CF39
:1033F000E091AC1CF091AD1C0780F085E02D0084BD
:10340000F185E02D82819381A481B58180930202B0
:1034100090930302A0930402B09305025ACF409305
:103420000202509303026093040270930502B7CF27
:10343000EF92FF920F931F93CF93DF930FB6F89401
:103440000F928091911C81508093911C8091911CCE
:10345000811150C080919C1C882309F44BC02BE043
:10346000F22EEE24E39427C0E091A61CF091A71C55
:10347000C085D185CE010E960E94E5268E010E5F95
:103480001F4FC8010E94E5268A8D9091971C9817BE
:1034900010F48093971CF89EC0011124B8018C533E
:1034A000934E0E948726E0918F1CF091901C9A8D7C
:1034B000828D981748F580919F1C8111D5CF8091FE
:1034C000951C882399F08091951C882379F0C1E0A0
:1034D0000E9414198111C093941C8091951C8150F5
:1034E0008093951C8091951C8111F2CF8091941C42
:1034F000813069F080E00F900FBEDF91CF911F9176
:103500000F91FF90EF900895E092941CD4CF0E9409
:10351000E12781E0F0CFCF92DF92EF92FF920F93FD
:103520001F93CF93DF9300D000D0CDB7DEB72091AB
:10353000911C2F5F2093911CC090981CD090991CD7
:10354000E0909A1CF0909B1CFC010081118122816B
:103550003381400F511F621F731FC016D106E20650
:10356000F306E8F44017510762077307E8F0FC011F
:1035700040835183628373830E94181A811102C0B1
:103580000E94E1270F900F900F900F90DF91CF9145
:103590001F910F91FF90EF90DF90CF90089540170B
:1035A00051076207730728F0C416D506E606F7062A
:1035B000F0F6FC01408351836283738380918F1CFA
:1035C0009091901C029649835A836B837C830E945E
:1035D000E52649815A816B817C81CB01BA010E9429
:1035E000CA16CACFCF92DF92EF92FF926115710592
:1035F0008105910539F40E94E127FF90EF90DF905B
:10360000CF9008952091911C2F5F2093911CC09022
:10361000981CD090991CE0909A1CF0909B1CC60EB0
:10362000D71EE81EF91E80918F1C9091901C029667
:103630000E94E526C701B6010E94CA160E94181A08
:103640008823C9F2FF90EF90DF90CF90089580918A
:10365000911C81113BC01092941CE091971C8BE04F
:10366000E89FF0011124EC53F34E8081811110C0CA
:103670009BE08091971C81508093971CE091971C50
:103680009E9FF0011124EC53F34E8081882389F32F
:10369000E091971C8BE0E89FF0011124EC53F34E6E
:1036A000A181B28114960D90BC91A02DB283A1830B
:1036B000CF010396A817B90769F018968D919C91D0
:1036C00019979093901C80938F1C089581E08093AC
:1036D000941C089514969C91149715968C9191833F
:1036E0008283A92FB82FE9CFCF92DF92EF92FF927A
:1036F0006A017B0160918F1C7091901C625F7F4F0B
:103700000E94A82680918F1C9091901C02960E9486
:10371000E5266091981C7091991C80919A1C90915B
:103720009B1C6C0D7D1D8E1D9F1DFF90EF90DF90EB
:10373000CF900C94CA16CF92DF92EF92FF920F9324
:103740001F9368017901E0918F1CF091901C7068C3
:1037500046875787608B718B60918F1C7091901C8E
:10376000625F7F4F0E94872680918F1C9091901CF2
:1037700002960E94E5266091981C7091991C809198
:103780009A1C90919B1C6C0D7D1D8E1D9F1D1F9181
:103790000F91FF90EF90DF90CF900C94CA160F938B
:1037A0001F93CF93DF93DC011796ED91FC9118974F
:1037B000C085D1858E01025F1F4FC8010E94E5269A
:1037C0008091911C811124C08E010E5F1F4FC80192
:1037D0000E94E5268A8D9091971C9817F8F0BBE01F
:1037E0008B9FC0011124B8018C53934E0E948726F1
:1037F000E0918F1CF091901C9A8D828D891788F42E
:1038000081E08093941CDF91CF911F910F910895D7
:10381000B8018FE99CE10E948726EACF8093971C2C
:10382000DECF80E0DF91CF911F910F9108950F932C
:103830001F93CF93DF937068FC01408351836283B1
:103840007383C085D1850E94E5268E010E5F1F4FD0
:10385000C8010E94E5268A8D9091971C981710F454
:103860008093971CFBE08F9FC0011124B8018C53FB
:10387000934E0E948726E0918F1CF091901C9A8DA8
:10388000828D891740F481E08093941CDF91CF9161
:103890001F910F91089580E0DF91CF911F910F91BB
:1038A00008952091931CFC0120834091981C509115
:1038B000991C60919A1C70919B1C41835283638375
:1038C000748308958F929F92AF92BF92CF92DF92AE
:1038D000EF92FF920F931F93FC01DB010FB6F89458
:1038E0000F924091981C5091991C60919A1C709174
:1038F0009B1C8091931C90810181128123813481D2
:10390000981729F0401751076207730770F5CD909B
:10391000DD90ED90FC9013974A015B01801A910AAB
:10392000A20AB30A8C149D04AE04BF04F0F4C41AB6
:10393000D50AE60AF70AC00ED11EE21EF31ECD928A
:10394000DD92ED92FC9213978091931C808380917D
:10395000981C9091991CA0919A1CB0919B1C8183FA
:103960009283A383B48380E001C081E00F900FBEF7
:103970001F910F91FF90EF90DF90CF90BF90AF908D
:103980009F908F90089581E08093941C08950097F4
:1039900099F0DC015B96ED91FC915C978081853A12
:1039A00081F4319680E090E0DC010196A11DB11D0B
:1039B0002191253AD1F3089580918F1C9091901C0C
:1039C000E8CF80E0089580918F1C9091901C08951D
:1039D0000F931F93CF93DF93EC01009781F18A8DB2
:1039E000E0918F1CF091901C928D891740F54E85C7
:1039F0005F856889798977FD11C0E0918F1CF0910E
:103A0000901C928D44E050E060E070E0491B510949
:103A1000610971094E875F87688B798B2BE0829FE4
:103A2000C00111248C53934E2C853D8528173907EE
:103A300059F0E0918F1CF091901C828D8A8FDF915C
:103A4000CF911F910F9108958E010E5F1F4FC801F6
:103A50000E94E526E0918F1CF091901C828D8A8F48
:103A60009091971C981710F48093971C2BE0829FDD
:103A7000C0011124B8018C53934EDF91CF911F9157
:103A80000F910C9487260F931F93CF93DF93EC0134
:103A9000009749F088A5815088A72A8D9FA12917F2
:103AA00011F0882331F080E0DF91CF911F910F91C9
:103AB00008958E010E5F1F4FC8010E94E5268FA159
:103AC0008A8F44E050E060E070E0481B51096109D2
:103AD00071094E875F87688B798B9091971C981737
:103AE00010F48093971C2BE0829FC0011124B80131
:103AF0008C53934E0E94872681E0DF91CF911F91D6
:103B00000F910895CF92DF92EF92FF92E0918F1C78
:103B1000F091901C6685778580899189E0918F1C52
:103B2000F091901CA0918F1CB091901C5A962C91F2
:103B300034E0C32ED12CE12CF12CC21AD108E108BB
:103B4000F108C686D786E08AF18AFF90EF90DF9071
:103B5000CF90089580918F1C9091901C892B39F003
:103B6000E0918F1CF091901C80A58F5F80A78091C1
:103B70008F1C9091901C0895EF92FF920F931F93CA
:103B8000CF93DF9300D0CDB7DEB77C0189ED94E011
:103B9000F7019183808361157105C1F0FB010190EC
:103BA0000020E9F73197E61BED3020F50E2F10E0ED
:103BB000C801019669837A830E948A22F70195835E
:103BC0008483A80169817A810E94B6338091F01CB8
:103BD0009091F11CF70197838683F092F11CE0929B
:103BE000F01C0F900F90DF91CF911F910F91FF90DC
:103BF000EF900895ECE0DACF0F931F93CF93DF930C
:103C0000EC018091F01C9091F11C6BE0892B49F143
:103C1000CE010E94FF228C0166EF77E00E94BA225B
:103C200066E0C8010E94FF226BE0CE010E94FF22E5
:103C30008C0163ED77E00E94BA2266E0C8010E9421
:103C4000FF228091F01C9091F11CDC01ED91FC9120
:103C50000190F081E02DBE01DF91CF911F910F9176
:103C60000994CE010E94FF22EC0165EB77E00E94EF
:103C7000BA2266E0CE01DF91CF911F910F910C9493
:103C8000FF224F925F926F927F928F929F92AF929C
:103C9000BF92CF92DF92EF92FF920F931F93CF9339
:103CA000DF93EC013B0149012801FC018FED94E019
:103CB00081939193A12CB12CC12CD12C7F01042F85
:103CC0009E01A40186EC91E30E9417175F824E8249
:103CD000998688862091F21C3091F31C3D832C83B9
:103CE000D093F31CC093F21C1C861D868090001D8F
:103CF0009090011D9FEF891A990A9092011D809260
:103D0000001D9B868A861E861F86188A198A411482
:103D1000510409F44CC06BE0813041F1C2010E94B2
:103D2000FF22EC0169E178E00E94BA22B301CE01E2
:103D30000E94BA22E881F9810280F381E02D62E2DB
:103D4000CE01099566E0CE01DF91CF911F910F91D1
:103D5000FF90EF90DF90CF90BF90AF909F908F90AB
:103D60007F906F905F904F900C94FF22C2010E9451
:103D7000FF22EC016FE278E00E94BA22B301CE018B
:103D80000E94BA226BE0CE010E94FF22EC0166E3A2
:103D900078E00E94BA2263E0CE010E94FF22B401C3
:103DA0000E94E12362E00E94FF2266E0CDCFDF9116
:103DB000CF911F910F91FF90EF90DF90CF90BF9028
:103DC000AF909F908F907F906F905F904F900895ED
:103DD000EC01E881F9810190F081E02D09951B82C9
:103DE0001A826FEF7FEFCB010E94F21AFACFFC012B
:103DF000648765870895FC01C681D781209739F0D3
:103E0000CE010E94BA2266E0CE010E94FF222BE082
:103E100088E190E00FB6F894A895809360000FBEFB
:103E200020936000FFCF0E94EB180E94183320E01F
:103E300030E04AE754E40E94B0320895CF92DF9216
:103E4000EF92FF920F931F93CF93DF93EC017B01CF
:103E50008A819B810E9405196C016BE0C7010E9459
:103E6000FF228C016DE478E00E94BA22B601C801FD
:103E70000E94BA2266E0C8010E94FF228A859B85C3
:103E800028853985A701BC01821B930B0E94032260
:103E90000C80DD81C02D2097D9F6DF91CF911F9145
:103EA0000F91FF90EF90DF90CF9008950F931F93A5
:103EB000CF93DF93EC018091F21C9091F31C00975B
:103EC00019F0BE010E941E1F6BE0CE010E94FF226E
:103ED0008C0164E578E00E94BA2266E0C8010E9485
:103EE000FF228091001D9091011DBC016F5F7F4FEB
:103EF000AE0183569109DF91CF911F910F910C94E0
:103F000003228F929F92AF92BF92CF92DF92EF9255
:103F1000FF920F931F93CF93DF93EC018B018A8164
:103F20009B810E940519BC01C8010E94BA22D801D8
:103F3000ED91FC910280F381E02D69E0C8010995C3
:103F40008A819B810E940519FC0101900020E9F7FC
:103F50003197E81BF90B389748F4D801ED91FC91A3
:103F60000280F381E02D69E0C8010995CE84DF84E9
:103F7000E888F988A884B9848A819B810E94C71C3B
:103F8000982E8C848A819B810E941E18682FC801FC
:103F90000E9463246BE00E94FF22EC0168EC78E051
:103FA0000E94BA22682DCE010E9463246BE00E9419
:103FB000FF22EC016AEC78E00E94BA22692DCE0162
:103FC0000E9463246BE00E94FF22EC016CEC78E01D
:103FD0000E94BA22B501CE010E94E1236BE00E944B
:103FE000FF22EC016EEC78E00E94BA226BE0CE0179
:103FF0000E94FF22EC0160ED78E00E94BA22B70136
:10400000A601CE01DF91CF911F910F91FF90EF900C
:10401000DF90CF90BF90AF909F908F900C941B2417
:104020000F931F93CF93DF93EC018B01E881F9810C
:104030000280F381E02DB801CE01099566E0C80148
:104040000E94FF220C80DD81C02D209779F7DF913F
:10405000CF911F910F910895CF93DF93EC01CB0186
:10406000DB01ED91FC910280F381E02DBE01099509
:10407000CE01DF91CF9108950F931F93CF93DF93DC
:10408000EC016BE00E94FF228C0166EB78E00E945D
:10409000BA226BE0C8010E94FF228C0161EC78E03B
:1040A0000E94BA2266E0C8010E94FF226BE0CE01A6
:1040B0000E94FF228C0163E978E00E94BA226BE043
:1040C000C8010E94FF228C0164EA78E00E94BA22B3
:1040D0006BE0C8010E94FF228C0160EB78E00E9437
:1040E000BA2266E0C8010E94FF226BE0CE010E9466
:1040F000FF228C0160E778E00E94BA226BE0C801E1
:104100000E94FF228C0161E878E00E94BA226BE0F5
:10411000C8010E94FF228C016DE878E00E94BA225B
:1041200066E0C8010E94FF228091F21C9091F31C6E
:10413000009719F0BE010E9410200E940F190E94E2
:10414000C71C182F6BE0CE010E94FF22EC016FE527
:1041500078E00E94BA22612FCE010E9463246BE0B6
:104160000E94FF22EC016AE678E00E94BA2264E62F
:1041700070E0CE010E94E1236BE00E94FF22EC017F
:104180006CE678E00E94BA2266E0CE01DF91CF9122
:104190001F910F910C94FF22CF92DF92EF92FF922A
:1041A0000F931F93CF93DF937C018B01DC011A9651
:1041B0006D917C911B97C8010E94BA22F701A285DC
:1041C000B385FD0101900020E9F73197DE2EDA1A60
:1041D000FFE0FD1580F0C0E0D0E0D801ED91FC914A
:1041E0000280F381E02D60E2C801099521968C2FB1
:1041F0008D0D803190F363EE74E0C8010E94BA2205
:10420000D7015696CD90DC9057971E968D919C9134
:104210001F970E943A2C682FC8010E946324EC016A
:10422000E881F9810280F381E02D6FE20995B60102
:10423000CE010E94E123DC01ED91FC910280F3812B
:10424000E02D69E0099566E0C8010E94FF22F701B0
:1042500084859585009781F0DC01ED91FC910190BA
:10426000F081E02DB801DF91CF911F910F91FF9068
:10427000EF90DF90CF900994DF91CF911F910F9134
:10428000FF90EF90DF90CF9008956F927F928F9282
:104290009F92AF92BF92CF92DF92EF92FF920F93D5
:1042A0001F93CF93DF93EC01762E672E4A015901BD
:1042B000670178010E94AF22B401CE0106960E94E8
:1042C000BC1D8EEE94E09983888320E035E03F8327
:1042D0002E83BD8AAC8A40E061E0872D0E94AB2925
:1042E0009F878E87C88AD98AEA8AFB8A7E8A6F8AE4
:1042F000DF91CF911F910F91FF90EF90DF90CF90C2
:10430000BF90AF909F908F907F906F900895069789
:104310000C94CC20CF92DF92EF92FF920F931F93D9
:10432000CF93DF93CDB7DEB72F970FB6F894DEBFEC
:104330000FBECDBF8C017B01DB016D917D918D9115
:104340009C9128EE33E040E050E00E946932BA01CF
:10435000A901C8010E941B24D801ED91FC910280A3
:10436000F381E02D6EE2C8010995C7010E94632C1C
:104370006E01B9E0CB0ED11C7E01EFE0EE0EF11C18
:104380002AE030E040E050E00E948B32E62F2983A3
:104390003A834B835C8369817A818B819C81E05D68
:1043A000D701EE937D01AC15BD0551F71F86BD0108
:1043B000C8010E94BA22C8012F960FB6F894DEBF3A
:1043C0000FBECDBFDF91CF911F910F91FF90EF9066
:1043D000DF90CF900895CF93DF93EC010FB6F89460
:1043E0000F9280912401909125019D838C830E94DE
:1043F000EB18688379838A839B830F900FBECE016D
:10440000DF91CF9108958F929F92AF92BF92CF92FA
:10441000DF92EF92FF920F931F93CF93DF936C0184
:104420004B01EA0163E0CA010E94FF22C814D904CB
:1044300008F059C0560184E1A80EB11C7501B601FF
:10444000CE010E94E1236BE00E94FF2262ED78E042
:104450000E94BA228601F80161918F01CE010E946B
:104460006324E881F9810280F381E02D60E2CE01CE
:1044700009950E151F0579F7E881F9810280F3810E
:10448000E02D60E2CE0109950FC080EE860FE88135
:10449000F9810280F381E02D8F3508F06EE2CE01C4
:1044A0000995CE14DF0481F0F60161916F01653A40
:1044B00061F7E881F9810280F381E02D60E2CE01AD
:1044C0000995CE14DF0481F7650166E0CE010E94F4
:1044D000FF22F4E1EF0EF11CA814B90420F4C50189
:1044E00044965C01ACCF62E0CE01DF91CF911F9189
:1044F0000F91FF90EF90DF90CF90BF90AF909F9083
:104500008F900C94FF220C94F815009711F00C94E6
:10451000911608950C94F815009711F00C949116CB
:104520000895FC0181E090E02081222311F080E0D9
:1045300090E0089521E0FC012083089508950895F6
:1045400081E0089580E0089580E008950895DC01F9
:10455000ED91FC910280F381E02D6CE00994FC0167
:1045600086E095E0918380838AE0828383E085837F
:10457000148208950F931F93CF93DF93EC01FB01F7
:104580008C81811117C06081662379F08F010F5FE4
:104590001F4FE881F9810280F381E02DCE0109955A
:1045A000F80161918F016111F4CFDF91CF911F91DB
:1045B0000F9108951C828B010F5F1F4F649166233A
:1045C000A1F3A881B9811296ED91FC911397CE01C8
:1045D0000995F80164910F5F1F4F6111F2CFE5CF8C
:1045E000883008F087E08093070289E008959EEF05
:1045F000980F9F3010F4809306028AE00895CF93BD
:10460000DF93EC01462F50E04C30510538F4FA01AD
:10461000EA59FF4F0C94AA3282E08A83CE01DF91DF
:10462000CF91089581E08C83F9CF88E08A83F6CF1B
:104630008AE08A83F3CF80E18A83F0CFE881F98131
:104640000280F381E02D6DE00995E881F981028017
:10465000F381E02D6AE0CE010995E0CFE881F98190
:104660000284F385E02D0995D9CFE881F981008492
:10467000F185E02D0995D2CF809107028D83CECFB1
:10468000809106028A83CACF0F931F93CF93DF9343
:10469000CDB7DEB761970FB6F894DEBF0FBECDBFC2
:1046A0008C01CB01F80122812A3079F0C8010E94E7
:1046B000E123C80161960FB6F894DEBF0FBECDBFEF
:1046C000DF91CF911F910F9108954AE050E0BE0114
:1046D0006F5F7F4F0E94C533BE016F5F7F4FC80180
:1046E0000E94BA22E6CF0F931F93CF93DF93CDB7EB
:1046F000DEB7A2970FB6F894DEBF0FBECDBF8C0118
:10470000CB01BA01F80122812A3089F0AB01BC014A
:10471000C8010E941B24C801A2960FB6F894DEBF00
:104720000FBECDBFDF91CF911F910F9108952AE069
:1047300030E0AE014F5F5F4F0E94E633BE016F5F16
:104740007F4FC8010E94BA22E6CF0F931F93CF93E9
:10475000DF9300D000D01F92CDB7DEB78C01862F3B
:10476000D80113969C911397911112C0F801928170
:104770009A30B1F0C8010E946324C8010F900F90D5
:104780000F900F900F90DF91CF911F910F9108958F
:10479000ED91FC910280F381E02DC8010995EDCFE8
:1047A0004AE050E0BE016F5F7F4F992787FD9095EB
:1047B0000E94C533BE016F5F7F4FC8010E94BA22BD
:1047C000DCCFFF920F931F93CF93DF93CDB7DEB76C
:1047D00061970FB6F894DEBF0FBECDBF8C01F62EE9
:1047E000972FF8014281403191F0483081F04230FA
:1047F00071F050E0BE016F5F7F4F8F2D0E943F34FC
:10480000BE016F5F7F4FC8010E94BA2207C0692FA7
:10481000C8010E9463246F2D0E946324C801619621
:104820000FB6F894DEBF0FBECDBFDF91CF911F91C1
:104830000F91FF900895DF92EF92FF920F931F93D5
:10484000CF93DF93CDB7DEB7A1970FB6F894DEBF55
:104850000FBECDBF8C01D42EE52EF62E972FF8017A
:1048600022812031A1F0283091F0223081F030E017
:10487000AE014F5F5F4F6D2D7E2D8F2D0E941A343C
:10488000BE016F5F7F4FC8010E94BA220DC0692F21
:10489000C8010E9463246F2D0E9463246E2D0E9424
:1048A00063246D2D0E946324C801A1960FB6F8946D
:1048B000DEBF0FBECDBFDF91CF911F910F91FF9053
:1048C000EF90DF900895CF92DF92EF92FF920F93D7
:1048D0001F93CF93DF93CDB7DEB729970FB6F89428
:1048E000DEBF0FBECDBF8C01D62EDC0113968C919E
:1048F000139781115DC0F80142814230D9F14031F6
:10490000F1F050E0BE016F5F7F4F8D2D90E00E946F
:104910003F34BE016F5F7F4FC8010E94BA22C801B9
:1049200029960FB6F894DEBF0FBECDBFDF91CF91B1
:104930001F910F91FF90EF90DF90CF9008956295B7
:104940006F700190F081E02D0280F381E02D6A30DC
:10495000B8F5605DC80109956D2D6F70D801ED91B6
:10496000FC910280F381E02D6A3060F1695CC8013E
:104970000995D5CF88E0E82EF12C90E8C92E0AC021
:1049800061E3C8010995C694B1E0EB1AF108E1149E
:10499000F10429F28C2D8D21D801ED91FC9102803A
:1049A000F381E02D8111ECCF60E3C8010995EBCFD5
:1049B000ED91FC910280F381E02DC8010995AFCF04
:1049C000695CC8CF605DD3CFDC011896ED91FC9196
:1049D000199780811C969C911C97892359F421E298
:1049E0003EE405C0215031092115310571F0808167
:1049F0008923C1F380811E969C911E97892B808309
:104A00001696ED91FC91179760830895FC018785B8
:104A100081111DC02091FC1C3091FD1C8091FA1C5D
:104A20009091FB1C2817390789F0E091FE1CF0914A
:104A3000FF1CE20FF31F80812F5F3F4F20323105B3
:104A400018F11092FD1C1092FC1C0895FFCF2091CC
:104A5000F61C3091F71C8091F41C9091F51C2817DE
:104A6000390789F0E091F81CF091F91CE20FF31F6F
:104A700080812F5F3F4F2032310558F01092F71C94
:104A80001092F61C0895FFCF3093FD1C2093FC1C60
:104A900008953093F71C2093F61C0895DC01ED91E6
:104AA000FC910280F381E02D6CE00994FC01878584
:104AB000882369F081E04091F61C5091F71C209109
:104AC000F41C3091F51C4217530769F0089581E0FA
:104AD0004091FC1C5091FD1C2091FA1C3091FB1C54
:104AE0004217530799F780E00895EF92FF921F93C2
:104AF000CF93DF9300D0CDB7DEB77C01142F69834D
:104B00007A830E94AF22412F69817A81C70106967C
:104B10000E94A12C86E195E0F7019183808317879D
:104B20001123E9F08091C90080688093C90080E278
:104B300090E00E948A229093F91C8093F81C1092B6
:104B4000F71C1092F61C1092F51C1092F41C0F909A
:104B50000F90DF91CF911F91FF90EF90089580917A
:104B6000C10080688093C10080E290E00E948A22A8
:104B70009093FF1C8093FE1C1092FD1C1092FC1C55
:104B80001092FB1C1092FA1C0F900F90DF91CF91A6
:104B90001F91FF90EF9008951F920F920FB60F9202
:104BA00011240BB60F922F933F938F939F93EF9304
:104BB000FF932091C600E091FE1CF091FF1C8091B4
:104BC000FA1C9091FB1CE80FF91F20838091FA1CBE
:104BD0009091FB1C019680329105C0F49093FB1CD0
:104BE0008093FA1C2091FC1C3091FD1C281739077A
:104BF000D1F0FF91EF919F918F913F912F910F9065
:104C00000BBE0F900FBE0F901F9018951092FB1CBB
:104C10001092FA1C80E090E02091FC1C3091FD1C69
:104C20002817390731F701969093FD1C8093FC1CDF
:104C30008097F8F21092FD1C1092FC1CDACF1F92A4
:104C40000F920FB60F9211240BB60F922F933F9332
:104C50008F939F93EF93FF932091CE00E091F81CE8
:104C6000F091F91C8091F41C9091F51CE80FF91F4C
:104C700020838091F41C9091F51C0196803291055F
:104C8000C0F49093F51C8093F41C2091F61C309195
:104C9000F71C28173907D1F0FF91EF919F918F9161
:104CA0003F912F910F900BBE0F900FBE0F901F9052
:104CB00018951092F51C1092F41C80E090E0209161
:104CC000F61C3091F71C2817390731F7019690939D
:104CD000F71C8093F61C8097F8F21092F71C109244
:104CE000F61CDACFFC010396928381834FEF5FEFCE
:104CF000BA01438354836583768390878783928741
:104D0000818710820895FC01138612860895CF933F
:104D1000DF939C01FB01DC011196CD91DC91129790
:104D2000D583C4838E819F81978386838E819F8163
:104D3000DC0115967C936E9314977F836E83338783
:104D40002287F90180818F5F8083DF91CF91089561
:104D50000F931F93CF93DF93EB01088119812A8171
:104D60003B810F3F4FEF14072407340731F1DC017B
:104D7000139601C0DF011496ED91FC9115974081C7
:104D8000518162817381041715072607370790F751
:104D9000FD83EC83D783C683BF83AE831596DC93F4
:104DA000CE9314979B878A87FC0120812F5F2083F5
:104DB000DF91CF911F910F910895FC01A185B285DC
:104DC0001496ED91FC911597E3CFCF93DF93FC01FF
:104DD000A285B3852481358186819781E9019F83EE
:104DE0008E8386819781EC013D832C8311962D91D2
:104DF0003C9112972E173F0741F0138612868C9133
:104E000081508C93DF91CF91089512969C938E934D
:104E10001197138612868C9181508C93DF91CF91DC
:104E200008959093011D8093001D31E1FC013083B2
:104E3000319722E22083FC013297A3E3A083FC0197
:104E400033976083FC0134977083FC01359710829F
:104E5000FC01369760E86083FC0137971082FC0103
:104E6000389762E06083FC01399763E06083FC015E
:104E70003A9764E06083FC013B9765E06083FC0146
:104E80003C9766E06083FC013D9767E06083FC012E
:104E90003E9768E06083FC013F9769E06083FC0116
:104EA000709760E16083FC0171973083FC01729719
:104EB00032E13083FC01739733E13083FC01749756
:104EC00034E13083FC01759735E13083FC0176973E
:104ED00036E13083FC01779737E13083FC01789726
:104EE00038E13083FC01799739E13083FC017A970E
:104EF00030E23083FC017B9731E23083FC017C9708
:104F00002083FC017D9723E22083FC017E97408370
:104F1000FC017F975083FC01B09726E22083FC01BF
:104F2000B19727E22083FC01B29728E22083FC019D
:104F3000B39729E22083FC01B49720E32083FC018E
:104F4000B59721E320838697089587E08093290110
:104F50008FEC809328018AE080932101E3E7F0E061
:104F6000808182608083A0918F1CB091901CCD9134
:104F7000CDBFDD91DEBFFF91EF91DF91CF91BF916A
:104F8000AF919F918F917F916F915F914F913F91E1
:104F90002F911F910F91FF90EF90DF90CF90BF90D6
:104FA000AF909F908F907F906F905F904F903F90C9
:104FB0002F901F900F900FBE0F90089581E00895DD
:104FC00008950F920FB6F8940F921F9211242F920A
:104FD0003F924F925F926F927F928F929F92AF9289
:104FE000BF92CF92DF92EF92FF920F931F932F9376
:104FF0003F934F935F936F937F938F939F93AF9361
:10500000BF93CF93DF93EF93FF93A0918F1CB09149
:10501000901C0DB60D920EB60D920E94271BA0910A
:105020008F1CB091901CCD91CDBFDD91DEBFFF9163
:10503000EF91DF91CF91BF91AF919F918F917F9130
:105040006F915F914F913F912F911F910F91FF9021
:10505000EF90DF90CF90BF90AF909F908F907F9018
:105060006F905F904F903F902F901F900F900FBECA
:105070000F9008950F920FB6F8940F921F9211247B
:105080002F923F924F925F926F927F928F929F9258
:10509000AF92BF92CF92DF92EF92FF920F931F9346
:1050A0002F933F934F935F936F937F938F939F9330
:1050B000AF93BF93CF93DF93EF93FF93A0918F1C98
:1050C000B091901C0DB60D920EB60D920E9414195F
:1050D00081110E94271BA0918F1CB091901CCD9133
:1050E000CDBFDD91DEBFFF91EF91DF91CF91BF91F9
:1050F000AF919F918F917F916F915F914F913F9170
:105100002F911F910F91FF90EF90DF90CF90BF9064
:10511000AF909F908F907F906F905F904F903F9057
:105120002F901F900F900FBE0F9008950E943A2865
:1051300018951F93CF93DF93EC01142F88A1811151
:105140000DC088819981892B09F44DC080E09E8D26
:105150009F5F9E8FDF91CF911F910895482F50E060
:1051600011111CC08C819D810E94A63328A18C81C5
:105170009D81820F911D9D838C832A813B818217A3
:10518000930720F3888199819D838C8380E09E8D95
:105190009F5F9E8FDF91CF911F9108958E819F8198
:1051A0000E94A63328A130E03195219531098E81E6
:1051B0009F81820F931F9F838E83688179818617D9
:1051C000970730F48A819B81820F931F9F838E8380
:1051D000123009F0BBCF8E8D882309F4B7CF8E8DA6
:1051E00081508E8FB3CF8A819B810E94431D1B8289
:1051F0001A82ADCFFC01CB0140A1442399F050E0CD
:1052000026813781240F351F37832683628173817E
:105210002617370720F02081318137832683B90193
:105220000C94A63308950F931F93CF93DF93EC0153
:105230000FB6F8940F928AA11816ECF48B89882384
:10524000D1F08E010D5E1F4F09C08AA181508AA343
:105250008AA1181684F48B89882369F0C8010E94FA
:10526000CF1B882391F30E94C31C8AA181508AA37B
:105270008AA1181684F38FEF8AA30F900FBE0FB682
:10528000F8940F9289A11816ECF488858823D1F040
:105290008E01085F1F4F09C089A1815089A389A190
:1052A000181684F48885882369F0C8010E94CF1BF2
:1052B000882391F30E94C31C89A1815089A389A1ED
:1052C000181684F38FEF89A30F900FBEDF91CF9153
:1052D0001F910F910895CF93DF93EC010FB6F894CF
:1052E0000F92288139818F8D78A1879FC001112469
:1052F000A901480F591F5B834A831E8E3D832C836F
:10530000871B9109820F931F9F838E838FEF89A341
:105310008AA3611112C08885811106C00F900FBE4B
:1053200081E0DF91CF910895CE0108960E94CF1BB6
:105330008130A1F70E94E127F1CFCE0108960E94AB
:105340007226CE0143960E9472260F900FBE81E016
:10535000DF91CF9108950F931F93CF93DF93182F71
:10536000062F882301F183E290E00E94F815EC01FA
:105370000097C9F0109FC001112401960E94F815F2
:1053800099838883892B61F01F8F08A361E0CE0188
:105390000E946B29CE01DF91CF911F910F9108954B
:1053A000CE010E949116C0E0D0E0CE01DF91CF91F6
:1053B0001F910F9108956F927F928F929F92AF925B
:1053C000BF92CF92DF92EF92FF920F93CF93DF9332
:1053D000CDB7DEB729970FB6F894DEBF0FBECDBFAD
:1053E0005C014B012E833F834887598720E03C01B5
:1053F00088E0680E711C0FB6F8940F92F501968D37
:10540000878D981708F459C0023009F456C0CE8031
:10541000DF80E884F984CD28CE28CF2809F46FC036
:10542000222309F441C00F900FBE0E94E5180FB669
:10543000F8940F92F50181A18F3F09F43CC0F5016A
:1054400082A18F3FB1F10F900FBEBE016A5F7F4F07
:10545000CE0101960E94621C811155C00FB6F894CE
:105460000F92F501968D0F900FBEF501878D981361
:1054700014C04E815F8168857985C3010E94741BC9
:10548000C5010E9413290E94181A882311F021E0F7
:10549000B2CF0E94E12721E0AECFC5010E941329BF
:1054A0000E94181A21E0A7CFCE0101960E94511C3C
:1054B000BACF12A2C8CF11A2C2CF402FB401C501EA
:1054C0000E949928F5019389911124C0811128C067
:1054D0000F900FBE81E029960FB6F894DEBF0FBE85
:1054E000CDBFDF91CF910F91FF90EF90DF90CF90E4
:1054F000BF90AF909F908F907F906F9008950F9086
:105500000FBE80E0E8CFC5010E9413290E94181A3F
:1055100080E0E1CFC50143960E94CF1B8130C1F6E8
:105520000E94E127D5CF0F93CF93DF9383E290E0E2
:105530000E94F815EC01009701F11B821A82198272
:1055400018821D821C821F821E821E8E81E08F8F18
:1055500018A28FEF89A38AA3CE0108960E94722613
:10556000CE0143960E94722600E020E030E0A901BF
:1055700060E070E0CE010E94DB29CE01DF91CF9187
:105580000F9108950F931F93CF93DF93EC018A013E
:105590009E8D8F8D981740F0223031F080E0DF91A2
:1055A000CF911F910F910895422FCE010E9499280B
:1055B000882331F00115110519F081E0F80180838D
:1055C0008AA18F3F49F08AA18F5F8AA381E0DF9192
:1055D000CF911F910F9108958B898823B9F3CE0144
:1055E00043960E94CF1B882389F30115110571F39F
:1055F00081E0F8018083D3CFAF92BF92CF92DF9248
:10560000EF92FF920F93CF93DF93CDB7DEB7299739
:105610000FB6F894DEBF0FBECDBF7C016B012E83A9
:105620003F834887598790E0570183E1A80EB11C5A
:105630000FB6F8940F92F701868D811169C04E81E3
:105640005F8168857985452B462B472B09F47DC002
:10565000992309F43EC00F900FBE0E94E5180FB6C3
:10566000F8940F92F70181A18F3F09F43EC0F70132
:1056700082A18F3F09F43FC00F900FBEBE016A5F49
:105680007F4FCE0101960E94621C811171C00FB63E
:10569000F8940F92F701868D0F900FBE81111EC0F6
:1056A000F70180819181892B41F14E815F8168856D
:1056B0007985C5010E94741BC7010E9413290E94AD
:1056C000181A882311F091E0B3CF0E94E12791E0EE
:1056D000AFCFCE0101960E94511CBDCFC7010E94E1
:1056E00013290E94181A91E0A3CF11A2F70182A1F9
:1056F0008F3F09F0C1CF12A2BFCF0FB6F8940F921F
:10570000F701828193810E94E81C0F900FBECDCFDC
:10571000A680B780B601C7010E94FA28F7010111DF
:105720002EC0868D8150868F80819181892BB9F121
:10573000F7018085882341F1C70108960E94CF1B9D
:10574000813011F50E94E1271FC00F900FBE80E04D
:1057500029960FB6F894DEBF0FBECDBFDF91CF9173
:105760000F91FF90EF90DF90CF90BF90AF90089592
:10577000C7010E9413290E94181A80E0E9CFB7825E
:10578000A6828389811104C00F900FBE81E0E0CF13
:10579000C70143960E94CF1B8823B1F3D3CF0E9449
:1057A000AA1DF70193838283C3CF0F931F93CF93D7
:1057B000DF9300D0CDB7DEB78C01FC01868D81115F
:1057C00008C080E00F900F90DF91CF911F910F9153
:1057D0000895C80149835A830E94FA28F801868DEA
:1057E0008150868F81A149815A818F3F61F0F801F4
:1057F00081A18F5F81A381E00F900F90DF91CF9106
:105800001F910F91089580858823A9F3C8010896F8
:1058100049835A830E94CF1B49815A81882359F3B7
:105820004115510541F381E0FA018083CBCF0F93FD
:105830001F93CF93DF93EC018E8D811106C080E022
:10584000DF91CF911F910F9108950E811F81CE019D
:105850000E94FA281F830E8381E0DF91CF911F9170
:105860000F9108950FB6F8940F92FC01868D0F905A
:105870000FBE08950FB6F8940F92FC01268D0F907D
:105880000FBEFC01878D821B0895FC01868D089553
:10589000CF93DF93EC0188819981009711F00E94EA
:1058A0009116CE01DF91CF910C949116FC01968D4B
:1058B00081E0911180E00895FC01268D81E0978DB3
:1058C000291380E00895CF92DF92EF92FF92CF9359
:1058D000DF93EC01688179818A819B8128EEC22E59
:1058E00023E0D22EE12CF12CA70196010E9469320F
:1058F0009B01AC0160E472E48FE090E00E943132E1
:10590000A70196010E94693269017A01AC81BD81CB
:1059100020E432E44FE050E00E94263220E834E8F0
:105920004EE150E00E946932C20ED31EE41EF51E05
:10593000C701B601DF91CF91FF90EF90DF90CF903C
:105940000895CF93DF93EC01442309F441C08EEC1A
:1059500090E09983888388EC90E09B838A8389EC2C
:1059600090E09D838C8388E18093C90086E08093DA
:10597000CA001092CD009B0140E050E0220F331F7F
:10598000441F551F220F331F441F551F220F331F63
:10599000441F551F220F331F441F551F60E074E240
:1059A00084EF90E00E9469322093CC008091C8007F
:1059B00081608093C80080E28E8380E88F8380E4DA
:1059C0008887E881F98180818081DF91CF91089576
:1059D00086EC90E09983888380EC90E09B838A83B7
:1059E00081EC90E09D838C8388E18093C10086E008
:1059F0008093C2001092C5009B0140E050E0220F4E
:105A0000331F441F551F220F331F441F551F220FE2
:105A1000331F441F551F220F331F441F551F60E0C3
:105A200074E284EF90E00E9469322093C400809178
:105A3000C00081608093C000BECFDC011296ED9162
:105A4000FC911397208116968C91282381E009F40C
:105A500080E00895DC011296ED91FC91139720816E
:105A600018968C91282381E009F080E00895DF9258
:105A7000EF92FF920F931F93CF93DF937C018B01E3
:105A8000DC0114966D917C911597C8010E94BA2291
:105A9000F701A481B581FD0101900020E9F731975C
:105AA000DE2EDA1AFFE0FD1580F0C0E0D0E0D8016C
:105AB000ED91FC910280F381E02D60E2C80109952F
:105AC00021968C2F8D0D803190F365E172E0C80135
:105AD0000E94BA2266E0C8010E94FF22D7011696F2
