:100000000C941F020C943E020C943E020C943E028F
:100010000C943E020C943E020C943E020C943E0260
:100020000C943E020C943E020C943E020C943E0250
:100030000C943E020C943E020C943E020C943E0240
:100040000C943E020C943E020C943E020C943E0230
:100050000C943E020C943E020C943E020C943E0220
:100060000C943E020C94CA170C943E020C943E026F
:100070000C943E020C943E020C943E020C943E0200
:100080000C943E020C943E020C943E020C943E02F0
:100090000C941D180C943E020C943E020C943E02EB
:1000A0000C943E020C943E020C943E020C943E02D0
:1000B0000C943E020C943E020C943E020C94941A52
:1000C0000C943E020C943E020C943E02A715B0150F
:1000D000B315B615A915A915B915C915D015D71594
:1000E000DB15AD154D45343035204C616220312093
:1000F0005374617274696E672050726F6772616DBC
:10010000004D45343035204C6162203120556E6DF4
:100110006F6469666965642050726F6772616D20F3
:1001200056302E3031200041707220313320323071
:1001300031360053797374656D2074696D653A20AA
:10014000002C20486561703A20002C204F43523526
:10015000413A20002020683A202020202048414CAD
:10016000502100202043746C2D433A205265736562
:100170007420746865204156520020206E3A202079
:10018000202020456E7465722061206E756D626559
:1001900072202864656D6F29002020643A20202099
:1001A0002020537461636B2064756D7020666F72DC
:1001B000207461736B73002020733A20202020206C
:1001C00056657273696F6E20616E64207365747515
:1001D0007020696E666F726D6174696F6E002020A9
:1001E000743A202020202053686F7720746865209F
:1001F00074696D65207269676874206E6F77004D51
:1002000045343035204C6162203120556E6D6F646D
:1002100069666965642050726F6772616D2056303F
:100220002E303120002068656C7000496C6C656769
:10023000616C2073746174652120526573657474F8
:10024000696E6720415652003C696E76616C696444
:100250002063686172202200223E004E756D626547
:100260007220656E74657265643A2000223A2057E8
:1002700054463F00526573657474696E6720415639
:100280005200456E74657220646563696D616C200F
:100290006E756D65726963206469676974732C207B
:1002A0007468656E2052455455524E206F72204539
:1002B000534300507265737320276827206F7220A4
:1002C000273F2720666F722068656C7000414443A9
:1002D0005352413A200041444D55583A2000414480
:1002E0004330203D200041444331203D2000414423
:1002F0004332203D200041444333203D200041440F
:100300004334203D200041444335203D20004144FA
:100310004336203D200041444337203D20004E6FAE
:10032000207368617265642064617461206974651A
:100330006D7320746F207072696E74002D2D2D2DD9
:100340002020202020202020202020202D2D2D2D79
:10035000202020202D2D2D2D2D2D2D2D2D2D005308
:10036000686172652F5175657565202020202054C5
:1003700079706520202020467265652F546F746166
:100380006C004552524F52206372656174696E670A
:10039000207461736B2022005461736B2022002251
:1003A00020637265617465642C20737461636B20D3
:1003B0006174203078005461736B3A20005461738B
:1003C0006B3A2049444C450049444C4509093009E1
:1003D0002D09002F0009092D002D2D2D2D09092D86
:1003E0002D2D2D092D2D2D2D2D00092D2D2D2D2DB2
:1003F0002D2D2D2D2D00092D2D2D2D004E616D65DE
:1004000009095072692E09537461746500094672B6
:1004100065652F546F74616C000952756E730054DA
:1004200061736B0909202009200009537461636B13
:1004300000090009002F00090009002020001124F4
:100440001FBECFEFD1E2DEBFCDBF13E0A0E0B2E030
:10045000ECE9F3E400E00BBF02C007900D92A63276
:10046000B107D9F71AE1A6E2B3E001C01D92AC3D95
:10047000B107E1F70E94351F0C94CC210C940000C9
:100480000F931F93CF93DF93EC010E94DC108BE25C
:1004900092E099838883DF91CF911F910F91089506
:1004A0000F931F93CF93DF93EC016BE08E819F81BD
:1004B0000E949A158C016FEF71E00E9455156BE058
:1004C000C8010E949A158C0165E272E00E945515E0
:1004D00066E0C8010E949A156BE08E819F810E94A0
:1004E0009A158C016EED71E00E94551566E0C80109
:1004F0000E949A156BE08E819F810E949A158C0153
:1005000067EB71E00E94551566E0C8010E949A15DC
:100510006BE08E819F810E949A158C0169E971E0E0
:100520000E94551566E0C8010E949A156BE08E8105
:100530009F810E949A158C016AE771E00E9455150F
:1005400066E0C8010E949A156BE08E819F810E942F
:100550009A158C0163E671E00E94551566E0C801AA
:100560000E949A156BE08E819F810E949A15EC0182
:1005700064E571E00E94551566E0CE01DF91CF91F0
:100580001F910F910C949A158F929F92AF92BF92E8
:10059000CF92DF92EF92FF920F931F93CF93DF934F
:1005A00000D000D000D0CDB7DEB78C0119821A82FE
:1005B0001B821C821E821D82C0902801D0902901BE
:1005C0000E9457095C01CE0101960E9486144C01DD
:1005D00066E0F801868197810E949A156BE00E947F
:1005E0009A157C0161E071E00E9455156BE0C7012E
:1005F0000E949A157C0167E271E00E94551566E041
:10060000C7010E949A156BE00E949A157C0163E372
:1006100071E00E945515B401C7010E9425146BE0DA
:100620000E949A157C0161E471E00E945515B501A4
:10063000C7010E94DF157C0163E272E00E9455153C
:1006400048E357E160E070E0C7010E9419166BE0D3
:100650000E949A157C016AE471E00E945515B6016A
:10066000C7010E94DF1566E00E949A1566E00E94AD
:100670009A15F801868197810E94D71266E0F801E9
:10068000868197810E949A15F801868197810E9440
:10069000971026960FB6F894DEBF0FBECDBFDF9140
:1006A000CF911F910F91FF90EF90DF90CF90BF906F
:1006B000AF909F908F900895CF93DF93CDB7DEB723
:1006C00027970FB6F894DEBF0FBECDBF8C011982FD
:1006D0001A821B821C821E821D826BE0DC01169630
:1006E0008D919C9117970E949A157C0163EB72E0A3
:1006F0000E94551566E0C7010E949A15C12CD12CA5
:100700007601F8018485882309F45AC0813009F004
:10071000A0C0F80186819781DC01ED91FC910480F5
:10072000F581E02D0995882309F403C1F80186813C
:100730009781DC01ED91FC910680F781E02D099510
:10074000282F80ED820F8A3008F4C4C02A3009F4C3
:10075000B9C02D3019F02B3109F095C066E0D801F1
:1007600016968D919C9117970E949A156BE00E94A6
:100770009A155C016BE572E00E945515B701A60160
:10078000C5010E94191666E00E949A1560E0C80132
:100790000E949211F80186859785A089B1890196FA
:1007A000A11DB11D86879787A08BB18B61E070E09A
:1007B00080E090E00E948D0DF80184858111A6CF24
:1007C00086819781DC01ED91FC910480F581E02D1B
:1007D00009958823F9F2F80186819781DC01ED9172
:1007E000FC910680F781E02D0995282F883609F4C1
:1007F0001FC10CF4F1C0833709F4EAC0843709F44F
:10080000D9C08E3609F4BFC0F801A680B780D501E3
:10081000ED91FC910280F381E02D62E2C5012F830E
:100820000995D501ED91FC910280F381E02D2F8196
:10083000622FC50109956BE0C5010E949A155C0104
:100840006CE672E00E94551566E0C5010E949A159B
:10085000A1CF6BE0868197810E949A158C016BE293
:1008600072E00E94551566E0C8010E949A152BE0BF
:1008700088E190E00FB6F894A895809360000FBED1
:1008800020936000FFCF6BE0F801868197812F8372
:100890000E949A155C0168E472E00E945515D5012A
:1008A000ED91FC910280F381E02D2F81622FC50133
:1008B00009956BE0C5010E949A1568E572E00E94F7
:1008C000551568CF65E272E0F801868197810E9434
:1008D000551560CFF80186819781DC01ED91FC917F
:1008E0000280F381E02D622F2F830995CC0CDD1C53
:1008F000EE1CFF1CB701A601440F551F661F771F92
:10090000440F551F661F771F4C0D5D1D6E1D7F1D0B
:100910002F81C22EDD24C7FCD094B0E3CB1AD108BE
:10092000EE24D7FCE094FE2CC40ED51EE61EF71E66
:1009300031CF8091260390912703DC01ED91FC914A
:100940000480F581E02D0995882309F423CFD8018F
:100950001696ED91FC9117970190F081E02DA28001
:10096000B3808091260390912703DC01ED91FC91E7
:100970000680F781E02D0995682FF801868197811F
:10098000F501099507CF6BE0F801868197810E94F8
:100990009A157C0162E872E00E94551566E0C70175
:1009A0000E949A1561E0C8010E949211C12CD12CBD
:1009B0007601F0CECE0101960E948614BC01F801AA
:1009C000868197810E94251466E00E949A15E2CEE6
:1009D000C8010E94C402DECE8F3351F1843601F18A
:1009E000833009F011CF6BE0D80116968D919C9160
:1009F00017970E949A158C0164E772E00E945515C2
:100A000066E0C8010E949A152BE088E190E00FB6DD
:100A1000F894A895809360000FBE20936000FFCFEC
:100A2000D80116968D919C9117970E94F111B2CE24
:100A3000C8010E945002AECECF93DF9300D000D009
:100A4000CDB7DEB78C010E94860B69837A838B83D6
:100A50009C8382E090E00E941E157C01F801668173
:100A600077810E946D0580E18DB981E380939000CC
:100A70008BE08093910060E0C7010E94A2059695EB
:100A800087959695879590939B0080939A00F8019F
:100A900046855785608971894F5F5F4F6F4F7F4FE4
:100AA00046875787608B718B44E650E060E070E0CA
:100AB000CE0101960E94260DDECF0F931F93CF9398
:100AC000DF93EC010E94DC1083E392E0998388833A
:100AD000DF91CF911F910F910895CF93DF93FC0188
:100AE0007183608320917A00206820937A0020919E
:100AF0007A00216020937A0020917A002D7F209344
:100B00007A0020917A00246020937A0020917C0062
:100B1000206420937C0020917C002F7720937C0020
:100B2000C081D181209759F067E372E0CE010E9425
:100B3000551566E0CE01DF91CF910C949A15DF91A7
:100B4000CF91089580917C00887F80937C00809174
:100B50007C006770682B60937C0080917A008064D1
:100B600080937A0080917A0086FDFCCF8091780096
:100B7000909179000895403430F1ECE3F0E04CE3DB
:100B8000677080E090E020917C00287F20937C00BB
:100B900020917C00262B20937C0020917A002064F9
:100BA00020937A0020917A0026FDFCCF20917800D6
:100BB00030917900820F931F415029F7BF010E94A5
:100BC0000220CB010895442319F0E42FF0E0D8CFA0
:100BD000E0E0F0E080E090E0BF010E940220CB0165
:100BE00008952F923F924F925F926F927F928F92D1
:100BF0009F92AF92BF92CF92DF92EF92FF920F93AC
:100C00001F93CF93DF9300D000D000D0CDB7DEB7D5
:100C10009E838D8380917C00887F80937C0080916F
:100C20007C00876080937C0080917A008064809350
:100C30007A0080917A0086FDFCCF20917800309177
:100C4000790080917C00887F80937C0080917C007B
:100C5000866080937C0080917A00806480937A0023
:100C600080917A0086FDFCCF20907800309079004A
:100C700080917C00887F80937C0080917C008560DF
:100C800080937C0080917A00806480937A008091C8
:100C90007A0086FDFCCF40907800509079008091DA
:100CA0007C00887F80937C0080917C0084608093AE
:100CB0007C0080917A00806480937A0080917A0031
:100CC00086FDFCCF009178001091790080917C0026
:100CD000887F80937C0080917C00836080937C007F
:100CE00080917A00806480937A0080917A0086FDFA
:100CF000FCCFE0907800F090790080917C00887FB4
:100D000080937C0080917C00826080937C00809145
:100D10007A00806480937A0080917A0086FDFCCF0F
:100D2000C0907800D090790080917C00887F80937B
:100D30007C0080917C00816080937C0080917A00AF
:100D4000806480937A0080917A0086FDFCCFA09029
:100D50007800B090790080917C00887F80937C003F
:100D600080917C0080937C0080917A0080648093E5
:100D70007A0080917A0086FDFCCF80907800909078
:100D8000790040917C0050917A006BE08D819E81CA
:100D90002B833C834A8359830E949A153C016DEC56
:100DA00072E00E9455155981652FC3010E9461169A
:100DB00066E00E949A156BE00E949A153C0166ED70
:100DC00072E00E9455154A81642FC3010E9461168A
:100DD00066E00E949A156BE00E949A153C016EED48
:100DE00072E00E945515B401C3010E94DF1566E050
:100DF0000E949A156BE00E949A154C0166EE72E013
:100E00000E945515B501C4010E94DF1566E00E94DD
:100E10009A156BE00E949A155C016EEE72E00E94DA
:100E20005515B601C5010E94DF1566E00E949A15AE
:100E30006BE00E949A156C0166EF72E00E945515F6
:100E4000B701C6010E94DF1566E00E949A156BE0AB
:100E50000E949A157C016EEF72E00E945515B80150
:100E6000C7010E94DF1566E00E949A156BE00E94A0
:100E70009A158C0166E073E00E945515B201C80115
:100E80000E94DF1566E00E949A156BE00E949A1599
:100E90008C016EE073E00E945515B101C8010E94FB
:100EA000DF1566E00E949A156BE00E949A158C018E
:100EB00066E173E00E9455152B813C81B901C801A0
:100EC0000E94DF1566E00E949A158D819E8126960C
:100ED0000FB6F894DEBF0FBECDBFDF91CF911F914B
:100EE0000F91FF90EF90DF90CF90BF90AF909F90C9
:100EF0008F907F906F905F904F903F902F900895CC
:100F0000CF93DF93FC0171836083428380918000E3
:100F1000816A80938000809180008093800080911E
:100F200081008A608093810080918100809381009C
:100F30008281813089F08230D9F0C081D1812097BF
:100F4000A1F068E772E0CE010E94551566E0CE017F
:100F5000DF91CF910C949A1587B1876087B9329A47
:100F6000269AC081D181209779F4DF91CF9108959D
:100F70008AB1806E8AB94F9A259AC081D181209713
:100F8000A1F361E672E0DFCF6AE472E0DCCFFC013E
:100F90002281213071F0223009F0089577FD18C0C8
:100FA0008BB18BB95E985D9A7093890060938800CD
:100FB000089528B128B977FD13C04198409A7093DD
:100FC0008B0060938A00FC018281823049F308958E
:100FD0008BB18BB95E9A5D98719561957109E4CF7B
:100FE000419A4098719561957109E9CFFC01228180
:100FF000213039F0223009F008958BB180668BB929
:10100000089528B1236028B92281F4CFFC01228100
:10101000213059F0223009F008958BB18BB970E07E
:101020007093890060938800089528B128B9262F0D
:1010300030E030938B0020938A002281EBCFEC01CB
:1010400083E090E00E941E157C016E817F8141E06B
:101050000E94800783E090E00E941E158C016E8143
:101060007F8142E00E94800764E670E0C7010E9431
:10107000C7076CED70E0C8010E94C707CE80DF8013
:1010800069EA72E0C6010E94551566E0C6010E9439
:101090009A1560ED77E080E090E00E948D0DC70129
:1010A0000E94F60762E3C8010E940608CE80DF8036
:1010B00061EB72E0C6010E94551566E0C6010E9410
:1010C0009A1560ED77E080E090E00E948D0D6CE96C
:1010D0007FEFC7010E94C70764E27FEFC8010E944B
:1010E000C707CE80DF8069EB72E0C6010E9455150C
:1010F00066E0C6010E949A1560ED77E080E090E01E
:101100000E948D0DB1CF0F931F93CF93DF93EC010E
:101110000E94DC108FEC92E099838883DF91CF915D
:101120001F910F9108950F931F93CF93DF93EC01BD
:101130000E94800B80912803811121C082E393E0FB
:1011400090932E0380932D031092300310922F035F
:1011500087E397E190932C0380932B0310922A034B
:1011600010922903909335038093340389E293E02E
:10117000909333038093320381E080932803209778
:1011800009F460C0AE014C5F5F4F2396C633D74170
:1011900008F058C0E0912D03F0912E03ADE2B3E0CA
:1011A00006C080819181009739F0DF01FC01228126
:1011B000338124173507A8F3C3E0E932FC0709F4AB
:1011C00041C00D911C9111970C5F1F4F808191813F
:1011D0008D939C93C901841B950B8930910500F177
:1011E000BF01640F751FDB0113969C938E931297BA
:1011F0005383428312968D919C911397ADE2B3E095
:1012000001C0DF01ED91FC911197228133812817F4
:101210003907B8F3EB01F983E8836D937C939A0166
:101220008091000290910102821B930B9093010226
:10123000809300020E94B30CC801DF91CF911F91EF
:101240000F91089500E010E00E94B30CC801DF91F7
:10125000CF911F910F910895CF93DF93009721F1C4
:10126000EC0124970E94800B4A815B81ADE2B3E0E0
:1012700001C0DF01ED91FC91119722813381241788
:101280003507B8F3F983E883CD93DC9380910002AE
:1012900090910102840F951F9093010280930002A8
:1012A000DF91CF910C94B30CDF91CF910895809191
:1012B0000002909101020895089580919E1A823053
:1012C00018F00E94DF19F9CFFFCFCF92DF92EF9293
:1012D000FF926B017C01E091691AF0916A1A6283B6
:1012E0007383848395838091721A9091731AA0916D
:1012F000741AB091751A6091691A70916A1AC816B9
:10130000D906EA06FB0610F18091861A9091871A99
:101310006E5F7F4F0E94A618809102029091030297
:10132000A0910402B0910502C816D906EA06FB0690
:1013300040F4C0920202D0920302E0920402F092C2
:101340000502FF90EF90DF90CF9008958091841A6E
:101350009091851A6E5F7F4FFF90EF90DF90CF9056
:101360000C94A6185F926F927F928F929F92AF9289
:10137000BF92CF92DF92EF92FF920F931F93CF9382
:10138000DF934C01162F572E5A01390189E290E064
:101390000E949308EC01009709F4E9C0C114D1043C
:1013A00009F4DAC0DC8ECB8EC601A50165EA70E0D7
:1013B0000E946B2121E0A21AB108CB8CDC8CCA0CF4
:1013C000DB1CAE01435E5F4FE12FF52D2AE0CF011C
:1013D0003191DA013D93AD01DC018C91882311F04C
:1013E0002150A9F71EA2102F043008F07DC01A8FDB
:1013F0001FA318A65E01B2E0AB0EB11CC5010E948E
:101400008118CE010E960E948118DB87CA8784E07E
:1014100090E0A0E0B0E0811B9109A109B1098E879D
:101420009F87A88BB98BDF8BCE8BA301B401C6013C
:101430000E940F1999838883E114F10419F0F701D0
:10144000D183C0830FB6F8940F928091761A8F5F84
:101450008093761A8091691A90916A1A892B09F4FF
:1014600049C08091701A81110BC0E091691AF09106
:101470006A1A828D081720F0D0936A1AC093691AED
:1014800080916C1A8F5F80936C1A8A8D9091711A7B
:10149000981738F1FBE08F9FC0011124B5018256E7
:1014A000954E0E9485180F900FBE8091701A882368
:1014B00039F0E091691AF0916A1A828D8017B0F0C4
:1014C00081E0DF91CF911F910F91FF90EF90DF901E
:1014D000CF90BF90AF909F908F907F906F905F90D4
:1014E00008958093711AD6CF13E081CF0E94DF193F
:1014F00081E0E7CFD0936A1AC093691A8091761A77
:10150000813009F0BDCF8EE99AE10E94701889EA16
:101510009AE10E94701884EB9AE10E9470188FEB98
:101520009AE10E94701883E99AE10E94701888E895
:101530009AE10E94701889E79AE10E94701883E985
:101540009AE19093871A8093861A88E89AE190939B
:10155000851A8093841A94CFC5010E9493089C8FAA
:101560008B8F009709F021CFCE010E942C098FEFBD
:10157000A8CF0FB6F8940F92009729F00F900FBEE6
:10158000FC01828D08958091691A90916A1A0F90DA
:101590000FBEFC01828D0895EF92FF921F93CF93AF
:1015A000DF93EC01262F643008F023E00FB6F894A7
:1015B0000F92209709F44AC03FA13217A9F18091F8
:1015C000691A90916A1A3217B8F5C817D90741F00D
:1015D000E091691AF0916A1A11E0828D281708F4D7
:1015E00010E08A8D381769F12FA34E855F856889D1
:1015F000798977FD0CC044E050E060E070E0421B68
:101600005109610971094E875F87688B798B2BE0DF
:10161000829FC00111248256954E2C853D85281746
:101620003907C9F0113079F00F900FBEDF91CF91DB
:101630001F91FF90EF90089511E0C817D90781F628
:10164000D0CF2A8FD1CF0E94DF19EECFC091691A77
:10165000D0916A1AB1CF7E0182E0E80EF11CC70179
:101660000E94E3188A8D9091711A981710F4809354
:10167000711A2BE0829FC0011124B7018256954E4A
:101680000E948518CFCFAF92BF92CF92DF92EF9298
:10169000FF920F93A12CB12CC12CD12C87E7E82EFF
:1016A0008AE1F82E00E020E030E044E650E063ED0F
:1016B00072E08DE599E00E94B209813041F00F910E
:1016C000FF90EF90DF90CF90BF90AF900895F89487
:1016D0008093701A1092721A1092731A1092741AE0
:1016E0001092751A0F91FF90EF90DF90CF90BF90FE
:1016F000AF900C94A319F8941092701A0C94DE1900
:1017000080916B1A8F5F80936B1A08950FB6F894CF
:101710000F926091721A7091731A8091741A90915D
:10172000751A0F900FBE08956091721A7091731A16
:101730008091741A9091751A08958091761A08957F
:10174000009711F04D9608958091691A90916A1A48
:101750004D9608958091771A9091781A0895AF92D6
:10176000BF92CF92DF92EF92FF920F931F93CF938E
:10177000DF9380916B1A8111CFC08091721A909182
:10178000731AA091741AB091751A0196A11DB11D1A
:101790008093721A9093731AA093741AB093751A67
:1017A000C090721AD090731AE090741AF090751A63
:1017B000C114D104E104F10439F58091861A9091A5
:1017C000871A2091841A3091851A3093871A2093B2
:1017D000861A9093851A8093841A80916D1A8F5F70
:1017E00080936D1AE091861AF091871A8081811199
:1017F0009AC08FEF9FEFDC01809302029093030267
:10180000A0930402B093050280910202909103021A
:10181000A0910402B0910502B12CC816D906EA06BF
:10182000FB0608F457C09BE0A92EE091861AF091C0
:10183000871A8081882309F442C0E091861AF091CA
:10184000871A0780F085E02DC085D1854A815B81AC
:101850006C817D81C416D506E606F70608F47AC0C9
:101860008E010E5F1F4FC8010E94E318888D998D6D
:10187000892B21F0CE010E960E94E3188A8D90915B
:10188000711A981710F48093711AA89EC001112440
:10189000B8018256954E0E948518E091691AF09120
:1018A0006A1A9A8D828D981708F4BFCFBB24B3941F
:1018B000E091861AF091871A80818111BECF4FEF97
:1018C0005FEFBA0140930202509303026093040257
:1018D00070930502E091691AF0916A1AE28D8BE02B
:1018E000E89FF0011124E256F54E8081823010F01D
:1018F000BB24B39480916E1A882311F0BB24B39457
:101900008B2DDF91CF911F910F91FF90EF90DF9082
:10191000CF90BF90AF90089580916F1A8F5F8093A2
:101920006F1AB12CE7CFE091861AF091871A0780E1
:10193000F085E02D0084F185E02D82819381A481E2
:10194000B5818093020290930302A0930402B093A6
:1019500005025ACF4093020250930302609304029F
:1019600070930502B7CFEF92FF920F931F93CF931F
:10197000DF930FB6F8940F9280916B1A8150809389
:101980006B1A80916B1A811150C08091761A88234E
:1019900009F44BC02BE0F22EEE24E39427C0E09133
:1019A000801AF091811AC085D185CE010E960E94D1
:1019B000E3188E010E5F1F4FC8010E94E3188A8D45
:1019C0009091711A981710F48093711AF89EC001C3
:1019D0001124B8018256954E0E948518E091691A2B
:1019E000F0916A1A9A8D828D981748F58091791A2C
:1019F0008111D5CF80916F1A882399F080916F1A49
:101A0000882379F0C1E00E94AF0B8111C0936E1A58
:101A100080916F1A815080936F1A80916F1A811193
:101A2000F2CF80916E1A813069F080E00F900FBE86
:101A3000DF91CF911F910F91FF90EF900895E09269
:101A40006E1AD4CF0E94DF1981E0F0CFCF92DF92DF
:101A5000EF92FF920F931F93CF93DF9300D000D0AC
:101A6000CDB7DEB720916B1A2F5F20936B1AC09011
:101A7000721AD090731AE090741AF090751AFC01E3
:101A80000081118122813381400F511F621F731F1A
:101A9000C016D106E206F306E8F4401751076207C4
:101AA0007307E8F0FC0140835183628373830E94D3
:101AB000B30C811102C00E94DF190F900F900F909C
:101AC0000F90DF91CF911F910F91FF90EF90DF90DA
:101AD000CF900895401751076207730728F0C41686
:101AE000D506E606F706F0F6FC01408351836283D3
:101AF00073838091691A90916A1A029649835A8376
:101B00006B837C830E94E31849815A816B817C81BD
:101B1000CB01BA010E946509CACFCF92DF92EF9242
:101B2000FF92611571058105910539F40E94DF1955
:101B3000FF90EF90DF90CF90089520916B1A2F5F68
:101B400020936B1AC090721AD090731AE090741A96
:101B5000F090751AC60ED71EE81EF91E8091691AFC
:101B600090916A1A02960E94E318C701B6010E947A
:101B700065090E94B30C8823C9F2FF90EF90DF90B3
:101B8000CF90089580916B1A81113BC010926E1A0C
:101B9000E091711A8BE0E89FF0011124E256F54EB6
:101BA0008081811110C09BE08091711A81508093D7
:101BB000711AE091711A9E9FF0011124E256F54EC0
:101BC0008081882389F3E091711A8BE0E89FF0010E
:101BD0001124E256F54EA181B28114960D90BC916C
:101BE000A02DB283A183CF010396A817B90769F08E
:101BF00018968D919C91199790936A1A8093691AFF
:101C0000089581E080936E1A089514969C9114971C
:101C100015968C9191838283A92FB82FE9CFCF920B
:101C2000DF92EF92FF926A017B016091691A7091D5
:101C30006A1A625F7F4F0E94A6188091691A90917C
:101C40006A1A02960E94E3186091721A7091731AD0
:101C50008091741A9091751A6C0D7D1D8E1D9F1DBB
:101C6000FF90EF90DF90CF900C946509CF92DF92B8
:101C7000EF92FF920F931F9368017901E091691A27
:101C8000F0916A1A706846875787608B718B6091F4
:101C9000691A70916A1A625F7F4F0E94851880915D
:101CA000691A90916A1A02960E94E3186091721A5A
:101CB0007091731A8091741A9091751A6C0D7D1D34
:101CC0008E1D9F1D1F910F91FF90EF90DF90CF9081
:101CD0000C9465090F931F93CF93DF93DC01179644
:101CE000ED91FC911897C085D1858E01025F1F4F41
:101CF000C8010E94E31880916B1A811124C08E01E3
:101D00000E5F1F4FC8010E94E3188A8D9091711ACF
:101D10009817F8F0BBE08B9FC0011124B8018256E0
:101D2000954E0E948518E091691AF0916A1A9A8D71
:101D3000828D891788F481E080936E1ADF91CF91AC
:101D40001F910F910895B80189E79AE10E948518C3
:101D5000EACF8093711ADECF80E0DF91CF911F919F
:101D60000F9108950F931F93CF93DF937068FC0139
:101D70004083518362837383C085D1850E94E318B9
:101D80008E010E5F1F4FC8010E94E3188A8D90914B
:101D9000711A981710F48093711AFBE08F9FC0019D
:101DA0001124B8018256954E0E948518E091691A57
:101DB000F0916A1A9A8D828D891740F481E08093A0
:101DC0006E1ADF91CF911F910F91089580E0DF91FE
:101DD000CF911F910F91089520916D1AFC012083DE
:101DE0004091721A5091731A6091741A7091751A19
:101DF000418352836383748308958F929F92AF923D
:101E0000BF92CF92DF92EF92FF920F931F93FC014C
:101E1000DB010FB6F8940F924091721A5091731A29
:101E20006091741A7091751A80916D1A9081018178
:101E3000128123813481981729F0401751076207D6
:101E4000730770F5CD90DD90ED90FC9013974A01EB
:101E50005B01801A910AA20AB30A8C149D04AE0495
:101E6000BF04F0F4C41AD50AE60AF70AC00ED11E60
:101E7000E21EF31ECD92DD92ED92FC9213978091BB
:101E80006D1A80838091721A9091731AA091741ABE
:101E9000B091751A81839283A383B48380E001C0DB
:101EA00081E00F900FBE1F910F91FF90EF90DF9098
:101EB000CF90BF90AF909F908F90089581E08093D6
:101EC0006E1A0895009799F0DC015B96ED91FC91F4
:101ED0005C978081853A81F4319680E090E0DC0166
:101EE0000196A11DB11D2191253AD1F3089580914C
:101EF000691A90916A1AE8CF80E008958091691A72
:101F000090916A1A08950F931F93CF93DF93EC017A
:101F1000009781F18A8DE091691AF0916A1A928D89
:101F2000891740F54E855F856889798977FD11C0ED
:101F3000E091691AF0916A1A928D44E050E060E0F5
:101F400070E0491B5109610971094E875F87688BF1
:101F5000798B2BE0829FC00111248256954E2C85EF
:101F60003D852817390759F0E091691AF0916A1AEE
:101F7000828D8A8FDF91CF911F910F9108958E01ED
:101F80000E5F1F4FC8010E94E318E091691AF0919B
:101F90006A1A828D8A8F9091711A981710F4809323
:101FA000711A2BE0829FC0011124B8018256954E10
:101FB000DF91CF911F910F910C9485180F931F9370
:101FC000CF93DF93EC01009749F088A5815088A753
:101FD0002A8D9FA1291711F0882331F080E0DF912D
:101FE000CF911F910F9108958E010E5F1F4FC80171
:101FF0000E94E3188FA18A8F44E050E060E070E017
:10200000481B5109610971094E875F87688B798B7D
:102010009091711A981710F48093711A2BE0829F97
:10202000C0011124B8018256954E0E94851881E0A6
:10203000DF91CF911F910F910895CF92DF92EF9290
:10204000FF92E091691AF0916A1A66857785808916
:102050009189E091691AF0916A1AA091691AB09178
:102060006A1A5A962C9134E0C32ED12CE12CF12C13
:10207000C21AD108E108F108C686D786E08AF18A3B
:10208000FF90EF90DF90CF9008958091691A909122
:102090006A1A892B39F0E091691AF0916A1A80A5C1
:1020A0008F5F80A78091691A90916A1A0895EF92C4
:1020B000FF920F931F93CF93DF9300D0CDB7DEB77E
:1020C0007C018CED92E0F7019183808361157105AD
:1020D000C1F0FB0101900020E9F73197E61BED30DC
:1020E00020F50E2F10E0C801019669837A830E94C3
:1020F0002515F70195838483A80169817A810E945F
:1021000072218091CA1A9091CB1AF7019783868326
:10211000F092CB1AE092CA1A0F900F90DF91CF91F4
:102120001F910F91FF90EF900895ECE0DACF0F939D
:102130001F93CF93DF93EC018091CA1A9091CB1A31
:102140006BE0892B49F1CE010E949A158C016FE555
:1021500073E00E94551566E0C8010E949A156BE075
:10216000CE010E949A158C016CE373E00E94551514
:1021700066E0C8010E949A158091CA1A9091CB1A04
:10218000DC01ED91FC910190F081E02DBE01DF9129
:10219000CF911F910F910994CE010E949A15EC01E5
:1021A0006EE173E00E94551566E0CE01DF91CF919C
:1021B0001F910F910C949A154F925F926F927F929C
:1021C0008F929F92AF92BF92CF92DF92EF92FF9247
:1021D0000F931F93CF93DF93EC013B01490128013B
:1021E000FC0182EE92E081939193A12CB12CC12C41
:1021F000D12C7F01042F9E01A40185EA9FE10E945A
:10220000B2095F824E82998688862091CC1A3091DD
:10221000CD1A3D832C83D093CD1AC093CC1A1C8643
:102220001D868090DA1A9090DB1A9FEF891A990A1E
:102230009092DB1A8092DA1A9B868A861E861F8607
:10224000188A198A4114510409F44CC06BE081309A
:1022500041F1C2010E949A15EC0162E873E00E940C
:102260005515B301CE010E945515E881F981028010
:10227000F381E02D62E2CE01099566E0CE01DF91A7
:10228000CF911F910F91FF90EF90DF90CF90BF9073
:10229000AF909F908F907F906F905F904F900C9435
:1022A0009A15C2010E949A15EC0168E973E00E9438
:1022B0005515B301CE010E9455156BE0CE010E9469
:1022C0009A15EC016FE973E00E94551563E0CE01A9
:1022D0000E949A15B4010E94DF1562E00E949A15CF
:1022E00066E0CDCFDF91CF911F910F91FF90EF90DE
:1022F000DF90CF90BF90AF909F908F907F906F9026
:102300005F904F900895EC01E881F9810190F08190
:10231000E02D09951B821A826FEF7FEFCB010E949F
:102320008D0DFACFFC01648765870895FC01C68195
:10233000D781209739F0CE010E94551566E0CE0175
:102340000E949A152BE088E190E00FB6F894A895CA
:10235000809360000FBE20936000FFCF0E94860B29
:102360000E94D42020E030E04AE754E40E946C2030
:102370000895CF92DF92EF92FF920F931F93CF9326
:10238000DF93EC017B018A819B810E94A00B6C0191
:102390006BE0C7010E949A158C0166EB73E00E9406
:1023A0005515B601C8010E94551566E0C8010E9486
:1023B0009A158A859B8528853985A701BC01821BD2
:1023C000930B0E949E140C80DD81C02D2097D9F6BE
:1023D000DF91CF911F910F91FF90EF90DF90CF9001
:1023E00008950F931F93CF93DF93EC018091CC1A44
:1023F0009091CD1A009719F0BE010E94B9116BE0BF
:10240000CE010E949A158C016DEB73E00E94551568
:1024100066E0C8010E949A158091DA1A9091DB1A41
:10242000BC016F5F7F4FAE0183569109DF91CF9161
:102430001F910F910C949E148F929F92AF92BF9216
:10244000CF92DF92EF92FF920F931F93CF93DF9380
:10245000EC018B018A819B810E94A00BBC01C80109
:102460000E945515D801ED91FC910280F381E02D79
:1024700069E0C80109958A819B810E94A00BFC013B
:1024800001900020E9F73197E81BF90B389748F4E1
:10249000D801ED91FC910280F381E02D69E0C80143
:1024A0000995CE84DF84E888F988A884B9848A8174
:1024B0009B810E94620F982E8C848A819B810E944E
:1024C000B90A682FC8010E9461166BE00E949A1534
:1024D000EC0161E374E00E945515682DCE010E9465
:1024E00061166BE00E949A15EC0163E374E00E94B0
:1024F0005515692DCE010E9461166BE00E949A1558
:10250000EC0165E374E00E945515B501CE010E940F
:10251000DF156BE00E949A15EC0167E374E00E94FE
:1025200055156BE0CE010E949A15EC0169E374E049
:102530000E945515B701A601CE01DF91CF911F91E1
:102540000F91FF90EF90DF90CF90BF90AF909F9052
:102550008F900C9419160F931F93CF93DF93EC0178
:102560008B01E881F9810280F381E02DB801CE0171
:10257000099566E0C8010E949A150C80DD81C02D86
:10258000209779F7DF91CF911F910F910895CF9305
:10259000DF93EC01CB01DB01ED91FC910280F38133
:1025A000E02DBE010995CE01DF91CF9108950F93E3
:1025B0001F93CF93DF93EC016BE00E949A158C017F
:1025C0006FE174E00E9455156BE0C8010E949A15F6
:1025D0008C016AE274E00E94551566E0C8010E9411
:1025E0009A156BE0CE010E949A158C016CEF73E096
:1025F0000E9455156BE0C8010E949A158C016DE090
:1026000074E00E9455156BE0C8010E949A158C0178
:1026100069E174E00E94551566E0C8010E949A15B0
:102620006BE0CE010E949A158C0169ED73E00E9467
:1026300055156BE0C8010E949A158C016AEE73E093
:102640000E9455156BE0C8010E949A158C0166EF37
:1026500073E00E94551566E0C8010E949A158091AA
:10266000CC1A9091CD1A009719F0BE010E94AB12BE
:102670000E94AA0B0E94620F182F6BE0CE010E94ED
:102680009A15EC0168EC73E00E945515612FCE019C
:102690000E9461166BE00E949A15EC0163ED73E0F5
:1026A0000E94551564E670E0CE010E94DF156BE0D4
:1026B0000E949A15EC0165ED73E00E94551566E0E5
:1026C000CE01DF91CF911F910F910C949A15CF926B
:1026D000DF92EF92FF920F931F93CF93DF937C01D2
:1026E0008B01DC011A966D917C911B97C8010E94A9
:1026F0005515F701A285B385FD0101900020E9F78A
:102700003197DE2EDA1AFFE0FD1580F0C0E0D0E050
:10271000D801ED91FC910280F381E02D60E2C801C7
:10272000099521968C2F8D0D803190F366EE72E025
:10273000C8010E945515D7015696CD90DC90579749
:102740001E968D919C911F970E94381E682FC8017C
:102750000E946116EC01E881F9810280F381E02D8D
:102760006FE20995B601CE010E94DF15DC01ED9103
:10277000FC910280F381E02D69E0099566E0C801D3
:102780000E949A15F70184859585009781F0DC01F8
:10279000ED91FC910190F081E02DB801DF91CF9196
:1027A0001F910F91FF90EF90DF90CF900994DF91F0
:1027B000CF911F910F91FF90EF90DF90CF900895F0
:1027C0006F927F928F929F92AF92BF92CF92DF9241
:1027D000EF92FF920F931F93CF93DF93EC01762E2E
:1027E000672E4A015901670178010E944A15B40118
:1027F000CE0106960E94571081EF92E0998388835C
:1028000023E033E03F832E83BD8AAC8A40E061E061
:10281000872D0E94A91B9F878E87C88AD98AEA8A3A
:10282000FB8A7E8A6F8ADF91CF911F910F91FF9073
:10283000EF90DF90CF90BF90AF909F908F907F9060
:102840006F90089506970C946713CF92DF92EF92E2
:10285000FF920F931F93CF93DF93CDB7DEB72F97E0
:102860000FB6F894DEBF0FBECDBF8C017B01DB013C
:102870006D917D918D919C9128EE33E040E050E088
:102880000E941620BA01A901C8010E941916D80198
:10289000ED91FC910280F381E02D6EE2C801099573
:1028A000C7010E94611E6E01B9E0CB0ED11C7E01F2
:1028B000EFE0EE0EF11C2AE030E040E050E00E9434
:1028C0003820E62F29833A834B835C8369817A81A0
:1028D0008B819C81E05DD701EE937D01AC15BD0538
:1028E00051F71F86BD01C8010E945515C8012F96DA
:1028F0000FB6F894DEBF0FBECDBFDF91CF911F9111
:102900000F91FF90EF90DF90CF900895CF93DF93DA
:10291000EC010FB6F8940F9280912401909125015B
:102920009D838C830E94860B688379838A839B8333
:102930000F900FBECE01DF91CF9108958F929F929D
:10294000AF92BF92CF92DF92EF92FF920F931F93BD
:10295000CF93DF936C014B01EA0163E0CA010E944F
:102960009A15C814D90408F059C0560184E1A80E7C
:10297000B11C7501B601CE010E94DF156BE00E940B
:102980009A156BE374E00E9455158601F801619178
:102990008F01CE010E946116E881F9810280F381E6
:1029A000E02D60E2CE0109950E151F0579F7E8814B
:1029B000F9810280F381E02D60E2CE0109950FC01C
:1029C00080EE860FE881F9810280F381E02D8F355A
:1029D00008F06EE2CE010995CE14DF0481F0F60115
:1029E00061916F01653A61F7E881F9810280F381B5
:1029F000E02D60E2CE010995CE14DF0481F7650178
:102A000066E0CE010E949A15F4E1EF0EF11CA814C5
:102A1000B90420F4C50144965C01ACCF62E0CE015C
:102A2000DF91CF911F910F91FF90EF90DF90CF90AA
:102A3000BF90AF909F908F900C949A150C94930830
:102A4000009711F00C942C0908950C9493080097AA
:102A500011F00C942C090895FC0181E090E0208194
:102A6000222311F080E090E0089521E0FC01208312
:102A700008950895089581E0089580E0089580E024
:102A800008950895DC01ED91FC910280F381E02D21
:102A90006CE00994FC0189E093E0918380838AE0F3
:102AA000828383E08583148208950F931F93CF93CD
:102AB000DF93EC01FB018C81811117C060816623DB
:102AC00079F08F010F5F1F4FE881F9810280F38158
:102AD000E02DCE010995F80161918F016111F4CFCC
:102AE000DF91CF911F910F9108951C828B010F5F91
:102AF0001F4F64916623A1F3A881B9811296ED91CD
:102B0000FC911397CE010995F80164910F5F1F4F57
:102B10006111F2CFE5CF883008F087E0809307029B
:102B200089E008959EEF980F9F3010F4809306027D
:102B30008AE00895CF93DF93EC01462F50E04C30AC
:102B4000510538F4FA01EA59FF4F0C94572082E0FE
:102B50008A83CE01DF91CF91089581E08C83F9CFF4
:102B600088E08A83F6CF8AE08A83F3CF80E18A8384
:102B7000F0CFE881F9810280F381E02D6DE00995C5
:102B8000E881F9810280F381E02D6AE0CE010995A8
:102B9000E0CFE881F9810284F385E02D0995D9CF52
:102BA000E881F9810084F185E02D0995D2CF8091EB
:102BB00007028D83CECF809106028A83CACFFF920F
:102BC0000F931F93CF93DF93CDB7DEB761970FB607
:102BD000F894DEBF0FBECDBF8C01F62E972FF80103
:102BE0004281403191F0483081F0423071F050E044
:102BF000BE016F5F7F4F8F2D0E94A621BE016F5FC8
:102C00007F4FC8010E94551507C0692FC8010E9457
:102C100061166F2D0E946116C80161960FB6F89477
:102C2000DEBF0FBECDBFDF91CF911F910F91FF90FF
:102C30000895DF92EF92FF920F931F93CF93DF934C
:102C4000CDB7DEB7A1970FB6F894DEBF0FBECDBFEC
:102C50008C01D42EE52EF62E972FF80122812031FB
:102C6000A1F0283091F0223081F030E0AE014F5FCA
:102C70005F4F6D2D7E2D8F2D0E948121BE016F5FD4
:102C80007F4FC8010E9455150DC0692FC8010E94D1
:102C900061166F2D0E9461166E2D0E9461166D2DBA
:102CA0000E946116C801A1960FB6F894DEBF0FBE50
:102CB000CDBFDF91CF911F910F91FF90EF90DF90EB
:102CC0000895CF92DF92EF92FF920F931F93CF93CD
:102CD000DF93CDB7DEB729970FB6F894DEBF0FBEEE
:102CE000CDBF8C01D62EDC0113968C9113978111E8
:102CF0005DC0F80142814230D9F14031F1F050E03D
:102D0000BE016F5F7F4F8D2D90E00E94A621BE0116
:102D10006F5F7F4FC8010E945515C80129960FB6F5
:102D2000F894DEBF0FBECDBFDF91CF911F910F9101
:102D3000FF90EF90DF90CF90089562956F700190B3
:102D4000F081E02D0280F381E02D6A30B8F5605DFE
:102D5000C80109956D2D6F70D801ED91FC9102802D
:102D6000F381E02D6A3060F1695CC8010995D5CF27
:102D700088E0E82EF12C90E8C92E0AC061E3C80172
:102D80000995C694B1E0EB1AF108E114F10429F2B7
:102D90008C2D8D21D801ED91FC910280F381E02DE5
:102DA0008111ECCF60E3C8010995EBCFED91FC9167
:102DB0000280F381E02DC8010995AFCF695CC8CFCF
:102DC000605DD3CFDC011896ED91FC91199780815D
:102DD0001C969C911C97892359F421E23EE405C07E
:102DE000215031092115310571F080818923C1F30A
:102DF00080811E969C911E97892B80831696ED915B
:102E0000FC91179760830895FC01878581111DC08F
:102E10002091D61A3091D71A8091D41A9091D51A50
:102E20002817390789F0E091D81AF091D91AE20FE2
:102E3000F31F80812F5F3F4F2032310518F1109230
:102E4000D71A1092D61A0895FFCF2091D01A309138
:102E5000D11A8091CE1A9091CF1A2817390789F08C
:102E6000E091D21AF091D31AE20FF31F80812F5F05
:102E70003F4F2032310558F01092D11A1092D01ADB
:102E80000895FFCF3093D71A2093D61A0895309320
:102E9000D11A2093D01A0895DC01ED91FC910280A3
:102EA000F381E02D6CE00994FC018785882369F0AB
:102EB00081E04091D01A5091D11A2091CE1A3091D0
:102EC000CF1A4217530769F0089581E04091D61A4E
:102ED0005091D71A2091D41A3091D51A421753071E
:102EE00099F780E00895EF92FF921F93CF93DF93BD
:102EF00000D0CDB7DEB77C01142F69837A830E949E
:102F00004A15412F69817A81C70106960E949F1E4A
:102F100089E193E0F7019183808317871123E9F01A
:102F20008091C90080688093C90080E290E00E948F
:102F300025159093D31A8093D21A1092D11A109219
:102F4000D01A1092CF1A1092CE1A0F900F90DF91D4
:102F5000CF911F91FF90EF9008958091C1008068FC
:102F60008093C10080E290E00E9425159093D91AC9
:102F70008093D81A1092D71A1092D61A1092D51A96
:102F80001092D41A0F900F90DF91CF911F91FF9064
:102F9000EF9008951F920F920FB60F9211240BB667
:102FA0000F922F933F938F939F93EF93FF932091D3
:102FB000C600E091D81AF091D91A8091D41A909154
:102FC000D51AE80FF91F20838091D41A9091D51A51
:102FD000019680329105C0F49093D51A8093D41A4B
:102FE0002091D61A3091D71A28173907D1F0FF91BE
:102FF000EF919F918F913F912F910F900BBE0F906A
:103000000FBE0F901F9018951092D51A1092D41AD7
:1030100080E090E02091D61A3091D71A281739070E
:1030200031F701969093D71A8093D61A8097F8F2C9
:103030001092D71A1092D61ADACF1F920F920FB6AB
:103040000F9211240BB60F922F933F938F939F9360
:10305000EF93FF932091CE00E091D21AF091D31A12
:103060008091CE1A9091CF1AE80FF91F208380919A
:10307000CE1A9091CF1A019680329105C0F49093A8
:10308000CF1A8093CE1A2091D01A3091D11A2817D6
:103090003907D1F0FF91EF919F918F913F912F913F
:1030A0000F900BBE0F900FBE0F901F9018951092AF
:1030B000CF1A1092CE1A80E090E02091D01A309171
:1030C000D11A2817390731F701969093D11A8093B6
:1030D000D01A8097F8F21092D11A1092D01ADACF43
:1030E000FC010396928381834FEF5FEFBA01438324
:1030F0005483658376839087878392878187108244
:103100000895FC01138612860895CF93DF939C01E6
:10311000FB01DC011196CD91DC911297D583C4831C
:103120008E819F81978386838E819F81DC01159696
:103130007C936E9314977F836E8333872287F90184
:1031400080818F5F8083DF91CF9108950F931F93CC
:10315000CF93DF93EB01088119812A813B810F3FD7
:103160004FEF14072407340731F1DC01139601C037
:10317000DF011496ED91FC91159740815181628198
:103180007381041715072607370790F7FD83EC8333
:10319000D783C683BF83AE831596DC93CE931497F3
:1031A0009B878A87FC0120812F5F2083DF91CF914D
:1031B0001F910F910895FC01A185B2851496ED91A0
:1031C000FC911597E3CFCF93DF93FC01A285B385E4
:1031D0002481358186819781E9019F838E83868151
:1031E0009781EC013D832C8311962D913C91129790
:1031F0002E173F0741F0138612868C9181508C93D5
:10320000DF91CF91089512969C938E931197138618
:1032100012868C9181508C93DF91CF910895909379
:10322000DB1A8093DA1A31E1FC013083319722E214
:103230002083FC013297A3E3A083FC0133976083D2
:10324000FC0134977083FC0135971082FC0136979E
:1032500060E86083FC0137971082FC01389762E0D8
:103260006083FC01399763E06083FC013A9764E076
:103270006083FC013B9765E06083FC013C9766E05E
:103280006083FC013D9767E06083FC013E9768E046
:103290006083FC013F9769E06083FC01709760E107
:1032A0006083FC0171973083FC01729732E13083B7
:1032B000FC01739733E13083FC01749734E1308370
:1032C000FC01759735E13083FC01769736E1308358
:1032D000FC01779737E13083FC01789738E1308340
:1032E000FC01799739E13083FC017A9730E2308331
:1032F000FC017B9731E23083FC017C972083FC0149
:103300007D9723E22083FC017E974083FC017F9719
:103310005083FC01B09726E22083FC01B19727E29D
:103320002083FC01B29728E22083FC01B39729E2B5
:103330002083FC01B49720E32083FC01B59721E3AF
:1033400020838697089587E0809329018FEC8093EE
:1033500028018AE080932101E3E7F0E08081826028
:103360008083A091691AB0916A1ACD91CDBFDD9189
:10337000DEBFFF91EF91DF91CF91BF91AF919F9110
:103380008F917F916F915F914F913F912F911F91FD
:103390000F91FF90EF90DF90CF90BF90AF909F90F4
:1033A0008F907F906F905F904F903F902F901F90E5
:1033B0000F900FBE0F90089581E0089508950F9229
:1033C0000FB6F8940F921F9211242F923F924F92B2
:1033D0005F926F927F928F929F92AF92BF92CF92A5
:1033E000DF92EF92FF920F931F932F933F934F9390
:1033F0005F936F937F938F939F93AF93BF93CF937D
:10340000DF93EF93FF93A091691AB0916A1A0DB6FA
:103410000D920EB60D920E94C20DA091691AB09144
:103420006A1ACD91CDBFDD91DEBFFF91EF91DF91A3
:10343000CF91BF91AF919F918F917F916F915F914C
:103440004F913F912F911F910F91FF90EF90DF903F
:10345000CF90BF90AF909F908F907F906F905F9034
:103460004F903F902F901F900F900FBE0F90089598
:103470000F920FB6F8940F921F9211242F923F9241
:103480004F925F926F927F928F929F92AF92BF9274
:10349000CF92DF92EF92FF920F931F932F933F9360
:1034A0004F935F936F937F938F939F93AF93BF934C
:1034B000CF93DF93EF93FF93A091691AB0916A1AAB
:1034C0000DB60D920EB60D920E94AF0B81110E94A7
:1034D000C20DA091691AB0916A1ACD91CDBFDD914C
:1034E000DEBFFF91EF91DF91CF91BF91AF919F919F
:1034F0008F917F916F915F914F913F912F911F918C
:103500000F91FF90EF90DF90CF90BF90AF909F9082
:103510008F907F906F905F904F903F902F901F9073
:103520000F900FBE0F9008950E94381A18951F93A0
:10353000CF93DF93EC01142F88A181110DC08881F6
:103540009981892B09F44DC080E09E8D9F5F9E8FED
:10355000DF91CF911F910895482F50E011111CC0A9
:103560008C819D810E94622128A18C819D81820F86
:10357000911D9D838C832A813B818217930720F3C1
:10358000888199819D838C8380E09E8D9F5F9E8F33
:10359000DF91CF911F9108958E819F810E946221BA
:1035A00028A130E03195219531098E819F81820FCC
:1035B000931F9F838E83688179818617970730F4E4
:1035C0008A819B81820F931F9F838E83123009F023
:1035D000BBCF8E8D882309F4B7CF8E8D81508E8F0F
:1035E000B3CF8A819B810E94DE0F1B821A82ADCFEE
:1035F000FC01CB0140A1442399F050E026813781A2
:10360000240F351F3783268362817381261737077E
:1036100020F02081318137832683B9010C94622107
:1036200008950F931F93CF93DF93EC010FB6F89497
:103630000F928AA11816ECF48B898823D1F08E01A1
:103640000D5E1F4F09C08AA181508AA38AA1181656
:1036500084F48B89882369F0C8010E946A0E88234C
:1036600091F30E945E0F8AA181508AA38AA1181645
:1036700084F38FEF8AA30F900FBE0FB6F8940F92CA
:1036800089A11816ECF488858823D1F08E01085F93
:103690001F4F09C089A1815089A389A1181684F4FC
:1036A0008885882369F0C8010E946A0E882391F3F7
:1036B0000E945E0F89A1815089A389A1181684F305
:1036C0008FEF89A30F900FBEDF91CF911F910F91C4
:1036D0000895CF93DF93EC010FB6F8940F922881F1
:1036E00039818F8D78A1879FC0011124A901480FCE
:1036F000591F5B834A831E8E3D832C83871B910950
:10370000820F931F9F838E838FEF89A38AA36111FA
:1037100012C08885811106C00F900FBE81E0DF9135
:10372000CF910895CE0108960E946A0E8130A1F7CC
:103730000E94DF19F1CFCE0108960E947018CE01C9
:1037400043960E9470180F900FBE81E0DF91CF91D9
:1037500008950F931F93CF93DF93182F062F88237D
:1037600001F183E290E00E949308EC010097C9F018
:10377000109FC001112401960E94930899838883A9
:10378000892B61F01F8F08A361E0CE010E94691BA5
:10379000CE01DF91CF911F910F910895CE010E942C
:1037A0002C09C0E0D0E0CE01DF91CF911F910F91A5
:1037B00008956F927F928F929F92AF92BF92CF9215
:1037C000DF92EF92FF920F93CF93DF93CDB7DEB7E7
:1037D00029970FB6F894DEBF0FBECDBF5C014B0139
:1037E0002E833F834887598720E03C0188E0680E9C
:1037F000711C0FB6F8940F92F501968D878D98176E
:1038000008F459C0023009F456C0CE80DF80E88445
:10381000F984CD28CE28CF2809F46FC0222309F4DB
:1038200041C00F900FBE0E94800B0FB6F8940F920C
:10383000F50181A18F3F09F43CC0F50182A18F3FC2
:10384000B1F10F900FBEBE016A5F7F4FCE010196AE
:103850000E94FD0E811155C00FB6F8940F92F5012C
:10386000968D0F900FBEF501878D981314C04E8171
:103870005F8168857985C3010E940F0EC5010E9492
:10388000111B0E94B30C882311F021E0B2CF0E94DB
:10389000DF1921E0AECFC5010E94111B0E94B30CBD
:1038A00021E0A7CFCE0101960E94EC0EBACF12A262
:1038B000C8CF11A2C2CF402FB401C5010E94971AF0
:1038C000F5019389911124C0811128C00F900FBE7A
:1038D00081E029960FB6F894DEBF0FBECDBFDF9111
:1038E000CF910F91FF90EF90DF90CF90BF90AF906E
:1038F0009F908F907F906F9008950F900FBE80E003
:10390000E8CFC5010E94111B0E94B30C80E0E1CFFB
:10391000C50143960E946A0E8130C1F60E94DF19EC
:10392000D5CF0F93CF93DF9383E290E00E9493086B
:10393000EC01009701F11B821A82198218821D8204
:103940001C821F821E821E8E81E08F8F18A28FEF35
:1039500089A38AA3CE0108960E947018CE014396CF
:103960000E94701800E020E030E0A90160E070E003
:10397000CE010E94D91BCE01DF91CF910F91089506
:103980000F931F93CF93DF93EC018A019E8D8F8D50
:10399000981740F0223031F080E0DF91CF911F91F5
:1039A0000F910895422FCE010E94971A882331F07B
:1039B0000115110519F081E0F80180838AA18F3F7C
:1039C00049F08AA18F5F8AA381E0DF91CF911F9197
:1039D0000F9108958B898823B9F3CE0143960E94F5
:1039E0006A0E882389F30115110571F381E0F8014E
:1039F0008083D3CFAF92BF92CF92DF92EF92FF92AC
:103A00000F93CF93DF93CDB7DEB729970FB6F89416
:103A1000DEBF0FBECDBF7C016B012E833F83488785
:103A2000598790E0570183E1A80EB11C0FB6F894B6
:103A30000F92F701868D811169C04E815F81688583
:103A40007985452B462B472B09F47DC0992309F432
:103A50003EC00F900FBE0E94800B0FB6F8940F92DD
:103A6000F70181A18F3F09F43EC0F70182A18F3F8A
:103A700009F43FC00F900FBEBE016A5F7F4FCE01B9
:103A800001960E94FD0E811171C00FB6F8940F923D
:103A9000F701868D0F900FBE81111EC0F701808146
:103AA0009181892B41F14E815F8168857985C501BE
:103AB0000E940F0EC7010E94111B0E94B30C8823A5
:103AC00011F091E0B3CF0E94DF1991E0AFCFCE01AA
:103AD00001960E94EC0EBDCFC7010E94111B0E94EF
:103AE000B30C91E0A3CF11A2F70182A18F3F09F09F
:103AF000C1CF12A2BFCF0FB6F8940F92F701828107
:103B000093810E94830F0F900FBECDCFA680B78008
:103B1000B601C7010E94F81AF70101112EC0868D67
:103B20008150868F80819181892BB9F1F701808541
:103B3000882341F1C70108960E946A0E813011F571
:103B40000E94DF191FC00F900FBE80E029960FB6AC
:103B5000F894DEBF0FBECDBFDF91CF910F91FF90E4
:103B6000EF90DF90CF90BF90AF900895C7010E9473
:103B7000111B0E94B30C80E0E9CFB782A682838933
:103B8000811104C00F900FBE81E0E0CFC7014396C2
:103B90000E946A0E8823B1F3D3CF0E944510F7012B
:103BA00093838283C3CF0F931F93CF93DF9300D070
:103BB000CDB7DEB78C01FC01868D811108C080E095
:103BC0000F900F90DF91CF911F910F910895C80131
:103BD00049835A830E94F81AF801868D8150868F96
:103BE00081A149815A818F3F61F0F80181A18F5FE6
:103BF00081A381E00F900F90DF91CF911F910F91E2
:103C0000089580858823A9F3C801089649835A83BB
:103C10000E946A0E49815A81882359F34115510542
:103C200041F381E0FA018083CBCF0F931F93CF93B1
:103C3000DF93EC018E8D811106C080E0DF91CF9182
:103C40001F910F9108950E811F81CE010E94F81AD5
:103C50001F830E8381E0DF91CF911F910F91089513
:103C60000FB6F8940F92FC01868D0F900FBE089549
:103C70000FB6F8940F92FC01268D0F900FBEFC0139
:103C8000878D821B0895FC01868D0895CF93DF9365
:103C9000EC0188819981009711F00E942C09CE01D6
:103CA000DF91CF910C942C09FC01968D81E091114C
:103CB00080E00895FC01268D81E0978D291380E036
:103CC0000895CF92DF92EF92FF92CF93DF93EC01B2
:103CD000688179818A819B8128EEC22E23E0D22ED1
:103CE000E12CF12CA70196010E9416209B01AC014A
:103CF00060E472E48FE090E00E94F21FA701960159
:103D00000E94162069017A01AC81BD8120E432E471
:103D10004FE050E00E94E71F20E834E84EE150E019
:103D20000E941620C20ED31EE41EF51EC701B60166
:103D3000DF91CF91FF90EF90DF90CF900895CF93D8
:103D4000DF93EC01442309F441C08EEC90E09983A9
:103D5000888388EC90E09B838A8389EC90E09D8344
:103D60008C8388E18093C90086E08093CA0010921A
:103D7000CD009B0140E050E0220F331F441F551F30
:103D8000220F331F441F551F220F331F441F551F7F
:103D9000220F331F441F551F60E074E284EF90E050
:103DA0000E9416202093CC008091C80081608093EF
:103DB000C80080E28E8380E88F8380E48887E88172
:103DC000F98180818081DF91CF91089586EC90E028
:103DD0009983888380EC90E09B838A8381EC90E0D8
:103DE0009D838C8388E18093C10086E08093C2002C
:103DF0001092C5009B0140E050E0220F331F441F8A
:103E0000551F220F331F441F551F220F331F441FFE
:103E1000551F220F331F441F551F60E074E284EFCB
:103E200090E00E9416202093C4008091C000816021
:103E30008093C000BECFDC011296ED91FC911397E8
:103E4000208116968C91282381E009F480E0089562
:103E5000DC011296ED91FC911397208118968C91BC
:103E6000282381E009F080E00895CF92DF92EF925D
:103E7000FF920F931F93CF93DF9314BE88E10FB689
:103E8000F89480936000109260000FBE80E190E093
:103E90000E941E15EC0141E060E875E20E94731774
:103EA00067E0CE010E949A156BE00E949A156C01A2
:103EB00064EE70E00E94551566E0C6010E949A15F6
:103EC00088E190E00E941E156C011AE0E12EF12CB1
:103ED00000E010E09E0148E052E060E270E0C601C0
:103EE0000E94E013D0922703C092260382E190E063
:103EF0000E941E158E0124E031E041E06EE072E088
:103F00000E94400282E190E00E941E1528E131E00B
:103F100042E066E172E00E945D0582E190E00E946D
:103F20001E1528E131E043E06DE172E00E94830854
:103F30000E94430B80E090E0DF91CF911F910F91A1
:103F4000FF90EF90DF90CF9008950E9483110F9320
:103F5000CF93DF931F92CDB7DEB76983FC01208931
:103F600031894289538900E0BE016F5F7F4F8685AA
:103F700097850E94D91B0F90DF91CF910F910895E3
:103F8000FC01868597850E94301E91E0811101C059
:103F900090E0892F08950F93CF93DF931F92CDB7B1
:103FA000DEB700E02FEF3FEFA901BE016F5F7F4F4B
:103FB000FC01868597850E94FA1C813031F4898145
:103FC0000F90DF91CF910F9108958FEFF9CF0E945D
:103FD0005D20A59F900DB49F900DA49F800D911D15
:103FE00011240895DB018F939F930E94E71FBF91D7
:103FF000AF91A29F800D911DA39F900DB29F900D38
:1040000011240895AA1BBB1B51E107C0AA1FBB1FA7
:10401000A617B70710F0A61BB70B881F991F5A9554
:10402000A9F780959095BC01CD010895A1E21A2EC3
:10403000AA1BBB1BFD010DC0AA1FBB1FEE1FFF1F4C
:10404000A217B307E407F50720F0A21BB30BE40B9C
:10405000F50B661F771F881F991F1A9469F76095E3
:104060007095809590959B01AC01BD01CF0108959D
:10407000052E97FB1EF400940E944F2057FD07D099
:104080000E94162007FC03D04EF40C944F2050954C
:104090004095309521953F4F4F4F5F4F0895909534
:1040A0008095709561957F4F8F4F9F4F0895EE0FCC
:1040B000FF1F0590F491E02D0994A29FB001B39FDA
:1040C000C001A39F700D811D1124911DB29F700D21
:1040D000811D1124911D08950CD0BAC0B2D040F0BA
:1040E000A9D030F021F45F3F19F09BC05111E4C01A
:1040F0009EC0BFD098F39923C9F35523B1F3951B04
:10410000550BBB27AA2762177307840738F09F5FF8
:104110005F4F220F331F441FAA1FA9F333D00E2E67
:104120003AF0E0E830D091505040E695001CCAF7D4
:1041300029D0FE2F27D0660F771F881FBB1F261799
:1041400037074807AB07B0E809F0BB0B802DBF016C
:10415000FF2793585F4F2AF09E3F510568F061C0DA
:10416000ABC05F3FECF3983EDCF38695779567959F
:10417000B795F7959F5FC9F7880F911D969587951D
:1041800097F90895E1E0660F771F881FBB1F62173C
:1041900073078407BA0720F0621B730B840BBA0BFA
:1041A000EE1F88F7E0950895E89409C097FB3EF468
:1041B00090958095709561957F4F8F4F9F4F992374
:1041C000A9F0F92F96E9BB279395F69587957795F2
:1041D0006795B795F111F8CFFAF4BB0F11F460FFB2
:1041E0001BC06F5F7F4F8F4F9F4F16C0882311F00A
:1041F00096E911C0772321F09EE8872F762F05C01E
:10420000662371F096E8862F70E060E02AF09A95B8
:10421000660F771F881FDAF7880F9695879597F9AD
:10422000089597F99F6780E870E060E008959FEF38
:1042300080EC089500240A9416161706180609063D
:10424000089500240A94121613061406050608950C
:10425000092E0394000C11F4882352F0BB0F40F494
:10426000BF2B11F460FF04C06F5F7F4F8F4F9F4FD4
:10427000089557FD9058440F551F59F05F3F71F056
:104280004795880F97FB991F61F09F3F79F08795BD
:104290000895121613061406551FF2CF4695F1DF46
:1042A00008C0161617061806991FF1CF86957105D6
:1042B000610508940895E894BB2766277727CB010A
:1042C00097F90895FB01DC0102C001900D92415065
:1042D0005040D8F70895DC0101C06D934150504023
:1042E000E0F70895FB01DC014150504048F0019097
:1042F0000D920020C9F701C01D9241505040E0F7D7
:104300000895FA01CF93FF93EF932230CCF025323A
:10431000BCF4C22F2C2F332744275527FF93EF934C
:104320000E941620EF91FF91605D6A330CF0695D89
:104330006193B901CA01605070408040904051F7CC
:1043400010828F919F91CF910C94BC21FB019F0112
:10435000423074F0453264F4642F77270E940220C3
:10436000805D8A330CF0895D8193CB010097A1F7C2
:104370001082C9010C94BC21DC01FC01672F7191F2
:104380007723E1F7329704C07C916D93708362913B
:0C439000AE17BF07C8F30895F894FFCFE4
:10439C003717FFFFFFFF0A035072696E74005573E5
:1043AC006572496E7400427269676874004D6F746F
:1043BC006F72002F000D00000000005C031C120047
:1043CC000000001C051C12412F4420636F6E737497
:1043DC00727563746F72204F4B006D6F746F722027
:1043EC003120636F6E7374727563746F72204F4BF0
:1043FC00006D6F746F72203220636F6E7374727500
:10440C0063746F72204F4B006D6F746F7220636F0B
:10441C006E7374727563746F72204641494C202818
:10442C0073656C656374206D7573742062652061AF
:10443C002031206F722032290052756E6E696E67C2
:10444C00004272616B696E670052756E6E696E67C1
:10445C00206261636B776172647300000000001F5F
:10446C00081C1249444C4500000000003A1500009D
:10447C0000003A151C127478745F7109000000007A
:10448C00003B15A71FC01FCB1F411542156713FA20
:10449C00FF00002214000000003B153A153F153DAB
:1044AC001541154215000000003B15E21654170487
:0644BC001741154C17002A
:00000001FF
