:100000000C94BF020C94DE020C94DE020C94DE020F
:100010000C94DE020C94DE020C94DE020C94DE02E0
:100020000C94DE020C94DE020C94DE020C94DE02D0
:100030000C94DE020C94DE020C94DE020C94DE02C0
:100040000C94DE020C94DE020C94DE020C94DE02B0
:100050000C94DE020C94DE020C94DE020C94DE02A0
:100060000C94DE020C94FA190C94DE020C94DE025D
:100070000C94DE020C94DE020C94DE020C94DE0280
:100080000C94DE020C94DE020C94DE020C94DE0270
:100090000C944D1A0C94DE020C94DE020C94DE02D9
:1000A0000C94DE020C94DE020C94DE020C94DE0250
:1000B0000C94DE020C94DE020C94DE020C94C41C40
:1000C0000C94DE020C94DE020C94DE02A817B11729
:1000D000B417B717AA17AA17BA17CA17D117D8177C
:1000E000DC17AE174D45343035204C61622031208D
:1000F0005374617274696E672050726F6772616DBC
:10010000004D45343035204C61622032204D6F6403
:1001100069666965642050726F6772616D00417035
:100120007220323020323031360053797374656D6D
:100130002074696D653A20002C20486561703A2072
:10014000002C204F435235413A20002020723A20A3
:100150002020202052657475726E20746F204D61CE
:10016000696E204D656E75002020683A20202020A1
:100170002048616C702100202043746C2D433A208C
:1001800052657365742074686520415652002020C2
:10019000733A202020202046756C6C206272616BBF
:1001A00065002020623A20202020204272616B6589
:1001B00020776974682050574D205B2D3235352CDF
:1001C000203235355D002020703A20202020204349
:1001D00068616E676520746865206D6F746F72204A
:1001E000706F776572205B2D3235352C20323535B6
:1001F0005D004D45343035204C61622032204D6F1A
:100200006469666965642050726F6772616D002071
:1002100068656C70002020683A202020202048610A
:100220006C702100202043746C2D433A205265737A
:10023000657420746865204156520020206D3A2074
:1002400020202020456E746572206D6F746F7220BF
:1002500073656C65637420616E6420706F7765727E
:100260002076616C7565002020643A2020202020D3
:10027000537461636B2064756D7020666F722074B7
:1002800061736B73002020733A2020202020566574
:100290007273696F6E20616E64207365747570206F
:1002A000696E666F726D6174696F6E002020743ABA
:1002B000202020202053686F77207468652074699F
:1002C0006D65207269676874206E6F77004D4534E4
:1002D0003035204C61622032204D6F64696669655B
:1002E000642050726F6772616D002068656C7000E9
:1002F000496C6C6567616C20737461746521205270
:100300006573657474696E672041565200223A2005
:100310005754463F00526573657474696E67204197
:10032000565200456E746572206E756D626572205E
:10033000666F72206D6F746F7220706F7765723A9E
:1003400020003C696E76616C69642063686172208C
:100350002200223E00506C6561736520656E7465F5
:10036000722061206E756D626572206265747765BA
:10037000656E202D32353520746F203235352E00D4
:10038000506C6561736520656E7465722061203103
:10039000206F72203220666F72206D6F746F722032
:1003A00073656C6563742E004E756D6265722065B1
:1003B0006E74657265643A2000223A205754463FB5
:1003C00000526573657474696E672041565200452A
:1003D0006E746572206E756D62657220666F722034
:1003E0006D6F746F722073656C656374696F6E3ABC
:1003F0002000507265737320276827206F722027B2
:100400003F2720666F722068656C7000414443533B
:1004100052413A200041444D55583A20004144434E
:1004200030203D200041444331203D2000414443E1
:1004300032203D200041444333203D2000414443CD
:1004400034203D200041444335203D2000414443B9
:1004500036203D200041444337203D20004E6F2090
:100460007368617265642064617461206974656D8C
:100470007320746F207072696E74002D2D2D2D20E5
:1004800020202020202020202020202D2D2D2D2038
:100490002020202D2D2D2D2D2D2D2D2D2D0053687F
:1004A0006172652F51756575652020202020547973
:1004B000706520202020467265652F546F74616C32
:1004C000004552524F52206372656174696E672015
:1004D0007461736B2022005461736B202200222010
:1004E000637265617465642C20737461636B206151
:1004F00074203078005461736B3A20005461736B40
:100500003A2049444C450049444C45090930092DDD
:1005100009002F0009092D002D2D2D2D09092D2D44
:100520002D2D092D2D2D2D2D00092D2D2D2D2D2D70
:100530002D2D2D2D00092D2D2D2D004E616D6509C0
:10054000095072692E095374617465000946726519
:10055000652F546F74616C000952756E730054619D
:10056000736B0909202009200009537461636B0033
:10057000090009002F0009000900202000001124B3
:100580001FBECFEFD1E2DEBFCDBF13E0A0E0B2E0EF
:10059000E0E3F9E400E00BBF02C007900D92A03346
:1005A000B107D9F71AE1A0E3B3E001C01D92AA3E5A
:1005B000B107E1F70E94BA210C9496240C94000034
:1005C0000F931F93CF93DF93EC010E94DD1287E519
:1005D00092E099838883DF91CF911F910F910895C5
:1005E0000F931F93CF93DF93EC016BE08E819F817C
:1005F0000E949B178C016DEC72E00E9456176BE015
:10060000C8010E949B178C016AEE72E00E94561787
:1006100066E0C8010E949B176BE08E819F810E945B
:100620009B178C016CEA72E00E94561766E0C801C5
:100630000E949B176BE08E819F810E949B178C010B
:1006400065E872E00E94561766E0C8010E949B1799
:100650006BE08E819F810E949B178C0167E672E0A0
:100660000E94561766E0C8010E949B176BE08E81BE
:100670009F810E949B178C016BE372E00E945617CA
:1006800066E0C8010E949B176BE08E819F810E94EB
:100690009B178C0164E272E00E94561766E0C80165
:1006A0000E949B176BE08E819F810E949B17EC013B
:1006B00065E172E00E94561766E0CE01DF91CF91AE
:1006C0001F910F910C949B170F931F93CF93DF9360
:1006D000EC016BE08E819F810E949B178C0162EF81
:1006E00071E00E9456176BE0C8010E949B178C01B5
:1006F0006FE072E00E94561766E0C8010E949B17E7
:100700006BE08E819F810E949B178C0166EC71E0EB
:100710000E94561766E0C8010E949B176BE08E810D
:100720009F810E949B178C0162EA71E00E9456171C
:1007300066E0C8010E949B176BE08E819F810E943A
:100740009B178C016EE871E00E94561766E0C801A5
:100750000E949B176BE08E819F810E949B178C01EA
:1007600067E771E00E94561766E0C8010E949B1778
:100770006BE08E819F810E949B178C0168E671E07F
:100780000E94561766E0C8010E949B176BE08E819D
:100790009F810E949B17EC016BE471E00E94561749
:1007A00066E0CE01DF91CF911F910F910C949B17C2
:1007B0008F929F92AF92BF92CF92DF92EF92FF9271
:1007C0000F931F93CF93DF9300D000D000D0CDB70D
:1007D000DEB78C0119821A821B821C821E821D8246
:1007E000C0902801D09029010E94580B5C01CE01D5
:1007F00001960E9487164C0166E0F8018681978178
:100800000E949B176BE00E949B177C0161E071E0E6
:100810000E9456176BE0C7010E949B177C016EE196
:1008200071E00E94561766E0C7010E949B176BE0BB
:100830000E949B177C016AE271E00E945617B40186
:10084000C7010E9426166BE00E949B177C0168E39B
:1008500071E00E945617B501C7010E940F187C0174
:100860006FE472E00E94561748E357E160E070E0E1
:10087000C7010E9449186BE00E949B177C0161E44C
:1008800071E00E945617B601C7010E940F1866E07A
:100890000E949B1766E00E949B17F8018681978152
:1008A0000E94D81466E0F801868197810E949B1708
:1008B000F801868197810E94981226960FB6F894C7
:1008C000DEBF0FBECDBFDF91CF911F910F91FF9083
:1008D000EF90DF90CF90BF90AF909F908F90089552
:1008E000CF93DF93CDB7DEB727970FB6F894DEBF6F
:1008F0000FBECDBF8C0119821A821B821C821E8200
:100900001D820FB6F8940F92E0913203F0913303F9
:1009100010860F900FBE6BE0DC0116968D919C91B6
:1009200017970E949B177C0162EF73E00E94561795
:1009300066E0C7010E949B17A12CB12CE12CF12C81
:10094000F8018485813059F1813008F49CC08230EF
:1009500009F07EC086819781DC01ED91FC910480D5
:10096000F581E02D09958111DAC0D8011E964D91CF
:100970005D916D917C9151974F5F5F4F6F4F7F4FAE
:10098000F80146875787608B718B61E070E080E0EB
:1009900090E00E948E0FF80184858130A9F6F8015D
:1009A00086819781DC01ED91FC910480F581E02D39
:1009B0000995882309F4C9C1F80186819781DC0172
:1009C000ED91FC910680F781E02D0995482F80ED8F
:1009D000840F8A3008F497C14D3209F4E0C14A30DF
:1009E00009F495C04D3019F04B3109F0D9C066E0DB
:1009F000D80116968D919C9117970E949B176BE0DA
:100A00000E949B176C0168EA73E00E945617B701B9
:100A1000C6010E94E01766E00E949B17B1103BC11F
:100A2000C7010197029708F422C16BE0F8018681A3
:100A300097810E949B177C0160E873E0C7010E94C8
:100A4000561766E0C7010E949B17E12CF12C8DCF51
:100A50006BE0F801868197810E949B178C0160EF03
:100A600072E00E94561766E0C8010E949B172BE0B7
:100A700088E190E00FB6F894A895809360000FBECF
:100A800020936000FFCF86819781DC01ED91FC917E
:100A90000480F581E02D0995882309F466CFF801DB
:100AA00086819781DC01ED91FC910680F781E02D34
:100AB0000995282F883609F4CDC10CF4A6C18337D7
:100AC00009F49FC1843709F48EC18D3609F46AC1D7
:100AD000F801C680D780D601ED91FC910280F381A8
:100AE000E02D62E2C6012F830995D601ED91FC91BC
:100AF0000280F381E02D2F81622FC60109956BE002
:100B0000C6010E949B176C0169EB73E041C061E56F
:100B100072E0F801868197810E94561726CFF8016E
:100B200086819781DC01ED91FC910680F781E02DB3
:100B30000995282F883609F418CF0CF079C08F3327
:100B400009F472C0823609F467C0833009F449C0E1
:100B5000D8011696CD90DC901797D601ED91FC91B7
:100B60000280F381E02D62E2C6012F830995D60150
:100B7000ED91FC910280F381E02D2F81622FC6015F
:100B800009956BE0C6010E949B176C016DE073E054
:100B9000C6010E94561766E0C6010E949B17E5CE6B
:100BA0006BE0F801868197814F830E949B177C013F
:100BB00062E473E00E945617D701ED91FC91028028
:100BC000F381E02D4F81642FC70109956BE0C701C8
:100BD0000E949B1762E573E00E945617E12CF12CEE
:100BE000C4CE6BE0F801868197810E949B178C012F
:100BF00065E173E00E94561766E0C8010E949B17EA
:100C00002BE088E190E00FB6F894A89580936000FF
:100C10000FBE20936000FFCFC8010E94D80361E09F
:100C2000C8010E949313A1CEC8010E9464039DCE07
:100C3000823709F457C0833709F44CC0803709F074
:100C400087CF6BE0F801868197810E949B176C012A
:100C500063E273E00E94561766E0C6010E949B178C
:100C600061E0C8010E949313BB24B3947ECE0FB6FB
:100C7000F8940F92E0913203F0913303E0860F90E5
:100C80000FBEC8010E94640362E0C8010E94931372
:100C9000E12CF12C6ACEF1E0BF1267CE8FEFE8169F
:100CA000F10409F020F5AA2019F0F194E194F1087B
:100CB0000FB6F8940F92E0913003F0913103E08683
:100CC0000F900FBE60E0C8010E949313B12CE12C7D
:100CD000F12C4BCED80116968D919C9117970E94BE
:100CE000F21343CE60E0C8010E9493133ECE6BE046
:100CF000D80116968D919C9117970E949B177C01A5
:100D000065E573E09BCEF80186819781DC01ED916A
:100D1000FC910280F381E02D642F4F8309959701A8
:100D2000220F331FEE0CFF1CEE0CFF1CEE0CFF1C01
:100D30002E0D3F1D4F81E42EFF24E7FCF094B0E31D
:100D4000EB1AF108E20EF31E10CE8091340390915D
:100D50003503DC01ED91FC910480F581E02D0995CE
:100D6000882309F402CED8011696ED91FC911797CD
:100D70000190F081E02DC280D38080913403909166
:100D80003503DC01ED91FC910680F781E02D09959A
:100D9000682FF80186819781F6010995E6CDAA248E
:100DA000A394E3CD6BE0F801868197810E949B17A5
:100DB0007C016FEC73E00E94561766E0C7010E9449
:100DC0009B170FB6F8940F92E0913203F091330322
:100DD00010860F900FBE61E0C8010E949313B12CE2
:100DE000E12CF12CC2CDCE0101960E948716BC01E8
:100DF000F801868197810E94261666E00E949B1763
:100E0000B4CDC8010E94D803B0CD8F3319F1843618
:100E100009F460CF833009F05BCE6BE0D801169601
:100E20008D919C9117970E949B178C0161EC73E048
:100E30000E94561766E0C8010E949B172BE088E1CC
:100E400090E00FB6F894A895809360000FBE2093B1
:100E50006000FFCFC8010E94F00287CDCF93DF93DF
:100E600000D000D0CDB7DEB78C010E94870D69831A
:100E70007A838B839C8382E090E00E941F177C0121
:100E8000F801668177810E947F0780E18DB981E357
:100E9000809390008BE08093910060E0C7010E94F6
:100EA000B407969587959695879590939B00809328
:100EB0009A00F80146855785608971894F5F5F4FB9
:100EC0006F4F7F4F46875787608B718B44E650E0AA
:100ED00060E070E0CE0101960E94270FDECF0F93F5
:100EE0001F93CF93DF93EC010E94DD128FE592E018
:100EF00099838883DF91CF911F910F910895CF93AC
:100F0000DF93FC017183608320917A002068209335
:100F10007A0020917A00216020937A0020917A0053
:100F20002D7F20937A0020917A00246020937A000C
:100F300020917C00206420937C0020917C002F77FE
:100F400020937C00C081D181209759F063E672E044
:100F5000CE010E94561766E0CE01DF91CF910C942E
:100F60009B17DF91CF91089580917C00887F8093BB
:100F70007C0080917C006770682B60937C0080917E
:100F80007A00806480937A0080917A0086FDFCCF9D
:100F900080917800909179000895403430F1ECE32D
:100FA000F0E04CE3677080E090E020917C00287FC7
:100FB00020937C0020917C00262B20937C002091A4
:100FC0007A00206420937A0020917A0026FDFCCFDD
:100FD0002091780030917900820F931F415029F7BA
:100FE000BF010E94AB22CB010895442319F0E42FE6
:100FF000F0E0D8CFE0E0F0E080E090E0BF010E94B8
:10100000AB22CB0108952F923F924F925F926F9245
:101010007F928F929F92AF92BF92CF92DF92EF9288
:10102000FF920F931F93CF93DF9300D000D000D097
:10103000CDB7DEB79E838D8380917C00887F8093BF
:101040007C0080917C00876080937C0080917A0096
:10105000806480937A0080917A0086FDFCCF209195
:1010600078003091790080917C00887F80937C00AB
:1010700080917C00866080937C0080917A008064FF
:1010800080937A0080917A0086FDFCCF20907800D2
:101090003090790080917C00887F80937C008091E3
:1010A0007C00856080937C0080917A0080648093CE
:1010B0007A0080917A0086FDFCCF409078005090B5
:1010C000790080917C00887F80937C0080917C00F7
:1010D000846080937C0080917A00806480937A00A1
:1010E00080917A0086FDFCCF009178001091790004
:1010F00080917C00887F80937C0080917C0083605D
:1011000080937C0080917A00806480937A00809143
:101110007A0086FDFCCFE0907800F0907900809115
:101120007C00887F80937C0080917C00826080932B
:101130007C0080917A00806480937A0080917A00AC
:1011400086FDFCCFC0907800D090790080917C0023
:10115000887F80937C0080917C00816080937C00FC
:1011600080917A00806480937A0080917A0086FD75
:10117000FCCFA0907800B090790080917C00887FAF
:1011800080937C0080917C0080937C0080917A0029
:10119000806480937A0080917A0086FDFCCF8090F5
:1011A00078009090790040917C0050917A006BE03B
:1011B0008D819E812B833C834A8359830E949B1798
:1011C0003C016CE074E00E9456175981652FC30101
:1011D0000E94911866E00E949B176BE00E949B178B
:1011E0003C0165E174E00E9456174A81642FC301F7
:1011F0000E94911866E00E949B176BE00E949B176B
:101200003C016DE174E00E945617B401C3010E94D5
:101210000F1866E00E949B176BE00E949B174C0121
:1012200065E274E00E945617B501C4010E940F18D0
:1012300066E00E949B176BE00E949B175C016DE2C9
:1012400074E00E945617B601C5010E940F1866E0AF
:101250000E949B176BE00E949B176C0165E374E092
:101260000E945617B701C6010E940F1866E00E943F
:101270009B176BE00E949B177C016DE374E00E945A
:101280005617B801C7010E940F1866E00E949B170D
:101290006BE00E949B178C0165E474E00E94561776
:1012A000B201C8010E940F1866E00E949B176BE014
:1012B0000E949B178C016DE474E00E945617B101E7
:1012C000C8010E940F1866E00E949B176BE00E9405
:1012D0009B178C0165E574E00E9456172B813C81B9
:1012E000B901C8010E940F1866E00E949B178D810A
:1012F0009E8126960FB6F894DEBF0FBECDBFDF915C
:10130000CF911F910F91FF90EF90DF90CF90BF9002
:10131000AF909F908F907F906F905F904F903F9095
:101320002F900895CF93DF93FC01718360834283F4
:1013300080918000816A80938000809180008093FA
:101340008000809181008A6080938100809181007B
:10135000809381008281813089F08230D9F0C08110
:10136000D1812097A1F064EA72E0CE010E94561765
:1013700066E0CE01DF91CF910C949B1787B1876017
:1013800087B9329A269AC081D181209779F4DF916A
:10139000CF9108958AB1806E8AB94F9A259AC081FB
:1013A000D1812097A1F36DE872E0DFCF66E772E0AC
:1013B000DCCFFC012281213071F0223009F0089548
:1013C00077FD18C08BB18BB95E985D9A70938900D8
:1013D00060938800089528B128B977FD13C041981B
:1013E000409A70938B0060938A00FC018281823066
:1013F00049F308958BB18BB95E9A5D9871956195AB
:101400007109E4CF419A4098719561957109E9CFCE
:10141000FC012281213039F0223009F008958BB18E
:1014200080668BB9089528B1236028B92281F4CF52
:10143000FC012281213059F0223009F008958BB14E
:101440008BB970E07093890060938800089528B18B
:1014500028B9262F30E030938B0020938A00228118
:10146000EBCF7C0183E090E00E941F17EC01F701B5
:101470006681778141E00E94920983E090E00E94BA
:101480001F178C01F7016681778142E00E94920963
:101490000DC00FB6F8940F920F900FBE823019F165
:1014A00060ED77E080E090E00E948E0F0FB6F89438
:1014B0000F92E0913203F091330380850F900FBEBD
:1014C000813039F70FB6F8940F920F900FBEE0916C
:1014D0003003F09131036085772767FD7095CE0169
:1014E0000E94D909DDCF0FB6F8940F920F900FBE6E
:1014F000E0913003F09131036085772767FD7095A7
:10150000C8010E94D909CCCF0F931F93CF93DF93CB
:10151000EC010E94DD1289ED92E099838883DF91CE
:10152000CF911F910F9108950F931F93CF93DF9346
:10153000EC010E94810D80913603811121C080E46D
:1015400093E090933C0380933B0310923E031092F0
:101550003D0387E397E190933A0380933903109218
:10156000380310923703909343038093420387E339
:1015700093E0909341038093400381E0809336038E
:10158000209709F460C0AE014C5F5F4F2396C633CD
:10159000D74108F058C0E0913B03F0913C03ABE326
:1015A000B3E006C080819181009739F0DF01FC0132
:1015B0002281338124173507A8F3C3E0E733FC0702
:1015C00009F441C00D911C9111970C5F1F4F808150
:1015D00091818D939C93C901841B950B8930910552
:1015E00000F1BF01640F751FDB0113969C938E936E
:1015F00012975383428312968D919C911397ABE37C
:10160000B3E001C0DF01ED91FC911197228133819C
:1016100028173907B8F3EB01F983E8836D937C93BE
:101620009A018091000290910102821B930B90938A
:101630000102809300020E94B40EC801DF91CF9195
:101640001F910F91089500E010E00E94B40EC801B0
:10165000DF91CF911F910F910895CF93DF93009762
:1016600021F1EC0124970E94810D4A815B81ABE35B
:10167000B3E001C0DF01ED91FC911197228133812C
:1016800024173507B8F3F983E883CD93DC93809171
:10169000000290910102840F951F909301028093A4
:1016A0000002DF91CF910C94B40EDF91CF91089599
:1016B0008091000290910102089508958091AC1AE2
:1016C000823018F00E940F1CF9CFFFCFCF92DF922B
:1016D000EF92FF926B017C01E091771AF091781AFA
:1016E00062837383848395838091801A9091811A99
:1016F000A091821AB091831A6091771A7091781A2A
:10170000C816D906EA06FB0610F18091941A90914A
:10171000951A6E5F7F4F0E94D61A809102029091B7
:101720000302A0910402B0910502C816D906EA0688
:10173000FB0640F4C0920202D0920302E09204023F
:10174000F0920502FF90EF90DF90CF900895809186
:10175000921A9091931A6E5F7F4FFF90EF90DF90F7
:10176000CF900C94D61A5F926F927F928F929F9235
:10177000AF92BF92CF92DF92EF92FF920F931F939F
:10178000CF93DF934C01162F572E5A01390189E26E
:1017900090E00E94940AEC01009709F4E9C0C1149A
:1017A000D10409F4DAC0DC8ECB8EC601A50165EA4E
:1017B00070E00E94142421E0A21AB108CB8CDC8CCA
:1017C000CA0CDB1CAE01435E5F4FE12FF52D2AE012
:1017D000CF013191DA013D93AD01DC018C91882379
:1017E00011F02150A9F71EA2102F043008F07DC07F
:1017F0001A8F1FA318A65E01B2E0AB0EB11CC50183
:101800000E94B11ACE010E960E94B11ADB87CA87D8
:1018100084E090E0A0E0B0E0811B9109A109B1094A
:101820008E879F87A88BB98BDF8BCE8BA301B401EA
:10183000C6010E943F1B99838883E114F10419F0CB
:10184000F701D183C0830FB6F8940F928091841A68
:101850008F5F8093841A8091771A9091781A892BE0
:1018600009F449C080917E1A81110BC0E091771A6A
:10187000F091781A828D081720F0D093781AC093CF
:10188000771A80917A1A8F5F80937A1A8A8D909155
:101890007F1A981738F1FBE08F9FC0011124B50122
:1018A0008455954E0E94B51A0F900FBE80917E1AF6
:1018B000882339F0E091771AF091781A828D801799
:1018C000B0F081E0DF91CF911F910F91FF90EF90E9
:1018D000DF90CF90BF90AF909F908F907F906F9050
:1018E0005F90089580937F1AD6CF13E081CF0E9436
:1018F0000F1C81E0E7CFD093781AC093771A8091BC
:10190000841A813009F0BDCF8CEA9AE10E94A01AB6
:1019100087EB9AE10E94A01A82EC9AE10E94A01A39
:101920008DEC9AE10E94A01A81EA9AE10E94A01A25
:1019300086E99AE10E94A01A87E89AE10E94A01A1B
:1019400081EA9AE19093951A8093941A86E99AE134
:101950009093931A8093921A94CFC5010E94940A8F
:101960009C8F8B8F009709F021CFCE010E942D0B09
:101970008FEFA8CF0FB6F8940F92009729F00F9031
:101980000FBEFC01828D08958091771A9091781A8C
:101990000F900FBEFC01828D0895EF92FF921F936E
:1019A000CF93DF93EC01262F643008F023E00FB6CD
:1019B000F8940F92209709F44AC03FA13217A9F179
:1019C0008091771A9091781A3217B8F5C817D9070D
:1019D00041F0E091771AF091781A11E0828D281782
:1019E00008F410E08A8D381769F12FA34E855F85C2
:1019F0006889798977FD0CC044E050E060E070E0D0
:101A0000421B5109610971094E875F87688B798B89
:101A10002BE0829FC00111248455954E2C853D8575
:101A200028173907C9F0113079F00F900FBEDF91F8
:101A3000CF911F91FF90EF90089511E0C817D9073B
:101A400081F6D0CF2A8FD1CF0E940F1CEECFC0914C
:101A5000771AD091781AB1CF7E0182E0E80EF11C9E
:101A6000C7010E94131B8A8D90917F1A981710F45A
:101A700080937F1A2BE0829FC0011124B701845507
:101A8000954E0E94B51ACFCFAF92BF92CF92DF9200
:101A9000EF92FF920F93A12CB12CC12CD12C85E891
:101AA000E82E8AE1F82E00E020E030E044E650E045
:101AB0006DED72E08EE59BE00E94B30B813041F04A
:101AC0000F91FF90EF90DF90CF90BF90AF9008956F
:101AD000F89480937E1A1092801A1092811A1092B4
:101AE000821A1092831A0F91FF90EF90DF90CF909F
:101AF000BF90AF900C94D31BF89410927E1A0C9464
:101B00000E1C8091791A8F5F8093791A08950FB611
:101B1000F8940F926091801A7091811A8091821AC4
:101B20009091831A0F900FBE08956091801A709162
:101B3000811A8091821A9091831A08958091841A53
:101B40000895009711F04D9608958091771A90911D
:101B5000781A4D9608958091851A9091861A089565
:101B6000AF92BF92CF92DF92EF92FF920F931F93AB
:101B7000CF93DF938091791A8111CFC08091801A21
:101B80009091811AA091821AB091831A0196A11D99
:101B9000B11D8093801A9093811AA093821AB093FA
:101BA000831AC090801AD090811AE090821AF09027
:101BB000831AC114D104E104F10439F58091941A17
:101BC0009091951A2091921A3091931A3093951A08
:101BD0002093941A9093931A8093921A80917B1A6F
:101BE0008F5F80937B1AE091941AF091951A80810F
:101BF00081119AC08FEF9FEFDC01809302029093D6
:101C00000302A0930402B093050280910202909116
:101C10000302A0910402B0910502B12CC816D906A6
:101C2000EA06FB0608F457C09BE0A92EE091941A3F
:101C3000F091951A8081882309F442C0E091941AAA
:101C4000F091951A0780F085E02DC085D1854A81F5
:101C50005B816C817D81C416D506E606F70608F423
:101C60007AC08E010E5F1F4FC8010E94131B888D22
:101C7000998D892B21F0CE010E960E94131B8A8D1F
:101C800090917F1A981710F480937F1AA89EC00134
:101C90001124B8018455954E0E94B51AE091771A27
:101CA000F091781A9A8D828D981708F4BFCFBB24D3
:101CB000B394E091941AF091951A80818111BECF6E
:101CC0004FEF5FEFBA01409302025093030260931B
:101CD000040270930502E091771AF091781AE28D70
:101CE0008BE0E89FF0011124E455F54E80818230AD
:101CF00010F0BB24B39480917C1A882311F0BB248C
:101D0000B3948B2DDF91CF911F910F91FF90EF90A6
:101D1000DF90CF90BF90AF90089580917D1A8F5F34
:101D200080937D1AB12CE7CFE091941AF091951A27
:101D30000780F085E02D0084F185E02D828193817C
:101D4000A481B5818093020290930302A0930402C0
:101D5000B09305025ACF409302025093030260935E
:101D6000040270930502B7CFEF92FF920F931F9377
:101D7000CF93DF930FB6F8940F928091791A815028
:101D80008093791A8091791A811150C08091841AB8
:101D9000882309F44BC02BE0F22EEE24E39427C0F5
:101DA000E0918E1AF0918F1AC085D185CE010E96E2
:101DB0000E94131B8E010E5F1F4FC8010E94131B50
:101DC0008A8D90917F1A981710F480937F1AF89E4D
:101DD000C0011124B8018455954E0E94B51AE091B6
:101DE000771AF091781A9A8D828D981748F580911C
:101DF000871A8111D5CF80917D1A882399F080911F
:101E00007D1A882379F0C1E00E94B00D8111C09342
:101E10007C1A80917D1A815080937D1A80917D1A61
:101E20008111F2CF80917C1A813069F080E00F90AF
:101E30000FBEDF91CF911F910F91FF90EF9008950A
:101E4000E0927C1AD4CF0E940F1C81E0F0CFCF9299
:101E5000DF92EF92FF920F931F93CF93DF9300D007
:101E600000D0CDB7DEB72091791A2F5F2093791A71
:101E7000C090801AD090811AE090821AF090831A54
:101E8000FC010081118122813381400F511F621FAB
:101E9000731FC016D106E206F306E8F44017510797
:101EA00062077307E8F0FC01408351836283738308
:101EB0000E94B40E811102C00E940F1C0F900F905F
:101EC0000F900F90DF91CF911F910F91FF90EF90A6
:101ED000DF90CF900895401751076207730728F0ED
:101EE000C416D506E606F706F0F6FC0140835183DA
:101EF000628373838091771A9091781A029649834E
:101F00005A836B837C830E94131B49815A816B81A6
:101F10007C81CB01BA010E94660BCACFCF92DF92BF
:101F2000EF92FF92611571058105910539F40E94C8
:101F30000F1CFF90EF90DF90CF9008952091791AB9
:101F40002F5F2093791AC090801AD090811AE09068
:101F5000821AF090831AC60ED71EE81EF91E8091D1
:101F6000771A9091781A02960E94131BC701B60146
:101F70000E94660B0E94B40E8823C9F2FF90EF9076
:101F8000DF90CF9008958091791A81113BC0109213
:101F90007C1AE0917F1A8BE0E89FF0011124E45550
:101FA000F54E8081811110C09BE080917F1A815095
:101FB00080937F1AE0917F1A9E9FF0011124E455CF
:101FC000F54E8081882389F3E0917F1A8BE0E89FAA
:101FD000F0011124E455F54EA181B28114960D90C3
:101FE000BC91A02DB283A183CF010396A817B90796
:101FF00069F018968D919C9119979093781A809317
:10200000771A089581E080937C1A089514969C9124
:10201000149715968C9191838283A92FB82FE9CFBD
:10202000CF92DF92EF92FF926A017B016091771A63
:102030007091781A625F7F4F0E94D61A8091771A4A
:102040009091781A02960E94131B6091801A7091E9
:10205000811A8091821A9091831A6C0D7D1D8E1DBC
:102060009F1DFF90EF90DF90CF900C94660BCF9266
:10207000DF92EF92FF920F931F9368017901E09135
:10208000771AF091781A706846875787608B718B42
:102090006091771A7091781A625F7F4F0E94B51A2B
:1020A0008091771A9091781A02960E94131B609182
:1020B000801A7091811A8091821A9091831A6C0D06
:1020C0007D1D8E1D9F1D1F910F91FF90EF90DF9042
:1020D000CF900C94660B0F931F93CF93DF93DC018B
:1020E0001796ED91FC911897C085D1858E01025FFE
:1020F0001F4FC8010E94131B8091791A811124C0BF
:102100008E010E5F1F4FC8010E94131B8A8D909194
:102110007F1A9817F8F0BBE08B9FC0011124B8011B
:102120008455954E0E94B51AE091771AF091781A6D
:102130009A8D828D891788F481E080937C1ADF91D3
:10214000CF911F910F910895B80187E89AE10E94FD
:10215000B51AEACF80937F1ADECF80E0DF91CF916E
:102160001F910F9108950F931F93CF93DF93706882
:10217000FC014083518362837383C085D1850E94B3
:10218000131B8E010E5F1F4FC8010E94131B8A8D07
:1021900090917F1A981710F480937F1AFBE08F9F1D
:1021A000C0011124B8018455954E0E94B51AE091E2
:1021B000771AF091781A9A8D828D891740F481E010
:1021C00080937C1ADF91CF911F910F91089580E049
:1021D000DF91CF911F910F91089520917B1AFC01FF
:1021E00020834091801A5091811A6091821A7091D7
:1021F000831A418352836383748308958F929F92DD
:10220000AF92BF92CF92DF92EF92FF920F931F9304
:10221000FC01DB010FB6F8940F924091801A5091A7
:10222000811A6091821A7091831A80917B1A908131
:102230000181128123813481981729F040175107B9
:102240006207730770F5CD90DD90ED90FC901397C9
:102250004A015B01801A910AA20AB30A8C149D04F8
:10226000AE04BF04F0F4C41AD50AE60AF70AC00E99
:10227000D11EE21EF31ECD92DD92ED92FC921397D9
:1022800080917B1A80838091801A9091811AA0910D
:10229000821AB091831A81839283A383B48380E0EE
:1022A00001C081E00F900FBE1F910F91FF90EF9042
:1022B000DF90CF90BF90AF909F908F90089581E076
:1022C00080937C1A0895009799F0DC015B96ED915C
:1022D000FC915C978081853A81F4319680E090E0B2
:1022E000DC010196A11DB11D2191253AD1F308957C
:1022F0008091771A9091781AE8CF80E008958091C4
:10230000771A9091781A08950F931F93CF93DF93C4
:10231000EC01009781F18A8DE091771AF091781A9B
:10232000928D891740F54E855F856889798977FD9B
:1023300011C0E091771AF091781A928D44E050E044
:1023400060E070E0491B5109610971094E875F87A0
:10235000688B798B2BE0829FC00111248455954EA8
:102360002C853D852817390759F0E091771AF091AF
:10237000781A828D8A8FDF91CF911F910F910895E6
:102380008E010E5F1F4FC8010E94131BE091771A48
:10239000F091781A828D8A8F90917F1A981710F495
:1023A00080937F1A2BE0829FC0011124B8018455CD
:1023B000954EDF91CF911F910F910C94B51A0F9309
:1023C0001F93CF93DF93EC01009749F088A58150CC
:1023D00088A72A8D9FA1291711F0882331F080E06A
:1023E000DF91CF911F910F9108958E010E5F1F4FC6
:1023F000C8010E94131B8FA18A8F44E050E060E067
:1024000070E0481B5109610971094E875F87688B2D
:10241000798B90917F1A981710F480937F1A2BE094
:10242000829FC0011124B8018455954E0E94B51AAF
:1024300081E0DF91CF911F910F910895CF92DF92AC
:10244000EF92FF92E091771AF091781A668577857E
:1024500080899189E091771AF091781AA091771A82
:10246000B091781A5A962C9134E0C32ED12CE12CDD
:10247000F12CC21AD108E108F108C686D786E08A95
:10248000F18AFF90EF90DF90CF9008958091771AB6
:102490009091781A892B39F0E091771AF091781A97
:1024A00080A58F5F80A78091771A9091781A089500
:1024B000EF92FF920F931F93CF93DF9300D0CDB78E
:1024C000DEB77C0186EE92E0F7019183808361158F
:1024D0007105C1F0FB0101900020E9F73197E61B7F
:1024E000ED3020F50E2F10E0C801019669837A8344
:1024F0000E942617F70195838483A80169817A8158
:102500000E941B248091D81A9091D91AF7019783C1
:102510008683F092D91AE092D81A0F900F90DF912B
:10252000CF911F910F91FF90EF900895ECE0DACFDB
:102530000F931F93CF93DF93EC018091D81A909162
:10254000D91A6BE0892B49F1CE010E949B178C01AF
:102550006EE974E00E94561766E0C8010E949B175E
:102560006BE0CE010E949B178C016BE774E00E9428
:10257000561766E0C8010E949B178091D81A909167
:10258000D91ADC01ED91FC910190F081E02DBE01A2
:10259000DF91CF911F910F910994CE010E949B175B
:1025A000EC016DE574E00E94561766E0CE01DF9104
:1025B000CF911F910F910C949B174F925F926F9246
:1025C0007F928F929F92AF92BF92CF92DF92EF92C3
:1025D000FF920F931F93CF93DF93EC013B014901CF
:1025E0002801FC018CEE92E081939193A12CB12CF7
:1025F000C12CD12C7F01042F9E01A4018EE492E214
:102600000E94B30B5F824E82998688862091DA1AE7
:102610003091DB1A3D832C83D093DB1AC093DA1AF6
:102620001C861D868090E81A9090E91A9FEF891AFF
:10263000990A9092E91A8092E81A9B868A861E86E9
:102640001F86188A198A4114510409F44CC06BE0A2
:10265000813041F1C2010E949B17EC0161EC74E0F2
:102660000E945617B301CE010E945617E881F981E6
:102670000280F381E02D62E2CE01099566E0CE0191
:10268000DF91CF911F910F91FF90EF90DF90CF904E
:10269000BF90AF909F908F907F906F905F904F9082
:1026A0000C949B17C2010E949B17EC0167ED74E02C
:1026B0000E945617B301CE010E9456176BE0CE015F
:1026C0000E949B17EC016EED74E00E94561763E0C8
:1026D000CE010E949B17B4010E940F1862E00E9475
:1026E0009B1766E0CDCFDF91CF911F910F91FF90A7
:1026F000EF90DF90CF90BF90AF909F908F907F90A2
:102700006F905F904F900895EC01E881F9810190FE
:10271000F081E02D09951B821A826FEF7FEFCB01CC
:102720000E948E0FFACFFC01648765870895FC0133
:10273000C681D781209739F0CE010E94561766E0F6
:10274000CE010E949B172BE088E190E00FB6F89431
:10275000A895809360000FBE20936000FFCF0E9479
:10276000870D0E947D2320E030E04AE754E40E9478
:1027700015230895CF92DF92EF92FF920F931F934C
:10278000CF93DF93EC017B018A819B810E94A10D95
:102790006C016BE0C7010E949B178C0165EF74E030
:1027A0000E945617B601C8010E94561766E0C8017C
:1027B0000E949B178A859B8528853985A701BC01C6
:1027C000821B930B0E949F160C80DD81C02D2097E9
:1027D000D9F6DF91CF911F910F91FF90EF90DF908D
:1027E000CF9008950F931F93CF93DF93EC018091C7
:1027F000DA1A9091DB1A009719F0BE010E94BA1301
:102800006BE0CE010E949B178C016CEF74E00E947C
:10281000561766E0C8010E949B178091E81A9091B4
:10282000E91ABC016F5F7F4FAE0183569109DF91BA
:10283000CF911F910F910C949F168F929F92AF9200
:10284000BF92CF92DF92EF92FF920F931F93CF939D
:10285000DF93EC018B018A819B810E94A10DBC0159
:10286000C8010E945617D801ED91FC910280F381B6
:10287000E02D69E0C80109958A819B810E94A10D24
:10288000FC0101900020E9F73197E81BF90B38971C
:1028900048F4D801ED91FC910280F381E02D69E0CC
:1028A000C8010995CE84DF84E888F988A884B984B2
:1028B0008A819B810E946311982E8C848A819B81DE
:1028C0000E94BA0C682FC8010E9491186BE00E9408
:1028D0009B17EC0160E775E00E945617682DCE014A
:1028E0000E9491186BE00E949B17EC0162E775E073
:1028F0000E945617692DCE010E9491186BE00E942C
:102900009B17EC0164E775E00E945617B501CE01F4
:102910000E940F186BE00E949B17EC0166E775E0C0
:102920000E9456176BE0CE010E949B17EC0168E7EE
:1029300075E00E945617B701A601CE01DF91CF9135
:102940001F910F91FF90EF90DF90CF90BF90AF90CD
:102950009F908F900C9449180F931F93CF93DF9300
:10296000EC018B01E881F9810280F381E02DB8014F
:10297000CE01099566E0C8010E949B170C80DD819D
:10298000C02D209779F7DF91CF911F910F91089576
:10299000CF93DF93EC01CB01DB01ED91FC91028041
:1029A000F381E02DBE010995CE01DF91CF9108950D
:1029B0000F931F93CF93DF93EC016BE00E949B1763
:1029C0008C016EE575E00E9456176BE0C8010E940D
:1029D0009B178C0169E675E00E94561766E0C801F6
:1029E0000E949B176BE0CE010E949B178C016BE34A
:1029F00075E00E9456176BE0C8010E949B178C017E
:102A00006CE475E00E9456176BE0C8010E949B17AA
:102A10008C0168E575E00E94561766E0C8010E94C7
:102A20009B176BE0CE010E949B178C0168E175E05B
:102A30000E9456176BE0C8010E949B178C0169E247
:102A400075E00E9456176BE0C8010E949B178C012D
:102A500065E375E00E94561766E0C8010E949B1767
:102A60008091DA1A9091DB1A009719F0BE010E944A
:102A7000AC140E94AB0D0E946311182F6BE0CE01C5
:102A80000E949B17EC0167E075E00E945617612FCA
:102A9000CE010E9491186BE00E949B17EC0162E14D
:102AA00075E00E94561764E670E0CE010E940F1890
:102AB0006BE00E949B17EC0164E175E00E945617E1
:102AC00066E0CE01DF91CF911F910F910C949B177F
:102AD000CF92DF92EF92FF920F931F93CF93DF93EA
:102AE0007C018B01DC011A966D917C911B97C801CA
:102AF0000E945617F701A285B385FD0101900020C1
:102B0000E9F73197DE2EDA1AFFE0FD1580F0C0E01C
:102B1000D0E0D801ED91FC910280F381E02D60E2DC
:102B2000C801099521968C2F8D0D803190F360EFAF
:102B300072E0C8010E945617D7015696CD90DC90DE
:102B400057971E968D919C911F970E946820682F21
:102B5000C8010E949118EC01E881F9810280F3819B
:102B6000E02D6FE20995B601CE010E940F18DC013D
:102B7000ED91FC910280F381E02D69E0099566E01A
:102B8000C8010E949B17F70184859585009781F005
:102B9000DC01ED91FC910190F081E02DB801DF9115
:102BA000CF911F910F91FF90EF90DF90CF900994FC
:102BB000DF91CF911F910F91FF90EF90DF90CF9019
:102BC00008956F927F928F929F92AF92BF92CF9211
:102BD000DF92EF92FF920F931F93CF93DF93EC015D
:102BE000762E672E4A015901670178010E944B1722
:102BF000B401CE0106960E9458128BEF92E09983A1
:102C000088832DE033E03F832E83BD8AAC8A40E089
:102C100061E0872D0E94D91D9F878E87C88AD98A37
:102C2000EA8AFB8A7E8A6F8ADF91CF911F910F918A
:102C3000FF90EF90DF90CF90BF90AF909F908F90DC
:102C40007F906F90089506970C946815CF92DF924D
:102C5000EF92FF920F931F93CF93DF93CDB7DEB721
:102C60002F970FB6F894DEBF0FBECDBF8C017B014E
:102C7000DB016D917D918D919C9128EE33E040E0D8
:102C800050E00E94BF22BA01A901C8010E94491860
:102C9000D801ED91FC910280F381E02D6EE2C80134
:102CA0000995C7010E9491206E01B9E0CB0ED11C9D
:102CB0007E01EFE0EE0EF11C2AE030E040E050E053
:102CC0000E94E122E62F29833A834B835C8369814A
:102CD0007A818B819C81E05DD701EE937D01AC15FB
:102CE000BD0551F71F86BD01C8010E945617C801D6
:102CF0002F960FB6F894DEBF0FBECDBFDF91CF91F8
:102D00001F910F91FF90EF90DF90CF900895CF9398
:102D1000DF93EC010FB6F8940F928091240190910B
:102D200025019D838C830E94870D688379838A8324
:102D30009B830F900FBECE01DF91CF9108958F92AC
:102D40009F92AF92BF92CF92DF92EF92FF920F933A
:102D50001F93CF93DF936C014B01EA0163E0CA013B
:102D60000E949B17C814D90408F059C0560184E189
:102D7000A80EB11C7501B601CE010E940F186BE0C0
:102D80000E949B176AE775E00E9456178601F801BA
:102D900061918F01CE010E949118E881F981028032
:102DA000F381E02D60E2CE0109950E151F0579F73C
:102DB000E881F9810280F381E02D60E2CE0109957E
:102DC0000FC080EE860FE881F9810280F381E02D4B
:102DD0008F3508F06EE2CE010995CE14DF0481F044
:102DE000F60161916F01653A61F7E881F98102802E
:102DF000F381E02D60E2CE010995CE14DF0481F766
:102E0000650166E0CE010E949B17F4E1EF0EF11C14
:102E1000A814B90420F4C50144965C01ACCF62E06B
:102E2000CE01DF91CF911F910F91FF90EF90DF9036
:102E3000CF90BF90AF909F908F900C949B170C9465
:102E4000940A009711F00C942D0B08950C94940A99
:102E5000009711F00C942D0B0895FC0181E090E097
:102E60002081222311F080E090E0089521E0FC0110
:102E7000208308950895089581E0089580E00895DD
:102E800080E008950895DC01ED91FC910280F381CA
:102E9000E02D6CE00994FC0183E193E09183808351
:102EA0008AE0828383E08583148208950F931F93C1
:102EB000CF93DF93EC01FB018C81811117C06081FE
:102EC000662379F08F010F5F1F4FE881F98102803F
:102ED000F381E02DCE010995F80161918F01611117
:102EE000F4CFDF91CF911F910F9108951C828B0138
:102EF0000F5F1F4F64916623A1F3A881B9811296D9
:102F0000ED91FC911397CE010995F80164910F5F43
:102F10001F4F6111F2CFE5CF883008F087E0809332
:102F2000070289E008959EEF980F9F3010F4809378
:102F300006028AE00895CF93DF93EC01462F50E01C
:102F40004C30510538F4FA01EA59FF4F0C94002334
:102F500082E08A83CE01DF91CF91089581E08C8356
:102F6000F9CF88E08A83F6CF8AE08A83F3CF80E1C5
:102F70008A83F0CFE881F9810280F381E02D6DE052
:102F80000995E881F9810280F381E02D6AE0CE01A4
:102F90000995E0CFE881F9810284F385E02D099558
:102FA000D9CFE881F9810084F185E02D0995D2CF50
:102FB000809107028D83CECF809106028A83CACF8B
:102FC0000F931F93CF93DF93CDB7DEB761970FB603
:102FD000F894DEBF0FBECDBF8C01CB01F80122817A
:102FE0002A3079F0C8010E940F18C80161960FB607
:102FF000F894DEBF0FBECDBFDF91CF911F910F912F
:1030000008954AE050E0BE016F5F7F4F0E942A247E
:10301000BE016F5F7F4FC8010E945617E6CFFF9237
:103020000F931F93CF93DF93CDB7DEB761970FB6A2
:10303000F894DEBF0FBECDBF8C01F62E972FF8019E
:103040004281403191F0483081F0423071F050E0DF
:10305000BE016F5F7F4F8F2D0E947024BE016F5F96
:103060007F4FC8010E94561707C0692FC8010E94F0
:1030700091186F2D0E949118C80161960FB6F894AF
:10308000DEBF0FBECDBFDF91CF911F910F91FF909B
:103090000895DF92EF92FF920F931F93CF93DF93E8
:1030A000CDB7DEB7A1970FB6F894DEBF0FBECDBF88
:1030B0008C01D42EE52EF62E972FF8012281203197
:1030C000A1F0283091F0223081F030E0AE014F5F66
:1030D0005F4F6D2D7E2D8F2D0E944B24BE016F5FA3
:1030E0007F4FC8010E9456170DC0692FC8010E946A
:1030F00091186F2D0E9491186E2D0E9491186D2DC0
:103100000E949118C801A1960FB6F894DEBF0FBEB9
:10311000CDBFDF91CF911F910F91FF90EF90DF9086
:103120000895CF92DF92EF92FF920F931F93CF9368
:10313000DF93CDB7DEB729970FB6F894DEBF0FBE89
:10314000CDBF8C01D62EDC0113968C911397811183
:103150005DC0F80142814230D9F14031F1F050E0D8
:10316000BE016F5F7F4F8D2D90E00E947024BE01E5
:103170006F5F7F4FC8010E945617C80129960FB68E
:10318000F894DEBF0FBECDBFDF91CF911F910F919D
:10319000FF90EF90DF90CF90089562956F7001904F
:1031A000F081E02D0280F381E02D6A30B8F5605D9A
:1031B000C80109956D2D6F70D801ED91FC910280C9
:1031C000F381E02D6A3060F1695CC8010995D5CFC3
:1031D00088E0E82EF12C90E8C92E0AC061E3C8010E
:1031E0000995C694B1E0EB1AF108E114F10429F253
:1031F0008C2D8D21D801ED91FC910280F381E02D81
:103200008111ECCF60E3C8010995EBCFED91FC9102
:103210000280F381E02DC8010995AFCF695CC8CF6A
:10322000605DD3CFDC011896ED91FC9119978081F8
:103230001C969C911C97892359F421E23EE405C019
:10324000215031092115310571F080818923C1F3A5
:1032500080811E969C911E97892B80831696ED91F6
:10326000FC91179760830895FC01878581111DC02B
:103270002091E41A3091E51A8091E21A9091E31AB4
:103280002817390789F0E091E61AF091E71AE20F62
:10329000F31F80812F5F3F4F2032310518F11092CC
:1032A000E51A1092E41A0895FFCF2091DE1A3091AA
:1032B000DF1A8091DC1A9091DD1A2817390789F0FE
:1032C000E091E01AF091E11AE20FF31F80812F5F85
:1032D0003F4F2032310558F01092DF1A1092DE1A5B
:1032E0000895FFCF3093E51A2093E41A08953093A0
:1032F000DF1A2093DE1A0895DC01ED91FC91028023
:10330000F381E02D6CE00994FC018785882369F046
:1033100081E04091DE1A5091DF1A2091DC1A309141
:10332000DD1A4217530769F0089581E04091E41ACD
:103330005091E51A2091E21A3091E31A421753078F
:1033400099F780E00895EF92FF921F93CF93DF9358
:1033500000D0CDB7DEB77C01142F69837A830E9439
:103360004B17412F69817A81C70106960E94CF20B1
:1033700083E293E0F7019183808317871123E9F0BB
:103380008091C90080688093C90080E290E00E942B
:1033900026179093E11A8093E01A1092DF1A109288
:1033A000DE1A1092DD1A1092DC1A0F900F90DF9146
:1033B000CF911F91FF90EF9008958091C100806898
:1033C0008093C10080E290E00E9426179093E71A54
:1033D0008093E61A1092E51A1092E41A1092E31AFA
:1033E0001092E21A0F900F90DF91CF911F91FF90F2
:1033F000EF9008951F920F920FB60F9211240BB603
:103400000F922F933F938F939F93EF93FF9320916E
:10341000C600E091E61AF091E71A8091E21A9091C5
:10342000E31AE80FF91F20838091E21A9091E31AC2
:10343000019680329105C0F49093E31A8093E21ACA
:103440002091E41A3091E51A28173907D1F0FF913D
:10345000EF919F918F913F912F910F900BBE0F9005
:103460000FBE0F901F9018951092E31A1092E21A57
:1034700080E090E02091E41A3091E51A281739078E
:1034800031F701969093E51A8093E41A8097F8F249
:103490001092E51A1092E41ADACF1F920F920FB62B
:1034A0000F9211240BB60F922F933F938F939F93FC
:1034B000EF93FF932091CE00E091E01AF091E11A92
:1034C0008091DC1A9091DD1AE80FF91F208380911A
:1034D000DC1A9091DD1A019680329105C0F4909328
:1034E000DD1A8093DC1A2091DE1A3091DF1A28173A
:1034F0003907D1F0FF91EF919F918F913F912F91DB
:103500000F900BBE0F900FBE0F901F90189510924A
:10351000DD1A1092DC1A80E090E02091DE1A3091E2
:10352000DF1A2817390731F701969093DF1A809335
:10353000DE1A8097F8F21092DF1A1092DE1ADACFB4
:10354000FC010396928381834FEF5FEFBA014383BF
:1035500054836583768390878783928781871082DF
:103560000895FC01138612860895CF93DF939C0182
:10357000FB01DC011196CD91DC911297D583C483B8
:103580008E819F81978386838E819F81DC01159632
:103590007C936E9314977F836E8333872287F90120
:1035A00080818F5F8083DF91CF9108950F931F9368
:1035B000CF93DF93EB01088119812A813B810F3F73
:1035C0004FEF14072407340731F1DC01139601C0D3
:1035D000DF011496ED91FC91159740815181628134
:1035E0007381041715072607370790F7FD83EC83CF
:1035F000D783C683BF83AE831596DC93CE9314978F
:103600009B878A87FC0120812F5F2083DF91CF91E8
:103610001F910F910895FC01A185B2851496ED913B
:10362000FC911597E3CFCF93DF93FC01A285B3857F
:103630002481358186819781E9019F838E838681EC
:103640009781EC013D832C8311962D913C9112972B
:103650002E173F0741F0138612868C9181508C9370
:10366000DF91CF91089512969C938E9311971386B4
:1036700012868C9181508C93DF91CF910895909315
:10368000E91A8093E81A31E1FC013083319722E294
:103690002083FC013297A3E3A083FC01339760836E
:1036A000FC0134977083FC0135971082FC0136973A
:1036B00060E86083FC0137971082FC01389762E074
:1036C0006083FC01399763E06083FC013A9764E012
:1036D0006083FC013B9765E06083FC013C9766E0FA
:1036E0006083FC013D9767E06083FC013E9768E0E2
:1036F0006083FC013F9769E06083FC01709760E1A3
:103700006083FC0171973083FC01729732E1308352
:10371000FC01739733E13083FC01749734E130830B
:10372000FC01759735E13083FC01769736E13083F3
:10373000FC01779737E13083FC01789738E13083DB
:10374000FC01799739E13083FC017A9730E23083CC
:10375000FC017B9731E23083FC017C972083FC01E4
:103760007D9723E22083FC017E974083FC017F97B5
:103770005083FC01B09726E22083FC01B19727E239
:103780002083FC01B29728E22083FC01B39729E251
:103790002083FC01B49720E32083FC01B59721E34B
:1037A00020838697089587E0809329018FEC80938A
:1037B00028018AE080932101E3E7F0E080818260C4
:1037C0008083A091771AB091781ACD91CDBFDD9109
:1037D000DEBFFF91EF91DF91CF91BF91AF919F91AC
:1037E0008F917F916F915F914F913F912F911F9199
:1037F0000F91FF90EF90DF90CF90BF90AF909F9090
:103800008F907F906F905F904F903F902F901F9080
:103810000F900FBE0F90089581E0089508950F92C4
:103820000FB6F8940F921F9211242F923F924F924D
:103830005F926F927F928F929F92AF92BF92CF9240
:10384000DF92EF92FF920F931F932F933F934F932B
:103850005F936F937F938F939F93AF93BF93CF9318
:10386000DF93EF93FF93A091771AB091781A0DB67A
:103870000D920EB60D920E94C30FA091771AB091CF
:10388000781ACD91CDBFDD91DEBFFF91EF91DF9131
:10389000CF91BF91AF919F918F917F916F915F91E8
:1038A0004F913F912F911F910F91FF90EF90DF90DB
:1038B000CF90BF90AF909F908F907F906F905F90D0
:1038C0004F903F902F901F900F900FBE0F90089534
:1038D0000F920FB6F8940F921F9211242F923F92DD
:1038E0004F925F926F927F928F929F92AF92BF9210
:1038F000CF92DF92EF92FF920F931F932F933F93FC
:103900004F935F936F937F938F939F93AF93BF93E7
:10391000CF93DF93EF93FF93A091771AB091781A2A
:103920000DB60D920EB60D920E94B00D81110E943F
:10393000C30FA091771AB091781ACD91CDBFDD91C8
:10394000DEBFFF91EF91DF91CF91BF91AF919F913A
:103950008F917F916F915F914F913F912F911F9127
:103960000F91FF90EF90DF90CF90BF90AF909F901E
:103970008F907F906F905F904F903F902F901F900F
:103980000F900FBE0F9008950E94681C18951F930A
:10399000CF93DF93EC01142F88A181110DC0888192
:1039A0009981892B09F44DC080E09E8D9F5F9E8F89
:1039B000DF91CF911F910895482F50E011111CC045
:1039C0008C819D810E940B2428A18C819D81820F76
:1039D000911D9D838C832A813B818217930720F35D
:1039E000888199819D838C8380E09E8D9F5F9E8FCF
:1039F000DF91CF911F9108958E819F810E940B24AA
:103A000028A130E03195219531098E819F81820F67
:103A1000931F9F838E83688179818617970730F47F
:103A20008A819B81820F931F9F838E83123009F0BE
:103A3000BBCF8E8D882309F4B7CF8E8D81508E8FAA
:103A4000B3CF8A819B810E94DF111B821A82ADCF86
:103A5000FC01CB0140A1442399F050E0268137813D
:103A6000240F351F3783268362817381261737071A
:103A700020F02081318137832683B9010C940B24F7
:103A800008950F931F93CF93DF93EC010FB6F89433
:103A90000F928AA11816ECF48B898823D1F08E013D
:103AA0000D5E1F4F09C08AA181508AA38AA11816F2
:103AB00084F48B89882369F0C8010E946B108823E5
:103AC00091F30E945F118AA181508AA38AA11816DE
:103AD00084F38FEF8AA30F900FBE0FB6F8940F9266
:103AE00089A11816ECF488858823D1F08E01085F2F
:103AF0001F4F09C089A1815089A389A1181684F498
:103B00008885882369F0C8010E946B10882391F38F
:103B10000E945F1189A1815089A389A1181684F39D
:103B20008FEF89A30F900FBEDF91CF911F910F915F
:103B30000895CF93DF93EC010FB6F8940F9228818C
:103B400039818F8D78A1879FC0011124A901480F69
:103B5000591F5B834A831E8E3D832C83871B9109EB
:103B6000820F931F9F838E838FEF89A38AA3611196
:103B700012C08885811106C00F900FBE81E0DF91D1
:103B8000CF910895CE0108960E946B108130A1F765
:103B90000E940F1CF1CFCE0108960E94A01ACE0100
:103BA00043960E94A01A0F900FBE81E0DF91CF9143
:103BB00008950F931F93CF93DF93182F062F882319
:103BC00001F183E290E00E94940AEC010097C9F0B1
:103BD000109FC001112401960E94940A9983888342
:103BE000892B61F01F8F08A361E0CE010E94991D0F
:103BF000CE01DF91CF911F910F910895CE010E94C8
:103C00002D0BC0E0D0E0CE01DF91CF911F910F913D
:103C100008956F927F928F929F92AF92BF92CF92B0
:103C2000DF92EF92FF920F93CF93DF93CDB7DEB782
:103C300029970FB6F894DEBF0FBECDBF5C014B01D4
:103C40002E833F834887598720E03C0188E0680E37
:103C5000711C0FB6F8940F92F501968D878D981709
:103C600008F459C0023009F456C0CE80DF80E884E1
:103C7000F984CD28CE28CF2809F46FC0222309F477
:103C800041C00F900FBE0E94810D0FB6F8940F92A5
:103C9000F50181A18F3F09F43CC0F50182A18F3F5E
:103CA000B1F10F900FBEBE016A5F7F4FCE0101964A
:103CB0000E94FE10811155C00FB6F8940F92F501C5
:103CC000968D0F900FBEF501878D981314C04E810D
:103CD0005F8168857985C3010E941010C5010E942B
:103CE000411D0E94B40E882311F021E0B2CF0E9442
:103CF0000F1C21E0AECFC5010E94411D0E94B40EF1
:103D000021E0A7CFCE0101960E94ED10BACF12A2FA
:103D1000C8CF11A2C2CF402FB401C5010E94C71C59
:103D2000F5019389911124C0811128C00F900FBE15
:103D300081E029960FB6F894DEBF0FBECDBFDF91AC
:103D4000CF910F91FF90EF90DF90CF90BF90AF9009
:103D50009F908F907F906F9008950F900FBE80E09E
:103D6000E8CFC5010E94411D0E94B40E80E0E1CF62
:103D7000C50143960E946B108130C1F60E940F1C52
:103D8000D5CF0F93CF93DF9383E290E00E94940A04
:103D9000EC01009701F11B821A82198218821D82A0
:103DA0001C821F821E821E8E81E08F8F18A28FEFD1
:103DB00089A38AA3CE0108960E94A01ACE01439639
:103DC0000E94A01A00E020E030E0A90160E070E06D
:103DD000CE010E94091ECE01DF91CF910F9108956F
:103DE0000F931F93CF93DF93EC018A019E8D8F8DEC
:103DF000981740F0223031F080E0DF91CF911F9191
:103E00000F910895422FCE010E94C71C882331F0E4
:103E10000115110519F081E0F80180838AA18F3F17
:103E200049F08AA18F5F8AA381E0DF91CF911F9132
:103E30000F9108958B898823B9F3CE0143960E9490
:103E40006B10882389F30115110571F381E0F801E6
:103E50008083D3CFAF92BF92CF92DF92EF92FF9247
:103E60000F93CF93DF93CDB7DEB729970FB6F894B2
:103E7000DEBF0FBECDBF7C016B012E833F83488721
:103E8000598790E0570183E1A80EB11C0FB6F89452
:103E90000F92F701868D811169C04E815F8168851F
:103EA0007985452B462B472B09F47DC0992309F4CE
:103EB0003EC00F900FBE0E94810D0FB6F8940F9276
:103EC000F70181A18F3F09F43EC0F70182A18F3F26
:103ED00009F43FC00F900FBEBE016A5F7F4FCE0155
:103EE00001960E94FE10811171C00FB6F8940F92D6
:103EF000F701868D0F900FBE81111EC0F7018081E2
:103F00009181892B41F14E815F8168857985C50159
:103F10000E941010C7010E94411D0E94B40E882308
:103F200011F091E0B3CF0E940F1C91E0AFCFCE0112
:103F300001960E94ED10BDCFC7010E94411D0E9455
:103F4000B40E91E0A3CF11A2F70182A18F3F09F037
:103F5000C1CF12A2BFCF0FB6F8940F92F7018281A2
:103F600093810E9484110F900FBECDCFA680B780A1
:103F7000B601C7010E94281DF70101112EC0868DD0
:103F80008150868F80819181892BB9F1F7018085DD
:103F9000882341F1C70108960E946B10813011F50A
:103FA0000E940F1C1FC00F900FBE80E029960FB615
:103FB000F894DEBF0FBECDBFDF91CF910F91FF9080
:103FC000EF90DF90CF90BF90AF900895C7010E940F
:103FD000411D0E94B40E80E0E9CFB782A68283899A
:103FE000811104C00F900FBE81E0E0CFC70143965E
:103FF0000E946B108823B1F3D3CF0E944612F701C1
:1040000093838283C3CF0F931F93CF93DF9300D00B
:10401000CDB7DEB78C01FC01868D811108C080E030
:104020000F900F90DF91CF911F910F910895C801CC
:1040300049835A830E94281DF801868D8150868FFE
:1040400081A149815A818F3F61F0F80181A18F5F81
:1040500081A381E00F900F90DF91CF911F910F917D
:10406000089580858823A9F3C801089649835A8357
:104070000E946B1049815A81882359F341155105DB
:1040800041F381E0FA018083CBCF0F931F93CF934D
:10409000DF93EC018E8D811106C080E0DF91CF911E
:1040A0001F910F9108950E811F81CE010E94281D3E
:1040B0001F830E8381E0DF91CF911F910F910895AF
:1040C0000FB6F8940F92FC01868D0F900FBE0895E5
:1040D0000FB6F8940F92FC01268D0F900FBEFC01D5
:1040E000878D821B0895FC01868D0895CF93DF9301
:1040F000EC0188819981009711F00E942D0BCE016F
:10410000DF91CF910C942D0BFC01968D81E09111E4
:1041100080E00895FC01268D81E0978D291380E0D1
:104120000895CF92DF92EF92FF92CF93DF93EC014D
:10413000688179818A819B8128EEC22E23E0D22E6C
:10414000E12CF12CA70196010E94BF229B01AC013A
:1041500060E472E48FE090E00E949B22A701960148
:104160000E94BF2269017A01AC81BD8120E432E462
:104170004FE050E00E94902220E834E84EE150E009
:104180000E94BF22C20ED31EE41EF51EC701B60157
:10419000DF91CF91FF90EF90DF90CF900895CF9374
:1041A000DF93EC01442309F441C08EEC90E0998345
:1041B000888388EC90E09B838A8389EC90E09D83E0
:1041C0008C8388E18093C90086E08093CA001092B6
:1041D000CD009B0140E050E0220F331F441F551FCC
:1041E000220F331F441F551F220F331F441F551F1B
:1041F000220F331F441F551F60E074E284EF90E0EC
:104200000E94BF222093CC008091C80081608093DF
:10421000C80080E28E8380E88F8380E48887E8810D
:10422000F98180818081DF91CF91089586EC90E0C3
:104230009983888380EC90E09B838A8381EC90E073
:104240009D838C8388E18093C10086E08093C200C7
:104250001092C5009B0140E050E0220F331F441F25
:10426000551F220F331F441F551F220F331F441F9A
:10427000551F220F331F441F551F60E074E284EF67
:1042800090E00E94BF222093C4008091C000816012
:104290008093C000BECFDC011296ED91FC91139784
:1042A000208116968C91282381E009F480E00895FE
:1042B000DC011296ED91FC911397208118968C9158
:1042C000282381E009F080E00895DF92EF92FF92C9
:1042D0000F931F93CF93DF937C018B01DC01149626
:1042E0006D917C911597C8010E945617F701A48122
:1042F000B581FD0101900020E9F73197DE2EDA1A31
:10430000FFE0FD1580F0C0E0D0E0D801ED91FC9118
:104310000280F381E02D60E2C801099521968C2F7F
:104320008D0D803190F368E072E0C8010E9456174D
:1043300066E0C8010E949B17D70116968D919C914B
:104340001797009779F0DC01ED91FC910190F081D5
:10435000E02DB801DF91CF911F910F91FF90EF9069
:10436000DF900994DF91CF911F910F91FF90EF9013
:10437000DF900895CF92DF92EF92FF920F931F93F9
:10438000CF93DF9314BE88E10FB6F894809360005A
:10439000109260000FBE80E190E00E941F17EC01B8
:1043A00041E060E875E20E94A31967E0CE010E9437
:1043B0009B176BE00E949B178C0164EE70E00E94DB
:1043C000561766E0C8010E949B1788E190E00E94A2
:1043D0001F176C011AE0E12EF12C00E010E09E01A5
:1043E0004FE052E060E270E0C6010E94E115D09219
:1043F0003503C092340389E090E00E941F178C01BE
:1044000065E172E00E9458129DE4C92E92E0D92E17
:10441000F801D182C082109333030093320389E004
:1044200090E00E941F178C0165E272E00E94581212
:10443000F801D182C082109331030093300382E1EE
:1044400090E00E941F178E0124E031E041E064E318
:1044500072E00E94E00282E190E00E941F1728E1D2
:1044600031E042E06CE372E00E946F0782E190E08D
:104470000E941F1728E131E043E063E472E00E94EC
:10448000840A0E94440D80E090E0DF91CF911F915B
:104490000F91FF90EF90DF90CF9008950E948413CA
:1044A0000F93CF93DF931F92CDB7DEB76983FC01E3
:1044B000208931894289538900E0BE016F5F7F4FB7
:1044C000868597850E94091E0F90DF91CF910F91ED
:1044D0000895FC01868597850E94602091E08111F6
:1044E00001C090E0892F08950F93CF93DF931F921F
:1044F000CDB7DEB700E02FEF3FEFA901BE016F5F40
:104500007F4FFC01868597850E942A1F813031F4F8
:1045100089810F90DF91CF910F9108958FEFF9CF9F
:104520000E940623A59F900DB49F900DA49F800D1F
:10453000911D11240895DB018F939F930E94902277
:10454000BF91AF91A29F800D911DA39F900DB29F2F
:10455000900D11240895AA1BBB1B51E107C0AA1F8F
:10456000BB1FA617B70710F0A61BB70B881F991F14
:104570005A95A9F780959095BC01CD010895A1E2C7
:104580001A2EAA1BBB1BFD010DC0AA1FBB1FEE1FCD
:10459000FF1FA217B307E407F50720F0A21BB30B18
:1045A000E40BF50B661F771F881F991F1A9469F794
:1045B00060957095809590959B01AC01BD01CF01F0
:1045C0000895052E97FB1EF400940E94F82257FDD3
:1045D00007D00E94BF2207FC03D04EF40C94F822AF
:1045E00050954095309521953F4F4F4F5F4F08951F
:1045F00090958095709561957F4F8F4F9F4F08954F
:10460000EE0FFF1F0590F491E02D0994A29FB001D9
:10461000B39FC001A39F700D811D1124911DB29FF6
:10462000700D811D1124911D08950CD0BAC0B2D017
:1046300040F0A9D030F021F45F3F19F09BC0511138
:10464000E4C09EC0BFD098F39923C9F35523B1F3BA
:10465000951B550BBB27AA2762177307840738F0F1
:104660009F5F5F4F220F331F441FAA1FA9F333D050
:104670000E2E3AF0E0E830D091505040E695001C04
:10468000CAF729D0FE2F27D0660F771F881FBB1FC0
:10469000261737074807AB07B0E809F0BB0B802D9A
:1046A000BF01FF2793585F4F2AF09E3F510568F0E6
:1046B00061C0ABC05F3FECF3983EDCF38695779525
:1046C0006795B795F7959F5FC9F7880F911D9695E8
:1046D000879597F90895E1E0660F771F881FBB1F44
:1046E000621773078407BA0720F0621B730B840BF1
:1046F000BA0BEE1F88F7E0950895E89409C097FB80
:104700003EF490958095709561957F4F8F4F9F4FA8
:104710009923A9F0F92F96E9BB279395F6958795EC
:1047200077956795B795F111F8CFFAF4BB0F11F4AF
:1047300060FF1BC06F5F7F4F8F4F9F4F16C0882356
:1047400011F096E911C0772321F09EE8872F762F8C
:1047500005C0662371F096E8862F70E060E02AF0CD
:104760009A95660F771F881FDAF7880F96958795B9
:1047700097F9089597F99F6780E870E060E00895E1
:104780009FEF80EC089500240A9416161706180669
:104790000906089500240A94121613061406050645
:1047A0000895092E0394000C11F4882352F0BB0FD6
:1047B00040F4BF2B11F460FF04C06F5F7F4F8F4F39
:1047C0009F4F089557FD9058440F551F59F05F3F74
:1047D00071F04795880F97FB991F61F09F3F79F023
:1047E00087950895121613061406551FF2CF4695A5
:1047F000F1DF08C0161617061806991FF1CF869527
:104800007105610508940895E894BB27662777270A
:10481000CB0197F90895FB01DC0102C001900D92D4
:1048200041505040D8F70895DC0101C06D934150CC
:104830005040E0F70895FB01DC014150504048F042
:1048400001900D920020C9F701C01D9241505040C7
:10485000E0F70895FB019F01E8944230C4F045322F
:10486000B4F44A3029F497FB1EF4909581959F4F3C
:10487000642F77270E94AB22805D8A330CF0895D1C
:104880008193CB010097A1F716F45DE2519310825A
:10489000C9010C948624FA01CF93FF93EF93223041
:1048A000CCF02532BCF4C22F2C2F332744275527B8
:1048B000FF93EF930E94BF22EF91FF91605D6A33F7
:1048C0000CF0695D6193B901CA016050704080408D
:1048D000904051F710828F919F91CF910C94862434
:1048E000FB019F01423074F0453264F4642F772756
:1048F0000E94AB22805D8A330CF0895D8193CB01ED
:104900000097A1F71082C9010C948624DC01FC01F8
:10491000672F71917723E1F7329704C07C916D93F3
:1049200070836291AE17BF07C8F30895F894FFCF64
:104930003717FFFFFFFF0A037368617265090050B4
:1049400072696E740073685F6D6F746F725F736508
:104950006C6563740073685F706F7765725F656E16
:104960007472790055736572496E7400427269679A
:104970006874004D6F746F72000000000065212F95
:10498000000D000000000070041D14000000002E47
:10499000071D14412F4420636F6E73747275637426
:1049A0006F72204F4B006D6F746F72203120636FF8
:1049B0006E7374727563746F72204F4B006D6F74F9
:1049C0006F72203220636F6E7374727563746F72CE
:1049D000204F4B006D6F746F7220636F6E73747233
:1049E0007563746F72204641494C202873656C656D
:1049F0006374206D75737420626520612031206FAF
:104A0000722032290000000000310A1D1449444C74
:104A10004500000000003B17000000003B171D147C
:104A20007478745F710900000000003C175022691F
:104A3000227422421743176815FAFF00002316005C
:104A40000000003C173B1740173E17421743170062
:104A50000000003C1712198419341942177C190000
:00000001FF
