:100000000C94F3020C9412030C9412030C9412033C
:100010000C9412030C9412030C94410D0C941203D3
:100020000C9412030C9412030C9412030C941203FC
:100030000C9412030C9412030C9412030C941203EC
:100040000C9412030C9412030C9412030C941203DC
:100050000C9412030C9412030C9412030C941203CC
:100060000C9412030C94121D0C9412030C941203A2
:100070000C9412030C9412030C9412030C941203AC
:100080000C9412030C9412030C9412030C9412039C
:100090000C94651D0C9412030C9412030C9412031F
:1000A0000C9412030C9412030C9412030C9412037C
:1000B0000C9412030C9412030C9412030C94DC1F86
:1000C0000C9412030C9412030C941203841A8D1ACC
:1000D000901A931A861A861A961AA61AAD1AB41A84
:1000E000B81A8A1A4D45343035204C6162203120CF
:1000F0005374617274696E672050726F6772616DBC
:10010000004D45343035204C61622032204D6F6403
:1001100069666965642050726F6772616D00417035
:100120007220323620323031360053797374656D67
:100130002074696D653A20002C20486561703A2072
:10014000002C204F435235413A20002020723A20A3
:100150002020202052657475726E20746F204D61CE
:10016000696E204D656E75002020683A20202020A1
:100170002048656C702100202043746C2D433A2088
:10018000526573657420415652002020733A202036
:1001900020202046756C6C204272616B6500202027
:1001A000623A20202020204D6F746F72204252410D
:1001B0004B4520776974682050574D205B2D3235B0
:1001C000352C203235355D002020703A202020204B
:1001D000204D6F746F7220504F57455220776974CD
:1001E000682050574D205B2D3235352C2032353567
:1001F0005D002D2D2D2D2D2D2D2D2D2D2D2D2D2D2C
:100200002D204D4F544F52204D454E55202D2D2D14
:100210002D2D2D2D2D2D2D2D2D2D2D2D004D4534FC
:100220003035204C61622032204D6F64696669650B
:10023000642050726F6772616D002020683A202040
:1002400020202048656C702100202043746C2D43D1
:100250003A205265736574204156520020206D3A51
:1002600020202020204D6F746F722073656C6563B1
:100270007420616E6420506F7765722076616C75B2
:1002800065002020643A2020202020537461636B95
:100290002064756D7020666F72207461736B7300DB
:1002A0002020733A202020202056657273696F6EDB
:1002B0002F536574757020696E666F726D61746915
:1002C0006F6E002020743A202020202053686F7722
:1002D000207468652063757272656E742074696D30
:1002E00065002D2D2D2D2D2D2D2D2D2D2D2D2D2D33
:1002F0002D204D41494E204D454E55202D2D2D2D63
:100300002D2D2D2D2D2D2D2D2D2D2D004D45343008
:1003100035204C61622032204D6F646966696564E6
:100320002050726F6772616D00496C6C6567616C1B
:100330002073746174652120526573657474696EED
:10034000672041565200223A205754463F005265DA
:1003500073657474696E6720415652004D6F746FF7
:100360007220002048414C5445442100456E74657C
:1003700072206E756D62657220666F72204D6F74AB
:100380006F722000456E746572206E756D626572C5
:1003900020666F72204D6F746F7220003C696E761C
:1003A000616C69642063686172202200223E005003
:1003B0006C6561736520656E7465722061206E7571
:1003C0006D626572206265747765656E2030207499
:1003D0006F203235352E00506C6561736520656E77
:1003E0007465722061206E756D626572206265743D
:1003F0007765656E202D32353520746F20323535A6
:100400002E00506C6561736520656E7465722061A5
:100410002031206F72203220666F72206D6F746FF2
:10042000722073656C6563742E004E756D62657223
:1004300020456E74657265643A2000223A20575454
:10044000463F00526573657474696E672041565269
:1004500000456E746572206E756D62657220666F00
:1004600072206D6F746F722073656C656374696F51
:100470006E3A20004144435352413A200041444DDA
:1004800055583A200041444330203D200041444328
:1004900031203D200041444332203D20004144436F
:1004A00033203D200041444334203D20004144435B
:1004B00035203D200041444336203D200041444347
:1004C00037203D20004E6F207368617265642064A0
:1004D000617461206974656D7320746F2070726936
:1004E0006E74002D2D2D2D20202020202020202056
:1004F0002020202D2D2D2D202020202D2D2D2D2D87
:100500002D2D2D2D2D0053686172652F5175657548
:1005100065202020202054797065202020204672FC
:1005200065652F546F74616C004552524F522063C1
:1005300072656174696E67207461736B2022005468
:1005400061736B2022002220637265617465642CE4
:1005500020737461636B2061742030780054617380
:100560006B3A20005461736B3A2049444C45004972
:10057000444C45090930092D09002F0009092D00B7
:100580002D2D2D2D09092D2D2D2D092D2D2D2D2D07
:1005900000092D2D2D2D2D2D2D2D2D2D00092D2D2D
:1005A0002D2D004E616D6509095072692E09537435
:1005B0006174650009467265652F546F74616C0043
:1005C0000952756E73005461736B0909202009206C
:1005D0000009537461636B00090009002F000900D2
:1005E00009002020000011241FBECFEFD1E2DEBFA2
:1005F000CDBF13E0A0E0B2E0EAE9F1E500E00BBF17
:1006000002C007900D92A039B107D9F71BE1A0E90C
:10061000B3E001C01D92A435B107E1F70E947C252B
:100620000C94CB280C9400000F931F93CF93DF936F
:10063000EC010E94B9158DED92E099838883DF91DA
:10064000CF911F910F9108950F931F93CF93DF9335
:10065000EC0166E08E819F810E94771A6BE08E81AB
:100660009F810E94771A8C016CE073E00E94321A1D
:1006700066E0C8010E94771A66E08E819F810E9421
:10068000771A6BE08E819F810E94771A8C0162EE4F
:1006900072E00E94321A66E0C8010E94771A6BE08D
:1006A0008E819F810E94771A8C0163EC72E00E9418
:1006B000321A66E0C8010E94771A6BE08E819F8132
:1006C0000E94771A8C0160EA72E00E94321A66E09A
:1006D000C8010E94771A6BE08E819F810E94771A71
:1006E0008C0162E872E00E94321A66E0C8010E9442
:1006F000771A6BE08E819F810E94771A8C016CE5DE
:1007000072E00E94321A66E0C8010E94771A6BE01C
:100710008E819F810E94771A8C0169E472E00E94A9
:10072000321A66E0C8010E94771A6BE08E819F81C1
:100730000E94771A8C016AE372E00E94321A66E026
:10074000C8010E94771A66E08E819F81DF91CF9168
:100750001F910F910C94771A0F931F93CF93DF93F0
:10076000EC0166E08E819F810E94771A6BE08E819A
:100770009F810E94771A8C016DE172E00E94321A0B
:1007800066E0C8010E94771A66E08E819F810E9410
:10079000771A6BE08E819F810E94771A8C0162EF3D
:1007A00071E00E94321A66E0C8010E94771A6BE07D
:1007B0008E819F810E94771A8C0168EC71E00E9403
:1007C000321A66E0C8010E94771A6BE08E819F8121
:1007D0000E94771A8C016EE971E00E94321A66E07D
:1007E000C8010E94771A6BE08E819F810E94771A60
:1007F0008C016AE871E00E94321A66E0C8010E942A
:10080000771A6BE08E819F810E94771A8C0167E7CF
:1008100071E00E94321A66E0C8010E94771A6BE00C
:100820008E819F810E94771A8C0168E671E00E9498
:10083000321A66E0C8010E94771A6BE08E819F81B0
:100840000E94771A8C016BE471E00E94321A66E014
:10085000C8010E94771A66E08E819F81DF91CF9157
:100860001F910F910C94771A8F929F92AF92BF9223
:10087000CF92DF92EF92FF920F931F93CF93DF936C
:1008800000D000D000D0CDB7DEB78C0119821A821B
:100890001B821C821E821D82C0902801D0902901DB
:1008A0000E94340E5C01CE0101960E9463194C0136
:1008B00066E0F801868197810E94771A6BE00E94BA
:1008C000771A7C0161E071E00E94321A6BE0C70187
:1008D0000E94771A7C016EE171E00E94321A66E094
:1008E000C7010E94771A6BE00E94771A7C016AE2C6
:1008F00071E00E94321AB401C7010E9402196BE034
:100900000E94771A7C0168E371E00E94321AB501F7
:10091000C7010E94271B7C0162EC72E00E94321A20
:1009200048E357E160E070E0C7010E94611B6BE0A3
:100930000E94771A7C0161E471E00E94321AB601CC
:10094000C7010E94271B66E00E94771A66E00E949A
:10095000771AF801868197810E94B41766E0F80142
:10096000868197810E94771AF801868197810E947B
:10097000741526960FB6F894DEBF0FBECDBFDF917B
:10098000CF911F910F91FF90EF90DF90CF90BF908C
:10099000AF909F908F900895CF93DF93CDB7DEB740
:1009A00027970FB6F894DEBF0FBECDBF8C0119821A
:1009B0001A821B821C821E821D820FB6F8940F922F
:1009C000E0919C03F0919D0310860F900FBE0E9452
:1009D0002403C12CA12CD12CE12CF12CBB24B394E9
:1009E0005AE0452E512CD8011C968C91813079F11A
:1009F000813008F4A3C0823009F085C0D801169672
:100A00008D919C911797DC01ED91FC910480F5810B
:100A1000E02D0995811131C1D8011E964D915D914E
:100A20006D917C9151974F5F5F4F6F4F7F4FF801F2
:100A300046875787608B718B61E070E080E090E0C3
:100A40000E946A12D8011C968C91813089F6F801B7
:100A500086819781DC01ED91FC910480F581E02D88
:100A60000995882309F4AFC2F80186819781DC01DA
:100A7000ED91FC910680F781E02D0995482F80EDDE
:100A8000840F8A3008F47CC24D3209F4C6C24F3755
:100A900009F4A8C04A3009F49DC04D3019F04B311B
:100AA00009F0A2C066E0D80116968D919C91179727
:100AB0000E94771A6BE00E94771A4C016AE274E098
:100AC0000E94321AB701C4010E94BC1A66E00E945B
:100AD000771AD1101EC1C7010197029708F405C10A
:100AE0006BE0F801868197810E94771A7C0162E0B1
:100AF00074E0C7010E94321A66E0C7010E94771AAB
:100B0000E12CF12C89CF6BE0F801868197810E945E
:100B1000771A8C0169E273E00E94321A66E0C8011C
:100B20000E94771A2BE088E190E00FB6F894A89520
:100B3000809360000FBE20936000FFCFF801868194
:100B40009781DC01ED91FC910480F581E02D099500
:100B5000882309F461CFF80186819781DC01ED914A
:100B6000FC910680F781E02D0995282F883609F43D
:100B7000C1C20CF493C2833709F48CC2843709F4E0
:100B80007BC28D3609F457C2F80186809780D40164
:100B9000ED91FC910280F381E02D62E2C4012F838C
:100BA0000995D401ED91FC910280F381E02D2F8114
:100BB000622FC40109956BE0C4010E94771A4C01B1
:100BC0006BE374E0C4010E94321A66E0C4010E9423
:100BD000771A22CF64EC72E0F801868197810E9437
:100BE000321A1ACFC11021C06BE0F80186819781BB
:100BF0004F830E94771A7C016CE973E00E94321ADD
:100C0000D701ED91FC910280F381E02D4F81642F9B
:100C1000C70109956BE0C7010E94771A6CEA73E07F
:100C20000E94321AE12CF12CF7CEF80186819781CF
:100C3000DC01ED91FC910280F381E02D6FE70995D5
:100C4000F80186819781DC01ED91FC910280F381AE
:100C5000E02D60E20995F80186819781DC01ED9134
:100C6000FC910280F381E02D6FE70995C701B20185
:100C70000E94E0267B01CA94CFCEF801868197813D
:100C8000DC01ED91FC910680F781E02D0995282F7C
:100C9000883609F4C1CE0CF0B5C08F3309F4AEC06C
:100CA000823609F480C0833009F460C0F801868080
:100CB0009780D401ED91FC910280F381E02D62E2F6
:100CC000C4012F830995D401ED91FC910280F38139
:100CD000E02D2F81622FC40109956BE0C4010E94B1
:100CE000771A4C0166E473E06DCF0FB6F8940F925B
:100CF000E0919C03F0919D03E0860F900FBEC80128
:100D00000E94AC0362E0C8010E946F16E12CF12C36
:100D100083CEF1E0DF1609F4A7C0B2E0DB127CCE8F
:100D2000EFEFEE16F10411F008F0D5C00FB6F8940D
:100D30000F92E0919603F0919703F186E0860F9071
:100D40000FBE0FB6F8940F92E0919403F0919503C3
:100D5000B0860F900FBEC8010E94240360E0C80156
:100D60000E946F16D12CE12CF12C56CE6BE0D801ED
:100D700016968D919C9117970E94771A8C016EE4BC
:100D800073E00E94321A66E0C8010E94771A2BE0D5
:100D900088E190E00FB6F894A895809360000FBEAC
:100DA00020936000FFCF0FB6F8940F92E0919C0360
:100DB000F0919D03D0840F900FBE6BE0D801169682
:100DC0008D919C9117970E94771A4C016CE673E005
:100DD0000E94321A6D2DC4010E94EB1A4C016EEC78
:100DE00072E00E94321A66E0C4010E94771A61E044
:100DF000C8010E946F1682E0D82E0ECEC8010E9454
:100E0000AC030ACE823709F4A6C0833709F46FC059
:100E1000803709F04BCF0FB6F8940F92E0919C0306
:100E2000F0919D03D0840F900FBE6BE0F801868196
:100E300097810E94771A4C0164E873E00E94321A8D
:100E40006D2DC4010E94EB1A4C0166EC72E00E9409
:100E5000321A66E0C4010E94771A61E0C8010E945C
:100E60006F16DD24D394D8CD8FEFE816F10409F086
:100E700030F5AA2019F0F194E194F1080FB6F89436
:100E80000F92E0919A03F0919B03F186E0860F9018
:100E90000FBE0FB6F8940F92E0919803F09199036A
:100EA000B0860F900FBEC8010E94240360E0C80105
:100EB0000E946F16A12CD12CE12CF12CADCD6BE052
:100EC000D80116968D919C9117970E94771A7C01F4
:100ED00067ED73E00ECE6BE0D80116968D919C9174
:100EE00017970E94771A7C016FEA73E002CEE091B7
:100EF0009C03F0919D030FB6F8940F9280850F909C
:100F00000FBE813081F10FB6F8940F920F900FBE93
:100F1000823049F1782E0FB6F8940F920F900FBEE1
:100F20006BE0F801868197810E94771A4C016CE58D
:100F300073E00E94321A672DC4010E94EB1A6BE025
:100F40000E94771A4C0163E673E00E94321A66E051
:100F5000C4010E94771AC8010E94240360E0C801FE
:100F60000E946F1659CD0FB6F8940F92A09192037C
:100F7000B09193031896BC920F900FBE7084CBCFA4
:100F8000F80186819781DC01ED91FC910280F3816B
:100F9000E02D642F4F8309959701220F331FEE0C2C
:100FA000FF1CEE0CFF1CEE0CFF1C2E0D3F1D4F8195
:100FB000E42EFF24E7FCF094B0E3EB1AF108E20E14
:100FC000F31EC39429CD80919E0390919F03DC0171
:100FD000ED91FC910480F581E02D0995882309F4B9
:100FE0001BCDD8011696ED91FC9117970190F081D9
:100FF000E02D8280938080919E0390919F03DC017D
:10100000ED91FC910680F781E02D0995682FF8019C
:1010100086819781F4010995FFCCF801868197813B
:10102000DC01ED91FC910280F381E02D6DE20995E8
:10103000AA24A394F1CC6BE0F801868197810E94E9
:10104000771A7C0161E574E00E94321A66E0C701FC
:101050000E94771A0FB6F8940F92E0919C03F091DA
:101060009D0310860F900FBE61E0C8010E946F16AD
:10107000D12CE12CF12CD0CCCE0101960E94631929
:10108000BC01F801868197810E94021966E00E94E6
:10109000771AC2CCC8010E943404BECC8F3351F100
:1010A000843601F1833009F06FCD6BE0D8011696DC
:1010B0008D919C9117970E94771A8C0163E474E0DC
:1010C0000E94321A66E0C8010E94771A2BE088E17C
:1010D00090E00FB6F894A895809360000FBE20931F
:1010E0006000FFCFD80116968D919C9117970E94B2
:1010F000CE1692CCC8010E9424038ECCCF93DF93EE
:1011000000D000D0CDB7DEB78C010E946310698398
:101110007A838B839C8382E090E00E94FB197C01A0
:10112000F801668177810E94CF0880E18DB981E363
:10113000809390008BE08093910060E0C7010E9453
:10114000E908969587959695879590939B0080934F
:101150009A00F80146855785608971894F5F5F4F16
:101160006F4F7F4F46875787608B718B44E650E007
:1011700060E070E0CE0101960E940312DECF0F9373
:101180001F93CF93DF93EC010E94B91585EE92E097
:1011900099838883DF91CF911F910F910895FC016E
:1011A00071836083EAE7F0E08081806880838081DA
:1011B0008160808380818D7F808380818460808353
:1011C000ECE7F0E080818064808380818F7780838A
:1011D000089580917C00887F80937C0080917C00C2
:1011E0006770682B60937C0080917A0080648093A4
:1011F0007A0080917A0086FDFCCF809178009091F2
:1012000079000895403430F1ECE3F0E04CE367708E
:1012100080E090E020917C00287F20937C0020914A
:101220007C00262B20937C0020917A002064209360
:101230007A0020917A0026FDFCCF20917800309131
:101240007900820F931F415029F7BF010E94CC26DD
:10125000CB010895442319F0E42FF0E0D8CFE0E06B
:10126000F0E080E090E0BF010E94CC26CB01089521
:101270002F923F924F925F926F927F928F929F92A6
:10128000AF92BF92CF92DF92EF92FF920F931F9394
:10129000CF93DF9300D000D000D0CDB7DEB79E83D0
:1012A0008D8380917C00887F80937C0080917C007E
:1012B000876080937C0080917A00806480937A00BC
:1012C00080917A0086FDFCCF2091780030917900E2
:1012D00080917C00887F80937C0080917C00866078
:1012E00080937C0080917A00806480937A00809162
:1012F0007A0086FDFCCF20907800309079008091B4
:101300007C00887F80937C0080917C008560809346
:101310007C0080917A00806480937A0080917A00CA
:1013200086FDFCCF409078005090790080917C0041
:10133000887F80937C0080917C00846080937C0017
:1013400080917A00806480937A0080917A0086FD93
:10135000FCCF009178001091790080917C00887F0B
:1013600080937C0080917C00836080937C008091DE
:101370007A00806480937A0080917A0086FDFCCFA9
:10138000E0907800F090790080917C00887F8093D5
:101390007C0080917C00826080937C0080917A0048
:1013A000806480937A0080917A0086FDFCCFC090A3
:1013B0007800D090790080917C00887F80937C00B9
:1013C00080917C00816080937C0080917A008064B1
:1013D00080937A0080917A0086FDFCCFA0907800FF
:1013E000B090790080917C00887F80937C00809110
:1013F0007C0080937C0080917A00806480937A00E6
:1014000080917A0086FDFCCF8090780090907900E2
:1014100040917C0050917A006BE08D819E812B83FE
:101420003C834A8359830E94771A3C0164E774E045
:101430000E94321A5981652FC3010E94A91B66E0E0
:101440000E94771A6BE00E94771A3C016DE774E006
:101450000E94321A4A81642FC3010E94A91B66E0D0
:101460000E94771A6BE00E94771A3C0165E874E0ED
:101470000E94321AB401C3010E94271B66E00E9439
:10148000771A6BE00E94771A4C016DE874E00E94B5
:10149000321AB501C4010E94271B66E00E94771A28
:1014A0006BE00E94771A5C0165E974E00E94321AD1
:1014B000B601C5010E94271B66E00E94771A6BE007
:1014C0000E94771A6C016DE974E00E94321AB7012C
:1014D000C6010E94271B66E00E94771A6BE00E94FB
:1014E000771A7C0165EA74E00E94321AB801C701DC
:1014F0000E94271B66E00E94771A6BE00E94771A11
:101500008C016DEA74E00E94321AB201C8010E9497
:10151000271B66E00E94771A6BE00E94771A8C0105
:1015200065EB74E00E94321AB101C8010E94271BCA
:1015300066E00E94771A6BE00E94771A8C016DEBCF
:1015400074E00E94321A2B813C81B901C8010E94CB
:10155000271B66E00E94771A8D819E8126960FB622
:10156000F894DEBF0FBECDBFDF91CF911F910F91D9
:10157000FF90EF90DF90CF90BF90AF909F908F90B3
:101580007F906F905F904F903F902F900895CF93F2
:10159000DF93FC0171836083428380918000816AC4
:1015A00080938000809180008093800080918100F2
:1015B0008A60809381008091810080938100828184
:1015C000813089F08230B9F0C081D181209781F0DB
:1015D00069EE72E0CE010E94321A66E0CE01DF9120
:1015E000CF910C94771A87B1876087B9329A269A7F
:1015F000DF91CF9108958AB1806E8AB94F9A259A6A
:10160000DF91CF910895FC012281213071F02230C9
:1016100009F0089577FD18C08BB18BB95E985D9A7B
:101620007093890060938800089528B128B977FDE8
:1016300013C04198409A70938B0060938A00FC011C
:101640008281823049F308958BB18BB95E9A5D989F
:10165000719561957109E4CF419A409871956195B2
:101660007109E9CFFC012281213039F0223009F0E3
:1016700008958BB180668BB9089528B1236028B98D
:101680002281F4CFFC012281213059F0223009F06F
:1016900008958BB18BB970E07093890060938800D6
:1016A000089528B128B9262F30E030938B0020937D
:1016B0008A002281EBCFEC0183E090E00E94FB19CD
:1016C0008C016E817F8141E00E94C70A83E090E037
:1016D0000E94FB197C016E817F8142E00E94C70A53
:1016E000E0919803F0919903DF010FB6F8940F92FF
:1016F00010860F900FBE80E029C0A0919403B09196
:1017000095030FB6F8940F920F900FBE18968C9118
:101710001897813009F469C02091920330919303A6
:101720000FB6F8940F920F900FBEE90188858130B3
:1017300009F430C064E670E080E090E00E946A1234
:10174000E0919803F0919903DF0180850FB6F8943A
:101750000F920F900FBE813081F60FB6F8940F9262
:10176000C0919C03D0919D0388850F900FBE81305E
:1017700009F46FC00FB6F8940F920F900FBE82302D
:1017800009F4B7C00FB6F8940F9218961C920F90F8
:101790000FBEB3CF0FB6F8940F9280919C03909137
:1017A0009D03EC0188850F900FBE813009F441C084
:1017B0000FB6F8940F920F900FBE823009F489C0D3
:1017C000E9010FB6F8940F9210860F900FBE0FB676
:1017D000F8940F9218961C920F900FBE0FB6F894C3
:1017E0000F9218860F900FBEA5CF0FB6F8940F92E8
:1017F000C0919C03D0919D0388850F900FBE8130CE
:1018000009F43BC00FB6F8940F920F900FBE8230D0
:1018100009F449C00FB6F8940F9210860F900FBECE
:101820000FB6F8940F9218961C9218970F900FBE4F
:1018300073CFC8010E94320BC0919203D0919303E1
:10184000E0919803F0919903A0919403B0919503CE
:10185000B8CF0FB6F8940F920F900FBEE0919A0395
:10186000F0919B0360857185C8010E94030BE09194
:101870009803F0919903DF0185CF0FB6F8940F928A
:101880000F900FBEE0919603F09197036085C80119
:101890000E94420BA0919403B0919503E0919803AC
:1018A000F0919903B7CF0FB6F8940F920F900FBE37
:1018B000E0919603F09197036085C7010E94420B67
:1018C000A0919403B0919503E0919803F09199034E
:1018D000A1CFC7010E94320BC0919203D091930314
:1018E000E0919803F0919903A0919403B09195032E
:1018F00068CF0FB6F8940F920F900FBEE0919A0345
:10190000F0919B0360857185C7010E94030BE091F4
:101910009803F0919903DF0135CF0F931F93CF9375
:10192000DF93EC010E94B9158EE193E099838883DF
:10193000DF91CF911F910F910895CF93DF931F9265
:10194000CDB7DEB78C0182E090E00E94FB19F80170
:101950006681778145E00E94D80CE0919003F09178
:1019600091030FB6F8940F92808589830F900FBE74
:101970006981F801868197810E94A91B66E00E9417
:10198000771A68EE73E080E090E00E946A12E5CF7B
:101990000F931F93CF93DF93EC010E94B91586E25A
:1019A00093E099838883DF91CF911F910F910895E0
:1019B000CF93DF93FC0171836083E0919003F091FA
:1019C00091030FB6F8940F9210860F900FBE3FB799
:1019D00030683FBF2CEF240F243098F1443088F05A
:1019E000FC01C081D181209749F06AE273E0CE0109
:1019F0000E94321A66E0CE010E94771ADF91CF91E1
:101A000008952091690061E070E0CB01042E01C0CF
:101A1000880F0A94EAF7982F909592239093690083
:101A2000909169004150042E01C0660F0A94EAF7B4
:101A3000962B909369009DB3982B9DBBDF91CF911E
:101A4000089550916A0021E030E0C901042E01C0E0
:101A5000880F0A94EAF7982F9095952390936A003F
:101A600090916A004150042E01C0220F0A94EAF7B7
:101A7000922B90936A009DB3982B9DBBDF91CF91E1
:101A800008951F920F920FB60F9211240BB60F926A
:101A90008F93EF93FF93CF93DF931F92CDB7DEB772
:101AA000E0919003F09191030FB6F8940F92808526
:101AB00089830F900FBE89818F5F0FB6F8940F92C4
:101AC00080870F900FBE0F90DF91CF91FF91EF9124
:101AD0008F910F900BBE0F900FBE0F901F90189517
:101AE0000F931F93CF93DF93EC010E945D108091C1
:101AF000A003811121C08AEA93E09093A60380930A
:101B0000A5031092A8031092A70387E397E190938F
:101B1000A4038093A3031092A2031092A1039093B5
:101B2000AD038093AC0381EA93E09093AB03809381
:101B3000AA0381E08093A003209709F460C0AE015E
:101B40004C5F5F4F2396C633D74108F058C0E091F1
:101B5000A503F091A603A5EAB3E006C080819181B8
:101B6000009739F0DF01FC0122813381241735070A
:101B7000A8F3C3E0E13AFC0709F441C00D911C91C0
:101B800011970C5F1F4F808191818D939C93C901A8
:101B9000841B950B8930910500F1BF01640F751FFF
:101BA000DB0113969C938E93129753834283129674
:101BB0008D919C911397A5EAB3E001C0DF01ED91EF
:101BC000FC9111972281338128173907B8F3EB0173
:101BD000F983E8836D937C939A0180910002909140
:101BE0000102821B930B90930102809300020E94DA
:101BF0009011C801DF91CF911F910F91089500E0DE
:101C000010E00E949011C801DF91CF911F910F91B8
:101C10000895CF93DF93009721F1EC0124970E9460
:101C20005D104A815B81A5EAB3E001C0DF01ED915F
:101C3000FC9111972281338124173507B8F3F9837A
:101C4000E883CD93DC938091000290910102840F90
:101C5000951F9093010280930002DF91CF910C9425
:101C60009011DF91CF91089580910002909101022F
:101C7000089508958091161B823018F00E94271F46
:101C8000F9CFFFCFCF92DF92EF92FF926B017C01F1
:101C9000E091E11AF091E21A628373838483958361
:101CA0008091EA1A9091EB1AA091EC1AB091ED1A7A
:101CB0006091E11A7091E21AC816D906EA06FB068D
:101CC00010F18091FE1A9091FF1A6E5F7F4F0E9473
:101CD000EE1D8091020290910302A0910402B09146
:101CE0000502C816D906EA06FB0640F4C0920202B5
:101CF000D0920302E0920402F0920502FF90EF906E
:101D0000DF90CF9008958091FC1A9091FD1A6E5F3C
:101D10007F4FFF90EF90DF90CF900C94EE1D5F927D
:101D20006F927F928F929F92AF92BF92CF92DF92EB
:101D3000EF92FF920F931F93CF93DF934C01162FD7
:101D4000572E5A01390189E290E00E94700DEC0192
:101D5000009709F4E9C0C114D10409F4DAC0DC8E9B
:101D6000CB8EC601A50165EA70E00E94492821E0FA
:101D7000A21AB108CB8CDC8CCA0CDB1CAE01435E12
:101D80005F4FE12FF52D2AE0CF013191DA013D932C
:101D9000AD01DC018C91882311F02150A9F71EA21E
:101DA000102F043008F07DC01A8F1FA318A65E0103
:101DB000B2E0AB0EB11CC5010E94C91DCE010E964A
:101DC0000E94C91DDB87CA8784E090E0A0E0B0E0F4
:101DD000811B9109A109B1098E879F87A88BB98BB7
:101DE000DF8BCE8BA301B401C6010E94571E9983DD
:101DF0008883E114F10419F0F701D183C0830FB691
:101E0000F8940F928091EE1A8F5F8093EE1A809172
:101E1000E11A9091E21A892B09F449C08091E81ADD
:101E200081110BC0E091E11AF091E21A828D08173E
:101E300020F0D093E21AC093E11A8091E41A8F5FE8
:101E40008093E41A8A8D9091E91A981738F1FBE093
:101E50008F9FC0011124B5018A5E944E0E94CD1D52
:101E60000F900FBE8091E81A882339F0E091E11AB3
:101E7000F091E21A828D8017B0F081E0DF91CF916E
:101E80001F910F91FF90EF90DF90CF90BF90AF9098
:101E90009F908F907F906F905F9008958093E91A44
:101EA000D6CF13E081CF0E94271F81E0E7CFD093E8
:101EB000E21AC093E11A8091EE1A813009F0BDCF89
:101EC00086E19BE10E94B81D81E29BE10E94B81D62
:101ED0008CE29BE10E94B81D87E39BE10E94B81D44
:101EE0008BE09BE10E94B81D80E09BE10E94B81D41
:101EF00081EF9AE10E94B81D8BE09BE19093FF1A5D
:101F00008093FE1A80E09BE19093FD1A8093FC1A67
:101F100094CFC5010E94700D9C8F8B8F009709F0A4
:101F200021CFCE010E94090E8FEFA8CF0FB6F894F3
:101F30000F92009729F00F900FBEFC01828D08953B
:101F40008091E11A9091E21A0F900FBEFC01828DF0
:101F50000895EF92FF921F93CF93DF93EC01262F0A
:101F6000643008F023E00FB6F8940F92209709F43C
:101F70004AC03FA13217A9F18091E11A9091E21A6B
:101F80003217B8F5C817D90741F0E091E11AF0917E
:101F9000E21A11E0828D281708F410E08A8D3817B4
:101FA00069F12FA34E855F856889798977FD0CC01B
:101FB00044E050E060E070E0421B510961097109A2
:101FC0004E875F87688B798B2BE0829FC00111243D
:101FD0008A5E944E2C853D8528173907C9F011304B
:101FE00079F00F900FBEDF91CF911F91FF90EF908E
:101FF000089511E0C817D90781F6D0CF2A8FD1CF25
:102000000E94271FEECFC091E11AD091E21AB1CF02
:102010007E0182E0E80EF11CC7010E942B1E8A8D12
:102020009091E91A981710F48093E91A2BE0829F97
:10203000C0011124B7018A5E944E0E94CD1DCFCFFE
:10204000AF92BF92CF92DF92EF92FF920F93A12CAB
:10205000B12CC12CD12C8FEEE82E8AE1F82E00E0B5
:1020600020E030E044E650E06DE373E08AE39EE078
:102070000E948F0E813041F00F91FF90EF90DF9022
:10208000CF90BF90AF900895F8948093E81A109283
:10209000EA1A1092EB1A1092EC1A1092ED1A0F91A4
:1020A000FF90EF90DF90CF90BF90AF900C94EB1E1D
:1020B000F8941092E81A0C94261F8091E31A8F5F0F
:1020C0008093E31A08950FB6F8940F926091EA1A7C
:1020D0007091EB1A8091EC1A9091ED1A0F900FBE4F
:1020E00008956091EA1A7091EB1A8091EC1A909120
:1020F000ED1A08958091EE1A0895009711F04D960B
:1021000008958091E11A9091E21A4D960895809178
:10211000EF1A9091F01A0895AF92BF92CF92DF928A
:10212000EF92FF920F931F93CF93DF938091E31A67
:102130008111CFC08091EA1A9091EB1AA091EC1A0C
:10214000B091ED1A0196A11DB11D8093EA1A9093EA
:10215000EB1AA093EC1AB093ED1AC090EA1AD09043
:10216000EB1AE090EC1AF090ED1AC114D104E104DE
:10217000F10439F58091FE1A9091FF1A2091FC1A12
:102180003091FD1A3093FF1A2093FE1A9093FD1A96
:102190008093FC1A8091E51A8F5F8093E51AE09195
:1021A000FE1AF091FF1A808181119AC08FEF9FEF84
:1021B000DC018093020290930302A0930402B09387
:1021C00005028091020290910302A0910402B09155
:1021D0000502B12CC816D906EA06FB0608F457C05A
:1021E0009BE0A92EE091FE1AF091FF1A80818823CE
:1021F00009F442C0E091FE1AF091FF1A0780F085C1
:10220000E02DC085D1854A815B816C817D81C416BA
:10221000D506E606F70608F47AC08E010E5F1F4F5A
:10222000C8010E942B1E888D998D892B21F0CE012B
:102230000E960E942B1E8A8D9091E91A981710F421
:102240008093E91AA89EC0011124B8018A5E944EB9
:102250000E94CD1DE091E11AF091E21A9A8D828DD3
:10226000981708F4BFCFBB24B394E091FE1AF09105
:10227000FF1A80818111BECF4FEF5FEFBA0140930B
:102280000202509303026093040270930502E091EE
:10229000E11AF091E21AE28D8BE0E89FF00111243F
:1022A000EA5EF44E8081823010F0BB24B3948091BA
:1022B000E61A882311F0BB24B3948B2DDF91CF91C4
:1022C0001F910F91FF90EF90DF90CF90BF90AF9054
:1022D00008958091E71A8F5F8093E71AB12CE7CFBA
:1022E000E091FE1AF091FF1A0780F085E02D00843E
:1022F000F185E02D82819381A481B58180930202D2
:1023000090930302A0930402B09305025ACF409326
:102310000202509303026093040270930502B7CF48
:10232000EF92FF920F931F93CF93DF930FB6F89422
:102330000F928091E31A81508093E31A8091E31AFF
:10234000811150C08091EE1A882309F44BC02BE014
:10235000F22EEE24E39427C0E091F81AF091F91AD6
:10236000C085D185CE010E960E942B1E8E010E5F78
:102370001F4FC8010E942B1E8A8D9091E91A981751
:1023800010F48093E91AF89EC0011124B8018A5E06
:10239000944E0E94CD1DE091E11AF091E21A9A8DBF
:1023A000828D981748F58091F11A8111D5CF8091CF
:1023B000E71A882399F08091E71A882379F0C1E021
:1023C0000E948C108111C093E61A8091E71A815007
:1023D0008093E71A8091E71A8111F2CF8091E61A73
:1023E000813069F080E00F900FBEDF91CF911F9197
:1023F0000F91FF90EF900895E092E61AD4CF0E94DB
:10240000271F81E0F0CFCF92DF92EF92FF920F93E0
:102410001F93CF93DF9300D000D0CDB7DEB72091CC
:10242000E31A2F5F2093E31AC090EA1AD090EB1AB8
:10243000E090EC1AF090ED1AFC01008111812281EC
:102440003381400F511F621F731FC016D106E20671
:10245000F306E8F44017510762077307E8F0FC0140
:1024600040835183628373830E949011811102C063
:102470000E94271F0F900F900F900F90DF91CF9128
:102480001F910F91FF90EF90DF90CF90089540172C
:1024900051076207730728F0C416D506E606F7064B
:1024A000F0F6FC0140835183628373838091E11ACB
:1024B0009091E21A029649835A836B837C830E942F
:1024C0002B1E49815A816B817C81CB01BA010E940C
:1024D000420ECACFCF92DF92EF92FF926115710543
:1024E0008105910539F40E94271FFF90EF90DF903E
:1024F000CF9008952091E31A2F5F2093E31AC090A4
:10250000EA1AD090EB1AE090EC1AF090ED1AC60E91
:10251000D71EE81EF91E8091E11A9091E21A0296E8
:102520000E942B1EC701B6010E94420E0E9490110C
:102530008823C9F2FF90EF90DF90CF9008958091AB
:10254000E31A81113BC01092E61AE091E91A8BE080
:10255000E89FF0011124EA5EF44E8081811110C0E1
:102560009BE08091E91A81508093E91AE091E91A81
:102570009E9FF0011124EA5EF44E8081882389F346
:10258000E091E91A8BE0E89FF0011124EA5EF44E35
:10259000A181B28114960D90BC91A02DB283A1832C
:1025A000CF010396A817B90769F018968D919C91F1
:1025B00019979093E21A8093E11A089581E080932D
:1025C000E61A089514969C91149715968C91918310
:1025D0008283A92FB82FE9CFCF92DF92EF92FF929B
:1025E0006A017B016091E11A7091E21A625F7F4F8C
:1025F0000E94EE1D8091E11A9091E21A02960E94CB
:102600002B1E6091EA1A7091EB1A8091EC1A90914E
:10261000ED1A6C0D7D1D8E1D9F1DFF90EF90DF90BC
:10262000CF900C94420ECF92DF92EF92FF920F93D5
:102630001F9368017901E091E11AF091E21A706844
:1026400046875787608B718B6091E11A7091E21A0F
:10265000625F7F4F0E94CD1D8091E11A9091E21A36
:1026600002960E942B1E6091EA1A7091EB1A8091DB
:10267000EC1A9091ED1A6C0D7D1D8E1D9F1D1F9102
:102680000F91FF90EF90DF90CF900C94420E0F933C
:102690001F93CF93DF93DC011796ED91FC91189770
:1026A000C085D1858E01025F1F4FC8010E942B1E7D
:1026B0008091E31A811124C08E010E5F1F4FC80163
:1026C0000E942B1E8A8D9091E91A9817F8F0BBE0B2
:1026D0008B9FC0011124B8018A5E944E0E94CD1DCB
:1026E000E091E11AF091E21A9A8D828D891788F4AF
:1026F00081E08093E61ADF91CF911F910F910895A9
:10270000B80181EF9AE10E94CD1DEACF8093E91ACA
:10271000DECF80E0DF91CF911F910F9108950F934D
:102720001F93CF93DF937068FC01408351836283D2
:102730007383C085D1850E942B1E8E010E5F1F4FB3
:10274000C8010E942B1E8A8D9091E91A981710F4E7
:102750008093E91AFBE08F9FC0011124B8018A5EC3
:10276000944E0E94CD1DE091E11AF091E21A9A8DEB
:10277000828D891740F481E08093E61ADF91CF9132
:102780001F910F91089580E0DF91CF911F910F91DC
:1027900008952091E51AFC0120834091EA1A509196
:1027A000EB1A6091EC1A7091ED1A418352836383A6
:1027B000748308958F929F92AF92BF92CF92DF92CF
:1027C000EF92FF920F931F93FC01DB010FB6F89479
:1027D0000F924091EA1A5091EB1A6091EC1A7091A5
:1027E000ED1A8091E51A9081018112812381348153
:1027F000981729F0401751076207730770F5CD90BD
:10280000DD90ED90FC9013974A015B01801A910ACC
:10281000A20AB30A8C149D04AE04BF04F0F4C41AD7
:10282000D50AE60AF70AC00ED11EE21EF31ECD92AB
:10283000DD92ED92FC9213978091E51A808380914E
:10284000EA1A9091EB1AA091EC1AB091ED1A8183DB
:102850009283A383B48380E001C081E00F900FBE18
:102860001F910F91FF90EF90DF90CF90BF90AF90AE
:102870009F908F90089581E08093E61A08950097C5
:1028800099F0DC015B96ED91FC915C978081853A33
:1028900081F4319680E090E0DC010196A11DB11D2C
:1028A0002191253AD1F308958091E11A9091E21A8D
:1028B000E8CF80E008958091E11A9091E21A08959E
:1028C0000F931F93CF93DF93EC01009781F18A8DD3
:1028D000E091E11AF091E21A928D891740F54E8548
:1028E0005F856889798977FD11C0E091E11AF091DF
:1028F000E21A928D44E050E060E070E0491B51091B
:10290000610971094E875F87688B798B2BE0829F05
:10291000C00111248A5E944E2C853D852817390705
:1029200059F0E091E11AF091E21A828D8A8FDF91DD
:10293000CF911F910F9108958E010E5F1F4FC80117
:102940000E942B1EE091E11AF091E21A828D8A8F8B
:102950009091E91A981710F48093E91A2BE0829F5E
:10296000C0011124B8018A5E944EDF91CF911F916E
:102970000F910C94CD1D0F931F93CF93DF93EC0118
:10298000009749F088A5815088A72A8D9FA1291713
:1029900011F0882331F080E0DF91CF911F910F91EA
:1029A00008958E010E5F1F4FC8010E942B1E8FA13C
:1029B0008A8F44E050E060E070E0481B51096109F3
:1029C00071094E875F87688B798B9091E91A981708
:1029D00010F48093E91A2BE0829FC0011124B80102
:1029E0008A5E944E0E94CD1D81E0DF91CF911F91B0
:1029F0000F910895CF92DF92EF92FF92E091E11A4A
:102A0000F091E21A6685778580899189E091E11AD3
:102A1000F091E21AA091E11AB091E21A5A962C9123
:102A200034E0C32ED12CE12CF12CC21AD108E108DC
:102A3000F108C686D786E08AF18AFF90EF90DF9092
:102A4000CF9008958091E11A9091E21A892B39F084
:102A5000E091E11AF091E21A80A58F5F80A7809142
:102A6000E11A9091E21A0895EF92FF920F931F934B
:102A7000CF93DF9300D0CDB7DEB77C0186E493E03F
:102A8000F7019183808361157105C1F0FB0101900D
:102A90000020E9F73197E61BED3020F50E2F10E00E
:102AA000C801019669837A830E94021AF70195830F
:102AB0008483A80169817A810E9450288091421BF9
:102AC0009091431BF70197838683F092431BE0921A
:102AD000421B0F900F90DF91CF911F910F91FF90AC
:102AE000EF900895ECE0DACF0F931F93CF93DF932D
:102AF000EC018091421B9091431B6BE0892B49F1C3
:102B0000CE010E94771A8C0166E075E00E94321AAD
:102B100066E0C8010E94771A6BE0CE010E94771A26
:102B20008C0163EE74E00E94321A66E0C8010E94D4
:102B3000771A8091421B9091431BDC01ED91FC912F
:102B40000190F081E02DBE01DF91CF911F910F9197
:102B50000994CE010E94771AEC0165EC74E00E94A2
:102B6000321A66E0CE01DF91CF911F910F910C9444
:102B7000771A4F925F926F927F928F929F92AF924D
:102B8000BF92CF92DF92EF92FF920F931F93CF935A
:102B9000DF93EC013B0149012801FC018CE493E047
:102BA00081939193A12CB12CC12CD12C7F01042FA6
:102BB0009E01A4018FE696E20E948F0E5F824E82F4
:102BC000998688862091441B3091451B3D832C8338
:102BD000D093451BC093441B1C861D868090521BBE
:102BE0009090531B9FEF891A990A9092531B8092E1
:102BF000521B9B868A861E861F86188A198A411454
:102C0000510409F44CC06BE0813041F1C2010E94D3
:102C1000771AEC0169E275E00E94321AB301CE0125
:102C20000E94321AE881F9810280F381E02D62E28C
:102C3000CE01099566E0CE01DF91CF911F910F91F2
:102C4000FF90EF90DF90CF90BF90AF909F908F90CC
:102C50007F906F905F904F900C94771AC2010E9402
:102C6000771AEC016FE375E00E94321AB301CE01CE
:102C70000E94321A6BE0CE010E94771AEC0166E4E2
:102C800075E00E94321A63E0CE010E94771AB40107
:102C90000E94271B62E00E94771A66E0CDCFDF9189
:102CA000CF911F910F91FF90EF90DF90CF90BF9049
:102CB000AF909F908F907F906F905F904F9008950E
:102CC000EC01E881F9810190F081E02D09951B82EA
:102CD0001A826FEF7FEFCB010E946A12FACFFC01DC
:102CE000648765870895FC01C681D781209739F0F4
:102CF000CE010E94321A66E0CE010E94771A2BE0C4
:102D000088E190E00FB6F894A895809360000FBE1C
:102D100020936000FFCF0E9463100E94B22720E042
:102D200030E04AE754E40E944A270895CF92DF92A8
:102D3000EF92FF920F931F93CF93DF93EC017B01F0
:102D40008A819B810E947D106C016BE0C7010E940B
:102D5000771A8C016DE575E00E94321AB601C80140
:102D60000E94321A66E0C8010E94771A8A859B8504
:102D700028853985A701BC01821B930B0E947B1912
:102D80000C80DD81C02D2097D9F6DF91CF911F9166
:102D90000F91FF90EF90DF90CF9008950F931F93C6
:102DA000CF93DF93EC018091441B9091451B0097DA
:102DB00019F0BE010E9496166BE0CE010E94771AB0
:102DC0008C0164E675E00E94321A66E0C8010E9438
:102DD000771A8091521B9091531BBC016F5F7F4FFC
:102DE000AE0183569109DF91CF911F910F910C9401
:102DF0007B198F929F92AF92BF92CF92DF92EF9208
:102E0000FF920F931F93CF93DF93EC018B018A8185
:102E10009B810E947D10BC01C8010E94321AD8011A
:102E2000ED91FC910280F381E02D69E0C8010995E4
:102E30008A819B810E947D10FC0101900020E9F7AE
:102E40003197E81BF90B389748F4D801ED91FC91C4
:102E50000280F381E02D69E0C8010995CE84DF840A
:102E6000E888F988A884B9848A819B810E943F14EC
:102E7000982E8C848A819B810E94960F682FC801AE
:102E80000E94A91B6BE00E94771AEC0168ED75E0C7
:102E90000E94321A682DCE010E94A91B6BE00E948D
:102EA000771AEC016AED75E00E94321A692DCE01A5
:102EB0000E94A91B6BE00E94771AEC016CED75E093
:102EC0000E94321AB501CE010E94271B6BE00E94BE
:102ED000771AEC016EED75E00E94321A6BE0CE01BC
:102EE0000E94771AEC0160EE75E00E94321AB70179
:102EF000A601CE01DF91CF911F910F91FF90EF902E
:102F0000DF90CF90BF90AF909F908F900C94611BFB
:102F10000F931F93CF93DF93EC018B01E881F9812D
:102F20000280F381E02DB801CE01099566E0C80169
:102F30000E94771A0C80DD81C02D209779F7DF91F0
:102F4000CF911F910F910895CF93DF93EC01CB01A7
:102F5000DB01ED91FC910280F381E02DBE0109952A
:102F6000CE01DF91CF9108950F931F93CF93DF93FD
:102F7000EC016BE00E94771A8C0166EC75E00E9410
:102F8000321A6BE0C8010E94771A8C0161ED75E07E
:102F90000E94321A66E0C8010E94771A6BE0CE01E7
:102FA0000E94771A8C0163EA75E00E94321A6BE086
:102FB000C8010E94771A8C0164EB75E00E94321AF6
:102FC0006BE0C8010E94771A8C0160EC75E00E94EA
:102FD000321A66E0C8010E94771A6BE0CE010E94A7
:102FE000771A8C0160E875E00E94321A6BE0C80124
:102FF0000E94771A8C0161E975E00E94321A6BE039
:10300000C8010E94771A8C016DE975E00E94321A9E
:1030100066E0C8010E94771A8091441B9091451B7D
:10302000009719F0BE010E9488170E9487100E9425
:103030003F14182F6BE0CE010E94771AEC016FE667
:1030400075E00E94321A612FCE010E94A91B6BE02D
:103050000E94771AEC016AE775E00E94321A64E672
:1030600070E0CE010E94271B6BE00E94771AEC01F2
:103070006CE775E00E94321A66E0CE01DF91CF91D5
:103080001F910F910C94771ACF92DF92EF92FF92DB
:103090000F931F93CF93DF937C018B01DC011A9672
:1030A0006D917C911B97C8010E94321AF701A2858D
:1030B000B385FD0101900020E9F73197DE2EDA1A81
:1030C000FFE0FD1580F0C0E0D0E0D801ED91FC916B
:1030D0000280F381E02D60E2C801099521968C2FD2
:1030E0008D0D803190F360E573E0C8010E94321AC3
:1030F000D7015696CD90DC9057971E968D919C9156
:103100001F970E948023682FC8010E94A91BEC0111
:10311000E881F9810280F381E02D6FE20995B60123
:10312000CE010E94271BDC01ED91FC910280F3810E
:10313000E02D69E0099566E0C8010E94771AF70161
:1031400084859585009781F0DC01ED91FC910190DB
:10315000F081E02DB801DF91CF911F910F91FF9089
:10316000EF90DF90CF900994DF91CF911F910F9155
:10317000FF90EF90DF90CF9008956F927F928F92A3
:103180009F92AF92BF92CF92DF92EF92FF920F93F6
:103190001F93CF93DF93EC01762E672E4A015901DE
:1031A000670178010E94271AB401CE0106960E9499
:1031B00034158BE593E0998388832DE633E03F83D4
:1031C0002E83BD8AAC8A40E061E0872D0E94F12009
:1031D0009F878E87C88AD98AEA8AFB8A7E8A6F8A05
:1031E000DF91CF911F910F91FF90EF90DF90CF90E3
:1031F000BF90AF909F908F907F906F9008950697AB
:103200000C944418CF92DF92EF92FF920F931F938A
:10321000CF93DF93CDB7DEB72F970FB6F894DEBF0D
:103220000FBECDBF8C017B01DB016D917D918D9136
:103230009C9128EE33E040E050E00E94F426BA0171
:10324000A901C8010E94611BD801ED91FC91028087
:10325000F381E02D6EE2C8010995C7010E94A92300
:103260006E01B9E0CB0ED11C7E01EFE0EE0EF11C39
:103270002AE030E040E050E00E941627E62F298344
:103280003A834B835C8369817A818B819C81E05D89
:10329000D701EE937D01AC15BD0551F71F86BD0129
:1032A000C8010E94321AC8012F960FB6F894DEBFEB
:1032B0000FBECDBFDF91CF911F910F91FF90EF9087
:1032C000DF90CF900895CF93DF93EC010FB6F89481
:1032D0000F9280912401909125019D838C830E94FF
:1032E0006310688379838A839B830F900FBECE011E
:1032F000DF91CF9108958F929F92AF92BF92CF921C
:10330000DF92EF92FF920F931F93CF93DF936C01A5
:103310004B01EA0163E0CA010E94771AC814D9047C
:1033200008F059C0560184E1A80EB11C7501B60120
:10333000CE010E94271B6BE00E94771A62EE75E0B7
:103340000E94321A8601F80161918F01CE010E941C
:10335000A91BE881F9810280F381E02D60E2CE01B2
:1033600009950E151F0579F7E881F9810280F3812F
:10337000E02D60E2CE0109950FC080EE860FE88156
:10338000F9810280F381E02D8F3508F06EE2CE01E5
:103390000995CE14DF0481F0F60161916F01653A61
:1033A00061F7E881F9810280F381E02D60E2CE01CE
:1033B0000995CE14DF0481F7650166E0CE010E9415
:1033C000771AF4E1EF0EF11CA814B90420F4C5013A
:1033D00044965C01ACCF62E0CE01DF91CF911F91AA
:1033E0000F91FF90EF90DF90CF90BF90AF909F90A4
:1033F0008F900C94771A0C94700D009711F00C9428
:10340000090E08950C94700D009711F00C94090E9C
:103410000895FC0181E090E02081222311F080E0FA
:1034200090E0089521E0FC01208308950895089517
:1034300081E0089580E0089580E008950895DC011A
:10344000ED91FC910280F381E02D6CE00994FC0188
:1034500083E793E0918380838AE0828383E085839E
:10346000148208950F931F93CF93DF93EC01FB0118
:103470008C81811117C06081662379F08F010F5F05
:103480001F4FE881F9810280F381E02DCE0109957B
:10349000F80161918F016111F4CFDF91CF911F91FC
:1034A0000F9108951C828B010F5F1F4F649166235B
:1034B000A1F3A881B9811296ED91FC911397CE01E9
:1034C0000995F80164910F5F1F4F6111F2CFE5CFAD
:1034D000883008F087E08093070289E008959EEF26
:1034E000980F9F3010F4809306028AE00895CF93DE
:1034F000DF93EC01462F50E04C30510538F4FA01CF
:10350000EA59FF4F0C94352782E08A83CE01DF9180
:10351000CF91089581E08C83F9CF88E08A83F6CF3C
:103520008AE08A83F3CF80E18A83F0CFE881F98152
:103530000280F381E02D6DE00995E881F981028038
:10354000F381E02D6AE0CE010995E0CFE881F981B1
:103550000284F385E02D0995D9CFE881F9810084B3
:10356000F185E02D0995D2CF809107028D83CECFD2
:10357000809106028A83CACF0F931F93CF93DF9364
:10358000CDB7DEB761970FB6F894DEBF0FBECDBFE3
:103590008C01CB01F80122812A3079F0C8010E9408
:1035A000271BC80161960FB6F894DEBF0FBECDBFD2
:1035B000DF91CF911F910F9108954AE050E0BE0135
:1035C0006F5F7F4F0E945F28BE016F5F7F4FC80112
:1035D0000E94321AE6CF0F931F93CF93DF9300D050
:1035E00000D01F92CDB7DEB78C01862FD80113967D
:1035F0009C911397911112C0F80192819A30B1F009
:10360000C8010E94A91BC8010F900F900F900F9046
:103610000F90DF91CF911F910F910895ED91FC9143
:103620000280F381E02DC8010995EDCF4AE050E01A
:10363000BE016F5F7F4F992787FD90950E945F289D
:10364000BE016F5F7F4FC8010E94321ADCCFFF922C
:103650000F931F93CF93DF93CDB7DEB761970FB66C
:10366000F894DEBF0FBECDBF8C01F62E972FF80168
:103670004281403191F0483081F0423071F050E0A9
:10368000BE016F5F7F4F8F2D0E94A528BE016F5F27
:103690007F4FC8010E94321A07C0692FC8010E94DB
:1036A000A91B6F2D0E94A91BC80161960FB6F89443
:1036B000DEBF0FBECDBFDF91CF911F910F91FF9065
:1036C0000895DF92EF92FF920F931F93CF93DF93B2
:1036D000CDB7DEB7A1970FB6F894DEBF0FBECDBF52
:1036E0008C01D42EE52EF62E972FF8012281203161
:1036F000A1F0283091F0223081F030E0AE014F5F30
:103700005F4F6D2D7E2D8F2D0E948028BE016F5F33
:103710007F4FC8010E94321A0DC0692FC8010E9454
:10372000A91B6F2D0E94A91B6E2D0E94A91B6D2D38
:103730000E94A91BC801A1960FB6F894DEBF0FBE68
:10374000CDBFDF91CF911F910F91FF90EF90DF9050
:103750000895CF92DF92EF92FF920F931F93CF9332
:10376000DF93CDB7DEB729970FB6F894DEBF0FBE53
:10377000CDBF8C01D62EDC0113968C91139781114D
:103780005DC0F80142814230D9F14031F1F050E0A2
:10379000BE016F5F7F4F8D2D90E00E94A528BE0176
:1037A0006F5F7F4FC8010E94321AC80129960FB679
:1037B000F894DEBF0FBECDBFDF91CF911F910F9167
:1037C000FF90EF90DF90CF90089562956F70019019
:1037D000F081E02D0280F381E02D6A30B8F5605D64
:1037E000C80109956D2D6F70D801ED91FC91028093
:1037F000F381E02D6A3060F1695CC8010995D5CF8D
:1038000088E0E82EF12C90E8C92E0AC061E3C801D7
:103810000995C694B1E0EB1AF108E114F10429F21C
:103820008C2D8D21D801ED91FC910280F381E02D4A
:103830008111ECCF60E3C8010995EBCFED91FC91CC
:103840000280F381E02DC8010995AFCF695CC8CF34
:10385000605DD3CFDC011896ED91FC9119978081C2
:103860001C969C911C97892359F421E23EE405C0E3
:10387000215031092115310571F080818923C1F36F
:1038800080811E969C911E97892B80831696ED91C0
:10389000FC91179760830895FC01878581111DC0F5
:1038A00020914E1B30914F1B80914C1B90914D1BD2
:1038B0002817390789F0E091501BF091511BE20F56
:1038C000F31F80812F5F3F4F2032310518F1109296
:1038D0004F1B10924E1B0895FFCF2091481B309133
:1038E000491B8091461B9091471B2817390789F087
:1038F000E0914A1BF0914B1BE20FF31F80812F5F79
:103900003F4F2032310558F01092491B1092481B4E
:103910000895FFCF30934F1B20934E1B0895309393
:10392000491B2093481B0895DC01ED91FC91028016
:10393000F381E02D6CE00994FC018785882369F010
:1039400081E04091481B5091491B2091461B3091CA
:10395000471B4217530769F0089581E040914E1BC1
:1039600050914F1B20914C1B30914D1B4217530718
:1039700099F780E00895EF92FF921F93CF93DF9322
:1039800000D0CDB7DEB77C01142F69837A830E9403
:10399000271A412F69817A81C70106960E94E72381
:1039A00083E893E0F7019183808317871123E9F07F
:1039B0008091C90080688093C90080E290E00E94F5
:1039C000021A90934B1B80934A1B1092491B109232
:1039D000481B1092471B1092461B0F900F90DF91CF
:1039E000CF911F91FF90EF9008958091C100806862
:1039F0008093C10080E290E00E94021A9093511BD4
:103A00008093501B10924F1B10924E1B10924D1B17
:103A100010924C1B0F900F90DF91CF911F91FF9050
:103A2000EF9008951F920F920FB60F9211240BB6CC
:103A30000F922F933F938F939F93EF93FF93209138
:103A4000C600E091501BF091511B80914C1B90914E
:103A50004D1BE80FF91F208380914C1B90914D1B4B
:103A6000019680329105C0F490934D1B80934C1BBE
:103A700020914E1B30914F1B28173907D1F0FF9131
:103A8000EF919F918F913F912F910F900BBE0F90CF
:103A90000FBE0F901F90189510924D1B10924C1B4B
:103AA00080E090E020914E1B30914F1B2817390782
:103AB00031F7019690934F1B80934E1B8097F8F23D
:103AC00010924F1B10924E1BDACF1F920F920FB61F
:103AD0000F9211240BB60F922F933F938F939F93C6
:103AE000EF93FF932091CE00E0914A1BF0914B1B86
:103AF0008091461B9091471BE80FF91F208380910E
:103B0000461B9091471B019680329105C0F490931B
:103B1000471B8093461B2091481B3091491B281757
:103B20003907D1F0FF91EF919F918F913F912F91A4
:103B30000F900BBE0F900FBE0F901F901895109214
:103B4000471B1092461B80E090E02091481B30916B
:103B5000491B2817390731F701969093491B809329
:103B6000481B8097F8F21092491B1092481BDACF3D
:103B7000FC010396928381834FEF5FEFBA01438389
:103B800054836583768390878783928781871082A9
:103B90000895FC01138612860895CF93DF939C014C
:103BA000FB01DC011196CD91DC911297D583C48382
:103BB0008E819F81978386838E819F81DC011596FC
:103BC0007C936E9314977F836E8333872287F901EA
:103BD00080818F5F8083DF91CF9108950F931F9332
:103BE000CF93DF93EB01088119812A813B810F3F3D
:103BF0004FEF14072407340731F1DC01139601C09D
:103C0000DF011496ED91FC911597408151816281FD
:103C10007381041715072607370790F7FD83EC8398
:103C2000D783C683BF83AE831596DC93CE93149758
:103C30009B878A87FC0120812F5F2083DF91CF91B2
:103C40001F910F910895FC01A185B2851496ED9105
:103C5000FC911597E3CFCF93DF93FC01A285B38549
:103C60002481358186819781E9019F838E838681B6
:103C70009781EC013D832C8311962D913C911297F5
:103C80002E173F0741F0138612868C9181508C933A
:103C9000DF91CF91089512969C938E93119713867E
:103CA00012868C9181508C93DF91CF9108959093DF
:103CB000531B8093521B31E1FC013083319722E288
:103CC0002083FC013297A3E3A083FC013397608338
:103CD000FC0134977083FC0135971082FC01369704
:103CE00060E86083FC0137971082FC01389762E03E
:103CF0006083FC01399763E06083FC013A9764E0DC
:103D00006083FC013B9765E06083FC013C9766E0C3
:103D10006083FC013D9767E06083FC013E9768E0AB
:103D20006083FC013F9769E06083FC01709760E16C
:103D30006083FC0171973083FC01729732E130831C
:103D4000FC01739733E13083FC01749734E13083D5
:103D5000FC01759735E13083FC01769736E13083BD
:103D6000FC01779737E13083FC01789738E13083A5
:103D7000FC01799739E13083FC017A9730E2308396
:103D8000FC017B9731E23083FC017C972083FC01AE
:103D90007D9723E22083FC017E974083FC017F977F
:103DA0005083FC01B09726E22083FC01B19727E203
:103DB0002083FC01B29728E22083FC01B39729E21B
:103DC0002083FC01B49720E32083FC01B59721E315
:103DD00020838697089587E0809329018FEC809354
:103DE00028018AE080932101E3E7F0E0808182608E
:103DF0008083A091E11AB091E21ACD91CDBFDD91FF
:103E0000DEBFFF91EF91DF91CF91BF91AF919F9175
:103E10008F917F916F915F914F913F912F911F9162
:103E20000F91FF90EF90DF90CF90BF90AF909F9059
:103E30008F907F906F905F904F903F902F901F904A
:103E40000F900FBE0F90089581E0089508950F928E
:103E50000FB6F8940F921F9211242F923F924F9217
:103E60005F926F927F928F929F92AF92BF92CF920A
:103E7000DF92EF92FF920F931F932F933F934F93F5
:103E80005F936F937F938F939F93AF93BF93CF93E2
:103E9000DF93EF93FF93A091E11AB091E21A0DB670
:103EA0000D920EB60D920E949F12A091E11AB09150
:103EB000E21ACD91CDBFDD91DEBFFF91EF91DF9191
:103EC000CF91BF91AF919F918F917F916F915F91B2
:103ED0004F913F912F911F910F91FF90EF90DF90A5
:103EE000CF90BF90AF909F908F907F906F905F909A
:103EF0004F903F902F901F900F900FBE0F900895FE
:103F00000F920FB6F8940F921F9211242F923F92A6
:103F10004F925F926F927F928F929F92AF92BF92D9
:103F2000CF92DF92EF92FF920F931F932F933F93C5
:103F30004F935F936F937F938F939F93AF93BF93B1
:103F4000CF93DF93EF93FF93A091E11AB091E21A20
:103F50000DB60D920EB60D920E948C1081110E942A
:103F60009F12A091E11AB091E21ACD91CDBFDD91DF
:103F7000DEBFFF91EF91DF91CF91BF91AF919F9104
:103F80008F917F916F915F914F913F912F911F91F1
:103F90000F91FF90EF90DF90CF90BF90AF909F90E8
:103FA0008F907F906F905F904F903F902F901F90D9
:103FB0000F900FBE0F9008950E94801F18951F93B9
:103FC000CF93DF93EC01142F88A181110DC088815C
:103FD0009981892B09F44DC080E09E8D9F5F9E8F53
:103FE000DF91CF911F910895482F50E011111CC00F
:103FF0008C819D810E94402828A18C819D81820F07
:10400000911D9D838C832A813B818217930720F326
:10401000888199819D838C8380E09E8D9F5F9E8F98
:10402000DF91CF911F9108958E819F810E9440283A
:1040300028A130E03195219531098E819F81820F31
:10404000931F9F838E83688179818617970730F449
:104050008A819B81820F931F9F838E83123009F088
:10406000BBCF8E8D882309F4B7CF8E8D81508E8F74
:10407000B3CF8A819B810E94BB141B821A82ADCF71
:10408000FC01CB0140A1442399F050E02681378107
:10409000240F351F378326836281738126173707E4
:1040A00020F02081318137832683B9010C94402888
:1040B00008950F931F93CF93DF93EC010FB6F894FD
:1040C0000F928AA11816ECF48B898823D1F08E0107
:1040D0000D5E1F4F09C08AA181508AA38AA11816BC
:1040E00084F48B89882369F0C8010E9447138823D0
:1040F00091F30E943B148AA181508AA38AA11816C9
:1041000084F38FEF8AA30F900FBE0FB6F8940F922F
:1041100089A11816ECF488858823D1F08E01085FF8
:104120001F4F09C089A1815089A389A1181684F461
:104130008885882369F0C8010E944713882391F37A
:104140000E943B1489A1815089A389A1181684F388
:104150008FEF89A30F900FBEDF91CF911F910F9129
:104160000895CF93DF93EC010FB6F8940F92288156
:1041700039818F8D78A1879FC0011124A901480F33
:10418000591F5B834A831E8E3D832C83871B9109B5
:10419000820F931F9F838E838FEF89A38AA3611160
:1041A00012C08885811106C00F900FBE81E0DF919B
:1041B000CF910895CE0108960E9447138130A1F750
:1041C0000E94271FF1CFCE0108960E94B81DCE0194
:1041D00043960E94B81D0F900FBE81E0DF91CF91F2
:1041E00008950F931F93CF93DF93182F062F8823E3
:1041F00001F183E290E00E94700DEC010097C9F09C
:10420000109FC001112401960E94700D998388832C
:10421000892B61F01F8F08A361E0CE010E94B120BD
:10422000CE01DF91CF911F910F910895CE010E9491
:10423000090EC0E0D0E0CE01DF91CF911F910F9128
:1042400008956F927F928F929F92AF92BF92CF927A
:10425000DF92EF92FF920F93CF93DF93CDB7DEB74C
:1042600029970FB6F894DEBF0FBECDBF5C014B019E
:104270002E833F834887598720E03C0188E0680E01
:10428000711C0FB6F8940F92F501968D878D9817D3
:1042900008F459C0023009F456C0CE80DF80E884AB
:1042A000F984CD28CE28CF2809F46FC0222309F441
:1042B00041C00F900FBE0E945D100FB6F8940F9290
:1042C000F50181A18F3F09F43CC0F50182A18F3F28
:1042D000B1F10F900FBEBE016A5F7F4FCE01019614
:1042E0000E94DA13811155C00FB6F8940F92F501B0
:1042F000968D0F900FBEF501878D981314C04E81D7
:104300005F8168857985C3010E94EC12C5010E9416
:1043100059200E949011882311F021E0B2CF0E9411
:10432000271F21E0AECFC5010E9459200E949011A5
:1043300021E0A7CFCE0101960E94C913BACF12A2E5
:10434000C8CF11A2C2CF402FB401C5010E94DF1F08
:10435000F5019389911124C0811128C00F900FBEDF
:1043600081E029960FB6F894DEBF0FBECDBFDF9176
:10437000CF910F91FF90EF90DF90CF90BF90AF90D3
:104380009F908F907F906F9008950F900FBE80E068
:10439000E8CFC5010E9459200E94901180E0E1CF32
:1043A000C50143960E9447138130C1F60E94271F22
:1043B000D5CF0F93CF93DF9383E290E00E94700DEF
:1043C000EC01009701F11B821A82198218821D826A
:1043D0001C821F821E821E8E81E08F8F18A28FEF9B
:1043E00089A38AA3CE0108960E94B81DCE014396E8
:1043F0000E94B81D00E020E030E0A90160E070E01C
:10440000CE010E942121CE01DF91CF910F9108951D
:104410000F931F93CF93DF93EC018A019E8D8F8DB5
:10442000981740F0223031F080E0DF91CF911F915A
:104430000F910895422FCE010E94DF1F882331F093
:104440000115110519F081E0F80180838AA18F3FE1
:1044500049F08AA18F5F8AA381E0DF91CF911F91FC
:104460000F9108958B898823B9F3CE0143960E945A
:104470004713882389F30115110571F381E0F801D1
:104480008083D3CFAF92BF92CF92DF92EF92FF9211
:104490000F93CF93DF93CDB7DEB729970FB6F8947C
:1044A000DEBF0FBECDBF7C016B012E833F834887EB
:1044B000598790E0570183E1A80EB11C0FB6F8941C
:1044C0000F92F701868D811169C04E815F816885E9
:1044D0007985452B462B472B09F47DC0992309F498
:1044E0003EC00F900FBE0E945D100FB6F8940F9261
:1044F000F70181A18F3F09F43EC0F70182A18F3FF0
:1045000009F43FC00F900FBEBE016A5F7F4FCE011E
:1045100001960E94DA13811171C00FB6F8940F92C0
:10452000F701868D0F900FBE81111EC0F7018081AB
:104530009181892B41F14E815F8168857985C50123
:104540000E94EC12C7010E9459200E9490118823FA
:1045500011F091E0B3CF0E94271F91E0AFCFCE01C1
:1045600001960E94C913BDCFC7010E9459200E9425
:10457000901191E0A3CF11A2F70182A18F3F09F022
:10458000C1CF12A2BFCF0FB6F8940F92F70182816C
:1045900093810E9460140F900FBECDCFA680B7808C
:1045A000B601C7010E944020F70101112EC0868D7F
:1045B0008150868F80819181892BB9F1F7018085A7
:1045C000882341F1C70108960E944713813011F5F5
:1045D0000E94271F1FC00F900FBE80E029960FB6C4
:1045E000F894DEBF0FBECDBFDF91CF910F91FF904A
:1045F000EF90DF90CF90BF90AF900895C7010E94D9
:1046000059200E94901180E0E9CFB782A682838969
:10461000811104C00F900FBE81E0E0CFC701439627
:104620000E9447138823B1F3D3CF0E942215F701CC
:1046300093838283C3CF0F931F93CF93DF9300D0D5
:10464000CDB7DEB78C01FC01868D811108C080E0FA
:104650000F900F90DF91CF911F910F910895C80196
:1046600049835A830E944020F801868D8150868FAD
:1046700081A149815A818F3F61F0F80181A18F5F4B
:1046800081A381E00F900F90DF91CF911F910F9147
:10469000089580858823A9F3C801089649835A8321
:1046A0000E94471349815A81882359F341155105C6
:1046B00041F381E0FA018083CBCF0F931F93CF9317
:1046C000DF93EC018E8D811106C080E0DF91CF91E8
:1046D0001F910F9108950E811F81CE010E944020ED
:1046E0001F830E8381E0DF91CF911F910F91089579
:1046F0000FB6F8940F92FC01868D0F900FBE0895AF
:104700000FB6F8940F92FC01268D0F900FBEFC019E
:10471000878D821B0895FC01868D0895CF93DF93CA
:10472000EC0188819981009711F00E94090ECE0159
:10473000DF91CF910C94090EFC01968D81E09111CF
:1047400080E00895FC01268D81E0978D291380E09B
:104750000895CF92DF92EF92FF92CF93DF93EC0117
:10476000688179818A819B8128EEC22E23E0D22E36
:10477000E12CF12CA70196010E94F4269B01AC01CB
:1047800060E472E48FE090E00E94BC26A7019601ED
:104790000E94F42669017A01AC81BD8120E432E4F3
:1047A0004FE050E00E94B12620E834E84EE150E0AE
:1047B0000E94F426C20ED31EE41EF51EC701B601E8
:1047C000DF91CF91FF90EF90DF90CF900895CF933E
:1047D000DF93EC01442309F441C08EEC90E099830F
:1047E000888388EC90E09B838A8389EC90E09D83AA
:1047F0008C8388E18093C90086E08093CA00109280
:10480000CD009B0140E050E0220F331F441F551F95
:10481000220F331F441F551F220F331F441F551FE4
:10482000220F331F441F551F60E074E284EF90E0B5
:104830000E94F4262093CC008091C8008160809370
:10484000C80080E28E8380E88F8380E48887E881D7
:10485000F98180818081DF91CF91089586EC90E08D
:104860009983888380EC90E09B838A8381EC90E03D
:104870009D838C8388E18093C10086E08093C20091
:104880001092C5009B0140E050E0220F331F441FEF
:10489000551F220F331F441F551F220F331F441F64
:1048A000551F220F331F441F551F60E074E284EF31
:1048B00090E00E94F4262093C4008091C0008160A3
:1048C0008093C000BECFDC011296ED91FC9113974E
:1048D000208116968C91282381E009F480E00895C8
:1048E000DC011296ED91FC911397208118968C9122
:1048F000282381E009F080E00895DF92EF92FF9293
:104900000F931F93CF93DF937C018B01DC011496EF
:104910006D917C911597C8010E94321AF701A4810C
:10492000B581FD0101900020E9F73197DE2EDA1AFA
:10493000FFE0FD1580F0C0E0D0E0D801ED91FC91E2
:104940000280F381E02D60E2C801099521968C2F49
:104950008D0D803190F368E072E0C8010E94321A38
:1049600066E0C8010E94771AD70116968D919C9136
:104970001797009779F0DC01ED91FC910190F0819F
:10498000E02DB801DF91CF911F910F91FF90EF9033
:10499000DF900994DF91CF911F910F91FF90EF90DD
:1049A000DF900895DF92EF92FF920F931F93CF93C2
:1049B000DF937C018B01DC0114966D917C9115973E
:1049C000C8010E94321AF701A481B581FD0101904E
:1049D0000020E9F73197DE2EDA1AFFE0FD1580F0AE
:1049E000C0E0D0E0D801ED91FC910280F381E02D90
:1049F00060E2C801099521968C2F8D0D803190F3CE
:104A000068E072E0C8010E94321A66E0C8010E94A4
:104A1000771AD70116968D919C911797009779F088
:104A2000DC01ED91FC910190F081E02DB801DF9166
:104A3000CF911F910F91FF90EF90DF900994DF913C
:104A4000CF911F910F91FF90EF90DF900895DF922B
:104A5000EF92FF920F931F93CF93DF937C018B0113
:104A6000DC0114966D917C911597C8010E94321A51
:104A7000F701A481B581FD0101900020E9F731978C
:104A8000DE2EDA1AFFE0FD1580F0C0E0D0E0D8019C
:104A9000ED91FC910280F381E02D60E2C80109955F
:104AA00021968C2F8D0D803190F368E072E0C80163
:104AB0000E94321A66E0C8010E94771AD701169642
:104AC0008D919C911797009779F0DC01ED91FC9105
:104AD0000190F081E02DB801DF91CF911F910F91EE
:104AE000FF90EF90DF900994DF91CF911F910F918C
:104AF000FF90EF90DF900895CF92DF92EF92FF92B8
:104B00000F931F93CF93DF9314BE88E10FB6F894F1
:104B100080936000109260000FBE80E190E00E94E0
:104B2000FB19EC0141E060E875E20E94BB1C67E004
:104B3000CE010E94771A6BE00E94771A8C0164EE16
:104B400070E00E94321A66E0C8010E94771A88E17C
:104B500090E00E94FB196C011AE0E12EF12C00E0BC
:104B600010E09E014FE052E060E270E0C6010E945A
:104B7000BD18D0929F03C0929E0389E090E00E94EE
:104B8000FB197C0165E172E00E94341504EB12E030
:104B9000F70111830083F0929D03E0929C038AE069
:104BA00090E00E94FB197C0165E272E00E943415DE
:104BB0009AEBC92E92E0D92EF701D182C082F092F1
:104BC0009B03E0929A0389E090E00E94FB197C012C
:104BD00064E372E00E943415F70111830083F092C0
:104BE0009903E09298038AE090E00E94FB197C010F
:104BF00066E472E00E943415F701D182C082F0921F
:104C00009703E092960389E090E00E94FB197C01F3
:104C100067E572E00E943415F70111830083F0927A
:104C20009503E092940389E090E00E94FB197C01D7
:104C30006BE672E00E943415F70111830083F09255
:104C40009303E092920389E090E00E94FB198C01AB
:104C500060E872E00E94341580EC92E0F8019183E4
:104C60008083109391030093900382E190E00E946F
:104C7000FB198E0124E031E041E063E972E00E941B
:104C8000140382E190E00E94FB1928E131E042E048
:104C90006BE972E00E94BF0882E190E00E94FB197C
:104CA00028E131E043E062EA72E00E948D0C82E18B
:104CB00090E00E94FB1928E131E043E068EA72E0ED
:104CC0000E94C80C0E94201080E090E0DF91CF91FC
:104CD0001F910F91FF90EF90DF90CF9008950E9469
:104CE00060160F93CF93DF931F92CDB7DEB7698322
:104CF000FC01208931894289538900E0BE016F5F40
:104D00007F4F868597850E9421210F90DF91CF915B
:104D10000F910895FC01868597850E94782391E084
:104D2000811101C090E0892F08950F93CF93DF93F5
:104D30001F92CDB7DEB700E02FEF3FEFA901BE0114
:104D40006F5F7F4FFC01868597850E9442228130EC
:104D500031F489810F90DF91CF910F9108958FEFFA
:104D6000F9CF0E943B27A59F900DB49F900DA49F63
:104D7000800D911D11240895DB018F939F930E9454
:104D8000B126BF91AF91A29F800D911DA39F900D61
:104D9000B29F900D11240895AA1BBB1B51E107C0BF
:104DA000AA1FBB1FA617B70710F0A61BB70B881FBB
:104DB000991F5A95A9F780959095BC01CD0108954A
:104DC00097FB072E16F4009407D077FD09D00E94B8
:104DD000CC2607FC05D03EF4909581959F4F089511
:104DE000709561957F4F0895A1E21A2EAA1BBB1BF7
:104DF000FD010DC0AA1FBB1FEE1FFF1FA217B307A7
:104E0000E407F50720F0A21BB30BE40BF50B661FBC
:104E1000771F881F991F1A9469F760957095809580
:104E200090959B01AC01BD01CF010895052E97FB24
:104E30001EF400940E942D2757FD07D00E94F426EF
:104E400007FC03D04EF40C942D27509540953095D7
:104E500021953F4F4F4F5F4F0895909580957095E6
:104E600061957F4F8F4F9F4F0895EE0FFF1F059065
:104E7000F491E02D0994A29FB001B39FC001A39FBC
:104E8000700D811D1124911DB29F700D811D112483
:104E9000911D08950CD0BAC0B2D040F0A9D030F026
:104EA00021F45F3F19F09BC05111E4C09EC0BFD0F8
:104EB00098F39923C9F35523B1F3951B550BBB27E1
:104EC000AA2762177307840738F09F5F5F4F220F8E
:104ED000331F441FAA1FA9F333D00E2E3AF0E0E887
:104EE00030D091505040E695001CCAF729D0FE2FD3
:104EF00027D0660F771F881FBB1F26173707480765
:104F0000AB07B0E809F0BB0B802DBF01FF2793581A
:104F10005F4F2AF09E3F510568F061C0ABC05F3F14
:104F2000ECF3983EDCF3869577956795B795F79502
:104F30009F5FC9F7880F911D9695879597F90895FA
:104F4000E1E0660F771F881FBB1F62177307840796
:104F5000BA0720F0621B730B840BBA0BEE1F88F7A5
:104F6000E0950895E89409C097FB3EF490958095EC
:104F7000709561957F4F8F4F9F4F9923A9F0F92F1F
:104F800096E9BB279395F695879577956795B7959D
:104F9000F111F8CFFAF4BB0F11F460FF1BC06F5F83
:104FA0007F4F8F4F9F4F16C0882311F096E911C095
:104FB000772321F09EE8872F762F05C0662371F0B6
:104FC00096E8862F70E060E02AF09A95660F771FCA
:104FD000881FDAF7880F9695879597F9089597F9BE
:104FE0009F6780E870E060E008959FEF80EC08958F
:104FF00000240A94161617061806090608950024B8
:105000000A9412161306140605060895092E039431
:10501000000C11F4882352F0BB0F40F4BF2B11F4A5
:1050200060FF04C06F5F7F4F8F4F9F4F089557FD04
:105030009058440F551F59F05F3F71F04795880F06
:1050400097FB991F61F09F3F79F08795089512169D
:1050500013061406551FF2CF4695F1DF08C0161649
:1050600017061806991FF1CF8695710561050894FA
:105070000895E894BB2766277727CB0197F9089511
:10508000FB01DC0102C001900D9241505040D8F765
:105090000895DC0101C06D9341505040E0F7089540
:1050A000FB01DC014150504048F001900D9200207E
:1050B000C9F701C01D9241505040E0F70895FB012F
:1050C0009F01E8944230C4F04532B4F44A3029F4E8
:1050D00097FB1EF4909581959F4F642F77270E9430
:1050E000CC26805D8A330CF0895D8193CB010097DB
:1050F000A1F716F45DE251931082C9010C94BB280C
:10510000FA01CF93FF93EF932230CCF02532BCF419
:10511000C22F2C2F332744275527FF93EF930E944C
:10512000F426EF91FF91605D6A330CF0695D619345
:10513000B901CA01605070408040904051F7108220
:105140008F919F91CF910C94BB28FB019F0142301E
:1051500074F0453264F4642F77270E94CC26805D7A
:105160008A330CF0895D8193CB010097A1F71082FF
:10517000C9010C94BB28DC01FC01672F71917723D6
:10518000E1F7329704C07C916D9370836291AE1702
:0A519000BF07C8F30895F894FFCF9D
:10519A003717FFFFFFFF0A03736861726509005042
:1051AA0072696E740073685F6D6F746F725F736596
:1051BA006C6563740073685F706F7765725F656EA4
:1051CA007472790073685F706F7765725F73657464
:1051DA005F666C61670073685F6272616B696E67B4
:1051EA005F656E7472790073685F6272616B696E73
:1051FA00675F7365745F666C61670073685F62728C
:10520A00616B696E675F66756C6C5F666C6167007F
:10521A0073685F656E636F6465725F636F756E74E2
:10522A005F310055736572496E740042726967682E
:10523A0074004D6F746F7200456E636F646572001F
:10524A0000000000272500000000D2240000000012
:10525A007D242F000D0020706F7765723A0020625E
:10526A007265616B696E673A0000000000CC04F950
:10527A0016000000007E08F9166D6F746F722063C5
:10528A006F6E7374727563746F72204641494C2055
:10529A002873656C656374206D757374206265206C
:1052AA00612031206F7220322900000000005B0B60
:1052BA00F916000000009D0CF916656E636F6465AF
:1052CA00725F647276206661696C65640049444C59
:1052DA00450000000000171A00000000171AF9160E
:1052EA007478745F71090000000000181A71268A28
:1052FA002695261E1A1F1A4418FAFF0000FF1800E6
:10530A00000000181A171A1C1A1A1A1E1A1F1A0055
:10531A00000000181A2A1C9C1C4C1C1E1A941C0003
:00000001FF
