:100000000C9483030C94A2030C94A2030C94A203FB
:100010000C94A2030C944B0E0C94080F0C940A0F32
:100020000C947F0F0C94A2030C94A2030C94A203D3
:100030000C94A2030C94A2030C94A2030C94A203AC
:100040000C94A2030C94A2030C94A2030C94A2039C
:100050000C94A2030C94A2030C94A2030C94A2038C
:100060000C94A2030C94231F0C94A2030C94A203DF
:100070000C94A2030C94A2030C94A2030C94A2036C
:100080000C94A2030C94A2030C94A2030C94A2035C
:100090000C94761F0C94A2030C94A2030C94A2035C
:1000A0000C94A2030C94A2030C94A2030C94A2033C
:1000B0000C94A2030C94A2030C94A2030C94ED21C3
:1000C0000C94A2030C94A2030C94A203951C9E1CF6
:1000D000A11CA41C971C971CA71CB71CBE1CC51CEC
:1000E000C91C9B1C2D2D2D2D2D2D2D2D204D453426
:1000F0003035204C61622033205374617274696E14
:10010000672050726F6772616D202D2D2D2D2D2D62
:100110002D2D005F5F5F5F5F5F5F5F204D45343077
:1001200035204C61622033204D6F646966696564D7
:100130002050726F6772616D205F5F5F5F5F5F5F0E
:100140005F004D61792031372032303136005379EC
:100150007374656D2074696D653A20002C204865C4
:1001600061703A20002C204F435235413A20002044
:10017000202020723A2020202020205265747572A1
:100180006E20746F204D61696E204D656E75002084
:100190002043746C2D433A202020205265736574EF
:1001A00020415652206D6963726F636F6E74726F77
:1001B0006C6C65720020202020733A2020202020C3
:1001C0002046756C6C204272616B650020202020F7
:1001D000623A2020202020204D6F746F72204252FE
:1001E000414B4520776974682050574D205B2D3274
:1001F00035352C203235355D0020202020703A2006
:1002000020202020204D6F746F7220504F57455290
:1002100020776974682050574D205B2D3235352C7E
:10022000203235355D002D2D2D2D2D2D2D2D2D2DF3
:100230002D2D2D2D2D2D2D204D4F544F52204D4520
:100240004E55202D2D2D2D2D2D2D2D2D2D2D2D2DA2
:100250002D2D2D2D0020202020723A20202020201E
:100260002052657475726E20746F204D61696E2026
:100270004D656E7500202043746C2D433A2020207C
:1002800020526573657420415652206D6963726F08
:10029000636F6E74726F6C6C657200202020206D2D
:1002A0003A2020202020204D6F746F722073656CDF
:1002B00065637420616E6420506F7765722076618B
:1002C0006C75650020202020643A2020202020200A
:1002D000537461636B2064756D7020666F72207457
:1002E00061736B730020202020733A20202020208F
:1002F0002056657273696F6E2F536574757020692F
:100300006E666F726D6174696F6E002020202074BC
:100310003A20202020202053686F772074686520C1
:1003200063757272656E742074696D65002D2D2D74
:100330002D2D2D2D2D2D2D2D2D2D2D2D2D2D204DDA
:1003400041494E204D454E55202D2D2D2D2D2D2D25
:100350002D2D2D2D2D2D2D2D2D2D00496C6C6567EE
:10036000616C2073746174652120526573657474C7
:10037000696E6720415652002220003C2D2D2055E9
:100380006E6B6E6F776E20636F6D6D616E642E2085
:100390005479706520636F6D6D616E642066726F55
:1003A0006D206D656E752E00526573657474696E8F
:1003B0006720415652004D6F746F722000204841F3
:1003C0004C5445442100456E746572206E756D6213
:1003D000657220666F72204D6F746F722000456EDB
:1003E000746572206E756D62657220666F72204D45
:1003F0006F746F7220002220003C2D2D20556E6BF3
:100400006E6F776E20636F6D6D616E642E20547910
:10041000706520636F6D6D616E642066726F6D2014
:100420006D656E752E00506C656173652074797012
:10043000652061206E756D626572206265747765F6
:10044000656E203020746F203235352C207468653D
:100450006E20454E54455200506C656173652074A2
:100460007970652061206E756D62657220626574B9
:100470007765656E202D32353520746F2032353525
:100480002C207468656E20454E54455200506C65B2
:10049000617365207479706520612031206F72204E
:1004A0003220666F72206D6F746F722073656C6599
:1004B00063742C207468656E20454E544552004E7E
:1004C000756D62657220456E74657265643A2000D0
:1004D0004E756D62657220456E74657265643A2072
:1004E0002D002220003C2D2D20556E6B6E6F776EF7
:1004F00020636F6D6D616E642E205479706520638A
:100500006F6D6D616E642066726F6D206D656E75C6
:100510002E00526573657474696E672041565200EF
:10052000456E746572206E756D6265722C20312087
:100530006F7220322C20666F72206D6F746F722084
:1005400073656C656374696F6E3A20004144435370
:1005500052413A200041444D55583A20004144430D
:1005600030203D200041444331203D2000414443A0
:1005700032203D200041444333203D20004144438C
:1005800034203D200041444335203D200041444378
:1005900036203D200041444337203D200045727203
:1005A0006F7220636F756E742032203D2000456E9F
:1005B000636F64657220636F756E742032203D2016
:1005C000004572726F7220636F756E742031203D2A
:1005D0002000456E636F64657220636F756E7420D2
:1005E00031203D20004E6F20736861726564206485
:1005F000617461206974656D7320746F2070726915
:100600006E74002D2D2D2D20202020202020202034
:100610002020202D2D2D2D202020202D2D2D2D2D65
:100620002D2D2D2D2D0053686172652F5175657527
:1006300065202020202054797065202020204672DB
:1006400065652F546F74616C004552524F522063A0
:1006500072656174696E67207461736B2022005447
:1006600061736B2022002220637265617465642CC3
:1006700020737461636B206174203078005461735F
:100680006B3A20005461736B3A2049444C45004951
:10069000444C45090930092D09002F0009092D0096
:1006A0002D2D2D2D09092D2D2D2D092D2D2D2D2DE6
:1006B00000092D2D2D2D2D2D2D2D2D2D00092D2D0C
:1006C0002D2D004E616D6509095072692E09537414
:1006D0006174650009467265652F546F74616C0022
:1006E0000952756E73005461736B0909202009204B
:1006F0000009537461636B00090009002F000900B1
:1007000009002020000011241FBECFEFD1E2DEBF80
:10071000CDBF14E0A0E0B2E0EAEEF7E500E00BBFE9
:1007200002C007900D92AE32B107D9F71CE1AEE2DC
:10073000B4E001C01D92A030B107E1F70E94372854
:100740000C94F32B0C9400000F931F93CF93DF9323
:10075000EC010E94CA1787E993E099838883DF91AF
:10076000CF911F910F9108950F931F93CF93DF9314
:10077000EC0166E08E819F810E94881C6BE08E8177
:100780009F810E94881C8C016DE273E00E94431CD3
:1007900066E0C8010E94881C6BE08E819F810E94E8
:1007A000881C8C016BE073E00E94431C66E0C8016A
:1007B0000E94881C6BE08E819F810E94881C8C01A6
:1007C00065EE72E00E94431C66E0C8010E94881C2E
:1007D0006BE08E819F810E94881C8C0164EC72E02A
:1007E0000E94431C66E0C8010E94881C6BE08E8159
:1007F0009F810E94881C8C016BE972E00E94431C5F
:1008000066E0C8010E94881C6BE08E819F810E9477
:10081000881C8C0165E772E00E94431C66E0C801F9
:100820000E94881C6BE08E819F810E94881C8C0135
:1008300065E572E00E94431C66E0C8010E94881CC6
:1008400066E08E819F81DF91CF911F910F910C9473
:10085000881C0F931F93CF93DF93EC0166E08E818A
:100860009F810E94881C6BE08E819F810E94881C62
:100870008C0166E272E00E94431C66E0C8010E949F
:10088000881C6BE08E819F810E94881C8C0169EF1F
:1008900071E00E94431C66E0C8010E94881C6BE066
:1008A0008E819F810E94881C8C016CEC71E00E94FB
:1008B000431C66E0C8010E94881C6BE08E819F810A
:1008C0000E94881C8C0165EB71E00E94431C66E06D
:1008D000C8010E94881C6BE08E819F810E94881C49
:1008E0008C016FE871E00E94431C66E0C8010E9421
:1008F000881C6BE08E819F810E94881C8C016FE6B2
:1009000071E00E94431C66E0C8010E94881C66E0FA
:100910008E819F81DF91CF911F910F910C94881C44
:100920008F929F92AF92BF92CF92DF92EF92FF92FF
:100930000F931F93CF93DF9300D000D000D0CDB79B
:10094000DEB78C0119821A821B821C821E821D82D4
:10095000C0902801D09029010E9445105C01CE0171
:1009600001960E94741B4C0166E0F8018681978114
:100970000E94881C6BE00E94881C7C0163E171E08E
:100980000E94431C6BE0C7010E94881C7C0162E44A
:1009900071E00E94431C66E0C7010E94881C6BE066
:1009A0000E94881C7C016EE471E00E94431CB4012B
:1009B000C7010E94131B6BE00E94881C7C016CE540
:1009C00071E00E94431CB501C7010E94381D7C01E3
:1009D0006CE773E00E94431C48E357E160E070E07D
:1009E000C7010E94721D6BE00E94881C7C0165E6B5
:1009F00071E00E94431CB601C7010E94381D66E0E9
:100A00000E94881C66E00E94881CF80186819781FC
:100A10000E94C51966E0F801868197810E94881CB2
:100A2000F801868197810E94851726960FB6F89463
:100A3000DEBF0FBECDBFDF91CF911F910F91FF9011
:100A4000EF90DF90CF90BF90AF909F908F900895E0
:100A5000CF93DF93CDB7DEB727970FB6F894DEBFFD
:100A60000FBECDBF8C0119821A821B821C821E828E
:100A70001D820FB6F8940F92E0914804F09149045A
:100A800010860F900FBE0E94B403C12CB12CD12C44
:100A9000E12CF12CAA24A3945AE0452E512CD80124
:100AA0001C968C91813079F1813008F4A4C0823099
:100AB00009F086C0D80116968D919C911797DC019C
:100AC000ED91FC910480F581E02D09958111E8C03C
:100AD000D8011E964D915D916D917C9151974F5F1C
:100AE0005F4F6F4F7F4FF80146875787608B718B41
:100AF00061E070E080E090E00E947B14D8011C96D9
:100B00008C91813089F6F80186819781DC01ED9125
:100B1000FC910480F581E02D0995882309F428C310
:100B2000F80186819781DC01ED91FC910680F781C7
:100B3000E02D0995482F80ED840F8A3008F4F5C226
:100B40004D3209F4BCC24F3709F487C24A3009F468
:100B5000AEC24D3009F083C266E0B1102DC2F8017B
:100B6000868197810E94881C6BE00E94881C4C0142
:100B70006FEB74E0C4010E94431CB701C4010E94E2
:100B8000CD1C66E00E94881CD110E9C1C701019705
:100B9000029708F4C6C06BE0D80116968D919C911F
:100BA00017970E94881C7C016DE874E0C7010E94C1
:100BB000431C66E0C7010E94881CE12CF12C88CF01
:100BC0006BE0F801868197810E94881C8C016BE59F
:100BD00073E00E94431C66E0C8010E94881C2BE061
:100BE00088E190E00FB6F894A895809360000FBE5E
:100BF00020936000FFCFF80186819781DC01ED91A1
:100C0000FC910480F581E02D0995882309F460CFDB
:100C1000F80186819781DC01ED91FC910680F781D6
:100C2000E02D0995282F8D3609F45BC10CF44CC1D9
:100C3000833709F445C1843709F434C1823709F494
:100C40002DC1F80186809780D401ED91FC9102803E
:100C5000F381E02D62E2C4012F830995D401ED9167
:100C6000FC910280F381E02D2F81622FC401099550
:100C70006BE0C4010E94881C4C0162EE74E00E948B
:100C8000431C6BE0C4010E94881C4C0165EE74E0BB
:100C9000C4010E94431C66E0C4010E94881C18CF56
:100CA000F80186819781DC01ED91FC910680F78146
:100CB000E02D0995282F803709F4AAC00CF06DC0EB
:100CC000833009F4CEC0823609F03FC00FB6F894E5
:100CD0000F92E0914804F0914904D0840F900FBE28
:100CE0006BE0D80116968D919C9117970E94881CF5
:100CF0004C0166EC73E00E94431C6D2DC4010E9400
:100D0000FC1C4C0168E873E00E94431C66E0C401CF
:100D10000E94881C61E0C8010E94801882E0D82EE1
:100D2000D7CE0FB6F8940F92E0914804F0914904A1
:100D3000E0860F900FBEC8010E94290462E0C8013E
:100D40000E948018E12CF12CC3CEF8018680978098
:100D5000D401ED91FC910280F381E02D62E2C401A7
:100D60002F830995D401ED91FC910280F381E02D50
:100D70002F81622FC40109956BE0C4010E94881C79
:100D80004C0168E773E00E94431C6BE0C4010E94C1
:100D9000881C4C016BE773E07BCF823789F1833786
:100DA000A1F60FB6F8940F92E0913E04F0913F0443
:100DB000A0860F900FBE0FB6F8940F92E0914804F2
:100DC000F091490470840F900FBE6BE0F8018681AA
:100DD00097810E94881C4C0166EB73E00E94431CC3
:100DE000672DC4010E94FC1C6BE00E94881C4C0112
:100DF0006DEB73E00E94431C66E0C4010E94881CF6
:100E0000C8010E94B40360E0C8010E94801860CE4F
:100E10000FB6F8940F92E0914804F0914904D08401
:100E20000F900FBE6BE0F801868197810E94881CAD
:100E30004C016EED73E00E94431C6D2DC4010E94B5
:100E4000FC1C4C0160E873E00E94431C66E0C40196
:100E50000E94881C61E0C8010E948018DD24D394A0
:100E600037CE6BE0D80116968D919C9117970E9412
:100E7000881C8C0168EA73E00E94431C66E0C8018C
:100E80000E94881C2BE088E190E00FB6F894A895AA
:100E9000809360000FBE20936000FFCFC8010E94C6
:100EA000B40316CECE0101960E94741BBC01F8015A
:100EB000868197810E94131B66E00E94881C08CEE1
:100EC000C8010E94900404CE833061F1843609F099
:100ED000B8CED80116968D919C9117970E94DF1875
:100EE000F7CD6BE0F801868197810E94881C7C0118
:100EF00060E275E00E94431C66E0C7010E94881C06
:100F00000FB6F8940F92E0914804F09149041086CE
:100F10000F900FBE61E0C8010E948018D12CE12C17
:100F2000F12CD6CD6BE0D80116968D919C91179738
:100F30000E94881C8C0162E175E00E94431C66E0FF
:100F4000C8010E94881C2BE088E190E00FB6F8945D
:100F5000A895809360000FBE20936000FFCFB1E0A2
:100F6000DB1609F437C0B2E0DB12B2CDEFEFEE16BC
:100F7000F10411F008F065C00FB6F8940F92E091FB
:100F80004204F0914304F186E0860F900FBE0FB645
:100F9000F8940F92E0914004F0914104A0860F90E4
:100FA0000FBEC8010E94B40360E0C8010E9480180F
:100FB000D12CE12CF12C8CCDD80116968D919C91E1
:100FC00017970E94881C6BE00E94881C4C0160ED02
:100FD00074E0D0CDEFEFEE16F10409F030F5BB2050
:100FE00019F0F194E194F1080FB6F8940F92E091A2
:100FF0004604F0914704F186E0860F900FBE0FB6CD
:10100000F8940F92E0914404F0914504A0860F906B
:101010000FBEC8010E94B40360E0C8010E9480189E
:10102000B12CD12CE12CF12C53CD6BE0D8011696CC
:101030008D919C9117970E94881C7C0168E574E053
:10104000B5CD6BE0D80116968D919C9117970E94B3
:10105000881C7C0166E274E0A9CDC1103EC0F80195
:10106000E680F780D701ED91FC910280F381E02DBD
:1010700062E2C7014F830995D701ED91FC9102808F
:10108000F381E02D4F81642FC70109956BE0C70103
:101090000E94881C7C0166EF73E00E94431C6BE099
:1010A000C7010E94881C7C0169EF73E07FCD6EE769
:1010B00073E0F801868197810E94431C09CDF801F5
:1010C00086819781DC01ED91FC910280F381E02D16
:1010D0006DE20995BB24B394FBCCF801868197811E
:1010E000DC01ED91FC910280F381E02D6FE7099521
:1010F000F80186819781DC01ED91FC910280F381FA
:10110000E02D60E20995F80186819781DC01ED917F
:10111000FC910280F381E02D6FE70995C701B201D0
:101120000E94082A7B01CA94D3CCF801868197815A
:10113000DC01ED91FC910280F381E02D642F4F835F
:1011400009959701220F331FEE0CFF1CEE0CFF1CBC
:10115000EE0CFF1C2E0D3F1D4F81E42EFF24E7FCFB
:10116000F094B0E3EB1AF108E20EF31EC394B0CC96
:1011700080914A0490914B04DC01ED91FC91048034
:10118000F581E02D0995882309F4A2CCD8011696A3
:10119000ED91FC9117970190F081E02D8280938072
:1011A00080914A0490914B04DC01ED91FC91068002
:1011B000F781E02D0995682FF80186819781F40168
:1011C000099586CCFC0171836083EAE7F0E08081B9
:1011D0008068808380818160808380818D7F80832F
:1011E000808184608083ECE7F0E08081806480838C
:1011F00080818F778083089580917C00887F8093A1
:101200007C0080917C006770682B60937C008091EB
:101210007A00806480937A0080917A0086FDFCCF0A
:1012200080917800909179000895403430F1ECE39A
:10123000F0E04CE3677080E090E020917C00287F34
:1012400020937C0020917C00262B20937C00209111
:101250007A00206420937A0020917A0026FDFCCF4A
:101260002091780030917900820F931F415029F727
:10127000BF010E94F429CB010895442319F0E42F03
:10128000F0E0D8CFE0E0F0E080E090E0BF010E9425
:10129000F429CB0108952F923F924F925F926F9263
:1012A0007F928F929F92AF92BF92CF92DF92EF92F6
:1012B000FF920F931F93CF93DF9300D000D000D005
:1012C000CDB7DEB79E838D8380917C00887F80932D
:1012D0007C0080917C00876080937C0080917A0004
:1012E000806480937A0080917A0086FDFCCF209103
:1012F00078003091790080917C00887F80937C0019
:1013000080917C00866080937C0080917A0080646C
:1013100080937A0080917A0086FDFCCF209078003F
:101320003090790080917C00887F80937C00809150
:101330007C00856080937C0080917A00806480933B
:101340007A0080917A0086FDFCCF40907800509022
:10135000790080917C00887F80937C0080917C0064
:10136000846080937C0080917A00806480937A000E
:1013700080917A0086FDFCCF009178001091790071
:1013800080917C00887F80937C0080917C008360CA
:1013900080937C0080917A00806480937A008091B1
:1013A0007A0086FDFCCFE0907800F0907900809183
:1013B0007C00887F80937C0080917C008260809399
:1013C0007C0080917A00806480937A0080917A001A
:1013D00086FDFCCFC0907800D090790080917C0091
:1013E000887F80937C0080917C00816080937C006A
:1013F00080917A00806480937A0080917A0086FDE3
:10140000FCCFA0907800B090790080917C00887F1C
:1014100080937C0080917C0080937C0080917A0096
:10142000806480937A0080917A0086FDFCCF809062
:1014300078009090790040917C0050917A006BE0A8
:101440008D819E812B833C834A8359830E94881C13
:101450003C016CE475E00E94431C5981652FC30177
:101460000E94BA1D66E00E94881C6BE00E94881CE6
:101470003C0165E575E00E94431C4A81642FC3016D
:101480000E94BA1D66E00E94881C6BE00E94881CC6
:101490003C016DE575E00E94431CB401C3010E944C
:1014A000381D66E00E94881C6BE00E94881C4C017D
:1014B00065E675E00E94431CB501C4010E94381D19
:1014C00066E00E94881C6BE00E94881C5C016DE64F
:1014D00075E00E94431CB601C5010E94381D66E0FC
:1014E0000E94881C6BE00E94881C6C0165E775E017
:1014F0000E94431CB701C6010E94381D66E00E948D
:10150000881C6BE00E94881C7C016DE775E00E94DE
:10151000431CB801C7010E94381D66E00E94881C68
:101520006BE00E94881C8C0165E875E00E94431CFA
:10153000B201C8010E94381D66E00E94881C6BE061
:101540000E94881C8C016DE875E00E94431CB1016B
:10155000C8010E94381D66E00E94881C6BE00E9452
:10156000881C8C0165E975E00E94431C2B813C813D
:10157000B901C8010E94381D66E00E94881C8D8157
:101580009E8126960FB6F894DEBF0FBECDBFDF91C9
:10159000CF911F910F91FF90EF90DF90CF90BF9070
:1015A000AF909F908F907F906F905F904F903F9003
:1015B0002F900895CF93DF93FC0171836083428362
:1015C00080918000816A8093800080918000809368
:1015D0008000809181008A608093810080918100E9
:1015E000809381008281813089F08230B9F0C0819E
:1015F000D181209781F06BE973E0CE010E94431CFA
:1016000066E0CE01DF91CF910C94881C87B1876092
:1016100087B9329A269ADF91CF9108958AB1806E68
:101620008AB94F9A259ADF91CF910895FC012281C2
:10163000213071F0223009F0089577FD18C08BB188
:101640008BB95E985D9A70938900609388000895C5
:1016500028B128B977FD13C04198409A70938B0048
:1016600060938A00FC018281823049F308958BB136
:101670008BB95E9A5D98719561957109E4CF419A35
:101680004098719561957109E9CFFC012281213063
:1016900039F0223009F008958BB180668BB9089536
:1016A00028B1236028B92281F4CFFC0122812130A6
:1016B00059F0223009F008958BB18BB970E0709326
:1016C000890060938800089528B128B9262F30E05A
:1016D00030938B0020938A002281EBCFEC0183E0D2
:1016E00090E00E940C1C8C016E817F8141E00E9481
:1016F000DA0A83E090E00E940C1C7C016E817F81FD
:1017000042E00E94DA0AE0914404F0914504DF01CE
:101710000FB6F8940F9210860F900FBE80E029C08C
:10172000A0914004B09141040FB6F8940F920F902D
:101730000FBE18968C911897813009F469C02091DA
:101740003E0430913F040FB6F8940F920F900FBEF5
:10175000E9018885813009F430C064E670E080E0FA
:1017600090E00E947B14E0914404F0914504DF0175
:1017700080850FB6F8940F920F900FBE813081F6DE
:101780000FB6F8940F92C0914804D091490488850F
:101790000F900FBE813009F46FC00FB6F8940F920E
:1017A0000F900FBE823009F4B7C00FB6F8940F92B5
:1017B00018961C920F900FBEB3CF0FB6F8940F92ED
:1017C0008091480490914904EC0188850F900FBEE8
:1017D000813009F441C00FB6F8940F920F900FBEFC
:1017E000823009F489C0E9010FB6F8940F9210868F
:1017F0000F900FBE0FB6F8940F9218961C920F9090
:101800000FBE0FB6F8940F9218860F900FBEA5CF9B
:101810000FB6F8940F92C0914804D091490488857E
:101820000F900FBE813009F43BC00FB6F8940F92B1
:101830000F900FBE823009F449C00FB6F8940F9292
:1018400010860F900FBE0FB6F8940F9218961C9248
:1018500018970F900FBE73CFC8010E94450BC0911F
:101860003E04D0913F04E0914404F0914504A091DE
:101870004004B0914104B8CF0FB6F8940F920F9086
:101880000FBEE0914604F091470460857185C80160
:101890000E94160BE0914404F0914504DF0185CFCE
:1018A0000FB6F8940F920F900FBEE0914204F091A2
:1018B00043046085C8010E94550BA0914004B0917B
:1018C0004104E0914404F0914504B7CF0FB6F89479
:1018D0000F920F900FBEE0914204F0914304608597
:1018E000C7010E94550BA0914004B0914104E091C2
:1018F0004404F0914504A1CFC7010E94450BC0915B
:101900003E04D0913F04E0914404F0914504A0913D
:101910004004B091410468CF0FB6F8940F920F9035
:101920000FBEE0914604F091470460857185C701C0
:101930000E94160BE0914404F0914504DF0135CF7D
:101940000F931F93CF93DF93EC010E94CA1780ED92
:1019500093E099838883DF91CF911F910F91089530
:10196000CF93DF93CDB7DEB728970FB6F894DEBFDD
:101970000FBECDBF8C010E94741269837A838B8362
:101980009C8382E090E00E940C1CF80166817781C4
:1019900047E00E94A10D82E090E00E940C1CF8013B
:1019A0006681778143E00E94A10D87EAC82ED12C81
:1019B000E12CF12C13C0A401B5014F5F5F4F6F4FB5
:1019C0007F4FF80146875787608B718B45E050E069
:1019D00060E070E0CE0101960E941414F801868444
:1019E0009784A088B188B401C501A70196010E941F
:1019F0001C2A672B682B692BF1F6E0913C04F091CF
:101A00003D040FB6F8940F928085918598878F8357
:101A10000F900FBE8F8098846BE0F80186819781CC
:101A20000E94881C5C0162ED75E00E94431C62E02C
:101A3000C5010E94881CB4010E94381D66E00E9406
:101A4000881C0FB6F8940F92E0913004F0913104A5
:101A5000808491840F900FBE6BE0F801868197819E
:101A60000E94881C5C0161EC75E00E94431C62E0EE
:101A7000C5010E94881CB4010E94381D66E00E94C6
:101A8000881CE0913A04F0913B040FB6F8940F9251
:101A9000808591859E838D830F900FBE8D809E8063
:101AA0006BE0F801868197810E94881C5C016EEAD8
:101AB00075E00E94431C62E0C5010E94881CB401CD
:101AC0000E94381D66E00E94881C0FB6F8940F92A1
:101AD000E0912E04F0912F04808491840F900FBE2A
:101AE0006BE0F801868197810E94881C5C016DE99A
:101AF00075E00E94431C62E0C5010E94881CB4018D
:101B00000E94381D66E00E94881C66E0F80186810C
:101B100097810E94881CF8014685578560897189E4
:101B20004CCF0F931F93CF93DF93EC010E94CA1702
:101B300088ED93E099838883DF91CF911F910F9176
:101B40000895CF93DF93DC016D937C93E0913C0487
:101B5000F0913D040FB6F8940F92118610860F9005
:101B60000FBEE0913A04F0913B040FB6F8940F9247
:101B7000118610860F900FBEE0913804F091390461
:101B80000FB6F8940F9210860F900FBEE0913604B6
:101B9000F09137040FB6F8940F9210860F900FBE95
:101BA000E0913404F09135040FB6F8940F9210864A
:101BB0000F900FBEE0913204F09133040FB6F89409
:101BC0000F9210860F900FBE60916A00242F30E0B4
:101BD00081E090E0FC01042E01C0EE0F0A94EAF7C8
:101BE0005E2F5095562350936A0050916A00B901B8
:101BF00061507109EC0102C0CC0FDD1F6A95E2F75C
:101C0000BE015C2B50936A0050916A00D901129773
:101C1000EC0102C0CC0FDD1FAA95E2F7DE01A09512
:101C2000A523A0936A0050916A00D9011397EC0193
:101C300002C0CC0FDD1FAA95E2F75C2B50936A001F
:101C4000473011F1433049F08DB18F708DB98EB1AD
:101C5000806F8EB9DF91CF9108956DB3A9014E5F6A
:101C60005F4FFC0102C0EE0FFF1F4A95E2F76E2B9B
:101C70006DBB4DB32F5F3F4F022E01C0880F0A94FA
:101C8000EAF7482B4DBBE0CF8DB38E2B8DBB8DB3C8
:101C9000862B8DBBD9CF1F920F920FB60F921124B6
:101CA0000BB60F928F939F93AF93BF93EF93FF93D6
:101CB000CF93DF93CDB7DEB72597DEBFCDBFE091E1
:101CC0003604F09137040FB6F8940F9280858D8317
:101CD0000F900FBE8D81A0913804B09139040FB6DA
:101CE000F8940F9218968C9318970F900FBE9CB192
:101CF0008CB180729071892B90E095958795959520
:101D0000879595958795959587950FB6F8940F9239
:101D100080870F900FBE18968C91813009F454C0C3
:101D200008F442C0823039F1833089F480858130F3
:101D300009F451C08085823009F03CC0E0913C0438
:101D4000F0913D04808591850197918780870F9060
:101D50000F900F900F900F90DF91CF91FF91EF9127
:101D6000BF91AF919F918F910F900BBE0F900FBEBF
:101D70000F901F9018958085833069F180858111BF
:101D800019C0E0913C04F0913D040FB6F8940F9215
:101D9000808591859A8389830F900FBE89819A816E
:101DA000019791878087D3CF80858230A1F080858D
:101DB0008130D9F0E0913004F09131048085918533
:101DC000019691878087C3CF8085882321F0808505
:101DD000833081F7B3CFE0913C04F0913D048085DE
:101DE0009185019691878087B2CFE0913C04F09174
:101DF0003D040FB6F8940F92808591859C838B8368
:101E00000F900FBE8B819C810197918780879FCF18
:101E10000C944B0E1F920F920FB60F9211240BB61B
:101E20000F928F939F93AF93BF93EF93FF93E091A4
:101E30003204F09133048085A0913404B0913504CC
:101E400018968C9318979CB18CB180789074892BDC
:101E500090E0082E892F000C881F990B000C881F1A
:101E6000991F808718968C918130C1F138F18230AA
:101E700049F08330B1F480858130B9F180858230BA
:101E800019F506C08085833081F1808581111CC0E1
:101E9000E0913A04F0913B04808591850197918708
:101EA0008087FF91EF91BF91AF919F918F910F909C
:101EB0000BBE0F900FBE0F901F901895808582303B
:101EC000A1F08085813021F3E0912E04F0912F0460
:101ED00080859185019691878087E3CF80858823CF
:101EE00021F08085833081F7D3CFE0913A04F091DF
:101EF0003B0480859185019691878087D2CF0C9491
:101F00000A0F0F931F93CF93DF93EC010E946E1281
:101F100080914C04811121C086E594E09093520495
:101F200080935104109254041092530487E397E174
:101F30009093500480934F0410924E0410924D04DD
:101F400090935904809358048DE494E0909357043F
:101F50008093560481E080934C04209709F460C07C
:101F6000AE014C5F5F4F2396C633D74108F058C08F
:101F7000E0915104F0915204A1E5B4E006C08081E3
:101F80009181009739F0DF01FC0122813381241710
:101F90003507A8F3C4E0ED34FC0709F441C00D9106
:101FA0001C9111970C5F1F4F808191818D939C93A1
:101FB000C901841B950B8930910500F1BF01640FA5
:101FC000751FDB0113969C938E9312975383428364
:101FD00012968D919C911397A1E5B4E001C0DF01A9
:101FE000ED91FC9111972281338128173907B8F3BD
:101FF000EB01F983E8836D937C939A018091000251
:1020000090910102821B930B909301028093000236
:102010000E94A113C801DF91CF911F910F910895E4
:1020200000E010E00E94A113C801DF91CF911F9141
:102030000F910895CF93DF93009721F1EC0124973E
:102040000E946E124A815B81A1E5B4E001C0DF010C
:10205000ED91FC9111972281338124173507B8F354
:10206000F983E883CD93DC93809100029091010283
:10207000840F951F9093010280930002DF91CF910E
:102080000C94A113DF91CF9108958091000290915B
:102090000102089508958091C21B823018F00E94B9
:1020A0003821F9CFFFCFCF92DF92EF92FF926B01F1
:1020B0007C01E0918D1BF0918E1B6283738384837E
:1020C00095838091961B9091971BA091981BB0913E
:1020D000991B60918D1B70918E1BC816D906EA065C
:1020E000FB0610F18091AA1B9091AB1B6E5F7F4F96
:1020F0000E94FF1F8091020290910302A0910402AE
:10210000B0910502C816D906EA06FB0640F4C09253
:102110000202D0920302E0920402F0920502FF90C4
:10212000EF90DF90CF9008958091A81B9091A91B0C
:102130006E5F7F4FFF90EF90DF90CF900C94FF1F6A
:102140005F926F927F928F929F92AF92BF92CF9247
:10215000DF92EF92FF920F931F93CF93DF934C0187
:10216000162F572E5A01390189E290E00E94810F03
:10217000EC01009709F4E9C0C114D10409F4DAC0F4
:10218000DC8ECB8EC601A50165EA70E00E94712B42
:1021900021E0A21AB108CB8CDC8CCA0CDB1CAE018E
:1021A000435E5F4FE12FF52D2AE0CF013191DA0137
:1021B0003D93AD01DC018C91882311F02150A9F7EA
:1021C0001EA2102F043008F07DC01A8F1FA318A67E
:1021D0005E01B2E0AB0EB11CC5010E94DA1FCE0158
:1021E0000E960E94DA1FDB87CA8784E090E0A0E0A9
:1021F000B0E0811B9109A109B1098E879F87A88B47
:10220000B98BDF8BCE8BA301B401C6010E9468207D
:1022100099838883E114F10419F0F701D183C08315
:102220000FB6F8940F9280919A1B8F5F80939A1B40
:1022300080918D1B90918E1B892B09F449C0809150
:10224000941B81110BC0E0918D1BF0918E1B828D30
:10225000081720F0D0938E1BC0938D1B8091901B8C
:102260008F5F8093901B8A8D9091951B981738F102
:10227000FBE08F9FC0011124B5018E53944E0E9444
:10228000DE1F0F900FBE8091941B882339F0E091E0
:102290008D1BF0918E1B828D8017B0F081E0DF9155
:1022A000CF911F910F91FF90EF90DF90CF90BF9053
:1022B000AF909F908F907F906F905F9008958093E4
:1022C000951BD6CF13E081CF0E94382181E0E7CF64
:1022D000D0938E1BC0938D1B80919A1B813009F087
:1022E000BDCF82EC9BE10E94C91F8DEC9BE10E9457
:1022F000C91F88ED9BE10E94C91F83EE9BE10E94EC
:10230000C91F87EB9BE10E94C91F8CEA9BE10E94D9
:10231000C91F8DE99BE10E94C91F87EB9BE1909348
:10232000AB1B8093AA1B8CEA9BE19093A91B809323
:10233000A81B94CFC5010E94810F9C8F8B8F0097A3
:1023400009F021CFCE010E941A108FEFA8CF0FB64F
:10235000F8940F92009729F00F900FBEFC01828D28
:10236000089580918D1B90918E1B0F900FBEFC01E4
:10237000828D0895EF92FF921F93CF93DF93EC012C
:10238000262F643008F023E00FB6F8940F922097C0
:1023900009F44AC03FA13217A9F180918D1B909199
:1023A0008E1B3217B8F5C817D90741F0E0918D1B85
:1023B000F0918E1B11E0828D281708F410E08A8DB1
:1023C000381769F12FA34E855F856889798977FD74
:1023D0000CC044E050E060E070E0421B510961092C
:1023E00071094E875F87688B798B2BE0829FC001D4
:1023F00011248E53944E2C853D8528173907C9F03A
:10240000113079F00F900FBEDF91CF911F91FF90A7
:10241000EF90089511E0C817D90781F6D0CF2A8F21
:10242000D1CF0E943821EECFC0918D1BD0918E1B51
:10243000B1CF7E0182E0E80EF11CC7010E943C2072
:102440008A8D9091951B981710F48093951B2BE023
:10245000829FC0011124B7018E53944E0E94DE1F4B
:10246000CFCFAF92BF92CF92DF92EF92FF920F93B6
:10247000A12CB12CC12CD12C8BE9E82E8BE1F82EAC
:1024800000E020E030E044E650E06CED73E08BE4E7
:1024900090E10E94A010813041F00F91FF90EF90E9
:1024A000DF90CF90BF90AF900895F8948093941BE5
:1024B0001092961B1092971B1092981B1092991BCA
:1024C0000F91FF90EF90DF90CF90BF90AF900C9462
:1024D000FC20F8941092941B0C94372180918F1B50
:1024E0008F5F80938F1B08950FB6F8940F926091C1
:1024F000961B7091971B8091981B9091991B0F9040
:102500000FBE08956091961B7091971B8091981B48
:102510009091991B089580919A1B0895009711F04E
:102520004D96089580918D1B90918E1B4D96089528
:1025300080919B1B90919C1B0895AF92BF92CF926C
:10254000DF92EF92FF920F931F93CF93DF938091CF
:102550008F1B8111CFC08091961B9091971BA091EA
:10256000981BB091991B0196A11DB11D8093961BDC
:102570009093971BA093981BB093991BC090961BA8
:10258000D090971BE090981BF090991BC114D10438
:10259000E104F10439F58091AA1B9091AB1B2091C5
:1025A000A81B3091A91B3093AB1B2093AA1B9093BF
:1025B000A91B8093A81B8091911B8F5F8093911B17
:1025C000E091AA1BF091AB1B808181119AC08FEF23
:1025D0009FEFDC018093020290930302A093040218
:1025E000B09305028091020290910302A09104022F
:1025F000B0910502B12CC816D906EA06FB0608F40C
:1026000057C09BE0A92EE091AA1BF091AB1B8081E3
:10261000882309F442C0E091AA1BF091AB1B07800C
:10262000F085E02DC085D1854A815B816C817D81FB
:10263000C416D506E606F70608F47AC08E010E5FCA
:102640001F4FC8010E943C20888D998D892B21F055
:10265000CE010E960E943C208A8D9091951B981772
:1026600010F48093951BA89EC0011124B8018E53CD
:10267000944E0E94DE1FE0918D1BF0918E1B9A8D6F
:10268000828D981708F4BFCFBB24B394E091AA1BA6
:10269000F091AB1B80818111BECF4FEF5FEFBA018C
:1026A0004093020250930302609304027093050268
:1026B000E0918D1BF0918E1BE28D8BE0E89FF00185
:1026C0001124EE53F44E8081823010F0BB24B39479
:1026D0008091921B882311F0BB24B3948B2DDF9142
:1026E000CF911F910F91FF90EF90DF90CF90BF900F
:1026F000AF9008958091931B8F5F8093931BB12CB3
:10270000E7CFE091AA1BF091AB1B0780F085E02D8D
:102710000084F185E02D82819381A481B58180932D
:10272000020290930302A0930402B09305025ACFD1
:1027300040930202509303026093040270930502D7
:10274000B7CFEF92FF920F931F93CF93DF930FB604
:10275000F8940F9280918F1B815080938F1B8091F2
:102760008F1B811150C080919A1B882309F44BC0A4
:102770002BE0F22EEE24E39427C0E091A41BF0910D
:10278000A51BC085D185CE010E960E943C208E01EE
:102790000E5F1F4FC8010E943C208A8D9091951BAF
:1027A000981710F48093951BF89EC0011124B8016E
:1027B0008E53944E0E94DE1FE0918D1BF0918E1B74
:1027C0009A8D828D981748F580919D1B8111D5CFE8
:1027D0008091931B882399F08091931B882379F033
:1027E000C1E00E949D128111C093921B8091931BA6
:1027F00081508093931B8091931B8111F2CF809124
:10280000921B813069F080E00F900FBEDF91CF9175
:102810001F910F91FF90EF900895E092921BD4CFFB
:102820000E94382181E0F0CFCF92DF92EF92FF92A9
:102830000F931F93CF93DF9300D000D0CDB7DEB7B7
:1028400020918F1B2F5F20938F1BC090961BD090E1
:10285000971BE090981BF090991BFC01008111815F
:1028600022813381400F511F621F731FC016D10692
:10287000E206F306E8F44017510762077307E8F031
:10288000FC0140835183628373830E94A1138111F1
:1028900002C00E9438210F900F900F900F90DF918F
:1028A000CF911F910F91FF90EF90DF90CF900895FF
:1028B000401751076207730728F0C416D506E606CD
:1028C000F706F0F6FC0140835183628373838091A5
:1028D0008D1B90918E1B029649835A836B837C8358
:1028E0000E943C2049815A816B817C81CB01BA01D5
:1028F0000E945310CACFCF92DF92EF92FF926115E0
:1029000071058105910539F40E943821FF90EF90FF
:10291000DF90CF90089520918F1B2F5F20938F1B06
:10292000C090961BD090971BE090981BF090991B3D
:10293000C60ED71EE81EF91E80918D1B90918E1B2E
:1029400002960E943C20C701B6010E9453100E94CB
:10295000A1138823C9F2FF90EF90DF90CF900895E4
:1029600080918F1B81113BC01092921BE091951BAF
:102970008BE0E89FF0011124EE53F44E8081811129
:1029800010C09BE08091951B81508093951BE09136
:10299000951B9E9FF0011124EE53F44E80818823F5
:1029A00089F3E091951B8BE0E89FF0011124EE5331
:1029B000F44EA181B28114960D90BC91A02DB283EA
:1029C000A183CF010396A817B90769F018968D91D6
:1029D0009C91199790938E1B80938D1B089581E095
:1029E0008093921B089514969C91149715968C9140
:1029F00091838283A92FB82FE9CFCF92DF92EF92F4
:102A0000FF926A017B0160918D1B70918E1B625F4A
:102A10007F4F0E94FF1F80918D1B90918E1B02960D
:102A20000E943C206091961B7091971B8091981B8F
:102A30009091991B6C0D7D1D8E1D9F1DFF90EF9039
:102A4000DF90CF900C945310CF92DF92EF92FF92D1
:102A50000F931F9368017901E0918D1BF0918E1BFC
:102A6000706846875787608B718B60918D1B709162
:102A70008E1B625F7F4F0E94DE1F80918D1B9091A5
:102A80008E1B02960E943C206091961B7091971BB2
:102A90008091981B9091991B6C0D7D1D8E1D9F1D23
:102AA0001F910F91FF90EF90DF90CF900C945310F7
:102AB0000F931F93CF93DF93DC011796ED91FC9159
:102AC0001897C085D1858E01025F1F4FC8010E94F3
:102AD0003C2080918F1B811124C08E010E5F1F4FFF
:102AE000C8010E943C208A8D9091951B9817F8F0A0
:102AF000BBE08B9FC0011124B8018E53944E0E94FD
:102B0000DE1FE0918D1BF0918E1B9A8D828D8917AF
:102B100088F481E08093921BDF91CF911F910F91F8
:102B20000895B8018DE99BE10E94DE1FEACF8093F2
:102B3000951BDECF80E0DF91CF911F910F9108951B
:102B40000F931F93CF93DF937068FC0140835183F1
:102B500062837383C085D1850E943C208E010E5F05
:102B60001F4FC8010E943C208A8D9091951B981799
:102B700010F48093951BFBE08F9FC0011124B801D6
:102B80008E53944E0E94DE1FE0918D1BF0918E1BA0
:102B90009A8D828D891740F481E08093921BDF919A
:102BA000CF911F910F91089580E0DF91CF911F91F8
:102BB0000F9108952091911BFC0120834091961B59
:102BC0005091971B6091981B7091991B4183528380
:102BD0006383748308958F929F92AF92BF92CF9236
:102BE000DF92EF92FF920F931F93FC01DB010FB670
:102BF000F8940F924091961B5091971B6091981BEF
:102C00007091991B8091911B908101811281238188
:102C10003481981729F0401751076207730770F540
:102C2000CD90DD90ED90FC9013974A015B01801AE6
:102C3000910AA20AB30A8C149D04AE04BF04F0F4F6
:102C4000C41AD50AE60AF70AC00ED11EE21EF31E08
:102C5000CD92DD92ED92FC9213978091911B80832F
:102C60008091961B9091971BA091981BB091991BF6
:102C700081839283A383B48380E001C081E00F90BD
:102C80000FBE1F910F91FF90EF90DF90CF90BF90FC
:102C9000AF909F908F90089581E08093921B08954C
:102CA000009799F0DC015B96ED91FC915C97808137
:102CB000853A81F4319680E090E0DC010196A11D17
:102CC000B11D2191253AD1F3089580918D1B9091EA
:102CD0008E1BE8CF80E0089580918D1B90918E1B14
:102CE00008950F931F93CF93DF93EC01009781F129
:102CF0008A8DE0918D1BF0918E1B928D891740F586
:102D00004E855F856889798977FD11C0E0918D1BBB
:102D1000F0918E1B928D44E050E060E070E0491B22
:102D20005109610971094E875F87688B798B2BE0A8
:102D3000829FC00111248E53944E2C853D85281707
:102D4000390759F0E0918D1BF0918E1B828D8A8F8F
:102D5000DF91CF911F910F9108958E010E5F1F4F4C
:102D6000C8010E943C20E0918D1BF0918E1B828D4A
:102D70008A8F9091951B981710F48093951B2BE0E8
:102D8000829FC0011124B8018E53944EDF91CF91E0
:102D90001F910F910C94DE1F0F931F93CF93DF931E
:102DA000EC01009749F088A5815088A72A8D9FA142
:102DB000291711F0882331F080E0DF91CF911F9126
:102DC0000F9108958E010E5F1F4FC8010E943C2095
:102DD0008FA18A8F44E050E060E070E0481B510909
:102DE000610971094E875F87688B798B9091951B7C
:102DF000981710F48093951B2BE0829FC00111243B
:102E0000B8018E53944E0E94DE1F81E0DF91CF9176
:102E10001F910F910895CF92DF92EF92FF92E09170
:102E20008D1BF0918E1B6685778580899189E09155
:102E30008D1BF0918E1BA0918D1BB0918E1B5A960D
:102E40002C9134E0C32ED12CE12CF12CC21AD108E4
:102E5000E108F108C686D786E08AF18AFF90EF90F4
:102E6000DF90CF90089580918D1B90918E1B892BC0
:102E700039F0E0918D1BF0918E1B80A58F5F80A7AC
:102E800080918D1B90918E1B0895EF92FF920F936E
:102E90001F93CF93DF9300D0CDB7DEB77C0185EED3
:102EA00093E0F7019183808361157105C1F0FB0107
:102EB00001900020E9F73197E61BED3020F50E2F49
:102EC00010E0C801019669837A830E94131CF70100
:102ED00095838483A80169817A810E94782B8091EF
:102EE000EE1B9091EF1BF70197838683F092EF1B07
:102EF000E092EE1B0F900F90DF91CF911F910F91F9
:102F0000FF90EF900895ECE0DACF0F931F93CF93EB
:102F1000DF93EC018091EE1B9091EF1B6BE0892B0E
:102F200049F1CE010E94881C8C0166E276E00E9485
:102F3000431C66E0C8010E94881C6BE0CE010E9421
:102F4000881C8C0163E076E00E94431C66E0C801A7
:102F50000E94881C8091EE1B9091EF1BDC01ED918B
:102F6000FC910190F081E02DBE01DF91CF911F9186
:102F70000F910994CE010E94881CEC0165EE75E06A
:102F80000E94431C66E0CE01DF91CF911F910F910B
:102F90000C94881C4F925F926F927F928F929F92B7
:102FA000AF92BF92CF92DF92EF92FF920F931F9357
:102FB000CF93DF93EC013B0149012801FC018BEE2B
:102FC00093E081939193A12CB12CC12CD12C7F0142
:102FD000042F9E01A40187E999E20E94A0105F825C
:102FE0004E82998688862091F01B3091F11B3D839B
:102FF0002C83D093F11BC093F01B1C861D86809000
:10300000FE1B9090FF1B9FEF891A990A9092FF1B5D
:103010008092FE1B9B868A861E861F86188A198AC6
:103020004114510409F44CC06BE0813041F1C201FC
:103030000E94881CEC0169E476E00E94431CB30105
:10304000CE010E94431CE881F9810280F381E02DCA
:1030500062E2CE01099566E0CE01DF91CF911F912A
:103060000F91FF90EF90DF90CF90BF90AF909F9027
:103070008F907F906F905F904F900C94881CC2014E
:103080000E94881CEC016FE576E00E94431CB301AE
:10309000CE010E94431C6BE0CE010E94881CEC0113
:1030A00066E676E00E94431C63E0CE010E94881C25
:1030B000B4010E94381D62E00E94881C66E0CDCFFA
:1030C000DF91CF911F910F91FF90EF90DF90CF9004
:1030D000BF90AF909F908F907F906F905F904F9038
:1030E0000895EC01E881F9810190F081E02D0995C6
:1030F0001B821A826FEF7FEFCB010E947B14FACF05
:10310000FC01648765870895FC01C681D7812097FB
:1031100039F0CE010E94431C66E0CE010E94881C5B
:103120002BE088E190E00FB6F894A89580936000BA
:103130000FBE20936000FFCF0E9474120E94DA2A13
:1031400020E030E04AE754E40E94722A0895CF92CA
:10315000DF92EF92FF920F931F93CF93DF93EC01D7
:103160007B018A819B810E948E126C016BE0C701FA
:103170000E94881C8C016DE776E00E94431CB6011A
:10318000C8010E94431C66E0C8010E94881C8A8511
:103190009B8528853985A701BC01821B930B0E9462
:1031A0008C1B0C80DD81C02D2097D9F6DF91CF914B
:1031B0001F910F91FF90EF90DF90CF9008950F93A4
:1031C0001F93CF93DF93EC018091F01B9091F11B43
:1031D000009719F0BE010E94A7186BE0CE010E9473
:1031E000881C8C0164E876E00E94431C66E0C801FC
:1031F0000E94881C8091FE1B9091FF1BBC016F5F99
:103200007F4FAE0183569109DF91CF911F910F91AE
:103210000C948C1B8F929F92AF92BF92CF92DF92B1
:10322000EF92FF920F931F93CF93DF93EC018B01EB
:103230008A819B810E948E12BC01C8010E94431C9E
:10324000D801ED91FC910280F381E02D69E0C80185
:1032500009958A819B810E948E12FC0101900020B9
:10326000E9F73197E81BF90B389748F4D801ED914D
:10327000FC910280F381E02D69E0C8010995CE84BC
:10328000DF84E888F988A884B9848A819B810E94B8
:103290005016982E8C848A819B810E94A711682FDA
:1032A000C8010E94BA1D6BE00E94881CEC0168EF07
:1032B00076E00E94431C682DCE010E94BA1D6BE08F
:1032C0000E94881CEC016AEF76E00E94431C692D85
:1032D000CE010E94BA1D6BE00E94881CEC016CEFCD
:1032E00076E00E94431CB501CE010E94381D6BE0C0
:1032F0000E94881CEC016EEF76E00E94431C6BE09C
:10330000CE010E94881CEC0160E077E00E94431C23
:10331000B701A601CE01DF91CF911F910F91FF90D0
:10332000EF90DF90CF90BF90AF909F908F900C94D4
:10333000721D0F931F93CF93DF93EC018B01E881F4
:10334000F9810280F381E02DB801CE01099566E094
:10335000C8010E94881C0C80DD81C02D209779F760
:10336000DF91CF911F910F910895CF93DF93EC01DF
:10337000CB01DB01ED91FC910280F381E02DBE01D8
:103380000995CE01DF91CF9108950F931F93CF93AD
:10339000DF93EC016BE00E94881C8C0166EE76E006
:1033A0000E94431C6BE0C8010E94881C8C0161EFE5
:1033B00076E00E94431C66E0C8010E94881C6BE016
:1033C000CE010E94881C8C0163EC76E00E94431CB5
:1033D0006BE0C8010E94881C8C0164ED76E00E94BD
:1033E000431C6BE0C8010E94881C8C0160EE76E0F3
:1033F0000E94431C66E0C8010E94881C6BE0CE015D
:103400000E94881C8C0160EA76E00E94431C6BE0FD
:10341000C8010E94881C8C0161EB76E00E94431C6D
:103420006BE0C8010E94881C8C016DEB76E00E9465
:10343000431C66E0C8010E94881C8091F01B90919B
:10344000F11B009719F0BE010E9499190E94981271
:103450000E945016182F6BE0CE010E94881CEC01D0
:103460006FE876E00E94431C612FCE010E94BA1DD6
:103470006BE00E94881CEC016AE976E00E94431C24
:1034800064E670E0CE010E94381D6BE00E94881C4B
:10349000EC016CE976E00E94431C66E0CE01DF910E
:1034A000CF911F910F910C94881CCF92DF92EF92D5
:1034B000FF920F931F93CF93DF937C018B01DC016D
:1034C0001A966D917C911B97C8010E94431CF701CD
:1034D000A285B385FD0101900020E9F73197DE2E2A
:1034E000DA1AFFE0FD1580F0C0E0D0E0D801ED91E0
:1034F000FC910280F381E02D60E2C80109952196DC
:103500008C2F8D0D803190F36FEE73E0C8010E9417
:10351000431CD7015696CD90DC9057971E968D91FF
:103520009C911F970E949125682FC8010E94BA1D87
:10353000EC01E881F9810280F381E02D6FE20995C9
:10354000B601CE010E94381DDC01ED91FC91028094
:10355000F381E02D69E0099566E0C8010E94881CAE
:10356000F70184859585009781F0DC01ED91FC9150
:103570000190F081E02DB801DF91CF911F910F9163
:10358000FF90EF90DF90CF900994DF91CF911F9142
:103590000F91FF90EF90DF90CF9008956F927F9200
:1035A0008F929F92AF92BF92CF92DF92EF92FF9253
:1035B0000F931F93CF93DF93EC01762E672E4A0172
:1035C0005901670178010E94381CB401CE010696AA
:1035D0000E9445178AEF93E0998388832CE034E0BA
:1035E0003F832E83BD8AAC8A40E061E0872D0E9434
:1035F00002239F878E87C88AD98AEA8AFB8A7E8AB5
:103600006F8ADF91CF911F910F91FF90EF90DF9024
:10361000CF90BF90AF909F908F907F906F900895C4
:1036200006970C94551ACF92DF92EF92FF920F9368
:103630001F93CF93DF93CDB7DEB72F970FB6F894D4
:10364000DEBF0FBECDBF8C017B01DB016D917D9193
:103650008D919C9128EE33E040E050E00E941C2ABE
:10366000BA01A901C8010E94721DD801ED91FC9117
:103670000280F381E02D6EE2C8010995C7010E9426
:10368000BA256E01B9E0CB0ED11C7E01EFE0EE0E43
:10369000F11C2AE030E040E050E00E943E2AE62F94
:1036A00029833A834B835C8369817A818B819C81F6
:1036B000E05DD701EE937D01AC15BD0551F71F8686
:1036C000BD01C8010E94431CC8012F960FB6F89493
:1036D000DEBF0FBECDBFDF91CF911F910F91FF9045
:1036E000EF90DF90CF900895CF93DF93EC010FB66A
:1036F000F8940F9280912401909125019D838C83F1
:103700000E947412688379838A839B830F900FBE13
:10371000CE01DF91CF9108958F929F92AF92BF9289
:10372000CF92DF92EF92FF920F931F93CF93DF938D
:103730006C014B01EA0163E0CA010E94881CC814B5
:10374000D90408F059C0560184E1A80EB11C7501D6
:10375000B601CE010E94381D6BE00E94881C62E019
:1037600077E00E94431C8601F80161918F01CE0130
:103770000E94BA1DE881F9810280F381E02D60E2A8
:10378000CE0109950E151F0579F7E881F9810280B0
:10379000F381E02D60E2CE0109950FC080EE860F27
:1037A000E881F9810280F381E02D8F3508F06EE227
:1037B000CE010995CE14DF0481F0F60161916F010D
:1037C000653A61F7E881F9810280F381E02D60E2DA
:1037D000CE010995CE14DF0481F7650166E0CE01C4
:1037E0000E94881CF4E1EF0EF11CA814B90420F427
:1037F000C50144965C01ACCF62E0CE01DF91CF9170
:103800001F910F91FF90EF90DF90CF90BF90AF90FE
:103810009F908F900C94881C0C94810F009711F04E
:103820000C941A1008950C94810F009711F00C94C9
:103830001A100895FC0181E090E02081222311F00C
:1038400080E090E0089521E0FC0120830895089530
:10385000089581E0089580E0089580E00895089536
:10386000DC01ED91FC910280F381E02D6CE0099484
:10387000FC0182E194E0918380838AE0828383E08B
:103880008583148208950F931F93CF93DF93EC01E8
:10389000FB018C81811117C06081662379F08F0153
:1038A0000F5F1F4FE881F9810280F381E02DCE0187
:1038B0000995F80161918F016111F4CFDF91CF91EA
:1038C0001F910F9108951C828B010F5F1F4F649110
:1038D0006623A1F3A881B9811296ED91FC9113970B
:1038E000CE010995F80164910F5F1F4F6111F2CF6E
:1038F000E5CF883008F087E08093070289E00895DB
:103900009EEF980F9F3010F4809306028AE008958E
:10391000CF93DF93EC01462F50E04C30510538F443
:10392000FA01EA59FF4F0C945D2A82E08A83CE01A6
:10393000DF91CF91089581E08C83F9CF88E08A836D
:10394000F6CF8AE08A83F3CF80E18A83F0CFE881E3
:10395000F9810280F381E02D6DE00995E881F9811C
:103960000280F381E02D6AE0CE010995E0CFE88185
:10397000F9810284F385E02D0995D9CFE881F98199
:103980000084F185E02D0995D2CF809107028D83C7
:10399000CECF809106028A83CACF0F931F93CF9315
:1039A000DF93CDB7DEB761970FB6F894DEBF0FBED9
:1039B000CDBF8C01CB01F80122812A3079F0C801FA
:1039C0000E94381DC80161960FB6F894DEBF0FBE85
:1039D000CDBFDF91CF911F910F9108954AE050E044
:1039E000BE016F5F7F4F0E94872BBE016F5F7F4FCD
:1039F000C8010E94431CE6CF0F931F93CF93DF9320
:103A000000D000D01F92CDB7DEB78C01862FD80131
:103A100013969C911397911112C0F80192819A30DC
:103A2000B1F0C8010E94BA1DC8010F900F900F900D
:103A30000F900F90DF91CF911F910F910895ED910D
:103A4000FC910280F381E02DC8010995EDCF4AE099
:103A500050E0BE016F5F7F4F992787FD90950E94D0
:103A6000872BBE016F5F7F4FC8010E94431CDCCFD4
:103A7000FF920F931F93CF93DF93CDB7DEB761977C
:103A80000FB6F894DEBF0FBECDBF8C01F62E972F78
:103A9000F8014281403191F0483081F0423071F0BC
:103AA00050E0BE016F5F7F4F8F2D0E94CD2BBE0176
:103AB0006F5F7F4FC8010E94431C07C0692FC80178
:103AC0000E94BA1D6F2D0E94BA1DC80161960FB6E3
:103AD000F894DEBF0FBECDBFDF91CF911F910F9144
:103AE000FF900895DF92EF92FF920F931F93CF9371
:103AF000DF93CDB7DEB7A1970FB6F894DEBF0FBE48
:103B0000CDBF8C01D42EE52EF62E972FF801228101
:103B10002031A1F0283091F0223081F030E0AE0168
:103B20004F5F5F4F6D2D7E2D8F2D0E94A82BBE0104
:103B30006F5F7F4FC8010E94431C0DC0692FC801F1
:103B40000E94BA1D6F2D0E94BA1D6E2D0E94BA1DD3
:103B50006D2D0E94BA1DC801A1960FB6F894DEBF64
:103B60000FBECDBFDF91CF911F910F91FF90EF90CE
:103B7000DF900895CF92DF92EF92FF920F931F9301
:103B8000CF93DF93CDB7DEB729970FB6F894DEBF9A
:103B90000FBECDBF8C01D62EDC0113968C911397EE
:103BA00081115DC0F80142814230D9F14031F1F01C
:103BB00050E0BE016F5F7F4F8D2D90E00E94CD2BB6
:103BC000BE016F5F7F4FC8010E94431CC801299648
:103BD0000FB6F894DEBF0FBECDBFDF91CF911F911E
:103BE0000F91FF90EF90DF90CF90089562956F70E6
:103BF0000190F081E02D0280F381E02D6A30B8F56C
:103C0000605DC80109956D2D6F70D801ED91FC9133
:103C10000280F381E02D6A3060F1695CC80109958A
:103C2000D5CF88E0E82EF12C90E8C92E0AC061E3D8
:103C3000C8010995C694B1E0EB1AF108E114F1044A
:103C400029F28C2D8D21D801ED91FC910280F38118
:103C5000E02D8111ECCF60E3C8010995EBCFED9128
:103C6000FC910280F381E02DC8010995AFCF695C1A
:103C7000C8CF605DD3CFDC011896ED91FC91199708
:103C800080811C969C911C97892359F421E23EE483
:103C900005C0215031092115310571F0808189233A
:103CA000C1F380811E969C911E97892B8083169666
:103CB000ED91FC91179760830895FC018785811130
:103CC0001DC02091FA1B3091FB1B8091F81B909135
:103CD000F91B2817390789F0E091FC1BF091FD1BB7
:103CE000E20FF31F80812F5F3F4F2032310518F123
:103CF0001092FB1B1092FA1B0895FFCF2091F41B2A
:103D00003091F51B8091F21B9091F31B2817390716
:103D100089F0E091F61BF091F71BE20FF31F808111
:103D20002F5F3F4F2032310558F01092F51B109253
:103D3000F41B0895FFCF3093FB1B2093FA1B0895CB
:103D40003093F51B2093F41B0895DC01ED91FC9159
:103D50000280F381E02D6CE00994FC0187858823C3
:103D600069F081E04091F41B5091F51B2091F21B0A
:103D70003091F31B4217530769F0089581E0409199
:103D8000FA1B5091FB1B2091F81B3091F91B421735
:103D9000530799F780E00895EF92FF921F93CF9316
:103DA000DF9300D0CDB7DEB77C01142F69837A830F
:103DB0000E94381C412F69817A81C70106960E94B2
:103DC000F82582E294E0F70191838083178711231D
:103DD000E9F08091C90080688093C90080E290E09A
:103DE0000E94131C9093F71B8093F61B1092F51BF7
:103DF0001092F41B1092F31B1092F21B0F900F9075
:103E0000DF91CF911F91FF90EF9008958091C100B5
:103E100080688093C10080E290E00E94131C909320
:103E2000FD1B8093FC1B1092FB1B1092FA1B10923F
:103E3000F91B1092F81B0F900F90DF91CF911F91FB
:103E4000FF90EF9008951F920F920FB60F921124DA
:103E50000BB60F922F933F938F939F93EF93FF9304
:103E60002091C600E091FC1BF091FD1B8091F81B96
:103E70009091F91BE80FF91F20838091F81B909116
:103E8000F91B019680329105C0F49093F91B809341
:103E9000F81B2091FA1B3091FB1B28173907D1F032
:103EA000FF91EF919F918F913F912F910F900BBEBA
:103EB0000F900FBE0F901F9018951092F91B109243
:103EC000F81B80E090E02091FA1B3091FB1B281733
:103ED000390731F701969093FB1B8093FA1B80976B
:103EE000F8F21092FB1B1092FA1BDACF1F920F927E
:103EF0000FB60F9211240BB60F922F933F938F930F
:103F00009F93EF93FF932091CE00E091F61BF091E9
:103F1000F71B8091F21B9091F31BE80FF91F208390
:103F20008091F21B9091F31B019680329105C0F4B1
:103F30009093F31B8093F21B2091F41B3091F51B9F
:103F400028173907D1F0FF91EF919F918F913F9101
:103F50002F910F900BBE0F900FBE0F901F901895D2
:103F60001092F31B1092F21B80E090E02091F41B62
:103F70003091F51B2817390731F701969093F51BFF
:103F80008093F41B8097F8F21092F51B1092F41BAB
:103F9000DACFFC010396928381834FEF5FEFBA0182
:103FA0004383548365837683908787839287818751
:103FB00010820895FC01138612860895CF93DF9333
:103FC0009C01FB01DC011196CD91DC911297D58308
:103FD000C4838E819F81978386838E819F81DC013C
:103FE00015967C936E9314977F836E833387228715
:103FF000F90180818F5F8083DF91CF9108950F93C6
:104000001F93CF93DF93EB01088119812A813B81B4
:104010000F3F4FEF14072407340731F1DC011396EB
:1040200001C0DF011496ED91FC91159740815181FB
:1040300062817381041715072607370790F7FD8300
:10404000EC83D783C683BF83AE831596DC93CE9370
:1040500014979B878A87FC0120812F5F2083DF9143
:10406000CF911F910F910895FC01A185B2851496FF
:10407000ED91FC911597E3CFCF93DF93FC01A285DF
:10408000B3852481358186819781E9019F838E8361
:1040900086819781EC013D832C8311962D913C9173
:1040A00012972E173F0741F0138612868C9181508C
:1040B0008C93DF91CF91089512969C938E931197D4
:1040C000138612868C9181508C93DF91CF91089545
:1040D0009093FF1B8093FE1B31E1FC0130833197ED
:1040E00022E22083FC013297A3E3A083FC013397F3
:1040F0006083FC0134977083FC0135971082FC01CA
:10410000369760E86083FC0137971082FC0138978E
:1041100062E06083FC01399763E06083FC013A97B9
:1041200064E06083FC013B9765E06083FC013C97A1
:1041300066E06083FC013D9767E06083FC013E9789
:1041400068E06083FC013F9769E06083FC01709741
:1041500060E16083FC0171973083FC01729732E16A
:104160003083FC01739733E13083FC01749734E1B1
:104170003083FC01759735E13083FC01769736E199
:104180003083FC01779737E13083FC01789738E181
:104190003083FC01799739E13083FC017A9730E272
:1041A0003083FC017B9731E23083FC017C972083D4
:1041B000FC017D9723E22083FC017E974083FC0174
:1041C0007F975083FC01B09726E22083FC01B197D2
:1041D00027E22083FC01B29728E22083FC01B397F9
:1041E00029E22083FC01B49720E32083FC01B597EA
:1041F00021E320838697089587E0809329018FEC3F
:10420000809328018AE080932101E3E7F0E0808138
:1042100082608083A0918D1BB0918E1BCD91CDBF0C
:10422000DD91DEBFFF91EF91DF91CF91BF91AF9113
:104230009F918F917F916F915F914F913F912F91BE
:104240001F910F91FF90EF90DF90CF90BF90AF90B4
:104250009F908F907F906F905F904F903F902F90A6
:104260001F900F900FBE0F90089581E0089508955C
:104270000F920FB6F8940F921F9211242F923F9233
:104280004F925F926F927F928F929F92AF92BF9266
:10429000CF92DF92EF92FF920F931F932F933F9352
:1042A0004F935F936F937F938F939F93AF93BF933E
:1042B000CF93DF93EF93FF93A0918D1BB0918E1B53
:1042C0000DB60D920EB60D920E94B014A0918D1BEA
:1042D000B0918E1BCD91CDBFDD91DEBFFF91EF91EF
:1042E000DF91CF91BF91AF919F918F917F916F910E
:1042F0005F914F913F912F911F910F91FF90EF9000
:10430000DF90CF90BF90AF909F908F907F906F90F5
:104310005F904F903F902F901F900F900FBE0F9087
:1043200008950F920FB6F8940F921F9211242F92B6
:104330003F924F925F926F927F928F929F92AF9235
:10434000BF92CF92DF92EF92FF920F931F932F9322
:104350003F934F935F936F937F938F939F93AF930D
:10436000BF93CF93DF93EF93FF93A0918D1BB091F9
:104370008E1B0DB60D920EB60D920E949D128111EC
:104380000E94B014A0918D1BB0918E1BCD91CDBF1A
:10439000DD91DEBFFF91EF91DF91CF91BF91AF91A2
:1043A0009F918F917F916F915F914F913F912F914D
:1043B0001F910F91FF90EF90DF90CF90BF90AF9043
:1043C0009F908F907F906F905F904F903F902F9035
:1043D0001F900F900FBE0F9008950E949121189585
:1043E0001F93CF93DF93EC01142F88A181110DC08F
:1043F00088819981892B09F44DC080E09E8D9F5F53
:104400009E8FDF91CF911F910895482F50E0111199
:104410001CC08C819D810E94682B28A18C819D816C
:10442000820F911D9D838C832A813B818217930784
:1044300020F3888199819D838C8380E09E8D9F5F8E
:104440009E8FDF91CF911F9108958E819F810E9451
:10445000682B28A130E03195219531098E819F810B
:10446000820F931F9F838E836881798186179707B8
:1044700030F48A819B81820F931F9F838E83123039
:1044800009F0BBCF8E8D882309F4B7CF8E8D815074
:104490008E8FB3CF8A819B810E94CC161B821A8299
:1044A000ADCFFC01CB0140A1442399F050E026811F
:1044B0003781240F351F3783268362817381261746
:1044C000370720F02081318137832683B9010C948E
:1044D000682B08950F931F93CF93DF93EC010FB6D2
:1044E000F8940F928AA11816ECF48B898823D1F0E6
:1044F0008E010D5E1F4F09C08AA181508AA38AA137
:10450000181684F48B89882369F0C8010E94581515
:10451000882391F30E944C168AA181508AA38AA114
:10452000181684F38FEF8AA30F900FBE0FB6F8947E
:104530000F9289A11816ECF488858823D1F08E019A
:10454000085F1F4F09C089A1815089A389A118164E
:1045500084F48885882369F0C8010E94581588234F
:1045600091F30E944C1689A1815089A389A1181644
:1045700084F38FEF89A30F900FBEDF91CF911F912E
:104580000F910895CF93DF93EC010FB6F8940F923B
:10459000288139818F8D78A1879FC0011124A901BD
:1045A000480F591F5B834A831E8E3D832C83871BD4
:1045B0009109820F931F9F838E838FEF89A38AA314
:1045C000611112C08885811106C00F900FBE81E075
:1045D000DF91CF910895CE0108960E945815813041
:1045E000A1F70E943821F1CFCE0108960E94C91F81
:1045F000CE0143960E94C91F0F900FBE81E0DF914C
:10460000CF9108950F931F93CF93DF93182F062F09
:10461000882301F183E290E00E94810FEC01009772
:10462000C9F0109FC001112401960E94810F998347
:104630008883892B61F01F8F08A361E0CE010E945F
:10464000C222CE01DF91CF911F910F910895CE012B
:104650000E941A10C0E0D0E0CE01DF91CF911F91EF
:104660000F9108956F927F928F929F92AF92BF9217
:10467000CF92DF92EF92FF920F93CF93DF93CDB75C
:10468000DEB729970FB6F894DEBF0FBECDBF5C0131
:104690004B012E833F834887598720E03C0188E007
:1046A000680E711C0FB6F8940F92F501968D878DE8
:1046B000981708F459C0023009F456C0CE80DF8044
:1046C000E884F984CD28CE28CF2809F46FC02223AE
:1046D00009F441C00F900FBE0E946E120FB6F894FD
:1046E0000F92F50181A18F3F09F43CC0F50182A131
:1046F0008F3FB1F10F900FBEBE016A5F7F4FCE01B9
:1047000001960E94EB15811155C00FB6F8940F92D7
:10471000F501968D0F900FBEF501878D981314C08B
:104720004E815F8168857985C3010E94FD14C501B2
:104730000E946A220E94A113882311F021E0B2CFC7
:104740000E94382121E0AECFC5010E946A220E945A
:10475000A11321E0A7CFCE0101960E94DA15BACFAE
:1047600012A2C8CF11A2C2CF402FB401C5010E942E
:10477000F021F5019389911124C0811128C00F9077
:104780000FBE81E029960FB6F894DEBF0FBECDBFF5
:10479000DF91CF910F91FF90EF90DF90CF90BF907E
:1047A000AF909F908F907F906F9008950F900FBE65
:1047B00080E0E8CFC5010E946A220E94A11380E038
:1047C000E1CFC50143960E9458158130C1F60E9481
:1047D0003821D5CF0F93CF93DF9383E290E00E94EF
:1047E000810FEC01009701F11B821A821982188255
:1047F0001D821C821F821E821E8E81E08F8F18A256
:104800008FEF89A38AA3CE0108960E94C91FCE010B
:1048100043960E94C91F00E020E030E0A90160E05B
:1048200070E0CE010E943223CE01DF91CF910F9133
:1048300008950F931F93CF93DF93EC018A019E8D10
:104840008F8D981740F0223031F080E0DF91CF91CA
:104850001F910F910895422FCE010E94F0218823CD
:1048600031F00115110519F081E0F80180838AA16A
:104870008F3F49F08AA18F5F8AA381E0DF91CF91BA
:104880001F910F9108958B898823B9F3CE01439628
:104890000E945815882389F30115110571F381E0F1
:1048A000F8018083D3CFAF92BF92CF92DF92EF9285
:1048B000FF920F93CF93DF93CDB7DEB729970FB653
:1048C000F894DEBF0FBECDBF7C016B012E833F830A
:1048D0004887598790E0570183E1A80EB11C0FB6B5
:1048E000F8940F92F701868D811169C04E815F8126
:1048F00068857985452B462B472B09F47DC0992384
:1049000009F43EC00F900FBE0E946E120FB6F894CD
:104910000F92F70181A18F3F09F43EC0F70182A1F8
:104920008F3F09F43FC00F900FBEBE016A5F7F4FFB
:10493000CE0101960E94EB15811171C00FB6F8945B
:104940000F92F701868D0F900FBE81111EC0F701E7
:1049500080819181892B41F14E815F8168857985C4
:10496000C5010E94FD14C7010E946A220E94A11382
:10497000882311F091E0B3CF0E94382191E0AFCFAE
:10498000CE0101960E94DA15BDCFC7010E946A22AE
:104990000E94A11391E0A3CF11A2F70182A18F3F42
:1049A00009F0C1CF12A2BFCF0FB6F8940F92F70152
:1049B000828193810E9471160F900FBECDCFA68089
:1049C000B780B601C7010E945122F70101112EC024
:1049D000868D8150868F80819181892BB9F1F70175
:1049E0008085882341F1C70108960E9458158130BF
:1049F00011F50E9438211FC00F900FBE80E029964C
:104A00000FB6F894DEBF0FBECDBFDF91CF910F91EF
:104A1000FF90EF90DF90CF90BF90AF900895C701C7
:104A20000E946A220E94A11380E0E9CFB782A68289
:104A30008389811104C00F900FBE81E0E0CFC701D0
:104A400043960E9458158823B1F3D3CF0E943317A1
:104A5000F70193838283C3CF0F931F93CF93DF9389
:104A600000D0CDB7DEB78C01FC01868D811108C066
:104A700080E00F900F90DF91CF911F910F910895DB
:104A8000C80149835A830E945122F801868D8150C2
:104A9000868F81A149815A818F3F61F0F80181A100
:104AA0008F5F81A381E00F900F90DF91CF911F91D5
:104AB0000F91089580858823A9F3C801089649833A
:104AC0005A830E94581549815A81882359F3411508
:104AD000510541F381E0FA018083CBCF0F931F93FF
:104AE000CF93DF93EC018E8D811106C080E0DF91C2
:104AF000CF911F910F9108950E811F81CE010E94C9
:104B000051221F830E8381E0DF91CF911F910F917E
:104B100008950FB6F8940F92FC01868D0F900FBE8A
:104B200008950FB6F8940F92FC01268D0F900FBEDA
:104B3000FC01878D821B0895FC01868D0895CF931B
:104B4000DF93EC0188819981009711F00E941A107F
:104B5000CE01DF91CF910C941A10FC01968D81E06B
:104B6000911180E00895FC01268D81E0978D291335
:104B700080E00895CF92DF92EF92FF92CF93DF9380
:104B8000EC01688179818A819B8128EEC22E23E025
:104B9000D22EE12CF12CA70196010E941C2A9B0128
:104BA000AC0160E472E48FE090E00E94E429A70188
:104BB00096010E941C2A69017A01AC81BD8120E422
:104BC00032E44FE050E00E94D92920E834E84EE179
:104BD00050E00E941C2AC20ED31EE41EF51EC7011F
:104BE000B601DF91CF91FF90EF90DF90CF900895C5
:104BF000CF93DF93EC01442309F441C08EEC90E0A5
:104C00009983888388EC90E09B838A8389EC90E089
:104C10009D838C8388E18093C90086E08093CA00DD
:104C20001092CD009B0140E050E0220F331F441F43
:104C3000551F220F331F441F551F220F331F441FC0
:104C4000551F220F331F441F551F60E074E284EF8D
:104C500090E00E941C2A2093CC008091C8008160C3
:104C60008093C80080E28E8380E88F8380E4888709
:104C7000E881F98180818081DF91CF91089586EC70
:104C800090E09983888380EC90E09B838A8381EC19
:104C900090E09D838C8388E18093C10086E08093BF
:104CA000C2001092C5009B0140E050E0220F331F6C
:104CB000441F551F220F331F441F551F220F331F40
:104CC000441F551F220F331F441F551F60E074E21D
:104CD00084EF90E00E941C2A2093C4008091C000C1
:104CE00081608093C000BECFDC011296ED91FC91F3
:104CF0001397208116968C91282381E009F480E097
:104D00000895DC011296ED91FC911397208118967D
:104D10008C91282381E009F080E00895DF92EF92E2
:104D2000FF920F931F93CF93DF937C018B01DC01E4
:104D300014966D917C911597C8010E94431CF70150
:104D4000A481B581FD0101900020E9F73197DE2EA5
:104D5000DA1AFFE0FD1580F0C0E0D0E0D801ED9157
:104D6000FC910280F381E02D60E2C8010995219653
:104D70008C2F8D0D803190F368E072E0C8010E94A5
:104D8000431C66E0C8010E94881CD70116968D91CD
:104D90009C911797009779F0DC01ED91FC910190BF
:104DA000F081E02DB801DF91CF911F910F91FF901D
:104DB000EF90DF900994DF91CF911F910F91FF90B9
:104DC000EF90DF900895DF92EF92FF920F931F9381
:104DD000CF93DF937C018B01DC0114966D917C9164
:104DE0001597C8010E94431CF701A481B581FD01FC
:104DF00001900020E9F73197DE2EDA1AFFE0FD1569
:104E000080F0C0E0D0E0D801ED91FC910280F38108
:104E1000E02D60E2C801099521968C2F8D0D80311F
:104E200090F368E072E0C8010E94431C66E0C8018C
:104E30000E94881CD70116968D919C911797009718
:104E400079F0DC01ED91FC910190F081E02DB80149
:104E5000DF91CF911F910F91FF90EF90DF90099418
:104E6000DF91CF911F910F91FF90EF90DF90089508
:104E7000DF92EF92FF920F931F93CF93DF937C010A
:104E80008B01DC0114966D917C911597C8010E94ED
:104E9000431CF701A481B581FD0101900020E9F7D1
:104EA0003197DE2EDA1AFFE0FD1580F0C0E0D0E089
:104EB000D801ED91FC910280F381E02D60E2C80100
:104EC000099521968C2F8D0D803190F368E072E06A
:104ED000C8010E94431C66E0C8010E94881CD701DB
:104EE00016968D919C911797009779F0DC01ED91C2
:104EF000FC910190F081E02DB801DF91CF911F91DD
:104F00000F91FF90EF90DF900994DF91CF911F9167
:104F10000F91FF90EF90DF900895DF92EF92FF9254
:104F20000F931F93CF93DF937C018B01DC011496C9
:104F30006D917C911597C8010E94431CF701A481D3
:104F4000B581FD0101900020E9F73197DE2EDA1AD4
:104F5000FFE0FD1580F0C0E0D0E0D801ED91FC91BC
:104F60000280F381E02D60E2C801099521968C2F23
:104F70008D0D803190F368E072E0C8010E94431CFF
:104F800066E0C8010E94881CD70116968D919C91FD
:104F90001797009779F0DC01ED91FC910190F08179
:104FA000E02DB801DF91CF911F910F91FF90EF900D
:104FB000DF900994DF91CF911F910F91FF90EF90B7
:104FC000DF900895DF92EF92FF920F931F93CF939C
:104FD000DF937C018B01DC0114966D917C91159718
:104FE000C8010E94431CF701A481B581FD01019015
:104FF0000020E9F73197DE2EDA1AFFE0FD1580F088
:10500000C0E0D0E0D801ED91FC910280F381E02D69
:1050100060E2C801099521968C2F8D0D803190F3A7
:1050200068E072E0C8010E94431C66E0C8010E946B
:10503000881CD70116968D919C911797009779F04F
:10504000DC01ED91FC910190F081E02DB801DF9140
:10505000CF911F910F91FF90EF90DF900994DF9116
:10506000CF911F910F91FF90EF90DF900895CF9215
:10507000DF92EF92FF920F931F93CF93DF9314BEB3
:1050800088E10FB6F89480936000109260000FBE24
:1050900080E190E00E940C1CEC0141E060E875E2C8
:1050A0000E94CC1E67E0CE010E94881C6BE00E942B
:1050B000881C8C0164EE70E00E94431C66E0C8010D
:1050C0000E94881C88E190E00E940C1C6C011EE18B
:1050D000E12EF12C00E010E09E014FE052E060E292
:1050E00070E0C6010E94CE1AD0924B04C0924A04CE
:1050F00089E090E00E940C1C7C0165E172E00E9456
:10510000451702E613E0F70111830083F09249048A
:10511000E09248048AE090E00E940C1C7C0165E269
:1051200072E00E94451798E6C92E93E0D92EF70148
:10513000D182C082F0924704E092460489E090E078
:105140000E940C1C7C0164E372E00E944517F70189
:1051500011830083F0924504E09244048AE090E0D9
:105160000E940C1C7C0166E472E00E944517F70166
:10517000D182C082F0924304E092420489E090E040
:105180000E940C1C7C0167E572E00E944517F70144
:1051900011830083F0924104E092400489E090E0A2
:1051A0000E940C1C7C016BE672E00E944517F7011F
:1051B00011830083F0923F04E0923E048AE090E085
:1051C0000E940C1C8C0160E872E00E9445172EE6DC
:1051D000E22E23E0F22EF801F182E08210933D04EA
:1051E00000933C048AE090E00E940C1C8C0163E96F
:1051F00072E00E944517F801F182E08210933B04AF
:1052000000933A0489E090E00E940C1C7C0166EA5D
:1052100072E00E94451704E713E0F7011183008351
:10522000F0923904E092380489E090E00E940C1C6E
:105230007C016DEB72E00E944517F701118300833A
:10524000F0923704E092360489E090E00E940C1C52
:105250007C0164ED72E00E944517F7011183008321
:10526000F0923504E092340489E090E00E940C1C36
:105270007C016BEE72E00E944517F70111830083F9
:10528000F0923304E09232048AE090E00E940C1C19
:105290008C0162E073E00E9445173AE7E32E33E0A9
:1052A000F32EF801F182E082109331040093300470
:1052B0008AE090E00E940C1C8C016BE173E00E947C
:1052C0004517F801F182E08210932F0400932E0419
:1052D00082E190E00E940C1C8E0124E031E041E06C
:1052E00064E373E00E94A40382E190E00E940C1C3E
:1052F00028E131E043E062E473E00E94A00C82E127
:1053000090E00E940C1C28E131E042E060E573E08F
:105310000E94910D0E94311280E090E0DF91CF91C8
:105320001F910F91FF90EF90DF90CF9008950E9412
:1053300071180F93CF93DF931F92CDB7DEB76983B8
:10534000FC01208931894289538900E0BE016F5FE9
:105350007F4F868597850E9432230F90DF91CF91F2
:105360000F910895FC01868597850E94892591E01B
:10537000811101C090E0892F08950F93CF93DF939F
:105380001F92CDB7DEB700E02FEF3FEFA901BE01BE
:105390006F5F7F4FFC01868597850E945324813083
:1053A00031F489810F90DF91CF910F9108958FEFA4
:1053B000F9CF0E94632AA59F900DB49F900DA49FE2
:1053C000800D911D11240895DB018F939F930E94FE
:1053D000D929BF91AF91A29F800D911DA39F900DE0
:1053E000B29F900D11240895AA1BBB1B51E107C069
:1053F000AA1FBB1FA617B70710F0A61BB70B881F65
:10540000991F5A95A9F780959095BC01CD010895F3
:1054100097FB072E16F4009407D077FD09D00E9461
:10542000F42907FC05D03EF4909581959F4F08958F
:10543000709561957F4F0895A1E21A2EAA1BBB1BA0
:10544000FD010DC0AA1FBB1FEE1FFF1FA217B30750
:10545000E407F50720F0A21BB30BE40BF50B661F66
:10546000771F881F991F1A9469F76095709580952A
:1054700090959B01AC01BD01CF010895052E97FBCE
:105480001EF400940E94552A57FD07D00E941C2A42
:1054900007FC03D04EF40C94552A50954095309556
:1054A00021953F4F4F4F5F4F089590958095709590
:1054B00061957F4F8F4F9F4F0895EE0FFF1F05900F
:1054C000F491E02D0994A29FB001B39FC001A39F66
:1054D000700D811D1124911DB29F700D811D11242D
:1054E000911D08950CD0BAC0B2D040F0A9D030F0D0
:1054F00021F45F3F19F09BC05111E4C09EC0BFD0A2
:1055000098F39923C9F35523B1F3951B550BBB278A
:10551000AA2762177307840738F09F5F5F4F220F37
:10552000331F441FAA1FA9F333D00E2E3AF0E0E830
:1055300030D091505040E695001CCAF729D0FE2F7C
:1055400027D0660F771F881FBB1F2617370748070E
:10555000AB07B0E809F0BB0B802DBF01FF279358C4
:105560005F4F2AF09E3F510568F061C0ABC05F3FBE
:10557000ECF3983EDCF3869577956795B795F795AC
:105580009F5FC9F7880F911D9695879597F90895A4
:10559000E1E0660F771F881FBB1F62177307840740
:1055A000BA0720F0621B730B840BBA0BEE1F88F74F
:1055B000E0950895E89409C097FB3EF49095809596
:1055C000709561957F4F8F4F9F4F9923A9F0F92FC9
:1055D00096E9BB279395F695879577956795B79547
:1055E000F111F8CFFAF4BB0F11F460FF1BC06F5F2D
:1055F0007F4F8F4F9F4F16C0882311F096E911C03F
:10560000772321F09EE8872F762F05C0662371F05F
:1056100096E8862F70E060E02AF09A95660F771F73
:10562000881FDAF7880F9695879597F9089597F967
:105630009F6780E870E060E008959FEF80EC089538
:1056400000240A9416161706180609060895002461
:105650000A9412161306140605060895092E0394DB
:10566000000C11F4882352F0BB0F40F4BF2B11F44F
:1056700060FF04C06F5F7F4F8F4F9F4F089557FDAE
:105680009058440F551F59F05F3F71F04795880FB0
:1056900097FB991F61F09F3F79F087950895121647
:1056A00013061406551FF2CF4695F1DF08C01616F3
:1056B00017061806991FF1CF8695710561050894A4
:1056C0000895E894BB2766277727CB0197F90895BB
:1056D000FB01DC0102C001900D9241505040D8F70F
:1056E0000895DC0101C06D9341505040E0F70895EA
:1056F000FB01DC014150504048F001900D92002028
:10570000C9F701C01D9241505040E0F70895FB01D8
:105710009F01E8944230C4F04532B4F44A3029F491
:1057200097FB1EF4909581959F4F642F77270E94D9
:10573000F429805D8A330CF0895D8193CB01009759
:10574000A1F716F45DE251931082C9010C94E32B8A
:10575000FA01CF93FF93EF932230CCF02532BCF4C3
:10576000C22F2C2F332744275527FF93EF930E94F6
:105770001C2AEF91FF91605D6A330CF0695D6193C3
:10578000B901CA01605070408040904051F71082CA
:105790008F919F91CF910C94E32BFB019F0142309D
:1057A00074F0453264F4642F77270E94F429805DF9
:1057B0008A330CF0895D8193CB010097A1F71082A9
:1057C000C9010C94E32BDC01FC01672F7191772355
:1057D000E1F7329704C07C916D9370836291AE17AC
:0A57E000BF07C8F30895F894FFCF47
:1057EA003717FFFFFFFF0A037368617265090050EC
:1057FA0072696E740073685F6D6F746F725F736540
:10580A006C6563740073685F706F7765725F656E4D
:10581A007472790073685F706F7765725F7365740D
:10582A005F666C61670073685F6272616B696E675D
:10583A005F656E7472790073685F6272616B696E1C
:10584A00675F7365745F666C61670073685F627235
:10585A00616B696E675F66756C6C5F666C61670029
:10586A0073685F656E636F6465725F636F756E748C
:10587A005F310073685F656E636F6465725F636F43
:10588A00756E745F320073685F656E636F6465720C
:10589A005F6F6C645F73746174655F310073685F16
:1058AA00656E636F6465725F6E65775F737461744A
:1058BA00655F310073685F656E636F6465725F6F01
:1058CA006C645F73746174655F320073685F656EE0
:1058DA00636F6465725F6E65775F73746174655F29
:1058EA00320073685F656E636F6465725F657272BA
:1058FA006F725F636F756E745F310073685F656E98
:10590A00636F6465725F6572726F725F636F756EE3
:10591A00745F320055736572496E746572666163AD
:10592A006500202020204D6F746F722020202000F7
:10593A00202020456E636F646572202020000000DD
:10594A000000E227000000008D2700000000382731
:10595A0000000000E326000000008E262F000D0044
:10596A0020706F7765723A0020627265616B696EAA
:10597A00673A000000000028050A196D6F746F72FB
:10598A0020636F6E7374727563746F722046414937
:10599A004C202873656C656374206D75737420627E
:1059AA006520612031206F7220322900000000003A
:1059BA006E0B0A1900000000B00C0A1949444C4544
:1059CA000000000000281C00000000281C0A1974AE
:1059DA0078745F71090000000000291C9929B22916
:1059EA00BD292F1C301C551AFAFF0000101B00009D
:1059FA000000291C281C2D1C2B1C2F1C301C0000ED
:0E5A0A000000291C3B1EAD1E5D1E2F1CA51E9C
:00000001FF
