:100000000C9414030C9433030C9433030C943303B7
:100010000C9433030C94A90D0C94660E0C94680E8A
:100020000C94E60E0C9433030C9433030C943303BA
:100030000C9433030C9433030C9433030C94330368
:100040000C9433030C9433030C9433030C94330358
:100050000C9433030C9433030C9433030C94330348
:100060000C9433030C948A1E0C9433030C943303C6
:100070000C9433030C9433030C9433030C94330328
:100080000C9433030C9433030C9433030C94330318
:100090000C94DD1E0C9433030C9433030C94330343
:1000A0000C9433030C9433030C9433030C943303F8
:1000B0000C9433030C9433030C9433030C945421A9
:1000C0000C9433030C9433030C943303FC1B051C76
:1000D000081C0B1CFE1BFE1B0E1C1E1C251C2C1CB6
:1000E000301C021C4D45343035204C6162203320D9
:1000F0005374617274696E672050726F6772616DBC
:10010000004D45343035204C61622032204D6F6403
:1001100069666965642050726F6772616D00417035
:100120007220323820323031360053797374656D65
:100130002074696D653A20002C20486561703A2072
:10014000002C204F435235413A20002020723A20A3
:100150002020202052657475726E20746F204D61CE
:10016000696E204D656E75002020683A20202020A1
:100170002048656C702100202043746C2D433A2088
:10018000526573657420415652002020733A202036
:1001900020202046756C6C204272616B6500202027
:1001A000623A20202020204D6F746F72204252410D
:1001B0004B4520776974682050574D205B2D3235B0
:1001C000352C203235355D002020703A202020204B
:1001D000204D6F746F7220504F57455220776974CD
:1001E000682050574D205B2D3235352C2032353567
:1001F0005D002D2D2D2D2D2D2D2D2D2D2D2D2D2D2C
:100200002D204D4F544F52204D454E55202D2D2D14
:100210002D2D2D2D2D2D2D2D2D2D2D2D004D4534FC
:100220003035204C61622032204D6F64696669650B
:10023000642050726F6772616D002020683A202040
:1002400020202048656C702100202043746C2D43D1
:100250003A205265736574204156520020206D3A51
:1002600020202020204D6F746F722073656C6563B1
:100270007420616E6420506F7765722076616C75B2
:1002800065002020643A2020202020537461636B95
:100290002064756D7020666F72207461736B7300DB
:1002A0002020733A202020202056657273696F6EDB
:1002B0002F536574757020696E666F726D61746915
:1002C0006F6E002020743A202020202053686F7722
:1002D000207468652063757272656E742074696D30
:1002E00065002D2D2D2D2D2D2D2D2D2D2D2D2D2D33
:1002F0002D204D41494E204D454E55202D2D2D2D63
:100300002D2D2D2D2D2D2D2D2D2D2D004D45343008
:1003100035204C61622032204D6F646966696564E6
:100320002050726F6772616D00496C6C6567616C1B
:100330002073746174652120526573657474696EED
:10034000672041565200223A205754463F005265DA
:1003500073657474696E6720415652004D6F746FF7
:100360007220002048414C5445442100456E74657C
:1003700072206E756D62657220666F72204D6F74AB
:100380006F722000456E746572206E756D626572C5
:1003900020666F72204D6F746F7220003C696E761C
:1003A000616C69642063686172202200223E005003
:1003B0006C6561736520656E7465722061206E7571
:1003C0006D626572206265747765656E2030207499
:1003D0006F203235352E00506C6561736520656E77
:1003E0007465722061206E756D626572206265743D
:1003F0007765656E202D32353520746F20323535A6
:100400002E00506C6561736520656E7465722061A5
:100410002031206F72203220666F72206D6F746FF2
:10042000722073656C6563742E004E756D62657223
:1004300020456E74657265643A2000223A20575454
:10044000463F00526573657474696E672041565269
:1004500000456E746572206E756D62657220666F00
:1004600072206D6F746F722073656C656374696F51
:100470006E3A20004144435352413A200041444DDA
:1004800055583A200041444330203D200041444328
:1004900031203D200041444332203D20004144436F
:1004A00033203D200041444334203D20004144435B
:1004B00035203D200041444336203D200041444347
:1004C00037203D20004572726F7220636F756E7425
:1004D0002032203D20004E45572073746174652002
:1004E00032203D20004F4C442073746174652032EB
:1004F000203D2000456E636F64657220636F756EEA
:10050000742032203D20004E6F2073686172656454
:100510002064617461206974656D7320746F20704C
:1005200072696E74002D2D2D2D202020202020207A
:1005300020202020202D2D2D2D202020202D2D2D60
:100540002D2D2D2D2D2D2D0053686172652F517588
:10055000657565202020202054797065202020209A
:10056000467265652F546F74616C004552524F524C
:10057000206372656174696E67207461736B2022F9
:10058000005461736B2022002220637265617465E0
:10059000642C20737461636B206174203078005484
:1005A00061736B3A20005461736B3A2049444C45A7
:1005B0000049444C45090930092D09002F0009095B
:1005C0002D002D2D2D2D09092D2D2D2D092D2D2DF4
:1005D0002D2D00092D2D2D2D2D2D2D2D2D2D0009ED
:1005E0002D2D2D2D004E616D6509095072692E0962
:1005F00053746174650009467265652F546F7461A8
:100600006C000952756E73005461736B09092020E8
:1006100009200009537461636B00090009002F0071
:10062000090009002020000011241FBECFEFD1E2F5
:10063000DEBFCDBF14E0A0E0B2E0E8EBF6E500E0FD
:100640000BBF02C007900D92AA31B107D9F71BE189
:10065000AAE1B4E001C01D92AC3EB107E1F70E94EF
:100660009E270C945A2B0C9400000F931F93CF934A
:10067000DF93EC010E94311783E893E0998388832C
:10068000DF91CF911F910F9108950F931F93CF93F7
:10069000DF93EC0166E08E819F810E94EF1B6BE08F
:1006A0008E819F810E94EF1B8C016CE073E00E94A1
:1006B000AA1B66E0C8010E94EF1B66E08E819F8145
:1006C0000E94EF1B6BE08E819F810E94EF1B8C01CB
:1006D00062EE72E00E94AA1B66E0C8010E94EF1B56
:1006E0006BE08E819F810E94EF1B8C0163EC72E0B6
:1006F0000E94AA1B66E0C8010E94EF1B6BE08E817E
:100700009F810E94EF1B8C0160EA72E00E94AA1B8D
:1007100066E0C8010E94EF1B6BE08E819F810E9402
:10072000EF1B8C0162E872E00E94AA1B66E0C80120
:100730000E94EF1B6BE08E819F810E94EF1B8C015A
:100740006CE572E00E94AA1B66E0C8010E94EF1BE4
:100750006BE08E819F810E94EF1B8C0169E472E047
:100760000E94AA1B66E0C8010E94EF1B6BE08E810D
:100770009F810E94EF1B8C016AE372E00E94AA1B1A
:1007800066E0C8010E94EF1B66E08E819F81DF91C9
:10079000CF911F910F910C94EF1B0F931F93CF9349
:1007A000DF93EC0166E08E819F810E94EF1B6BE07E
:1007B0008E819F810E94EF1B8C016DE172E00E948F
:1007C000AA1B66E0C8010E94EF1B66E08E819F8134
:1007D0000E94EF1B6BE08E819F810E94EF1B8C01BA
:1007E00062EF71E00E94AA1B66E0C8010E94EF1B45
:1007F0006BE08E819F810E94EF1B8C0168EC71E0A1
:100800000E94AA1B66E0C8010E94EF1B6BE08E816C
:100810009F810E94EF1B8C016EE971E00E94AA1B70
:1008200066E0C8010E94EF1B6BE08E819F810E94F1
:10083000EF1B8C016AE871E00E94AA1B66E0C80108
:100840000E94EF1B6BE08E819F810E94EF1B8C0149
:1008500067E771E00E94AA1B66E0C8010E94EF1BD7
:100860006BE08E819F810E94EF1B8C0168E671E036
:100870000E94AA1B66E0C8010E94EF1B6BE08E81FC
:100880009F810E94EF1B8C016BE471E00E94AA1B08
:1008900066E0C8010E94EF1B66E08E819F81DF91B8
:1008A000CF911F910F910C94EF1B8F929F92AF925B
:1008B000BF92CF92DF92EF92FF920F931F93CF934D
:1008C000DF9300D000D000D0CDB7DEB78C01198205
:1008D0001A821B821C821E821D82C0902801D09029
:1008E00029010E94AC0F5C01CE0101960E94DB1A27
:1008F0004C0166E0F801868197810E94EF1B6BE056
:100900000E94EF1B7C0161E071E00E94AA1B6BE07A
:10091000C7010E94EF1B7C016EE171E00E94AA1BDF
:1009200066E0C7010E94EF1B6BE00E94EF1B7C0199
:100930006AE271E00E94AA1BB401C7010E947A1A00
:100940006BE00E94EF1B7C0168E371E00E94AA1B30
:10095000B501C7010E949F1C7C0168E673E00E94FC
:10096000AA1B48E357E160E070E0C7010E94D91C70
:100970006BE00E94EF1B7C0161E471E00E94AA1B06
:10098000B601C7010E949F1C66E00E94EF1B66E053
:100990000E94EF1BF801868197810E942C1966E066
:1009A000F801868197810E94EF1BF801868197816B
:1009B0000E94EC1626960FB6F894DEBF0FBECDBF90
:1009C000DF91CF911F910F91FF90EF90DF90CF902B
:1009D000BF90AF909F908F900895CF93DF93CDB746
:1009E000DEB727970FB6F894DEBF0FBECDBF8C01E0
:1009F00019821A821B821C821E821D820FB6F894F5
:100A00000F92E0913404F091350410860F900FBEE0
:100A10000E944503C12CA12CD12CE12CF12CBB242C
:100A2000B3945AE0452E512CD8011C968C918130FC
:100A300079F1813008F4A3C0823009F085C0D80173
:100A400016968D919C911797DC01ED91FC91048095
:100A5000F581E02D0995811131C1D8011E964D9186
:100A60005D916D917C9151974F5F5F4F6F4F7F4FBD
:100A7000F80146875787608B718B61E070E080E0FA
:100A800090E00E94E213D8011C968C91813089F687
:100A9000F80186819781DC01ED91FC910480F5815C
:100AA000E02D0995882309F4AFC2F801868197816A
:100AB000DC01ED91FC910680F781E02D0995482F2E
:100AC00080ED840F8A3008F47CC24D3209F4C6C22E
:100AD0004F3709F4A8C04A3009F49DC04D3019F0D1
:100AE0004B3109F0A2C066E0D80116968D919C9119
:100AF00017970E94EF1B6BE00E94EF1B4C016AE20C
:100B000074E00E94AA1BB701C4010E94341C66E075
:100B10000E94EF1BD1101EC1C7010197029708F474
:100B200005C16BE0F801868197810E94EF1B7C0173
:100B300062E074E0C7010E94AA1B66E0C7010E9440
:100B4000EF1BE12CF12C89CF6BE0F80186819781B6
:100B50000E94EF1B8C0169E273E00E94AA1B66E011
:100B6000C8010E94EF1B2BE088E190E00FB6F894DB
:100B7000A895809360000FBE20936000FFCFF8011E
:100B800086819781DC01ED91FC910480F581E02D57
:100B90000995882309F461CFF80186819781DC01EA
:100BA000ED91FC910680F781E02D0995282F88367C
:100BB00009F4C1C20CF493C2833709F48CC28437A0
:100BC00009F47BC28D3609F457C2F80186809780FC
:100BD000D401ED91FC910280F381E02D62E2C40129
:100BE0002F830995D401ED91FC910280F381E02DD2
:100BF0002F81622FC40109956BE0C4010E94EF1B95
:100C00004C016BE374E0C4010E94AA1B66E0C401BE
:100C10000E94EF1B22CF6AE673E0F801868197817C
:100C20000E94AA1B1ACFC11021C06BE0F801868177
:100C300097814F830E94EF1B7C016CE973E00E9457
:100C4000AA1BD701ED91FC910280F381E02D4F8129
:100C5000642FC70109956BE0C7010E94EF1B6CEA86
:100C600073E00E94AA1BE12CF12CF7CEF8018681DB
:100C70009781DC01ED91FC910280F381E02D6FE71B
:100C80000995F80186819781DC01ED91FC91028044
:100C9000F381E02D60E20995F80186819781DC01FE
:100CA000ED91FC910280F381E02D6FE70995C7017A
:100CB000B2010E946F297B01CA94CFCEF8018681D0
:100CC0009781DC01ED91FC910680F781E02D09957B
:100CD000282F883609F4C1CE0CF0B5C08F3309F443
:100CE000AEC0823609F480C0833009F460C0F801D8
:100CF00086809780D401ED91FC910280F381E02DF4
:100D000062E2C4012F830995D401ED91FC91028028
:100D1000F381E02D2F81622FC40109956BE0C4019E
:100D20000E94EF1B4C0166E473E06DCF0FB6F894A0
:100D30000F92E0913404F0913504E0860F900FBEDD
:100D4000C8010E94CD0362E0C8010E94E717E12CB0
:100D5000F12C83CEF1E0DF1609F4A7C0B2E0DB127C
:100D60007CCEEFEFEE16F10411F008F0D5C00FB60F
:100D7000F8940F92E0912E04F0912F04F186E08612
:100D80000F900FBE0FB6F8940F92E0912C04F091E3
:100D90002D04B0860F900FBEC8010E94450360E08D
:100DA000C8010E94E717D12CE12CF12C56CE6BE044
:100DB000D80116968D919C9117970E94EF1B8C017C
:100DC0006EE473E00E94AA1B66E0C8010E94EF1B5C
:100DD0002BE088E190E00FB6F894A895809360002E
:100DE0000FBE20936000FFCF0FB6F8940F92E091F2
:100DF0003404F0913504D0840F900FBE6BE0D8011D
:100E000016968D919C9117970E94EF1B4C016CE6F2
:100E100073E00E94AA1B6D2DC4010E94631C4C014B
:100E200064E773E00E94AA1B66E0C4010E94EF1B06
:100E300061E0C8010E94E71782E0D82E0ECEC801FB
:100E40000E94CD030ACE823709F4A6C0833709F485
:100E50006FC0803709F04BCF0FB6F8940F92E09136
:100E60003404F0913504D0840F900FBE6BE0F8018C
:100E7000868197810E94EF1B4C0164E873E00E9419
:100E8000AA1B6D2DC4010E94631C4C016CE673E02B
:100E90000E94AA1B66E0C4010E94EF1B61E0C8012A
:100EA0000E94E717DD24D394D8CD8FEFE816F10424
:100EB00009F030F5AA2019F0F194E194F1080FB689
:100EC000F8940F92E0913204F0913304F186E086B9
:100ED0000F900FBE0FB6F8940F92E0913004F0918E
:100EE0003104B0860F900FBEC8010E94450360E038
:100EF000C8010E94E717A12CD12CE12CF12CADCD1B
:100F00006BE0D80116968D919C9117970E94EF1B6C
:100F10007C0167ED73E00ECE6BE0D80116968D91E3
:100F20009C9117970E94EF1B7C016FEA73E002CE41
:100F3000E0913404F09135040FB6F8940F92808557
:100F40000F900FBE813081F10FB6F8940F920F9081
:100F50000FBE823049F1782E0FB6F8940F920F90A1
:100F60000FBE6BE0F801868197810E94EF1B4C0158
:100F70006CE573E00E94AA1B672DC4010E94631CEC
:100F80006BE00E94EF1B4C0163E673E00E94AA1B1A
:100F900066E0C4010E94EF1BC8010E94450360E0A7
:100FA000C8010E94E71759CD0FB6F8940F92A0918F
:100FB0002A04B0912B041896BC920F900FBE708437
:100FC000CBCFF80186819781DC01ED91FC91028005
:100FD000F381E02D642F4F8309959701220F331F72
:100FE000EE0CFF1CEE0CFF1CEE0CFF1C2E0D3F1D2B
:100FF0004F81E42EFF24E7FCF094B0E3EB1AF108F4
:10100000E20EF31EC39429CD8091360490913704EB
:10101000DC01ED91FC910480F581E02D0995882398
:1010200009F41BCDD8011696ED91FC91179701900C
:10103000F081E02D82809380809136049091370476
:10104000DC01ED91FC910680F781E02D0995682F78
:10105000F80186819781F4010995FFCCF80186811A
:101060009781DC01ED91FC910280F381E02D6DE22E
:101070000995AA24A394F1CC6BE0F80186819781AD
:101080000E94EF1B7C0161E574E00E94AA1B66E0F0
:10109000C7010E94EF1B0FB6F8940F92E091340441
:1010A000F091350410860F900FBE61E0C8010E94D8
:1010B000E717D12CE12CF12CD0CCCE0101960E9467
:1010C000DB1ABC01F801868197810E947A1A66E0DA
:1010D0000E94EF1BC2CCC8010E945504BECC8F33C6
:1010E00051F1843601F1833009F06FCD6BE0D80106
:1010F00016968D919C9117970E94EF1B8C0163E4CB
:1011000074E00E94AA1B66E0C8010E94EF1B2BE05E
:1011100088E190E00FB6F894A895809360000FBE28
:1011200020936000FFCFD80116968D919C91179760
:101130000E94461892CCC8010E9445038ECCFC0147
:1011400071836083EAE7F0E080818068808380813A
:101150008160808380818D7F8083808184608083B3
:10116000ECE7F0E080818064808380818F778083EA
:10117000089580917C00887F80937C0080917C0022
:101180006770682B60937C0080917A008064809304
:101190007A0080917A0086FDFCCF80917800909152
:1011A00079000895403430F1ECE3F0E04CE36770EF
:1011B00080E090E020917C00287F20937C002091AB
:1011C0007C00262B20937C0020917A0020642093C1
:1011D0007A0020917A0026FDFCCF20917800309192
:1011E0007900820F931F415029F7BF010E945B29AC
:1011F000CB010895442319F0E42FF0E0D8CFE0E0CC
:10120000F0E080E090E0BF010E945B29CB010895EF
:101210002F923F924F925F926F927F928F929F9206
:10122000AF92BF92CF92DF92EF92FF920F931F93F4
:10123000CF93DF9300D000D000D0CDB7DEB79E8330
:101240008D8380917C00887F80937C0080917C00DE
:10125000876080937C0080917A00806480937A001C
:1012600080917A0086FDFCCF209178003091790042
:1012700080917C00887F80937C0080917C008660D8
:1012800080937C0080917A00806480937A008091C2
:101290007A0086FDFCCF2090780030907900809114
:1012A0007C00887F80937C0080917C0085608093A7
:1012B0007C0080917A00806480937A0080917A002B
:1012C00086FDFCCF409078005090790080917C00A2
:1012D000887F80937C0080917C00846080937C0078
:1012E00080917A00806480937A0080917A0086FDF4
:1012F000FCCF009178001091790080917C00887F6C
:1013000080937C0080917C00836080937C0080913E
:101310007A00806480937A0080917A0086FDFCCF09
:10132000E0907800F090790080917C00887F809335
:101330007C0080917C00826080937C0080917A00A8
:10134000806480937A0080917A0086FDFCCFC09003
:101350007800D090790080917C00887F80937C0019
:1013600080917C00816080937C0080917A00806411
:1013700080937A0080917A0086FDFCCFA09078005F
:10138000B090790080917C00887F80937C00809170
:101390007C0080937C0080917A00806480937A0046
:1013A00080917A0086FDFCCF809078009090790043
:1013B00040917C0050917A006BE08D819E812B835F
:1013C0003C834A8359830E94EF1B3C0164E774E02D
:1013D0000E94AA1B5981652FC3010E94211D66E04E
:1013E0000E94EF1B6BE00E94EF1B3C016DE774E075
:1013F0000E94AA1B4A81642FC3010E94211D66E03E
:101400000E94EF1B6BE00E94EF1B3C0165E874E05B
:101410000E94AA1BB401C3010E949F1C66E00E94A7
:10142000EF1B6BE00E94EF1B4C016DE874E00E9423
:10143000AA1BB501C4010E949F1C66E00E94EF1B1D
:101440006BE00E94EF1B5C0165E974E00E94AA1B3F
:10145000B601C5010E949F1C66E00E94EF1B6BE075
:101460000E94EF1B6C016DE974E00E94AA1BB7019A
:10147000C6010E949F1C66E00E94EF1B6BE00E9469
:10148000EF1B7C0165EA74E00E94AA1BB801C7014A
:101490000E949F1C66E00E94EF1B6BE00E94EF1B06
:1014A0008C016DEA74E00E94AA1BB201C8010E947F
:1014B0009F1C66E00E94EF1B6BE00E94EF1B8C01FB
:1014C00065EB74E00E94AA1BB101C8010E949F1C39
:1014D00066E00E94EF1B6BE00E94EF1B8C016DEB3E
:1014E00074E00E94AA1B2B813C81B901C8010E94B3
:1014F0009F1C66E00E94EF1B8D819E8126960FB691
:10150000F894DEBF0FBECDBFDF91CF911F910F9139
:10151000FF90EF90DF90CF90BF90AF909F908F9013
:101520007F906F905F904F903F902F900895CF9352
:10153000DF93FC0171836083428380918000816A24
:101540008093800080918000809380008091810052
:101550008A608093810080918100809381008281E4
:10156000813089F08230B9F0C081D181209781F03B
:1015700067E873E0CE010E94AA1B66E0CE01DF910E
:10158000CF910C94EF1B87B1876087B9329A269A66
:10159000DF91CF9108958AB1806E8AB94F9A259ACA
:1015A000DF91CF910895FC012281213071F022302A
:1015B00009F0089577FD18C08BB18BB95E985D9ADC
:1015C0007093890060938800089528B128B977FD49
:1015D00013C04198409A70938B0060938A00FC017D
:1015E0008281823049F308958BB18BB95E9A5D9800
:1015F000719561957109E4CF419A40987195619513
:101600007109E9CFFC012281213039F0223009F043
:1016100008958BB180668BB9089528B1236028B9ED
:101620002281F4CFFC012281213059F0223009F0CF
:1016300008958BB18BB970E0709389006093880036
:10164000089528B128B9262F30E030938B002093DD
:101650008A002281EBCFEC0183E090E00E94731BB3
:101660008C016E817F8141E00E94970A83E090E0C7
:101670000E94731B7C016E817F8142E00E94970A69
:10168000E0913004F0913104DF010FB6F8940F922D
:1016900010860F900FBE80E029C0A0912C04B0915D
:1016A0002D040FB6F8940F920F900FBE18968C91E0
:1016B0001897813009F469C020912A0430912B04D5
:1016C0000FB6F8940F920F900FBEE9018885813014
:1016D00009F430C064E670E080E090E00E94E2131C
:1016E000E0913004F0913104DF0180850FB6F89469
:1016F0000F920F900FBE813081F60FB6F8940F92C3
:10170000C0913404D091350488850F900FBE81308C
:1017100009F46FC00FB6F8940F920F900FBE82308D
:1017200009F4B7C00FB6F8940F9218961C920F9058
:101730000FBEB3CF0FB6F8940F92809134049091FE
:101740003504EC0188850F900FBE813009F441C04B
:101750000FB6F8940F920F900FBE823009F489C033
:10176000E9010FB6F8940F9210860F900FBE0FB6D6
:10177000F8940F9218961C920F900FBE0FB6F89423
:101780000F9218860F900FBEA5CF0FB6F8940F9248
:10179000C0913404D091350488850F900FBE8130FC
:1017A00009F43BC00FB6F8940F920F900FBE823031
:1017B00009F449C00FB6F8940F9210860F900FBE2F
:1017C0000FB6F8940F9218961C9218970F900FBEB0
:1017D00073CFC8010E94020BC0912A04D0912B0440
:1017E000E0913004F0913104A0912C04B0912D04CB
:1017F000B8CF0FB6F8940F920F900FBEE09132045D
:10180000F091330460857185C8010E94D30AE0918C
:101810003004F0913104DF0185CF0FB6F8940F92B8
:101820000F900FBEE0912E04F0912F046085C80147
:101830000E94120BA0912C04B0912D04E091300471
:10184000F0913104B7CF0FB6F8940F920F900FBEFE
:10185000E0912E04F0912F046085C7010E94120BC5
:10186000A0912C04B0912D04E0913004F09131044A
:10187000A1CFC7010E94020BC0912A04D0912B0472
:10188000E0913004F0913104A0912C04B0912D042A
:1018900068CF0FB6F8940F920F900FBEE09132040C
:1018A000F091330460857185C7010E94D30AE091ED
:1018B0003004F0913104DF0135CF0F931F93CF93A4
:1018C000DF93EC010E9431178CEB93E099838883BE
:1018D000DF91CF911F910F910895CF93DF9300D0A7
:1018E00000D0CDB7DEB78C0182E090E00E94731B80
:1018F000F8016681778147E00E94210DE09126047E
:10190000F09127040FB6F8940F92808591859A8301
:1019100089830F900FBEC980DA806BE0F801868161
:1019200097810E94EF1B7C0164EF74E00E94AA1B68
:1019300062E0C7010E94EF1BB6010E949F1C66E097
:101940000E94EF1BE0912004F09121040FB6F8945F
:101950000F9280858C830F900FBEDC806BE0F801C6
:10196000868197810E94EF1B7C0165EE74E00E94E6
:10197000AA1B60E0C7010E94EF1B6D2D0E94211D74
:1019800066E00E94EF1BE0911E04F0911F040FB669
:10199000F8940F9280858B830F900FBEDB806BE0F5
:1019A000F801868197810E94EF1B7C0166ED74E04F
:1019B0000E94AA1B60E0C7010E94EF1B6D2D0E94D0
:1019C000211D66E00E94EF1B0FB6F8940F92E09184
:1019D0001A04F0911B04C084D1840F900FBE6BE0F9
:1019E000F801868197810E94EF1B7C0165EC74E011
:1019F0000E94AA1B62E0C7010E94EF1BB6010E9471
:101A00009F1C66E00E94EF1B66E0F80186819781CB
:101A10000E94EF1B64EF71E080E090E00E94E2130F
:101A20006DCF0F931F93CF93DF93EC010E9431177B
:101A300084EC93E099838883DF91CF911F910F917C
:101A40000895DC016D937C93E0912804F0912904C2
:101A50000FB6F8940F92118610860F900FBEE0918A
:101A60002604F09127040FB6F8940F921186108681
:101A70000F900FBEE0912404F09125040FB6F89466
:101A80000F9210860F900FBEE0912204F091230474
:101A90000FB6F8940F9210860F900FBEE0912004BD
:101AA000F09121040FB6F8940F9210860F900FBE9C
:101AB000E0911E04F0911F040FB6F8940F92108667
:101AC0000F900FBE8FB780688FBFEAE6F0E06081AD
:101AD000242F30E081E090E0DC0102C0AA0FBB1FA0
:101AE0004A95E2F7AD015A2F509556235083508105
:101AF000B90161507109DC0102C0AA0FBB1F6A95D0
:101B0000E2F7BD015A2B50835DB3542B5DBB70814E
:101B1000A90142505109DC0102C0AA0FBB1F4A951E
:101B2000E2F7AD01409547234083408123503109BE
:101B3000022E01C0880F0A94EAF7482B40838DB328
:101B4000862B8DBB8DB18F708DB98EB1806F8EB9A4
:101B500008951F920F920FB60F9211240BB60F9299
:101B60008F939F93AF93BF93EF93FF93CF93DF93A5
:101B7000CDB7DEB72597DEBFCDBFE0912204F0914F
:101B800023040FB6F8940F9280858D830F900FBEBB
:101B90008D81A0912404B09125040FB6F8940F9282
:101BA00018968C9318970F900FBE9CB18CB18072D1
:101BB0009071892B90E0959587959595879595954A
:101BC0008795959587950FB6F8940F9280870F901B
:101BD0000FBE18968C91813009F454C008F442C0AD
:101BE000823039F1833089F48085813009F451C025
:101BF0008085823009F03CC0E0912804F0912904EE
:101C0000808591850197918780870F900F900F9025
:101C10000F900F90DF91CF91FF91EF91BF91AF9116
:101C20009F918F910F900BBE0F900FBE0F901F9042
:101C300018958085833069F18085811119C0E09104
:101C40002804F09129040FB6F8940F9280859185AD
:101C50009A8389830F900FBE89819A81019791871A
:101C60008087D3CF80858230A1F080858130D9F004
:101C7000E0911C04F0911D04808591850196918767
:101C80008087C3CF8085882321F08085833081F7CA
:101C9000B3CFE0912804F0912904808591850196C5
:101CA00091878087B2CFE0912804F09129040FB684
:101CB000F8940F92808591859C838B830F900FBE43
:101CC0008B819C810197918780879FCF0C94A90D70
:101CD0001F920F920FB60F9211240BB60F928F9393
:101CE0009F93AF93BF93EF93FF93E0911E04F09106
:101CF0001F048085A0912004B091210418968C9334
:101D000018979CB18CB180789074892B90E0082E44
:101D1000892F000C881F990B000C881F991F808742
:101D200018968C918130E9F160F1823071F0833046
:101D3000D9F48085813009F43FC0E0912204F0910C
:101D400023048085823019F506C080858330A1F197
:101D5000808581111CC0E0912604F09127048085C4
:101D60009185019791878087FF91EF91BF91AF9106
:101D70009F918F910F900BBE0F900FBE0F901F90F1
:101D8000189580858230C1F08085813021F3E09103
:101D90001A04F0911B0480859185019691878087B4
:101DA000E3CF8085882341F0E0912204F091230461
:101DB0008085833061F7CFCFE0912604F09127042E
:101DC00080859185019691878087CECF0C94680E8F
:101DD0000F931F93CF93DF93EC010E94D511809155
:101DE0003804811121C082E494E090933E048093F2
:101DF0003D041092400410923F0487E397E19093D2
:101E00003C0480933B0410923A041092390490935E
:101E100045048093440489E394E0909343048093C1
:101E2000420481E080933804209709F460C0AE0139
:101E30004C5F5F4F2396C633D74108F058C0E091FE
:101E40003D04F0913E04ADE3B4E006C08081918191
:101E5000009739F0DF01FC01228133812417350717
:101E6000A8F3C4E0E933FC0709F441C00D911C91CB
:101E700011970C5F1F4F808191818D939C93C901B5
:101E8000841B950B8930910500F1BF01640F751F0C
:101E9000DB0113969C938E93129753834283129681
:101EA0008D919C911397ADE3B4E001C0DF01ED91FA
:101EB000FC9111972281338128173907B8F3EB0180
:101EC000F983E8836D937C939A018091000290914D
:101ED0000102821B930B90930102809300020E94E7
:101EE0000813C801DF91CF911F910F91089500E071
:101EF00010E00E940813C801DF91CF911F910F914C
:101F00000895CF93DF93009721F1EC0124970E946D
:101F1000D5114A815B81ADE3B4E001C0DF01ED91F1
:101F2000FC9111972281338124173507B8F3F98387
:101F3000E883CD93DC938091000290910102840F9D
:101F4000951F9093010280930002DF91CF910C9432
:101F50000813DF91CF9108958091000290910102C2
:101F6000089508958091AE1B823018F00E949F2042
:101F7000F9CFFFCFCF92DF92EF92FF926B017C01FE
:101F8000E091791BF0917A1B62837383848395833C
:101F90008091821B9091831BA091841BB091851B23
:101FA0006091791B70917A1BC816D906EA06FB0668
:101FB00010F18091961B9091971B6E5F7F4F0E944E
:101FC000661F8091020290910302A0910402B091D9
:101FD0000502C816D906EA06FB0640F4C0920202C2
:101FE000D0920302E0920402F0920502FF90EF907B
:101FF000DF90CF9008958091941B9091951B6E5F18
:102000007F4FFF90EF90DF90CF900C94661F5F9210
:102010006F927F928F929F92AF92BF92CF92DF92F8
:10202000EF92FF920F931F93CF93DF934C01162FE4
:10203000572E5A01390189E290E00E94E80EEC0126
:10204000009709F4E9C0C114D10409F4DAC0DC8EA8
:10205000CB8EC601A50165EA70E00E94D82A21E076
:10206000A21AB108CB8CDC8CCA0CDB1CAE01435E1F
:102070005F4FE12FF52D2AE0CF013191DA013D9339
:10208000AD01DC018C91882311F02150A9F71EA22B
:10209000102F043008F07DC01A8F1FA318A65E0110
:1020A000B2E0AB0EB11CC5010E94411FCE010E96DD
:1020B0000E94411FDB87CA8784E090E0A0E0B0E087
:1020C000811B9109A109B1098E879F87A88BB98BC4
:1020D000DF8BCE8BA301B401C6010E94CF1F998371
:1020E0008883E114F10419F0F701D183C0830FB69E
:1020F000F8940F928091861B8F5F8093861B80914E
:10210000791B90917A1B892B09F449C08091801B1F
:1021100081110BC0E091791BF0917A1B828D081719
:1021200020F0D0937A1BC093791B80917C1B8F5F2A
:1021300080937C1B8A8D9091811B981738F1FBE06E
:102140008F9FC0011124B5018255944E0E94451FF6
:102150000F900FBE8091801B882339F0E091791B8E
:10216000F0917A1B828D8017B0F081E0DF91CF91E2
:102170001F910F91FF90EF90DF90CF90BF90AF90A5
:102180009F908F907F906F905F9008958093811BB8
:10219000D6CF13E081CF0E949F2081E0E7CFD0937C
:1021A0007A1BC093791B8091861B813009F0BDCFCB
:1021B0008EEA9BE10E94301F89EB9BE10E94301F59
:1021C00084EC9BE10E94301F8FEC9BE10E94301F4A
:1021D00083EA9BE10E94301F88E99BE10E94301F47
:1021E00089E89BE10E94301F83EA9BE19093971B53
:1021F0008093961B88E99BE19093951B8093941B99
:1022000094CFC5010E94E80E9C8F8B8F009709F038
:1022100021CFCE010E94810F8FEFA8CF0FB6F89487
:102220000F92009729F00F900FBEFC01828D089548
:102230008091791B90917A1B0F900FBEFC01828DCB
:102240000895EF92FF921F93CF93DF93EC01262F17
:10225000643008F023E00FB6F8940F92209709F449
:102260004AC03FA13217A9F18091791B90917A1B46
:102270003217B8F5C817D90741F0E091791BF091F2
:102280007A1B11E0828D281708F410E08A8D381728
:1022900069F12FA34E855F856889798977FD0CC028
:1022A00044E050E060E070E0421B510961097109AF
:1022B0004E875F87688B798B2BE0829FC00111244A
:1022C0008255944E2C853D8528173907C9F0113069
:1022D00079F00F900FBEDF91CF911F91FF90EF909B
:1022E000089511E0C817D90781F6D0CF2A8FD1CF32
:1022F0000E949F20EECFC091791BD0917A1BB1CF65
:102300007E0182E0E80EF11CC7010E94A31F8A8DA6
:102310009091811B981710F48093811B2BE0829F72
:10232000C0011124B7018255944E0E94451FCFCFA2
:10233000AF92BF92CF92DF92EF92FF920F93A12CB8
:10234000B12CC12CD12C87E8E82E8BE1F82E00E0CF
:1023500020E030E044E650E068EC73E082EB9FE080
:102360000E940710813041F00F91FF90EF90DF90B5
:10237000CF90BF90AF900895F8948093801B1092F7
:10238000821B1092831B1092841B1092851B0F914D
:10239000FF90EF90DF90CF90BF90AF900C946320B0
:1023A000F8941092801B0C949E2080917B1B8F5F71
:1023B00080937B1B08950FB6F8940F926091821B57
:1023C0007091831B8091841B9091851B0F900FBE91
:1023D00008956091821B7091831B8091841B909162
:1023E000851B08958091861B0895009711F04D96E6
:1023F00008958091791B90917A1B4D960895809154
:10240000871B9091881B0895AF92BF92CF92DF9265
:10241000EF92FF920F931F93CF93DF9380917B1BDB
:102420008111CFC08091821B9091831BA091841B4E
:10243000B091851B0196A11DB11D8093821B9093C5
:10244000831BA093841BB093851BC090821BD090EC
:10245000831BE090841BF090851BC114D104E10420
:10246000F10439F58091961B9091971B2091941B54
:102470003091951B3093971B2093961B9093951B3F
:102480008093941B80917D1B8F5F80937D1BE091D7
:10249000961BF091971B808181119AC08FEF9FEF5F
:1024A000DC018093020290930302A0930402B09394
:1024B00005028091020290910302A0910402B09162
:1024C0000502B12CC816D906EA06FB0608F457C067
:1024D0009BE0A92EE091961BF091971B80818823A9
:1024E00009F442C0E091961BF091971B0780F0859C
:1024F000E02DC085D1854A815B816C817D81C416C8
:10250000D506E606F70608F47AC08E010E5F1F4F67
:10251000C8010E94A31F888D998D892B21F0CE01BF
:102520000E960E94A31F8A8D9091811B981710F41C
:102530008093811BA89EC0011124B8018255944E3E
:102540000E94451FE091791BF0917A1B9A8D828D34
:10255000981708F4BFCFBB24B394E091961BF09179
:10256000971B80818111BECF4FEF5FEFBA0140937F
:102570000202509303026093040270930502E091FB
:10258000791BF0917A1BE28D8BE0E89FF00111241A
:10259000E255F44E8081823010F0BB24B3948091D8
:1025A0007E1B882311F0BB24B3948B2DDF91CF9138
:1025B0001F910F91FF90EF90DF90CF90BF90AF9061
:1025C000089580917F1B8F5F80937F1BB12CE7CF95
:1025D000E091961BF091971B0780F085E02D008419
:1025E000F185E02D82819381A481B58180930202DF
:1025F00090930302A0930402B09305025ACF409334
:102600000202509303026093040270930502B7CF55
:10261000EF92FF920F931F93CF93DF930FB6F8942F
:102620000F9280917B1B815080937B1B80917B1B41
:10263000811150C08091861B882309F44BC02BE088
:10264000F22EEE24E39427C0E091901BF091911BB1
:10265000C085D185CE010E960E94A31F8E010E5F0C
:102660001F4FC8010E94A31F8A8D9091811B98174C
:1026700010F48093811BF89EC0011124B80182558B
:10268000944E0E94451FE091791BF0917A1B9A8D20
:10269000828D981748F58091891B8111D5CF809143
:1026A0007F1B882399F080917F1B882379F0C1E0FC
:1026B0000E9404128111C0937E1B80917F1B815068
:1026C00080937F1B80917F1B8111F2CF80917E1BB5
:1026D000813069F080E00F900FBEDF91CF911F91A4
:1026E0000F91FF90EF900895E0927E1BD4CF0E944F
:1026F0009F2081E0F0CFCF92DF92EF92FF920F9375
:102700001F93CF93DF9300D000D0CDB7DEB72091D9
:102710007B1B2F5F20937B1BC090821BD090831B61
:10272000E090841BF090851BFC01008111812281C7
:102730003381400F511F621F731FC016D106E2067E
:10274000F306E8F44017510762077307E8F0FC014D
:1027500040835183628373830E940813811102C0F6
:102760000E949F200F900F900F900F90DF91CF91BC
:102770001F910F91FF90EF90DF90CF900895401739
:1027800051076207730728F0C416D506E606F70658
:10279000F0F6FC0140835183628373838091791B3F
:1027A00090917A1B029649835A836B837C830E94A3
:1027B000A31F49815A816B817C81CB01BA010E94A0
:1027C000BA0FCACFCF92DF92EF92FF9261157105D7
:1027D0008105910539F40E949F20FF90EF90DF90D2
:1027E000CF90089520917B1B2F5F20937B1BC0907F
:1027F000821BD090831BE090841BF090851BC60E3B
:10280000D71EE81EF91E8091791B90917A1B0296C3
:102810000E94A31FC701B6010E94BA0F0E940813AD
:102820008823C9F2FF90EF90DF90CF9008958091B8
:102830007B1B81113BC010927E1BE091811B8BE0C2
:10284000E89FF0011124E255F44E8081811110C0FF
:102850009BE08091811B81508093811BE091811BC3
:102860009E9FF0011124E255F44E8081882389F364
:10287000E091811B8BE0E89FF0011124E255F44EBA
:10288000A181B28114960D90BC91A02DB283A18339
:10289000CF010396A817B90769F018968D919C91FE
:1028A000199790937A1B8093791B089581E0809308
:1028B0007E1B089514969C91149715968C91918384
:1028C0008283A92FB82FE9CFCF92DF92EF92FF92A8
:1028D0006A017B016091791B70917A1B625F7F4F67
:1028E0000E94661F8091791B90917A1B02960E942C
:1028F000A31F6091821B7091831B8091841B909118
:10290000851B6C0D7D1D8E1D9F1DFF90EF90DF9030
:10291000CF900C94BA0FCF92DF92EF92FF920F9369
:102920001F9368017901E091791BF0917A1B70681F
:1029300046875787608B718B6091791B70917A1BEA
:10294000625F7F4F0E94451F8091791B90917A1B97
:1029500002960E94A31F6091821B7091831B80913D
:10296000841B9091851B6C0D7D1D8E1D9F1D1F91DD
:102970000F91FF90EF90DF90CF900C94BA0F0F93D0
:102980001F93CF93DF93DC011796ED91FC9118977D
:10299000C085D1858E01025F1F4FC8010E94A31F11
:1029A00080917B1B811124C08E010E5F1F4FC801D7
:1029B0000E94A31F8A8D9091811B9817F8F0BBE0AD
:1029C0008B9FC0011124B8018255944E0E94451F6F
:1029D000E091791BF0917A1B9A8D828D891788F48A
:1029E00081E080937E1BDF91CF911F910F9108951D
:1029F000B80189E89BE10E94451FEACF8093811BC3
:102A0000DECF80E0DF91CF911F910F9108950F935A
:102A10001F93CF93DF937068FC01408351836283DF
:102A20007383C085D1850E94A31F8E010E5F1F4F47
:102A3000C8010E94A31F8A8D9091811B981710F4E2
:102A40008093811BFBE08F9FC0011124B801825548
:102A5000944E0E94451FE091791BF0917A1B9A8D4C
:102A6000828D891740F481E080937E1BDF91CF91A6
:102A70001F910F91089580E0DF91CF911F910F91E9
:102A8000089520917D1BFC0120834091821B509171
:102A9000831B6091841B7091851B418352836383E8
:102AA000748308958F929F92AF92BF92CF92DF92DC
:102AB000EF92FF920F931F93FC01DB010FB6F89486
:102AC0000F924091821B5091831B6091841B7091E7
:102AD000851B80917D1B908101811281238134812E
:102AE000981729F0401751076207730770F5CD90CA
:102AF000DD90ED90FC9013974A015B01801A910ADA
:102B0000A20AB30A8C149D04AE04BF04F0F4C41AE4
:102B1000D50AE60AF70AC00ED11EE21EF31ECD92B8
:102B2000DD92ED92FC92139780917D1B80838091C2
:102B3000821B9091831BA091841BB091851B818384
:102B40009283A383B48380E001C081E00F900FBE25
:102B50001F910F91FF90EF90DF90CF90BF90AF90BB
:102B60009F908F90089581E080937E1B0895009739
:102B700099F0DC015B96ED91FC915C978081853A40
:102B800081F4319680E090E0DC010196A11DB11D39
:102B90002191253AD1F308958091791B90917A1B68
:102BA000E8CF80E008958091791B90917A1B089579
:102BB0000F931F93CF93DF93EC01009781F18A8DE0
:102BC000E091791BF0917A1B928D891740F54E8523
:102BD0005F856889798977FD11C0E091791BF09153
:102BE0007A1B928D44E050E060E070E0491B51098F
:102BF000610971094E875F87688B798B2BE0829F13
:102C0000C00111248255944E2C853D852817390723
:102C100059F0E091791BF0917A1B828D8A8FDF91B8
:102C2000CF911F910F9108958E010E5F1F4FC80124
:102C30000E94A31FE091791BF0917A1B828D8A8FED
:102C40009091811B981710F48093811B2BE0829F39
:102C5000C0011124B8018255944EDF91CF911F918C
:102C60000F910C94451F0F931F93CF93DF93EC01AB
:102C7000009749F088A5815088A72A8D9FA1291720
:102C800011F0882331F080E0DF91CF911F910F91F7
:102C900008958E010E5F1F4FC8010E94A31F8FA1D0
:102CA0008A8F44E050E060E070E0481B5109610900
:102CB00071094E875F87688B798B9091811B98177C
:102CC00010F48093811B2BE0829FC0011124B80176
:102CD0008255944E0E94451F81E0DF91CF911F9154
:102CE0000F910895CF92DF92EF92FF92E091791BBE
:102CF000F0917A1B6685778580899189E091791BAF
:102D0000F0917A1BA091791BB0917A1B5A962C9165
:102D100034E0C32ED12CE12CF12CC21AD108E108E9
:102D2000F108C686D786E08AF18AFF90EF90DF909F
:102D3000CF9008958091791B90917A1B892B39F05F
:102D4000E091791BF0917A1B80A58F5F80A780911D
:102D5000791B90917A1B0895EF92FF920F931F9326
:102D6000CF93DF9300D0CDB7DEB77C0181ED93E048
:102D7000F7019183808361157105C1F0FB0101901A
:102D80000020E9F73197E61BED3020F50E2F10E01B
:102D9000C801019669837A830E947A1BF7019583A3
:102DA0008483A80169817A810E94DF2A8091DA1BDD
:102DB0009091DB1BF70197838683F092DB1BE092F7
:102DC000DA1B0F900F90DF91CF911F910F91FF9021
:102DD000EF900895ECE0DACF0F931F93CF93DF933A
:102DE000EC018091DA1B9091DB1B6BE0892B49F1A0
:102DF000CE010E94EF1B8C0168E475E00E94AA1BC3
:102E000066E0C8010E94EF1B6BE0CE010E94EF1B41
:102E10008C0165E275E00E94AA1B66E0C8010E9471
:102E2000EF1B8091DA1B9091DB1BDC01ED91FC9193
:102E30000190F081E02DBE01DF91CF911F910F91A4
:102E40000994CE010E94EF1BEC0167E075E00E943F
:102E5000AA1B66E0CE01DF91CF911F910F910C94D8
:102E6000EF1B4F925F926F927F928F929F92AF92E1
:102E7000BF92CF92DF92EF92FF920F931F93CF9367
:102E8000DF93EC013B0149012801FC0187ED93E050
:102E900081939193A12CB12CC12CD12C7F01042FB3
:102EA0009E01A4018EEF98E20E9407105F824E827D
:102EB000998688862091DC1B3091DD1B3D832C8315
:102EC000D093DD1BC093DC1B1C861D868090EA1B03
:102ED0009090EB1B9FEF891A990A9092EB1B8092BE
:102EE000EA1B9B868A861E861F86188A198A4114C9
:102EF000510409F44CC06BE0813041F1C2010E94E1
:102F0000EF1BEC016BE675E00E94AA1BB301CE013A
:102F10000E94AA1BE881F9810280F381E02D62E220
:102F2000CE01099566E0CE01DF91CF911F910F91FF
:102F3000FF90EF90DF90CF90BF90AF909F908F90D9
:102F40007F906F905F904F900C94EF1BC2010E9496
:102F5000EF1BEC0161E875E00E94AA1BB301CE01F2
:102F60000E94AA1B6BE0CE010E94EF1BEC0168E8F7
:102F700075E00E94AA1B63E0CE010E94EF1BB40122
:102F80000E949F1C62E00E94EF1B66E0CDCFDF91A4
:102F9000CF911F910F91FF90EF90DF90CF90BF9056
:102FA000AF909F908F907F906F905F904F9008951B
:102FB000EC01E881F9810190F081E02D09951B82F7
:102FC0001A826FEF7FEFCB010E94E213FACFFC0170
:102FD000648765870895FC01C681D781209739F001
:102FE000CE010E94AA1B66E0CE010E94EF1B2BE0DF
:102FF00088E190E00FB6F894A895809360000FBE2A
:1030000020936000FFCF0E94DB110E94412A20E044
:1030100030E04AE754E40E94D9290895CF92DF9224
:10302000EF92FF920F931F93CF93DF93EC017B01FD
:103030008A819B810E94F5116C016BE0C7010E949F
:10304000EF1B8C016FE975E00E94AA1BB601C80155
:103050000E94AA1B66E0C8010E94EF1B8A859B851F
:1030600028853985A701BC01821B930B0E94F31AA6
:103070000C80DD81C02D2097D9F6DF91CF911F9173
:103080000F91FF90EF90DF90CF9008950F931F93D3
:10309000CF93DF93EC018091DC1B9091DD1B0097B7
:1030A00019F0BE010E940E186BE0CE010E94EF1BCA
:1030B0008C0166EA75E00E94AA1B66E0C8010E94C6
:1030C000EF1B8091EA1B9091EB1BBC016F5F7F4F60
:1030D000AE0183569109DF91CF911F910F910C940E
:1030E000F31A8F929F92AF92BF92CF92DF92EF929C
:1030F000FF920F931F93CF93DF93EC018B018A8193
:103100009B810E94F511BC01C8010E94AA1BD80135
:10311000ED91FC910280F381E02D69E0C8010995F1
:103120008A819B810E94F511FC0101900020E9F742
:103130003197E81BF90B389748F4D801ED91FC91D1
:103140000280F381E02D69E0C8010995CE84DF8417
:10315000E888F988A884B9848A819B810E94B71580
:10316000982E8C848A819B810E940E11682FC80141
:103170000E94211D6BE00E94EF1BEC016AE176E0EA
:103180000E94AA1B682DCE010E94211D6BE00E94A7
:10319000EF1BEC016CE176E00E94AA1B692DCE01C9
:1031A0000E94211D6BE00E94EF1BEC016EE176E0B6
:1031B0000E94AA1BB501CE010E949F1C6BE00E94D9
:1031C000EF1BEC0160E276E00E94AA1B6BE0CE01EF
:1031D0000E94EF1BEC0162E276E00E94AA1BB7019D
:1031E000A601CE01DF91CF911F910F91FF90EF903B
:1031F000DF90CF90BF90AF909F908F900C94D91C90
:103200000F931F93CF93DF93EC018B01E881F9813A
:103210000280F381E02DB801CE01099566E0C80176
:103220000E94EF1B0C80DD81C02D209779F7DF9184
:10323000CF911F910F910895CF93DF93EC01CB01B4
:10324000DB01ED91FC910280F381E02DBE01099537
:10325000CE01DF91CF9108950F931F93CF93DF930A
:10326000EC016BE00E94EF1B8C0168E076E00E94AD
:10327000AA1B6BE0C8010E94EF1B8C0163E176E0A2
:103280000E94AA1B66E0C8010E94EF1B6BE0CE0102
:103290000E94EF1B8C0165EE75E00E94AA1B6BE09B
:1032A000C8010E94EF1B8C0166EF75E00E94AA1B0B
:1032B0006BE0C8010E94EF1B8C0162E076E00E9487
:1032C000AA1B66E0C8010E94EF1B6BE0CE010E94C2
:1032D000EF1B8C0162EC75E00E94AA1B6BE0C80139
:1032E0000E94EF1B8C0163ED75E00E94AA1B6BE04E
:1032F000C8010E94EF1B8C016FED75E00E94AA1BB4
:1033000066E0C8010E94EF1B8091DC1B9091DD1BE1
:10331000009719F0BE010E9400190E94FF110E943F
:10332000B715182F6BE0CE010E94EF1BEC0161EB8B
:1033300075E00E94AA1B612FCE010E94211D6BE047
:103340000E94EF1BEC016CEB75E00E94AA1B64E687
:1033500070E0CE010E949F1C6BE00E94EF1BEC010D
:103360006EEB75E00E94AA1B66E0CE01DF91CF9163
:103370001F910F910C94EF1BCF92DF92EF92FF926F
:103380000F931F93CF93DF937C018B01DC011A967F
:103390006D917C911B97C8010E94AA1BF701A28521
:1033A000B385FD0101900020E9F73197DE2EDA1A8E
:1033B000FFE0FD1580F0C0E0D0E0D801ED91FC9178
:1033C0000280F381E02D60E2C801099521968C2FDF
:1033D0008D0D803190F36BED73E0C8010E94AA1B44
:1033E000D7015696CD90DC9057971E968D919C9163
:1033F0001F970E94F824682FC8010E94211DEC012C
:10340000E881F9810280F381E02D6FE20995B60130
:10341000CE010E949F1CDC01ED91FC910280F381A2
:10342000E02D69E0099566E0C8010E94EF1BF701F5
:1034300084859585009781F0DC01ED91FC910190E8
:10344000F081E02DB801DF91CF911F910F91FF9096
:10345000EF90DF90CF900994DF91CF911F910F9162
:10346000FF90EF90DF90CF9008956F927F928F92B0
:103470009F92AF92BF92CF92DF92EF92FF920F9303
:103480001F93CF93DF93EC01762E672E4A015901EB
:10349000670178010E949F1BB401CE0106960E942D
:1034A000AC1686EE93E09983888328EF33E03F8360
:1034B0002E83BD8AAC8A40E061E0872D0E9469229C
:1034C0009F878E87C88AD98AEA8AFB8A7E8A6F8A12
:1034D000DF91CF911F910F91FF90EF90DF90CF90F0
:1034E000BF90AF909F908F907F906F9008950697B8
:1034F0000C94BC19CF92DF92EF92FF920F931F931F
:10350000CF93DF93CDB7DEB72F970FB6F894DEBF1A
:103510000FBECDBF8C017B01DB016D917D918D9143
:103520009C9128EE33E040E050E00E948329BA01EC
:10353000A901C8010E94D91CD801ED91FC9102801B
:10354000F381E02D6EE2C8010995C7010E94212593
:103550006E01B9E0CB0ED11C7E01EFE0EE0EF11C46
:103560002AE030E040E050E00E94A529E62F2983C0
:103570003A834B835C8369817A818B819C81E05D96
:10358000D701EE937D01AC15BD0551F71F86BD0136
:10359000C8010E94AA1BC8012F960FB6F894DEBF7F
:1035A0000FBECDBFDF91CF911F910F91FF90EF9094
:1035B000DF90CF900895CF93DF93EC010FB6F8948E
:1035C0000F9280912401909125019D838C830E940C
:1035D000DB11688379838A839B830F900FBECE01B2
:1035E000DF91CF9108958F929F92AF92BF92CF9229
:1035F000DF92EF92FF920F931F93CF93DF936C01B3
:103600004B01EA0163E0CA010E94EF1BC814D90410
:1036100008F059C0560184E1A80EB11C7501B6012D
:10362000CE010E949F1C6BE00E94EF1B64E276E0DB
:103630000E94AA1B8601F80161918F01CE010E94B0
:10364000211DE881F9810280F381E02D60E2CE0145
:1036500009950E151F0579F7E881F9810280F3813C
:10366000E02D60E2CE0109950FC080EE860FE88163
:10367000F9810280F381E02D8F3508F06EE2CE01F2
:103680000995CE14DF0481F0F60161916F01653A6E
:1036900061F7E881F9810280F381E02D60E2CE01DB
:1036A0000995CE14DF0481F7650166E0CE010E9422
:1036B000EF1BF4E1EF0EF11CA814B90420F4C501CE
:1036C00044965C01ACCF62E0CE01DF91CF911F91B7
:1036D0000F91FF90EF90DF90CF90BF90AF909F90B1
:1036E0008F900C94EF1B0C94E80E009711F00C9443
:1036F000810F08950C94E80E009711F00C94810F3F
:103700000895FC0181E090E02081222311F080E007
:1037100090E0089521E0FC01208308950895089524
:1037200081E0089580E0089580E008950895DC0127
:10373000ED91FC910280F381E02D6CE00994FC0195
:103740008EEF93E0918380838AE0828383E0858398
:10375000148208950F931F93CF93DF93EC01FB0125
:103760008C81811117C06081662379F08F010F5F12
:103770001F4FE881F9810280F381E02DCE01099588
:10378000F80161918F016111F4CFDF91CF911F9109
:103790000F9108951C828B010F5F1F4F6491662368
:1037A000A1F3A881B9811296ED91FC911397CE01F6
:1037B0000995F80164910F5F1F4F6111F2CFE5CFBA
:1037C000883008F087E08093070289E008959EEF33
:1037D000980F9F3010F4809306028AE00895CF93EB
:1037E000DF93EC01462F50E04C30510538F4FA01DC
:1037F000EA59FF4F0C94C42982E08A83CE01DF91FD
:10380000CF91089581E08C83F9CF88E08A83F6CF49
:103810008AE08A83F3CF80E18A83F0CFE881F9815F
:103820000280F381E02D6DE00995E881F981028045
:10383000F381E02D6AE0CE010995E0CFE881F981BE
:103840000284F385E02D0995D9CFE881F9810084C0
:10385000F185E02D0995D2CF809107028D83CECFDF
:10386000809106028A83CACF0F931F93CF93DF9371
:10387000CDB7DEB761970FB6F894DEBF0FBECDBFF0
:103880008C01CB01F80122812A3079F0C8010E9415
:103890009F1CC80161960FB6F894DEBF0FBECDBF66
:1038A000DF91CF911F910F9108954AE050E0BE0142
:1038B0006F5F7F4F0E94EE2ABE016F5F7F4FC8018E
:1038C0000E94AA1BE6CF0F931F93CF93DF9300D0E4
:1038D00000D01F92CDB7DEB78C01862FD80113968A
:1038E0009C911397911112C0F80192819A30B1F016
:1038F000C8010E94211DC8010F900F900F900F90DA
:103900000F90DF91CF911F910F910895ED91FC9150
:103910000280F381E02DC8010995EDCF4AE050E027
:10392000BE016F5F7F4F992787FD90950E94EE2A19
:10393000BE016F5F7F4FC8010E94AA1BDCCFFF92C0
:103940000F931F93CF93DF93CDB7DEB761970FB679
:10395000F894DEBF0FBECDBF8C01F62E972FF80175
:103960004281403191F0483081F0423071F050E0B6
:10397000BE016F5F7F4F8F2D0E94342BBE016F5FA2
:103980007F4FC8010E94AA1B07C0692FC8010E946F
:10399000211D6F2D0E94211DC80161960FB6F8945C
:1039A000DEBF0FBECDBFDF91CF911F910F91FF9072
:1039B0000895DF92EF92FF920F931F93CF93DF93BF
:1039C000CDB7DEB7A1970FB6F894DEBF0FBECDBF5F
:1039D0008C01D42EE52EF62E972FF801228120316E
:1039E000A1F0283091F0223081F030E0AE014F5F3D
:1039F0005F4F6D2D7E2D8F2D0E940F2BBE016F5FAF
:103A00007F4FC8010E94AA1B0DC0692FC8010E94E8
:103A1000211D6F2D0E94211D6E2D0E94211D6D2DD7
:103A20000E94211DC801A1960FB6F894DEBF0FBEFB
:103A3000CDBFDF91CF911F910F91FF90EF90DF905D
:103A40000895CF92DF92EF92FF920F931F93CF933F
:103A5000DF93CDB7DEB729970FB6F894DEBF0FBE60
:103A6000CDBF8C01D62EDC0113968C91139781115A
:103A70005DC0F80142814230D9F14031F1F050E0AF
:103A8000BE016F5F7F4F8D2D90E00E94342BBE01F1
:103A90006F5F7F4FC8010E94AA1BC80129960FB60D
:103AA000F894DEBF0FBECDBFDF91CF911F910F9174
:103AB000FF90EF90DF90CF90089562956F70019026
:103AC000F081E02D0280F381E02D6A30B8F5605D71
:103AD000C80109956D2D6F70D801ED91FC910280A0
:103AE000F381E02D6A3060F1695CC8010995D5CF9A
:103AF00088E0E82EF12C90E8C92E0AC061E3C801E5
:103B00000995C694B1E0EB1AF108E114F10429F229
:103B10008C2D8D21D801ED91FC910280F381E02D57
:103B20008111ECCF60E3C8010995EBCFED91FC91D9
:103B30000280F381E02DC8010995AFCF695CC8CF41
:103B4000605DD3CFDC011896ED91FC9119978081CF
:103B50001C969C911C97892359F421E23EE405C0F0
:103B6000215031092115310571F080818923C1F37C
:103B700080811E969C911E97892B80831696ED91CD
:103B8000FC91179760830895FC01878581111DC002
:103B90002091E61B3091E71B8091E41B9091E51B7F
:103BA0002817390789F0E091E81BF091E91BE20F33
:103BB000F31F80812F5F3F4F2032310518F11092A3
:103BC000E71B1092E61B0895FFCF2091E01B309178
:103BD000E11B8091DE1B9091DF1B2817390789F0CC
:103BE000E091E21BF091E31BE20FF31F80812F5F56
:103BF0003F4F2032310558F01092E11B1092E01B2C
:103C00000895FFCF3093E71B2093E61B0895309370
:103C1000E11B2093E01B0895DC01ED91FC910280F3
:103C2000F381E02D6CE00994FC018785882369F01D
:103C300081E04091E01B5091E11B2091DE1B30910F
:103C4000DF1B4217530769F0089581E04091E61B9E
:103C50005091E71B2091E41B3091E51B421753075D
:103C600099F780E00895EF92FF921F93CF93DF932F
:103C700000D0CDB7DEB77C01142F69837A830E9410
:103C80009F1B412F69817A81C70106960E945F259B
:103C90008EE094E0F7019183808317871123E9F088
:103CA0008091C90080688093C90080E290E00E9402
:103CB0007A1B9093E31B8093E21B1092E11B1092FE
:103CC000E01B1092DF1B1092DE1B0F900F90DF9114
:103CD000CF911F91FF90EF9008958091C10080686F
:103CE0008093C10080E290E00E947A1B9093E91BD0
:103CF0008093E81B1092E71B1092E61B1092E51BC5
:103D00001092E41B0F900F90DF91CF911F91FF90C5
:103D1000EF9008951F920F920FB60F9211240BB6D9
:103D20000F922F933F938F939F93EF93FF93209145
:103D3000C600E091E81BF091E91B8091E41B909193
:103D4000E51BE80FF91F20838091E41B9091E51B90
:103D5000019680329105C0F49093E51B8093E41B9B
:103D60002091E61B3091E71B28173907D1F0FF910E
:103D7000EF919F918F913F912F910F900BBE0F90DC
:103D80000FBE0F901F9018951092E51B1092E41B28
:103D900080E090E02091E61B3091E71B281739075F
:103DA00031F701969093E71B8093E61B8097F8F21A
:103DB0001092E71B1092E61BDACF1F920F920FB6FC
:103DC0000F9211240BB60F922F933F938F939F93D3
:103DD000EF93FF932091CE00E091E21BF091E31B63
:103DE0008091DE1B9091DF1BE80FF91F20838091EB
:103DF000DE1B9091DF1B019680329105C0F49093F9
:103E0000DF1B8093DE1B2091E01B3091E11B281704
:103E10003907D1F0FF91EF919F918F913F912F91B1
:103E20000F900BBE0F900FBE0F901F901895109221
:103E3000DF1B1092DE1B80E090E02091E01B3091B0
:103E4000E11B2817390731F701969093E11B809306
:103E5000E01B8097F8F21092E11B1092E01BDACF82
:103E6000FC010396928381834FEF5FEFBA01438396
:103E700054836583768390878783928781871082B6
:103E80000895FC01138612860895CF93DF939C0159
:103E9000FB01DC011196CD91DC911297D583C4838F
:103EA0008E819F81978386838E819F81DC01159609
:103EB0007C936E9314977F836E8333872287F901F7
:103EC00080818F5F8083DF91CF9108950F931F933F
:103ED000CF93DF93EB01088119812A813B810F3F4A
:103EE0004FEF14072407340731F1DC01139601C0AA
:103EF000DF011496ED91FC9115974081518162810B
:103F00007381041715072607370790F7FD83EC83A5
:103F1000D783C683BF83AE831596DC93CE93149765
:103F20009B878A87FC0120812F5F2083DF91CF91BF
:103F30001F910F910895FC01A185B2851496ED9112
:103F4000FC911597E3CFCF93DF93FC01A285B38556
:103F50002481358186819781E9019F838E838681C3
:103F60009781EC013D832C8311962D913C91129702
:103F70002E173F0741F0138612868C9181508C9347
:103F8000DF91CF91089512969C938E93119713868B
:103F900012868C9181508C93DF91CF9108959093EC
:103FA000EB1B8093EA1B31E1FC013083319722E265
:103FB0002083FC013297A3E3A083FC013397608345
:103FC000FC0134977083FC0135971082FC01369711
:103FD00060E86083FC0137971082FC01389762E04B
:103FE0006083FC01399763E06083FC013A9764E0E9
:103FF0006083FC013B9765E06083FC013C9766E0D1
:104000006083FC013D9767E06083FC013E9768E0B8
:104010006083FC013F9769E06083FC01709760E179
:104020006083FC0171973083FC01729732E1308329
:10403000FC01739733E13083FC01749734E13083E2
:10404000FC01759735E13083FC01769736E13083CA
:10405000FC01779737E13083FC01789738E13083B2
:10406000FC01799739E13083FC017A9730E23083A3
:10407000FC017B9731E23083FC017C972083FC01BB
:104080007D9723E22083FC017E974083FC017F978C
:104090005083FC01B09726E22083FC01B19727E210
:1040A0002083FC01B29728E22083FC01B39729E228
:1040B0002083FC01B49720E32083FC01B59721E322
:1040C00020838697089587E0809329018FEC809361
:1040D00028018AE080932101E3E7F0E0808182609B
:1040E0008083A091791BB0917A1BCD91CDBFDD91DA
:1040F000DEBFFF91EF91DF91CF91BF91AF919F9183
:104100008F917F916F915F914F913F912F911F916F
:104110000F91FF90EF90DF90CF90BF90AF909F9066
:104120008F907F906F905F904F903F902F901F9057
:104130000F900FBE0F90089581E0089508950F929B
:104140000FB6F8940F921F9211242F923F924F9224
:104150005F926F927F928F929F92AF92BF92CF9217
:10416000DF92EF92FF920F931F932F933F934F9302
:104170005F936F937F938F939F93AF93BF93CF93EF
:10418000DF93EF93FF93A091791BB0917A1B0DB64B
:104190000D920EB60D920E941714A091791BB0914A
:1041A0007A1BCD91CDBFDD91DEBFFF91EF91DF9105
:1041B000CF91BF91AF919F918F917F916F915F91BF
:1041C0004F913F912F911F910F91FF90EF90DF90B2
:1041D000CF90BF90AF909F908F907F906F905F90A7
:1041E0004F903F902F901F900F900FBE0F9008950B
:1041F0000F920FB6F8940F921F9211242F923F92B4
:104200004F925F926F927F928F929F92AF92BF92E6
:10421000CF92DF92EF92FF920F931F932F933F93D2
:104220004F935F936F937F938F939F93AF93BF93BE
:10423000CF93DF93EF93FF93A091791BB0917A1BFB
:104240000DB60D920EB60D920E94041281110E94BD
:104250001714A091791BB0917A1BCD91CDBFDD9140
:10426000DEBFFF91EF91DF91CF91BF91AF919F9111
:104270008F917F916F915F914F913F912F911F91FE
:104280000F91FF90EF90DF90CF90BF90AF909F90F5
:104290008F907F906F905F904F903F902F901F90E6
:1042A0000F900FBE0F9008950E94F82018951F934D
:1042B000CF93DF93EC01142F88A181110DC0888169
:1042C0009981892B09F44DC080E09E8D9F5F9E8F60
:1042D000DF91CF911F910895482F50E011111CC01C
:1042E0008C819D810E94CF2A28A18C819D81820F83
:1042F000911D9D838C832A813B818217930720F334
:10430000888199819D838C8380E09E8D9F5F9E8FA5
:10431000DF91CF911F9108958E819F810E94CF2AB6
:1043200028A130E03195219531098E819F81820F3E
:10433000931F9F838E83688179818617970730F456
:104340008A819B81820F931F9F838E83123009F095
:10435000BBCF8E8D882309F4B7CF8E8D81508E8F81
:10436000B3CF8A819B810E9433161B821A82ADCF04
:10437000FC01CB0140A1442399F050E02681378114
:10438000240F351F378326836281738126173707F1
:1043900020F02081318137832683B9010C94CF2A04
:1043A00008950F931F93CF93DF93EC010FB6F8940A
:1043B0000F928AA11816ECF48B898823D1F08E0114
:1043C0000D5E1F4F09C08AA181508AA38AA11816C9
:1043D00084F48B89882369F0C8010E94BF14882364
:1043E00091F30E94B3158AA181508AA38AA118165D
:1043F00084F38FEF8AA30F900FBE0FB6F8940F923D
:1044000089A11816ECF488858823D1F08E01085F05
:104410001F4F09C089A1815089A389A1181684F46E
:104420008885882369F0C8010E94BF14882391F30E
:104430000E94B31589A1815089A389A1181684F31C
:104440008FEF89A30F900FBEDF91CF911F910F9136
:104450000895CF93DF93EC010FB6F8940F92288163
:1044600039818F8D78A1879FC0011124A901480F40
:10447000591F5B834A831E8E3D832C83871B9109C2
:10448000820F931F9F838E838FEF89A38AA361116D
:1044900012C08885811106C00F900FBE81E0DF91A8
:1044A000CF910895CE0108960E94BF148130A1F7E4
:1044B0000E949F20F1CFCE0108960E94301FCE01AE
:1044C00043960E94301F0F900FBE81E0DF91CF9185
:1044D00008950F931F93CF93DF93182F062F8823F0
:1044E00001F183E290E00E94E80EEC010097C9F030
:1044F000109FC001112401960E94E80E99838883C1
:10450000892B61F01F8F08A361E0CE010E94292250
:10451000CE01DF91CF911F910F910895CE010E949E
:10452000810FC0E0D0E0CE01DF91CF911F910F91BC
:1045300008956F927F928F929F92AF92BF92CF9287
:10454000DF92EF92FF920F93CF93DF93CDB7DEB759
:1045500029970FB6F894DEBF0FBECDBF5C014B01AB
:104560002E833F834887598720E03C0188E0680E0E
:10457000711C0FB6F8940F92F501968D878D9817E0
:1045800008F459C0023009F456C0CE80DF80E884B8
:10459000F984CD28CE28CF2809F46FC0222309F44E
:1045A00041C00F900FBE0E94D5110FB6F8940F9224
:1045B000F50181A18F3F09F43CC0F50182A18F3F35
:1045C000B1F10F900FBEBE016A5F7F4FCE01019621
:1045D0000E945215811155C00FB6F8940F92F50143
:1045E000968D0F900FBEF501878D981314C04E81E4
:1045F0005F8168857985C3010E946414C5010E94AA
:10460000D1210E940813882311F021E0B2CF0E942B
:104610009F2021E0AECFC5010E94D1210E94081346
:1046200021E0A7CFCE0101960E944115BACF12A278
:10463000C8CF11A2C2CF402FB401C5010E9457219B
:10464000F5019389911124C0811128C00F900FBEEC
:1046500081E029960FB6F894DEBF0FBECDBFDF9183
:10466000CF910F91FF90EF90DF90CF90BF90AF90E0
:104670009F908F907F906F9008950F900FBE80E075
:10468000E8CFC5010E94D1210E94081380E0E1CF4C
:10469000C50143960E94BF148130C1F60E949F203D
:1046A000D5CF0F93CF93DF9383E290E00E94E80E83
:1046B000EC01009701F11B821A82198218821D8277
:1046C0001C821F821E821E8E81E08F8F18A28FEFA8
:1046D00089A38AA3CE0108960E94301FCE0143967B
:1046E0000E94301F00E020E030E0A90160E070E0AF
:1046F000CE010E949922CE01DF91CF910F910895B2
:104700000F931F93CF93DF93EC018A019E8D8F8DC2
:10471000981740F0223031F080E0DF91CF911F9167
:104720000F910895422FCE010E945721882331F026
:104730000115110519F081E0F80180838AA18F3FEE
:1047400049F08AA18F5F8AA381E0DF91CF911F9109
:104750000F9108958B898823B9F3CE0143960E9467
:10476000BF14882389F30115110571F381E0F80165
:104770008083D3CFAF92BF92CF92DF92EF92FF921E
:104780000F93CF93DF93CDB7DEB729970FB6F89489
:10479000DEBF0FBECDBF7C016B012E833F834887F8
:1047A000598790E0570183E1A80EB11C0FB6F89429
:1047B0000F92F701868D811169C04E815F816885F6
:1047C0007985452B462B472B09F47DC0992309F4A5
:1047D0003EC00F900FBE0E94D5110FB6F8940F92F5
:1047E000F70181A18F3F09F43EC0F70182A18F3FFD
:1047F00009F43FC00F900FBEBE016A5F7F4FCE012C
:1048000001960E945215811171C00FB6F8940F9253
:10481000F701868D0F900FBE81111EC0F7018081B8
:104820009181892B41F14E815F8168857985C50130
:104830000E946414C7010E94D1210E94081388239A
:1048400011F091E0B3CF0E949F2091E0AFCFCE0155
:1048500001960E944115BDCFC7010E94D1210E943F
:10486000081391E0A3CF11A2F70182A18F3F09F0B5
:10487000C1CF12A2BFCF0FB6F8940F92F701828179
:1048800093810E94D8150F900FBECDCFA680B78020
:10489000B601C7010E94B821F70101112EC0868D13
:1048A0008150868F80819181892BB9F1F7018085B4
:1048B000882341F1C70108960E94BF14813011F589
:1048C0000E949F201FC00F900FBE80E029960FB658
:1048D000F894DEBF0FBECDBFDF91CF910F91FF9057
:1048E000EF90DF90CF90BF90AF900895C7010E94E6
:1048F000D1210E94081380E0E9CFB782A682838984
:10490000811104C00F900FBE81E0E0CFC701439634
:104910000E94BF148823B1F3D3CF0E949A16F701E7
:1049200093838283C3CF0F931F93CF93DF9300D0E2
:10493000CDB7DEB78C01FC01868D811108C080E007
:104940000F900F90DF91CF911F910F910895C801A3
:1049500049835A830E94B821F801868D8150868F41
:1049600081A149815A818F3F61F0F80181A18F5F58
:1049700081A381E00F900F90DF91CF911F910F9154
:10498000089580858823A9F3C801089649835A832E
:104990000E94BF1449815A81882359F3411551055A
:1049A00041F381E0FA018083CBCF0F931F93CF9324
:1049B000DF93EC018E8D811106C080E0DF91CF91F5
:1049C0001F910F9108950E811F81CE010E94B82181
:1049D0001F830E8381E0DF91CF911F910F91089586
:1049E0000FB6F8940F92FC01868D0F900FBE0895BC
:1049F0000FB6F8940F92FC01268D0F900FBEFC01AC
:104A0000878D821B0895FC01868D0895CF93DF93D7
:104A1000EC0188819981009711F00E94810FCE01ED
:104A2000DF91CF910C94810FFC01968D81E0911163
:104A300080E00895FC01268D81E0978D291380E0A8
:104A40000895CF92DF92EF92FF92CF93DF93EC0124
:104A5000688179818A819B8128EEC22E23E0D22E43
:104A6000E12CF12CA70196010E9483299B01AC0146
:104A700060E472E48FE090E00E944B29A701960168
:104A80000E94832969017A01AC81BD8120E432E46E
:104A90004FE050E00E94402920E834E84EE150E029
:104AA0000E948329C20ED31EE41EF51EC701B60163
:104AB000DF91CF91FF90EF90DF90CF900895CF934B
:104AC000DF93EC01442309F441C08EEC90E099831C
:104AD000888388EC90E09B838A8389EC90E09D83B7
:104AE0008C8388E18093C90086E08093CA0010928D
:104AF000CD009B0140E050E0220F331F441F551FA3
:104B0000220F331F441F551F220F331F441F551FF1
:104B1000220F331F441F551F60E074E284EF90E0C2
:104B20000E9483292093CC008091C80081608093EB
:104B3000C80080E28E8380E88F8380E48887E881E4
:104B4000F98180818081DF91CF91089586EC90E09A
:104B50009983888380EC90E09B838A8381EC90E04A
:104B60009D838C8388E18093C10086E08093C2009E
:104B70001092C5009B0140E050E0220F331F441FFC
:104B8000551F220F331F441F551F220F331F441F71
:104B9000551F220F331F441F551F60E074E284EF3E
:104BA00090E00E9483292093C4008091C00081601E
:104BB0008093C000BECFDC011296ED91FC9113975B
:104BC000208116968C91282381E009F480E00895D5
:104BD000DC011296ED91FC911397208118968C912F
:104BE000282381E009F080E00895DF92EF92FF92A0
:104BF0000F931F93CF93DF937C018B01DC011496FD
:104C00006D917C911597C8010E94AA1BF701A481A0
:104C1000B581FD0101900020E9F73197DE2EDA1A07
:104C2000FFE0FD1580F0C0E0D0E0D801ED91FC91EF
:104C30000280F381E02D60E2C801099521968C2F56
:104C40008D0D803190F368E072E0C8010E94AA1BCC
:104C500066E0C8010E94EF1BD70116968D919C91CA
:104C60001797009779F0DC01ED91FC910190F081AC
:104C7000E02DB801DF91CF911F910F91FF90EF9040
:104C8000DF900994DF91CF911F910F91FF90EF90EA
:104C9000DF900895DF92EF92FF920F931F93CF93CF
:104CA000DF937C018B01DC0114966D917C9115974B
:104CB000C8010E94AA1BF701A481B581FD010190E2
:104CC0000020E9F73197DE2EDA1AFFE0FD1580F0BB
:104CD000C0E0D0E0D801ED91FC910280F381E02D9D
:104CE00060E2C801099521968C2F8D0D803190F3DB
:104CF00068E072E0C8010E94AA1B66E0C8010E9439
:104D0000EF1BD70116968D919C911797009779F01C
:104D1000DC01ED91FC910190F081E02DB801DF9173
:104D2000CF911F910F91FF90EF90DF900994DF9149
:104D3000CF911F910F91FF90EF90DF900895DF9238
:104D4000EF92FF920F931F93CF93DF937C018B0120
:104D5000DC0114966D917C911597C8010E94AA1BE5
:104D6000F701A481B581FD0101900020E9F7319799
:104D7000DE2EDA1AFFE0FD1580F0C0E0D0E0D801A9
:104D8000ED91FC910280F381E02D60E2C80109956C
:104D900021968C2F8D0D803190F368E072E0C80170
:104DA0000E94AA1B66E0C8010E94EF1BD70116965D
:104DB0008D919C911797009779F0DC01ED91FC9112
:104DC0000190F081E02DB801DF91CF911F910F91FB
:104DD000FF90EF90DF900994DF91CF911F910F9199
:104DE000FF90EF90DF900895DF92EF92FF920F9384
:104DF0001F93CF93DF937C018B01DC0114966D919F
:104E00007C911597C8010E94AA1BF701A481B58166
:104E1000FD0101900020E9F73197DE2EDA1AFFE05C
:104E2000FD1580F0C0E0D0E0D801ED91FC9102804A
:104E3000F381E02D60E2C801099521968C2F8D0D3C
:104E4000803190F368E072E0C8010E94AA1B66E01E
:104E5000C8010E94EF1BD70116968D919C91179760
:104E6000009779F0DC01ED91FC910190F081E02D4B
:104E7000B801DF91CF911F910F91FF90EF90DF90DC
:104E80000994DF91CF911F910F91FF90EF90DF90E8
:104E90000895DF92EF92FF920F931F93CF93DF93CA
:104EA0007C018B01DC0114966D917C911597C801F2
:104EB0000E94AA1BF701A481B581FD010190002089
:104EC000E9F73197DE2EDA1AFFE0FD1580F0C0E039
:104ED000D0E0D801ED91FC910280F381E02D60E2F9
:104EE000C801099521968C2F8D0D803190F368E0D3
:104EF00072E0C8010E94AA1B66E0C8010E94EF1B75
:104F0000D70116968D919C911797009779F0DC0147
:104F1000ED91FC910190F081E02DB801DF91CF91EE
:104F20001F910F91FF90EF90DF900994DF91CF9147
:104F30001F910F91FF90EF90DF900895CF92DF9235
:104F4000EF92FF920F931F93CF93DF9314BE88E1EC
:104F50000FB6F89480936000109260000FBE80E15D
:104F600090E00E94731BEC0141E060E875E20E9452
:104F7000331E67E0CE010E94EF1B6BE00E94EF1B27
:104F80008C0164EE70E00E94AA1B66E0C8010E94DA
:104F9000EF1B88E190E00E94731B6C011EE1E12E83
:104FA000F12C00E010E09E014FE052E060E270E082
:104FB000C6010E94351AD0923704C092360489E0A7
:104FC00090E00E94731B7C0165E172E00E94AC16C8
:104FD0000EE413E0F70111830083F0923504E092B0
:104FE00034048AE090E00E94731B7C0165E272E069
:104FF0000E94AC1694E5C92E93E0D92EF701D18218
:10500000C082F0923304E092320489E090E00E9482
:10501000731B7C0164E372E00E94AC16F7011183FC
:105020000083F0923104E09230048AE090E00E9424
:10503000731B7C0166E472E00E94AC16F701D1821A
:10504000C082F0922F04E0922E0489E090E00E944A
:10505000731B7C0167E572E00E94AC16F7011183B7
:105060000083F0922D04E0922C0489E090E00E94ED
:10507000731B7C016BE672E00E94AC16F701118392
:105080000083F0922B04E0922A048AE090E00E94D0
:10509000731B8C0160E872E00E94AC162AE5E22ED8
:1050A00023E0F22EF801F182E082109329040093AC
:1050B00028048AE090E00E94731B8C0163E972E08F
:1050C0000E94AC16F801F182E0821093270400934D
:1050D000260489E090E00E94731B7C0166EA72E07E
:1050E0000E94AC1600E613E0F70111830083F092F2
:1050F0002504E092240489E090E00E94731B7C0167
:105100006DEB72E00E94AC16F70111830083F09200
:105110002304E092220489E090E00E94731B7C014A
:1051200064ED72E00E94AC16F70111830083F092E7
:105130002104E092200489E090E00E94731B7C012E
:105140006BEE72E00E94AC16F70111830083F092BF
:105150001F04E0921E048AE090E00E94731B8C0101
:1051600062E073E00E94AC1636E6E32E33E0F32EE5
:10517000F801F182E08210931D0400931C048AE080
:1051800090E00E94731B8C016BE173E00E94AC16EF
:10519000F801F182E08210931B0400931A0482E16B
:1051A00090E00E94731B8E0124E031E041E064E353
:1051B00073E00E94350382E190E00E94731B28E1B6
:1051C00031E043E06CE373E00E945D0C82E190E02B
:1051D0000E94731B28E131E042E062E473E00E9428
:1051E000110D0E94981180E090E0DF91CF911F9106
:1051F0000F91FF90EF90DF90CF9008950E94D81705
:105200000F93CF93DF931F92CDB7DEB76983FC0175
:10521000208931894289538900E0BE016F5F7F4F49
:10522000868597850E9499220F90DF91CF910F91EB
:105230000895FC01868597850E94F02491E08111F4
:1052400001C090E0892F08950F93CF93DF931F92B1
:10525000CDB7DEB700E02FEF3FEFA901BE016F5FD2
:105260007F4FFC01868597850E94BA23813031F4F7
:1052700089810F90DF91CF910F9108958FEFF9CF32
:105280000E94CA29A59F900DB49F900DA49F800DE8
:10529000911D11240895DB018F939F930E94402953
:1052A000BF91AF91A29F800D911DA39F900DB29FC2
:1052B000900D11240895AA1BBB1B51E107C0AA1F22
:1052C000BB1FA617B70710F0A61BB70B881F991FA7
:1052D0005A95A9F780959095BC01CD01089597FB4B
:1052E000072E16F4009407D077FD09D00E945B29A1
:1052F00007FC05D03EF4909581959F4F08957095D9
:1053000061957F4F0895A1E21A2EAA1BBB1BFD01D8
:105310000DC0AA1FBB1FEE1FFF1FA217B307E40794
:10532000F50720F0A21BB30BE40BF50B661F771FEC
:10533000881F991F1A9469F76095709580959095CC
:105340009B01AC01BD01CF010895052E97FB1EF412
:1053500000940E94BC2957FD07D00E94832907FCB6
:1053600003D04EF40C94BC2950954095309521956E
:105370003F4F4F4F5F4F0895909580957095619581
:105380007F4F8F4F9F4F0895EE0FFF1F0590F491B1
:10539000E02D0994A29FB001B39FC001A39F700D9F
:1053A000811D1124911DB29F700D811D1124911D2D
:1053B00008950CD0BAC0B2D040F0A9D030F021F49A
:1053C0005F3F19F09BC05111E4C09EC0BFD098F35D
:1053D0009923C9F35523B1F3951B550BBB27AA2776
:1053E00062177307840738F09F5F5F4F220F331FE8
:1053F000441FAA1FA9F333D00E2E3AF0E0E830D0B4
:1054000091505040E695001CCAF729D0FE2F27D0B6
:10541000660F771F881FBB1F261737074807AB0784
:10542000B0E809F0BB0B802DBF01FF2793585F4FF9
:105430002AF09E3F510568F061C0ABC05F3FECF3BE
:10544000983EDCF3869577956795B795F7959F5FBE
:10545000C9F7880F911D9695879597F90895E1E012
:10546000660F771F881FBB1F621773078407BA0771
:1054700020F0621B730B840BBA0BEE1F88F7E095CC
:105480000895E89409C097FB3EF490958095709537
:1054900061957F4F8F4F9F4F9923A9F0F92F96E980
:1054A000BB279395F695879577956795B795F111F5
:1054B000F8CFFAF4BB0F11F460FF1BC06F5F7F4F92
:1054C0008F4F9F4F16C0882311F096E911C07723A4
:1054D00021F09EE8872F762F05C0662371F096E8AD
:1054E000862F70E060E02AF09A95660F771F881F7C
:1054F000DAF7880F9695879597F9089597F99F673A
:1055000080E870E060E008959FEF80EC089500244B
:105510000A941616170618060906089500240A9418
:1055200012161306140605060895092E0394000C9E
:1055300011F4882352F0BB0F40F4BF2B11F460FF2D
:1055400004C06F5F7F4F8F4F9F4F089557FD905856
:10555000440F551F59F05F3F71F04795880F97FB37
:10556000991F61F09F3F79F08795089512161306F1
:105570001406551FF2CF4695F1DF08C01616170620
:105580001806991FF1CF8695710561050894089555
:10559000E894BB2766277727CB0197F90895FB018D
:1055A000DC0102C001900D9241505040D8F708959F
:1055B000DC0101C06D9341505040E0F70895FB01BC
:1055C000DC014150504048F001900D920020C9F795
:1055D00001C01D9241505040E0F70895FB019F012A
:1055E000E8944230C4F04532B4F44A3029F497FBD1
:1055F0001EF4909581959F4F642F77270E945B2919
:10560000805D8A330CF0895D8193CB010097A1F70F
:1056100016F45DE251931082C9010C944A2BFA01F1
:10562000CF93FF93EF932230CCF02532BCF4C22FFE
:105630002C2F332744275527FF93EF930E9483296C
:10564000EF91FF91605D6A330CF0695D6193B90180
:10565000CA01605070408040904051F710828F9195
:105660009F91CF910C944A2BFB019F01423074F023
:10567000453264F4642F77270E945B29805D8A336A
:105680000CF0895D8193CB010097A1F71082C901CD
:105690000C944A2BDC01FC01672F71917723E1F711
:1056A000329704C07C916D9370836291AE17BF07EF
:0856B000C8F30895F894FFCF40
:1056B8003717FFFFFFFF0A0373686172650900501F
:1056C80072696E740073685F6D6F746F725F736573
:1056D8006C6563740073685F706F7765725F656E81
:1056E8007472790073685F706F7765725F73657441
:1056F8005F666C61670073685F6272616B696E6791
:105708005F656E7472790073685F6272616B696E4F
:10571800675F7365745F666C61670073685F627268
:10572800616B696E675F66756C6C5F666C6167005C
:1057380073685F656E636F6465725F636F756E74BF
:105748005F310073685F656E636F6465725F636F76
:10575800756E745F320073685F656E636F6465723F
:105768005F6F6C645F73746174655F310073685F49
:10577800656E636F6465725F6E65775F737461747D
:10578800655F310073685F656E636F6465725F6F34
:105798006C645F73746174655F320073685F656E13
:1057A800636F6465725F6E65775F73746174655F5C
:1057B800320073685F656E636F6465725F657272ED
:1057C8006F725F636F756E745F310073685F656ECB
:1057D800636F6465725F6572726F725F636F756E17
:1057E800745F320055736572496E74004D6F746F43
:1057F8007200456E636F64657200000000004927FF
:1058080000000000F426000000009F2600000000B1
:105818004A2600000000F5252F000D0020706F7744
:1058280065723A0020627265616B696E673A0000C2
:10583800000000ED0471186D6F746F7220636F6E55
:105848007374727563746F72204641494C202873D3
:10585800656C656374206D757374206265206120C2
:1058680031206F7220322900000000002B0B7118C4
:10587800000000006D0C711849444C450000000000
:10588800008F1B000000008F1B71187478745F7103
:10589800090000000000901B002919292429961BE3
:1058A800971BBC19FAFF0000771A00000000901B34
:1058B8008F1B941B921B961B971B00000000901BCC
:0A58C800A21D141EC41D961B0C1E29
:00000001FF
