:100000000C9418040C9437040C9437040C943704A3
:100010000C9437040C94BA0E0C94770F0C94790F4F
:100020000C94F70F0C9437040C9437040C94370499
:100030000C9437040C9437040C9437040C94370454
:100040000C9437040C9437040C9437040C94370444
:100050000C9437040C9437040C9437040C94370434
:100060000C9437040C941B2C0C9437040C94370418
:100070000C9437040C9437040C9437040C94370414
:100080000C9437040C9437040C9437040C94370404
:100090000C946E2C0C9437040C9437040C94370495
:1000A0000C9437040C9437040C9437040C943704E4
:1000B0000C9437040C9437040C9437040C94E52EFC
:1000C0000C9437040C9437040C9437048D2996292A
:1000D00099299C298F298F299F29AF29B629BD29C4
:1000E000C12993292D2D2D2D2D2D2D2D204D45341C
:1000F0003035204C61622035205374617274696E12
:10010000672050726F6772616D202D2D2D2D2D2D62
:100110002D2D005F5F5F5F5F5F5F5F204D45343077
:1001200035204C61622033204D6F646966696564D7
:100130002050726F6772616D205F5F5F5F5F5F5F0E
:100140005F004D61792031352032303136005379EE
:100150007374656D2074696D653A20002C204865C4
:1001600061703A20002C204F435235413A20002044
:10017000202020723A2020202020205265747572A1
:100180006E20746F204D61696E204D656E75002084
:100190002043746C2D433A202020205265736574EF
:1001A00020415652206D6963726F636F6E74726F77
:1001B0006C6C65720020202020733A2020202020C3
:1001C0002046756C6C204272616B650020202020F7
:1001D000623A2020202020204D6F746F72204252FE
:1001E000414B4520776974682050574D205B2D3274
:1001F00035352C203235355D0020202020703A2006
:1002000020202020204D6F746F7220504F57455290
:1002100020776974682050574D205B2D3235352C7E
:10022000203235355D002D2D2D2D2D2D2D2D2D2DF3
:100230002D2D2D2D2D2D2D204D4F544F52204D4520
:100240004E55202D2D2D2D2D2D2D2D2D2D2D2D2DA2
:100250002D2D2D2D0020202020723A20202020201E
:100260002052657475726E20746F204D61696E2026
:100270004D656E7500202043746C2D433A2020207C
:1002800020526573657420415652206D6963726F08
:10029000636F6E74726F6C6C657200202020206D2D
:1002A0003A2020202020204D6F746F722073656CDF
:1002B00065637420616E6420506F7765722076618B
:1002C0006C75650020202020643A2020202020200A
:1002D000537461636B2064756D7020666F72207457
:1002E00061736B730020202020733A20202020208F
:1002F0002056657273696F6E2F536574757020692F
:100300006E666F726D6174696F6E002020202074BC
:100310003A20202020202053686F772074686520C1
:1003200063757272656E742074696D65002D2D2D74
:100330002D2D2D2D2D2D2D2D2D2D2D2D2D2D204DDA
:1003400041494E204D454E55202D2D2D2D2D2D2D25
:100350002D2D2D2D2D2D2D2D2D2D00496C6C6567EE
:10036000616C2073746174652120526573657474C7
:10037000696E6720415652002220003C2D2D2055E9
:100380006E6B6E6F776E20636F6D6D616E642E2085
:100390005479706520636F6D6D616E642066726F55
:1003A0006D206D656E752E00526573657474696E8F
:1003B0006720415652004D6F746F722000204841F3
:1003C0004C5445442100456E746572206E756D6213
:1003D000657220666F72204D6F746F722000456EDB
:1003E000746572206E756D62657220666F72204D45
:1003F0006F746F7220002220003C2D2D20556E6BF3
:100400006E6F776E20636F6D6D616E642E20547910
:10041000706520636F6D6D616E642066726F6D2014
:100420006D656E752E00506C656173652074797012
:10043000652061206E756D626572206265747765F6
:10044000656E203020746F203235352C207468653D
:100450006E20454E54455200506C656173652074A2
:100460007970652061206E756D62657220626574B9
:100470007765656E202D32353520746F2032353525
:100480002C207468656E20454E54455200506C65B2
:10049000617365207479706520612031206F72204E
:1004A0003220666F72206D6F746F722073656C6599
:1004B00063742C207468656E20454E544552004E7E
:1004C000756D62657220456E74657265643A2000D0
:1004D0004E756D62657220456E74657265643A2072
:1004E0002D002220003C2D2D20556E6B6E6F776EF7
:1004F00020636F6D6D616E642E205479706520638A
:100500006F6D6D616E642066726F6D206D656E75C6
:100510002E00526573657474696E672041565200EF
:10052000456E746572206E756D6265722C20312087
:100530006F7220322C20666F72206D6F746F722084
:1005400073656C656374696F6E3A20004144435370
:1005500052413A200041444D55583A20004144430D
:1005600030203D200041444331203D2000414443A0
:1005700032203D200041444333203D20004144438C
:1005800034203D200041444335203D200041444378
:1005900036203D200041444337203D20004D6F74FC
:1005A0006F722053706565645F32202872706D2908
:1005B000203D20004D6F746F722053706565645F3D
:1005C00031202872706D29203D20004572726F72B3
:1005D00020696E2067657445756C6572416E6700B1
:1005E000494D552073797374656D2073656C662071
:1005F00074657374207374617475733A2000457266
:10060000726F7220436F64653A2000494D55207324
:10061000797374656D207374617475733A20004941
:100620004D5520756E6974732073657400494D557E
:1006300020706F776572206D6F646520736574003C
:10064000494D55206F7065726174696F6E206D6FD2
:1006500064652073657400494D55206F626A656357
:100660007420696E7469616C20636F6D6D756E695D
:10067000636174696F6E2073756365737300494DB0
:1006800055206F626A65637420696E7469616C20BD
:10069000636F6D6D756E69636174696F6E206572ED
:1006A000726F720045756C65722050697463683AA8
:1006B000200045756C657220526F6C6C3A200045C5
:1006C000756C65722048656164696E673A20002028
:1006D0002020203020322034203620382041204372
:1006E0002045004932432073656E642074696D654E
:1006F0006F7574004932432072652D737461727492
:100700003A20307800206E6F742030783130004EFF
:100710006F2073686172656420646174612069741C
:10072000656D7320746F207072696E74002D2D2DAD
:100730002D2020202020202020202020202D2D2D85
:100740002D202020202D2D2D2D2D2D2D2D2D2D003A
:1007500053686172652F51756575652020202020D2
:100760005479706520202020467265652F546F747F
:10077000616C004552524F52206372656174696E1C
:1007800067207461736B2022005461736B20220018
:100790002220637265617465642C20737461636BDD
:1007A000206174203078005461736B3A20005461EA
:1007B000736B3A2049444C450049444C4509093083
:1007C000092D09002F0009092D002D2D2D2D0909B6
:1007D0002D2D2D2D092D2D2D2D2D00092D2D2D2DBE
:1007E0002D2D2D2D2D2D00092D2D2D2D004E616D22
:1007F0006509095072692E095374617465000946D0
:100800007265652F546F74616C000952756E7300C8
:100810005461736B09092020092000095374616336
:100820006B00090009002F000900090020200000CA
:1008300011241FBECFEFD1E2DEBFCDBF14E0A0E098
:10084000B2E0E8E7FAE600E00BBF02C007900D92C5
:10085000AE3DB107D9F71CE1AEEDB4E001C01D9289
:10086000A43BB107E1F70E9465310C943A350C9432
:1008700000000F931F93CF93DF93EC010E94C224DB
:1008800087EA93E099838883DF91CF911F910F913D
:1008900008950F931F93CF93DF93EC0166E08E8151
:1008A0009F810E9480296BE08E819F810E94802918
:1008B0008C016DE273E00E943B2966E0C8010E9452
:1008C00080296BE08E819F810E9480298C016BE0E2
:1008D00073E00E943B2966E0C8010E9480296BE01A
:1008E0008E819F810E9480298C0165EE72E00E94BA
:1008F0003B2966E0C8010E9480296BE08E819F81C0
:100900000E9480298C0164EC72E00E943B2966E021
:10091000C8010E9480296BE08E819F810E948029FE
:100920008C016BE972E00E943B2966E0C8010E94DD
:1009300080296BE08E819F810E9480298C0165E770
:1009400072E00E943B2966E0C8010E9480296BE0AA
:100950008E819F810E9480298C0165E572E00E9452
:100960003B2966E0C8010E94802966E08E819F8154
:10097000DF91CF911F910F910C9480290F931F93BA
:10098000CF93DF93EC0166E08E819F810E948029E6
:100990006BE08E819F810E9480298C0166E272E06B
:1009A0000E943B2966E0C8010E9480296BE08E818D
:1009B0009F810E9480298C0169EF71E00E943B2990
:1009C00066E0C8010E9480296BE08E819F810E94B1
:1009D00080298C016CEC71E00E943B2966E0C80123
:1009E0000E9480296BE08E819F810E9480298C016A
:1009F00065EB71E00E943B2966E0C8010E948029F6
:100A00006BE08E819F810E9480298C016FE871E0EC
:100A10000E943B2966E0C8010E9480296BE08E811C
:100A20009F810E9480298C016FE671E00E943B2922
:100A300066E0C8010E94802966E08E819F81DF9177
:100A4000CF911F910F910C9480298F929F92AF921A
:100A5000BF92CF92DF92EF92FF920F931F93CF93AB
:100A6000DF9300D000D000D0CDB7DEB78C01198263
:100A70001A821B821C821E821D82C0902801D09087
:100A800029010E9473195C01CE0101960E946C2815
:100A90004C0166E0F801868197810E9480296BE015
:100AA0000E9480297C0163E171E00E943B296BE098
:100AB000C7010E9480297C0162E471E00E943B2909
:100AC00066E0C7010E9480296BE00E9480297C01BA
:100AD0006EE471E00E943B29B401C7010E940B281B
:100AE0006BE00E9480297C016CE571E00E943B294B
:100AF000B501C7010E94302A7C016CE873E00E94B6
:100B00003B2948E357E160E070E0C7010E946A2A90
:100B10006BE00E9480297C0165E671E00E943B2920
:100B2000B601C7010E94302A66E00E94802966E073
:100B30000E948029F801868197810E94BD2666E087
:100B4000F801868197810E948029F801868197812A
:100B50000E947D2426960FB6F894DEBF0FBECDBF4F
:100B6000DF91CF911F910F91FF90EF90DF90CF9089
:100B7000BF90AF909F908F900895CF93DF93CDB7A4
:100B8000DEB727970FB6F894DEBF0FBECDBF8C013E
:100B900019821A821B821C821E821D820FB6F89453
:100BA0000F92E091FC04F091FD0410860F900FBEAF
:100BB0000E944904C12CB12CD12CE12CF12CAA2487
:100BC000A3945AE0452E512CD8011C968C9181306B
:100BD00079F1813008F4A4C0823009F086C0D801D0
:100BE00016968D919C911797DC01ED91FC910480F4
:100BF000F581E02D09958111E8C0D8011E964D912F
:100C00005D916D917C9151974F5F5F4F6F4F7F4F1B
:100C1000F80146875787608B718B61E070E080E058
:100C200090E00E947321D8011C968C91813089F646
:100C3000F80186819781DC01ED91FC910480F581BA
:100C4000E02D0995882309F428C3F801868197814E
:100C5000DC01ED91FC910680F781E02D0995482F8C
:100C600080ED840F8A3008F4F5C24D3209F4BCC21D
:100C70004F3709F487C24A3009F4AEC24D3009F04B
:100C800083C266E0B1102DC2F801868197810E946F
:100C900080296BE00E9480294C016FEB74E0C40155
:100CA0000E943B29B701C4010E94C52966E00E9449
:100CB0008029D110E9C1C7010197029708F4C6C085
:100CC0006BE0D80116968D919C9117970E94802910
:100CD0007C016DE874E0C7010E943B2966E0C70112
:100CE0000E948029E12CF12C88CF6BE0F8018681ED
:100CF00097810E9480298C016BE573E00E943B295B
:100D000066E0C8010E9480292BE088E190E00FB6E0
:100D1000F894A895809360000FBE20936000FFCFE9
:100D2000F80186819781DC01ED91FC910480F581C9
:100D3000E02D0995882309F460CFF8018681978119
:100D4000DC01ED91FC910680F781E02D0995282FBB
:100D50008D3609F45BC10CF44CC1833709F445C1ED
:100D6000843709F434C1823709F42DC1F801868033
:100D70009780D401ED91FC910280F381E02D62E235
:100D8000C4012F830995D401ED91FC910280F38178
:100D9000E02D2F81622FC40109956BE0C4010E94F0
:100DA00080294C0162EE74E00E943B296BE0C40193
:100DB0000E9480294C0165EE74E0C4010E943B2929
:100DC00066E0C4010E94802918CFF80186819781CE
:100DD000DC01ED91FC910680F781E02D0995282F2B
:100DE000803709F4AAC00CF06DC0833009F4CEC07E
:100DF000823609F03FC00FB6F8940F92E091FC04E0
:100E0000F091FD04D0840F900FBE6BE0D8011696D0
:100E10008D919C9117970E9480294C0166EC73E09C
:100E20000E943B296D2DC4010E94F4294C0168E900
:100E300073E00E943B2966E0C4010E94802961E0C2
:100E4000C8010E94782582E0D82ED7CE0FB6F8943C
:100E50000F92E091FC04F091FD04E0860F900FBE2C
:100E6000C8010E94BE0462E0C8010E947825E12CFE
:100E7000F12CC3CEF80186809780D401ED91FC91CE
:100E80000280F381E02D62E2C4012F830995D40131
:100E9000ED91FC910280F381E02D2F81622FC4013E
:100EA00009956BE0C4010E9480294C0168E773E05A
:100EB0000E943B296BE0C4010E9480294C016BE732
:100EC00073E07BCF823789F18337A1F60FB6F894B0
:100ED0000F92E091F204F091F304A0860F900FBE00
:100EE0000FB6F8940F92E091FC04F091FD04708429
:100EF0000F900FBE6BE0F801868197810E948029D8
:100F00004C0166EB73E00E943B29672DC4010E94EF
:100F1000F4296BE00E9480294C016DEB73E00E9484
:100F20003B2966E0C4010E948029C8010E9449044F
:100F300060E0C8010E94782560CE0FB6F8940F9249
:100F4000E091FC04F091FD04D0840F900FBE6BE0A3
:100F5000F801868197810E9480294C016EED73E033
:100F60000E943B296D2DC4010E94F4294C0160E9C7
:100F700073E00E943B2966E0C4010E94802961E081
:100F8000C8010E947825DD24D39437CE6BE0D801C8
:100F900016968D919C9117970E9480298C0168EA82
:100FA00073E00E943B2966E0C8010E9480292BE083
:100FB00088E190E00FB6F894A895809360000FBE8A
:100FC00020936000FFCFC8010E94490416CECE01D5
:100FD00001960E946C28BC01F801868197810E94CD
:100FE0000B2866E00E94802908CEC8010E942505D2
:100FF00004CE833061F1843609F0B8CED80116965C
:101000008D919C9117970E94D725F7CD6BE0F80141
:10101000868197810E9480297C0160E275E00E94B0
:101020003B2966E0C7010E9480290FB6F8940F9211
:10103000E091FC04F091FD0410860F900FBE61E07A
:10104000C8010E947825D12CE12CF12CD6CD6BE083
:10105000D80116968D919C9117970E9480298C013A
:1010600062E175E00E943B2966E0C8010E94802988
:101070002BE088E190E00FB6F894A895809360008B
:101080000FBE20936000FFCFB1E0DB1609F437C03C
:10109000B2E0DB12B2CDEFEFEE16F10411F008F082
:1010A00065C00FB6F8940F92E091F604F091F70442
:1010B000F186E0860F900FBE0FB6F8940F92E09184
:1010C000F404F091F504A0860F900FBEC8010E94B1
:1010D000490460E0C8010E947825D12CE12CF12C54
:1010E0008CCDD80116968D919C9117970E948029DE
:1010F0006BE00E9480294C0160ED74E0D0CDEFEFF1
:10110000EE16F10409F030F5BB2019F0F194E194EA
:10111000F1080FB6F8940F92E091FA04F091FB04F5
:10112000F186E0860F900FBE0FB6F8940F92E09113
:10113000F804F091F904A0860F900FBEC8010E9438
:10114000490460E0C8010E947825B12CD12CE12C23
:10115000F12C53CD6BE0D80116968D919C91179789
:101160000E9480297C0168E574E0B5CD6BE0D80170
:1011700016968D919C9117970E9480297C0166E2BA
:1011800074E0A9CDC1103EC0F801E680F780D70118
:10119000ED91FC910280F381E02D62E2C7014F8363
:1011A0000995D701ED91FC910280F381E02D4F81EB
:1011B000642FC70109956BE0C7010E9480297C015B
:1011C00066EF73E00E943B296BE0C7010E94802913
:1011D0007C0169EF73E07FCD6EE873E0F8018681F2
:1011E00097810E943B2909CDF80186819781DC0116
:1011F000ED91FC910280F381E02D6DE20995BB2415
:10120000B394FBCCF80186819781DC01ED91FC91D0
:101210000280F381E02D6FE70995F80186819781BF
:10122000DC01ED91FC910280F381E02D60E20995F3
:10123000F80186819781DC01ED91FC910280F381B8
:10124000E02D6FE70995C701B2010E945E337B0173
:10125000CA94D3CCF80186819781DC01ED91FC9191
:101260000280F381E02D642F4F8309959701220FAF
:10127000331FEE0CFF1CEE0CFF1CEE0CFF1C2E0DA2
:101280003F1D4F81E42EFF24E7FCF094B0E3EB1AFE
:10129000F108E20EF31EC394B0CC8091FE0490914D
:1012A000FF04DC01ED91FC910480F581E02D0995AE
:1012B000882309F4A2CCD8011696ED91FC911797DA
:1012C0000190F081E02D828093808091FE049091C6
:1012D000FF04DC01ED91FC910680F781E02D09957A
:1012E000682FF80186819781F401099586CCFC016D
:1012F00071836083EAE7F0E0808180688083808189
:101300008160808380818D7F808380818460808301
:10131000ECE7F0E080818064808380818F77808338
:10132000089580917C00887F80937C0080917C0070
:101330006770682B60937C0080917A008064809352
:101340007A0080917A0086FDFCCF809178009091A0
:1013500079000895403430F1ECE3F0E04CE367703D
:1013600080E090E020917C00287F20937C002091F9
:101370007C00262B20937C0020917A00206420930F
:101380007A0020917A0026FDFCCF209178003091E0
:101390007900820F931F415029F7BF010E944A3301
:1013A000CB010895442319F0E42FF0E0D8CFE0E01A
:1013B000F0E080E090E0BF010E944A33CB01089545
:1013C0002F923F924F925F926F927F928F929F9255
:1013D000AF92BF92CF92DF92EF92FF920F931F9343
:1013E000CF93DF9300D000D000D0CDB7DEB79E837F
:1013F0008D8380917C00887F80937C0080917C002D
:10140000876080937C0080917A00806480937A006A
:1014100080917A0086FDFCCF209178003091790090
:1014200080917C00887F80937C0080917C00866026
:1014300080937C0080917A00806480937A00809110
:101440007A0086FDFCCF2090780030907900809162
:101450007C00887F80937C0080917C0085608093F5
:101460007C0080917A00806480937A0080917A0079
:1014700086FDFCCF409078005090790080917C00F0
:10148000887F80937C0080917C00846080937C00C6
:1014900080917A00806480937A0080917A0086FD42
:1014A000FCCF009178001091790080917C00887FBA
:1014B00080937C0080917C00836080937C0080918D
:1014C0007A00806480937A0080917A0086FDFCCF58
:1014D000E0907800F090790080917C00887F809384
:1014E0007C0080917C00826080937C0080917A00F7
:1014F000806480937A0080917A0086FDFCCFC09052
:101500007800D090790080917C00887F80937C0067
:1015100080917C00816080937C0080917A0080645F
:1015200080937A0080917A0086FDFCCFA0907800AD
:10153000B090790080917C00887F80937C008091BE
:101540007C0080937C0080917A00806480937A0094
:1015500080917A0086FDFCCF809078009090790091
:1015600040917C0050917A006BE08D819E812B83AD
:101570003C834A8359830E9480293C016CE475E0D6
:101580000E943B295981652FC3010E94B22A66E05F
:101590000E9480296BE00E9480293C0165E575E08E
:1015A0000E943B294A81642FC3010E94B22A66E04F
:1015B0000E9480296BE00E9480293C016DE575E066
:1015C0000E943B29B401C3010E94302A66E00E94B8
:1015D00080296BE00E9480294C0165E675E00E943D
:1015E0003B29B501C4010E94302A66E00E9480298F
:1015F0006BE00E9480295C016DE675E00E943B294A
:10160000B601C5010E94302A66E00E9480296BE085
:101610000E9480296C0165E775E00E943B29B701B3
:10162000C6010E94302A66E00E9480296BE00E9479
:1016300080297C016DE775E00E943B29B801C70154
:101640000E94302A66E00E9480296BE00E94802977
:101650008C0165E875E00E943B29B201C8010E9437
:10166000302A66E00E9480296BE00E9480298C016C
:101670006DE875E00E943B29B101C8010E94302A43
:1016800066E00E9480296BE00E9480298C0165E958
:1016900075E00E943B292B813C81B901C8010E9461
:1016A000302A66E00E9480298D819E8126960FB6A1
:1016B000F894DEBF0FBECDBFDF91CF911F910F9188
:1016C000FF90EF90DF90CF90BF90AF909F908F9062
:1016D0007F906F905F904F903F902F900895CF93A1
:1016E000DF93FC0171836083428380918000816A73
:1016F00080938000809180008093800080918100A1
:101700008A60809381008091810080938100828132
:10171000813089F08230B9F0C081D181209781F089
:101720006BEA73E0CE010E943B2966E0CE01DF91B7
:10173000CF910C94802987B1876087B9329A269A15
:10174000DF91CF9108958AB1806E8AB94F9A259A18
:10175000DF91CF910895FC012281213071F0223078
:1017600009F0089577FD18C08BB18BB95E985D9A2A
:101770007093890060938800089528B128B977FD97
:1017800013C04198409A70938B0060938A00FC01CB
:101790008281823049F308958BB18BB95E9A5D984E
:1017A000719561957109E4CF419A40987195619561
:1017B0007109E9CFFC012281213039F0223009F092
:1017C00008958BB180668BB9089528B1236028B93C
:1017D0002281F4CFFC012281213059F0223009F01E
:1017E00008958BB18BB970E0709389006093880085
:1017F000089528B128B9262F30E030938B0020932C
:101800008A002281EBCFEC0183E090E00E94042962
:101810008C016E817F8141E00E946F0B83E090E03C
:101820000E9404297C016E817F8142E00E946F0B3F
:10183000E091F804F091F904DF010FB6F8940F92EB
:1018400010860F900FBE80E029C0A091F404B091E3
:10185000F5040FB6F8940F920F900FBE18968C9166
:101860001897813009F469C02091F2043091F30493
:101870000FB6F8940F920F900FBEE9018885813062
:1018800009F430C064E670E080E090E00E947321CB
:10189000E091F804F091F904DF0180850FB6F89427
:1018A0000F920F900FBE813081F60FB6F8940F9211
:1018B000C091FC04D091FD0488850F900FBE81304B
:1018C00009F46FC00FB6F8940F920F900FBE8230DC
:1018D00009F4B7C00FB6F8940F9218961C920F90A7
:1018E0000FBEB3CF0FB6F8940F928091FC04909185
:1018F000FD04EC0188850F900FBE813009F441C0D2
:101900000FB6F8940F920F900FBE823009F489C081
:10191000E9010FB6F8940F9210860F900FBE0FB624
:10192000F8940F9218961C920F900FBE0FB6F89471
:101930000F9218860F900FBEA5CF0FB6F8940F9296
:10194000C091FC04D091FD0488850F900FBE8130BA
:1019500009F43BC00FB6F8940F920F900FBE82307F
:1019600009F449C00FB6F8940F9210860F900FBE7D
:101970000FB6F8940F9218961C9218970F900FBEFE
:1019800073CFC8010E94DA0BC091F204D091F30426
:10199000E091F804F091F904A091F404B091F504F9
:1019A000B8CF0FB6F8940F920F900FBEE091FA04E3
:1019B000F091FB0460857185C8010E94AB0BE0913A
:1019C000F804F091F904DF0185CF0FB6F8940F9277
:1019D0000F900FBEE091F604F091F7046085C80106
:1019E0000E94EA0BA091F404B091F504E091F80490
:1019F000F091F904B7CF0FB6F8940F920F900FBE85
:101A0000E091F604F091F7046085C7010E94EA0BAB
:101A1000A091F404B091F504E091F804F091F90478
:101A2000A1CFC7010E94DA0BC091F204D091F30458
:101A3000E091F804F091F904A091F404B091F50458
:101A400068CF0FB6F8940F920F900FBEE091FA0492
:101A5000F091FB0460857185C7010E94AB0BE0919A
:101A6000F804F091F904DF0135CF0F931F93CF9362
:101A7000DF93EC010E94C22480EE93E09983888377
:101A8000DF91CF911F910F910895CF93DF93CDB741
:101A9000DEB728970FB6F894DEBF0FBECDBF6C013E
:101AA00082E090E00E9404294C01F6016681778172
:101AB00047E00E940C0E82E090E00E9404295C0145
:101AC000F6016681778145E00E940C0E612C712C35
:101AD00040E050E0E091F004F091F1040FB6F8948A
:101AE0000F928085918598878F830F900FBEEF802E
:101AF000F884E091EE04F091EF040FB6F8940F92A1
:101B0000808591859E838D830F900FBE0D811E81F0
:101B100025E030E0B701C4010E94940EE091E0049A
:101B2000F091E1040FB6F8940F92918780870F909F
:101B30000FBE25E030E0A301B801C5010E94940E5C
:101B4000E091DE04F091DF040FB6F8940F929187D4
:101B500080870F900FBEE091E004F091E1040FB692
:101B6000F8940F92808591859C838B830F900FBE94
:101B70006B807C806BE0F601868197810E948029D2
:101B80002C0164EB75E00E943B2962E0C2010E94D7
:101B90008029B3010E94302A66E00E948029E091EA
:101BA000DE04F091DF040FB6F8940F9280859185E2
:101BB0009A8389830F900FBE69807A806BE0F6016B
:101BC000868197810E9480292C016DE975E00E9431
:101BD0003B2962E0C2010E948029B3010E94302AA1
:101BE00066E00E94802965E070E080E090E00E945D
:101BF0007321A70138016ECF0F931F93CF93DF930B
:101C0000EC010E94C22488EE93E099838883DF91DF
:101C1000CF911F910F910895DC016D937C93E0911A
:101C2000F004F091F1040FB6F8940F92118610862B
:101C30000F900FBEE091EE04F091EF040FB6F89410
:101C40000F92118610860F900FBEE091EC04F09178
:101C5000ED040FB6F8940F9210860F900FBEE0912E
:101C6000EA04F091EB040FB6F8940F9210860F90EF
:101C70000FBEE091E804F091E9040FB6F8940F92DA
:101C800010860F900FBEE091E604F091E7040FB6C6
:101C9000F8940F9210860F900FBE8FB780688FBF99
:101CA000EAE6F0E06081242F30E081E090E0DC01A2
:101CB00002C0AA0FBB1F4A95E2F7AD015A2F5095FB
:101CC000562350835081B90161507109DC0102C073
:101CD000AA0FBB1F6A95E2F7BD015A2B50835DB373
:101CE000542B5DBB7081A90142505109DC0102C037
:101CF000AA0FBB1F4A95E2F7AD01409547234083E9
:101D0000408123503109022E01C0880F0A94EAF75E
:101D1000482B40838DB3862B8DBB8DB18F708DB9D1
:101D20008EB1806F8EB90895461B570B8CE3849F4C
:101D3000F001859FF00D112436952795369527954E
:101D400036952795A5ECB0E20E94193392958295BD
:101D50008F7089279F70892723ED33E0829FB00120
:101D6000839F700D929F700D1124CF010E944A3302
:101D7000CB0108951F920F920FB60F9211240BB64C
:101D80000F928F939F93AF93BF93EF93FF93CF9354
:101D9000DF93CDB7DEB72597DEBFCDBFE091EA0474
:101DA000F091EB040FB6F8940F9280858D830F901D
:101DB0000FBE8D81A091EC04B091ED040FB6F894A4
:101DC0000F9218968C9318970F900FBE9CB18CB100
:101DD00080729071892B90E0959587959595879560
:101DE00095958795959587950FB6F8940F9280876E
:101DF0000F900FBE18968C91813009F454C008F4EE
:101E000042C0823039F1833089F48085813009F411
:101E100051C08085823009F03CC0E091F004F0911F
:101E2000F104808591850197918780870F900F90AD
:101E30000F900F900F90DF91CF91FF91EF91BF9195
:101E4000AF919F918F910F900BBE0F900FBE0F908F
:101E50001F9018958085833069F18085811119C0A4
:101E6000E091F004F091F1040FB6F8940F928085A0
:101E700091859A8389830F900FBE89819A810197FA
:101E800091878087D3CF80858230A1F08085813093
:101E9000D9F0E091E404F091E50480859185019604
:101EA00091878087C3CF8085882321F08085833008
:101EB00081F7B3CFE091F004F091F1048085918532
:101EC000019691878087B2CFE091F004F091F10400
:101ED0000FB6F8940F92808591859C838B830F9029
:101EE0000FBE8B819C810197918780879FCF0C9437
:101EF000BA0E1F920F920FB60F9211240BB60F92CB
:101F00008F939F93AF93BF93EF93FF93E091E6047A
:101F1000F091E7048085A091E804B091E904189657
:101F20008C9318979CB18CB180789074892B90E039
:101F3000082E892F000C881F990B000C881F991FF1
:101F4000808718968C918130E9F160F1823071F0D0
:101F50008330D9F48085813009F43FC0E091EA04F0
:101F6000F091EB048085823019F506C080858330BE
:101F7000A1F1808581111CC0E091EE04F091EF0485
:101F800080859185019791878087FF91EF91BF911F
:101F9000AF919F918F910F900BBE0F900FBE0F903E
:101FA0001F90189580858230C1F08085813021F3A3
:101FB000E091E204F091E304808591850196918798
:101FC0008087E3CF8085882341F0E091EA04F09197
:101FD000EB048085833061F7CFCFE091EE04F09180
:101FE000EF0480859185019691878087CECF0C94F0
:101FF000790FCF93DF93EC01DC016D937D938DE03E
:10200000E8E0F2E001900D928A95E1F7188A1F86C8
:102010001A8A198A1C8A1B8A1E8A1D8A188E1F8A90
:102020001C8E1B8EDF91CF910895FC016283148E6C
:10203000138E0895CF93DF93EC01CB016F857889E0
:10204000788F6F8B988B8F870E9442129A8F898F1F
:10205000DF91CF910895FC01728B618B0895FC0193
:10206000748B638B0895AF92BF92CF92DF92EF9201
:10207000FF920F931F93CF93DF93CDB7DEB72D97CA
:102080000FB6F894DEBF0FBECDBFA982BA82CB8255
:10209000DC82ED82FE820F83188729873A874B877F
:1020A0005C876D872DE0FE013196DC011296019070
:1020B0000D922A95E1F7FC01148E138E2D960FB622
:1020C000F894DEBF0FBECDBFDF91CF911F910F916E
:1020D000FF90EF90DF90CF90BF90AF900895FC01FC
:1020E000748363830895FC01768365830895FC01FE
:1020F000708767830895FC01728761870895FC01EA
:1021000074876387568745870895FC018281089507
:10211000FC01878590890895FC0181899289089541
:10212000FC018389948908952DE0FB013296DC013E
:1021300001900D922A95E1F70895FC018581968121
:102140000895FC01838194810895FC018781908525
:102150000895FC01818592850895FC01838594850D
:102160000895FC018585968508950F931F93CF935D
:10217000DF93EC018F8598892B893C89821B930B17
:102180009E8B8D8B6D8D7E8D89859A850E948C129C
:1021900040E054E00E949E128C016D897E898B8DF7
:1021A0009C8D0E942512B8010E9442129C8F8B8F39
:1021B0008A81833009F472C090F5813009F463C0DC
:1021C000823009F044C06D897E898B819C810E9498
:1021D0008C1240E054E00E949E128C016B8D7C8D2D
:1021E0008D819E810E948C1240E054E00E949E12DC
:1021F000B8010E9425126D857E8568177907D4F095
:102200006B857C85861797070CF458C01E8E1D8E33
:102210009A8B898BDF91CF911F910F910895843014
:10222000C9F08530A1F489899A896D857E85681702
:10223000790734F70E9442129E8F8D8F8D859E857F
:10224000898B9A8BDF91CF911F910F91089580E038
:1022500090E0D1CF6D897E898B819C810E948C1208
:1022600040E054E00E949E128C01698D7A8D8F812E
:1022700098850E948C1240E054E00E949E12B801A2
:102280000E942512AACF6D897E898B819C810E9434
:102290008C1240E054E00E949E12ADCF6D897E8981
:1022A0008B819C810E948C1240E054E00E949E121F
:1022B0008C01698D7A8D8F81988594CF0E9442120E
:1022C0009E8F8D8F8B859C85898B9A8BDF91CF918B
:1022D0001F910F9108950F931F93CF93DF93EC01FC
:1022E000CB018A016F857889788F6F8B988B8F8768
:1022F0000E9442129A8F898F1C8B0B8BCE01DF912B
:10230000CF911F910F910C94B5104F925F926F92E5
:102310007F928F929F92AF92BF92CF92DF92EF9275
:10232000FF920F931F93CF93DF93EC01FB01418446
:1023300052846780708403811481E580F680C584AF
:10234000D684A384B4848280912C6CEE73E00E94C6
:102350003B2962E0CE010E948029B4010E94C52978
:1023600066E00E9480294C0167EF73E00E943B29E0
:1023700062E0C4010E948029B5010E94C5295C0168
:1023800064E074E00E943B2962E0C5010E9480295C
:10239000B6010E94C52966E00E9480296C0169E0AF
:1023A00074E00E943B2966E0C6010E9480296C010E
:1023B00060E174E00E943B2962E0C6010E9480292E
:1023C000B7010E94C52966E00E9480297C016CE16A
:1023D00074E00E943B2962E0C7010E948029B80195
:1023E0000E94C52966E00E9480298C0168E274E0A1
:1023F0000E943B2962E0C8010E948029B3010E942B
:10240000C52966E00E9480298C0164E374E00E9483
:102410003B2962E0C8010E948029B2010E94C529BF
:1024200066E00E948029CE01DF91CF911F910F912C
:10243000FF90EF90DF90CF90BF90AF909F908F90E4
:102440007F906F905F904F9008959C01432F40952F
:10245000441F4427441F80E090E8841B9109AC018D
:10246000421B530BE1E0461757070CF0E0E0432F07
:102470004095441F4427441FE41719F0C901860FF3
:10248000971F08958617970799F1611520E872073D
:1024900041F1719561957109492F4095441F442779
:1024A000441F20E030E8241B3109A901481B590BC7
:1024B000E1E04617570764F4492F4095441F44272D
:1024C000441FE41719F0860F971F0895C901089556
:1024D000E0E0492F4095441F4427441FE417B1F31F
:1024E000F2CF97FD03C06FEF7FE7D6CF0196FBCF0A
:1024F00080E090E00895811520E8920729F09C0182
:1025000097FD05C0C90108958FEF9FE708953195A4
:1025100021953109C9010895811520E8920729F014
:102520009C01DB010E9411330895611520E87207B8
:10253000B9F76FEF7FEF8FEF9FE708959A01442778
:1025400037FD4095542F0E949433211580E83807B9
:102550004105510524F02FEF3FE740E050E0DA015C
:10256000C901811520E892072FEFA207B20724F4D2
:1025700080E090E8AFEFBFEF089568EE73E080E091
:1025800090E00E947321F9CF0F931F93CF93DF93B5
:10259000EC010E94C22484E494E099838883DF9153
:1025A000CF911F910F910895CF93DF93EC01262FC8
:1025B0004DE360E58A819B810E9402176BE0888170
:1025C00099810E948029EC0160E476E00E943B2919
:1025D00066E0CE01DF91CF910C948029CF93DF93F9
:1025E000EC01262F4EE360E58A819B810E94021751
:1025F0006BE0888199810E948029EC016DE276E090
:102600000E943B2966E0CE01DF91CF910C94802996
:10261000CF93DF93EC0120E04BE360E58A819B815F
:102620000E9402176BE0888199810E948029EC0149
:102630006FE176E00E943B2966E0CE01DF91CF9109
:102640000C9480290F931F93CF93DF93EC01798330
:10265000688384E090E00E9404298C01688179817C
:102660000E9483141B830A8340E060E5C8010E9436
:1026700071156BE0803A09F1888199810E94802967
:102680008C016EE776E0C8010E943B2966E0C80134
:102690000E94802960E0CE010E94D41260E0CE0149
:1026A0000E94EE12CE010E9408136CE0CE01DF9171
:1026B000CF911F910F910C94D412888199810E941F
:1026C00080298C0167E576E0DECFEF92FF920F93D1
:1026D0001F93CF93DF93EC0149E360E58A819B81EF
:1026E0000E947115F82E46E360E58A819B810E9465
:1026F0007115E82E6BE0888199810E9480298C01F8
:102700006BE076E00E943B296F2DC8010E94B22A3F
:1027100066E00E94802981E0F816D1F06BE08881A4
:1027200099810E948029EC0160EE75E00E943B29AE
:102730006E2DCE010E94B22A66E00E94802966E0DA
:10274000DF91CF911F910F91FF90EF900C94802912
:102750004AE360E58A819B810E947115F82E6BE047
:10276000888199810E9480298C016EEF75E00E941A
:102770003B296F2DC8010E94B22A66E00E94802981
:10278000CDCF1F93CF93DF93EC016130D1F1623055
:1027900009F440C06330A1F06BE0888199810E9408
:1027A0008029EC016BEC75E00E943B2966E0CE01CC
:1027B0000E94802980E090E0DF91CF911F910895E1
:1027C0004FE160E58A819B810E947115182F4EE1CF
:1027D00060E58A819B810E947115212F30E0322FA4
:1027E0002227282B37FD1FC0C90195958795959500
:1027F00087959595879595958795DF91CF911F91B1
:1028000008954BE160E58A819B810E947115182F24
:102810004AE1DECF4DE160E58A819B810E9471151E
:10282000182F4CE1D5CF215F3F4FDECF8C0184E0E4
:1028300090E00E940429EC01F801668177810E94F2
:102840002213CE010E94651361E0CE010E94C113E4
:102850004C0162E0CE010E94C1135C0163E0CE0135
:102860000E94C1136C016BE0F801868197810E9480
:1028700080297C016FEB76E00E943B29B401C701FF
:102880000E94C52966E00E9480296BE0F8018681DC
:1028900097810E9480297C0162EB76E00E943B29AF
:1028A000B501C7010E94C52966E00E9480296BE03E
:1028B000F801868197810E9480297C0164EA76E094
:1028C0000E943B29B601C7010E94C52966E00E940B
:1028D000802966E00E94802960ED77E080E090E04A
:1028E0000E947321AECF0F931F93CF93DF93EC0120
:1028F0000E94C2248CE494E099838883DF91CF9175
:102900001F910F910895CF93DF93EC017983688332
:1029100088E48093B80081E00E94731B9B838A83C4
:10292000892B19F0DF91CF9108950990D881C02D9E
:102930002097C1F360E574E0CE010E943B2966E078
:10294000CE01DF91CF910C94802984EA8093BC0062
:102950008091BC0087FD0AC089EE93E003C0019717
:10296000009769F02091BC0027FFF9CF9091B90042
:10297000987F81E0983009F0089580E0089581E023
:1029800008951F93CF93DF9324EA2093BC002091F6
:10299000BC0027FD0CC029EE33E005C021503109F1
:1029A00021153105C1F14091BC0047FFF7CF2091BF
:1029B000B900287F203151F1FC018081918100977D
:1029C00029F11091B9006BE00E948029EC0164EFBD
:1029D00076E00E943B2963E0CE010E948029612FAE
:1029E0000E94B22A6BE00E948029EC0165E077E04A
:1029F0000E943B2962E0CE010E94802966E00E948D
:102A0000802980E0DF91CF911F91089580E0DF91D0
:102A1000CF911F91089581E0DF91CF911F9108958B
:102A2000CF93DF936093BB0024E82093BC002091F8
:102A3000BC0027FD0CC029EE33E005C02150310950
:102A40002115310591F04091BC0047FFF7CF9091DF
:102A5000B900987F81E0983129F0983219F09034CC
:102A600009F080E0DF91CF910895FC018081918190
:102A70000097B9F36BE00E948029EC0163EE76E0E9
:102A80000E943B2966E0CE010E94802980E0DF9110
:102A9000CF9108956623E9F084EC8093BC0040E573
:102AA0009091BC0097FD0AC089EE93E003C00197A6
:102AB000009769F02091BC0027FFF9CF2091B90061
:102AC000287F30E0842F90E02817390739F08FEF06
:102AD000089584E88093BC0048E5E2CF8091BB0074
:102AE0000895FF920F931F93CF93DF93EC01162F5E
:102AF000F42E00E02FEF3FEFA90160E070E08A8143
:102B00009B810E94DC1B84EA8093BC008091BC0006
:102B100087FD0CC029EE33E005C021503109211595
:102B2000310531F08091BC0087FFF7CF8091B9006B
:102B3000612FCE010E94101581111AC088819981E0
:102B4000009721F064E674E00E943B2900E020E059
:102B500030E0A90160E070E08A819B810E94BB1A8D
:102B600011E0812FDF91CF911F910F91FF90089578
:102B70006F2DCE010E941015882301F384E9809304
:102B8000BC0084EA8093BC008091BC0087FD0CC02F
:102B900029EE33E005C0215031092115310531F00E
:102BA0008091BC0087FFF7CF8091B900612F6160F1
:102BB000CE010E94101581111AC088819981009759
:102BC00021F06AE674E00E943B2900E020E030E05A
:102BD000A90160E070E08A819B810E94BB1A1FEF0F
:102BE000812FDF91CF911F910F91FF90089584E87D
:102BF0008093BC008091BC0087FD0CC029EE33E0BF
:102C000005C0215031092115310549F08091BC00E2
:102C100087FFF7CF8091B900887F8835A9F01FEF33
:102C200084E98093BC0000E020E030E0A90160E08E
:102C300070E08A819B810E94BB1A812FDF91CF9126
:102C40001F910F91FF9008951091BB00E9CFCF9293
:102C5000DF92EF92FF920F931F93CF93DF93EC01DC
:102C6000C62ED42E7901102F00E02FEF3FEFA901DF
:102C700060E070E08A819B810E94DC1B84EA809383
:102C8000BC008091BC0087FD0AC0E9EEF3E003C000
:102C90003197309731F09091BC0097FFF9CF809138
:102CA000B9006C2DCE010E94101581111EC08881C3
:102CB0009981009721F060E774E00E943B2900E0D1
:102CC00020E030E0A90160E070E08A819B810E94F1
:102CD000BB1ADD24D3948D2DDF91CF911F910F91DD
:102CE000FF90EF90DF90CF9008956D2DCE010E9460
:102CF0001015D82E8823D9F284E98093BC0084EA89
:102D00008093BC008091BC0087FD0CC049EE53E06D
:102D100005C0415051094115510531F09091BC0059
:102D200097FFF7CF8091B9006C2D6160CE010E94B2
:102D30001015811113C088819981009721F066E7F1
:102D400074E00E943B2900E020E030E0A90160E04F
:102D500070E08A819B810E94BB1ABDCF8FEF810FEB
:102D600019F1F70124EC2093BC009091BC0097FD71
:102D70000CC049EE53E005C04150510941155105C1
:102D800049F09091BC0097FFF7CF9091B900987FE0
:102D9000903591F19FEF9193815029F71250812F37
:102DA00090E00196E80EF91E84E88093BC008091C3
:102DB000BC0087FD0AC089EE93E003C0019700972D
:102DC00049F02091BC0027FFF9CF8091B900887F9E
:102DD0008835A9F08FEFF701808384E98093BC00E8
:102DE00000E020E030E0A90160E070E08A819B8192
:102DF0000E94BB1AD12C6FCF9091BB00CCCF809199
:102E0000BB00E9CFEF92FF920F931F93CF93DF9315
:102E1000EC01162FF42EE22E00E02FEF3FEFA90178
:102E200060E070E08A819B810E94DC1B84EA8093D1
:102E3000BC008091BC0087FD0AC0E9EEF3E003C04E
:102E40003197309731F08091BC0087FFF9CF8091A6
:102E5000B900612FCE010E94101581111AC088811E
:102E60009981009721F06CE774E00E943B2900E013
:102E700020E030E0A90160E070E08A819B810E943F
:102E8000BB1A81E0DF91CF911F910F91FF90EF90DE
:102E900008956F2DCE010E941015882301F36E2D29
:102EA000CE010E9410158823D1F284E98093BC00E2
:102EB00000E020E030E0A90160E070E08A819B81C1
:102EC0000E94BB1A80E0DECFBF92CF92DF92EF92DA
:102ED000FF920F931F93CF93DF937C01C62FD42FC4
:102EE000B22E132FD02E00E02FEF3FEFA90160E0AC
:102EF00070E0DC0112968D919C9113970E94DC1B6F
:102F000084EA8093BC008091BC0087FD0AC0E9EE92
:102F1000F3E003C03197309731F08091BC0087FF18
:102F2000F9CF8091B9006C2FC7010E941015811153
:102F300023C0D7018D919C91009721F062E874E045
:102F40000E943B2900E020E030E0A90160E070E051
:102F5000D70112968D919C9113970E94BB1ACC2495
:102F6000C3948C2DDF91CF911F910F91FF90EF9023
:102F7000DF90CF90BF9008956D2FC7010E9410156C
:102F8000C82E8823B1F2DD2079F1CB2DD12F10E0AE
:102F900003C01F5F1D1541F16991C7010E94101503
:102FA0008111F7CFF701C081D181209789F068E8BE
:102FB00074E0CE010E943B29612FCE010E94B22A0B
:102FC000DC01ED91FC910280F381E02D6EE3099527
:102FD00000E020E030E0A90160E070E0F7018281CC
:102FE00093810E94BB1ABDCF84E98093BC0000E0AE
:102FF00020E030E0A90160E070E0F7018281938178
:103000000E94BB1AC12CADCF8BB1869581700895FB
:103010000F931F93CF93DF93EC01162F00E02FEF58
:103020003FEFA90160E070E08A819B810E94DC1B78
:1030300084EA8093BC008091BC0087FD0CC029EE1F
:1030400033E005C0215031092115310531F080915F
:10305000BC0087FFF7CF8091B900612FCE010E949D
:103060001015182F84E98093BC0000E020E030E0C8
:10307000A90160E070E08A819B810E94BB1A812FC8
:10308000DF91CF911F910F910895CF92DF92EF9230
:10309000FF920F931F93CF93DF938C01EB016BE0B3
:1030A000CE010E9480297C016FEC76E00E943B29D2
:1030B00063E0C7010E94802966E00E948029E12C1C
:1030C000F12C6E2DCE010E94B22ADC01ED91FC9113
:1030D0000280F381E02D60E30995CE2CC29480EF4D
:1030E000C822D12C08C060E4CE010995D394D394B2
:1030F000B0E1DB16E1F0E881F9810280F381E02D97
:1031000060E2CE0109956D2D6C29C8010E94081856
:10311000E881F9810280F381E02D8111E4CF6DE235
:10312000CE010995D394D394B0E1DB12E4CF66E0ED
:10313000CE010E9480298FEFE81AF80AA0E1EA1672
:10314000F10409F0BECF62E0CE01DF91CF911F9173
:103150000F91FF90EF90DF90CF900C9480290F9308
:103160001F93CF93DF93EC010E94661F80910005AF
:10317000811121C08AE095E09093060580930505B2
:10318000109208051092070587E397E190930405D4
:1031900080930305109202051092010590930D058E
:1031A00080930C0581E095E090930B0580930A05D0
:1031B00081E080930005209709F460C0AE014C5F68
:1031C0005F4F2396C633D74108F058C0E0910505FC
:1031D000F0910605A5E0B5E006C0808191810097D9
:1031E00039F0DF01FC012281338124173507A8F370
:1031F000C5E0E130FC0709F441C00D911C91119725
:103200000C5F1F4F808191818D939C93C901841B1A
:10321000950B8930910500F1BF01640F751FDB012B
:1032200013969C938E9312975383428312968D919B
:103230009C911397A5E0B5E001C0DF01ED91FC91F1
:1032400011972281338128173907B8F3EB01F983ED
:10325000E8836D937C939A01809100029091010222
:10326000821B930B90930102809300020E9499208D
:10327000C801DF91CF911F910F91089500E010E0F8
:103280000E949920C801DF91CF911F910F9108955D
:10329000CF93DF93009721F1EC0124970E94661FE2
:1032A0004A815B81A5E0B5E001C0DF01ED91FC91B1
:1032B00011972281338124173507B8F3F983E88306
:1032C000CD93DC938091000290910102840F951FB1
:1032D0009093010280930002DF91CF910C9499208A
:1032E000DF91CF910895809100029091010208959D
:1032F00008951F93CF93DF93EC01142F88A18111C0
:103300000DC088819981892B09F44DC080E09E8D84
:103310009F5F9E8FDF91CF911F910895482F50E0BE
:1033200011111CC08C819D810E94AF3428A18C8119
:103330009D81820F911D9D838C832A813B81821701
:10334000930720F3888199819D838C8380E09E8DF3
:103350009F5F9E8FDF91CF911F9108958E819F81F6
:103360000E94AF3428A130E03195219531098E813A
:103370009F81820F931F9F838E8368817981861737
:10338000970730F48A819B81820F931F9F838E83DE
:10339000123009F0BBCF8E8D882309F4B7CF8E8D04
:1033A00081508E8FB3CF8A819B810E94C4231B8260
:1033B0001A82ADCFFC01CB0140A1442399F050E02B
:1033C00026813781240F351F3783268362817381DD
:1033D0002617370720F02081318137832683B901F2
:1033E0000C94AF3408950F931F93CF93DF93EC01A8
:1033F0000FB6F8940F928AA11816ECF48B898823E3
:10340000D1F08E010D5E1F4F09C08AA181508AA3A1
:103410008AA1181684F48B89882369F0C8010E9458
:103420005022882391F30E9444238AA181508AA3C9
:103430008AA1181684F38FEF8AA30F900FBE0FB6E0
:10344000F8940F9289A11816ECF488858823D1F09E
:103450008E01085F1F4F09C089A1815089A389A1EE
:10346000181684F48885882369F0C8010E945022C8
:10347000882391F30E94442389A1815089A389A1C3
:10348000181684F38FEF89A30F900FBEDF91CF91B1
:103490001F910F910895CF93DF93EC010FB6F8942D
:1034A0000F92288139818F8D78A1879FC0011124C7
:1034B000A901480F591F5B834A831E8E3D832C83CD
:1034C000871B9109820F931F9F838E838FEF89A3A0
:1034D0008AA3611112C08885811106C00F900FBEAA
:1034E00081E0DF91CF910895CE0108960E9450228D
:1034F0008130A1F70E94302EF1CFCE0108960E94B4
:10350000C12CCE0143960E94C12C0F900FBE81E0CA
:10351000DF91CF9108950F931F93CF93DF93182FCF
:10352000062F882301F183E290E00E94AF18EC019E
:103530000097C9F0109FC001112401960E94AF1896
:1035400099838883892B61F01F8F08A361E0CE01E6
:103550000E944B1ACE01DF91CF911F910F910895D8
:10356000CE010E944819C0E0D0E0CE01DF91CF919A
:103570001F910F9108956F927F928F929F92AF92B9
:10358000BF92CF92DF92EF92FF920F93CF93DF9390
:10359000CDB7DEB729970FB6F894DEBF0FBECDBF0B
:1035A0005C014B012E833F834887598720E03C0113
:1035B00088E0680E711C0FB6F8940F92F501968D95
:1035C000878D981708F459C0023009F456C0CE8090
:1035D000DF80E884F984CD28CE28CF2809F46FC095
:1035E000222309F441C00F900FBE0E94661F0FB640
:1035F000F8940F92F50181A18F3F09F43CC0F501C9
:1036000082A18F3FB1F10F900FBEBE016A5F7F4F65
:10361000CE0101960E94E322811155C00FB6F894A5
:103620000F92F501968D0F900FBEF501878D9813BF
:1036300014C04E815F8168857985C3010E94F521A0
:10364000C5010E94F3190E949920882311F021E0FE
:10365000B2CF0E94302E21E0AECFC5010E94F319F7
:103660000E94992021E0A7CFCE0101960E94D2228C
:10367000BACF12A2C8CF11A2C2CF402FB401C50148
:103680000E947919F5019389911124C0811128C0F4
:103690000F900FBE81E029960FB6F894DEBF0FBEE3
:1036A000CDBFDF91CF910F91FF90EF90DF90CF9042
:1036B000BF90AF909F908F907F906F9008950F90E4
:1036C0000FBE80E0E8CFC5010E94F3190E94992047
:1036D00080E0E1CFC50143960E9450228130C1F6BF
:1036E0000E94302ED5CF0F93CF93DF9383E290E0EB
:1036F0000E94AF18EC01009701F11B821A82198217
:1037000018821D821C821F821E821E8E81E08F8F76
:1037100018A28FEF89A38AA3CE0108960E94C12C1C
:10372000CE0143960E94C12C00E020E030E0A901C8
:1037300060E070E0CE010E94BB1ACE01DF91CF9114
:103740000F9108950F931F93CF93DF93EC018A019C
:103750009E8D8F8D981740F0223031F080E0DF9100
:10376000CF911F910F910895422FCE010E94791998
:10377000882331F00115110519F081E0F8018083EB
:103780008AA18F3F49F08AA18F5F8AA381E0DF91F0
:10379000CF911F910F9108958B898823B9F3CE01A2
:1037A00043960E945022882389F30115110571F375
:1037B00081E0F8018083D3CFAF92BF92CF92DF92A6
:1037C000EF92FF920F93CF93DF93CDB7DEB7299798
:1037D0000FB6F894DEBF0FBECDBF7C016B012E8308
:1037E0003F834887598790E0570183E1A80EB11CB9
:1037F0000FB6F8940F92F701868D811169C04E8142
:103800005F8168857985452B462B472B09F47DC060
:10381000992309F43EC00F900FBE0E94661F0FB699
:10382000F8940F92F70181A18F3F09F43EC0F70190
:1038300082A18F3F09F43FC00F900FBEBE016A5FA7
:103840007F4FCE0101960E94E322811171C00FB615
:10385000F8940F92F701868D0F900FBE81111EC054
:10386000F70180819181892B41F14E815F816885CB
:103870007985C5010E94F521C7010E94F3190E94B4
:103880009920882311F091E0B3CF0E94302E91E06F
:10389000AFCFCE0101960E94D222BDCFC7010E94B8
:1038A000F3190E94992091E0A3CF11A2F70182A100
:1038B0008F3F09F0C1CF12A2BFCF0FB6F8940F927D
:1038C000F701828193810E9469230F900FBECDCFB3
:1038D000A680B780B601C7010E94DA19F70101116D
:1038E0002EC0868D8150868F80819181892BB9F180
:1038F000F7018085882341F1C70108960E94502274
:10390000813011F50E94302E1FC00F900FBE80E055
:1039100029960FB6F894DEBF0FBECDBFDF91CF91D1
:103920000F91FF90EF90DF90CF90BF90AF900895F0
:10393000C7010E94F3190E94992080E0E9CFB78265
:10394000A6828389811104C00F900FBE81E0E0CF71
:10395000C70143960E9450228823B1F3D3CF0E941F
:103960002B24F70193838283C3CF0F931F93CF93AD
:10397000DF9300D0CDB7DEB78C01FC01868D8111BD
:1039800008C080E00F900F90DF91CF911F910F91B1
:103990000895C80149835A830E94DA19F801868D77
:1039A0008150868F81A149815A818F3F61F0F80152
:1039B00081A18F5F81A381E00F900F90DF91CF9164
:1039C0001F910F91089580858823A9F3C801089657
:1039D00049835A830E94502249815A81882359F38E
:1039E0004115510541F381E0FA018083CBCF0F935C
:1039F0001F93CF93DF93EC018E8D811106C080E081
:103A0000DF91CF911F910F9108950E811F81CE01FB
:103A10000E94DA191F830E8381E0DF91CF911F91FD
:103A20000F9108950FB6F8940F92FC01868D0F90B8
:103A30000FBE08950FB6F8940F92FC01268D0F90DB
:103A40000FBEFC01878D821B0895FC01868D0895B1
:103A5000CF93DF93EC0188819981009711F00E9448
:103A60004819CE01DF91CF910C944819FC01968D35
:103A700081E0911180E00895FC01268D81E0978D11
:103A8000291380E008958091761C823018F00E94FE
:103A9000302EF9CFFFCFCF92DF92EF92FF926B01E2
:103AA0007C01E091411CF091421C6283738384830A
:103AB000958380914A1C90914B1CA0914C1CB09115
:103AC0004D1C6091411C7091421CC816D906EA0633
:103AD000FB0610F180915E1C90915F1C6E5F7F4F22
:103AE0000E94F72C8091020290910302A09104029F
:103AF000B0910502C816D906EA06FB0640F4C0924A
:103B00000202D0920302E0920402F0920502FF90BA
:103B1000EF90DF90CF90089580915C1C90915D1C98
:103B20006E5F7F4FFF90EF90DF90CF900C94F72C5B
:103B30005F926F927F928F929F92AF92BF92CF923D
:103B4000DF92EF92FF920F931F93CF93DF934C017D
:103B5000162F572E5A01390189E290E00E94AF18C2
:103B6000EC01009709F4E9C0C114D10409F4DAC0EA
:103B7000DC8ECB8EC601A50165EA70E00E94B834E8
:103B800021E0A21AB108CB8CDC8CCA0CDB1CAE0184
:103B9000435E5F4FE12FF52D2AE0CF013191DA012D
:103BA0003D93AD01DC018C91882311F02150A9F7E0
:103BB0001EA2102F043008F07DC01A8F1FA318A674
:103BC0005E01B2E0AB0EB11CC5010E94D22CCE0149
:103BD0000E960E94D22CDB87CA8784E090E0A0E09A
:103BE000B0E0811B9109A109B1098E879F87A88B3D
:103BF000B98BDF8BCE8BA301B401C6010E94602D6F
:103C000099838883E114F10419F0F701D183C0830B
:103C10000FB6F8940F9280914E1C8F5F80934E1CCC
:103C20008091411C9091421C892B09F449C08091DC
:103C3000481C81110BC0E091411CF091421C828D07
:103C4000081720F0D093421CC093411C8091441C63
:103C50008F5F8093441C8A8D9091491C981738F18E
:103C6000FBE08F9FC0011124B5018A58934E0E943A
:103C7000D62C0F900FBE8091481C882339F0E0911C
:103C8000411CF091421C828D8017B0F081E0DF91E1
:103C9000CF911F910F91FF90EF90DF90CF90BF9049
:103CA000AF909F908F907F906F905F9008958093DA
:103CB000491CD6CF13E081CF0E94302E81E0E7CFA0
:103CC000D093421CC093411C80914E1C813009F05E
:103CD000BDCF86E79CE10E94C12C81E89CE10E9457
:103CE000C12C8CE89CE10E94C12C87E99CE10E94D8
:103CF000C12C8BE69CE10E94C12C80E69CE10E94D5
:103D0000C12C81E59CE10E94C12C8BE69CE1909343
:103D10005F1C80935E1C80E69CE190935D1C809309
:103D20005C1C94CFC5010E94AF189C8F8B8F0097AD
:103D300009F021CFCE010E9448198FEFA8CF0FB60E
:103D4000F8940F92009729F00F900FBEFC01828D1E
:103D500008958091411C9091421C0F900FBEFC0170
:103D6000828D0895EF92FF921F93CF93DF93EC0122
:103D7000262F643008F023E00FB6F8940F922097B6
:103D800009F44AC03FA13217A9F18091411C9091DA
:103D9000421C3217B8F5C817D90741F0E091411C11
:103DA000F091421C11E0828D281708F410E08A8DF2
:103DB000381769F12FA34E855F856889798977FD6A
:103DC0000CC044E050E060E070E0421B5109610922
:103DD00071094E875F87688B798B2BE0829FC001CA
:103DE00011248A58934E2C853D8528173907C9F030
:103DF000113079F00F900FBEDF91CF911F91FF909E
:103E0000EF90089511E0C817D90781F6D0CF2A8F17
:103E1000D1CF0E94302EEECFC091411CD091421CD8
:103E2000B1CF7E0182E0E80EF11CC7010E94342D63
:103E30008A8D9091491C981710F48093491C2BE0AF
:103E4000829FC0011124B7018A58934E0E94D62C3C
:103E5000CFCFAF92BF92CF92DF92EF92FF920F93AC
:103E6000A12CB12CC12CD12C8FE4E82E8CE1F82EA2
:103E700000E020E030E044E650E06CE874E083E4E9
:103E80009DE10E94981D813041F00F91FF90EF90CD
:103E9000DF90CF90BF90AF900895F8948093481C26
:103EA00010924A1C10924B1C10924C1C10924D1CEC
:103EB0000F91FF90EF90DF90CF90BF90AF900C9458
:103EC000F42DF8941092481C0C942F2E8091431CD2
:103ED0008F5F8093431C08950FB6F8940F92609102
:103EE0004A1C70914B1C80914C1C90914D1C0F9062
:103EF0000FBE089560914A1C70914B1C80914C1C20
:103F000090914D1C089580914E1C0895009711F0DA
:103F10004D9608958091411C9091421C4D960895B4
:103F200080914F1C9091501C0895AF92BF92CF92F8
:103F3000DF92EF92FF920F931F93CF93DF938091C5
:103F4000431C8111CFC080914A1C90914B1CA091C1
:103F50004C1CB0914D1C0196A11DB11D80934A1CB3
:103F600090934B1CA0934C1CB0934D1CC0904A1CCA
:103F7000D0904B1CE0904C1CF0904D1CC114D1040F
:103F8000E104F10439F580915E1C90915F1C209151
:103F90005C1C30915D1C30935F1C20935E1C9093E1
:103FA0005D1C80935C1C8091451C8F5F8093451C39
:103FB000E0915E1CF0915F1C808181119AC08FEFAF
:103FC0009FEFDC018093020290930302A09304020E
:103FD000B09305028091020290910302A091040225
:103FE000B0910502B12CC816D906EA06FB0608F402
:103FF00057C09BE0A92EE0915E1CF0915F1C808170
:10400000882309F442C0E0915E1CF0915F1C078098
:10401000F085E02DC085D1854A815B816C817D81F1
:10402000C416D506E606F70608F47AC08E010E5FC0
:104030001F4FC8010E94342D888D998D892B21F046
:10404000CE010E960E94342D8A8D9091491C9817AE
:1040500010F48093491CA89EC0011124B8018A580D
:10406000934E0E94D62CE091411CF091421C9A8DF7
:10407000828D981708F4BFCFBB24B394E0915E1CE7
:10408000F0915F1C80818111BECF4FEF5FEFBA01CD
:10409000409302025093030260930402709305025E
:1040A000E091411CF091421CE28D8BE0E89FF00111
:1040B0001124EA58F34E8081823010F0BB24B3946F
:1040C0008091461C882311F0BB24B3948B2DDF9183
:1040D000CF911F910F91FF90EF90DF90CF90BF9005
:1040E000AF9008958091471C8F5F8093471CB12C3F
:1040F000E7CFE0915E1CF0915F1C0780F085E02D1A
:104100000084F185E02D82819381A481B581809323
:10411000020290930302A0930402B09305025ACFC7
:1041200040930202509303026093040270930502CD
:10413000B7CFEF92FF920F931F93CF93DF930FB6FA
:10414000F8940F928091431C81508093431C80917E
:10415000431C811150C080914E1C882309F44BC030
:104160002BE0F22EEE24E39427C0E091581CF0914E
:10417000591CC085D185CE010E960E94342D8E012A
:104180000E5F1F4FC8010E94342D8A8D9091491CEB
:10419000981710F48093491CF89EC0011124B801AF
:1041A0008A58934E0E94D62CE091411CF091421CFB
:1041B0009A8D828D981748F58091511C8111D5CF29
:1041C0008091471C882399F08091471C882379F0BF
:1041D000C1E00E94951F8111C093461C8091471C2D
:1041E00081508093471C8091471C8111F2CF8091B0
:1041F000461C813069F080E00F900FBEDF91CF91B7
:104200001F910F91FF90EF900895E092461CD4CF3C
:104210000E94302E81E0F0CFCF92DF92EF92FF929A
:104220000F931F93CF93DF9300D000D0CDB7DEB7AD
:104230002091431C2F5F2093431CC0904A1CD090B8
:104240004B1CE0904C1CF0904D1CFC010081118136
:1042500022813381400F511F621F731FC016D10688
:10426000E206F306E8F44017510762077307E8F027
:10427000FC0140835183628373830E9499208111E2
:1042800002C00E94302E0F900F900F900F90DF9180
:10429000CF911F910F91FF90EF90DF90CF900895F5
:1042A000401751076207730728F0C416D506E606C3
:1042B000F706F0F6FC01408351836283738380919B
:1042C000411C9091421C029649835A836B837C83E4
:1042D0000E94342D49815A816B817C81CB01BA01C6
:1042E0000E944B1DCACFCF92DF92EF92FF926115D1
:1042F00071058105910539F40E94302EFF90EF90F1
:10430000DF90CF9008952091431C2F5F2093431C92
:10431000C0904A1CD0904B1CE0904C1CF0904D1C5F
:10432000C60ED71EE81EF91E8091411C9091421CBA
:1043300002960E94342DC701B6010E944B1D0E94B7
:1043400099208823C9F2FF90EF90DF90CF900895D5
:104350008091431C81113BC01092461CE091491C86
:104360008BE0E89FF0011124EA58F34E808181111F
:1043700010C09BE08091491C81508093491CE091C2
:10438000491C9E9FF0011124EA58F34E8081882336
:1043900089F3E091491C8BE0E89FF0011124EA5871
:1043A000F34EA181B28114960D90BC91A02DB283E1
:1043B000A183CF010396A817B90769F018968D91CC
:1043C0009C9119979093421C8093411C089581E021
:1043D0008093461C089514969C91149715968C9181
:1043E00091838283A92FB82FE9CFCF92DF92EF92EA
:1043F000FF926A017B016091411C7091421C625FD7
:104400007F4F0E94F72C8091411C9091421C029694
:104410000E94342D60914A1C70914B1C80914C1C61
:1044200090914D1C6C0D7D1D8E1D9F1DFF90EF907A
:10443000DF90CF900C944B1DCF92DF92EF92FF92C2
:104440000F931F9368017901E091411CF091421C88
:10445000706846875787608B718B6091411C7091A3
:10446000421C625F7F4F0E94D62C8091411C90912C
:10447000421C02960E94342D60914A1C70914B1C84
:1044800080914C1C90914D1C6C0D7D1D8E1D9F1DAF
:104490001F910F91FF90EF90DF90CF900C944B1DE8
:1044A0000F931F93CF93DF93DC011796ED91FC914F
:1044B0001897C085D1858E01025F1F4FC8010E94E9
:1044C000342D8091431C811124C08E010E5F1F4F3B
:1044D000C8010E94342D8A8D9091491C9817F8F0DC
:1044E000BBE08B9FC0011124B8018A58934E0E94F3
:1044F000D62CE091411CF091421C9A8D828D891737
:1045000088F481E08093461CDF91CF911F910F9139
:104510000895B80181E59CE10E94D62CEACF8093F2
:10452000491CDECF80E0DF91CF911F910F9108955C
:104530000F931F93CF93DF937068FC0140835183E7
:1045400062837383C085D1850E94342D8E010E5FF6
:104550001F4FC8010E94342D8A8D9091491C9817D5
:1045600010F48093491CFBE08F9FC0011124B80117
:104570008A58934E0E94D62CE091411CF091421C27
:104580009A8D828D891740F481E08093461CDF91DB
:10459000CF911F910F91089580E0DF91CF911F91EE
:1045A0000F9108952091451CFC01208340914A1CE5
:1045B00050914B1C60914C1C70914D1C4183528357
:1045C0006383748308958F929F92AF92BF92CF922C
:1045D000DF92EF92FF920F931F93FC01DB010FB666
:1045E000F8940F9240914A1C50914B1C60914C1CC6
:1045F00070914D1C8091451C908101811281238115
:104600003481981729F0401751076207730770F536
:10461000CD90DD90ED90FC9013974A015B01801ADC
:10462000910AA20AB30A8C149D04AE04BF04F0F4EC
:10463000C41AD50AE60AF70AC00ED11EE21EF31EFE
:10464000CD92DD92ED92FC9213978091451C808370
:1046500080914A1C90914B1CA0914C1CB0914D1C18
:1046600081839283A383B48380E001C081E00F90B3
:104670000FBE1F910F91FF90EF90DF90CF90BF90F2
:10468000AF909F908F90089581E08093461C08958D
:10469000009799F0DC015B96ED91FC915C9780812D
:1046A000853A81F4319680E090E0DC010196A11D0D
:1046B000B11D2191253AD1F308958091411C90912B
:1046C000421CE8CF80E008958091411C9091421CEB
:1046D00008950F931F93CF93DF93EC01009781F11F
:1046E0008A8DE091411CF091421C928D891740F512
:1046F0004E855F856889798977FD11C0E091411CFD
:10470000F091421C928D44E050E060E070E0491B63
:104710005109610971094E875F87688B798B2BE09E
:10472000829FC00111248A58934E2C853D852817FD
:10473000390759F0E091411CF091421C828D8A8F1B
:10474000DF91CF911F910F9108958E010E5F1F4F42
:10475000C8010E94342DE091411CF091421C828DD1
:104760008A8F9091491C981710F48093491C2BE074
:10477000829FC0011124B8018A58934EDF91CF91D6
:104780001F910F910C94D62C0F931F93CF93DF930F
:10479000EC01009749F088A5815088A72A8D9FA138
:1047A000291711F0882331F080E0DF91CF911F911C
:1047B0000F9108958E010E5F1F4FC8010E94342D86
:1047C0008FA18A8F44E050E060E070E0481B5109FF
:1047D000610971094E875F87688B798B9091491CBD
:1047E000981710F48093491C2BE0829FC00111247C
:1047F000B8018A58934E0E94D62C81E0DF91CF9168
:104800001F910F910895CF92DF92EF92FF92E09166
:10481000411CF091421C6685778580899189E091E1
:10482000411CF091421CA091411CB091421C5A962F
:104830002C9134E0C32ED12CE12CF12CC21AD108DA
:10484000E108F108C686D786E08AF18AFF90EF90EA
:10485000DF90CF9008958091411C9091421C892B4C
:1048600039F0E091411CF091421C80A58F5F80A738
:104870008091411C9091421C0895EF92FF920F93FA
:104880001F93CF93DF9300D0CDB7DEB77C0185E9CE
:1048900094E0F7019183808361157105C1F0FB01FC
:1048A00001900020E9F73197E61BED3020F50E2F3F
:1048B00010E0C801019669837A830E940B29F701F1
:1048C00095838483A80169817A810E94BF34809195
:1048D000A21C9091A31CF70197838683F092A31CDE
:1048E000E092A21C0F900F90DF91CF911F910F913A
:1048F000FF90EF900895ECE0DACF0F931F93CF93E2
:10490000DF93EC018091A21C9091A31C6BE0892B9A
:1049100049F1CE010E9480298C0160E577E00E9478
:104920003B2966E0C8010E9480296BE0CE010E940D
:1049300080298C016DE277E00E943B2966E0C80186
:104940000E9480298091A21C9091A31CDC01ED9112
:10495000FC910190F081E02DBE01DF91CF911F917C
:104960000F910994CE010E948029EC016FE077E05D
:104970000E943B2966E0CE01DF91CF911F910F91FC
:104980000C9480294F925F926F927F928F929F92A8
:10499000AF92BF92CF92DF92EF92FF920F931F934D
:1049A000CF93DF93EC013B0149012801FC018BE926
:1049B00094E081939193A12CB12CC12CD12C7F0137
:1049C000042F9E01A4018FEC92E30E94981D5F8248
:1049D0004E82998688862091A41C3091A51C3D8327
:1049E0002C83D093A51CC093A41C1C861D8680908C
:1049F000B21C9090B31C9FEF891A990A9092B31C35
:104A00008092B21C9B868A861E861F86188A198A07
:104A10004114510409F44CC06BE0813041F1C201F2
:104A20000E948029EC0163E777E00E943B29B301F3
:104A3000CE010E943B29E881F9810280F381E02DBB
:104A400062E2CE01099566E0CE01DF91CF911F9120
:104A50000F91FF90EF90DF90CF90BF90AF909F901D
:104A60008F907F906F905F904F900C948029C2013F
:104A70000E948029EC0169E877E00E943B29B3019C
:104A8000CE010E943B296BE0CE010E948029EC01FF
:104A900060E977E00E943B2963E0CE010E94802913
:104AA000B4010E94302A62E00E94802966E0CDCFE6
:104AB000DF91CF911F910F91FF90EF90DF90CF90FA
:104AC000BF90AF909F908F907F906F905F904F902E
:104AD0000895EC01E881F9810190F081E02D0995BC
:104AE0001B821A826FEF7FEFCB010E947321FACFF6
:104AF000FC01648765870895FC01C681D7812097F2
:104B000039F0CE010E943B2966E0CE010E94802947
:104B10002BE088E190E00FB6F894A89580936000B0
:104B20000FBE20936000FFCF0E946C1F0E942134B3
:104B300020E030E04AE754E40E94B9330895CF9270
:104B4000DF92EF92FF920F931F93CF93DF93EC01CD
:104B50007B018A819B810E94861F6C016BE0C701EB
:104B60000E9480298C0167EA77E00E943B29B60108
:104B7000C8010E943B2966E0C8010E9480298A85FD
:104B80009B8528853985A701BC01821B930B0E9458
:104B900084280C80DD81C02D2097D9F6DF91CF913C
:104BA0001F910F91FF90EF90DF90CF9008950F939A
:104BB0001F93CF93DF93EC018091A41C9091A51CCF
:104BC000009719F0BE010E949F256BE0CE010E9464
:104BD00080298C016EEA77E00E943B2966E0C801DB
:104BE0000E9480298091B21C9091B31CBC016F5F20
:104BF0007F4FAE0183569109DF91CF911F910F91A5
:104C00000C9484288F929F92AF92BF92CF92DF92A2
:104C1000EF92FF920F931F93CF93DF93EC018B01E1
:104C20008A819B810E94861FBC01C8010E943B298A
:104C3000D801ED91FC910280F381E02D69E0C8017B
:104C400009958A819B810E94861FFC0101900020AA
:104C5000E9F73197E81BF90B389748F4D801ED9143
:104C6000FC910280F381E02D69E0C8010995CE84B2
:104C7000DF84E888F988A884B9848A819B810E94AE
:104C80004823982E8C848A819B810E949F1E682FC6
:104C9000C8010E94B22A6BE00E948029EC0162E206
:104CA00078E00E943B29682DCE010E94B22A6BE079
:104CB0000E948029EC0164E278E00E943B29692D82
:104CC000CE010E94B22A6BE00E948029EC0166E2CC
:104CD00078E00E943B29B501CE010E94302A6BE0AA
:104CE0000E948029EC0168E278E00E943B296BE099
:104CF000CE010E948029EC016AE278E00E943B2903
:104D0000B701A601CE01DF91CF911F910F91FF90C6
:104D1000EF90DF90CF90BF90AF909F908F900C94CA
:104D20006A2A0F931F93CF93DF93EC018B01E881E5
:104D3000F9810280F381E02DB801CE01099566E08A
:104D4000C8010E9480290C80DD81C02D209779F751
:104D5000DF91CF911F910F910895CF93DF93EC01D5
:104D6000CB01DB01ED91FC910280F381E02DBE01CE
:104D70000995CE01DF91CF9108950F931F93CF93A3
:104D8000DF93EC016BE00E9480298C0160E178E008
:104D90000E943B296BE0C8010E9480298C016BE1D5
:104DA00078E00E943B2966E0C8010E9480296BE000
:104DB000CE010E9480298C016DEE77E00E943B2994
:104DC0006BE0C8010E9480298C016EEF77E00E94A1
:104DD0003B296BE0C8010E9480298C016AE078E0E1
:104DE0000E943B2966E0C8010E9480296BE0CE0149
:104DF0000E9480298C016AEC77E00E943B296BE0DD
:104E0000C8010E9480298C016BED77E00E943B294C
:104E10006BE0C8010E9480298C0167EE77E00E9458
:104E20003B2966E0C8010E9480298091A41C9091D2
:104E3000A51C009719F0BE010E9491260E94901FA8
:104E40000E944823182F6BE0CE010E948029EC01BC
:104E500069EB77E00E943B29612FCE010E94B22AC4
:104E60006BE00E948029EC0164EC77E00E943B2912
:104E700064E670E0CE010E94302A6BE00E94802937
:104E8000EC0166EC77E00E943B2966E0CE01DF9101
:104E9000CF911F910F910C948029CF92DF92EF92C6
:104EA000FF920F931F93CF93DF937C018B01DC0163
:104EB0001A966D917C911B97C8010E943B29F701BE
:104EC000A285B385FD0101900020E9F73197DE2E20
:104ED000DA1AFFE0FD1580F0C0E0D0E0D801ED91D6
:104EE000FC910280F381E02D60E2C80109952196D2
:104EF0008C2F8D0D803190F36FE974E0C8010E9412
:104F00003B29D7015696CD90DC9057971E968D91F0
:104F10009C911F970E941A1D682FC8010E94B22AF7
:104F2000EC01E881F9810280F381E02D6FE20995BF
:104F3000B601CE010E94302ADC01ED91FC91028085
:104F4000F381E02D69E0099566E0C8010E9480299F
:104F5000F70184859585009781F0DC01ED91FC9146
:104F60000190F081E02DB801DF91CF911F910F9159
:104F7000FF90EF90DF90CF900994DF91CF911F9138
:104F80000F91FF90EF90DF90CF9008956F927F92F6
:104F90008F929F92AF92BF92CF92DF92EF92FF9249
:104FA0000F931F93CF93DF93EC01762E672E4A0168
:104FB0005901670178010E943029B401CE0106969B
:104FC0000E943D248AEA94E0998388832CEB34E0A4
:104FD0003F832E83BD8AAC8A40E061E0872D0E942A
:104FE0008B1A9F878E87C88AD98AEA8AFB8A7E8A2B
:104FF0006F8ADF91CF911F910F91FF90EF90DF901B
:10500000CF90BF90AF909F908F907F906F900895BA
:1050100006970C944D27CF92DF92EF92FF920F9359
:105020001F93CF93DF93CDB7DEB72F970FB6F894CA
:10503000DEBF0FBECDBF8C017B01DB016D917D9189
:105040008D919C9128EE33E040E050E00E94723355
:10505000BA01A901C8010E946A2AD801ED91FC9108
:105060000280F381E02D6EE2C8010995C7010E941C
:10507000E82E6E01B9E0CB0ED11C7E01EFE0EE0E02
:10508000F11C2AE030E040E050E00E949433E62F2B
:1050900029833A834B835C8369817A818B819C81EC
:1050A000E05DD701EE937D01AC15BD0551F71F867C
:1050B000BD01C8010E943B29C8012F960FB6F89484
:1050C000DEBF0FBECDBFDF91CF911F910F91FF903B
:1050D000EF90DF90CF900895CF93DF93EC010FB660
:1050E000F8940F9280912401909125019D838C83E7
:1050F0000E946C1F688379838A839B830F900FBE05
:10510000CE01DF91CF9108958F929F92AF92BF927F
:10511000CF92DF92EF92FF920F931F93CF93DF9383
:105120006C014B01EA0163E0CA010E948029C814A6
:10513000D90408F059C0560184E1A80EB11C7501CC
:10514000B601CE010E94302A6BE00E9480296CE2F9
:1051500078E00E943B298601F80161918F01CE0120
:105160000E94B22AE881F9810280F381E02D60E299
:10517000CE0109950E151F0579F7E881F9810280A6
:10518000F381E02D60E2CE0109950FC080EE860F1D
:10519000E881F9810280F381E02D8F3508F06EE21D
:1051A000CE010995CE14DF0481F0F60161916F0103
:1051B000653A61F7E881F9810280F381E02D60E2D0
:1051C000CE010995CE14DF0481F7650166E0CE01BA
:1051D0000E948029F4E1EF0EF11CA814B90420F418
:1051E000C50144965C01ACCF62E0CE01DF91CF9166
:1051F0001F910F91FF90EF90DF90CF90BF90AF90F5
:105200009F908F900C9480290C94AF18009711F008
:105210000C94481908950C94AF18009711F00C9451
:1052200048190895FC0181E090E02081222311F0CB
:1052300080E090E0089521E0FC0120830895089526
:10524000089581E0089580E0089580E0089508952C
:10525000DC01ED91FC910280F381E02D6CE009947A
:10526000FC0182EC94E0918380838AE0828383E076
:105270008583148208950F931F93CF93DF93EC01DE
:10528000FB018C81811117C06081662379F08F0149
:105290000F5F1F4FE881F9810280F381E02DCE017D
:1052A0000995F80161918F016111F4CFDF91CF91E0
:1052B0001F910F9108951C828B010F5F1F4F649106
:1052C0006623A1F3A881B9811296ED91FC91139701
:1052D000CE010995F80164910F5F1F4F6111F2CF64
:1052E000E5CF883008F087E08093070289E00895D1
:1052F0009EEF980F9F3010F4809306028AE0089585
:10530000CF93DF93EC01462F50E04C30510538F439
:10531000FA01EA59FF4F0C94B33382E08A83CE013D
:10532000DF91CF91089581E08C83F9CF88E08A8363
:10533000F6CF8AE08A83F3CF80E18A83F0CFE881D9
:10534000F9810280F381E02D6DE00995E881F98112
:105350000280F381E02D6AE0CE010995E0CFE8817B
:10536000F9810284F385E02D0995D9CFE881F9818F
:105370000084F185E02D0995D2CF809107028D83BD
:10538000CECF809106028A83CACF0F931F93CF930B
:10539000DF93CDB7DEB761970FB6F894DEBF0FBECF
:1053A000CDBF8C01CB01F80122812A3079F0C801F0
:1053B0000E94302AC80161960FB6F894DEBF0FBE76
:1053C000CDBFDF91CF911F910F9108954AE050E03A
:1053D000BE016F5F7F4F0E94CE34BE016F5F7F4F73
:1053E000C8010E943B29E6CF0F931F93CF93DF9311
:1053F00000D000D01F92CDB7DEB78C01862FD80128
:1054000013969C911397911112C0F80192819A30D2
:10541000B1F0C8010E94B22AC8010F900F900F90FE
:105420000F900F90DF91CF911F910F910895ED9103
:10543000FC910280F381E02DC8010995EDCF4AE08F
:1054400050E0BE016F5F7F4F992787FD90950E94C6
:10545000CE34BE016F5F7F4FC8010E943B29DCCF75
:10546000FF920F931F93CF93DF93CDB7DEB7619772
:105470000FB6F894DEBF0FBECDBF8C01F62E972F6E
:10548000F8014281403191F0483081F0423071F0B2
:1054900050E0BE016F5F7F4F8F2D0E941435BE011B
:1054A0006F5F7F4FC8010E943B2907C0692FC80169
:1054B0000E94B22A6F2D0E94B22AC80161960FB6CF
:1054C000F894DEBF0FBECDBFDF91CF911F910F913A
:1054D000FF900895DF92EF92FF920F931F93CF9367
:1054E000DF93CDB7DEB7A1970FB6F894DEBF0FBE3E
:1054F000CDBF8C01D42EE52EF62E972FF8012281F8
:105500002031A1F0283091F0223081F030E0AE015E
:105510004F5F5F4F6D2D7E2D8F2D0E94EF34BE01AA
:105520006F5F7F4FC8010E943B290DC0692FC801E2
:105530000E94B22A6F2D0E94B22A6E2D0E94B22ABA
:105540006D2D0E94B22AC801A1960FB6F894DEBF55
:105550000FBECDBFDF91CF911F910F91FF90EF90C4
:10556000DF900895CF92DF92EF92FF920F931F93F7
:10557000CF93DF93CDB7DEB729970FB6F894DEBF90
:105580000FBECDBF8C01D62EDC0113968C911397E4
:1055900081115DC0F80142814230D9F14031F1F012
:1055A00050E0BE016F5F7F4F8D2D90E00E9414355B
:1055B000BE016F5F7F4FC8010E943B29C801299639
:1055C0000FB6F894DEBF0FBECDBFDF91CF911F9114
:1055D0000F91FF90EF90DF90CF90089562956F70DC
:1055E0000190F081E02D0280F381E02D6A30B8F562
:1055F000605DC80109956D2D6F70D801ED91FC912A
:105600000280F381E02D6A3060F1695CC801099580
:10561000D5CF88E0E82EF12C90E8C92E0AC061E3CE
:10562000C8010995C694B1E0EB1AF108E114F10440
:1056300029F28C2D8D21D801ED91FC910280F3810E
:10564000E02D8111ECCF60E3C8010995EBCFED911E
:10565000FC910280F381E02DC8010995AFCF695C10
:10566000C8CF605DD3CFDC011896ED91FC911997FE
:1056700080811C969C911C97892359F421E23EE479
:1056800005C0215031092115310571F08081892330
:10569000C1F380811E969C911E97892B808316965C
:1056A000ED91FC91179760830895FC018785811126
:1056B0001DC02091AE1C3091AF1C8091AC1C90910C
:1056C000AD1C2817390789F0E091B01CF091B11C8E
:1056D000E20FF31F80812F5F3F4F2032310518F119
:1056E0001092AF1C1092AE1C0895FFCF2091A81C01
:1056F0003091A91C8091A61C9091A71C28173907EE
:1057000089F0E091AA1CF091AB1CE20FF31F80819D
:105710002F5F3F4F2032310558F01092A91C109294
:10572000A81C0895FFCF3093AF1C2093AE1C0895A2
:105730003093A91C2093A81C0895DC01ED91FC91E5
:105740000280F381E02D6CE00994FC0187858823B9
:1057500069F081E04091A81C5091A91C2091A61CE1
:105760003091A71C4217530769F0089581E04091DA
:10577000AE1C5091AF1C2091AC1C3091AD1C421757
:10578000530799F780E00895EF92FF921F93CF930C
:10579000DF9300D0CDB7DEB77C01142F69837A8305
:1057A0000E943029412F69817A81C70106960E94A3
:1057B000262F82ED94E0F7019183808317871123D0
:1057C000E9F08091C90080688093C90080E290E090
:1057D0000E940B299093AB1C8093AA1C1092A91CC9
:1057E0001092A81C1092A71C1092A61C0F900F904C
:1057F000DF91CF911F91FF90EF9008958091C100AC
:1058000080688093C10080E290E00E940B29909311
:10581000B11C8093B01C1092AF1C1092AE1C109261
:10582000AD1C1092AC1C0F900F90DF91CF911F9187
:10583000FF90EF9008951F920F920FB60F921124D0
:105840000BB60F922F933F938F939F93EF93FF93FA
:105850002091C600E091B01CF091B11C8091AC1C6D
:105860009091AD1CE80FF91F20838091AC1C9091A2
:10587000AD1C019680329105C0F49093AD1C8093CD
:10588000AC1C2091AE1C3091AF1C28173907D1F009
:10589000FF91EF919F918F913F912F910F900BBEB0
:1058A0000F900FBE0F901F9018951092AD1C109284
:1058B000AC1C80E090E02091AE1C3091AF1C28170A
:1058C000390731F701969093AF1C8093AE1C8097F7
:1058D000F8F21092AF1C1092AE1CDACF1F920F920A
:1058E0000FB60F9211240BB60F922F933F938F9305
:1058F0009F93EF93FF932091CE00E091AA1CF0912B
:10590000AB1C8091A61C9091A71CE80FF91F208367
:105910008091A61C9091A71C019680329105C0F43D
:105920009093A71C8093A61C2091A81C3091A91CC1
:1059300028173907D1F0FF91EF919F918F913F91F7
:105940002F910F900BBE0F900FBE0F901F901895C8
:105950001092A71C1092A61C80E090E02091A81C39
:105960003091A91C2817390731F701969093A91C8B
:105970008093A81C8097F8F21092A91C1092A81C82
:10598000DACFFC010396928381834FEF5FEFBA0178
:105990004383548365837683908787839287818747
:1059A00010820895FC01138612860895CF93DF9329
:1059B0009C01FB01DC011196CD91DC911297D583FE
:1059C000C4838E819F81978386838E819F81DC0132
:1059D00015967C936E9314977F836E83338722870B
:1059E000F90180818F5F8083DF91CF9108950F93BC
:1059F0001F93CF93DF93EB01088119812A813B81AB
:105A00000F3F4FEF14072407340731F1DC011396E1
:105A100001C0DF011496ED91FC91159740815181F1
:105A200062817381041715072607370790F7FD83F6
:105A3000EC83D783C683BF83AE831596DC93CE9366
:105A400014979B878A87FC0120812F5F2083DF9139
:105A5000CF911F910F910895FC01A185B2851496F5
:105A6000ED91FC911597E3CFCF93DF93FC01A285D5
:105A7000B3852481358186819781E9019F838E8357
:105A800086819781EC013D832C8311962D913C9169
:105A900012972E173F0741F0138612868C91815082
:105AA0008C93DF91CF91089512969C938E931197CA
:105AB000138612868C9181508C93DF91CF9108953B
:105AC0009093B31C8093B21C31E1FC013083319779
:105AD00022E22083FC013297A3E3A083FC013397E9
