:100000000C9418040C9437040C9437040C943704A3
:100010000C9437040C94DF0E0C949C0F0C949E0FE0
:100020000C941C100C9437040C9437040C94370473
:100030000C9437040C9437040C9437040C94370454
:100040000C9437040C9437040C9437040C94370444
:100050000C9437040C9437040C9437040C94370434
:100060000C9437040C94402C0C9437040C943704F3
:100070000C9437040C9437040C9437040C94370414
:100080000C9437040C9437040C9437040C94370404
:100090000C94932C0C9437040C9437040C94370470
:1000A0000C9437040C9437040C9437040C943704E4
:1000B0000C9437040C9437040C9437040C940A2FD6
:1000C0000C9437040C9437040C943704B229BB29E0
:1000D000BE29C129B429B429C429D429DB29E2299C
:1000E000E629B8292D2D2D2D2D2D2D2D204D4534D2
:1000F0003035204C61622035205374617274696E12
:10010000672050726F6772616D202D2D2D2D2D2D62
:100110002D2D005F5F5F5F5F5F5F5F204D45343077
:1001200035204C61622033204D6F646966696564D7
:100130002050726F6772616D205F5F5F5F5F5F5F0E
:100140005F004D61792031382032303136005379EB
:100150007374656D2074696D653A20002C204865C4
:1001600061703A20002C204F435235413A20002044
:10017000202020723A2020202020205265747572A1
:100180006E20746F204D61696E204D656E75002084
:100190002043746C2D433A202020205265736574EF
:1001A00020415652206D6963726F636F6E74726F77
:1001B0006C6C65720020202020733A2020202020C3
:1001C0002046756C6C204272616B650020202020F7
:1001D000623A2020202020204D6F746F72204252FE
:1001E000414B4520776974682050574D205B2D3274
:1001F00035352C203235355D0020202020703A2006
:1002000020202020204D6F746F7220504F57455290
:1002100020776974682050574D205B2D3235352C7E
:10022000203235355D002D2D2D2D2D2D2D2D2D2DF3
:100230002D2D2D2D2D2D2D204D4F544F52204D4520
:100240004E55202D2D2D2D2D2D2D2D2D2D2D2D2DA2
:100250002D2D2D2D0020202020723A20202020201E
:100260002052657475726E20746F204D61696E2026
:100270004D656E7500202043746C2D433A2020207C
:1002800020526573657420415652206D6963726F08
:10029000636F6E74726F6C6C657200202020206D2D
:1002A0003A2020202020204D6F746F722073656CDF
:1002B00065637420616E6420506F7765722076618B
:1002C0006C75650020202020643A2020202020200A
:1002D000537461636B2064756D7020666F72207457
:1002E00061736B730020202020733A20202020208F
:1002F0002056657273696F6E2F536574757020692F
:100300006E666F726D6174696F6E002020202074BC
:100310003A20202020202053686F772074686520C1
:1003200063757272656E742074696D65002D2D2D74
:100330002D2D2D2D2D2D2D2D2D2D2D2D2D2D204DDA
:1003400041494E204D454E55202D2D2D2D2D2D2D25
:100350002D2D2D2D2D2D2D2D2D2D00496C6C6567EE
:10036000616C2073746174652120526573657474C7
:10037000696E6720415652002220003C2D2D2055E9
:100380006E6B6E6F776E20636F6D6D616E642E2085
:100390005479706520636F6D6D616E642066726F55
:1003A0006D206D656E752E00526573657474696E8F
:1003B0006720415652004D6F746F722000204841F3
:1003C0004C5445442100456E746572206E756D6213
:1003D000657220666F72204D6F746F722000456EDB
:1003E000746572206E756D62657220666F72204D45
:1003F0006F746F7220002220003C2D2D20556E6BF3
:100400006E6F776E20636F6D6D616E642E20547910
:10041000706520636F6D6D616E642066726F6D2014
:100420006D656E752E00506C656173652074797012
:10043000652061206E756D626572206265747765F6
:10044000656E203020746F203235352C207468653D
:100450006E20454E54455200506C656173652074A2
:100460007970652061206E756D62657220626574B9
:100470007765656E202D32353520746F2032353525
:100480002C207468656E20454E54455200506C65B2
:10049000617365207479706520612031206F72204E
:1004A0003220666F72206D6F746F722073656C6599
:1004B00063742C207468656E20454E544552004E7E
:1004C000756D62657220456E74657265643A2000D0
:1004D0004E756D62657220456E74657265643A2072
:1004E0002D002220003C2D2D20556E6B6E6F776EF7
:1004F00020636F6D6D616E642E205479706520638A
:100500006F6D6D616E642066726F6D206D656E75C6
:100510002E00526573657474696E672041565200EF
:10052000456E746572206E756D6265722C20312087
:100530006F7220322C20666F72206D6F746F722084
:1005400073656C656374696F6E3A20004144435370
:1005500052413A200041444D55583A20004144430D
:1005600030203D200041444331203D2000414443A0
:1005700032203D200041444333203D20004144438C
:1005800034203D200041444335203D200041444378
:1005900036203D200041444337203D20004D6F74FC
:1005A0006F722053706565645F32202872706D2908
:1005B000203D20004D6F746F722053706565645F3D
:1005C00031202872706D29203D20004572726F72B3
:1005D00020696E2067657445756C6572416E6700B1
:1005E000494D552073797374656D2073656C662071
:1005F00074657374207374617475733A2000457266
:10060000726F7220436F64653A2000494D55207324
:10061000797374656D207374617475733A20004941
:100620004D5520756E6974732073657400494D557E
:1006300020706F776572206D6F646520736574003C
:10064000494D55206F7065726174696F6E206D6FD2
:1006500064652073657400494D55206F626A656357
:100660007420696E7469616C20636F6D6D756E695D
:10067000636174696F6E2073756365737300494DB0
:1006800055206F626A65637420696E7469616C20BD
:10069000636F6D6D756E69636174696F6E206572ED
:1006A000726F720045756C65722050697463683AA8
:1006B000200045756C657220526F6C6C3A200045C5
:1006C000756C65722048656164696E673A20002028
:1006D0002020203020322034203620382041204372
:1006E0002045004932432073656E642074696D654E
:1006F0006F7574004932432072652D737461727492
:100700003A20307800206E6F742030783130004EFF
:100710006F2073686172656420646174612069741C
:10072000656D7320746F207072696E74002D2D2DAD
:100730002D2020202020202020202020202D2D2D85
:100740002D202020202D2D2D2D2D2D2D2D2D2D003A
:1007500053686172652F51756575652020202020D2
:100760005479706520202020467265652F546F747F
:10077000616C004552524F52206372656174696E1C
:1007800067207461736B2022005461736B20220018
:100790002220637265617465642C20737461636BDD
:1007A000206174203078005461736B3A20005461EA
:1007B000736B3A2049444C450049444C4509093083
:1007C000092D09002F0009092D002D2D2D2D0909B6
:1007D0002D2D2D2D092D2D2D2D2D00092D2D2D2DBE
:1007E0002D2D2D2D2D2D00092D2D2D2D004E616D22
:1007F0006509095072692E095374617465000946D0
:100800007265652F546F74616C000952756E7300C8
:100810005461736B09092020092000095374616336
:100820006B00090009002F000900090020200000CA
:1008300011241FBECFEFD1E2DEBFCDBF14E0A0E098
:10084000B2E0E2ECFAE600E00BBF02C007900D92C6
:10085000AE3DB107D9F71CE1AEEDB4E001C01D9289
:10086000A43BB107E1F70E948A310C945F350C94E8
:1008700000000F931F93CF93DF93EC010E94E724B6
:1008800087EA93E099838883DF91CF911F910F913D
:1008900008950F931F93CF93DF93EC0166E08E8151
:1008A0009F810E94A5296BE08E819F810E94A529CE
:1008B0008C016DE273E00E94602966E0C8010E942D
:1008C000A5296BE08E819F810E94A5298C016BE098
:1008D00073E00E94602966E0C8010E94A5296BE0D0
:1008E0008E819F810E94A5298C0165EE72E00E9495
:1008F000602966E0C8010E94A5296BE08E819F8176
:100900000E94A5298C0164EC72E00E94602966E0D7
:10091000C8010E94A5296BE08E819F810E94A529B4
:100920008C016BE972E00E94602966E0C8010E94B8
:10093000A5296BE08E819F810E94A5298C0165E726
:1009400072E00E94602966E0C8010E94A5296BE060
:100950008E819F810E94A5298C0165E572E00E942D
:10096000602966E0C8010E94A52966E08E819F810A
:10097000DF91CF911F910F910C94A5290F931F9395
:10098000CF93DF93EC0166E08E819F810E94A529C1
:100990006BE08E819F810E94A5298C0166E272E046
:1009A0000E94602966E0C8010E94A5296BE08E8143
:1009B0009F810E94A5298C0169EF71E00E94602946
:1009C00066E0C8010E94A5296BE08E819F810E948C
:1009D000A5298C016CEC71E00E94602966E0C801D9
:1009E0000E94A5296BE08E819F810E94A5298C0120
:1009F00065EB71E00E94602966E0C8010E94A529AC
:100A00006BE08E819F810E94A5298C016FE871E0C7
:100A10000E94602966E0C8010E94A5296BE08E81D2
:100A20009F810E94A5298C016FE671E00E946029D8
:100A300066E0C8010E94A52966E08E819F81DF9152
:100A4000CF911F910F910C94A5298F929F92AF92F5
:100A5000BF92CF92DF92EF92FF920F931F93CF93AB
:100A6000DF9300D000D000D0CDB7DEB78C01198263
:100A70001A821B821C821E821D82C0902801D09087
:100A800029010E9498195C01CE0101960E949128CB
:100A90004C0166E0F801868197810E94A5296BE0F0
:100AA0000E94A5297C0163E171E00E9460296BE04E
:100AB000C7010E94A5297C0162E471E00E946029BF
:100AC00066E0C7010E94A5296BE00E94A5297C0170
:100AD0006EE471E00E946029B401C7010E943028D1
:100AE0006BE00E94A5297C016CE571E00E94602901
:100AF000B501C7010E94552A7C016CE873E00E9491
:100B0000602948E357E160E070E0C7010E948F2A46
:100B10006BE00E94A5297C0165E671E00E946029D6
:100B2000B601C7010E94552A66E00E94A52966E029
:100B30000E94A529F801868197810E94E22666E03D
:100B4000F801868197810E94A529F8018681978105
:100B50000E94A22426960FB6F894DEBF0FBECDBF2A
:100B6000DF91CF911F910F91FF90EF90DF90CF9089
:100B7000BF90AF909F908F900895CF93DF93CDB7A4
:100B8000DEB727970FB6F894DEBF0FBECDBF8C013E
:100B900019821A821B821C821E821D820FB6F89453
:100BA0000F92E091FC04F091FD0410860F900FBEAF
:100BB0000E944904C12CB12CD12CE12CF12CAA2487
:100BC000A3945AE0452E512CD8011C968C9181306B
:100BD00079F1813008F4A4C0823009F086C0D801D0
:100BE00016968D919C911797DC01ED91FC910480F4
:100BF000F581E02D09958111E8C0D8011E964D912F
:100C00005D916D917C9151974F5F5F4F6F4F7F4F1B
:100C1000F80146875787608B718B61E070E080E058
:100C200090E00E949821D8011C968C91813089F621
:100C3000F80186819781DC01ED91FC910480F581BA
:100C4000E02D0995882309F428C3F801868197814E
:100C5000DC01ED91FC910680F781E02D0995482F8C
:100C600080ED840F8A3008F4F5C24D3209F4BCC21D
:100C70004F3709F487C24A3009F4AEC24D3009F04B
:100C800083C266E0B1102DC2F801868197810E946F
:100C9000A5296BE00E94A5294C016FEB74E0C4010B
:100CA0000E946029B701C4010E94EA2966E00E94FF
:100CB000A529D110E9C1C7010197029708F4C6C060
:100CC0006BE0D80116968D919C9117970E94A529EB
:100CD0007C016DE874E0C7010E94602966E0C701ED
:100CE0000E94A529E12CF12C88CF6BE0F8018681C8
:100CF00097810E94A5298C016BE573E00E94602911
:100D000066E0C8010E94A5292BE088E190E00FB6BB
:100D1000F894A895809360000FBE20936000FFCFE9
:100D2000F80186819781DC01ED91FC910480F581C9
:100D3000E02D0995882309F460CFF8018681978119
:100D4000DC01ED91FC910680F781E02D0995282FBB
:100D50008D3609F45BC10CF44CC1833709F445C1ED
:100D6000843709F434C1823709F42DC1F801868033
:100D70009780D401ED91FC910280F381E02D62E235
:100D8000C4012F830995D401ED91FC910280F38178
:100D9000E02D2F81622FC40109956BE0C4010E94F0
:100DA000A5294C0162EE74E00E9460296BE0C40149
:100DB0000E94A5294C0165EE74E0C4010E946029DF
:100DC00066E0C4010E94A52918CFF80186819781A9
:100DD000DC01ED91FC910680F781E02D0995282F2B
:100DE000803709F4AAC00CF06DC0833009F4CEC07E
:100DF000823609F03FC00FB6F8940F92E091FC04E0
:100E0000F091FD04D0840F900FBE6BE0D8011696D0
:100E10008D919C9117970E94A5294C0166EC73E077
:100E20000E9460296D2DC4010E94192A4C0168E9B5
:100E300073E00E94602966E0C4010E94A52961E078
:100E4000C8010E949D2582E0D82ED7CE0FB6F89417
:100E50000F92E091FC04F091FD04E0860F900FBE2C
:100E6000C8010E94BE0462E0C8010E949D25E12CD9
:100E7000F12CC3CEF80186809780D401ED91FC91CE
:100E80000280F381E02D62E2C4012F830995D40131
:100E9000ED91FC910280F381E02D2F81622FC4013E
:100EA00009956BE0C4010E94A5294C0168E773E035
:100EB0000E9460296BE0C4010E94A5294C016BE7E8
:100EC00073E07BCF823789F18337A1F60FB6F894B0
:100ED0000F92E091F204F091F304A0860F900FBE00
:100EE0000FB6F8940F92E091FC04F091FD04708429
:100EF0000F900FBE6BE0F801868197810E94A529B3
:100F00004C0166EB73E00E946029672DC4010E94CA
:100F1000192A6BE00E94A5294C016DEB73E00E9439
:100F2000602966E0C4010E94A529C8010E94490405
:100F300060E0C8010E949D2560CE0FB6F8940F9224
:100F4000E091FC04F091FD04D0840F900FBE6BE0A3
:100F5000F801868197810E94A5294C016EED73E00E
:100F60000E9460296D2DC4010E94192A4C0160E97C
:100F700073E00E94602966E0C4010E94A52961E037
:100F8000C8010E949D25DD24D39437CE6BE0D801A3
:100F900016968D919C9117970E94A5298C0168EA5D
:100FA00073E00E94602966E0C8010E94A5292BE039
:100FB00088E190E00FB6F894A895809360000FBE8A
:100FC00020936000FFCFC8010E94490416CECE01D5
:100FD00001960E949128BC01F801868197810E94A8
:100FE000302866E00E94A52908CEC8010E94250588
:100FF00004CE833061F1843609F0B8CED80116965C
:101000008D919C9117970E94FC25F7CD6BE0F8011C
:10101000868197810E94A5297C0160E275E00E948B
:10102000602966E0C7010E94A5290FB6F8940F92C7
:10103000E091FC04F091FD0410860F900FBE61E07A
:10104000C8010E949D25D12CE12CF12CD6CD6BE05E
:10105000D80116968D919C9117970E94A5298C0115
:1010600062E175E00E94602966E0C8010E94A5293E
:101070002BE088E190E00FB6F894A895809360008B
:101080000FBE20936000FFCFB1E0DB1609F437C03C
:10109000B2E0DB12B2CDEFEFEE16F10411F008F082
:1010A00065C00FB6F8940F92E091F604F091F70442
:1010B000F186E0860F900FBE0FB6F8940F92E09184
:1010C000F404F091F504A0860F900FBEC8010E94B1
:1010D000490460E0C8010E949D25D12CE12CF12C2F
:1010E0008CCDD80116968D919C9117970E94A529B9
:1010F0006BE00E94A5294C0160ED74E0D0CDEFEFCC
:10110000EE16F10409F030F5BB2019F0F194E194EA
:10111000F1080FB6F8940F92E091FA04F091FB04F5
:10112000F186E0860F900FBE0FB6F8940F92E09113
:10113000F804F091F904A0860F900FBEC8010E9438
:10114000490460E0C8010E949D25B12CD12CE12CFE
:10115000F12C53CD6BE0D80116968D919C91179789
:101160000E94A5297C0168E574E0B5CD6BE0D8014B
:1011700016968D919C9117970E94A5297C0166E295
:1011800074E0A9CDC1103EC0F801E680F780D70118
:10119000ED91FC910280F381E02D62E2C7014F8363
:1011A0000995D701ED91FC910280F381E02D4F81EB
:1011B000642FC70109956BE0C7010E94A5297C0136
:1011C00066EF73E00E9460296BE0C7010E94A529C9
:1011D0007C0169EF73E07FCD6EE873E0F8018681F2
:1011E00097810E94602909CDF80186819781DC01F1
:1011F000ED91FC910280F381E02D6DE20995BB2415
:10120000B394FBCCF80186819781DC01ED91FC91D0
:101210000280F381E02D6FE70995F80186819781BF
:10122000DC01ED91FC910280F381E02D60E20995F3
:10123000F80186819781DC01ED91FC910280F381B8
:10124000E02D6FE70995C701B2010E9483337B014E
:10125000CA94D3CCF80186819781DC01ED91FC9191
:101260000280F381E02D642F4F8309959701220FAF
:10127000331FEE0CFF1CEE0CFF1CEE0CFF1C2E0DA2
:101280003F1D4F81E42EFF24E7FCF094B0E3EB1AFE
:10129000F108E20EF31EC394B0CC8091FE0490914D
:1012A000FF04DC01ED91FC910480F581E02D0995AE
:1012B000882309F4A2CCD8011696ED91FC911797DA
:1012C0000190F081E02D828093808091FE049091C6
:1012D000FF04DC01ED91FC910680F781E02D09957A
:1012E000682FF80186819781F401099586CCFC016D
:1012F00071836083EAE7F0E0808180688083808189
:101300008160808380818D7F808380818460808301
:10131000ECE7F0E080818064808380818F77808338
:10132000089580917C00887F80937C0080917C0070
:101330006770682B60937C0080917A008064809352
:101340007A0080917A0086FDFCCF809178009091A0
:1013500079000895403430F1ECE3F0E04CE367703D
:1013600080E090E020917C00287F20937C002091F9
:101370007C00262B20937C0020917A00206420930F
:101380007A0020917A0026FDFCCF209178003091E0
:101390007900820F931F415029F7BF010E946F33DC
:1013A000CB010895442319F0E42FF0E0D8CFE0E01A
:1013B000F0E080E090E0BF010E946F33CB01089520
:1013C0002F923F924F925F926F927F928F929F9255
:1013D000AF92BF92CF92DF92EF92FF920F931F9343
:1013E000CF93DF9300D000D000D0CDB7DEB79E837F
:1013F0008D8380917C00887F80937C0080917C002D
:10140000876080937C0080917A00806480937A006A
:1014100080917A0086FDFCCF209178003091790090
:1014200080917C00887F80937C0080917C00866026
:1014300080937C0080917A00806480937A00809110
:101440007A0086FDFCCF2090780030907900809162
:101450007C00887F80937C0080917C0085608093F5
:101460007C0080917A00806480937A0080917A0079
:1014700086FDFCCF409078005090790080917C00F0
:10148000887F80937C0080917C00846080937C00C6
:1014900080917A00806480937A0080917A0086FD42
:1014A000FCCF009178001091790080917C00887FBA
:1014B00080937C0080917C00836080937C0080918D
:1014C0007A00806480937A0080917A0086FDFCCF58
:1014D000E0907800F090790080917C00887F809384
:1014E0007C0080917C00826080937C0080917A00F7
:1014F000806480937A0080917A0086FDFCCFC09052
:101500007800D090790080917C00887F80937C0067
:1015100080917C00816080937C0080917A0080645F
:1015200080937A0080917A0086FDFCCFA0907800AD
:10153000B090790080917C00887F80937C008091BE
:101540007C0080937C0080917A00806480937A0094
:1015500080917A0086FDFCCF809078009090790091
:1015600040917C0050917A006BE08D819E812B83AD
:101570003C834A8359830E94A5293C016CE475E0B1
:101580000E9460295981652FC3010E94D72A66E015
:101590000E94A5296BE00E94A5293C0165E575E044
:1015A0000E9460294A81642FC3010E94D72A66E005
:1015B0000E94A5296BE00E94A5293C016DE575E01C
:1015C0000E946029B401C3010E94552A66E00E946E
:1015D000A5296BE00E94A5294C0165E675E00E94F3
:1015E0006029B501C4010E94552A66E00E94A52920
:1015F0006BE00E94A5295C016DE675E00E94602900
:10160000B601C5010E94552A66E00E94A5296BE03B
:101610000E94A5296C0165E775E00E946029B70169
:10162000C6010E94552A66E00E94A5296BE00E942F
:10163000A5297C016DE775E00E946029B801C7010A
:101640000E94552A66E00E94A5296BE00E94A52908
:101650008C0165E875E00E946029B201C8010E9412
:10166000552A66E00E94A5296BE00E94A5298C01FD
:101670006DE875E00E946029B101C8010E94552AF9
:1016800066E00E94A5296BE00E94A5298C0165E90E
:1016900075E00E9460292B813C81B901C8010E943C
:1016A000552A66E00E94A5298D819E8126960FB657
:1016B000F894DEBF0FBECDBFDF91CF911F910F9188
:1016C000FF90EF90DF90CF90BF90AF909F908F9062
:1016D0007F906F905F904F903F902F900895CF93A1
:1016E000DF93FC0171836083428380918000816A73
:1016F00080938000809180008093800080918100A1
:101700008A60809381008091810080938100828132
:10171000813089F08230B9F0C081D181209781F089
:101720006BEA73E0CE010E94602966E0CE01DF9192
:10173000CF910C94A52987B1876087B9329A269AF0
:10174000DF91CF9108958AB1806E8AB94F9A259A18
:10175000DF91CF910895FC012281213071F0223078
:1017600009F0089577FD18C08BB18BB95E985D9A2A
:101770007093890060938800089528B128B977FD97
:1017800013C04198409A70938B0060938A00FC01CB
:101790008281823049F308958BB18BB95E9A5D984E
:1017A000719561957109E4CF419A40987195619561
:1017B0007109E9CFFC012281213039F0223009F092
:1017C00008958BB180668BB9089528B1236028B93C
:1017D0002281F4CFFC012281213059F0223009F01E
:1017E00008958BB18BB970E0709389006093880085
:1017F000089528B128B9262F30E030938B0020932C
:101800008A002281EBCFEC0183E090E00E9429293D
:101810008C016E817F8141E00E946F0B83E090E03C
:101820000E9429297C016E817F8142E00E946F0B1A
:10183000E091F804F091F904DF010FB6F8940F92EB
:1018400010860F900FBE80E029C0A091F404B091E3
:10185000F5040FB6F8940F920F900FBE18968C9166
:101860001897813009F469C02091F2043091F30493
:101870000FB6F8940F920F900FBEE9018885813062
:1018800009F430C064E670E080E090E00E949821A6
:10189000E091F804F091F904DF0180850FB6F89427
:1018A0000F920F900FBE813081F60FB6F8940F9211
:1018B000C091FC04D091FD0488850F900FBE81304B
:1018C00009F46FC00FB6F8940F920F900FBE8230DC
:1018D00009F4B7C00FB6F8940F9218961C920F90A7
:1018E0000FBEB3CF0FB6F8940F928091FC04909185
:1018F000FD04EC0188850F900FBE813009F441C0D2
:101900000FB6F8940F920F900FBE823009F489C081
:10191000E9010FB6F8940F9210860F900FBE0FB624
:10192000F8940F9218961C920F900FBE0FB6F89471
:101930000F9218860F900FBEA5CF0FB6F8940F9296
:10194000C091FC04D091FD0488850F900FBE8130BA
:1019500009F43BC00FB6F8940F920F900FBE82307F
:1019600009F449C00FB6F8940F9210860F900FBE7D
:101970000FB6F8940F9218961C9218970F900FBEFE
:1019800073CFC8010E94DA0BC091F204D091F30426
:10199000E091F804F091F904A091F404B091F504F9
:1019A000B8CF0FB6F8940F920F900FBEE091FA04E3
:1019B000F091FB0460857185C8010E94AB0BE0913A
:1019C000F804F091F904DF0185CF0FB6F8940F9277
:1019D0000F900FBEE091F604F091F7046085C80106
:1019E0000E94EA0BA091F404B091F504E091F80490
:1019F000F091F904B7CF0FB6F8940F920F900FBE85
:101A0000E091F604F091F7046085C7010E94EA0BAB
:101A1000A091F404B091F504E091F804F091F90478
:101A2000A1CFC7010E94DA0BC091F204D091F30458
:101A3000E091F804F091F904A091F404B091F50458
:101A400068CF0FB6F8940F920F900FBEE091FA0492
:101A5000F091FB0460857185C7010E94AB0BE0919A
:101A6000F804F091F904DF0135CF0F931F93CF9362
:101A7000DF93EC010E94E72480EE93E09983888352
:101A8000DF91CF911F910F910895CF93DF93CDB741
:101A9000DEB728970FB6F894DEBF0FBECDBF6C013E
:101AA00082E090E00E9429294C01F601668177814D
:101AB00047E00E940C0E82E090E00E9429295C0120
:101AC000F6016681778145E00E940C0E612C712C35
:101AD00040E050E0E091F004F091F1040FB6F8948A
:101AE0000F928085918598878F830F900FBEEF802E
:101AF000F884E091EE04F091EF040FB6F8940F92A1
:101B0000808591859E838D830F900FBE0D811E81F0
:101B100025E030E0B701C4010E94B90EE091E00475
:101B2000F091E1040FB6F8940F92918780870F909F
:101B30000FBE25E030E0A301B801C5010E94B90E37
:101B4000E091DE04F091DF040FB6F8940F929187D4
:101B500080870F900FBEE091E004F091E1040FB692
:101B6000F8940F92808591859C838B830F900FBE94
:101B70006B807C806BE0F601868197810E94A529AD
:101B80002C0164EB75E00E94602962E0C2010E94B2
:101B9000A529B3010E94552A66E00E94A529E0917B
:101BA000DE04F091DF040FB6F8940F9280859185E2
:101BB0009A8389830F900FBE69807A806BE0F6016B
:101BC000868197810E94A5292C016DE975E00E940C
:101BD000602962E0C2010E94A529B3010E94552A32
:101BE00066E00E94A52965E070E080E090E00E9438
:101BF0009821A70138016ECF0F931F93CF93DF93E6
:101C0000EC010E94E72488EE93E099838883DF91BA
:101C1000CF911F910F910895CF93DF93DC016D93C6
:101C20007C93E091F004F091F1040FB6F8940F92D8
:101C3000118610860F900FBEE091EE04F091EF0434
:101C40000FB6F8940F92118610860F900FBEE09198
:101C5000EC04F091ED040FB6F8940F9210860F90FB
:101C60000FBEE091EA04F091EB040FB6F8940F92E6
:101C700010860F900FBEE091E804F091E9040FB6D2
:101C8000F8940F9210860F900FBEE091E604F09149
:101C9000E7040FB6F8940F9210860F900FBE8FB71F
:101CA00080688FBF60916A00242F30E081E090E06F
:101CB000FC01042E01C0EE0F0A94EAF75E2F509546
:101CC000562350936A0050916A00B901615071091E
:101CD000EC0102C0CC0FDD1F6A95E2F7BE015C2B60
:101CE00050936A0050916A00D9011297EC0102C02A
:101CF000CC0FDD1FAA95E2F7DE01A095A523A093E6
:101D00006A0050916A00D9011397EC0102C0CC0F10
:101D1000DD1FAA95E2F75C2B50936A00473011F162
:101D2000433049F08DB18F708DB98EB1806F8EB90F
:101D3000DF91CF9108956DB3A9014E5F5F4FFC0114
:101D400002C0EE0FFF1F4A95E2F76E2B6DBB4DB33D
:101D50002F5F3F4F022E01C0880F0A94EAF7482BED
:101D60004DBBE0CF8DB38E2B8DBB8DB3862B8DBB42
:101D7000D9CF461B570B8CE3849FF001859FF00D54
:101D80001124369527953695279536952795A5ECF8
:101D9000B0E20E943E33929582958F7089279F70A2
:101DA000892723ED33E0829FB001839F700D929FBE
:101DB000700D1124CF010E946F33CB0108951F9243
:101DC0000F920FB60F9211240BB60F928F939F9321
:101DD000AF93BF93EF93FF93CF93DF93CDB7DEB76E
:101DE0002597DEBFCDBFE091EA04F091EB040FB67A
:101DF000F8940F9280858D830F900FBE8D81A091F6
:101E0000EC04B091ED040FB6F8940F9218968C93F1
:101E100018970F900FBE9CB18CB180729071892B76
:101E200090E0959587959595879595958795959546
:101E300087950FB6F8940F9280870F900FBE189673
:101E40008C91813009F454C008F442C0823039F1D9
:101E5000833089F48085813009F451C080858230D7
:101E600009F03CC0E091F004F091F1048085918587
:101E70000197918780870F900F900F900F900F9090
:101E8000DF91CF91FF91EF91BF91AF919F918F9192
:101E90000F900BBE0F900FBE0F901F90189580856E
:101EA000833069F18085811119C0E091F004F091CF
:101EB000F1040FB6F8940F92808591859A838983F7
:101EC0000F900FBE89819A81019791878087D3CF28
:101ED00080858230A1F080858130D9F0E091E404E2
:101EE000F091E50480859185019691878087C3CF25
:101EF0008085882321F08085833081F7B3CFE091FE
:101F0000F004F091F1048085918501969187808796
:101F1000B2CFE091F004F091F1040FB6F8940F9273
:101F2000808591859C838B830F900FBE8B819C81D4
:101F30000197918780879FCF0C94DF0E1F920F929D
:101F40000FB60F9211240BB60F928F939F93AF93FE
:101F5000BF93EF93FF93E091E604F091E70480854F
:101F6000A091E804B091E90418968C9318979CB15D
:101F70008CB180789074892B90E0082E892F000C0A
:101F8000881F990B000C881F991F808718968C91C9
:101F90008130E9F160F1823071F08330D9F48085CD
:101FA000813009F43FC0E091EA04F091EB048085B0
:101FB000823019F506C080858330A1F180858111BA
:101FC0001CC0E091EE04F091EF04808591850197AB
:101FD00091878087FF91EF91BF91AF919F918F91F2
:101FE0000F900BBE0F900FBE0F901F90189580851D
:101FF0008230C1F08085813021F3E091E204F091DC
:10200000E30480859185019691878087E3CF808561
:10201000882341F0E091EA04F091EB04808583305D
:1020200061F7CFCFE091EE04F091EF0480859185C8
:10203000019691878087CECF0C949E0FCF93DF932C
:10204000EC01DC016D937D938DE0E8E0F2E001901E
:102050000D928A95E1F7188A1F861A8A198A1C8AB6
:102060001B8A1E8A1D8A188E1F8A1C8E1B8EDF916A
:10207000CF910895FC016283148E138E0895CF933F
:10208000DF93EC01CB016F857889788F6F8B988B0C
:102090008F870E9467129A8F898FDF91CF91089561
:1020A000FC01728B618B0895FC01748B638B089526
:1020B000AF92BF92CF92DF92EF92FF920F931F9356
:1020C000CF93DF93CDB7DEB72D970FB6F894DEBF71
:1020D0000FBECDBFA982BA82CB82DC82ED82FE82A6
:1020E0000F83188729873A874B875C876D872DE098
:1020F000FE013196DC01129601900D922A95E1F7CE
:10210000FC01148E138E2D960FB6F894DEBF0FBE11
:10211000CDBFDF91CF911F910F91FF90EF90DF9096
:10212000CF90BF90AF900895FC01748363830895AE
:10213000FC01768365830895FC01708767830895A9
:10214000FC01728761870895FC0174876387568755
:1021500045870895FC0182810895FC018785908957
:102160000895FC01818992890895FC0183899489ED
:1021700008952DE0FB013296DC0101900D922A9525
:10218000E1F70895FC01858196810895FC01838122
:1021900094810895FC01878190850895FC018185D3
:1021A00092850895FC01838594850895FC018585B9
:1021B000968508950F931F93CF93DF93EC018F853E
:1021C00098892B893C89821B930B9E8B8D8B6D8DFF
:1021D0007E8D89859A850E94B11240E054E00E946C
:1021E000C3128C016D897E898B8D9C8D0E944A1251
:1021F000B8010E9467129C8F8B8F8A81833009F40B
:1022000072C090F5813009F463C0823009F044C097
:102210006D897E898B819C810E94B11240E054E0DF
:102220000E94C3128C016B8D7C8D8D819E810E94DA
:10223000B11240E054E00E94C312B8010E944A1259
:102240006D857E8568177907D4F06B857C85861748
:1022500097070CF458C01E8E1D8E9A8B898BDF91C8
:10226000CF911F910F9108958430C9F08530A1F46A
:1022700089899A896D857E856817790734F70E9468
:1022800067129E8F8D8F8D859E85898B9A8BDF91AE
:10229000CF911F910F91089580E090E0D1CF6D898B
:1022A0007E898B819C810E94B11240E054E00E94A3
:1022B000C3128C01698D7A8D8F8198850E94B1122D
:1022C00040E054E00E94C312B8010E944A12AACF13
:1022D0006D897E898B819C810E94B11240E054E01F
:1022E0000E94C312ADCF6D897E898B819C810E9433
:1022F000B11240E054E00E94C3128C01698D7A8DC6
:102300008F81988594CF0E9467129E8F8D8F8B85C9
:102310009C85898B9A8BDF91CF911F910F910895A6
:102320000F931F93CF93DF93EC01CB018A016F854D
:102330007889788F6F8B988B8F870E9467129A8F1E
:10234000898F1C8B0B8BCE01DF91CF911F910F9149
:102350000C94DA104F925F926F927F928F929F92BD
:10236000AF92BF92CF92DF92EF92FF920F931F93A3
:10237000CF93DF93EC01FB0141845284678070842A
:1023800003811481E580F680C584D684A384B48457
:102390008280912C6CEE73E00E94602962E0CE0195
:1023A0000E94A529B4010E94EA2966E00E94A5299D
:1023B0004C0167EF73E00E94602962E0C4010E9453
:1023C000A529B5010E94EA295C0164E074E00E943D
:1023D000602962E0C5010E94A529B6010E94EA2990
:1023E00066E00E94A5296C0169E074E00E94602902
:1023F00066E0C6010E94A5296C0160E174E00E94BC
:10240000602962E0C6010E94A529B7010E94EA295D
:1024100066E00E94A5297C016CE174E00E946029BD
:1024200062E0C7010E94A529B8010E94EA2966E07E
:102430000E94A5298C0168E274E00E94602962E094
:10244000C8010E94A529B3010E94EA2966E00E9402
:10245000A5298C0164E374E00E94602962E0C80150
:102460000E94A529B2010E94EA2966E00E94A529DE
:10247000CE01DF91CF911F910F91FF90EF90DF90F0
:10248000CF90BF90AF909F908F907F906F905F9014
:102490004F9008959C01432F4095441F4427441FAB
:1024A00080E090E8841B9109AC01421B530BE1E0F2
:1024B000461757070CF0E0E0432F4095441F442790
:1024C000441FE41719F0C901860F971F0895861756
:1024D000970799F1611520E8720741F171956195AF
:1024E0007109492F4095441F4427441F20E030E8DC
:1024F000241B3109A901481B590BE1E04617570776
:1025000064F4492F4095441F4427441FE41719F0F1
:10251000860F971F0895C9010895E0E0492F40955F
:10252000441F4427441FE417B1F3F2CF97FD03C0C3
:102530006FEF7FE7D6CF0196FBCF80E090E0089564
:10254000811520E8920729F09C0197FD05C0C9017B
:1025500008958FEF9FE70895319521953109C901BD
:102560000895811520E8920729F09C01DB010E9463
:1025700036330895611520E87207B9F76FEF7FEFE2
:102580008FEF9FE708959A01442737FD4095542F18
:102590000E94B933211580E838074105510524F020
:1025A0002FEF3FE740E050E0DA01C901811520E854
:1025B00092072FEFA207B20724F480E090E8AFEF74
:1025C000BFEF089568EE73E080E090E00E949821EC
:1025D000F9CF0F931F93CF93DF93EC010E94E72471
:1025E00084E494E099838883DF91CF911F910F91C8
:1025F0000895CF93DF93EC01262F4DE360E58A81A8
:102600009B810E9427176BE0888199810E94A529F0
:10261000EC0160E476E00E94602966E0CE01DF9183
:10262000CF910C94A529CF93DF93EC01262F4EE395
:1026300060E58A819B810E9427176BE088819981E0
:102640000E94A529EC016DE276E00E94602966E017
:10265000CE01DF91CF910C94A529CF93DF93EC01AC
:1026600020E04BE360E58A819B810E9427176BE0A5
:10267000888199810E94A529EC016FE176E00E9492
:10268000602966E0CE01DF91CF910C94A5290F93CC
:102690001F93CF93DF93EC017983688384E090E00C
:1026A0000E9429298C01688179810E94A8141B83CA
:1026B0000A8340E060E5C8010E9496156BE0803A0D
:1026C00009F1888199810E94A5298C016EE776E045
:1026D000C8010E94602966E0C8010E94A52960E047
:1026E000CE010E94F91260E0CE010E941313CE01C8
:1026F0000E942D136CE0CE01DF91CF911F910F91BD
:102700000C94F912888199810E94A5298C0167E5B2
:1027100076E0DECFEF92FF920F931F93CF93DF937C
:10272000EC0149E360E58A819B810E949615F82EB1
:1027300046E360E58A819B810E949615E82E6BE056
:10274000888199810E94A5298C016BE076E00E9426
:1027500060296F2DC8010E94D72A66E00E94A52932
:1027600081E0F816D1F06BE0888199810E94A5295B
:10277000EC0160EE75E00E9460296E2DCE010E9492
:10278000D72A66E00E94A52966E0DF91CF911F91CC
:102790000F91FF90EF900C94A5294AE360E58A81A0
:1027A0009B810E949615F82E6BE0888199810E948A
:1027B000A5298C016EEF75E00E9460296F2DC8017C
:1027C0000E94D72A66E00E94A529CDCF1F93CF9300
:1027D000DF93EC016130D1F1623009F440C0633025
:1027E000A1F06BE0888199810E94A529EC016BEC36
:1027F00075E00E94602966E0CE010E94A52980E074
:1028000090E0DF91CF911F9108954FE160E58A81BB
:102810009B810E949615182F4EE160E58A819B816D
:102820000E949615212F30E0322F2227282B37FDCA
:102830001FC0C9019595879595958795959587951D
:1028400095958795DF91CF911F9108954BE160E5B4
:102850008A819B810E949615182F4AE1DECF4DE1B7
:1028600060E58A819B810E949615182F4CE1D5CF97
:10287000215F3F4FDECF8C0184E090E00E94292948
:10288000EC01F801668177810E944713CE010E9416
:102890008A1361E0CE010E94E6134C0162E0CE0192
:1028A0000E94E6135C0163E0CE010E94E6136C0116
:1028B0006BE0F801868197810E94A5297C016FEB6E
:1028C00076E00E946029B401C7010E94EA2966E00F
:1028D0000E94A5296BE0F801868197810E94A529B5
:1028E0007C0162EB76E00E946029B501C7010E947D
:1028F000EA2966E00E94A5296BE0F80186819781AC
:102900000E94A5297C0164EA76E00E946029B60154
:10291000C7010E94EA2966E00E94A52966E00E949C
:10292000A52960ED77E080E090E00E949821AECF8D
:102930000F931F93CF93DF93EC010E94E7248CE465
:1029400094E099838883DF91CF911F910F9108952F
:10295000CF93DF93EC017983688388E48093B80098
:1029600081E00E94981B9B838A83892B19F0DF9159
:10297000CF9108950990D881C02D2097C1F360E5CB
:1029800074E0CE010E94602966E0CE01DF91CF9114
:102990000C94A52984EA8093BC008091BC0087FD3B
:1029A0000AC089EE93E003C00197009769F0209177
:1029B000BC0027FFF9CF9091B900987F81E0983053
:1029C00009F0089580E0089581E008951F93CF9362
:1029D000DF9324EA2093BC002091BC0027FD0CC0AB
:1029E00029EE33E005C02150310921153105C1F12F
:1029F0004091BC0047FFF7CF2091B900287F2031DC
:102A000051F1FC0180819181009729F11091B90069
:102A10006BE00E94A529EC0164EF76E00E9460293A
:102A200063E0CE010E94A529612F0E94D72A6BE0A6
:102A30000E94A529EC0165E077E00E94602962E030
:102A4000CE010E94A52966E00E94A52980E0DF91C1
:102A5000CF911F91089580E0DF91CF911F9108954C
:102A600081E0DF91CF911F910895CF93DF93609321
:102A7000BB0024E82093BC002091BC0027FD0CC0C3
:102A800029EE33E005C0215031092115310591F0BF
:102A90004091BC0047FFF7CF9091B900987F81E04B
:102AA000983129F0983219F0903409F080E0DF91E4
:102AB000CF910895FC01808191810097B9F36BE07B
:102AC0000E94A529EC0163EE76E00E94602966E091
:102AD000CE010E94A52980E0DF91CF910895662361
:102AE000E9F084EC8093BC0040E59091BC0097FD38
:102AF0000AC089EE93E003C00197009769F0209126
:102B0000BC0027FFF9CF2091B900287F30E0842F47
:102B100090E02817390739F08FEF089584E8809303
:102B2000BC0048E5E2CF8091BB000895FF920F936F
:102B30001F93CF93DF93EC01162FF42E00E02FEFBD
:102B40003FEFA90160E070E08A819B810E94011C37
:102B500084EA8093BC008091BC0087FD0CC029EE04
:102B600033E005C0215031092115310531F0809144
:102B7000BC0087FFF7CF8091B900612FCE010E9482
:102B8000351581111AC088819981009721F064E67A
:102B900074E00E94602900E020E030E0A90160E0DC
:102BA00070E08A819B810E94E01A11E0812FDF9101
:102BB000CF911F910F91FF9008956F2DCE010E942C
:102BC0003515882301F384E98093BC0084EA80935F
:102BD000BC008091BC0087FD0CC029EE33E005C02D
:102BE000215031092115310531F08091BC0087FF5A
:102BF000F7CF8091B900612F6160CE010E94351539
:102C000081111AC088819981009721F06AE674E0E9
:102C10000E94602900E020E030E0A90160E070E05F
:102C20008A819B810E94E01A1FEF812FDF91CF9153
:102C30001F910F91FF90089584E88093BC008091CC
:102C4000BC0087FD0CC029EE33E005C021503109DE
:102C50002115310549F08091BC0087FFF7CF8091A5
:102C6000B900887F8835A9F01FEF84E98093BC0004
:102C700000E020E030E0A90160E070E08A819B8103
:102C80000E94E01A812FDF91CF911F910F91FF9049
:102C900008951091BB00E9CFCF92DF92EF92FF929F
:102CA0000F931F93CF93DF93EC01C62ED42E79019F
:102CB000102F00E02FEF3FEFA90160E070E08A8164
:102CC0009B810E94011C84EA8093BC008091BC001F
:102CD00087FD0AC0E9EEF3E003C03197309731F089
:102CE0009091BC0097FFF9CF8091B9006C2DCE0177
:102CF0000E94351581111EC088819981009721F0AD
:102D000060E774E00E94602900E020E030E0A90163
:102D100060E070E08A819B810E94E01ADD24D394F8
:102D20008D2DDF91CF911F910F91FF90EF90DF904C
:102D3000CF9008956D2DCE010E943515D82E882391
:102D4000D9F284E98093BC0084EA8093BC0080912E
:102D5000BC0087FD0CC049EE53E005C0415051094D
:102D60004115510531F09091BC0097FFF7CF80914C
:102D7000B9006C2D6160CE010E943515811113C020
:102D800088819981009721F066E774E00E946029AC
:102D900000E020E030E0A90160E070E08A819B81E2
:102DA0000E94E01ABDCF8FEF810F19F1F70124ECDB
:102DB0002093BC009091BC0097FD0CC049EE53E0FD
:102DC00005C0415051094115510549F09091BC0091
:102DD00097FFF7CF9091B900987F903591F19FEFD1
:102DE0009193815029F71250812F90E00196E80EBF
:102DF000F91E84E88093BC008091BC0087FD0AC066
:102E000089EE93E003C00197009749F02091BC0040
:102E100027FFF9CF8091B900887F8835A9F08FEF1F
:102E2000F701808384E98093BC0000E020E030E07B
:102E3000A90160E070E08A819B810E94E01AD12C98
:102E40006FCF9091BB00CCCF8091BB00E9CFEF92C8
:102E5000FF920F931F93CF93DF93EC01162FF42E65
:102E6000E22E00E02FEF3FEFA90160E070E08A81E1
:102E70009B810E94011C84EA8093BC008091BC006D
:102E800087FD0AC0E9EEF3E003C03197309731F0D7
:102E90008091BC0087FFF9CF8091B900612FCE01EE
:102EA0000E94351581111AC088819981009721F0FF
:102EB0006CE774E00E94602900E020E030E0A901A6
:102EC00060E070E08A819B810E94E01A81E0DF91DE
:102ED000CF911F910F91FF90EF9008956F2DCE012C
:102EE0000E943515882301F36E2DCE010E94351501
:102EF0008823D1F284E98093BC0000E020E030E038
:102F0000A90160E070E08A819B810E94E01A80E064
:102F1000DECFBF92CF92DF92EF92FF920F931F937B
:102F2000CF93DF937C01C62FD42FB22E132FD02E38
:102F300000E02FEF3FEFA90160E070E0DC011296A6
:102F40008D919C9113970E94011C84EA8093BC0090
:102F50008091BC0087FD0AC0E9EEF3E003C0319721
:102F6000309731F08091BC0087FFF9CF8091B90094
:102F70006C2FC7010E943515811123C0D7018D9197
:102F80009C91009721F062E874E00E94602900E0C3
:102F900020E030E0A90160E070E0D70112968D9149
:102FA0009C9113970E94E01ACC24C3948C2DDF913E
:102FB000CF911F910F91FF90EF90DF90CF90BF9036
:102FC00008956D2FC7010E943515C82E8823B1F2D0
:102FD000DD2079F1CB2DD12F10E003C01F5F1D152F
:102FE00041F16991C7010E9435158111F7CFF701B1
:102FF000C081D181209789F068E874E0CE010E94F9
:103000006029612FCE010E94D72ADC01ED91FC914D
:103010000280F381E02D6EE3099500E020E030E0CE
:10302000A90160E070E0F701828193810E94E01ABB
:10303000BDCF84E98093BC0000E020E030E0A9012E
:1030400060E070E0F701828193810E94E01AC12C58
:10305000ADCF8BB18695817008950F931F93CF9359
:10306000DF93EC01162F00E02FEF3FEFA90160E0A6
:1030700070E08A819B810E94011C84EA8093BC00DD
:103080008091BC0087FD0CC029EE33E005C02150C3
:1030900031092115310531F08091BC0087FFF7CF50
:1030A0008091B900612FCE010E943515182F84E957
:1030B0008093BC0000E020E030E0A90160E070E017
:1030C0008A819B810E94E01A812FDF91CF911F910D
:1030D0000F910895CF92DF92EF92FF920F931F937B
:1030E000CF93DF938C01EB016BE0CE010E94A52909
:1030F0007C016FEC76E00E94602963E0C7010E94CA
:10310000A52966E00E94A529E12CF12C6E2DCE01A7
:103110000E94D72ADC01ED91FC910280F381E02D21
:1031200060E30995CE2CC29480EFC822D12C08C050
:1031300060E4CE010995D394D394B0E1DB16E1F0BD
:10314000E881F9810280F381E02D60E2CE010995EA
:103150006D2D6C29C8010E942D18E881F98102802B
:10316000F381E02D8111E4CF6DE2CE010995D39476
:10317000D394B0E1DB12E4CF66E0CE010E94A52932
:103180008FEFE81AF80AA0E1EA16F10409F0BECFC1
:1031900062E0CE01DF91CF911F910F91FF90EF90F0
:1031A000DF90CF900C94A5290F931F93CF93DF93BB
:1031B000EC010E948B1F80910005811121C08AE0E3
:1031C00095E09093060580930505109208051092EE
:1031D000070587E397E19093040580930305109218
:1031E00002051092010590930D0580930C0581E076
:1031F00095E090930B0580930A0581E0809300058C
:10320000209709F460C0AE014C5F5F4F2396C63330
:10321000D74108F058C0E0910505F0910605A5E0FA
:10322000B5E006C080819181009739F0DF01FC0193
:103230002281338124173507A8F3C5E0E130FC076C
:1032400009F441C00D911C9111970C5F1F4F8081B3
:1032500091818D939C93C901841B950B89309105B5
:1032600000F1BF01640F751FDB0113969C938E93D1
:1032700012975383428312968D919C911397A5E0E8
:10328000B5E001C0DF01ED91FC91119722813381FE
:1032900028173907B8F3EB01F983E8836D937C9322
:1032A0009A018091000290910102821B930B9093EE
:1032B0000102809300020E94BE20C801DF91CF91DD
:1032C0001F910F91089500E010E00E94BE20C801F8
:1032D000DF91CF911F910F910895CF93DF930097C6
:1032E00021F1EC0124970E948B1F4A815B81A5E0AC
:1032F000B5E001C0DF01ED91FC911197228133818E
:1033000024173507B8F3F983E883CD93DC938091D4
:10331000000290910102840F951F90930102809307
:103320000002DF91CF910C94BE20DF91CF910895E0
:103330008091000290910102089508951F93CF9308
:10334000DF93EC01142F88A181110DC08881998130
:10335000892B09F44DC080E09E8D9F5F9E8FDF9189
:10336000CF911F910895482F50E011111CC08C81FE
:103370009D810E94D43428A18C819D81820F911D52
:103380009D838C832A813B818217930720F3888158
:1033900099819D838C8380E09E8D9F5F9E8FDF91BE
:1033A000CF911F9108958E819F810E94D43428A1CE
:1033B00030E03195219531098E819F81820F931FD5
:1033C0009F838E83688179818617970730F48A817D
:1033D0009B81820F931F9F838E83123009F0BBCF96
:1033E0008E8D882309F4B7CF8E8D81508E8FB3CF09
:1033F0008A819B810E94E9231B821A82ADCFFC0146
:10340000CB0140A1442399F050E026813781240F5D
:10341000351F37832683628173812617370720F093
:103420002081318137832683B9010C94D4340895E7
:103430000F931F93CF93DF93EC010FB6F8940F9285
:103440008AA11816ECF48B898823D1F08E010D5EC9
:103450001F4F09C08AA181508AA38AA1181684F43B
:103460008B89882369F0C8010E947522882391F313
:103470000E9469238AA181508AA38AA1181684F325
:103480008FEF8AA30F900FBE0FB6F8940F9289A109
:103490001816ECF488858823D1F08E01085F1F4F41
:1034A00009C089A1815089A389A1181684F488854F
:1034B000882369F0C8010E947522882391F30E9435
:1034C000692389A1815089A389A1181684F38FEFFC
:1034D00089A30F900FBEDF91CF911F910F91089597
:1034E000CF93DF93EC010FB6F8940F9228813981C6
:1034F0008F8D78A1879FC0011124A901480F591F02
:103500005B834A831E8E3D832C83871B9109820F28
:10351000931F9F838E838FEF89A38AA3611112C0AB
:103520008885811106C00F900FBE81E0DF91CF9199
:103530000895CE0108960E9475228130A1F70E945D
:10354000552EF1CFCE0108960E94E62CCE0143966F
:103550000E94E62C0F900FBE81E0DF91CF9108957D
:103560000F931F93CF93DF93182F062F882301F11A
:1035700083E290E00E94D418EC010097C9F0109FFC
:10358000C001112401960E94D41899838883892B45
:1035900061F01F8F08A361E0CE010E94701ACE0176
:1035A000DF91CF911F910F910895CE010E946D1967
:1035B000C0E0D0E0CE01DF91CF911F910F9108952F
:1035C0006F927F928F929F92AF92BF92CF92DF9233
:1035D000EF92FF920F93CF93DF93CDB7DEB729978A
:1035E0000FB6F894DEBF0FBECDBF5C014B012E833A
:1035F0003F834887598720E03C0188E0680E711CB2
:103600000FB6F8940F92F501968D878D981708F4F0
:1036100059C0023009F456C0CE80DF80E884F984B6
:10362000CD28CE28CF2809F46FC0222309F441C049
:103630000F900FBE0E948B1F0FB6F8940F92F501EA
:1036400081A18F3F09F43CC0F50182A18F3FB1F108
:103650000F900FBEBE016A5F7F4FCE0101960E94A0
:103660000823811155C00FB6F8940F92F501968D7D
:103670000F900FBEF501878D981314C04E815F81A6
:1036800068857985C3010E941A22C5010E94181A13
:103690000E94BE20882311F021E0B2CF0E94552E57
:1036A00021E0AECFC5010E94181A0E94BE2021E081
:1036B000A7CFCE0101960E94F722BACF12A2C8CF9F
:1036C00011A2C2CF402FB401C5010E949E19F5017D
:1036D0009389911124C0811128C00F900FBE81E001
:1036E00029960FB6F894DEBF0FBECDBFDF91CF9104
:1036F0000F91FF90EF90DF90CF90BF90AF909F9091
:103700008F907F906F9008950F900FBE80E0E8CF6C
:10371000C5010E94181A0E94BE2080E0E1CFC501B9
:1037200043960E9475228130C1F60E94552ED5CF56
:103730000F93CF93DF9383E290E00E94D418EC01C3
:10374000009701F11B821A82198218821D821C8245
:103750001F821E821E8E81E08F8F18A28FEF89A399
:103760008AA3CE0108960E94E62CCE0143960E94C1
:10377000E62C00E020E030E0A90160E070E0CE013E
:103780000E94E01ACE01DF91CF910F9108950F931F
:103790001F93CF93DF93EC018A019E8D8F8D981735
:1037A00040F0223031F080E0DF91CF911F910F91F6
:1037B0000895422FCE010E949E19882331F00115F1
:1037C000110519F081E0F80180838AA18F3F49F04B
:1037D0008AA18F5F8AA381E0DF91CF911F910F9122
:1037E00008958B898823B9F3CE0143960E947522F0
:1037F000882389F30115110571F381E0F8018083B5
:10380000D3CFAF92BF92CF92DF92EF92FF920F93FE
:10381000CF93DF93CDB7DEB729970FB6F894DEBF0D
:103820000FBECDBF7C016B012E833F834887598734
:1038300090E0570183E1A80EB11C0FB6F8940F92E7
:10384000F701868D811169C04E815F816885798518
:10385000452B462B472B09F47DC0992309F43EC024
:103860000F900FBE0E948B1F0FB6F8940F92F701B6
:1038700081A18F3F09F43EC0F70182A18F3F09F477
:103880003FC00F900FBEBE016A5F7F4FCE01019611
:103890000E940823811171C00FB6F8940F92F701AE
:1038A000868D0F900FBE81111EC0F701808191811E
:1038B000892B41F14E815F8168857985C5010E9420
:1038C0001A22C7010E94181A0E94BE20882311F0F4
:1038D00091E0B3CF0E94552E91E0AFCFCE0101967B
:1038E0000E94F722BDCFC7010E94181A0E94BE2075
:1038F00091E0A3CF11A2F70182A18F3F09F0C1CFC0
:1039000012A2BFCF0FB6F8940F92F7018281938174
:103910000E948E230F900FBECDCFA680B780B60138
:10392000C7010E94FF19F70101112EC0868D815039
:10393000868F80819181892BB9F1F7018085882359
:1039400041F1C70108960E947522813011F50E944D
:10395000552E1FC00F900FBE80E029960FB6F89429
:10396000DEBF0FBECDBFDF91CF910F91FF90EF90E3
:10397000DF90CF90BF90AF900895C7010E94181AB2
:103980000E94BE2080E0E9CFB782A68283898111A0
:1039900004C00F900FBE81E0E0CFC70143960E94A4
:1039A00075228823B1F3D3CF0E945024F70193836B
:1039B0008283C3CF0F931F93CF93DF9300D0CDB7F4
:1039C000DEB78C01FC01868D811108C080E00F906C
:1039D0000F90DF91CF911F910F910895C8014983F6
:1039E0005A830E94FF19F801868D8150868F81A12C
:1039F00049815A818F3F61F0F80181A18F5F81A3D6
:103A000081E00F900F90DF91CF911F910F9108955A
:103A100080858823A9F3C801089649835A830E94A8
:103A2000752249815A81882359F34115510541F383
:103A300081E0FA018083CBCF0F931F93CF93DF9365
:103A4000EC018E8D811106C080E0DF91CF911F9136
:103A50000F9108950E811F81CE010E94FF191F83CF
:103A60000E8381E0DF91CF911F910F9108950FB6E2
:103A7000F8940F92FC01868D0F900FBE08950FB63B
:103A8000F8940F92FC01268D0F900FBEFC01878DDC
:103A9000821B0895FC01868D0895CF93DF93EC017E
:103AA00088819981009711F00E946D19CE01DF91F4
:103AB000CF910C946D19FC01968D81E0911180E0FD
:103AC0000895FC01268D81E0978D291380E00895EB
:103AD0008091761C823018F00E94552EF9CFFFCFCE
:103AE000CF92DF92EF92FF926B017C01E091411C3B
:103AF000F091421C628373838483958380914A1C76
:103B000090914B1CA0914C1CB0914D1C6091411C9C
:103B10007091421CC816D906EA06FB0610F1809186
:103B20005E1C90915F1C6E5F7F4F0E941C2D8091E8
:103B3000020290910302A0910402B0910502C816FE
:103B4000D906EA06FB0640F4C0920202D0920302B4
:103B5000E0920402F0920502FF90EF90DF90CF9088
:103B6000089580915C1C90915D1C6E5F7F4FFF906B
:103B7000EF90DF90CF900C941C2D5F926F927F920C
:103B80008F929F92AF92BF92CF92DF92EF92FF926D
:103B90000F931F93CF93DF934C01162F572E5A018B
:103BA000390189E290E00E94D418EC01009709F4F1
:103BB000E9C0C114D10409F4DAC0DC8ECB8EC60191
:103BC000A50165EA70E00E94DD3421E0A21AB10887
:103BD000CB8CDC8CCA0CDB1CAE01435E5F4FE12F4B
:103BE000F52D2AE0CF013191DA013D93AD01DC01E1
:103BF0008C91882311F02150A9F71EA2102F0430B8
:103C000008F07DC01A8F1FA318A65E01B2E0AB0EAC
:103C1000B11CC5010E94F72CCE010E960E94F72C14
:103C2000DB87CA8784E090E0A0E0B0E0811B9109C7
:103C3000A109B1098E879F87A88BB98BDF8BCE8BAB
:103C4000A301B401C6010E94852D99838883E114E4
:103C5000F10419F0F701D183C0830FB6F8940F92E5
:103C600080914E1C8F5F80934E1C8091411C9091DF
:103C7000421C892B09F449C08091481C81110BC05A
:103C8000E091411CF091421C828D081720F0D093E6
:103C9000421CC093411C8091441C8F5F8093441C44
:103CA0008A8D9091491C981738F1FBE08F9FC001D5
:103CB0001124B5018A58934E0E94FB2C0F900FBE21
:103CC0008091481C882339F0E091411CF091421CFE
:103CD000828D8017B0F081E0DF91CF911F910F911D
:103CE000FF90EF90DF90CF90BF90AF909F908F901C
:103CF0007F906F905F9008958093491CD6CF13E01A
:103D000081CF0E94552E81E0E7CFD093421CC09313
:103D1000411C80914E1C813009F0BDCF86E79CE1AB
:103D20000E94E62C81E89CE10E94E62C8CE89CE154
:103D30000E94E62C87E99CE10E94E62C8BE69CE140
:103D40000E94E62C80E69CE10E94E62C81E59CE145
:103D50000E94E62C8BE69CE190935F1C80935E1C96
:103D600080E69CE190935D1C80935C1C94CFC50120
:103D70000E94D4189C8F8B8F009709F021CFCE0121
:103D80000E946D198FEFA8CF0FB6F8940F9200978D
:103D900029F00F900FBEFC01828D08958091411C87
:103DA0009091421C0F900FBEFC01828D0895EF92FE
:103DB000FF921F93CF93DF93EC01262F643008F01E
:103DC00023E00FB6F8940F92209709F44AC03FA160
:103DD0003217A9F18091411C9091421C3217B8F51D
:103DE000C817D90741F0E091411CF091421C11E045
:103DF000828D281708F410E08A8D381769F12FA3F7
:103E00004E855F856889798977FD0CC044E050E074
:103E100060E070E0421B5109610971094E875F87BC
:103E2000688B798B2BE0829FC00111248A58934EB6
:103E30002C853D8528173907C9F0113079F00F908E
:103E40000FBEDF91CF911F91FF90EF90089511E089
:103E5000C817D90781F6D0CF2A8FD1CF0E94552E0F
:103E6000EECFC091411CD091421CB1CF7E0182E0C7
:103E7000E80EF11CC7010E94592D8A8D9091491CB2
:103E8000981710F48093491C2BE0829FC0011124E5
:103E9000B7018A58934E0E94FB2CCFCFAF92BF92AE
:103EA000CF92DF92EF92FF920F93A12CB12CC12CF5
:103EB000D12C8FE4E82E8CE1F82E00E020E030E0F9
:103EC00044E650E06CE874E088E69DE10E94BD1D88
:103ED000813041F00F91FF90EF90DF90CF90BF9035
:103EE000AF900895F8948093481C10924A1C109249
:103EF0004B1C10924C1C10924D1C0F91FF90EF9098
:103F0000DF90CF90BF90AF900C94192EF894109240
:103F1000481C0C94542E8091431C8F5F8093431C4B
:103F200008950FB6F8940F9260914A1C70914B1C43
:103F300080914C1C90914D1C0F900FBE0895609184
:103F40004A1C70914B1C80914C1C90914D1C089503
:103F500080914E1C0895009711F04D960895809120
:103F6000411C9091421C4D96089580914F1C909158
:103F7000501C0895AF92BF92CF92DF92EF92FF92C2
:103F80000F931F93CF93DF938091431C8111CFC078
:103F900080914A1C90914B1CA0914C1CB0914D1CDF
:103FA0000196A11DB11D80934A1C90934B1CA093B8
:103FB0004C1CB0934D1CC0904A1CD0904B1CE09000
:103FC0004C1CF0904D1CC114D104E104F10439F5EE
:103FD00080915E1C90915F1C20915C1C30915D1C57
:103FE00030935F1C20935E1C90935D1C80935C1C3F
:103FF0008091451C8F5F8093451CE0915E1CF09181
:104000005F1C808181119AC08FEF9FEFDC0180934C
:10401000020290930302A0930402B09305028091E0
:10402000020290910302A0910402B0910502B12C0A
:10403000C816D906EA06FB0608F457C09BE0A92E6D
:10404000E0915E1CF0915F1C8081882309F442C0DE
:10405000E0915E1CF0915F1C0780F085E02DC0852B
:10406000D1854A815B816C817D81C416D506E606C7
:10407000F70608F47AC08E010E5F1F4FC8010E9438
:10408000592D888D998D892B21F0CE010E960E9495
:10409000592D8A8D9091491C981710F48093491CD2
:1040A000A89EC0011124B8018A58934E0E94FB2C8F
:1040B000E091411CF091421C9A8D828D981708F472
:1040C000BFCFBB24B394E0915E1CF0915F1C808154
:1040D0008111BECF4FEF5FEFBA01409302025093C0
:1040E00003026093040270930502E091411CF09179
:1040F000421CE28D8BE0E89FF0011124EA58F34E58
:104100008081823010F0BB24B3948091461C8823B8
:1041100011F0BB24B3948B2DDF91CF911F910F91A0
:10412000FF90EF90DF90CF90BF90AF900895809177
:10413000471C8F5F8093471CB12CE7CFE0915E1C3A
:10414000F0915F1C0780F085E02D0084F185E02D63
:1041500082819381A481B5818093020290930302AE
:10416000A0930402B09305025ACF409302025093E9
:1041700003026093040270930502B7CFEF92FF929F
:104180000F931F93CF93DF930FB6F8940F92809104
:10419000431C81508093431C8091431C811150C06B
:1041A00080914E1C882309F44BC02BE0F22EEE24A4
:1041B000E39427C0E091581CF091591CC085D1852B
:1041C000CE010E960E94592D8E010E5F1F4FC80121
:1041D0000E94592D8A8D9091491C981710F4809354
:1041E000491CF89EC0011124B8018A58934E0E94C0
:1041F000FB2CE091411CF091421C9A8D828D981706
:1042000048F58091511C8111D5CF8091471C88239E
:1042100099F08091471C882379F0C1E00E94BA1F71
:104220008111C093461C8091471C81508093471C8C
:104230008091471C8111F2CF8091461C813069F03A
:1042400080E00F900FBEDF91CF911F910F91FF90F3
:10425000EF900895E092461CD4CF0E94552E81E045
:10426000F0CFCF92DF92EF92FF920F931F93CF93F5
:10427000DF9300D000D0CDB7DEB72091431C2F5F75
:104280002093431CC0904A1CD0904B1CE0904C1CC7
:10429000F0904D1CFC010081118122813381400F7F
:1042A000511F621F731FC016D106E206F306E8F421
:1042B0004017510762077307E8F0FC014083518300
:1042C000628373830E94BE20811102C00E94552E1A
:1042D0000F900F900F900F90DF91CF911F910F9142
:1042E000FF90EF90DF90CF9008954017510762073D
:1042F000730728F0C416D506E606F706F0F6FC01AB
:1043000040835183628373838091411C9091421C4E
:10431000029649835A836B837C830E94592D49817D
:104320005A816B817C81CB01BA010E94701DCACF7A
:10433000CF92DF92EF92FF92611571058105910591
:1043400039F40E94552EFF90EF90DF90CF900895A2
:104350002091431C2F5F2093431CC0904A1CD09097
:104360004B1CE0904C1CF0904D1CC60ED71EE81E56
:10437000F91E8091411C9091421C02960E94592D79
:10438000C701B6010E94701D0E94BE208823C9F299
:10439000FF90EF90DF90CF9008958091431C8111A2
:1043A0003BC01092461CE091491C8BE0E89FF00155
:1043B0001124EA58F34E8081811110C09BE0809156
:1043C000491C81508093491CE091491C9E9FF0013B
:1043D0001124EA58F34E8081882389F3E091491C27
:1043E0008BE0E89FF0011124EA58F34EA181B281DD
:1043F00014960D90BC91A02DB283A183CF0103969A
:10440000A817B90769F018968D919C911997909308
:10441000421C8093411C089581E08093461C0895BE
:1044200014969C91149715968C9191838283A92F51
:10443000B82FE9CFCF92DF92EF92FF926A017B0112
:104440006091411C7091421C625F7F4F0E941C2D45
:104450008091411C9091421C02960E94592D6091BE
:104460004A1C70914B1C80914C1C90914D1C6C0D02
:104470007D1D8E1D9F1DFF90EF90DF90CF900C94BF
:10448000701DCF92DF92EF92FF920F931F936801FE
:104490007901E091411CF091421C70684687578772
:1044A000608B718B6091411C7091421C625F7F4FE9
:1044B0000E94FB2C8091411C9091421C02960E940C
:1044C000592D60914A1C70914B1C80914C1C90910D
:1044D0004D1C6C0D7D1D8E1D9F1D1F910F91FF901A
:1044E000EF90DF90CF900C94701D0F931F93CF939C
:1044F000DF93DC011796ED91FC911897C085D1856B
:104500008E01025F1F4FC8010E94592D8091431CEC
:10451000811124C08E010E5F1F4FC8010E94592DCA
:104520008A8D9091491C9817F8F0BBE08B9FC001D1
:104530001124B8018A58934E0E94FB2CE091411C33
:10454000F091421C9A8D828D891788F481E08093C6
:10455000461CDF91CF911F910F910895B80181E51D
:104560009CE10E94FB2CEACF8093491CDECF80E0C7
:10457000DF91CF911F910F9108950F931F93CF93C8
:10458000DF937068FC014083518362837383C0852D
:10459000D1850E94592D8E010E5F1F4FC8010E94C8
:1045A000592D8A8D9091491C981710F48093491CBD
:1045B000FBE08F9FC0011124B8018A58934E0E94DE
:1045C000FB2CE091411CF091421C9A8D828D891741
:1045D00040F481E08093461CDF91CF911F910F91B1
:1045E000089580E0DF91CF911F910F910895209160
:1045F000451CFC01208340914A1C50914B1C60914A
:104600004C1C70914D1C41835283638374830895C5
:104610008F929F92AF92BF92CF92DF92EF92FF92D2
:104620000F931F93FC01DB010FB6F8940F9240919A
:104630004A1C50914B1C60914C1C70914D1C8091F8
:10464000451C90810181128123813481981729F0C2
:10465000401751076207730770F5CD90DD90ED901C
:10466000FC9013974A015B01801A910AA20AB30ACF
:104670008C149D04AE04BF04F0F4C41AD50AE60AF3
:10468000F70AC00ED11EE21EF31ECD92DD92ED920E
:10469000FC9213978091451C808380914A1C9091D5
:1046A0004B1CA0914C1CB0914D1C81839283A38321
:1046B000B48380E001C081E00F900FBE1F910F9185
:1046C000FF90EF90DF90CF90BF90AF909F908F9032
:1046D000089581E08093461C0895009799F0DC01CD
:1046E0005B96ED91FC915C978081853A81F43196DF
:1046F00080E090E0DC010196A11DB11D2191253AD9
:10470000D1F308958091411C9091421CE8CF80E044
:1047100008958091411C9091421C08950F931F931E
:10472000CF93DF93EC01009781F18A8DE091411CDA
:10473000F091421C928D891740F54E855F856889FE
:10474000798977FD11C0E091411CF091421C928D56
:1047500044E050E060E070E0491B510961097109D3
:104760004E875F87688B798B2BE0829FC001112475
:104770008A58934E2C853D852817390759F0E091CA
:10478000411CF091421C828D8A8FDF91CF911F9145
:104790000F9108958E010E5F1F4FC8010E94592D81
:1047A000E091411CF091421C828D8A8F9091491CAE
:1047B000981710F48093491C2BE0829FC0011124AC
:1047C000B8018A58934EDF91CF911F910F910C94AD
:1047D000FB2C0F931F93CF93DF93EC01009749F0CD
:1047E00088A5815088A72A8D9FA1291711F08823B9
:1047F00031F080E0DF91CF911F910F9108958E01EC
:104800000E5F1F4FC8010E94592D8FA18A8F44E06F
:1048100050E060E070E0481B5109610971094E8762
:104820005F87688B798B9091491C981710F480935F
:10483000491C2BE0829FC0011124B8018A58934E75
:104840000E94FB2C81E0DF91CF911F910F91089581
:10485000CF92DF92EF92FF92E091411CF091421CC7
:104860006685778580899189E091411CF091421C91
:10487000A091411CB091421C5A962C9134E0C32E59
:10488000D12CE12CF12CC21AD108E108F108C6861E
:10489000D786E08AF18AFF90EF90DF90CF9008955D
:1048A0008091411C9091421C892B39F0E091411C70
:1048B000F091421C80A58F5F80A78091411C909150
:1048C000421C0895EF92FF920F931F93CF93DF93B3
:1048D00000D0CDB7DEB77C0185E994E0F701918384
:1048E000808361157105C1F0FB0101900020E9F79B
:1048F0003197E61BED3020F50E2F10E0C801019630
:1049000069837A830E943029F70195838483A80103
:1049100069817A810E94E4348091A21C9091A31C49
:10492000F70197838683F092A31CE092A21C0F905C
:104930000F90DF91CF911F910F91FF90EF9008950D
:10494000ECE0DACF0F931F93CF93DF93EC018091CC
:10495000A21C9091A31C6BE0892B49F1CE010E940F
:10496000A5298C0160E577E00E94602966E0C80116
:104970000E94A5296BE0CE010E94A5298C016DE261
:1049800077E00E94602966E0C8010E94A529809115
:10499000A21C9091A31CDC01ED91FC910190F0818F
:1049A000E02DBE01DF91CF911F910F910994CE01AF
:1049B0000E94A529EC016FE077E00E94602966E083
:1049C000CE01DF91CF911F910F910C94A5294F92A9
:1049D0005F926F927F928F929F92AF92BF92CF928F
:1049E000DF92EF92FF920F931F93CF93DF93EC012F
:1049F0003B0149012801FC018BE994E081939193EB
:104A0000A12CB12CC12CD12C7F01042F9E01A4011B
:104A100084EF92E30E94BD1D5F824E829986888654
:104A20002091A41C3091A51C3D832C83D093A51C00
:104A3000C093A41C1C861D868090B21C9090B31C51
:104A40009FEF891A990A9092B31C8092B21C9B86A0
:104A50008A861E861F86188A198A4114510409F411
:104A60004CC06BE0813041F1C2010E94A529EC01EC
:104A700063E777E00E946029B301CE010E946029BC
:104A8000E881F9810280F381E02D62E2CE0109958F
:104A900066E0CE01DF91CF911F910F91FF90EF90D3
:104AA000DF90CF90BF90AF909F908F907F906F904E
:104AB0005F904F900C94A529C2010E94A529EC019A
:104AC00069E877E00E946029B301CE010E94602965
:104AD0006BE0CE010E94A529EC0160E977E00E941D
:104AE000602963E0CE010E94A529B4010E94552AE5
:104AF00062E00E94A52966E0CDCFDF91CF911F91A2
:104B00000F91FF90EF90DF90CF90BF90AF909F906C
:104B10008F907F906F905F904F900895EC01E881A7
:104B2000F9810190F081E02D09951B821A826FEFC7
:104B30007FEFCB010E949821FACFFC016487658743
:104B40000895FC01C681D781209739F0CE010E94DB
:104B5000602966E0CE010E94A5292BE088E190E063
:104B60000FB6F894A895809360000FBE2093600064
:104B7000FFCF0E94911F0E94463420E030E04AE7B8
:104B800054E40E94DE330895CF92DF92EF92FF92B9
:104B90000F931F93CF93DF93EC017B018A819B815D
:104BA0000E94AB1F6C016BE0C7010E94A5298C011C
:104BB00067EA77E00E946029B601C8010E94602977
:104BC00066E0C8010E94A5298A859B8528853985CC
:104BD000A701BC01821B930B0E94A9280C80DD81D8
:104BE000C02D2097D9F6DF91CF911F910F91FF90A3
:104BF000EF90DF90CF9008950F931F93CF93DF93A3
:104C0000EC018091A41C9091A51C009719F0BE01A5
:104C10000E94C4256BE0CE010E94A5298C016EEA9A
:104C200077E00E94602966E0C8010E94A529809172
:104C3000B21C9091B31CBC016F5F7F4FAE018356D5
:104C40009109DF91CF911F910F910C94A9288F9218
:104C50009F92AF92BF92CF92DF92EF92FF920F930B
:104C60001F93CF93DF93EC018B018A819B810E947C
:104C7000AB1FBC01C8010E946029D801ED91FC91D5
:104C80000280F381E02D69E0C80109958A819B814A
:104C90000E94AB1FFC0101900020E9F73197E81B4F
:104CA000F90B389748F4D801ED91FC910280F3811B
:104CB000E02D69E0C8010995CE84DF84E888F98891
:104CC000A884B9848A819B810E946D23982E8C844C
:104CD0008A819B810E94C41E682FC8010E94D72A26
:104CE0006BE00E94A529EC0162E278E00E94602955
:104CF000682DCE010E94D72A6BE00E94A529EC0105
:104D000064E278E00E946029692DCE010E94D72AD2
:104D10006BE00E94A529EC0166E278E00E94602920
:104D2000B501CE010E94552A6BE00E94A529EC0135
:104D300068E278E00E9460296BE0CE010E94A5291C
:104D4000EC016AE278E00E946029B701A601CE0179
:104D5000DF91CF911F910F91FF90EF90DF90CF9057
:104D6000BF90AF909F908F900C948F2A0F931F93BA
:104D7000CF93DF93EC018B01E881F9810280F3810D
:104D8000E02DB801CE01099566E0C8010E94A52971
:104D90000C80DD81C02D209779F7DF91CF911F9195
:104DA0000F910895CF93DF93EC01CB01DB01ED91DF
:104DB000FC910280F381E02DBE010995CE01DF91C7
:104DC000CF9108950F931F93CF93DF93EC016BE086
:104DD0000E94A5298C0160E178E00E9460296BE0C7
:104DE000C8010E94A5298C016BE178E00E9460292E
:104DF00066E0C8010E94A5296BE0CE010E94A529AA
:104E00008C016DEE77E00E9460296BE0C8010E9482
:104E1000A5298C016EEF77E00E9460296BE0C80144
:104E20000E94A5298C016AE078E00E94602966E072
:104E3000C8010E94A5296BE0CE010E94A5298C0122
:104E40006AEC77E00E9460296BE0C8010E94A52906
:104E50008C016BED77E00E9460296BE0C8010E9435
:104E6000A5298C0167EE77E00E94602966E0C80101
:104E70000E94A5298091A41C9091A51C009719F06F
:104E8000BE010E94B6260E94B51F0E946D23182FF6
:104E90006BE0CE010E94A529EC0169EB77E00E944E
:104EA0006029612FCE010E94D72A6BE00E94A529BC
:104EB000EC0164EC77E00E94602964E670E0CE01CA
:104EC0000E94552A6BE00E94A529EC0166EC77E070
:104ED0000E94602966E0CE01DF91CF911F910F9172
:104EE0000C94A529CF92DF92EF92FF920F931F931C
:104EF000CF93DF937C018B01DC011A966D917C913D
:104F00001B97C8010E946029F701A285B385FD01A6
:104F100001900020E9F73197DE2EDA1AFFE0FD1547
:104F200080F0C0E0D0E0D801ED91FC910280F381E7
:104F3000E02D60E2C801099521968C2F8D0D8031FE
:104F400090F36FE974E0C8010E946029D70156967A
:104F5000CD90DC9057971E968D919C911F970E9443
:104F60003F1D682FC8010E94D72AEC01E881F98112
:104F70000280F381E02D6FE20995B601CE010E9417
:104F8000552ADC01ED91FC910280F381E02D69E06E
:104F9000099566E0C8010E94A529F70184859585D9
:104FA000009781F0DC01ED91FC910190F081E02D02
:104FB000B801DF91CF911F910F91FF90EF90DF909B
:104FC000CF900994DF91CF911F910F91FF90EF90B7
:104FD000DF90CF9008956F927F928F929F92AF92C1
:104FE000BF92CF92DF92EF92FF920F931F93CF93D6
:104FF000DF93EC01762E672E4A0159016701780193
:105000000E945529B401CE0106960E9462248AEAC4
:1050100094E0998388832CEB34E03F832E83BD8A10
:10502000AC8A40E061E0872D0E94B01A9F878E878E
:10503000C88AD98AEA8AFB8A7E8A6F8ADF91CF91F1
:105040001F910F91FF90EF90DF90CF90BF90AF90A6
:105050009F908F907F906F90089506970C94722781
:10506000CF92DF92EF92FF920F931F93CF93DF9334
:10507000CDB7DEB72F970FB6F894DEBF0FBECDBF0A
:105080008C017B01DB016D917D918D919C9128EECE
:1050900033E040E050E00E949733BA01A901C80113
:1050A0000E948F2AD801ED91FC910280F381E02DBE
:1050B0006EE2C8010995C7010E940D2F6E01B9E08B
:1050C000CB0ED11C7E01EFE0EE0EF11C2AE030E0A9
:1050D00040E050E00E94B933E62F29833A834B83A6
:1050E0005C8369817A818B819C81E05DD701EE933D
:1050F0007D01AC15BD0551F71F86BD01C8010E9499
:105100006029C8012F960FB6F894DEBF0FBECDBF41
:10511000DF91CF911F910F91FF90EF90DF90CF9093
:105120000895CF93DF93EC010FB6F8940F9280911E
:105130002401909125019D838C830E94911F688397
:1051400079838A839B830F900FBECE01DF91CF912D
:1051500008958F929F92AF92BF92CF92DF92EF927B
:10516000FF920F931F93CF93DF936C014B01EA01E2
:1051700063E0CA010E94A529C814D90408F059C0E7
:10518000560184E1A80EB11C7501B601CE010E9442
:10519000552A6BE00E94A5296CE278E00E94602904
:1051A0008601F80161918F01CE010E94D72AE88122
:1051B000F9810280F381E02D60E2CE0109950E15A0
:1051C0001F0579F7E881F9810280F381E02D60E223
:1051D000CE0109950FC080EE860FE881F98102802B
:1051E000F381E02D8F3508F06EE2CE010995CE14E3
:1051F000DF0481F0F60161916F01653A61F7E881A2
:10520000F9810280F381E02D60E2CE010995CE1490
:10521000DF0481F7650166E0CE010E94A529F4E173
:10522000EF0EF11CA814B90420F4C50144965C01EA
:10523000ACCF62E0CE01DF91CF911F910F91FF9033
:10524000EF90DF90CF90BF90AF909F908F900C9495
:10525000A5290C94D418009711F00C946D19089599
:105260000C94D418009711F00C946D190895FC015A
:1052700081E090E02081222311F080E090E0089509
:1052800021E0FC01208308950895089581E00895A8
:1052900080E0089580E008950895DC01ED91FC918F
:1052A0000280F381E02D6CE00994FC0182EC94E033
:1052B000918380838AE0828383E0858314820895CA
:1052C0000F931F93CF93DF93EC01FB018C8181112E
:1052D00017C06081662379F08F010F5F1F4FE8814F
:1052E000F9810280F381E02DCE010995F8016191E9
:1052F0008F016111F4CFDF91CF911F910F9108952C
:105300001C828B010F5F1F4F64916623A1F3A8815C
:10531000B9811296ED91FC911397CE010995F80190
:1053200064910F5F1F4F6111F2CFE5CF883008F015
:1053300087E08093070289E008959EEF980F9F30E1
:1053400010F4809306028AE00895CF93DF93EC0176
:10535000462F50E04C30510538F4FA01EA59FF4F1E
:105360000C94D83382E08A83CE01DF91CF910895E7
:1053700081E08C83F9CF88E08A83F6CF8AE08A8344
:10538000F3CF80E18A83F0CFE881F9810280F38155
:10539000E02D6DE00995E881F9810280F381E02D2F
:1053A0006AE0CE010995E0CFE881F9810284F385B6
:1053B000E02D0995D9CFE881F9810084F185E02DB0
:1053C0000995D2CF809107028D83CECF80910602BE
:1053D0008A83CACF0F931F93CF93DF93CDB7DEB7E6
:1053E00061970FB6F894DEBF0FBECDBF8C01CB0125
:1053F000F80122812A3079F0C8010E94552AC8019B
:1054000061960FB6F894DEBF0FBECDBFDF91CF918E
:105410001F910F9108954AE050E0BE016F5F7F4FEA
:105420000E94F334BE016F5F7F4FC8010E94602964
:10543000E6CF0F931F93CF93DF9300D000D01F923E
:10544000CDB7DEB78C01862FD80113969C911397A8
:10545000911112C0F80192819A30B1F0C8010E94F6
:10546000D72AC8010F900F900F900F900F90DF91E7
:10547000CF911F910F910895ED91FC910280F381DE
:10548000E02DC8010995EDCF4AE050E0BE016F5F05
:105490007F4F992787FD90950E94F334BE016F5F7F
:1054A0007F4FC8010E946029DCCFFF920F931F93AA
:1054B000CF93DF93CDB7DEB761970FB6F894DEBF19
:1054C0000FBECDBF8C01F62E972FF80142814031DF
:1054D00091F0483081F0423071F050E0BE016F5FD2
:1054E0007F4F8F2D0E943935BE016F5F7F4FC801FE
:1054F0000E94602907C0692FC8010E94D72A6F2D1A
:105500000E94D72AC80161960FB6F894DEBF0FBE7D
:10551000CDBFDF91CF911F910F91FF900895DF9242
:10552000EF92FF920F931F93CF93DF93CDB7DEB728
:10553000A1970FB6F894DEBF0FBECDBF8C01D42E5D
:10554000E52EF62E972FF80122812031A1F0283088
:1055500091F0223081F030E0AE014F5F5F4F6D2D52
:105560007E2D8F2D0E941435BE016F5F7F4FC801C5
:105570000E9460290DC0692FC8010E94D72A6F2D93
:105580000E94D72A6E2D0E94D72A6D2D0E94D72AFD
:10559000C801A1960FB6F894DEBF0FBECDBFDF9154
:1055A000CF911F910F91FF90EF90DF900895CF92D0
:1055B000DF92EF92FF920F931F93CF93DF93CDB7BC
:1055C000DEB729970FB6F894DEBF0FBECDBF8C01B2
:1055D000D62EDC0113968C91139781115DC0F801D2
:1055E00042814230D9F14031F1F050E0BE016F5FAD
:1055F0007F4F8D2D90E00E943935BE016F5F7F4F48
:10560000C8010E946029C80129960FB6F894DEBF30
:105610000FBECDBFDF91CF911F910F91FF90EF9003
:10562000DF90CF90089562956F700190F081E02D2A
:105630000280F381E02D6A30B8F5605DC8010995FC
:105640006D2D6F70D801ED91FC910280F381E02DFA
:105650006A3060F1695CC8010995D5CF88E0E82E11
:10566000F12C90E8C92E0AC061E3C8010995C694DF
:10567000B1E0EB1AF108E114F10429F28C2D8D212F
:10568000D801ED91FC910280F381E02D8111ECCFE6
:1056900060E3C8010995EBCFED91FC910280F381A5
:1056A000E02DC8010995AFCF695CC8CF605DD3CF4D
:1056B000DC011896ED91FC91199780811C969C91C4
:1056C0001C97892359F421E23EE405C02150310999
:1056D0002115310571F080818923C1F380811E96E7
:1056E0009C911E97892B80831696ED91FC911797BC
:1056F00060830895FC01878581111DC02091AE1C37
:105700003091AF1C8091AC1C9091AD1C28173907CB
:1057100089F0E091B01CF091B11CE20FF31F808181
:105720002F5F3F4F2032310518F11092AF1C1092BD
:10573000AE1C0895FFCF2091A81C3091A91C809128
:10574000A61C9091A71C2817390789F0E091AA1C84
:10575000F091AB1CE20FF31F80812F5F3F4F20328F
:10576000310558F01092A91C1092A81C0895FFCF83
:105770003093AF1C2093AE1C08953093A91C209346
:10578000A81C0895DC01ED91FC910280F381E02DCD
:105790006CE00994FC018785882369F081E04091E1
:1057A000A81C5091A91C2091A61C3091A71C42173F
:1057B000530769F0089581E04091AE1C5091AF1CF1
:1057C0002091AC1C3091AD1C4217530799F780E033
:1057D0000895EF92FF921F93CF93DF9300D0CDB740
:1057E000DEB77C01142F69837A830E945529412FEB
:1057F00069817A81C70106960E944B2F82ED94E061
:10580000F7019183808317871123E9F08091C90004
:1058100080688093C90080E290E00E9430299093D4
:10582000AB1C8093AA1C1092A91C1092A81C109269
:10583000A71C1092A61C0F900F90DF91CF911F9183
:10584000FF90EF9008958091C10080688093C1001F
:1058500080E290E00E9430299093B11C8093B01CAC
:105860001092AF1C1092AE1C1092AD1C1092AC1C8A
:105870000F900F90DF91CF911F91FF90EF900895BF
:105880001F920F920FB60F9211240BB60F922F9307
:105890003F938F939F93EF93FF932091C600E091E6
:1058A000B01CF091B11C8091AC1C9091AD1CE80F24
:1058B000F91F20838091AC1C9091AD1C0196803221
:1058C0009105C0F49093AD1C8093AC1C2091AE1C4C
:1058D0003091AF1C28173907D1F0FF91EF919F91BC
:1058E0008F913F912F910F900BBE0F900FBE0F9095
:1058F0001F9018951092AD1C1092AC1C80E090E0A7
:105900002091AE1C3091AF1C2817390731F7019652
:105910009093AF1C8093AE1C8097F8F21092AF1C4E
:105920001092AE1CDACF1F920F920FB60F92112475
:105930000BB60F922F933F938F939F93EF93FF9309
:105940002091CE00E091AA1CF091AB1C8091A61C86
:105950009091A71CE80FF91F20838091A61C9091BD
:10596000A71C019680329105C0F49093A71C8093E8
:10597000A61C2091A81C3091A91C28173907D1F02A
:10598000FF91EF919F918F913F912F910F900BBEBF
:105990000F900FBE0F901F9018951092A71C109299
:1059A000A61C80E090E02091A81C3091A91C28172B
:1059B000390731F701969093A91C8093A81C809712
:1059C000F8F21092A91C1092A81CDACFFC010396E1
:1059D000928381834FEF5FEFBA01438354836583E2
:1059E0007683908787839287818710820895FC0150
:1059F000138612860895CF93DF939C01FB01DC018F
:105A00001196CD91DC911297D583C4838E819F81AD
:105A1000978386838E819F81DC0115967C936E939C
:105A200014977F836E8333872287F90180818F5F8C
:105A30008083DF91CF9108950F931F93CF93DF93CE
:105A4000EB01088119812A813B810F3F4FEF140739
:105A50002407340731F1DC01139601C0DF011496ED
:105A6000ED91FC91159740815181628173810417FA
:105A700015072607370790F7FD83EC83D783C68386
:105A8000BF83AE831596DC93CE9314979B878A874A
:105A9000FC0120812F5F2083DF91CF911F910F9117
:105AA0000895FC01A185B2851496ED91FC9115979E
:105AB000E3CFCF93DF93FC01A285B38524813581A9
:105AC00086819781E9019F838E8386819781EC018E
:105AD0003D832C8311962D913C9112972E173F07F1
