:100000000C94BA080C94D9080C94D9080C94D9080B
:100010000C94D9080C94091D0C94C61D0C94C81D91
:100020000C943D1E0C94D9080C94D9080C94D90852
:100030000C94D9080C94D9080C94D9080C94D908BC
:100040000C94D9080C94D9080C94D9080C94D908AC
:100050000C94D9080C94D9080C94D9080C94D9089C
:100060000C94D9080C94AE3B0C94D9080C94D90884
:100070000C94D9080C94D9080C94D9080C94D9087C
:100080000C94D9080C94D9080C94D9080C94D9086C
:100090000C94013C0C94D9080C94D9080C94D90800
:1000A0000C94D9080C94D9080C94D9080C94D9084C
:1000B0000C94D9080C94D9080C94D9080C94783E67
:1000C0000C94D9080C94D9080C94D908480E7B0ECE
:1000D000EB0D9B0D600D3A0D1B0DA60E2039293935
:1000E0002C392F392239223932394239493950399C
:1000F000543926395F5F5F5F5F5F5F5F204D453436
:100100003035204C61622033204D6F64696669652B
:10011000642050726F6772616D205F5F5F5F5F5F29
:100120005F5F004A756E2020382032303136005330
:10013000797374656D2074696D653A20002C2048D0
:100140006561703A20002C204F435235413A20001F
:1001500020202020723A2020202020205265747513
:10016000726E20746F204D61696E204D656E750052
:10017000202043746C2D433A202020205265736563
:100180007420415652206D6963726F636F6E747292
:100190006F6C6C65720020202020733A2020202094
:1001A0002020456E74657220736574706F696E747B
:1001B000732078787878787820666F72204D6F7425
:1001C0006F722031207468656E204D6F746F7220DD
:1001D00032002D2D2D2D2D2D2D2D2D2D2D2D2D2D77
:1001E0002D204155544F4E4F4D4F5553204D454EA8
:1001F00055202D2D2D2D2D2D2D2D2D2D2D2D2D2D14
:100200002D0020202020723A20202020202052651E
:100210007475726E20746F204D61696E204D656E2D
:100220007500202043746C2D433A20202020526515
:1002300073657420415652206D6963726F636F6EEF
:1002400074726F6C6C65720020202020703A202040
:10025000202020204578656375746520686967688B
:100260007761792070617373696E670020202020A8
:10027000633A202020202020546F67676C6520633C
:1002800061722061766F6964616E63650020202071
:10029000206C3A202020202020546F67676C652056
:1002A0006C616E65206B656570696E67002D2D2D24
:1002B0002D2D2D2D2D2D2D2D2D2D2D2D2D2D204860
:1002C000494748574159205441534B204D454E55BD
:1002D000202D2D2D2D2D2D2D2D2D2D2D2D2D2D2D5B
:1002E0002D2D0020202020723A2020202020205276
:1002F000657475726E20746F204D61696E204D6556
:100300006E7500202043746C2D433A20202020522B
:100310006573657420415652206D6963726F636F17
:100320006E74726F6C6C65720020202020633A201E
:10033000202020202043697263756C6172207061F7
:10034000746800202020206C3A2020202020204C9F
:10035000696E6561722068656164696E67206164B9
:10036000686572616E6365002D2D2D2D2D2D2D2D4F
:100370002D2D2D2D2D2D2D2D2D20434C4153532032
:100380005441534B204D454E55202D2D2D2D2D2DB7
:100390002D2D2D2D2D2D0020202020723A202020C3
:1003A00020202052657475726E20746F204D616933
:1003B0006E204D656E7500202043746C2D433A20ED
:1003C000202020526573657420415652206D696368
:1003D000726F636F6E74726F6C6C65720020202098
:1003E00020733A202020202020506F736974696F99
:1003F0006E20736574706F696E7400202020207009
:100400003A202020202020536572766F20706F7371
:100410006974696F6E20776974682050574D205B4E
:1004200034303030205B4C5D2C2033303030205B5A
:10043000435D2C2032303030205B525D5D002D2D2D
:100440002D2D2D2D2D2D2D2D2D2D2D2D2D2D2D20E9
:10045000534552564F204D454E55202D2D2D2D2DB7
:100460002D2D2D2D2D2D2D2D2D2D2D2D0020202010
:1004700020723A20202020202052657475726E2050
:10048000746F204D61696E204D656E7500202043AC
:10049000746C2D433A2020202052657365742041EE
:1004A0005652206D6963726F636F6E74726F6C6CFD
:1004B00065720020202020733A2020202020205622
:1004C000656C6F6369747920736574706F696E749D
:1004D000205B2D34302C2034305D0020202020661D
:1004E0003A20202020202046756C6C204272616BDF
:1004F000650020202020703A2020202020204D6FF1
:10050000746F7220504F574552207769746820509D
:10051000574D205B2D313630302C20313630305D58
:10052000002D2D2D2D2D2D2D2D2D2D2D2D2D2D2D28
:100530002D2D204D4F544F52204D454E55202D2DE1
:100540002D2D2D2D2D2D2D2D2D2D2D2D2D2D2D0008
:1005500020202020723A202020202020526574750F
:10056000726E20746F204D61696E204D656E75004E
:10057000202043746C2D433A20202020526573655F
:100580007420415652206D6963726F636F6E74728E
:100590006F6C6C65720020202020643A202020209F
:1005A0002020537461636B2064756D7020666F72D8
:1005B000207461736B730020202020733A20202068
:1005C00020202056657273696F6E2F5365747570A5
:1005D00020696E666F726D6174696F6E00202020F5
:1005E00020743A20202020202053686F77207468E0
:1005F000652063757272656E742074696D65002D77
:100600002D2D2D2D2D2D2D2D2D2D2D2D2D2D2D2D1A
:100610002048454C50204D454E55202D2D2D2D2D3B
:100620002D2D2D2D2D2D2D2D2D2D2D2D002020204E
:1006300020723A20202020202052657475726E208E
:10064000746F204D61696E204D656E7500202043EA
:10065000746C2D433A20202020526573657420412C
:100660005652206D6963726F636F6E74726F6C6C3B
:1006700065720020202020623A2020202020204582
:100680006D657267656E637920627265616B2100CA
:1006900020202020643A202020202020526F7461E6
:1006A0007465207374656572696E6720746F207459
:1006B0006865207269676874202B31303000202013
:1006C0002020613A202020202020526F7461746520
:1006D000207374656572696E6720746F2074686535
:1006E000206C656674202D3130300020202020736E
:1006F0003A20202020202044656372656D656E7469
:10070000206D6F746F722076656C6F6369747920E9
:100710002D3130300020202020773A20202020204A
:1007200020496E6372656D656E74206D6F746F72B3
:100730002076656C6F63697479202B313030002D21
:100740002D2D2D2D2D2D2D2D2D2D2D2D2D4341528A
:10075000204452495645204D454E55202D2D2D2DD6
:100760002D2D2D2D2D2D2D2D2D2D2D2D2D00202000
:100770002020723A20202020202052657475726E4D
:1007800020746F204D61696E204D656E75002020CC
:1007900043746C2D433A20202020526573657420E9
:1007A000415652206D6963726F636F6E74726F6C25
:1007B0006C657200202020203F3A2020202020203D
:1007C00048656C70204D656E750020202020683AC9
:1007D00020202020202048696768776179206D619A
:1007E000696E74656E616E63650020202020633A37
:1007F000202020202020436C617373207265717566
:1008000069726564207461736B730020202020641A
:100810003A20202020202044726976652074686583
:1008200020636172210020202020733A20202020A4
:100830002020536572766F206D616E75616C206D3E
:10084000616E6970756C6174696F6E002020202084
:100850006D3A2020202020204D6F746F72206D6132
:100860006E75616C206D616E6970756C6174696F15
:100870006E002D2D2D2D2D2D2D2D2D2D2D2D2D2D94
:100880002D2D2D204D41494E204D454E55202D2DCD
:100890002D2D2D2D2D2D2D2D2D2D2D2D2D2D2D00B5
:1008A000496C6C6567616C207374617465212052BA
:1008B0006573657474696E6720415652002220008A
:1008C0003C2D2D20556E6B6E6F776E20636F6D6DB6
:1008D000616E642E205479706520636F6D6D616E5A
:1008E000642066726F6D206D656E752E00526573A3
:1008F000657474696E672041565200437572726563
:100900006E7420536572766F20506F736974696FCF
:100910006E3A200043757272656E74204D6F746F6D
:10092000722056656C6F6369746965733A20004381
:10093000757272656E7420536572766F20506F7396
:100940006974696F6E3A200043757272656E742027
:100950004D6F746F722056656C6F6369746965734F
:100960003A200043757272656E7420536572766F1B
:1009700020506F736974696F6E3A2000437572720C
:10098000656E74204D6F746F722056656C6F63696D
:10099000746965733A200043757272656E742053F2
:1009A0006572766F20506F736974696F6E3A2000BC
:1009B00043757272656E74204D6F746F7220566548
:1009C0006C6F6369746965733A20002220003C2DC6
:1009D0002D20556E6B6E6F776E20636F6D6D616E3F
:1009E000642E205479706520636F6D6D616E642094
:1009F00066726F6D206D656E752E0052657365743D
:100A000074696E6720415652002220003C2D2D2033
:100A1000556E6B6E6F776E20636F6D6D616E642EB9
:100A2000205479706520636F6D6D616E642066720D
:100A30006F6D206D656E752E0052657365747469F7
:100A40006E672041565200456E7465722072616473
:100A5000697573206F662063697263756C617220BB
:100A600070617468205B302C3235355D00456E74E2
:100A700065722076656C6F63697479206F66206C8F
:100A8000696E6561722070617468205B302C31364C
:100A900030305D002220003C2D2D20556E6B6E6F96
:100AA000776E20636F6D6D616E642E205479706572
:100AB00020636F6D6D616E642066726F6D206D6571
:100AC0006E752E00526573657474696E67204156A9
:100AD0005200456E74657220706F736974696F6E31
:100AE00020736574706F696E7420666F7220536531
:100AF00072766F00456E74657220706F73697469E9
:100B00006F6E20666F7220536572766F0022200030
:100B10003C2D2D20556E6B6E6F776E20636F6D6D63
:100B2000616E642E205479706520636F6D6D616E07
:100B3000642066726F6D206D656E752E0052657350
:100B4000657474696E6720415652004D6F746F7200
:100B500020002048414C5445442100456E74657284
:100B6000206E756D62657220666F72204D6F746FB6
:100B7000722000456E746572206E756D626572201C
:100B8000666F72204D6F746F7220002220003C2D22
:100B90002D20556E6B6E6F776E20636F6D6D616E7D
:100BA000642E205479706520636F6D6D616E6420D2
:100BB00066726F6D206D656E752E00506C65617389
:100BC0006520747970652061206E756D6265722094
:100BD0006265747765656E203020746F2031363021
:100BE000302C207468656E20454E54455200506C80
:100BF0006561736520747970652061206E756D6222
:100C00006572206265747765656E203020746F2090
:100C1000313630302C207468656E20454E54455274
:100C200000506C6561736520656E7465722061208B
:100C300063697263756C6172207061746820766597
:100C40006C6F63697479205B302C313630305D0015
:100C5000506C6561736520747970652061206E75D4
:100C60006D626572206265747765656E2032313021
:100C70003020746F20333930302C207468656E203A
:100C8000454E54455200506C65617365207479700F
:100C9000652061206E756D6265722062657477658E
:100CA000656E203020746F20313630302C2074680F
:100CB000656E20454E54455200506C656173652049
:100CC000747970652061206E756D62657220626551
:100CD000747765656E202D3136303020746F203189
:100CE0003630302C207468656E20454E54455200D5
:100CF000506C6561736520747970652061203120C6
:100D00006F72203220666F72206D6F746F72207365
:100D1000656C6563742C207468656E20454E54457F
:100D200052004E756D62657220456E746572656421
:100D30003A20004E756D62657220456E746572656D
:100D4000643A202D002220003C2D2D20556E6B6E24
:100D50006F776E20636F6D6D616E642E20547970B5
:100D60006520636F6D6D616E642066726F6D206DBE
:100D7000656E752E00526573657474696E672041E7
:100D80005652002220003C2D2D20556E6B6E6F7741
:100D90006E20636F6D6D616E642E205479706520D6
:100DA000636F6D6D616E642066726F6D206D656E30
:100DB000752E00526573657474696E6720415652D2
:100DC00000456E746572206E756D6265722C2031FF
:100DD000206F7220322C20666F72206D6F746F72DC
:100DE0002073656C656374696F6E3A200041757499
:100DF0006F6E6F6D6F7573204D6F64653A2048415B
:100E00004C544544004175746F6E6F6D6F7573205F
:100E10004D6F64653A204143544956450053746F01
:100E2000707065642120004F7574707574202020E7
:100E3000202020202020203A200046656564626141
:100E4000636B20202020202020203A20007365742E
:100E5000706F696E745F322020202020203A2000BD
:100E6000205B7469636B735D0073685F6D6F746F93
:100E7000725F325F73706565643A20004F757470FD
:100E80007574202020202020202020203A20004699
:100E90006565646261636B20202020202020203A59
:100EA0002000736574706F696E745F31202020209C
:100EB00020203A2000205B7469636B735D007368C7
:100EC0005F6D6F746F725F315F73706565643A2038
:100ED000005049442032206572726F7200504944BC
:100EE0002031206572726F72005374656572696E8D
:100EF00067207472696D3A20004572726F722069C2
:100F00006E2067657445756C6572416E6700494D6A
:100F10005520756E6974732073657400494D5520B2
:100F2000706F776572206D6F64652073657400491A
:100F30004D55206F7065726174696F6E206D6F64BE
:100F4000652073657400494D55206F626A6563744E
:100F500020696E7469616C20636F6D6D756E696375
:100F60006174696F6E2073756365737300494D55C5
:100F7000206F626A65637420696E7469616C2063B6
:100F80006F6D6D756E69636174696F6E20657272E5
:100F90006F72004144435352413A200041444D5541
:100FA000583A200041444330203D20004144433121
:100FB000203D200041444332203D20004144433342
:100FC000203D200041444334203D2000414443352E
:100FD000203D200041444336203D2000414443371A
:100FE000203D20002D2D2D2D2D2D2D2D204D453436
:100FF0003035204C61622035205374617274696E03
:10100000672050726F6772616D202D2D2D2D2D2D53
:101010002D2D002020202030203220342036203872
:10102000204120432045004932432073656E6420EF
:1010300074696D656F7574004932432072652D7354
:10104000746172743A20307800206E6F74203078AA
:101050003130004E6F207368617265642064617482
:1010600061206974656D7320746F207072696E748D
:10107000002D2D2D2D20202020202020202020205C
:10108000202D2D2D2D202020202D2D2D2D2D2D2DD1
:101090002D2D2D0053686172652F51756575652082
:1010A000202020205479706520202020467265651C
:1010B0002F546F74616C004552524F522063726519
:1010C0006174696E67207461736B202200546173D0
:1010D0006B2022002220637265617465642C20738A
:1010E0007461636B206174203078005461736B3AD3
:1010F00020005461736B3A2049444C450049444CEC
:1011000045090930092D09002F0009092D002D2D51
:101110002D2D09092D2D2D2D092D2D2D2D2D0009BC
:101120002D2D2D2D2D2D2D2D2D2D00092D2D2D2D40
:10113000004E616D6509095072692E09537461741E
:10114000650009467265652F546F74616C00095221
:10115000756E73005461736B090920200920000922
:10116000537461636B00090009002F000900090036
:101170002020000011241FBECFEFD1E2DEBFCDBF83
:1011800015E0A0E0B2E0E6E2FDE800E00BBF02C03F
:1011900007900D92AC3BB107D9F71DE1ACEBB5E080
:1011A00001C01D92AC3AB107E1F70E94F7410C94DF
:1011B00091460C9400000F931F93CF93DF93EC01A3
:1011C0000E94553480E392E099838883DF91CF9128
:1011D0001F910F9108950F931F93CF93DF93EC010D
:1011E00066E08E819F810E9413396BE08E819F8122
:1011F0000E9413398C0162E778E00E94CE3866E0E5
:10120000C8010E9413396BE08E819F810E941339BF
:101210008C016CE478E00E94CE3866E0C8010E9440
:1012200013396BE08E819F810E9413398C0166E235
:1012300078E00E94CE3866E0C8010E9413396BE066
:101240008E819F810E9413398C016BE078E00E94AF
:10125000CE3866E0C8010E9413396BE08E819F8111
:101260000E9413398C016AEE77E00E94CE3866E066
:10127000C8010E9413396BE08E819F810E9413394F
:101280008C016AEC77E00E94CE3866E0C8010E94CB
:1012900013396BE08E819F810E9413398C0164EBBE
:1012A00077E00E94CE3866E0C8010E9413396BE0F7
:1012B0008E819F810E9413398C016EE877E00E9435
:1012C000CE3866E0C8010E9413396BE08E819F81A1
:1012D0000E9413398C016EE677E00E94CE3866E0FA
:1012E000C8010E94133966E08E819F81DF91CF9102
:1012F0001F910F910C9413390F931F93CF93DF938A
:10130000EC0166E08E819F810E9413396BE08E8133
:101310009F810E9413398C016FE377E00E94CE38E1
:1013200066E0C8010E9413396BE08E819F810E94A4
:1013300013398C0165E177E00E94CE3866E0C80180
:101340000E9413396BE08E819F810E9413398C01BA
:101350006BEE76E00E94CE3866E0C8010E94133939
:101360006BE08E819F810E9413398C016EEB76E0D9
:101370000E94CE3866E0C8010E9413396BE08E816E
:101380009F810E9413398C0160E976E00E94CE387B
:1013900066E0C8010E9413396BE08E819F810E9434
:1013A00013398C0163E776E00E94CE3866E0C8010D
:1013B0000E9413396BE08E819F810E9413398C014A
:1013C0006DE476E00E94CE3866E0C8010E941339D1
:1013D0006BE08E819F810E9413398C016DE276E073
:1013E0000E94CE3866E0C8010E94133966E08E8103
:1013F0009F81DF91CF911F910F910C9413390F931F
:101400001F93CF93DF93EC0166E08E819F810E9452
:1014100013396BE08E819F810E9413398C016FEF2D
:1014200075E00E94CE3866E0C8010E9413396BE077
:101430008E819F810E9413398C016DED75E00E94B1
:10144000CE3866E0C8010E9413396BE08E819F811F
:101450000E9413398C0167EB75E00E94CE3866E07C
:10146000C8010E9413396BE08E819F810E9413395D
:101470008C0166E975E00E94CE3866E0C8010E94E2
:1014800013396BE08E819F810E9413398C0160E7D4
:1014900075E00E94CE3866E0C8010E9413396BE007
:1014A0008E819F810E9413398C0160E575E00E9456
:1014B000CE3866E0C8010E94133966E08E819F81B4
:1014C000DF91CF911F910F910C9413390F931F93BC
:1014D000CF93DF93EC0166E08E819F810E941339E8
:1014E0006BE08E819F810E9413398C0161E275E06F
:1014F0000E94CE3866E0C8010E9413396BE08E81ED
:101500009F810E9413398C0162EF74E00E94CE38F3
:1015100066E0C8010E9413396BE08E819F810E94B2
:1015200013398C016BED74E00E94CE3866E0C8017F
:101530000E9413396BE08E819F810E9413398C01C8
:1015400063EB74E00E94CE3866E0C8010E94133954
:101550006BE08E819F810E9413398C016DE874E0ED
:101560000E94CE3866E0C8010E9413396BE08E817C
:101570009F810E9413398C016DE674E00E94CE3881
:1015800066E0C8010E94133966E08E819F81DF9179
:10159000CF911F910F910C9413390F931F93CF93F9
:1015A000DF93EC0166E08E819F810E9413396BE02E
:1015B0008E819F810E9413398C016EE374E00E943A
:1015C000CE3866E0C8010E9413396BE08E819F819E
:1015D0000E9413398C016BEF73E00E94CE3866E0F5
:1015E000C8010E9413396BE08E819F810E941339DC
:1015F0008C016DED73E00E94CE3866E0C8010E9458
:1016000013396BE08E819F810E9413398C0167EB47
:1016100073E00E94CE3866E0C8010E9413396BE087
:101620008E819F810E9413398C0167E973E00E94CB
:10163000CE3866E0C8010E94133966E08E819F8132
:10164000DF91CF911F910F910C9413390F931F933A
:10165000CF93DF93EC0166E08E819F810E94133966
:101660006BE08E819F810E9413398C0168E673E0E4
:101670000E94CE3866E0C8010E9413396BE08E816B
:101680009F810E9413398C0163E473E00E94CE387D
:1016900066E0C8010E9413396BE08E819F810E9431
:1016A00013398C0169E273E00E94CE3866E0C8010C
:1016B0000E9413396BE08E819F810E9413398C0147
:1016C00063E073E00E94CE3866E0C8010E941339DF
:1016D0006BE08E819F810E9413398C0163EE72E072
:1016E0000E94CE3866E0C8010E94133966E08E8100
:1016F0009F81DF91CF911F910F910C9413390F931C
:101700001F93CF93DF93EC0166E08E819F810E944F
:1017100013396BE08E819F810E9413398C016DEA31
:1017200072E00E94CE3866E0C8010E9413396BE077
:101730008E819F810E9413398C016DE872E00E94B6
:10174000CE3866E0C8010E9413396BE08E819F811C
:101750000E9413398C016CE672E00E94CE3866E07C
:10176000C8010E9413396BE08E819F810E9413395A
:101770008C0168E472E00E94CE3866E0C8010E94E5
:1017800013396BE08E819F810E9413398C0162E2D4
:1017900072E00E94CE3866E0C8010E9413396BE007
:1017A0008E819F810E9413398C0162E072E00E9459
:1017B000CE3866E0C8010E94133966E08E819F81B1
:1017C000DF91CF911F910F910C9413390F931F93B9
:1017D000CF93DF93EC0166E08E819F810E941339E5
:1017E0006BE08E819F810E9413398C0162ED71E064
:1017F0000E94CE3866E0C8010E9413396BE08E81EA
:101800009F810E9413398C0166E971E00E94CE38F5
:1018100066E0C8010E9413396BE08E819F810E94AF
:1018200013398C0160E771E00E94CE3866E0C80190
:101830000E9413396BE08E819F810E9413398C01C5
:1018400060E571E00E94CE3866E0C8010E9413395D
:1018500066E08E819F81DF91CF911F910F910C9453
:1018600013398F929F92AF92BF92CF92DF92EF92F5
:10187000FF920F931F93CF93DF9300D000D000D03F
:10188000CDB7DEB78C0119821A821B821C821E82A0
:101890001D82C0902801D09029010E9406295C0178
:1018A000CE0101960E94FF374C0166E0F801868167
:1018B00097810E9413396BE00E9413397C0164EF19
:1018C00070E00E94CE386BE0C7010E9413397C01A2
:1018D00063E271E00E94CE3866E0C7010E941339CE
:1018E0006BE00E9413397C016FE271E00E94CE38F8
:1018F000B401C7010E949E376BE00E9413397C013E
:101900006DE371E00E94CE38B501C7010E94C33972
:101910007C0165E172E00E94CE3848E357E160E067
:1019200070E0C7010E94FD396BE00E9413397C0111
:1019300066E471E00E94CE38B601C7010E94C33947
:1019400066E00E94133966E00E941339F80186812F
:1019500097810E94503666E0F801868197810E9447
:101960001339F801868197810E94103426960FB6AC
:10197000F894DEBF0FBECDBFDF91CF911F910F91C5
:10198000FF90EF90DF90CF90BF90AF909F908F909F
:101990000895CF93DF93CDB7DEB727970FB6F894AE
:1019A000DEBF0FBECDBF8C0119821A821B821C8242
:1019B0001E821D820FB6F8940F92E091F405F0910B
:1019C000F50510860F900FBE0E94EB08712C612C5C
:1019D000912CE12CF12C8824839472E0572EE3E0C3
:1019E0004E2EFAE02F2E312CD8011C968C9190E0CF
:1019F00088309105D8F06BE0F801868197810E94CC
:101A000013398C0160EA78E00E94CE3866E0C801A4
:101A10000E9413392BE088E190E00FB6F894A89566
:101A2000809360000FBE20936000FFCFFC01EA5955
:101A3000FF4F0C940A45F80186819781DC01ED91F6
:101A4000FC910480F581E02D09958111CFC1F80149
:101A500086859785A089B1890196A11DB11D8687CC
:101A60009787A08BB18B62E370E080E090E00E94EA
:101A70000631BACFF80186819781DC01ED91FC91A6
:101A80000480F581E02D0995882309F3F80186810A
:101A90009781DC01ED91FC910680F781E02D09959D
:101AA000282F833609F40AC20CF4EBC18C3609F4F2
:101AB0001DC2823709F0B4C1C8010E94EB08ABC156
:101AC000F80186819781DC01ED91FC910480F5811C
:101AD000E02D0995882309F4BACFF8018681978112
:101AE000DC01ED91FC910680F781E02D0995282F0E
:101AF000803709F458C20CF439C28237E9F28337CF
:101B000009F00AC26BE0D80116968D919C91179747
:101B10000E9413396C0162ED7AE0C6010E94CE3852
:101B200066E0C6010E94133962E0C8010E940B35CD
:101B300023E0922E8CCFD80116968D919C91179709
:101B4000DC01ED91FC910480F581E02D099588235D
:101B500009F47DCFF80186819781DC01ED91FC913C
:101B60000680F781E02D0995282F863609F48BC66B
:101B70000CF03EC6833009F469C6823609F03EC6D1
:101B80000FB6F8940F92E091F405F091F505B0844A
:101B90000F900FBE6BE0D80116968D919C91179710
:101BA0000E9413396C016BE57BE00E94CE386B2DEF
:101BB000C6010E9487396C0161E272E00E94CE3852
:101BC00066E0C6010E94133962E0C8010E940B352D
:101BD00032E0932E3CCFF80186819781DC01ED91B4
:101BE000FC910480F581E02D0995882309F485C3D3
:101BF000F80186819781DC01ED91FC910680F781E7
:101C0000E02D0995282F80ED820F8A3008F452C309
:101C10002D3209F419C32F3709F4E4C22A3009F42C
:101C20000BC32D3009F0E0C266E06110F0C1F8018D
:101C3000868197810E9413396BE00E9413396C01F1
:101C400062E27DE0C6010E94CE38B701C6010E9463
:101C5000583966E00E9413399110AFC1C70101974E
:101C6000029708F487C56BE0D80116968D919C9178
:101C700017970E9413397C0160EF7CE0C7010E9436
:101C8000CE3866E0C7010E941339E12CF12CDFCE7B
:101C9000F80186819781DC01ED91FC910480F5814A
:101CA000E02D0995882309F4D2CEF8018681978129
:101CB000DC01ED91FC910680F781E02D0995282F3C
:101CC000843611F40C947E1514F00C946A158F333D
:101CD00011F40C9461150CF4D4C6813609F487C64E
:101CE000833609F05CC6C8010E94260B65E0C80176
:101CF0000E940B35ACCEF80186819781DC01ED9115
:101D0000FC910480F581E02D0995882309F49FCE8C
:101D1000F80186819781DC01ED91FC910680F781C5
:101D2000E02D0995282F823709F4C6CE0CF022C683
:101D3000833009F404C6843609F030C5D8011696FC
:101D40008D919C9117970E946A3581CEF80186810A
:101D50009781DC01ED91FC910480F581E02D0995DE
:101D6000882309F474CEF80186819781DC01ED9116
:101D7000FC910680F781E02D0995282F843609F41F
:101D800077C40CF4EDC3833709F486C3873709F4AD
:101D90000EC3823709F490CED8011696CD90DC9010
:101DA0001797D601ED91FC910280F381E02D62E25C
:101DB000C6012F830995D601ED91FC910280F38134
:101DC000E02D2F81622FC60109956BE0C6010E94AC
:101DD00013396C016DEB78E00E94CE386BE0C601E0
:101DE0000E9413396C0160EC78E043C0F8018681F1
:101DF0009781DC01ED91FC910680F781E02D09953A
:101E0000282F8C3641F00CF0A2C2833009F497C41D
:101E1000833609F0A2C260E0C8010E940B3517CEDC
:101E2000D8011696CD90DC901797D601ED91FC91D4
:101E30000280F381E02D62E2C6012F830995D6016D
:101E4000ED91FC910280F381E02D2F81622FC6017C
:101E500009956BE0C6010E9413396C0169E07AE0D4
:101E60000E94CE386BE0C6010E9413396C016CE011
:101E70007AE0C6010E94CE3866E0C6010E9413399E
:101E8000E6CD833069F66BE0F801868197810E9488
:101E900013398C0169E37AE00E94CE3866E0C8010C
:101EA0000E9413392BE088E190E00FB6F894A895D2
:101EB000809360000FBE20936000FFCF6BE0D801DD
:101EC00016968D919C9117970E9413396C0167E4C7
:101ED0007AE00E94CE3866E0C6010E94133962E0C3
:101EE000C8010E940B3584E0982EB1CD6BE0F8015B
:101EF000868197810E9413396C016DE67AE00E9419
:101F0000CE3866E0C6010E94133962E0C8010E9423
:101F10000B3595E0992E9BCDD8011696CD90DC908F
:101F20001797D601ED91FC910280F381E02D62E2DA
:101F3000C6012F830995D601ED91FC910280F381B2
:101F4000E02D2F81622FC60109956BE0C6010E942A
:101F500013396C0164E97AE00E94CE386BE0C60167
:101F60000E9413396C0167E97AE083CF8330A1F6D0
:101F70006BE0F801868197810E9413398C0164EC33
:101F80007AE00E94CE3866E0C8010E9413392BE047
:101F900088E190E00FB6F894A895809360000FBE9A
:101FA00020936000FFCF6BE0F801868197810E944B
:101FB00013396C0164EF7AE0B0CDB1E09B1609F4FF
:101FC000CEC0B2E09B1609F4AEC0B3E09B1609F494
:101FD00056C0F4E09F1649F1F5E09F1238CD21E498
:101FE000E21626E0F20608F07EC00FB6F8940F92D3
:101FF000E091C005F091C105E0860F900FBE65E04D
:10200000C8010E940B35912CE12CF12C20CDD80178
:1020100016968D919C9117970E9413396BE00E9440
:1020200013396C0163E37DE00DCE21E4E21626E076
:10203000F20608F064C00FB6F8940F92E091C20562
:10204000F091C305E0860F900FBE6BE0D8011696A5
:102050008D919C9117970E9413397C0161E27CE07D
:102060000E94CE3866E0C7010E94133962E0C801C1
:102070000E940B3545E0942EE12CF12CE8CCC701F1
:10208000805D9740813D974008F043C00FB6F894BB
:102090000F92E091C605F091C705F186E0860F909A
:1020A0000FBE0FB6F8940F92E091C405F091C505EC
:1020B00080860F900FBE0FB6F8940F920F900FBE50
:1020C00061E0D80116968D919C9117970E94453A30
:1020D000C8010E94EB0860E0C8010E940B35912CFA
:1020E000E12CF12CB4CC6BE0D80116968D919C912B
:1020F00017970E9413397C016BEB7BE0BFCD6BE03F
:10210000F801868197810E9413397C016EEE7BE095
:10211000B5CD6BE0F801868197810E9413397C016F
:1021200060E57CE0ABCDE1E4EE16E6E0FE0608F00B
:102130004DC00FB6F8940F92E091EE05F091EF05C7
:10214000F186E0860F900FBE0FB6F8940F92E091E3
:10215000EC05F091ED0580860F900FBEB9CFE1E45C
:10216000EE16E6E0FE0630F5662019F0F194E194F3
:10217000F1080FB6F8940F92E091F205F091F30593
:10218000F186E0860F900FBE0FB6F8940F92E091A3
:10219000F005F091F10580860F900FBEC8010E94F6
:1021A000EB0860E0C8010E940B35612C912CE12CFA
:1021B000F12C4DCC6BE0D80116968D919C91179720
:1021C0000E9413397C0169EB7CE058CD6BE0D801AB
:1021D00016968D919C9117970E9413397C0166E8A1
:1021E0007CE04CCD71103EC0F801E680F780D7014D
:1021F000ED91FC910280F381E02D62E2C7012F8313
:102200000995D701ED91FC910280F381E02D2F819A
:10221000622FC70109956BE0C7010E9413397C0149
:102220006BE87BE00E94CE386BE0C7010E94133957
:102230007C016EE87BE022CD67E172E0F8018681E7
:1022400097810E94CE3803CCF80186819781DC010A
:10225000ED91FC910280F381E02D6DE209956624F9
:102260006394F5CBF80186819781DC01ED91FC91B7
:102270000280F381E02D6FE70995F801868197814F
:10228000DC01ED91FC910280F381E02D60E2099583
:10229000F80186819781DC01ED91FC910280F38148
:1022A000E02D6FE70995C701B1010E94B5447B019C
:1022B0007A94CDCBF80186819781DC01ED91FC9178
:1022C0000280F381E02D622F2F830995C701880FCB
:1022D000991FEE0CFF1CEE0CFF1CEE0CFF1C8E0D6C
:1022E0009F1D2F81E22EFF24E7FCF094B0E3EB1A50
:1022F000F108E80EF91E7394AACB8091F60590912F
:10230000F705DC01ED91FC910480F581E02D099544
:10231000882309F49CCBD8011696ED91FC91179770
:102320000190F081E02DC280D3808091F6059091DC
:10233000F705DC01ED91FC910680F781E02D099510
:10234000682FF80186819781F601099580CB803747
:1023500009F461CD823709F4AFCBD8011696CD9040
:10236000DC901797D601ED91FC910280F381E02D6E
:1023700062E2C6012F830995D601ED91FC9102809E
:10238000F381E02D2F81622FC60109956BE0C60114
:102390000E9413396C016BEC79E00E94CE386BE03F
:1023A000C6010E9413396C016EEC79E062CDE091B8
:1023B000F205F091F3050FB6F8940F920F900FBE4F
:1023C000808591858C599F4F0FB6F8940F92918715
:1023D00080870F900FBE0FB6F8940F920F900FBE2C
:1023E000803496404CF00FB6F8940F9280E496E05B
:1023F000918780870F900FBE0FB6F8940F92A0912F
:10240000F005B091F10518965C920F900FBE0FB6D3
:10241000F8940F92C084D1840F900FBE6BE0D80166
:1024200016968D919C9117970E9413395C0160EB71
:1024300079E00E94CE38B601C5010E94583966E0A5
:102440000E9413390FB6F8940F92E091C605F091EF
:10245000C705C084D1840F900FBE6BE0F801868160
:1024600097810E9413395C0167E979E00E94CE38B8
:10247000B601C5010E94C33966E00E94133966E0C7
:10248000D80116968D919C9117970E94133967E099
:10249000C8010E940B35DBCAE091F205F091F3050B
:1024A0000FB6F8940F920F900FBE808591858456D9
:1024B00091090FB6F8940F92918780870F900FBE05
:1024C0000FB6F8940F920F900FBE813C994F4CF4C9
:1024D0000FB6F8940F9280EC99EF918780870F9058
:1024E0000FBE0FB6F8940F92A091F005B091F105D0
:1024F00018965C920F900FBE0FB6F8940F92C0849E
:10250000D1840F900FBE6BE0D80116968D919C91EF
:1025100017970E9413395C016CE779E00E94CE386E
:10252000B601C5010E94583966E00E9413390FB602
:10253000F8940F92E091C605F091C705C084D1844C
:102540000F900FBE6BE0F801868197810E941339CE
:102550005C0163E679E00E94CE38B601C5018ACFFE
:10256000833009F46AC0813609F016CCE091C605C3
:10257000F091C7050FB6F8940F920F900FBE8085AB
:1025800091858C599F4F0FB6F8940F929187808751
:102590000F900FBE0FB6F8940F920F900FBE803AB7
:1025A0009F4048F00FB6F8940F9280EA9FE0918721
:1025B00080870F900FBE0FB6F8940F92E091C4057C
:1025C000F091C50580860F900FBE0FB6F8940F925C
:1025D000E091F205F091F305C084D1840F900FBE15
:1025E0006BE0D80116968D919C9117970E94133934
:1025F0005C0168E479E00E94CE38B601C5010E9412
:10260000583966E00E9413390FB6F8940F92E091A2
:10261000C605F091C705C084D1840F900FBE6BE052
:10262000F801868197810E9413395C016FE279E09D
:102630000E94CE38B601C5011DCF6BE0F80186813E
:1026400097810E9413398C016DEE78E00E94CE389C
:1026500066E0C8010E9413392BE088E190E00FB6D4
:10266000F894A895809360000FBE20936000FFCF80
:10267000E091C605F091C7050FB6F8940F920F9040
:102680000FBE80859185845691090FB6F8940F92FC
:10269000918780870F900FBE0FB6F8940F920F901E
:1026A0000FBE813D974048F40FB6F8940F9280ED2D
:1026B00097E0918780870F900FBE0FB6F8940F9226
:1026C000E091C405F091C50580860F900FBE0FB64E
:1026D000F8940F92E091F205F091F305A084B18493
:1026E0000F900FBE6BE0D80116968D919C911797B5
:1026F0000E9413396C0164E179E00E94CE38B50183
:10270000C6010E94583966E00E9413390FB6F8944A
:102710000F92E091C605F091C705A084B1840F9097
:102720000FBE6BE0F801868197810E9413396C011E
:102730006BEF78E00E94CE38B501C6019BCE6BE00E
:10274000F801868197810E9413398C016BEF79E043
:102750000E94CE3866E0C8010E9413392BE088E160
:1027600090E00FB6F894A895809360000FBE209378
:102770006000FFCF0FB6F8940F92E091F405F0914E
:10278000F505E0860F900FBEC8010E94660A63E05F
:10279000C8010E940B35E12CF12C59C9D8011696BD
:1027A000CD90DC901797D601ED91FC910280F381DA
:1027B000E02D62E2C6012F830995D601ED91FC91CF
:1027C0000280F381E02D2F81622FC60109956BE015
:1027D000C6010E9413396C0165E47DE00E94CE3889
:1027E0006BE0C6010E9413396C0168E47DE041CBC7
:1027F000803709F47AC0823709F45EC9F801C680CF
:10280000D780D601ED91FC910280F381E02D62E248
:10281000C6012F830995D601ED91FC910280F381C9
:10282000E02D2F81622FC60109956BE0C6010E9441
:1028300013396C016DE07BE00E94CE386BE0C6017D
:102840000E9413396C0160E17BE013CB6BE0D8018F
:1028500016968D919C9117970E9413398C016DE308
:102860007BE00E94CE3866E0C8010E9413392BE05D
:1028700088E190E00FB6F894A895809360000FBEB1
:1028800020936000FFCF0FB6F8940F92E091EA0515
:10289000F091EB0580860F900FBE0FB6F8940F9263
:1028A000E091F405F091F505B0840F900FBE6BE058
:1028B000F801868197810E9413396C016BE47BE0FB
:1028C0000E94CE386B2DC6010E9487396BE00E94B2
:1028D00013396C0162E57BE0C6010E94CE3866E0E8
:1028E000C6010E9413390C945C0D0FB6F8940F9238
:1028F000E091F405F091F505B0840F900FBE6BE008
:10290000F801868197810E9413396C0163E77BE0AF
:102910000E94CE386B2DC6010E9487396C0169E197
:1029200072E00E94CE3866E0C6010E94133962E070
:10293000C8010E940B35992493940C94270D6BE0E9
:10294000F801868197810E9413398C0165E77DE04B
:102950000E94CE3866E0C8010E9413392BE088E15E
:1029600090E00FB6F894A895809360000FBE209376
:102970006000FFCF833709F461C0843709F00ECFC0
:10298000CE0101960E94FF37BC01F8018681978134
:102990000E949E3766E00E9413390C94270DF801BF
:1029A000C680D780D601ED91FC910280F381E02DA5
:1029B00062E2C6012F830995D601ED91FC91028058
:1029C000F381E02D2F81622FC60109956BE0C601CE
:1029D0000E9413396C0163E87DE00E94CE386BE001
:1029E000C6010E9413396C0166E87DE042CAE0919D
:1029F000CA05F091CB050FB6F8940F9280850F9021
:102A00000FBE882301F10FB6F8940F920F900FBEFE
:102A1000813011F00C94270D0FB6F8940F921086A8
:102A20000F900FBE6BE0D80116968D919C91179771
:102A30000E9413396C016DEE7DE04ECFC8010E94FB
:102A4000310C0C94270D0FB6F8940F9280860F90DE
:102A50000FBE6BE0F801868197810E9413396C01EB
:102A600065E07EE00E94CE3866E0C6010E94133920
:102A7000C8010E94E60B64E0C8010E940B350C946B
:102A8000270D833009F08BCF6BE0D80116968D911E
:102A90009C9117970E9413398C0163EB7DE00E9493
:102AA000CE3866E0C8010E9413392BE088E190E03F
:102AB0000FB6F894A895809360000FBE2093600035
:102AC000FFCFC8010E94FF0961E0C8010E940B35D9
:102AD0000C94270D8D3609F43AC06CF1823711F44D
:102AE0000C945C0D833709F05ACFC8010E94CD0ABF
:102AF00064E0C8010E940B350C94270DC8010E94A8
:102B00007C090FB6F8940F92E091F005F091F10571
:102B100040860F900FBE0FB6F8940F92E091C40557
:102B2000F091C50550860F900FBE67E0C8010E9466
:102B30000B350C94270D883609F031CFC8010E945F
:102B40007F0B66E0C8010E940B350C94270D6BE0EB
:102B5000F801868197810E9413397C0161EC7DE048
:102B60000E94CE3866E0C7010E9413390FB6F89470
:102B70000F92E091F405F091F50510860F900FBECD
:102B800062E0C8010E940B35912CE12CF12C0C94D1
:102B9000270D7C0183E090E00E949738EC01F7015B
:102BA0006681778141E00E94D81B83E090E00E941B
:102BB00097388C01F7016681778142E00E94D81B2B
:102BC000E091F005F091F1050FB6F8940F921086A0
:102BD0000F900FBE80E093E0B92E28C00FB6F89496
:102BE0000F920F900FBE823009F47CC00FB6F8949C
:102BF0000F920F900FBE833009F49EC00FB6F89469
:102C00000F920F900FBEE091EA05F091EB058085E1
:102C1000813009F430C065E070E080E090E00E940F
:102C20000631E091F005F091F10580850FB6F8943A
:102C30000F920F900FBE813009F0D0CF0FB6F894ED
:102C40000F92A091F405B091F50518968C910F9014
:102C50000FBE813009F478C00FB6F8940F920F9030
:102C60000FBE823009F483C00FB6F8940F9210861D
:102C70000F900FBEC3CFCE010E94491CC8010E9415
:102C8000491C0FB6F8940F92E091F005F091F10510
:102C9000B0860F900FBE0FB6F8940F92E091EC053E
:102CA000F091ED0510860F900FBE0FB6F8940F92BD
:102CB000E091EA05F091EB0510860F900FBE6BE0F6
:102CC000F701868197810E9413396C016DE17EE0E6
:102CD0000E94CE3866E0C6010E94133966E00E9469
:102CE000133999CF0FB6F8940F920F900FBEE09161
:102CF000F205F091F30560857185CE010E941A1CE2
:102D00000FB6F8940F920F900FBEE091F205F0917C
:102D1000F30560857185719561957109C8010E94FF
:102D20001A1C0FB6F8940F92E091F005F091F1059E
:102D300010860F900FBE62CF60E070E0CE010E945F
:102D40001A1C60E070E0EACF0FB6F8940F920F9073
:102D50000FBEE091F205F091F30560857185CE011B
:102D60000E941A1CE091F005F091F1057DCF0FB69D
:102D7000F8940F920F900FBEE091F205F091F305D9
:102D800060857185C8010E941A1CE091F005F091E0
:102D9000F1056ACF0F931F93CF93DF93EC010E944D
:102DA000553488E392E099838883DF91CF911F9116
:102DB0000F910895CF93DF93CDB7DEB728970FB665
:102DC000F894DEBF0FBECDBF6C010E94FF2E698359
:102DD0007A838B839C8382E090E00E9497384C0139
:102DE000F6016681778147E00E94591C82E090E0FD
:102DF0000E9497385C01F6016681778143E00E946A
:102E0000591C612C712C40E050E0E091E805F091F4
:102E1000E9050FB6F8940F928085918598878F8386
:102E20000F900FBEEF80F884E091E605F091E70582
:102E30000FB6F8940F92808591859E838D830F90B5
:102E40000FBE0D811E81B701C4010E94031DE091D8
:102E5000DC05F091DD050FB6F8940F92608771875D
:102E6000828793870F900FBEA301B801C5010E940E
:102E7000031DE091DA05F091DB050FB6F8940F928F
:102E800060877187828793870F900FBEF6018685D2
:102E90009785A089B1890196A11DB11D8687978765
:102EA000A08BB18B45E050E060E070E0CE01019670
:102EB0000E949F30A7013801A8CF0F931F93CF9393
:102EC000DF93EC010E94553480E492E0998388837B
:102ED000DF91CF911F910F910895CF93DF93CDB7DD
:102EE000DEB7C255D1090FB6F894DEBF0FBECDBF15
:102EF0004C0182E090E00E949738F401668177816E
:102F00000E945A1F0E94FF2E2C966CAF7DAF8EAF91
:102F10009FAF2C978FE190E00E9497383C01F4011D
:102F2000668177810E9452218FE190E00E9497385C
:102F30002E969FAF8EAF2E97F401668177810E9407
:102F400052218FE190E00E9497382C01F4016681B4
:102F500077810E945221E091DC05F091DD050FB6EA
:102F6000F8940F9210861186128613860F900FBE6A
:102F70000FB6F8940F92E091D405F091D505108624
:102F80001186128613860F900FBE82E08B8F80E031
:102F9000B82E8C8F84E08D8F80E091E0D82E8E8FBC
:102FA0009F8F19A218A2182F8AA39BA381E0382F04
:102FB0008CA38FEF8DA3582F8EA31FA242E0A42EC7
:102FC00064E0C62EEE24E394F12C09A121E04FEF3A
:102FD00060E0C3010E948C21E091DA05F091DB05ED
:102FE0000FB6F8940F9210861186128613860F90F2
:102FF0000FBE0FB6F8940F92E091D205F091D30571
:1030000010861186128613860F900FBEF2E0FE879F
:10301000212CB22C2F8684E0888B312C71E0D32CAC
:10302000398A7A8B1C8A1B8A132D3D8A7E8B81E01C
:10303000382F8F8B8FEF888F582F898F1A8E0C899E
:1030400021E04FEF60E02E968EAD9FAD2E976396F8
:103050007FAF63970E948C21A9822A8294E09B8390
:103060003C8263967FAD63977D831F821E82388684
:1030700079878FE0382F8A871B868DE1582F8C87C0
:103080001D86E72E0F81272F40E060E0C2010E94DD
:103090008C21FE01EC5BFF4F6096FFAFEEAF6097B7
:1030A000CE01805C9F4F62969FAF8EAF629777EAAA
:1030B000C72ED12CE12CF12C16C0F4018685978502
:1030C000A089B1890196A11DB11DF401868797875A
:1030D000A08BB18B45E050E060E070E0CE01885BF2
:1030E0009F4F0E949F300FB6F8940F920F900FBE23
:1030F000E091CA05F091CB0580858130F1F60FB6DD
:10310000F8940F92E091D405F091D50540850F9089
:103110000FBEA42E88E2840F813508F488C047FDD5
:103120001AC2442309F4DCC1E091DC05F091DD050D
:103130000FB6F8940F9280859185A285B3858CAFE8
:103140009DAFAEAFBFAF0F900FBE6CAD7DAD8EAD7E
:103150009FAD48E250E0C3010E94C4220FB6F8942C
:103160000F92E091D005F091D105918780870F9063
:103170000FBE28E2A22E0FB6F8940F92E091D2056E
:10318000F091D30540850F900FBEB42E88E2840FD6
:10319000813508F46BC147FDB3C1442309F490C1E4
:1031A000E091DA05F091DB050FB6F8940F92808577
:1031B0009185A285B38588AB99ABAAABBBAB0F90C9
:1031C0000FBE68A979A98AA99BA948E250E02E966A
:1031D0008EAD9FAD2E970E94C4220FB6F8940F9229
:1031E000E091CE05F091CF05918780870F900FBEBB
:1031F00088E2B82E0FB6F8940F920F900FBE0FB65C
:10320000F8940F920F900FBEF40146845784008902
:103210001189B201C801A70196010E94C944672B18
:10322000682B692B09F437C0C201D8014BCFE0915C
:10323000DC05F091DD050FB6F8940F92808591853D
:10324000A285B3856096EEADFFAD609780839183D4
:10325000A283B3830F900FBECE018C5B9F4F60960D
:103260009FAF8EAF609728966CAD7DAD8EAD9FAD54
:103270002897552747FD5095C3010E94C4220FB6D9
:10328000F8940F92E091D005F091D1059187808755
:103290000F900FBE70CFE091DC05F091DD050FB609
:1032A000F8940F9280859185A285B3858CA79DA700
:1032B000AEA7BFA70F900FBE2CA43DA44EA45FA441
:1032C0006BE0F401868197810E9413398C016EEBCB
:1032D0007EE00E94CE38B201A101C8010E94FD39F2
:1032E00066E00E9413396BE0F401868197810E94A9
:1032F00013398C0162EA7EE00E94CE386A2DC80143
:103300000E9487396BE00E9413398C0165EB7EE0E7
:103310000E94CE3866E0C8010E941339C3010E94A2
:10332000E1218C016BE0F401868197810E941339C1
:103330002C016FE87EE00E94CE38B801C2010E94E5
:10334000583966E00E941339C3010E94E5218C01BF
:103350006BE0F401868197810E9413392C016CE7A0
:103360007EE00E94CE38B801C2010E94583966E062
:103370000E94133966E00E941339E091DA05F0915A
:10338000DB050FB6F8940F9280859185A285B385F1
:1033900088A799A7AAA7BBA70F900FBE28A439A4F6
:1033A0004AA45BA46BE0F401868197810E941339E3
:1033B0008C0169E67EE00E94CE38B201A101C8010D
:1033C0000E94FD3966E00E9413396BE0F4018681AA
:1033D00097810E9413398C016DE47EE00E94CE3803
:1033E0006B2DC8010E9487396BE00E9413398C0154
:1033F00060E67EE00E94CE3866E0C8010E94133984
:103400002E968EAD9FAD2E970E94E1215C016BE060
:10341000F401868197810E9413398C016AE37EE072
:103420000E94CE38B501C8010E94583966E00E945A
:1034300013392E968EAD9FAD2E970E94E5215C012B
:103440006BE0F401868197810E9413398C0167E259
:103450007EE00E94CE38B501C8010E94583966E06E
:103460000E94133966E00E94133927CEE091DA05F5
:10347000F091DB050FB6F8940F9280859185A285B7
:10348000B38588AF99AFAAAFBBAF0F900FBE68AD41
:1034900079AD8AAD9BAD552747FD50952E968EADE3
:1034A0009FAD2E970E94C4220FB6F8940F92E09120
:1034B000CE05F091CF05918780870F900FBE9ACEF1
:1034C0006BE0F401868197810E9413398C0161EDD4
:1034D0007EE00E94CE3866E0C8010E9413398ACE91
:1034E0006BE0F401868197810E9413398C016DEDA8
:1034F0007EE00E94CE3866E0C8010E9413393BCEC0
:10350000E091DA05F091DB050FB6F8940F92808513
:103510009185A285B3858CAB9DABAEABBFAB0F9055
:103520000FBE6CA97DA98EA99FA948ED5FEF2E96CD
:103530008EAD9FAD2E970E94C4220FB6F8940F92C5
:10354000E091CE05F091CF05918780870F900FBE57
:1035500098EDB92E4FCEE091DC05F091DD050FB668
:10356000F8940F9280859185A285B3856296EEAD21
:10357000FFAD629780839183A283B3830F900FBEC8
:10358000CE01805C9F4F62969FAF8EAF629724966C
:103590006CAD7DAD8EAD9FAD249748ED5FEFC3015F
:1035A0000E94C4220FB6F8940F92E091D005F091DA
:1035B000D105918780870F900FBE38EDA32EDBCD0C
:1035C0000F931F93CF93DF93EC010E94553488E44F
:1035D00092E099838883DF91CF911F910F91089595
:1035E0006C0182E090E00E9497387C01F6016681D0
:1035F00077810E945A1F82E090E00E9497388C01E8
:10360000F601668177810E945A1F84E090E00E9453
:103610009738EC01F601668177810E948D1E4AE0A1
:1036200061E0C7010E948D1F4AE062E0C8010E946C
:103630008D1FCE010E94D01E61E0CE010E94E11ECE
:10364000D82E62E0CE010E94E11E63E0CE010E940E
:10365000E11EE091BE05F091BF050FB6F8940F9200
:1036600080850F900FBE0FB6F8940F92D0860F9002
:103670000FBE0FB6F8940F920F900FBE0FB6F894CE
:103680000F92E091BC05F091BD05D81AD0860F903D
:103690000FBE64E170E080E090E00E940631BFCF91
:1036A0000F931F93CF93DF93EC010E94553480E575
:1036B00092E099838883DF91CF911F910F910895B4
:1036C0005C0182E090E00E9497387C01F501668100
:1036D00077810E94291F82E090E00E9497386C0158
:1036E000F501668177810E945A1F4AE060E0C601B9
:1036F0000E948D1F96958795BC01675C744F0FB62D
:10370000F8940F92E091C605F091C7057187608724
:103710000F900FBE0FB6F8940F920F900FBEC70117
:103720000E943F1F4AE060E0C6010E948D1F9695EF
:1037300087958C010F5711090FB6F8940F920F90CF
:103740000FBEE091C605F091C70560857185600FD9
:10375000711FC7010E943F1F6BE0F50186819781B1
:103760000E941339EC0169EE7EE00E94CE38B80168
:10377000CE010E94583966E00E94133966E00E942B
:10378000133964EF71E080E090E00E940631CACF07
:103790000F931F93CF93DF93EC010E94553488E57C
:1037A00092E099838883DF91CF911F910F910895C3
:1037B000CF93DF93FC01718360834283809180000B
:1037C000826A809380008091800080938000809145
:1037D00081008961809381008091810080938100C4
:1037E00080E496E090938700809386008281813008
:1037F00089F08230B9F0C081D181209781F06CE5E9
:1038000072E0CE010E94CE3866E0CE01DF91CF910A
:103810000C94133987B1876087B9329A269ADF9161
:10382000CF9108958AB1806E8AB94F9A259ADF9117
:10383000CF910895FC012281213071F0223009F0EE
:10384000089577FD18C08BB18BB95E985D9A70931F
:10385000890060938800089528B128B977FD13C0C6
:103860004198409A70938B0060938A00FC0182819A
:10387000823049F308958BB18BB95E9A5D9871954A
:1038800061957109E4CF419A4098719561957109EC
:10389000E9CFFC012281213039F0223009F008956E
:1038A0008BB180668BB9089528B1236028B9228135
:1038B000F4CFCF93DF93E091E805F091E9050FB6DF
:1038C000F8940F92118610860F900FBEE091E605D6
:1038D000F091E7050FB6F8940F92118610860F90BD
:1038E0000FBEE091E405F091E5050FB6F8940F9254
:1038F00010860F900FBEE091E205F091E3050FB640
:10390000F8940F9210860F900FBEE091E005F091B1
:10391000E1050FB6F8940F9210860F900FBEE0915C
:10392000DE05F091DF050FB6F8940F9210860F9028
:103930000FBE60916A00242F30E081E090E0FC012E
:10394000042E01C0EE0F0A94EAF75E2F509556231D
:1039500050936A0050916A00B90161507109DC010D
:1039600002C0AA0FBB1F6A95E2F7BD015A2B509304
:103970006A0050916A00D9011297EC0102C0CC0F85
:10398000DD1FAA95E2F7DE01A095A523A0936A00AA
:1039900050916A00D9011397EC0102C0CC0FDD1FD2
:1039A000AA95E2F75C2B50936A00473029F1433027
:1039B00061F08DB18F708DB98DB18F608DB98EB181
:1039C000806F8EB9DF91CF9108956DB3A9014E5FDD
:1039D0005F4FFC0102C0EE0FFF1F4A95E2F76E2B0E
:1039E0006DBB4DB32F5F3F4F022E01C0880F0A946D
:1039F000EAF7482B4DBBDDCF8DB38E2B8DBB8DB33E
:103A0000862B8DBBD6CF461B570BBA0180E090E0CA
:103A100008951F920F920FB60F9211240BB60F92BA
:103A20008F939F93AF93BF93EF93FF93CF93DF93C6
:103A3000CDB7DEB72597DEBFCDBFE091E205F091AF
:103A4000E3050FB6F8940F9280858D830F900FBE1B
:103A50008D81A091E405B091E5050FB6F8940F9221
:103A600018968C9318970F900FBE9CB18CB18072F2
:103A70009071892B90E0959587959595879595956B
:103A80008795959587950FB6F8940F9280870F903C
:103A90000FBE18968C91813009F454C008F442C0CE
:103AA000823039F1833089F48085813009F451C046
:103AB0008085823009F03CC0E091E805F091E9058D
:103AC000808591850197918780870F900F900F9047
:103AD0000F900F90DF91CF91FF91EF91BF91AF9138
:103AE0009F918F910F900BBE0F900FBE0F901F9064
:103AF00018958085833069F18085811119C0E09126
:103B0000E805F091E9050FB6F8940F92808591854C
:103B10009A8389830F900FBE89819A81019791873B
:103B20008087D3CF80858230A1F080858130D9F025
:103B3000E091D805F091D90580859185019691870E
:103B40008087C3CF8085882321F08085833081F7EB
:103B5000B3CFE091E805F091E90580859185019664
:103B600091878087B2CFE091E805F091E9050FB623
:103B7000F8940F92808591859C838B830F900FBE64
:103B80008B819C810197918780879FCF0C94091D21
:103B90001F920F920FB60F9211240BB60F928F93B4
:103BA0009F93AF93BF93EF93FF93E091DE05F09166
:103BB000DF058085A091E005B091E10518968C9312
:103BC00018979CB18CB180789074892B90E0082E66
:103BD000892F000C881F990B000C881F991F808764
:103BE00018968C918130C1F138F1823049F08330E0
:103BF000B1F480858130B9F18085823019F506C035
:103C00008085833081F1808581111CC0E091E605BB
:103C1000F091E70580859185019791878087FF91D5
:103C2000EF91BF91AF919F918F910F900BBE0F902D
:103C30000FBE0F901F90189580858230A1F080856F
:103C4000813021F3E091D605F091D70580859185EB
:103C5000019691878087E3CF8085882321F0808536
:103C6000833081F7D3CFE091E605F091E7058085B9
:103C70009185019691878087D2CF0C94C81DCF93F0
:103C8000DF93EC01262F4DE360E58A819B810E9442
:103C900095266BE0888199810E941339EC016FE2CF
:103CA0007FE00E94CE3866E0CE01DF91CF910C9488
:103CB0001339CF93DF93EC01262F4EE360E58A8121
:103CC0009B810E9495266BE0888199810E9413391F
:103CD000EC016CE17FE00E94CE3866E0CE01DF911E
:103CE000CF910C941339CF93DF93EC0120E04BE399
:103CF00060E58A819B810E9495266BE0888199818D
:103D00000E941339EC016EE07FE00E94CE3866E03D
:103D1000CE01DF91CF910C9413390F931F93CF9362
:103D2000DF93EC017983688384E090E00E94973808
:103D30008C01688179810E9416241B830A8340E0EC
:103D400060E5C8010E9404256BE0803A09F1888192
:103D500099810E9413398C016DE67FE0C8010E94B1
:103D6000CE3866E0C8010E94133960E0CE010E949F
:103D70003F1E60E0CE010E94591ECE010E94731EBC
:103D80006CE0CE01DF91CF911F910F910C943F1EFB
:103D9000888199810E9413398C0166E47FE0DECF2F
:103DA000CF93DF93EC0149E360E58A819B810E9418
:103DB000042546E360E58A819B81DF91CF910C94D5
:103DC00004251F93CF93DF93EC01613081F16230C2
:103DD000B9F16330A9F06BE0888199810E941339B1
:103DE000EC0169EF7EE00E94CE3866E0CE010E94D1
:103DF000133920E030E0C901DF91CF911F91089580
:103E00004FE160E58A819B810E940425182F4EE1D5
:103E100060E58A819B810E940425212F30E0322FAA
:103E20002227282BC901DF91CF911F9108954BE1E3
:103E300060E58A819B810E940425182F4AE1E8CF22
:103E40004DE160E58A819B810E940425182F4CE199
:103E5000DFCFE0E9F0E08081826880838081808329
:103E6000E1E9F0E080818A6180838081808380E461
:103E70009CE990939700809396006B9A0895603D1B
:103E800087E0780780F0613A8FE0780728F4709334
:103E9000990060939800089560EA7FE0709399001C
:103EA00060939800089560ED77E0709399006093B7
:103EB00098000895FC0171836083EAE7F0E0808157
:103EC0008068808380818160808380818D7F808312
:103ED000808184608083ECE7F0E08081806480836F
:103EE00080818F778083089580917C00887F809384
:103EF0007C0080917C006770682B60937C008091CF
:103F00007A00806480937A0080917A0086FDFCCFED
:103F100080917800909179000895403430F1ECE37D
:103F2000F0E04CE3677080E090E020917C00287F17
:103F300020937C0020917C00262B20937C002091F4
:103F40007A00206420937A0020917A0026FDFCCF2D
:103F50002091780030917900820F931F415029F70A
:103F6000BF010E94A144CB010895442319F0E42F1E
:103F7000F0E0D8CFE0E0F0E080E090E0BF010E9408
:103F8000A144CB0108952F923F924F925F926F927E
:103F90007F928F929F92AF92BF92CF92DF92EF92D9
:103FA000FF920F931F93CF93DF9300D000D000D0E8
:103FB000CDB7DEB79E838D8380917C00887F809310
:103FC0007C0080917C00876080937C0080917A00E7
:103FD000806480937A0080917A0086FDFCCF2091E6
:103FE00078003091790080917C00887F80937C00FC
:103FF00080917C00866080937C0080917A00806450
:1040000080937A0080917A0086FDFCCF2090780022
:104010003090790080917C00887F80937C00809133
:104020007C00856080937C0080917A00806480931E
:104030007A0080917A0086FDFCCF40907800509005
:10404000790080917C00887F80937C0080917C0047
:10405000846080937C0080917A00806480937A00F1
:1040600080917A0086FDFCCF009178001091790054
:1040700080917C00887F80937C0080917C008360AD
:1040800080937C0080917A00806480937A00809194
:104090007A0086FDFCCFE0907800F0907900809166
:1040A0007C00887F80937C0080917C00826080937C
:1040B0007C0080917A00806480937A0080917A00FD
:1040C00086FDFCCFC0907800D090790080917C0074
:1040D000887F80937C0080917C00816080937C004D
:1040E00080917A00806480937A0080917A0086FDC6
:1040F000FCCFA0907800B090790080917C00887F00
:1041000080937C0080917C0080937C0080917A0079
:10411000806480937A0080917A0086FDFCCF809045
:1041200078009090790040917C0050917A006BE08B
:104130008D819E812B833C834A8359830E9413394E
:104140003C0163E97FE00E94CE385981652FC301AD
:104150000E94453A66E00E9413396BE00E941339D1
:104160003C016CE97FE00E94CE384A81642FC30194
:104170000E94453A66E00E9413396BE00E941339B1
:104180003C0164EA7FE00E94CE38B401C3010E9482
:10419000C33966E00E9413396BE00E9413394C0169
:1041A0006CEA7FE00E94CE38B501C4010E94C33999
:1041B00066E00E9413396BE00E9413395C0164EBE6
:1041C0007FE00E94CE38B601C5010E94C33966E087
:1041D0000E9413396BE00E9413396C016CEB7FE095
:1041E0000E94CE38B701C6010E94C33966E00E9422
:1041F00013396BE00E9413397C0164EC7FE00E946C
:10420000CE38B801C7010E94C33966E00E94133955
:104210006BE00E9413398C016CEC7FE00E94CE3879
:10422000B201C8010E94C33966E00E9413396BE0F5
:104230000E9413398C0164ED7FE00E94CE38B101F9
:10424000C8010E94C33966E00E9413396BE00E94E6
:1042500013398C016CED7FE00E94CE382B813C81BC
:10426000B901C8010E94C33966E00E9413398D81EB
:104270009E8126960FB6F894DEBF0FBECDBFDF91AC
:10428000CF911F910F91FF90EF90DF90CF90BF9053
:10429000AF909F908F907F906F905F904F903F90E6
:1042A0002F900895CF93DF93EC01DC016D937D9304
:1042B0008DE0E8E0F2E001900D928A95E1F7188A2E
:1042C0001F861A8A198A1C8A1B8A1E8A1D8A188EC2
:1042D0001F8A1C8E1B8EDF91CF910895FC01628393
:1042E000148E138E0895CF93DF93EC01CB016F856D
:1042F0007889788F6F8B988B8F870E949B239A8FFA
:10430000898FDF91CF910895FC01728B618B0895A5
:10431000FC01748B638B0895AF92BF92CF92DF92B2
:10432000EF92FF920F931F93CF93DF93CDB7DEB73A
:104330002D970FB6F894DEBF0FBECDBFA982BA820B
:10434000CB82DC82ED82FE820F83188729873A8731
:104350004B875C876D872DE0FE013196DC0112965C
:1043600001900D922A95E1F7FC01148E138E2D9683
:104370000FB6F894DEBF0FBECDBFDF91CF911F9176
:104380000F91FF90EF90DF90CF90BF90AF90089586
:10439000FC01748363830895FC017683658308952B
:1043A000FC01708767830895FC0172876187089517
:1043B000FC0174876387568745870895FC018281D5
:1043C0000895FC01878590890895FC01818992896F
:1043D0000895FC018389948908952DE0FB013296AC
:1043E000DC0101900D922A95E1F70895FC01858189
:1043F00096810895FC01838194810895FC01878151
:1044000090850895FC01818592850895FC0183853E
:1044100094850895FC018585968508950F931F93D3
:10442000CF93DF93EC018F8598892B893C89821B80
:10443000930B9E8B8D8B6D8D7E8D89859A850E94C9
:10444000E52340E054E00E94F7238C016D897E89CA
:104450008B8D9C8D0E947E23B8010E949B239C8F94
:104460008B8F8A81833009F472C090F5813009F412
:1044700063C0823009F044C06D897E898B819C8144
:104480000E94E52340E054E00E94F7238C016B8DED
:104490007C8D8D819E810E94E52340E054E00E9446
:1044A000F723B8010E947E236D857E856817790702
:1044B000D4F06B857C85861797070CF458C01E8E48
:1044C0001D8E9A8B898BDF91CF911F910F9108954B
:1044D0008430C9F08530A1F489899A896D857E85FB
:1044E0006817790734F70E949B239E8F8D8F8D85E7
:1044F0009E85898B9A8BDF91CF911F910F910895A3
:1045000080E090E0D1CF6D897E898B819C810E9473
:10451000E52340E054E00E94F7238C01698D7A8DF9
:104520008F8198850E94E52340E054E00E94F723A4
:10453000B8010E947E23AACF6D897E898B819C81E0
:104540000E94E52340E054E00E94F723ADCF6D893F
:104550007E898B819C810E94E52340E054E00E948B
:10456000F7238C01698D7A8D8F81988594CF0E9475
:104570009B239E8F8D8F8B859C85898B9A8BDF915A
:10458000CF911F910F9108950F931F93CF93DF93B6
:10459000EC01CB018A016F857889788F6F8B988BBE
:1045A0008F870E949B239A8F898F1C8B0B8BCE0148
:1045B000DF91CF911F910F910C940E224F925F9239
:1045C0006F927F928F929F92AF92BF92CF92DF9223
:1045D000EF92FF920F931F93CF93DF93EC01FB01B8
:1045E000418452846780708403811481E580F68061
:1045F000C584D684A384B4848280912C6DE872E053
:104600000E94CE3862E0CE010E941339B4010E94AC
:10461000583966E00E9413394C0168E972E00E9443
:10462000CE3862E0C4010E941339B5010E945839A6
:104630005C0165EA72E00E94CE3862E0C5010E942A
:104640001339B6010E94583966E00E9413396C0193
:104650006AEA72E00E94CE3866E0C6010E94133911
:104660006C0161EB72E00E94CE3862E0C6010E94EC
:104670001339B7010E94583966E00E9413397C0152
:104680006DEB72E00E94CE3862E0C7010E941339E0
:10469000B8010E94583966E00E9413398C0169EC18
:1046A00072E00E94CE3862E0C8010E941339B30163
:1046B0000E94583966E00E9413398C0165ED72E062
:1046C0000E94CE3862E0C8010E941339B2010E94F4
:1046D000583966E00E941339CE01DF91CF911F91C6
:1046E0000F91FF90EF90DF90CF90BF90AF909F9091
:1046F0008F907F906F905F904F9008959C01432F13
:104700004095441F4427441F80E090E8841B910992
:10471000AC01421B530BE1E0461757070CF0E0E0F9
:10472000432F4095441F4427441FE41719F0C90143
:10473000860F971F08958617970799F1611520E84E
:10474000720741F1719561957109492F4095441F98
:104750004427441F20E030E8241B3109A901481BED
:10476000590BE1E04617570764F4492F4095441F61
:104770004427441FE41719F0860F971F0895C901B5
:104780000895E0E0492F4095441F4427441FE41753
:10479000B1F3F2CF97FD03C06FEF7FE7D6CF01965D
:1047A000FBCF80E090E00895811520E8920729F082
:1047B0009C0197FD05C0C90108958FEF9FE70895FB
:1047C000319521953109C9010895811520E8920795
:1047D00029F09C01DB010E9468440895611520E8DE
:1047E0007207B9F76FEF7FEF8FEF9FE708959A0198
:1047F000442737FD4095542F0E94EB44211580E853
:1048000038074105510524F02FEF3FE740E050E025
:10481000DA01C901811520E892072FEFA207B2073C
:1048200024F480E090E8AFEFBFEF0895CF93DF93DB
:10483000EC017983688388E48093B80081E00E946A
:10484000062B9B838A83892B19F0DF91CF910895E2
:104850000990D881C02D2097C1F36DE275E0CE019B
:104860000E94CE3866E0CE01DF91CF910C941339CF
:1048700084EA8093BC008091BC0087FD0AC089EE69
:1048800093E003C00197009769F02091BC0027FFD7
:10489000F9CF9091B900987F81E0983009F00895A0
:1048A00080E0089581E008951F93CF93DF9324EA79
:1048B0002093BC002091BC0027FD0CC029EE33E002
:1048C00005C02150310921153105C1F14091BC00CD
:1048D00047FFF7CF2091B900287F203151F1FC012B
:1048E00080819181009729F11091B9006BE00E94BD
:1048F0001339EC0168E370E10E94CE3863E0CE0129
:104900000E941339612F0E94453A6BE00E941339CF
:10491000EC0169E470E10E94CE3862E0CE010E94B1
:10492000133966E00E94133980E0DF91CF911F9127
:10493000089580E0DF91CF911F91089581E0DF918C
:10494000CF911F910895CF93DF936093BB0024E82C
:104950002093BC002091BC0027FD0CC029EE33E061
:1049600005C0215031092115310591F04091BC005D
:1049700047FFF7CF9091B900987F81E0983129F0F7
:10498000983219F0903409F080E0DF91CF910895CA
:10499000FC01808191810097B9F36BE00E9413398B
:1049A000EC0167E270E10E94CE3866E0CE010E9421
:1049B000133980E0DF91CF9108956623E9F084EC0C
:1049C0008093BC0040E59091BC0097FD0AC089EE41
:1049D00093E003C00197009769F02091BC0027FF86
:1049E000F9CF2091B900287F30E0842F90E028177C
:1049F000390739F08FEF089584E88093BC0048E5CB
:104A0000E2CF8091BB000895FF920F931F93CF9345
:104A1000DF93EC01162FF42E00E02FEF3FEFA901FA
:104A200060E070E08A819B810E946F2B84EA809312
:104A3000BC008091BC0087FD0CC029EE33E005C0AE
:104A4000215031092115310531F08091BC0087FFDB
:104A5000F7CF8091B900612FCE010E94A32481116C
:104A60001AC088819981009721F061E475E00E9465
:104A7000CE3800E020E030E0A90160E070E08A81FB
:104A80009B810E944E2A11E0812FDF91CF911F91CF
:104A90000F91FF9008956F2DCE010E94A3248823CB
:104AA00001F384E98093BC0084EA8093BC00809188
:104AB000BC0087FD0CC029EE33E005C02150310950
:104AC0002115310531F08091BC0087FFF7CF80912F
:104AD000B900612F6160CE010E94A32481111AC028
:104AE00088819981009721F067E475E00E94CE38B3
:104AF00000E020E030E0A90160E070E08A819B8165
:104B00000E944E2A1FEF812FDF91CF911F910F91AD
:104B1000FF90089584E88093BC008091BC0087FDDD
:104B20000CC029EE33E005C02150310921153105B3
:104B300049F08091BC0087FFF7CF8091B900887F52
:104B40008835A9F01FEF84E98093BC0000E020E0E5
:104B500030E0A90160E070E08A819B810E944E2ACA
:104B6000812FDF91CF911F910F91FF9008951091A8
:104B7000BB00E9CFCF92DF92EF92FF920F931F938A
:104B8000CF93DF93EC01C62ED42E7901102F00E0D5
:104B90002FEF3FEFA90160E070E08A819B810E94C6
:104BA0006F2B84EA8093BC008091BC0087FD0AC013
:104BB000E9EEF3E003C03197309731F09091BC00FB
:104BC00097FFF9CF8091B9006C2DCE010E94A324EC
:104BD00081111EC088819981009721F06DE475E0F4
:104BE0000E94CE3800E020E030E0A90160E070E0F3
:104BF0008A819B810E944E2ADD24D3948D2DDF91E2
:104C0000CF911F910F91FF90EF90DF90CF9008957B
:104C10006D2DCE010E94A324D82E8823D9F284E9D9
:104C20008093BC0084EA8093BC008091BC0087FD27
:104C30000CC049EE53E005C04150510941155105E2
:104C400031F09091BC0097FFF7CF8091B9006C2DA7
:104C50006160CE010E94A324811113C088819981D3
:104C6000009721F063E575E00E94CE3800E020E077
:104C700030E0A90160E070E08A819B810E944E2AA9
:104C8000BDCF8FEF810F19F1F70124EC2093BC0009
:104C90009091BC0097FD0CC049EE53E005C0415017
:104CA00051094115510549F09091BC0097FFF7CF8C
:104CB0009091B900987F903591F19FEF9193815039
:104CC00029F71250812F90E00196E80EF91E84E832
:104CD0008093BC008091BC0087FD0AC089EE93E000
:104CE00003C00197009749F02091BC0027FFF9CF3E
:104CF0008091B900887F8835A9F08FEFF701808314
:104D000084E98093BC0000E020E030E0A90160E08D
:104D100070E08A819B810E944E2AD12C6FCF9091A6
:104D2000BB00CCCF8091BB00E9CFEF92FF920F93F5
:104D30001F93CF93DF93EC01162FF42EE22E00E0A9
:104D40002FEF3FEFA90160E070E08A819B810E9414
:104D50006F2B84EA8093BC008091BC0087FD0AC061
:104D6000E9EEF3E003C03197309731F08091BC0059
:104D700087FFF9CF8091B900612FCE010E94A32453
:104D800081111AC088819981009721F069E575E049
:104D90000E94CE3800E020E030E0A90160E070E041
:104DA0008A819B810E944E2A81E0DF91CF911F91E1
:104DB0000F91FF90EF9008956F2DCE010E94A324D4
:104DC000882301F36E2DCE010E94A3248823D1F203
:104DD00084E98093BC0000E020E030E0A90160E0BD
:104DE00070E08A819B810E944E2A80E0DECFBF92D4
:104DF000CF92DF92EF92FF920F931F93CF93DF93A7
:104E00007C01C62FD42FB22E132FD02E00E02FEF0F
:104E10003FEFA90160E070E0DC0112968D919C915A
:104E200013970E946F2B84EA8093BC008091BC0092
:104E300087FD0AC0E9EEF3E003C03197309731F007
:104E40008091BC0087FFF9CF8091B9006C2FC7011A
:104E50000E94A324811123C0D7018D919C910097BA
:104E600021F06FE575E00E94CE3800E020E030E0F0
:104E7000A90160E070E0D70112968D919C91139783
:104E80000E944E2ACC24C3948C2DDF91CF911F9188
:104E90000F91FF90EF90DF90CF90BF9008956D2F0E
:104EA000C7010E94A324C82E8823B1F2DD2079F126
:104EB000CB2DD12F10E003C01F5F1D1541F169916B
:104EC000C7010E94A3248111F7CFF701C081D181CE
:104ED000209789F065E675E0CE010E94CE38612FFB
:104EE000CE010E94453ADC01ED91FC910280F381F4
:104EF000E02D6EE3099500E020E030E0A90160E0DC
:104F000070E0F701828193810E944E2ABDCF84E92F
:104F10008093BC0000E020E030E0A90160E070E098
:104F2000F701828193810E944E2AC12CADCF8BB1B3
:104F30008695817008950F931F93CF93DF93EC01B3
:104F4000162F00E02FEF3FEFA90160E070E08A81AB
:104F50009B810E946F2B84EA8093BC008091BC00EF
:104F600087FD0CC029EE33E005C021503109211521
:104F7000310531F08091BC0087FFF7CF8091B900F7
:104F8000612FCE010E94A324182F84E98093BC00D6
:104F900000E020E030E0A90160E070E08A819B81C0
:104FA0000E944E2A812FDF91CF911F910F9108957A
:104FB000CF92DF92EF92FF920F931F93CF93DF93E5
:104FC0008C01EB016BE0CE010E9413397C0163E19F
:104FD00070E10E94CE3863E0C7010E94133966E099
:104FE0000E941339E12CF12C6E2DCE010E94453A1E
:104FF000DC01ED91FC910280F381E02D60E30995E5
:10500000CE2CC29480EFC822D12C08C060E4CE011F
:105010000995D394D394B0E1DB16E1F0E881F981EE
:105020000280F381E02D60E2CE0109956D2D6C299F
:10503000C8010E949B27E881F9810280F381E02D5D
:105040008111E4CF6DE2CE010995D394D394B0E100
:10505000DB12E4CF66E0CE010E9413398FEFE81A2D
:10506000F80AA0E1EA16F10409F0BECF62E0CE0131
:10507000DF91CF911F910F91FF90EF90DF90CF9034
:105080000C9413390F931F93CF93DF93EC010E947D
:10509000F92E8091F805811121C082E096E090936D
:1050A000FE058093FD05109200061092FF0587E330
:1050B00097E19093FC058093FB051092FA051092FE
:1050C000F905909305068093040689EF95E0909387
:1050D00003068093020681E08093F805209709F487
:1050E00060C0AE014C5F5F4F2396C633D74108F0D6
:1050F00058C0E091FD05F091FE05ADEFB5E006C0AA
:1051000080819181009739F0DF01FC012281338198
:1051100024173507A8F3C5E0E93FFC0709F441C0AF
:105120000D911C9111970C5F1F4F808191818D9380
:105130009C93C901841B950B8930910500F1BF0137
:10514000640F751FDB0113969C938E931297538304
:10515000428312968D919C911397ADEFB5E001C0FB
:10516000DF01ED91FC9111972281338128173907D6
:10517000B8F3EB01F983E8836D937C939A018091F6
:10518000000290910102821B930B90930102809385
:1051900000020E942C30C801DF91CF911F910F9126
:1051A000089500E010E00E942C30C801DF91CF91FB
:1051B0001F910F910895CF93DF93009721F1EC0198
:1051C00024970E94F92E4A815B81ADEFB5E001C0C2
:1051D000DF01ED91FC91119722813381241735076E
:1051E000B8F3F983E883CD93DC938091000290912A
:1051F0000102840F951F9093010280930002DF91BA
:10520000CF910C942C30DF91CF91089580910002C2
:1052100090910102089508951F93CF93DF93EC01BD
:10522000142F88A181110DC088819981892B09F4DF
:105230004DC080E09E8D9F5F9E8FDF91CF911F912B
:105240000895482F50E011111CC08C819D810E944F
:10525000064628A18C819D81820F911D9D838C83A0
:105260002A813B818217930720F3888199819D834E
:105270008C8380E09E8D9F5F9E8FDF91CF911F91E9
:1052800008958E819F810E94064628A130E03195C5
:10529000219531098E819F81820F931F9F838E8379
:1052A000688179818617970730F48A819B81820F04
:1052B000931F9F838E83123009F0BBCF8E8D88237E
:1052C00009F4B7CF8E8D81508E8FB3CF8A819B81A9
:1052D0000E9457331B821A82ADCFFC01CB0140A143
:1052E000442399F050E026813781240F351F3783FE
:1052F0002683628173812617370720F02081318150
:1053000037832683B9010C94064608950F931F93A3
:10531000CF93DF93EC010FB6F8940F928AA1181681
:10532000ECF48B898823D1F08E010D5E1F4F09C0EC
:105330008AA181508AA38AA1181684F48B898823B4
:1053400069F0C8010E94E331882391F30E94D732AB
:105350008AA181508AA38AA1181684F38FEF8AA3A9
:105360000F900FBE0FB6F8940F9289A11816ECF4A7
:1053700088858823D1F08E01085F1F4F09C089A15D
:10538000815089A389A1181684F48885882369F03F
:10539000C8010E94E331882391F30E94D73289A18A
:1053A000815089A389A1181684F38FEF89A30F90E8
:1053B0000FBEDF91CF911F910F910895CF93DF938F
:1053C000EC010FB6F8940F92288139818F8D78A166
:1053D000879FC0011124A901480F591F5B834A838D
:1053E0001E8E3D832C83871B9109820F931F9F8301
:1053F0008E838FEF89A38AA3611112C088858111E2
:1054000006C00F900FBE81E0DF91CF910895CE01CD
:1054100008960E94E3318130A1F70E94C33DF1CF8D
:10542000CE0108960E94543CCE0143960E94543C03
:105430000F900FBE81E0DF91CF9108950F931F93DE
:10544000CF93DF93182F062F882301F183E290E09A
:105450000E944228EC010097C9F0109FC00111245E
:1054600001960E94422899838883892B61F01F8FBF
:1054700008A361E0CE010E94DE29CE01DF91CF9129
:105480001F910F910895CE010E94DB28C0E0D0E06B
:10549000CE01DF91CF911F910F9108956F927F926E
:1054A0008F929F92AF92BF92CF92DF92EF92FF9234
:1054B0000F93CF93DF93CDB7DEB729970FB6F8944C
:1054C000DEBF0FBECDBF5C014B012E833F834887FB
:1054D000598720E03C0188E0680E711C0FB6F894F3
:1054E0000F92F501968D878D981708F459C00230F8
:1054F00009F456C0CE80DF80E884F984CD28CE2818
:10550000CF2809F46FC0222309F441C00F900FBEC9
:105510000E94F92E0FB6F8940F92F50181A18F3FEA
:1055200009F43CC0F50182A18F3FB1F10F900FBE8D
:10553000BE016A5F7F4FCE0101960E9476328111D3
:1055400055C00FB6F8940F92F501968D0F900FBECF
:10555000F501878D981314C04E815F816885798528
:10556000C3010E948831C5010E9486290E942C3007
:10557000882311F021E0B2CF0E94C33D21E0AECFDD
:10558000C5010E9486290E942C3021E0A7CFCE01C0
:1055900001960E946532BACF12A2C8CF11A2C2CF23
:1055A000402FB401C5010E940C29F5019389911186
:1055B00024C0811128C00F900FBE81E029960FB63C
:1055C000F894DEBF0FBECDBFDF91CF910F91FF905A
:1055D000EF90DF90CF90BF90AF909F908F907F9093
:1055E0006F9008950F900FBE80E0E8CFC5010E9434
:1055F00086290E942C3080E0E1CFC50143960E94AD
:10560000E3318130C1F60E94C33DD5CF0F93CF93D4
:10561000DF9383E290E00E944228EC01009701F1C1
:105620001B821A82198218821D821C821F821E828E
:105630001E8E81E08F8F18A28FEF89A38AA3CE01DF
:1056400008960E94543CCE0143960E94543C00E0D0
:1056500020E030E0A90160E070E0CE010E944E2A17
:10566000CE01DF91CF910F9108950F931F93CF93A8
:10567000DF93EC018A019E8D8F8D981740F02230C8
:1056800031F080E0DF91CF911F910F910895422F6B
:10569000CE010E940C29882331F00115110519F063
:1056A00081E0F80180838AA18F3F49F08AA18F5F52
:1056B0008AA381E0DF91CF911F910F9108958B898B
:1056C0008823B9F3CE0143960E94E331882389F3FE
:1056D0000115110571F381E0F8018083D3CFAF92FA
:1056E000BF92CF92DF92EF92FF920F93CF93DF930F
:1056F000CDB7DEB729970FB6F894DEBF0FBECDBF8A
:105700007C016B012E833F834887598790E05701C6
:1057100083E1A80EB11C0FB6F8940F92F701868DA5
:10572000811169C04E815F8168857985452B462B43
:10573000472B09F47DC0992309F43EC00F900FBE9A
:105740000E94F92E0FB6F8940F92F70181A18F3FB6
:1057500009F43EC0F70182A18F3F09F43FC00F90CA
:105760000FBEBE016A5F7F4FCE0101960E94763266
:10577000811171C00FB6F8940F92F701868D0F90CA
:105780000FBE81111EC0F70180819181892B41F1EB
:105790004E815F8168857985C5010E948831C70186
:1057A0000E9486290E942C30882311F091E0B3CF0B
:1057B0000E94C33D91E0AFCFCE0101960E946532B9
:1057C000BDCFC7010E9486290E942C3091E0A3CF53
:1057D00011A2F70182A18F3F09F0C1CF12A2BFCF62
:1057E0000FB6F8940F92F701828193810E94FC32E8
:1057F0000F900FBECDCFA680B780B601C7010E9423
:105800006D29F70101112EC0868D8150868F808110
:105810009181892BB9F1F7018085882341F1C70176
:1058200008960E94E331813011F50E94C33D1FC0EC
:105830000F900FBE80E029960FB6F894DEBF0FBE22
:10584000CDBFDF91CF910F91FF90EF90DF90CF9080
:10585000BF90AF900895C7010E9486290E942C3006
:1058600080E0E9CFB782A6828389811104C00F90BE
:105870000FBE81E0E0CFC70143960E94E331882349
:10588000B1F3D3CF0E94BE33F70193838283C3CF9A
:105890000F931F93CF93DF9300D0CDB7DEB78C016A
:1058A000FC01868D811108C080E00F900F90DF9180
:1058B000CF911F910F910895C80149835A830E9487
:1058C0006D29F801868D8150868F81A149815A8189
:1058D0008F3F61F0F80181A18F5F81A381E00F907C
:1058E0000F90DF91CF911F910F91089580858823AC
:1058F000A9F3C801089649835A830E94E33149817C
:105900005A81882359F34115510541F381E0FA0189
:105910008083CBCF0F931F93CF93DF93EC018E8DBA
:10592000811106C080E0DF91CF911F910F91089502
:105930000E811F81CE010E946D291F830E8381E09D
:10594000DF91CF911F910F9108950FB6F8940F92A8
:10595000FC01868D0F900FBE08950FB6F8940F923C
:10596000FC01268D0F900FBEFC01878D821B0895D0
:10597000FC01868D0895CF93DF93EC018881998196
:10598000009711F00E94DB28CE01DF91CF910C949B
:10599000DB28FC01968D81E0911180E00895FC01E7
:1059A000268D81E0978D291380E0089580916E1DEA
:1059B000823018F00E94C33DF9CFFFCFCF92DF9223
:1059C000EF92FF926B017C01E091391DF0913A1D3D
:1059D00062837383848395838091421D9091431DDC
:1059E000A091441DB091451D6091391D70913A1DE3
:1059F000C816D906EA06FB0610F18091561D909153
:105A0000571D6E5F7F4F0E948A3C809102029091E9
:105A10000302A0910402B0910502C816D906EA0655
:105A2000FB0640F4C0920202D0920302E09204020C
:105A3000F0920502FF90EF90DF90CF900895809153
:105A4000541D9091551D6E5F7F4FFF90EF90DF903A
:105A5000CF900C948A3C5F926F927F928F929F922C
:105A6000AF92BF92CF92DF92EF92FF920F931F936C
:105A7000CF93DF934C01162F572E5A01390189E23B
:105A800090E00E944228EC01009709F4E9C0C1149B
:105A9000D10409F4DAC0DC8ECB8EC601A50165EA1B
:105AA00070E00E940F4621E0A21AB108CB8CDC8C7A
:105AB000CA0CDB1CAE01435E5F4FE12FF52D2AE0DF
:105AC000CF013191DA013D93AD01DC018C91882346
:105AD00011F02150A9F71EA2102F043008F07DC04C
