:100000000C941F020C943E020C943E020C943E028F
:100010000C943E020C943E020C943E020C943E0260
:100020000C943E020C943E020C943E020C943E0250
:100030000C943E020C943E020C943E020C943E0240
:100040000C943E020C943E020C943E020C943E0230
:100050000C943E020C943E020C943E020C943E0220
:100060000C943E020C94C8170C943E020C943E0271
:100070000C943E020C943E020C943E020C943E0200
:100080000C943E020C943E020C943E020C943E02F0
:100090000C941B180C943E020C943E020C943E02ED
:1000A0000C943E020C943E020C943E020C943E02D0
:1000B0000C943E020C943E020C943E020C94921A54
:1000C0000C943E020C943E020C943E02A515AE1513
:1000D000B115B415A715A715B715C715CE15D515A4
:1000E000D915AB154D45343035204C616220312097
:1000F0005374617274696E672050726F6772616DBC
:10010000004D45343035204C6162203120556E6DF4
:100110006F6469666965642050726F6772616D20F3
:1001200056302E3031200041707220313220323072
:1001300031360053797374656D2074696D653A20AA
:10014000002C20486561703A20002C204F43523526
:10015000413A20002020683A202020202048414CAD
:10016000502100202043746C2D433A205265736562
:100170007420746865204156520020206E3A202079
:10018000202020456E7465722061206E756D626559
:1001900072202864656D6F29002020643A20202099
:1001A0002020537461636B2064756D7020666F72DC
:1001B000207461736B73002020733A20202020206C
:1001C00056657273696F6E20616E64207365747515
:1001D0007020696E666F726D6174696F6E002020A9
:1001E000743A202020202053686F7720746865209F
:1001F00074696D65207269676874206E6F77004D51
:1002000045343035204C6162203120556E6D6F646D
:1002100069666965642050726F6772616D2056303F
:100220002E303120002068656C7000496C6C656769
:10023000616C2073746174652120526573657474F8
:10024000696E6720415652003C696E76616C696444
:100250002063686172202200223E004E756D626547
:100260007220656E74657265643A2000223A2057E8
:1002700054463F00526573657474696E6720415639
:100280005200456E74657220646563696D616C200F
:100290006E756D65726963206469676974732C207B
:1002A0007468656E2052455455524E206F72204539
:1002B000534300507265737320276827206F7220A4
:1002C000273F2720666F722068656C7000414443A9
:1002D0005352413A200041444D55583A2000414480
:1002E0004330203D200041444331203D2000414423
:1002F0004332203D200041444333203D200041440F
:100300004334203D200041444335203D20004144FA
:100310004336203D200041444337203D20004E6FAE
:10032000207368617265642064617461206974651A
:100330006D7320746F207072696E74002D2D2D2DD9
:100340002020202020202020202020202D2D2D2D79
:10035000202020202D2D2D2D2D2D2D2D2D2D005308
:10036000686172652F5175657565202020202054C5
:1003700079706520202020467265652F546F746166
:100380006C004552524F52206372656174696E670A
:10039000207461736B2022005461736B2022002251
:1003A00020637265617465642C20737461636B20D3
:1003B0006174203078005461736B3A20005461738B
:1003C0006B3A2049444C450049444C4509093009E1
:1003D0002D09002F0009092D002D2D2D2D09092D86
:1003E0002D2D2D092D2D2D2D2D00092D2D2D2D2DB2
:1003F0002D2D2D2D2D00092D2D2D2D004E616D65DE
:1004000009095072692E09537461746500094672B6
:1004100065652F546F74616C000952756E730054DA
:1004200061736B0909202009200009537461636B13
:1004300000090009002F00090009002020001124F4
:100440001FBECFEFD1E2DEBFCDBF13E0A0E0B2E030
:10045000E8E9F3E400E00BBF02C007900D92A83179
:10046000B107D9F71AE1A8E1B3E001C01D92AE3C93
:10047000B107E1F70E94331F0C94CA210C940000CD
:100480000F931F93CF93DF93EC010E94DA108BE25E
:1004900092E099838883DF91CF911F910F91089506
:1004A0000F931F93CF93DF93EC016BE08E819F81BD
:1004B0000E9498158C016FEF71E00E9453156BE05C
:1004C000C8010E9498158C0165E272E00E945315E4
:1004D00066E0C8010E9498156BE08E819F810E94A2
:1004E00098158C016EED71E00E94531566E0C8010D
:1004F0000E9498156BE08E819F810E9498158C0157
:1005000067EB71E00E94531566E0C8010E949815E0
:100510006BE08E819F810E9498158C0169E971E0E2
:100520000E94531566E0C8010E9498156BE08E8109
:100530009F810E9498158C016AE771E00E94531513
:1005400066E0C8010E9498156BE08E819F810E9431
:1005500098158C0163E671E00E94531566E0C801AE
:100560000E9498156BE08E819F810E949815EC0186
:1005700064E571E00E94531566E0CE01DF91CF91F2
:100580001F910F910C9498158F929F92AF92BF92EA
:10059000CF92DF92EF92FF920F931F93CF93DF934F
:1005A00000D000D000D0CDB7DEB78C0119821A82FE
:1005B0001B821C821E821D82C0902801D0902901BE
:1005C0000E9455095C01CE0101960E9484144C01E1
:1005D00066E0F801868197810E9498156BE00E9481
:1005E00098157C0161E071E00E9453156BE0C70132
:1005F0000E9498157C0167E271E00E94531566E045
:10060000C7010E9498156BE00E9498157C0163E376
:1006100071E00E945315B401C7010E9423146BE0DE
:100620000E9498157C0161E471E00E945315B501A8
:10063000C7010E94DD157C0163E272E00E94531540
:1006400048E357E160E070E0C7010E9417166BE0D5
:100650000E9498157C016AE471E00E945315B6016E
:10066000C7010E94DD1566E00E94981566E00E94B1
:100670009815F801868197810E94D51266E0F801ED
:10068000868197810E949815F801868197810E9442
:10069000951026960FB6F894DEBF0FBECDBFDF9142
:1006A000CF911F910F91FF90EF90DF90CF90BF906F
:1006B000AF909F908F900895CF93DF93CDB7DEB723
:1006C00027970FB6F894DEBF0FBECDBF8C011982FD
:1006D0001A821B821C821E821D826BE0DC01169630
:1006E0008D919C9117970E9498157C0163EB72E0A5
:1006F0000E94531566E0C7010E949815C12CD12CA9
:100700007601F8018485882309F45AC0813009F004
:10071000A0C0F80186819781DC01ED91FC910480F5
:10072000F581E02D0995882309F403C1F80186813C
:100730009781DC01ED91FC910680F781E02D099510
:10074000282F80ED820F8A3008F4C4C02A3009F4C3
:10075000B9C02D3019F02B3109F095C066E0D801F1
:1007600016968D919C9117970E9498156BE00E94A8
:1007700098155C016BE572E00E945315B701A60164
:10078000C5010E94171666E00E94981560E0C80136
:100790000E949011F80186859785A089B1890196FC
:1007A000A11DB11D86879787A08BB18B61E070E09A
:1007B00080E090E00E948B0DF80184858111A6CF26
:1007C00086819781DC01ED91FC910480F581E02D1B
:1007D00009958823F9F2F80186819781DC01ED9172
:1007E000FC910680F781E02D0995282F883609F4C1
:1007F0001FC10CF4F1C0833709F4EAC0843709F44F
:10080000D9C08E3609F4BFC0F801A680B780D501E3
:10081000ED91FC910280F381E02D62E2C5012F830E
:100820000995D501ED91FC910280F381E02D2F8196
:10083000622FC50109956BE0C5010E9498155C0106
:100840006CE672E00E94531566E0C5010E9498159F
:10085000A1CF6BE0868197810E9498158C016BE295
:1008600072E00E94531566E0C8010E9498152BE0C3
:1008700088E190E00FB6F894A895809360000FBED1
:1008800020936000FFCF6BE0F801868197812F8372
:100890000E9498155C0168E472E00E945315D5012E
:1008A000ED91FC910280F381E02D2F81622FC50133
:1008B00009956BE0C5010E94981568E572E00E94F9
:1008C000531568CF65E272E0F801868197810E9436
:1008D000531560CFF80186819781DC01ED91FC9181
:1008E0000280F381E02D622F2F830995CC0CDD1C53
:1008F000EE1CFF1CB701A601440F551F661F771F92
:10090000440F551F661F771F4C0D5D1D6E1D7F1D0B
:100910002F81C22EDD24C7FCD094B0E3CB1AD108BE
:10092000EE24D7FCE094FE2CC40ED51EE61EF71E66
:1009300031CF8091180390911903DC01ED91FC9166
:100940000480F581E02D0995882309F423CFD8018F
:100950001696ED91FC9117970190F081E02DA28001
:10096000B3808091180390911903DC01ED91FC9103
:100970000680F781E02D0995682FF801868197811F
:10098000F501099507CF6BE0F801868197810E94F8
:1009900098157C0162E872E00E94531566E0C70179
:1009A0000E94981561E0C8010E949011C12CD12CC1
:1009B0007601F0CECE0101960E948414BC01F801AC
:1009C000868197810E94231466E00E949815E2CEEA
:1009D000C8010E94C402DECE8F3351F1843601F18A
:1009E000833009F011CF6BE0D80116968D919C9160
:1009F00017970E9498158C0164E772E00E945315C6
:100A000066E0C8010E9498152BE088E190E00FB6DF
:100A1000F894A895809360000FBE20936000FFCFEC
:100A2000D80116968D919C9117970E94EF11B2CE26
:100A3000C8010E945002AECECF93DF9300D000D009
:100A4000CDB7DEB78C010E94840B69837A838B83D8
:100A50009C8382E090E00E941C157C01F801668175
:100A600077810E946D0580E18DB981E380939000CC
:100A70008BE08093910060E0C7010E94A2059695EB
:100A800087959695879590939B0080939A00F8019F
:100A900046855785608971894F5F5F4F6F4F7F4FE4
:100AA00046875787608B718B44E650E060E070E0CA
:100AB000CE0101960E94240DDECF0F931F93CF939A
:100AC000DF93EC010E94DA1083E392E0998388833C
:100AD000DF91CF911F910F910895CF93DF93FC0188
:100AE0007183608320917A00206820937A0020919E
:100AF0007A00216020937A0020917A002D7F209344
:100B00007A0020917A00246020937A0020917C0062
:100B1000206420937C0020917C002F7720937C0020
:100B2000C081D181209759F067E372E0CE010E9425
:100B3000531566E0CE01DF91CF910C949815DF91AB
:100B4000CF91089580917C00887F80937C00809174
:100B50007C006770682B60937C0080917A008064D1
:100B600080937A0080917A0086FDFCCF8091780096
:100B7000909179000895403430F1ECE3F0E04CE3DB
:100B8000677080E090E020917C00287F20937C00BB
:100B900020917C00262B20937C0020917A002064F9
:100BA00020937A0020917A0026FDFCCF20917800D6
:100BB00030917900820F931F415029F7BF010E94A5
:100BC0000020CB010895442319F0E42FF0E0D8CFA2
:100BD000E0E0F0E080E090E0BF010E940020CB0167
:100BE00008952F923F924F925F926F927F928F92D1
:100BF0009F92AF92BF92CF92DF92EF92FF920F93AC
:100C00001F93CF93DF9300D000D000D0CDB7DEB7D5
:100C10009E838D8380917C00887F80937C0080916F
:100C20007C00876080937C0080917A008064809350
:100C30007A0080917A0086FDFCCF20917800309177
:100C4000790080917C00887F80937C0080917C007B
:100C5000866080937C0080917A00806480937A0023
:100C600080917A0086FDFCCF20907800309079004A
:100C700080917C00887F80937C0080917C008560DF
:100C800080937C0080917A00806480937A008091C8
:100C90007A0086FDFCCF40907800509079008091DA
:100CA0007C00887F80937C0080917C0084608093AE
:100CB0007C0080917A00806480937A0080917A0031
:100CC00086FDFCCF009178001091790080917C0026
:100CD000887F80937C0080917C00836080937C007F
:100CE00080917A00806480937A0080917A0086FDFA
:100CF000FCCFE0907800F090790080917C00887FB4
:100D000080937C0080917C00826080937C00809145
:100D10007A00806480937A0080917A0086FDFCCF0F
:100D2000C0907800D090790080917C00887F80937B
:100D30007C0080917C00816080937C0080917A00AF
:100D4000806480937A0080917A0086FDFCCFA09029
:100D50007800B090790080917C00887F80937C003F
:100D600080917C0080937C0080917A0080648093E5
:100D70007A0080917A0086FDFCCF80907800909078
:100D8000790040917C0050917A006BE08D819E81CA
:100D90002B833C834A8359830E9498153C016DEC58
:100DA00072E00E9453155981652FC3010E945F169E
:100DB00066E00E9498156BE00E9498153C0166ED74
:100DC00072E00E9453154A81642FC3010E945F168E
:100DD00066E00E9498156BE00E9498153C016EED4C
:100DE00072E00E945315B401C3010E94DD1566E054
:100DF0000E9498156BE00E9498154C0166EE72E017
:100E00000E945315B501C4010E94DD1566E00E94E1
:100E100098156BE00E9498155C016EEE72E00E94DE
:100E20005315B601C5010E94DD1566E00E949815B4
:100E30006BE00E9498156C0166EF72E00E945315FA
:100E4000B701C6010E94DD1566E00E9498156BE0AF
:100E50000E9498157C016EEF72E00E945315B80154
:100E6000C7010E94DD1566E00E9498156BE00E94A4
:100E700098158C0166E073E00E945315B201C80119
:100E80000E94DD1566E00E9498156BE00E9498159F
:100E90008C016EE073E00E945315B101C8010E94FD
:100EA000DD1566E00E9498156BE00E9498158C0194
:100EB00066E173E00E9453152B813C81B901C801A2
:100EC0000E94DD1566E00E9498158D819E81269610
:100ED0000FB6F894DEBF0FBECDBFDF91CF911F914B
:100EE0000F91FF90EF90DF90CF90BF90AF909F90C9
:100EF0008F907F906F905F904F903F902F900895CC
:100F0000FF920F931F93CF93DF93EC017983688354
:100F100080918000816A80938000809181008A6046
:100F2000809381004130A9F0423019F10990D881B5
:100F3000C02D2097C1F06DE872E0CE010E945315DC
:100F400066E0CE01DF91CF911F910F91FF900C943D
:100F5000981587B1876087B9329A269A08811981D6
:100F60000115110511F5DF91CF911F910F91FF90A0
:100F700008958AB1806E8AB94F9A259A088119819D
:100F80000115110581F36FE672E0C8010E94531547
:100F900066E0C8010E9498150881198101151105A4
:100FA00011F3FAB066E872E011C06AE472E0C801B9
:100FB0000E94531566E0C8010E94981508811981A6
:100FC0000115110581F2F7B061E672E0C8010E94D7
:100FD000531560E0C8010E9498156F2D0E945F169E
:100FE00066E00E9498150990D881C02D209709F4D9
:100FF000BACF14B168E672E0CE010E945315612F9A
:10100000CE010E945F1666E0DF91CF911F910F9194
:10101000FF900C949815CB01413031F0423019F417
:1010200077FD0BC04E9A089577FD02C0319A08955E
:10103000309A91958195910908954D9A9195819550
:101040009109089586B1836086B989B1806689B9AE
:10105000089586B186B970E070938B0060938A0022
:1010600089B189B9709389006093880008958C01D3
:1010700082E090E00E941C15EC01F8016681778106
:1010800041E00E94800782E090E00E941C157C01F4
:10109000F8016681778142E00E94800741E06FEFAE
:1010A00070E0CE010E940B088C0142E061E07FEF0E
:1010B000C7010E940B0810938B0000938A00909345
:1010C00089008093880068EE73E080E090E00E94E1
:1010D0008B0DCE010E94220841E062E370E0CE0158
:1010E0000E940B0890938B0080938A0068EE73E057
:1010F00080E090E00E948B0D61E0CE010E94290803
:10110000E2CF0F931F93CF93DF93EC010E94DA108D
:1011100082EC92E099838883DF91CF911F910F91A8
:1011200008950F931F93CF93DF93EC010E947E0BE2
:1011300080911A03811121C084E293E090932003EF
:1011400080931F03109222031092210387E397E1FB
:1011500090931E0380931D0310921C0310921B0397
:1011600090932703809326038BE193E090932503CC
:101170008093240381E080931A03209709F460C0D0
:10118000AE014C5F5F4F2396C633D74108F058C07D
:10119000E0911F03F0912003AFE1B3E006C080812E
:1011A0009181009739F0DF01FC01228133812417FE
:1011B0003507A8F3C3E0EB31FC0709F441C00D91FA
:1011C0001C9111970C5F1F4F808191818D939C938F
:1011D000C901841B950B8930910500F1BF01640F93
:1011E000751FDB0113969C938E9312975383428352
:1011F00012968D919C911397AFE1B3E001C0DF018E
:10120000ED91FC9111972281338128173907B8F3AA
:10121000EB01F983E8836D937C939A01809100023E
:1012200090910102821B930B909301028093000224
:101230000E94B10CC801DF91CF911F910F910895C9
:1012400000E010E00E94B10CC801DF91CF911F9126
:101250000F910895CF93DF93009721F1EC0124972C
:101260000E947E0B4A815B81AFE1B3E001C0DF01E8
:10127000ED91FC9111972281338124173507B8F342
:10128000F983E883CD93DC93809100029091010271
:10129000840F951F9093010280930002DF91CF91FC
:1012A0000C94B10CDF91CF91089580910002909140
:1012B0000102089508958091901A823018F00E94DA
:1012C000DD19F9CFFFCFCF92DF92EF92FF926B0142
:1012D0007C01E0915B1AF0915C1A628373838483D2
:1012E00095838091641A9091651AA091661AB091C5
:1012F000671A60915B1A70915C1AC816D906EA06E3
:10130000FB0610F18091781A9091791A6E5F7F4FE9
:101310000E94A4188091020290910302A0910402FD
:10132000B0910502C816D906EA06FB0640F4C09241
:101330000202D0920302E0920402F0920502FF90B2
:10134000EF90DF90CF9008958091761A9091771A60
:101350006E5F7F4FFF90EF90DF90CF900C94A418BA
:101360005F926F927F928F929F92AF92BF92CF9235
:10137000DF92EF92FF920F931F93CF93DF934C0175
:10138000162F572E5A01390189E290E00E949108E8
:10139000EC01009709F4E9C0C114D10409F4DAC0E2
:1013A000DC8ECB8EC601A50165EA70E00E94692142
:1013B00021E0A21AB108CB8CDC8CCA0CDB1CAE017C
:1013C000435E5F4FE12FF52D2AE0CF013191DA0125
:1013D0003D93AD01DC018C91882311F02150A9F7D8
:1013E0001EA2102F043008F07DC01A8F1FA318A66C
:1013F0005E01B2E0AB0EB11CC5010E947F18CE01A8
:101400000E960E947F18DB87CA8784E090E0A0E0F8
:10141000B0E0811B9109A109B1098E879F87A88B34
:10142000B98BDF8BCE8BA301B401C6010E940D19CD
:1014300099838883E114F10419F0F701D183C08303
:101440000FB6F8940F928091681A8F5F8093681A94
:1014500080915B1A90915C1A892B09F449C08091A4
:10146000621A81110BC0E0915B1AF0915C1A828DB7
:10147000081720F0D0935C1AC0935B1A80915E1A13
:101480008F5F80935E1A8A8D9091631A981738F156
:10149000FBE08F9FC0011124B5018057954E0E943B
:1014A00083180F900FBE8091621A882339F0E09163
:1014B0005B1AF0915C1A828D8017B0F081E0DF91A9
:1014C000CF911F910F91FF90EF90DF90CF90BF9041
:1014D000AF909F908F907F906F905F9008958093D2
:1014E000631AD6CF13E081CF0E94DD1981E0E7CFE8
:1014F000D0935C1AC0935B1A8091681A813009F00E
:10150000BDCF80E99AE10E946E188BE99AE10E94B2
:101510006E1886EA9AE10E946E1881EB9AE10E94A9
:101520006E1885E89AE10E946E188AE79AE10E9497
:101530006E188BE69AE10E946E1885E89AE1909306
:10154000791A8093781A8AE79AE19093771A8093B0
:10155000761A94CFC5010E9491089C8F8B8F0097BB
:1015600009F021CFCE010E942A098FEFA8CF0FB634
:10157000F8940F92009729F00F900FBEFC01828D16
:10158000089580915B1A90915C1A0F900FBEFC0138
:10159000828D0895EF92FF921F93CF93DF93EC011A
:1015A000262F643008F023E00FB6F8940F922097AE
:1015B00009F44AC03FA13217A9F180915B1A9091BA
:1015C0005C1A3217B8F5C817D90741F0E0915B1AD9
:1015D000F0915C1A11E0828D281708F410E08A8DD2
:1015E000381769F12FA34E855F856889798977FD62
:1015F0000CC044E050E060E070E0421B510961091A
:1016000071094E875F87688B798B2BE0829FC001C1
:1016100011248057954E2C853D8528173907C9F030
:10162000113079F00F900FBEDF91CF911F91FF9095
:10163000EF90089511E0C817D90781F6D0CF2A8F0F
:10164000D1CF0E94DD19EECFC0915B1AD0915C1A08
:10165000B1CF7E0182E0E80EF11CC7010E94E118C3
:101660008A8D9091631A981710F48093631A2BE077
:10167000829FC0011124B7018057954E0E948318A4
:10168000CFCFAF92BF92CF92DF92EF92FF920F93A4
:10169000A12CB12CC12CD12C89E6E82E8AE1F82EA0
:1016A00000E020E030E044E650E066EC72E08BE5DC
:1016B00099E00E94B009813041F00F91FF90EF90C6
:1016C000DF90CF90BF90AF900895F8948093621A06
:1016D0001092641A1092651A1092661A1092671A84
:1016E0000F91FF90EF90DF90CF90BF90AF900C9450
:1016F000A119F8941092621A0C94DC1980915D1A69
:101700008F5F80935D1A08950FB6F8940F926091E1
:10171000641A7091651A8091661A9091671A0F90F9
:101720000FBE08956091641A7091651A8091661ACF
:101730009091671A08958091681A0895009711F0A2
:101740004D96089580915B1A90915C1A4D9608957C
:101750008091691A90916A1A0895AF92BF92CF92C0
:10176000DF92EF92FF920F931F93CF93DF938091BD
:101770005D1A8111CFC08091641A9091651AA09171
:10178000661AB091671A0196A11DB11D8093641A63
:101790009093651AA093661AB093671AC090641A62
:1017A000D090651AE090661AF090671AC114D104BF
:1017B000E104F10439F58091781A9091791A209119
:1017C000761A3091771A3093791A2093781A909379
:1017D000771A8093761A80915F1A8F5F80935F1AD1
:1017E000E091781AF091791A808181119AC08FEF77
:1017F0009FEFDC018093020290930302A093040206
:10180000B09305028091020290910302A09104021C
:10181000B0910502B12CC816D906EA06FB0608F4F9
:1018200057C09BE0A92EE091781AF091791A808137
:10183000882309F442C0E091781AF091791A078060
:10184000F085E02DC085D1854A815B816C817D81E9
:10185000C416D506E606F70608F47AC08E010E5FB8
:101860001F4FC8010E94E118888D998D892B21F0A6
:10187000CE010E960E94E1188A8D9091631A9817F6
:1018800010F48093631AA89EC0011124B8018057F8
:10189000954E0E948318E0915B1AF0915C1A9A8D24
:1018A000828D981708F4BFCFBB24B394E091781AC7
:1018B000F091791A80818111BECF4FEF5FEFBA01AD
:1018C0004093020250930302609304027093050256
:1018D000E0915B1AF0915C1AE28D8BE0E89FF001D9
:1018E0001124E057F54E8081823010F0BB24B39470
:1018F0008091601A882311F0BB24B3948B2DDF9163
:10190000CF911F910F91FF90EF90DF90CF90BF90FC
:10191000AF9008958091611A8F5F8093611AB12C06
:10192000E7CFE091781AF091791A0780F085E02DE1
:101930000084F185E02D82819381A481B58180931B
:10194000020290930302A0930402B09305025ACFBF
:1019500040930202509303026093040270930502C5
:10196000B7CFEF92FF920F931F93CF93DF930FB6F2
:10197000F8940F9280915D1A815080935D1A809146
:101980005D1A811150C08091681A882309F44BC0F8
:101990002BE0F22EEE24E39427C0E091721AF0912E
:1019A000731AC085D185CE010E960E94E1188E0172
:1019B0000E5F1F4FC8010E94E1188A8D9091631A33
:1019C000981710F48093631AF89EC0011124B8018F
:1019D0008057954E0E948318E0915B1AF0915C1A33
:1019E0009A8D828D981748F580916B1A8111D5CF09
:1019F0008091611A882399F08091611A882379F087
:101A0000C1E00E94AD0B8111C093601A8091611AF0
:101A100081508093611A8091611A8111F2CF809177
:101A2000601A813069F080E00F900FBEDF91CF9196
:101A30001F910F91FF90EF900895E092601AD4CF1C
:101A40000E94DD1981E0F0CFCF92DF92EF92FF92FA
:101A50000F931F93CF93DF9300D000D0CDB7DEB7A5
:101A600020915D1A2F5F20935D1AC090641AD09068
:101A7000651AE090661AF090671AFC0100811181E6
:101A800022813381400F511F621F731FC016D10680
:101A9000E206F306E8F44017510762077307E8F01F
:101AA000FC0140835183628373830E94B10C8111D6
:101AB00002C00E94DD190F900F900F900F90DF91E0
:101AC000CF911F910F91FF90EF90DF90CF900895ED
:101AD000401751076207730728F0C416D506E606BB
:101AE000F706F0F6FC014083518362837383809193
:101AF0005B1A90915C1A029649835A836B837C83AC
:101B00000E94E11849815A816B817C81CB01BA0125
:101B10000E946309CACFCF92DF92EF92FF926115C4
:101B200071058105910539F40E94DD19FF90EF9050
:101B3000DF90CF90089520915D1A2F5F20935D1A5A
:101B4000C090641AD090651AE090661AF090671AF7
:101B5000C60ED71EE81EF91E80915B1A90915C1A82
:101B600002960E94E118C701B6010E9463090E9413
:101B7000B10C8823C9F2FF90EF90DF90CF900895C9
:101B800080915D1A81113BC01092601AE091631A36
:101B90008BE0E89FF0011124E057F54E8081811120
:101BA00010C09BE08091631A81508093631AE0918A
:101BB000631A9E9FF0011124E057F54E808188231F
:101BC00089F3E091631A8BE0E89FF0011124E0575C
:101BD000F54EA181B28114960D90BC91A02DB283D7
:101BE000A183CF010396A817B90769F018968D91C4
:101BF0009C91199790935C1A80935B1A089581E0E9
:101C00008093601A089514969C91149715968C9160
:101C100091838283A92FB82FE9CFCF92DF92EF92E1
:101C2000FF926A017B0160915B1A70915C1A625F9E
:101C30007F4F0E94A41880915B1A90915C1A0296C3
:101C40000E94E1186091641A7091651A8091661A79
:101C50009091671A6C0D7D1D8E1D9F1DFF90EF905A
:101C6000DF90CF900C946309CF92DF92EF92FF92B6
:101C70000F931F9368017901E0915B1AF0915C1A50
:101C8000706846875787608B718B60915B1A709183
:101C90005C1A625F7F4F0E94831880915B1A90915B
:101CA0005C1A02960E94E1186091641A7091651A9C
:101CB0008091661A9091671A6C0D7D1D8E1D9F1D77
:101CC0001F910F91FF90EF90DF90CF900C946309DC
:101CD0000F931F93CF93DF93DC011796ED91FC9147
:101CE0001897C085D1858E01025F1F4FC8010E94E1
:101CF000E11880915D1A811124C08E010E5F1F4F83
:101D0000C8010E94E1188A8D9091631A9817F8F023
:101D1000BBE08B9FC0011124B8018057954E0E94F3
:101D20008318E0915B1AF0915C1A9A8D828D891765
:101D300088F481E08093601ADF91CF911F910F9119
:101D40000895B8018BE69AE10E948318EACF809348
:101D5000631ADECF80E0DF91CF911F910F9108953C
:101D60000F931F93CF93DF937068FC0140835183DF
:101D700062837383C085D1850E94E1188E010E5F56
:101D80001F4FC8010E94E1188A8D9091631A98171D
:101D900010F48093631AFBE08F9FC0011124B801F7
:101DA0008057954E0E948318E0915B1AF0915C1A5F
:101DB0009A8D828D891740F481E08093601ADF91BB
:101DC000CF911F910F91089580E0DF91CF911F91E6
:101DD0000F91089520915F1AFC0120834091641AAD
:101DE0005091651A6091661A7091671A4183528307
:101DF0006383748308958F929F92AF92BF92CF9224
:101E0000DF92EF92FF920F931F93FC01DB010FB65D
:101E1000F8940F924091641A5091651A6091661A75
:101E20007091671A80915F1A9081018112812381DC
:101E30003481981729F0401751076207730770F52E
:101E4000CD90DD90ED90FC9013974A015B01801AD4
:101E5000910AA20AB30A8C149D04AE04BF04F0F4E4
:101E6000C41AD50AE60AF70AC00ED11EE21EF31EF6
:101E7000CD92DD92ED92FC92139780915F1A808350
:101E80008091641A9091651AA091661AB091671AB0
:101E900081839283A383B48380E001C081E00F90AB
:101EA0000FBE1F910F91FF90EF90DF90CF90BF90EA
:101EB000AF909F908F90089581E08093601A08956D
:101EC000009799F0DC015B96ED91FC915C97808125
:101ED000853A81F4319680E090E0DC010196A11D05
:101EE000B11D2191253AD1F3089580915B1A90910B
:101EF0005C1AE8CF80E0089580915B1A90915C1A9B
:101F000008950F931F93CF93DF93EC01009781F116
:101F10008A8DE0915B1AF0915C1A928D891740F5D9
:101F20004E855F856889798977FD11C0E0915B1ADC
:101F3000F0915C1A928D44E050E060E070E0491B43
:101F40005109610971094E875F87688B798B2BE096
:101F5000829FC00111248057954E2C853D852817FE
:101F6000390759F0E0915B1AF0915C1A828D8A8FE3
:101F7000DF91CF911F910F9108958E010E5F1F4F3A
:101F8000C8010E94E118E0915B1AF0915C1A828D01
:101F90008A8F9091631A981710F48093631A2BE03C
:101FA000829FC0011124B8018057954EDF91CF91D7
:101FB0001F910F910C9483180F931F93CF93DF936E
:101FC000EC01009749F088A5815088A72A8D9FA130
:101FD000291711F0882331F080E0DF91CF911F9114
:101FE0000F9108958E010E5F1F4FC8010E94E118E6
:101FF0008FA18A8F44E050E060E070E0481B5109F7
:10200000610971094E875F87688B798B9091631A9C
:10201000981710F48093631A2BE0829FC00111245B
:10202000B8018057954E0E94831881E0DF91CF91CF
:102030001F910F910895CF92DF92EF92FF92E0915E
:102040005B1AF0915C1A6685778580899189E091A9
:102050005B1AF0915C1AA0915B1AB0915C1A5A96C7
:102060002C9134E0C32ED12CE12CF12CC21AD108D2
:10207000E108F108C686D786E08AF18AFF90EF90E2
:10208000DF90CF90089580915B1A90915C1A892B14
:1020900039F0E0915B1AF0915C1A80A58F5F80A700
:1020A00080915B1A90915C1A0895EF92FF920F93C2
:1020B0001F93CF93DF9300D0CDB7DEB77C018FECB9
:1020C00092E0F7019183808361157105C1F0FB01F6
:1020D00001900020E9F73197E61BED3020F50E2F37
:1020E00010E0C801019669837A830E942315F701E5
:1020F00095838483A80169817A810E9470218091EF
:10210000BC1A9091BD1AF70197838683F092BD1A8D
:10211000E092BC1A0F900F90DF91CF911F910F9119
:10212000FF90EF900895ECE0DACF0F931F93CF93D9
:10213000DF93EC018091BC1A9091BD1A6BE0892B62
:1021400049F1CE010E9498158C016FE573E00E9461
:10215000531566E0C8010E9498156BE0CE010E94FD
:1021600098158C016CE373E00E94531566E0C8017A
:102170000E9498158091BC1A9091BD1ADC01ED91D6
:10218000FC910190F081E02DBE01DF91CF911F9174
:102190000F910994CE010E949815EC016EE173E055
:1021A0000E94531566E0CE01DF91CF911F910F91F0
:1021B0000C9498154F925F926F927F928F929F929C
:1021C000AF92BF92CF92DF92EF92FF920F931F9345
:1021D000CF93DF93EC013B0149012801FC0185ED20
:1021E00092E081939193A12CB12CC12CD12C7F0131
:1021F000042F9E01A40183EA9FE10E94B0095F823F
:102200004E82998688862091BE1A3091BF1A3D83EE
:102210002C83D093BF1AC093BE1A1C861D86809053
:10222000CC1A9090CD1A9FEF891A990A9092CD1AE4
:102230008092CC1A9B868A861E861F86188A198AE7
:102240004114510409F44CC06BE0813041F1C201EA
:102250000E949815EC0162E873E00E945315B301E7
:10226000CE010E945315E881F9810280F381E02DAF
:1022700062E2CE01099566E0CE01DF91CF911F9118
:102280000F91FF90EF90DF90CF90BF90AF909F9015
:102290008F907F906F905F904F900C949815C20133
:1022A0000E949815EC0168E973E00E945315B30190
:1022B000CE010E9453156BE0CE010E949815EC01EF
:1022C0006FE973E00E94531563E0CE010E949815F8
:1022D000B4010E94DD1562E00E94981566E0CDCF42
:1022E000DF91CF911F910F91FF90EF90DF90CF90F2
:1022F000BF90AF909F908F907F906F905F904F9026
:102300000895EC01E881F9810190F081E02D0995B3
:102310001B821A826FEF7FEFCB010E948B0DFACFE9
:10232000FC01648765870895FC01C681D7812097E9
:1023300039F0CE010E94531566E0CE010E94981537
:102340002BE088E190E00FB6F894A89580936000A8
:102350000FBE20936000FFCF0E94840B0E94D2200A
:1023600020E030E04AE754E40E946A200895CF92CA
:10237000DF92EF92FF920F931F93CF93DF93EC01C5
:102380007B018A819B810E949E0B6C016BE0C701DF
:102390000E9498158C0166EB73E00E945315B601FC
:1023A000C8010E94531566E0C8010E9498158A85ED
:1023B0009B8528853985A701BC01821B930B0E9450
:1023C0009C140C80DD81C02D2097D9F6DF91CF9130
:1023D0001F910F91FF90EF90DF90CF9008950F9392
:1023E0001F93CF93DF93EC018091BE1A9091BF1A97
:1023F000009719F0BE010E94B7116BE0CE010E9458
:1024000098158C016DEB73E00E94531566E0C801CE
:102410000E9498158091CC1A9091CD1ABC016F5FE3
:102420007F4FAE0183569109DF91CF911F910F919C
:102430000C949C148F929F92AF92BF92CF92DF9296
:10244000EF92FF920F931F93CF93DF93EC018B01D9
:102450008A819B810E949E0BBC01C8010E9453157A
:10246000D801ED91FC910280F381E02D69E0C80173
:1024700009958A819B810E949E0BFC01019000209E
:10248000E9F73197E81BF90B389748F4D801ED913B
:10249000FC910280F381E02D69E0C8010995CE84AA
:1024A000DF84E888F988A884B9848A819B810E94A6
:1024B000600F982E8C848A819B810E94B70A682FB6
:1024C000C8010E945F166BE00E949815EC0161E361
:1024D00074E00E945315682DCE010E945F166BE0D8
:1024E0000E949815EC0163E374E00E945315692D76
:1024F000CE010E945F166BE00E949815EC0165E327
:1025000074E00E945315B501CE010E94DD156BE009
:102510000E949815EC0167E374E00E9453156BE08C
:10252000CE010E949815EC0169E374E00E945315F6
:10253000B701A601CE01DF91CF911F910F91FF90BE
:10254000EF90DF90CF90BF90AF909F908F900C94C2
:1025500017160F931F93CF93DF93EC018B01E88144
:10256000F9810280F381E02DB801CE01099566E082
:10257000C8010E9498150C80DD81C02D209779F745
:10258000DF91CF911F910F910895CF93DF93EC01CD
:10259000CB01DB01ED91FC910280F381E02DBE01C6
:1025A0000995CE01DF91CF9108950F931F93CF939B
:1025B000DF93EC016BE00E9498158C016FE174E0F1
:1025C0000E9453156BE0C8010E9498158C016AE2C5
:1025D00074E00E94531566E0C8010E9498156BE0F4
:1025E000CE010E9498158C016CEF73E00E94531588
:1025F0006BE0C8010E9498158C016DE074E00E94A8
:1026000053156BE0C8010E9498158C0169E174E0D4
:102610000E94531566E0C8010E9498156BE0CE0138
:102620000E9498158C0169ED73E00E9453156BE0D0
:10263000C8010E9498158C016AEE73E00E94531540
:102640006BE0C8010E9498158C0166EF73E00E9450
:10265000531566E0C8010E9498158091BE1A9091AA
:10266000BF1A009719F0BE010E94A9120E94A80B80
:102670000E94600F182F6BE0CE010E949815EC01AC
:1026800068EC73E00E945315612FCE010E945F1623
:102690006BE00E949815EC0163ED73E00E94531506
:1026A00064E670E0CE010E94DD156BE00E94981593
:1026B000EC0165ED73E00E94531566E0CE01DF91F9
:1026C000CF911F910F910C949815CF92DF92EF92BA
:1026D000FF920F931F93CF93DF937C018B01DC015B
:1026E0001A966D917C911B97C8010E945315F701B2
:1026F000A285B385FD0101900020E9F73197DE2E18
:10270000DA1AFFE0FD1580F0C0E0D0E0D801ED91CD
:10271000FC910280F381E02D60E2C80109952196C9
:102720008C2F8D0D803190F369ED72E0C8010E940D
:102730005315D7015696CD90DC9057971E968D91E4
:102740009C911F970E94361E682FC8010E945F1639
:10275000EC01E881F9810280F381E02D6FE20995B7
:10276000B601CE010E94DD15DC01ED91FC910280E5
:10277000F381E02D69E0099566E0C8010E94981593
:10278000F70184859585009781F0DC01ED91FC913E
:102790000190F081E02DB801DF91CF911F910F9151
:1027A000FF90EF90DF90CF900994DF91CF911F9130
:1027B0000F91FF90EF90DF90CF9008956F927F92EE
:1027C0008F929F92AF92BF92CF92DF92EF92FF9241
:1027D0000F931F93CF93DF93EC01762E672E4A0160
:1027E0005901670178010E944815B401CE0106968F
:1027F0000E94551084EE92E09983888326EF32E0A0
:102800003F832E83BD8AAC8A40E061E0872D0E9421
:10281000A71B9F878E87C88AD98AEA8AFB8A7E8A05
:102820006F8ADF91CF911F910F91FF90EF90DF9012
:10283000CF90BF90AF909F908F907F906F900895B2
:1028400006970C946513CF92DF92EF92FF920F934D
:102850001F93CF93DF93CDB7DEB72F970FB6F894C2
:10286000DEBF0FBECDBF8C017B01DB016D917D9181
:102870008D919C9128EE33E040E050E00E941420BE
:10288000BA01A901C8010E941716D801ED91FC9167
:102890000280F381E02D6EE2C8010995C7010E9414
:1028A0005F1E6E01B9E0CB0ED11C7E01EFE0EE0E93
:1028B000F11C2AE030E040E050E00E943620E62F94
:1028C00029833A834B835C8369817A818B819C81E4
:1028D000E05DD701EE937D01AC15BD0551F71F8674
:1028E000BD01C8010E945315C8012F960FB6F89478
:1028F000DEBF0FBECDBFDF91CF911F910F91FF9033
:10290000EF90DF90CF900895CF93DF93EC010FB657
:10291000F8940F9280912401909125019D838C83DE
:102920000E94840B688379838A839B830F900FBEF8
:10293000CE01DF91CF9108958F929F92AF92BF9277
:10294000CF92DF92EF92FF920F931F93CF93DF937B
:102950006C014B01EA0163E0CA010E949815C8149A
:10296000D90408F059C0560184E1A80EB11C7501C4
:10297000B601CE010E94DD156BE00E9498156BE355
:1029800074E00E9453158601F80161918F01CE0118
:102990000E945F16E881F9810280F381E02D60E2F8
:1029A000CE0109950E151F0579F7E881F98102809E
:1029B000F381E02D60E2CE0109950FC080EE860F15
:1029C000E881F9810280F381E02D8F3508F06EE215
:1029D000CE010995CE14DF0481F0F60161916F01FB
:1029E000653A61F7E881F9810280F381E02D60E2C8
:1029F000CE010995CE14DF0481F7650166E0CE01B2
:102A00000E949815F4E1EF0EF11CA814B90420F40B
:102A1000C50144965C01ACCF62E0CE01DF91CF915D
:102A20001F910F91FF90EF90DF90CF90BF90AF90EC
:102A30009F908F900C9498150C949108009711F02A
:102A40000C942A0908950C949108009711F00C94A5
:102A50002A090895FC0181E090E02081222311F0F1
:102A600080E090E0089521E0FC012083089508951E
:102A7000089581E0089580E0089580E00895089524
:102A8000DC01ED91FC910280F381E02D6CE0099472
:102A9000FC018CEF92E0918380838AE0828383E063
:102AA0008583148208950F931F93CF93DF93EC01D6
:102AB000FB018C81811117C06081662379F08F0141
:102AC0000F5F1F4FE881F9810280F381E02DCE0175
:102AD0000995F80161918F016111F4CFDF91CF91D8
:102AE0001F910F9108951C828B010F5F1F4F6491FE
:102AF0006623A1F3A881B9811296ED91FC911397F9
:102B0000CE010995F80164910F5F1F4F6111F2CF5B
:102B1000E5CF883008F087E08093070289E00895C8
:102B20009EEF980F9F3010F4809306028AE008957C
:102B3000CF93DF93EC01462F50E04C30510538F431
:102B4000FA01EA59FF4F0C94552082E08A83CE01A6
:102B5000DF91CF91089581E08C83F9CF88E08A835B
:102B6000F6CF8AE08A83F3CF80E18A83F0CFE881D1
:102B7000F9810280F381E02D6DE00995E881F9810A
:102B80000280F381E02D6AE0CE010995E0CFE88173
:102B9000F9810284F385E02D0995D9CFE881F98187
:102BA0000084F185E02D0995D2CF809107028D83B5
:102BB000CECF809106028A83CACFFF920F931F93D4
:102BC000CF93DF93CDB7DEB761970FB6F894DEBF32
:102BD0000FBECDBF8C01F62E972FF80142814031F8
:102BE00091F0483081F0423071F050E0BE016F5FEB
:102BF0007F4F8F2D0E94A421BE016F5F7F4FC801C0
:102C00000E94531507C0692FC8010E945F166F2DDF
:102C10000E945F16C80161960FB6F894DEBF0FBE22
:102C2000CDBFDF91CF911F910F91FF900895DF925B
:102C3000EF92FF920F931F93CF93DF93CDB7DEB741
:102C4000A1970FB6F894DEBF0FBECDBF8C01D42E76
:102C5000E52EF62E972FF80122812031A1F02830A1
:102C600091F0223081F030E0AE014F5F5F4F6D2D6B
:102C70007E2D8F2D0E947F21BE016F5F7F4FC80187
:102C80000E9453150DC0692FC8010E945F166F2D59
:102C90000E945F166E2D0E945F166D2D0E945F16BA
:102CA000C801A1960FB6F894DEBF0FBECDBFDF916D
:102CB000CF911F910F91FF90EF90DF900895CF92E9
:102CC000DF92EF92FF920F931F93CF93DF93CDB7D5
:102CD000DEB729970FB6F894DEBF0FBECDBF8C01CB
:102CE000D62EDC0113968C91139781115DC0F801EB
:102CF00042814230D9F14031F1F050E0BE016F5FC6
:102D00007F4F8D2D90E00E94A421BE016F5F7F4F09
:102D1000C8010E945315C80129960FB6F894DEBF6A
:102D20000FBECDBFDF91CF911F910F91FF90EF901C
:102D3000DF90CF90089562956F700190F081E02D43
:102D40000280F381E02D6A30B8F5605DC801099515
:102D50006D2D6F70D801ED91FC910280F381E02D13
:102D60006A3060F1695CC8010995D5CF88E0E82E2A
:102D7000F12C90E8C92E0AC061E3C8010995C694F8
:102D8000B1E0EB1AF108E114F10429F28C2D8D2148
:102D9000D801ED91FC910280F381E02D8111ECCFFF
:102DA00060E3C8010995EBCFED91FC910280F381BE
:102DB000E02DC8010995AFCF695CC8CF605DD3CF66
:102DC000DC011896ED91FC91199780811C969C91DD
:102DD0001C97892359F421E23EE405C021503109B2
:102DE0002115310571F080818923C1F380811E9600
:102DF0009C911E97892B80831696ED91FC911797D5
:102E000060830895FC01878581111DC02091C81A37
:102E10003091C91A8091C61A9091C71A281739079C
:102E200089F0E091CA1AF091CB1AE20FF31F80816A
:102E30002F5F3F4F2032310518F11092C91A1092BE
:102E4000C81A0895FFCF2091C21A3091C31A8091F9
:102E5000C01A9091C11A2817390789F0E091C41A55
:102E6000F091C51AE20FF31F80812F5F3F4F203290
:102E7000310558F01092C31A1092C21A0895FFCF6C
:102E80003093C91A2093C81A08953093C31A209317
:102E9000C21A0895DC01ED91FC910280F381E02DCE
:102EA0006CE00994FC018785882369F081E04091FA
:102EB000C21A5091C31A2091C01A3091C11A4217F8
:102EC000530769F0089581E04091C81A5091C91ADA
:102ED0002091C61A3091C71A4217530799F780E01C
:102EE0000895EF92FF921F93CF93DF9300D0CDB759
:102EF000DEB77C01142F69837A830E944815412F25
:102F000069817A81C70106960E949D1E8CE093E03C
:102F1000F7019183808317871123E9F08091C9001D
:102F200080688093C90080E290E00E94231590930E
:102F3000C51A8093C41A1092C31A1092C21A109222
:102F4000C11A1092C01A0F900F90DF91CF911F916C
:102F5000FF90EF9008958091C10080688093C10038
:102F600080E290E00E9423159093CB1A8093CA1AB6
:102F70001092C91A1092C81A1092C71A1092C61A43
:102F80000F900F90DF91CF911F91FF90EF900895D8
:102F90001F920F920FB60F9211240BB60F922F9320
:102FA0003F938F939F93EF93FF932091C600E091FF
:102FB000CA1AF091CB1A8091C61A9091C71AE80FDD
:102FC000F91F20838091C61A9091C71A019680320A
:102FD0009105C0F49093C71A8093C61A2091C81A1D
:102FE0003091C91A28173907D1F0FF91EF919F91BD
:102FF0008F913F912F910F900BBE0F900FBE0F90AE
:103000001F9018951092C71A1092C61A80E090E08F
:103010002091C81A3091C91A2817390731F701963B
:103020009093C91A8093C81A8097F8F21092C91A1F
:103030001092C81ADACF1F920F920FB60F92112476
:103040000BB60F922F933F938F939F93EF93FF9322
:103050002091CE00E091C41AF091C51A8091C01A57
:103060009091C11AE80FF91F20838091C01A9091A6
:10307000C11A019680329105C0F49093C11A8093D1
:10308000C01A2091C21A3091C31A28173907D1F0FB
:10309000FF91EF919F918F913F912F910F900BBED8
:1030A0000F900FBE0F901F9018951092C11A10929A
:1030B000C01A80E090E02091C21A3091C31A2817FC
:1030C000390731F701969093C31A8093C21A8097FB
:1030D000F8F21092C31A1092C21ADACFFC010396CA
:1030E000928381834FEF5FEFBA01438354836583FB
:1030F0007683908787839287818710820895FC0169
:10310000138612860895CF93DF939C01FB01DC01A7
:103110001196CD91DC911297D583C4838E819F81C6
:10312000978386838E819F81DC0115967C936E93B5
:1031300014977F836E8333872287F90180818F5FA5
:103140008083DF91CF9108950F931F93CF93DF93E7
:10315000EB01088119812A813B810F3F4FEF140752
:103160002407340731F1DC01139601C0DF01149606
:10317000ED91FC9115974081518162817381041713
:1031800015072607370790F7FD83EC83D783C6839F
:10319000BF83AE831596DC93CE9314979B878A8763
:1031A000FC0120812F5F2083DF91CF911F910F9130
:1031B0000895FC01A185B2851496ED91FC911597B7
:1031C000E3CFCF93DF93FC01A285B38524813581C2
:1031D00086819781E9019F838E8386819781EC01A7
:1031E0003D832C8311962D913C9112972E173F070A
:1031F00041F0138612868C9181508C93DF91CF9190
:10320000089512969C938E931197138612868C9133
:1032100081508C93DF91CF9108959093CD1A809334
:10322000CC1A31E1FC013083319722E22083FC018A
:103230003297A3E3A083FC0133976083FC013497AA
:103240007083FC0135971082FC01369760E860833B
:10325000FC0137971082FC01389762E06083FC0123
:10326000399763E06083FC013A9764E06083FC0176
:103270003B9765E06083FC013C9766E06083FC015E
:103280003D9767E06083FC013E9768E06083FC0146
:103290003F9769E06083FC01709760E16083FC0107
:1032A00071973083FC01729732E13083FC01739790
:1032B00033E13083FC01749734E13083FC0175976E
:1032C00035E13083FC01769736E13083FC01779756
:1032D00037E13083FC01789738E13083FC0179973E
:1032E00039E13083FC017A9730E23083FC017B972F
:1032F00031E23083FC017C972083FC017D9723E23F
:103300002083FC017E974083FC017F975083FC0162
:10331000B09726E22083FC01B19727E22083FC01CD
:10332000B29728E22083FC01B39729E22083FC01B5
:10333000B49720E32083FC01B59721E3208386978F
:10334000089587E0809329018FEC809328018AE01B
:1033500080932101E3E7F0E0808182608083A09187
:103360005B1AB0915C1ACD91CDBFDD91DEBFFF91AC
:10337000EF91DF91CF91BF91AF919F918F917F910D
:103380006F915F914F913F912F911F910F91FF90FE
:10339000EF90DF90CF90BF90AF909F908F907F90F5
:1033A0006F905F904F903F902F901F900F900FBEA7
:1033B0000F90089581E0089508950F920FB6F89444
:1033C0000F921F9211242F923F924F925F926F9211
:1033D0007F928F929F92AF92BF92CF92DF92EF92A5
:1033E000FF920F931F932F933F934F935F936F938E
:1033F0007F938F939F93AF93BF93CF93DF93EF937D
:10340000FF93A0915B1AB0915C1A0DB60D920EB6A7
:103410000D920E94C00DA0915B1AB0915C1ACD91E3
:10342000CDBFDD91DEBFFF91EF91DF91CF91BF91D5
:10343000AF919F918F917F916F915F914F913F914C
:103440002F911F910F91FF90EF90DF90CF90BF9041
:10345000AF909F908F907F906F905F904F903F9034
:103460002F901F900F900FBE0F9008950F920FB6E0
:10347000F8940F921F9211242F923F924F925F92D5
:103480006F927F928F929F92AF92BF92CF92DF9274
:10349000EF92FF920F931F932F933F934F935F935E
:1034A0006F937F938F939F93AF93BF93CF93DF934C
:1034B000EF93FF93A0915B1AB0915C1A0DB60D9239
:1034C0000EB60D920E94AD0B81110E94C00DA0910D
:1034D0005B1AB0915C1ACD91CDBFDD91DEBFFF913B
:1034E000EF91DF91CF91BF91AF919F918F917F919C
:1034F0006F915F914F913F912F911F910F91FF908D
:10350000EF90DF90CF90BF90AF909F908F907F9083
:103510006F905F904F903F902F901F900F900FBE35
:103520000F9008950E94361A18951F93CF93DF933A
:10353000EC01142F88A181110DC088819981892BFC
:1035400009F44DC080E09E8D9F5F9E8FDF91CF91EB
:103550001F910895482F50E011111CC08C819D814E
:103560000E94602128A18C819D81820F911D9D83E5
:103570008C832A813B818217930720F3888199816C
:103580009D838C8380E09E8D9F5F9E8FDF91CF9186
:103590001F9108958E819F810E94602128A130E0B3
:1035A0003195219531098E819F81820F931F9F83D1
:1035B0008E83688179818617970730F48A819B8191
:1035C000820F931F9F838E83123009F0BBCF8E8DA5
:1035D000882309F4B7CF8E8D81508E8FB3CF8A8127
:1035E0009B810E94DC0F1B821A82ADCFFC01CB01B4
:1035F00040A1442399F050E026813781240F351FE4
:1036000037832683628173812617370720F0208154
:10361000318137832683B9010C94602108950F937B
:103620001F93CF93DF93EC010FB6F8940F928AA10A
:103630001816ECF48B898823D1F08E010D5E1F4F94
:1036400009C08AA181508AA38AA1181684F48B89A3
:10365000882369F0C8010E94680E882391F30E94B4
:103660005C0F8AA181508AA38AA1181684F38FEF78
:103670008AA30F900FBE0FB6F8940F9289A1181667
:10368000ECF488858823D1F08E01085F1F4F09C0B4
:1036900089A1815089A389A1181684F4888588237B
:1036A00069F0C8010E94680E882391F30E945C0FA4
:1036B00089A1815089A389A1181684F38FEF89A36A
:1036C0000F900FBEDF91CF911F910F910895CF936F
:1036D000DF93EC010FB6F8940F92288139818F8D1A
:1036E00078A1879FC0011124A901480F591F5B834E
:1036F0004A831E8E3D832C83871B9109820F931F63
:103700009F838E838FEF89A38AA3611112C088855E
:10371000811106C00F900FBE81E0DF91CF91089517
:10372000CE0108960E94680E8130A1F70E94DD1933
:10373000F1CFCE0108960E946E18CE0143960E94EA
:103740006E180F900FBE81E0DF91CF9108950F9317
:103750001F93CF93DF93182F062F882301F183E265
:1037600090E00E949108EC010097C9F0109FC00101
:10377000112401960E94910899838883892B61F016
:103780001F8F08A361E0CE010E94671BCE01DF916D
:10379000CF911F910F910895CE010E942A09C0E098
:1037A000D0E0CE01DF91CF911F910F9108956F92DC
:1037B0007F928F929F92AF92BF92CF92DF92EF92C1
:1037C000FF920F93CF93DF93CDB7DEB729970FB654
:1037D000F894DEBF0FBECDBF5C014B012E833F834B
:1037E0004887598720E03C0188E0680E711C0FB6BD
:1037F000F8940F92F501968D878D981708F459C0AB
:10380000023009F456C0CE80DF80E884F984CD28E8
:10381000CE28CF2809F46FC0222309F441C00F90AD
:103820000FBE0E947E0B0FB6F8940F92F50181A196
:103830008F3F09F43CC0F50182A18F3FB1F10F9099
:103840000FBEBE016A5F7F4FCE0101960E94FB0E44
:10385000811155C00FB6F8940F92F501968D0F9017
:103860000FBEF501878D981314C04E815F81688566
:103870007985C3010E940D0EC5010E940F1B0E9495
:10388000B10C882311F021E0B2CF0E94DD1921E0B4
:10389000AECFC5010E940F1B0E94B10C21E0A7CF43
:1038A000CE0101960E94EA0EBACF12A2C8CF11A291
:1038B000C2CF402FB401C5010E94951AF50193892A
:1038C000911124C0811128C00F900FBE81E029966C
:1038D0000FB6F894DEBF0FBECDBFDF91CF910F9131
:1038E000FF90EF90DF90CF90BF90AF909F908F9020
:1038F0007F906F9008950F900FBE80E0E8CFC501D4
:103900000E940F1B0E94B10C80E0E1CFC5014396DD
:103910000E94680E8130C1F60E94DD19D5CF0F9349
:10392000CF93DF9383E290E00E949108EC0100972F
:1039300001F11B821A82198218821D821C821F8249
:103940001E821E8E81E08F8F18A28FEF89A38AA31B
:10395000CE0108960E946E18CE0143960E946E1802
:1039600000E020E030E0A90160E070E0CE010E94BC
:10397000D71BCE01DF91CF910F9108950F931F9325
:10398000CF93DF93EC018A019E8D8F8D981740F0C5
:10399000223031F080E0DF91CF911F910F91089597
:1039A000422FCE010E94951A882331F0011511058E
:1039B00019F081E0F80180838AA18F3F49F08AA144
:1039C0008F5F8AA381E0DF91CF911F910F910895BE
:1039D0008B898823B9F3CE0143960E94680E882311
:1039E00089F30115110571F381E0F8018083D3CFCC
:1039F000AF92BF92CF92DF92EF92FF920F93CF934D
:103A0000DF93CDB7DEB729970FB6F894DEBF0FBEB0
:103A1000CDBF7C016B012E833F834887598790E09F
:103A2000570183E1A80EB11C0FB6F8940F92F7016D
:103A3000868D811169C04E815F8168857985452BAE
:103A4000462B472B09F47DC0992309F43EC00F9003
:103A50000FBE0E947E0B0FB6F8940F92F70181A162
:103A60008F3F09F43EC0F70182A18F3F09F43FC0A8
:103A70000F900FBEBE016A5F7F4FCE0101960E947C
:103A8000FB0E811171C00FB6F8940F92F701868D6D
:103A90000F900FBE81111EC0F70180819181892B8B
:103AA00041F14E815F8168857985C5010E940D0EC7
:103AB000C7010E940F1B0E94B10C882311F091E0F6
:103AC000B3CF0E94DD1991E0AFCFCE0101960E94E5
:103AD000EA0EBDCFC7010E940F1B0E94B10C91E0FE
:103AE000A3CF11A2F70182A18F3F09F0C1CF12A28B
:103AF000BFCF0FB6F8940F92F701828193810E9495
:103B0000810F0F900FBECDCFA680B780B601C70141
:103B10000E94F61AF70101112EC0868D8150868F02
:103B200080819181892BB9F1F7018085882341F14A
:103B3000C70108960E94680E813011F50E94DD19B8
:103B40001FC00F900FBE80E029960FB6F894DEBF1D
:103B50000FBECDBFDF91CF910F91FF90EF90DF901F
:103B6000CF90BF90AF900895C7010E940F1B0E9495
:103B7000B10C80E0E9CFB782A6828389811104C0AD
:103B80000F900FBE81E0E0CFC70143960E94680E00
:103B90008823B1F3D3CF0E944310F701938382832C
:103BA000C3CF0F931F93CF93DF9300D0CDB7DEB772
:103BB0008C01FC01868D811108C080E00F900F9070
:103BC000DF91CF911F910F910895C80149835A83C6
:103BD0000E94F61AF801868D8150868F81A1498155
:103BE0005A818F3F61F0F80181A18F5F81A381E04D
:103BF0000F900F90DF91CF911F910F9108958085C5
:103C00008823A9F3C801089649835A830E94680E45
:103C100049815A81882359F34115510541F381E0C7
:103C2000FA018083CBCF0F931F93CF93DF93EC01E7
:103C30008E8D811106C080E0DF91CF911F910F9191
:103C400008950E811F81CE010E94F61A1F830E83F4
:103C500081E0DF91CF911F910F9108950FB6F894F5
:103C60000F92FC01868D0F900FBE08950FB6F89449
:103C70000F92FC01268D0F900FBEFC01878D821BD9
:103C80000895FC01868D0895CF93DF93EC01888120
:103C90009981009711F00E942A09CE01DF91CF91FE
:103CA0000C942A09FC01968D81E0911180E0089521
:103CB000FC01268D81E0978D291380E00895CF9235
:103CC000DF92EF92FF92CF93DF93EC0168817981CD
:103CD0008A819B8128EEC22E23E0D22EE12CF12C8A
:103CE000A70196010E9414209B01AC0160E472E4DC
:103CF0008FE090E00E94F01FA70196010E9414201F
:103D000069017A01AC81BD8120E432E44FE050E0EA
:103D10000E94E51F20E834E84EE150E00E941420A4
:103D2000C20ED31EE41EF51EC701B601DF91CF916E
:103D3000FF90EF90DF90CF900895CF93DF93EC0149
:103D4000442309F441C08EEC90E09983888388EC89
:103D500090E09B838A8389EC90E09D838C8388E14B
:103D60008093C90086E08093CA001092CD009B0129
:103D700040E050E0220F331F441F551F220F331F16
:103D8000441F551F220F331F441F551F220F331F7F
:103D9000441F551F60E074E284EF90E00E941420FD
:103DA0002093CC008091C80081608093C80080E29D
:103DB0008E8380E88F8380E48887E881F981808121
:103DC0008081DF91CF91089586EC90E0998388837C
:103DD00080EC90E09B838A8381EC90E09D838C83D0
:103DE00088E18093C10086E08093C2001092C500F4
:103DF0009B0140E050E0220F331F441F551F220F4C
:103E0000331F441F551F220F331F441F551F220FFE
:103E1000331F441F551F60E074E284EF90E00E945E
:103E200014202093C4008091C00081608093C00062
:103E3000BECFDC011296ED91FC911397208116966E
:103E40008C91282381E009F480E00895DC0112962A
:103E5000ED91FC911397208118968C91282381E095
:103E600009F080E00895CF92DF92EF92FF920F93D6
:103E70001F93CF93DF9314BE88E10FB6F89480931D
:103E80006000109260000FBE80E190E00E941C155F
:103E9000EC0141E060E875E20E94711767E0CE0135
:103EA0000E9498156BE00E9498156C0164EE70E01A
:103EB0000E94531566E0C6010E94981588E190E0C3
:103EC0000E941C156C011AE0E12EF12C00E010E0BC
:103ED0009E0148E052E060E270E0C6010E94DE13FD
:103EE000D0921903C092180382E190E00E941C1541
:103EF0008E0124E031E041E06EE072E00E94400279
:103F000082E190E00E941C1528E131E042E066E188
:103F100072E00E945D0582E190E00E941C1528E19C
:103F200031E042E06DE172E00E9481080E94410BA5
:103F300080E090E0DF91CF911F910F91FF90EF9083
:103F4000DF90CF9008950E9481110F93CF93DF935C
:103F50001F92CDB7DEB76983FC0120893189428980
:103F6000538900E0BE016F5F7F4F868597850E9471
:103F7000D71B0F90DF91CF910F910895FC0186859B
:103F800097850E942E1E91E0811101C090E0892F3B
:103F900008950F93CF93DF931F92CDB7DEB700E064
:103FA0002FEF3FEFA901BE016F5F7F4FFC018685B8
:103FB00097850E94F81C813031F489810F90DF9140
:103FC000CF910F9108958FEFF9CF0E945B20A59FAD
:103FD000900DB49F900DA49F800D911D1124089504
:103FE000DB018F939F930E94E51FBF91AF91A29F2A
:103FF000800D911DA39F900DB29F900D11240895E7
:10400000AA1BBB1B51E107C0AA1FBB1FA617B707FE
:1040100010F0A61BB70B881F991F5A95A9F780951A
:104020009095BC01CD010895A1E21A2EAA1BBB1BDD
:10403000FD010DC0AA1FBB1FEE1FFF1FA217B30774
:10404000E407F50720F0A21BB30BE40BF50B661F8A
:10405000771F881F991F1A9469F76095709580954E
:1040600090959B01AC01BD01CF010895052E97FBF2
:104070001EF400940E944D2057FD07D00E9414208A
:1040800007FC03D04EF40C944D205095409530958C
:1040900021953F4F4F4F5F4F0895909580957095B4
:1040A00061957F4F8F4F9F4F0895EE0FFF1F059033
:1040B000F491E02D0994A29FB001B39FC001A39F8A
:1040C000700D811D1124911DB29F700D811D112451
:1040D000911D08950CD0BAC0B2D040F0A9D030F0F4
:1040E00021F45F3F19F09BC05111E4C09EC0BFD0C6
:1040F00098F39923C9F35523B1F3951B550BBB27AF
:10410000AA2762177307840738F09F5F5F4F220F5B
:10411000331F441FAA1FA9F333D00E2E3AF0E0E854
:1041200030D091505040E695001CCAF729D0FE2FA0
:1041300027D0660F771F881FBB1F26173707480732
:10414000AB07B0E809F0BB0B802DBF01FF279358E8
:104150005F4F2AF09E3F510568F061C0ABC05F3FE2
:10416000ECF3983EDCF3869577956795B795F795D0
:104170009F5FC9F7880F911D9695879597F90895C8
:10418000E1E0660F771F881FBB1F62177307840764
:10419000BA0720F0621B730B840BBA0BEE1F88F773
:1041A000E0950895E89409C097FB3EF490958095BA
:1041B000709561957F4F8F4F9F4F9923A9F0F92FED
:1041C00096E9BB279395F695879577956795B7956B
:1041D000F111F8CFFAF4BB0F11F460FF1BC06F5F51
:1041E0007F4F8F4F9F4F16C0882311F096E911C063
:1041F000772321F09EE8872F762F05C0662371F084
:1042000096E8862F70E060E02AF09A95660F771F97
:10421000881FDAF7880F9695879597F9089597F98B
:104220009F6780E870E060E008959FEF80EC08955C
:1042300000240A9416161706180609060895002485
:104240000A9412161306140605060895092E0394FF
:10425000000C11F4882352F0BB0F40F4BF2B11F473
:1042600060FF04C06F5F7F4F8F4F9F4F089557FDD2
:104270009058440F551F59F05F3F71F04795880FD4
:1042800097FB991F61F09F3F79F08795089512166B
:1042900013061406551FF2CF4695F1DF08C0161617
:1042A00017061806991FF1CF8695710561050894C8
:1042B0000895E894BB2766277727CB0197F90895DF
:1042C000FB01DC0102C001900D9241505040D8F733
:1042D0000895DC0101C06D9341505040E0F708950E
:1042E000FB01DC014150504048F001900D9200204C
:1042F000C9F701C01D9241505040E0F70895FA01FE
:10430000CF93FF93EF932230CCF02532BCF4C22F31
:104310002C2F332744275527FF93EF930E94142017
:10432000EF91FF91605D6A330CF0695D6193B901B3
:10433000CA01605070408040904051F710828F91C8
:104340009F91CF910C94BA21FB019F01423074F0F0
:10435000453264F4642F77270E940020805D8A3301
:104360000CF0895D8193CB010097A1F71082C90100
:104370000C94BA21DC01FC01672F71917723E1F7DE
:10438000329704C07C916D9370836291AE17BF0722
:08439000C8F30895F894FFCF73
:104398003717FFFFFFFF0A035072696E74005573E9
:1043A8006572496E7400427269676874004D6F7473
:1043B8006F72002F000D00000000005C031A12004D
:1043C8000000001C051A12412F4420636F6E73749D
:1043D800727563746F72204F4B006D6F746F72202B
:1043E8003120636F6E7374727563746F72204F4BF4
:1043F80000444452433A2000444452423A20006D5B
:104408006F746F72203220636F6E73747275637489
:104418006F72204F4B00444452443A20006D6F7431
:104428006F7220636F6E7374727563746F72204657
:1044380041494C202873656C656374206D757374ED
:1044480020626520612031206F722032290000002F
:10445800000037081A1249444C4500000000003893
:10446800150000000038151A127478745F7109007D
:10447800000000003915A51FBE1FC91F3F154015B4
:104488006513FAFF000020140000000039153815E4
:104498003D153B153F154015000000003915E01685
:0844A800521702173F154A17D5
:00000001FF
