:100000000C94D4050C94F3050C94F3050C94F305AF
:100010000C94F3050C94B6160C9473170C94751786
:100020000C94EA170C94F3050C94F3050C94F30567
:100030000C94F3050C94F3050C94F3050C94F30560
:100040000C94F3050C94F3050C94F3050C94F30550
:100050000C94F3050C94F3050C94F3050C94F30540
:100060000C94F3050C94A9350C94F3050C94F3054A
:100070000C94F3050C94F3050C94F3050C94F30520
:100080000C94F3050C94F3050C94F3050C94F30510
:100090000C94FC350C94F3050C94F3050C94F305C7
:1000A0000C94F3050C94F3050C94F3050C94F305F0
:1000B0000C94F3050C94F3050C94F3050C9473382D
:1000C0000C94F3050C94F3050C94F30525332E33AF
:1000D0003133343327332733373347334E335533B4
:1000E00059332B335F5F5F5F5F5F5F5F204D453448
:1000F0003035204C61622033204D6F64696669653C
:10010000642050726F6772616D205F5F5F5F5F5F39
:100110005F5F004A756E202039203230313600533F
:10012000797374656D2074696D653A20002C2048E0
:100130006561703A20002C204F435235413A20002F
:1001400020202020723A2020202020205265747523
:10015000726E20746F204D61696E204D656E750062
:10016000202043746C2D433A202020205265736573
:100170007420415652206D6963726F636F6E7472A2
:100180006F6C6C65720020202020633A20202020B4
:10019000202043697263756C61722070617468001D
:1001A000202020206C3A2020202020204C696E65E1
:1001B00061722068656164696E6720616468657258
:1001C000616E6365002D2D2D2D2D2D2D2D2D2D2DA9
:1001D0002D2D2D2D2D2D20434C4153532054415373
:1001E0004B204D454E55202D2D2D2D2D2D2D2D2DBA
:1001F0002D2D2D0020202020723A2020202020208C
:1002000052657475726E20746F204D61696E204D59
:10021000656E7500202043746C2D433A2020202009
:10022000526573657420415652206D6963726F6325
:100230006F6E74726F6C6C65720020202020693ABA
:100240002020202020205072696E7420494D5520B6
:1002500073746174757320636F646573002020206C
:1002600020643A202020202020537461636B206496
:10027000756D7020666F72207461736B730020203F
:100280002020733A20202020202056657273696F49
:100290006E2F536574757020696E666F726D617430
:1002A000696F6E0020202020743A2020202020201A
:1002B00053686F77207468652063757272656E7419
:1002C0002074696D65002D2D2D2D2D2D2D2D2D2D9D
:1002D0002D2D2D2D2D2D2D2048454C50204D454E9A
:1002E00055202D2D2D2D2D2D2D2D2D2D2D2D2D2D23
:1002F0002D2D2D0020202020723A2020202020208B
:1003000052657475726E20746F204D61696E204D58
:10031000656E7500202043746C2D433A2020202008
:10032000526573657420415652206D6963726F6324
:100330006F6E74726F6C6C65720020202020623AC0
:10034000202020202020456D657267656E6379202E
:10035000627265616B210020202020643A202020F9
:10036000202020526F746174652073746565726912
:100370006E6720746F2074686520726967687420E6
:100380002B3130300020202020613A2020202020F6
:1003900020526F74617465207374656572696E674D
:1003A00020746F20746865206C656674202D313070
:1003B000300020202020733A202020202020446577
:1003C0006372656D656E74206D6F746F72207665F3
:1003D0006C6F63697479202D3130002020202077E4
:1003E0003A202020202020496E6372656D656E746E
:1003F000206D6F746F722076656C6F6369747920FD
:100400002B3130002D2D2D2D2D2D2D2D2D2D2D2D44
:100410002D2D434152204452495645204D454E55BD
:10042000202D2D2D2D2D2D2D2D2D2D2D2D2D2D2D09
:100430002D2D0020202020723A2020202020205224
:10044000657475726E20746F204D61696E204D6504
:100450006E7500202043746C2D433A2020202052DA
:100460006573657420415652206D6963726F636FC6
:100470006E74726F6C6C657200202020203F3A20F1
:10048000202020202048656C70204D656E7500206E
:10049000202020633A202020202020436C617373A9
:1004A000207265717569726564207461736B730085
:1004B00020202020643A20202020202044726976C9
:1004C00065207468652063617221002D2D2D2D2D0E
:1004D0002D2D2D2D2D2D2D2D2D2D2D2D204D414909
:1004E0004E204D454E55202D2D2D2D2D2D2D2D2DB4
:1004F0002D2D2D2D2D2D2D2D00496C6C6567616CDA
:100500002073746174652120526573657474696E1B
:100510006720415652002220003C2D2D20556E6B45
:100520006E6F776E20636F6D6D616E642E205479EF
:10053000706520636F6D6D616E642066726F6D20F3
:100540006D656E752E00526573657474696E6720F3
:100550004156520043757272656E7420536572760F
:100560006F20506F736974696F6E3A200043757223
:1005700072656E74204D6F746F722056656C6F6378
:1005800069746965733A200043757272656E7420F0
:10059000536572766F20506F736974696F6E3A207D
:1005A0000043757272656E74204D6F746F722056C1
:1005B000656C6F6369746965733A20004375727284
:1005C000656E7420536572766F20506F736974691D
:1005D0006F6E3A200043757272656E74204D6F74B1
:1005E0006F722056656C6F6369746965733A200099
:1005F00043757272656E7420536572766F20506F0A
:10060000736974696F6E3A200043757272656E7417
:10061000204D6F746F722056656C6F6369746965E5
:10062000733A20002220003C2D2D20556E6B6E6FFA
:10063000776E20636F6D6D616E642E2054797065E6
:1006400020636F6D6D616E642066726F6D206D65E5
:100650006E752E00526573657474696E672041561D
:100660005200456E74657220726164697573206F03
:10067000662063697263756C6172207061746820B2
:100680005B302C3235355D00456E746572206469CF
:100690007374616E6365206F66206C696E6561724C
:1006A0002070617468205B302C3138305D0022206E
:1006B000003C2D2D20556E6B6E6F776E20636F6D35
:1006C0006D616E642E205479706520636F6D6D616D
:1006D0006E642066726F6D206D656E752E00506CB5
:1006E0006561736520747970652061206E756D6237
:1006F0006572206265747765656E203020746F20A6
:1007000038302C207468656E20454E544552005098
:100710006C6561736520747970652061206E756DFC
:10072000626572206265747765656E203020746F33
:10073000203138302C207468656E20454E54455267
:1007400000506C6561736520656E74657220612070
:100750006C696E65617220706174682076656C6F7B
:1007600063697479205B302C2038305D00506C65F3
:1007700061736520747970652061206E756D6265A6
:1007800072206265747765656E203020746F203248
:1007900035352C207468656E20454E544552005006
:1007A0006C6561736520656E746572206120636994
:1007B0007263756C617220706174682076656C6F0D
:1007C00063697479205B302C3331385D002220005E
:1007D0003C2D2D20556E6B6E6F776E20636F6D6DA7
:1007E000616E642E205479706520636F6D6D616E4B
:1007F000642066726F6D206D656E752E0052657394
:10080000657474696E6720415652002220003C2DA9
:100810002D20556E6B6E6F776E20636F6D6D616E00
:10082000642E205479706520636F6D6D616E642055
:1008300066726F6D206D656E752E005265736574FE
:1008400074696E67204156520053746F707065640E
:1008500021200073685F65756C65725F686561640F
:10086000696E6720203A2000205B646567726565C9
:10087000735D00456E636F64657220436F756E74BF
:1008800020202020203A2000205B7469636B735D78
:100890000044697374616E6365202020202020204D
:1008A0002020203A2000205B7469636B735D007325
:1008B000685F736572766F5F736574706F696E746D
:1008C000203A20005374617274696E672068656114
:1008D00064696E673A200050494420322065727284
:1008E0006F72005049442031206572726F7200456A
:1008F00072726F7220696E2067657445756C6572DF
:10090000416E6700494D552073797374656D20738E
:10091000656C662074657374207374617475733AC2
:1009200020004572726F7220436F64653A2000495F
:100930004D552073797374656D207374617475738C
:100940003A2000494D5520756E69747320736574A3
:1009500000494D5520706F776572206D6F6465207A
:1009600073657400494D55206F7065726174696FCD
:100970006E206D6F64652073657400494D55206F5E
:10098000626A65637420696E7469616C20636F6D5F
:100990006D756E69636174696F6E207375636573DD
:1009A0007300494D55206F626A65637420696E74E7
:1009B00069616C20636F6D6D756E69636174696FD9
:1009C0006E206572726F72004144435352413A2067
:1009D0000041444D55583A200041444330203D20C9
:1009E0000041444331203D200041444332203D201A
:1009F0000041444333203D200041444334203D2006
:100A00000041444335203D200041444336203D20F1
:100A10000041444337203D20002D2D2D2D2D2D2D1F
:100A20002D204D45343035204C61622035205374E3
:100A3000617274696E672050726F6772616D202DEC
:100A40002D2D2D2D2D2D2D00202020203020322049
:100A500034203620382041204320450049324320AD
:100A600073656E642074696D656F757400493243F7
:100A70002072652D73746172743A20307800206E94
:100A80006F742030783130004E6F2073686172656A
:100A9000642064617461206974656D7320746F20D3
:100AA0007072696E74002D2D2D2D202020202020A5
:100AB0002020202020202D2D2D2D202020202D2DE8
:100AC0002D2D2D2D2D2D2D2D0053686172652F514B
:100AD00075657565202020202054797065202020C0
:100AE00020467265652F546F74616C004552524FF9
:100AF00052206372656174696E67207461736B2044
:100B000022005461736B202200222063726561749D
:100B100065642C20737461636B20617420307800ED
:100B20005461736B3A20005461736B3A2049444C12
:100B3000450049444C45090930092D09002F000999
:100B4000092D002D2D2D2D09092D2D2D2D092D2D92
:100B50002D2D2D00092D2D2D2D2D2D2D2D2D2D0043
:100B6000092D2D2D2D004E616D6509095072692EDC
:100B70000953746174650009467265652F546F747A
:100B8000616C000952756E73005461736B09092022
:100B90002009200009537461636B00090009002FCC
:100BA000000900090020200011241FBECFEFD1E270
:100BB000DEBFCDBF15E0A0E0B2E0EEE2F2E800E07B
:100BC0000BBF02C007900D92A83EB107D9F71DE1F7
:100BD000A8EEB5E001C01D92A03EB107E1F70E946A
:100BE000F23B0C9415410C9400000F931F93CF938C
:100BF000DF93EC010E945A2E8DE192E09983888365
:100C0000DF91CF911F910F9108950F931F93CF9371
:100C1000DF93EC0166E08E819F810E9418336BE0C8
:100C20008E819F810E9418338C016BEC74E00E94CE
:100C3000D33266E0C8010E9418336BE08E819F8139
:100C40000E9418338C0160EB74E00E94D33266E09E
:100C5000C8010E9418336BE08E819F810E94183377
:100C60008C016FE874E00E94D33266E0C8010E94F4
:100C700018336BE08E819F810E9418338C0169E7E5
:100C800074E00E94D33266E0C8010E9418336BE022
:100C90008E819F810E9418338C0163E574E00E946D
:100CA000D33266E0C8010E9418336BE08E819F81C9
:100CB0000E9418338C0163E374E00E94D33266E033
:100CC000C8010E94183366E08E819F81DF91CF9129
:100CD0001F910F910C9418330F931F93CF93DF93B1
:100CE000EC0166E08E819F810E9418336BE08E815B
:100CF0009F810E9418338C0164E074E00E94D3321B
:100D000066E0C8010E9418336BE08E819F810E94CB
:100D100018338C016BED73E00E94D33266E0C8019A
:100D20000E9418336BE08E819F810E9418338C01E2
:100D300062EB73E00E94D33266E0C8010E94183370
:100D40006BE08E819F810E9418338C0165E873E00F
:100D50000E94D33266E0C8010E9418336BE08E8196
:100D60009F810E9418338C0167E573E00E94D332A3
:100D700066E0C8010E9418336BE08E819F810E945B
:100D800018338C016AE373E00E94D33266E0C80135
:100D90000E9418336BE08E819F810E9418338C0172
:100DA00064E173E00E94D33266E0C8010E94183308
:100DB0006BE08E819F810E9418338C0164EF72E09A
:100DC0000E94D33266E0C8010E94183366E08E812B
:100DD0009F81DF91CF911F910F910C9418330F9346
:100DE0001F93CF93DF93EC0166E08E819F810E9479
:100DF00018336BE08E819F810E9418338C0166EC62
:100E000072E00E94D33266E0C8010E9418336BE0A2
:100E10008E819F810E9418338C0164EA72E00E94E7
:100E2000D33266E0C8010E9418336BE08E819F8147
:100E30000E9418338C016EE772E00E94D33266E0A4
:100E4000C8010E9418336BE08E819F810E94183385
:100E50008C016DE572E00E94D33266E0C8010E9409
:100E600018336BE08E819F810E9418338C016AE3F6
:100E700072E00E94D33266E0C8010E9418336BE032
:100E80008E819F810E9418338C0164E172E00E9480
:100E9000D33266E0C8010E9418336BE08E819F81D7
:100EA0000E9418338C0164EF71E00E94D33266E037
:100EB000C8010E94183366E08E819F81DF91CF9137
:100EC0001F910F910C9418330F931F93CF93DF93BF
:100ED000EC0166E08E819F810E9418336BE08E8169
:100EE0009F810E9418338C0165EC71E00E94D3321F
:100EF00066E0C8010E9418336BE08E819F810E94DA
:100F000018338C0160EA71E00E94D33266E0C801B8
:100F10000E9418336BE08E819F810E9418338C01F0
:100F200066E871E00E94D33266E0C8010E9418337F
:100F30006BE08E819F810E9418338C0160E671E026
:100F40000E94D33266E0C8010E9418336BE08E81A4
:100F50009F810E9418338C0160E471E00E94D332BB
:100F600066E0C8010E94183366E08E819F81DF91A0
:100F7000CF911F910F910C9418338F929F92AF9243
:100F8000BF92CF92DF92EF92FF920F931F93CF9376
:100F9000DF9300D000D000D0CDB7DEB78C0119822E
:100FA0001A821B821C821E821D82C0902801D09052
:100FB00029010E940B235C01CE0101960E9404329C
:100FC0004C0166E0F801868197810E9418336BE03E
:100FD0000E9418337C0164EE70E00E94D3326BE013
:100FE000C7010E9418337C0163E171E00E94D33293
:100FF00066E0C7010E9418336BE00E9418337C0141
:101000006FE171E00E94D332B401C7010E94A331A5
:101010006BE00E9418337C016DE271E00E94D332D4
:10102000B501C7010E94BE337C0165E172E00E94F8
:10103000D33248E357E160E070E0C7010E94F83323
:101040006BE00E9418337C0166E371E00E94D332AA
:10105000B601C7010E94BE3366E00E94183366E005
:101060000E941833F801868197810E94553066E00E
:10107000F801868197810E941833F8018681978153
:101080000E94152E26960FB6F894DEBF0FBECDBF78
:10109000DF91CF911F910F91FF90EF90DF90CF9054
:1010A000BF90AF909F908F900895CF93DF93CDB76F
:1010B000DEB728970FB6F894DEBF0FBECDBF8C0108
:1010C00019821A821B821C821E821D820FB6F8941E
:1010D0000F92E0912806F091290610860F900FBE1E
:1010E0000E940506412C512CA12CB12C33243394A1
:1010F00043E0242E50EBC52EDD24DA94ED2CFD2C9C
:1011000024C0833009F41CC1843009F0D3C0F80135
:1011100086819781DC01ED91FC910480F581E02DC1
:10112000099581113AC1F80186859785A089B18911
:101130000196A11DB11D86879787A08BB18B62E3B5
:1011400070E080E090E00E940B2BD8011C968C91FF
:10115000823009F456C0A8F6882309F4C6C081304D
:1011600009F0A8C0F80186819781DC01ED91FC911E
:101170000480F581E02D09958823A9F2F801868184
:101180009781DC01ED91FC910680F781E02D0995B6
:10119000282F893609F4C5C50CF4B6C5833709F480
:1011A000E6C5843709F4A2C5823709F4EEC0D80138
:1011B00016968D909C901797D401ED91FC9102802A
:1011C000F381E02D62E2C40128870995D401ED91F5
:1011D000FC910280F381E02D2885622FC4010995DE
:1011E0006BE0C4010E9418334C016DEC77E00E9463
:1011F000D3326BE0C4010E9418334C0160ED77E0FC
:101200000DC1F80186819781DC01ED91FC9104808C
:10121000F581E02D0995882309F43EC5F801868102
:101220009781DC01ED91FC910680F781E02D099515
:10123000282F80ED820F8A3008F40BC52D3209F477
:10124000D3C42F3709F456C12A3009F47DC12D309B
:1012500009F052C1F1E05F1609F414C1F2E05F1623
:1012600009F4E4C0F3E05F125ECFC5010197803559
:10127000910508F00CC40FB6F8940F92E091F405B4
:10128000F091F505A0860F900FBE0FB6F8940F925F
:10129000E091FE05F091FF0530860F900FBEC8016A
:1012A0000E94050660E0C8010E94102F512CA12C5D
:1012B000B12C39CF6BE0F801868197810E941833F9
:1012C0008C0169EF74E00E94D33266E0C8010E948D
:1012D00018332BE088E190E00FB6F894A89580933E
:1012E00060000FBE20936000FFCFF80186819781D8
:1012F000DC01ED91FC910480F581E02D09958823B6
:1013000009F411CFF80186819781DC01ED91FC9100
:101310000680F781E02D0995282F833609F492C3C2
:101320000CF045C3833009F472C38F3309F045C311
:10133000C8010E94EF0661E0C8010E94102FF3CEA1
:10134000D80116968D919C911797DC01ED91FC9137
:101350000480F581E02D0995882309F4E4CEF80195
:1013600086819781DC01ED91FC910680F781E02D6B
:101370000995282F833609F414C40CF4F4C38C3671
:1013800009F4BBC3823709F08EC3C8010E94050669
:1013900060E0C8010E94102FC6CEF80186819781B7
:1013A000DC01ED91FC910680F781E02D0995282F55
:1013B000843609F492C20CF405C2833709F455C18E
:1013C000873709F4C9C0823701F3D80116968D908A
:1013D0009C901797D401ED91FC910280F381E02D50
:1013E00062E2C40128870995D401ED91FC91028045
:1013F000F381E02D2885622FC40109956BE0C401BB
:101400000E9418334C0166E175E00E94D3326BE014
:10141000C4010E9418334C0169E175E0C4010E94C7
:10142000D33266E0C4010E9418337DCEC501019716
:10143000843B910508F041C00FB6F8940F92E091FB
:10144000F005F091F105B186A0860F900FBE6BE01C
:10145000D80116968D919C9117970E9418335C01C4
:1014600061E477E0C5010E94D33266E0C5010E94C5
:10147000183362E0C8010E94102F93E0592EA12C6E
:10148000B12C51CEC50101978034964048F50FB676
:10149000F8940F92E091F605F091F705A0860F9071
:1014A0000FBE6BE0D80116968D919C9117970E9404
:1014B00018335C016FE977E0D5CF6BE0F8018681E6
:1014C00097810E9418335C016FE077E0C5010E94AC
:1014D000D33266E0C5010E941833A12CB12C23CE73
:1014E0006BE0F801868197810E9418335C016DE6FC
:1014F00077E0ECCF411084C3F801A680B780D50116
:10150000ED91FC910280F381E02D62E2C501288714
:101510000995D501ED91FC910280F381E02D28859C
:10152000622FC50109956BE0C5010E9418335C016B
:101530006EEA76E00E94D3326BE0C5010E94183358
:101540005C0161EB76E0C2CF67E172E0F801868171
:1015500097810E94D332E7CDE0910806F091090609
:101560000FB6F8940F920F900FBE80859185A285DB
:10157000B3850A96A11DB11D0FB6F8940F9280870E
:101580009187A287B3870F900FBE0FB6F8940F9282
:101590000F900FBE80359105A105B1050CF0F2C08A
:1015A00044275527BA01481B590B6A0B7B0B0FB612
:1015B000F8940F920F900FBE0FB6F8940F92A0916F
:1015C0000606B091070618964D935D936D937C9334
:1015D0001B970F900FBE0FB6F8940F926084718422
:1015E000828493840F900FBE6BE0F801868197810F
:1015F0000E9418339C0169E076E028873F830E94AF
:10160000D332B401A30128853F81C9010E948C33E4
:1016100066E00E9418330FB6F8940F92E091FA0535
:10162000F091FB05808491840F900FBE6BE0D80190
:1016300016968D919C9117970E9418333C0160EF8C
:1016400075E00E94D332B401C3010E94BE3366E04C
:101650000E94183366E0F801868197810E94183352
:1016600064E0C8010E94102F5ECDE0910806F09161
:1016700009060FB6F8940F920F900FBE80859185E2
:10168000A285B3850A97A109B1090FB6F8940F9204
:1016900080879187A287B3870F900FBE0FB6F8940B
:1016A0000F920F900FBE813B2FEF9207A207B20758
:1016B0000CF47AC044275527BA01481B590B6A0B12
:1016C0007B0B0FB6F8940F920F900FBE0FB6F894E5
:1016D0000F92A0910606B091070618964D935D9360
:1016E0006D937C931B970F900FBE0FB6F8940F92DB
:1016F00060847184828493840F900FBE6BE0D80164
:1017000016968D919C9117970E9418339C0165ED58
:1017100075E028873F830E94D332B401A301288556
:101720003F81C9010E948C3366E00E9418330FB6D6
:10173000F8940F92E091FA05F091FB0560847184B2
:101740000F900FBE6BE0F801868197810E941833DD
:101750004C016CEB75E0C4010E94D332B301C401AB
:101760000E94BE3366E00E94183366E0D8011696E8
:101770008D919C9117970E94183364E0C8010E94D4
:10178000102FD1CC0FB6F8940F9280E590E0A0E036
:10179000B0E080879187A287B3870F900FBE40EBA0
:1017A0005FEF6FEF7FEF03CF0FB6F8940F92C08615
:1017B000D186E286F3860F900FBE40E550E060E0F0
:1017C00070E07FCF833009F46DC0813609F0FDCD24
:1017D000E091FA05F091FB050FB6F8940F920F9087
:1017E0000FBE808591858C599F4F0FB6F8940F924C
:1017F000918780870F900FBE0FB6F8940F920F90CD
:101800000FBE803A9F4048F00FB6F8940F9280EADE
:101810009FE0918780870F900FBE0FB6F8940F92CC
:10182000E091F805F091F90530860F900FBE0FB6E4
:10183000F8940F92E0910806F09109066084718493
:10184000828493840F900FBE6BE0D80116968D9121
:101850009C9117970E9418339C0161EA75E02887D4
:101860003F830E94D332B401A30128853F81C9017F
:101870000E948C3366E00E9418330FB6F8940F92E2
:10188000E091FA05F091FB05608471840F900FBE22
:101890006BE0F801868197810E9418334C0168E85B
:1018A00075E059CF6BE0F801868197810E9418336B
:1018B0008C0166E475E00E94D33266E0C8010E94A4
:1018C00018332BE088E190E00FB6F894A895809348
:1018D00060000FBE20936000FFCFE091FA05F09109
:1018E000FB050FB6F8940F920F900FBE808591857F
:1018F000845691090FB6F8940F92918780870F90C4
:101900000FBE0FB6F8940F920F900FBE813D974017
:1019100048F40FB6F8940F9280ED97E09187808796
:101920000F900FBE0FB6F8940F92E091F805F0916A
:10193000F90530860F900FBE0FB6F8940F92E09124
:101940000806F091090660847184828493840F9064
:101950000FBE6BE0D80116968D919C9117970E944F
:1019600018339C016DE675E028873F830E94D332CF
:10197000B401A30128853F81C9010E948C3366E030
:101980000E9418330FB6F8940F92E091FA05F09187
:10199000FB05608471840F900FBE6BE0F8018681B7
:1019A00097810E9418334C0164E575E0D4CE8436EB
:1019B00009F450C0823709F4E8CCD80116968D900E
:1019C0009C901797D401ED91FC910280F381E02D5A
:1019D00062E2C40128870995D401ED91FC9102804F
:1019E000F381E02D2885622FC40109956BE0C401C5
:1019F0000E9418334C016BE078E00E94D3326BE018
:101A0000C4010E9418334C016EE078E007CD6BE012
:101A1000F801868197810E9418338C016BE378E08E
:101A20000E94D33266E0C8010E9418332BE088E19F
:101A300090E00FB6F894A895809360000FBE2093B5
:101A40006000FFCFC8010E94640763E0C8010E94E4
:101A5000102F69CBC8010E946C060FB6F8940F9244
:101A6000E0912406F091250620860F900FBE0FB658
:101A7000F8940F92E091F805F091F90582E08087E3
:101A80000F900FBE64E0C8010E94102F4CCB6BE09A
:101A9000D80116968D919C9117970E9418335C017E
:101AA0006EED76E013CDD80116968D909C90179729
:101AB000D401ED91FC910280F381E02D62E2C4013A
:101AC00028870995D401ED91FC910280F381E02DE6
:101AD0002885622FC40109956BE0C4010E94183368
:101AE0004C0164E276E00E94D3326BE0C4010E94B4
:101AF00018334C0167E276E091CC6BE0F801868107
:101B000097810E9418334C0168E876E00E94D33236
:101B100066E0C4010E9418330FB6F8940F92E0916A
:101B2000EC05F091ED05808591850F900FBE0FB605
:101B3000F8940F92E091EE05F091EF059187808780
:101B40000F900FBE0FB6F8940F92E091F205F0914E
:101B5000F30530860F900FBE62E0C8010E94102F7F
:101B600082E0582EE0CA833009F09DCF6BE0F80187
:101B7000868197810E9418338C0164E576E00E948B
:101B8000D33266E0C8010E9418332BE088E190E070
:101B90000FB6F894A895809360000FBE2093600064
:101BA000FFCF6BE0D80116968D919C9117970E94FC
:101BB00018334C0162E676E00E94D33266E0C4013D
:101BC0000E9418330FB6F8940F92E091FE05F09141
:101BD000FF0582E080870F900FBE62E0C8010E947F
:101BE000102F552453949FCAF80186819781DC01F8
:101BF000ED91FC910280F381E02D6DE2099593CA8D
:101C0000F80186819781DC01ED91FC910280F381DE
:101C1000E02D6FE70995F80186819781DC01ED9150
:101C2000FC910280F381E02D60E20995F801868144
:101C30009781DC01ED91FC910280F381E02D6FE74B
:101C40000995C5016AE070E00E94053F5B014A9476
:101C50006ACAF80186819781DC01ED91FC910280CE
:101C6000F381E02D622F28870995C501880F991F00
:101C7000AA0CBB1CAA0CBB1CAA0CBB1C8A0D9B1D6E
:101C80002885A22EBB24A7FCB094B0E3AB1AB10800
:101C9000A80EB91E439447CA80912A0690912B063C
:101CA000DC01ED91FC910480F581E02D09958823FC
:101CB00009F439CAD8011696ED91FC911797019055
:101CC000F081E02D8280938080912A0690912B06EE
:101CD000DC01ED91FC910680F781E02D0995682FDC
:101CE000F80186819781F40109951DCACE010196FC
:101CF0000E940432BC01F801868197810E94A331C1
:101D000066E00E9418330FCA8330B1F0843609F0C0
:101D10004ECAD80116968D919C9117970E946F2FED
:101D200002CA0FB6F8940F92E091E805F091E90528
:101D300030860F900FBEF7C96BE0F801868197815E
:101D40000E9418338C016DEF77E00E94D33266E079
:101D5000C8010E9418332BE088E190E00FB6F89498
:101D6000A895809360000FBE20936000FFCFC8014C
:101D70000E94BD07D8C9CF93DF93CDB7DEB72897B0
:101D80000FB6F894DEBF0FBECDBF6C010E940429D0
:101D900069837A838B839C8383E090E00E949C32EA
:101DA0003C01F6016681778141E00E94851583E060
:101DB00090E00E949C322C01F6016681778142E01E
:101DC0000E9485150FB6F8940F92E0912406F091C9
:101DD000250610860F900FBE82E090E00E949C3294
:101DE0004C01F6016681778147E00E94061682E089
:101DF00090E00E949C325C01F6016681778143E0AD
:101E00000E940616312C212C40E050E02CC00FB669
:101E1000F8940F920F900FBE833009F4C8C00FB62C
:101E2000F8940F920F900FBEE0911E06F0911F06DE
:101E30008085813009F48DC0F60186859785A0895B
:101E4000B1890196A11DB11D86879787A08BB18BA3
:101E50004AE050E060E070E0CE0101960E94A42AC2
:101E6000A701302E212EE0911C06F0911D060FB621
:101E7000F8940F928085918598878F830F900FBE7D
:101E8000EF80F884E0911A06F0911B060FB6F894E3
:101E90000F92808591859E838D830F900FBE0D815B
:101EA0001E81B701C4010E94B016E0911006F091A6
:101EB00011060FB6F8940F92608771878287938717
:101EC0000F900FBE432D522DB801C5010E94B016D0
:101ED000E0910E06F0910F060FB6F8940F9260870E
:101EE0007187828793870F900FBE0FB6F8940F9279
:101EF000E0912406F091250680850F900FBE813079
:101F000009F085CF0FB6F8940F920F900FBEE091B5
:101F10000406F091050660857185C3010E94C7150E
:101F20000FB6F8940F920F900FBEE0910206F09159
:101F3000030660857185C2010E94C7150FB6F8942B
:101F40000F92E0912406F091250610860F900FBEA7
:101F500066CFC3010E94F615C2010E94F6150FB6A6
:101F6000F8940F92E0912406F091250683E0808793
:101F70000F900FBE0FB6F8940F92E0911E06F091ED
:101F80001F0610860F900FBE6BE0F60186819781C9
:101F90000E9418331C0169E478E00E94D33266E0A5
:101FA000C1010E94183366E00E94183345CF60E0FB
:101FB00070E0C3010E94C71560E070E0BCCF0F93D2
:101FC0001F93CF93DF93EC010E945A2E85E292E09B
:101FD00099838883DF91CF911F910F910895CF93BB
:101FE000DF93CDB7DEB7CF54D1090FB6F894DEBF7B
:101FF0000FBECDBF4C010E94042928966CAF7DAF67
:102000008EAF9FAF28978FE190E00E949C323C01F9
:10201000D40116966D917C9117970E944A1B8FE10F
:1020200090E00E949C321C01F401668177810E943D
:102030004A1B8FE190E00E949C322C01D40116963D
:102040006D917C9117970E944A1BE0911006F091C8
:1020500011060FB6F8940F92108611861286138619
:102060000F900FBE0FB6F8940F92E0910806F09112
:10207000090610861186128613860F900FBE82E025
:102080008B8F80E0B82E8C8F84E08D8F80E091E084
:10209000D82E8E8F9F8F19A218A2182F8AA39BA3C8
:1020A00080EC382F8CA389EF8DA380E4582F8EA36A
:1020B00086E08FA382E0A82E94E0C92EEE24E3945C
:1020C000F12C09A121E049EF66E0C3010E94841BC5
:1020D000E0910E06F0910F060FB6F8940F9210865D
:1020E0001186128613860F900FBE0FB6F8940F92CA
:1020F000E0910606F0910706108611861286138677
:102100000F900FBEB2E0BE871F86E4E0E88B70E060
:10211000D72E798BF1E0FA8B1C8A1B8A172F7D8BC7
:10212000FE8B80EC382F8F8B89EF888F80E4582FBF
:10213000898F86E08A8F0C8921E049EF66E0C10132
:102140002D967FAF2D970E94841BA9821A8204E0EE
:102150000B832D967FAD2D97D72E7C8311E01D83A9
:102160001F821E82172F788761E0698780ED382FE4
:102170008A8787E08B8780EA582F8C878FE08D874E
:102180000F8121E047E06FE0C2010E94841BC12C57
:10219000D12CA12CB12C9E01205C3F4F552453948F
:1021A0007901A7C057FDAFC2892B09F4BBC1E091EB
:1021B0001006F09111060FB6F8940F928085918564
:1021C000A285B38588AF99AFAAAFBBAF0F900FBE02
:1021D00068AD79AD8AAD9BAD4EE351E0C3010E947D
:1021E000BC1C0FB6F8940F92E0910406F09105061E
:1021F000918780870F900FBE0FB6F8940F92E091F1
:102200002406F091250650860F900FBE0FB6F89465
:102210000F92E0910606F091070640855185628590
:1022200073850F900FBECA019A01225C3E4F2D3775
:10223000324008F491C057FD7EC2892B09F462C177
:10224000E0910E06F0910F060FB6F8940F9280857C
:102250009185A285B3858CA79DA7AEA7BFA70F9038
:102260000FBE6CA57DA58EA59FA54EE351E0C101D3
:102270000E94BC1C0FB6F8940F92E0910206F091F8
:102280000306918780870F900FBE0FB6F8940F92C8
:10229000E0912406F091250650860F900FBEE09144
:1022A000FE05F091FF050FB6F8940F9280850F9010
:1022B0000FBE813009F467C00FB6F8940F920F90EB
:1022C0000FBE823009F417C1F40186859785A08975
:1022D000B1890196A11DB11D86879787A08BB18B0F
:1022E0004AE050E060E070E0CE018C5B9F4F0E94BE
:1022F000A42A0FB6F8940F92E0910806F09109060F
:1023000040855185628573850F900FBECA019A0181
:10231000225C3E4F2D37324008F044CFE09110064A
:10232000F09111060FB6F8940F9280859185A285E1
:10233000B385F70180839183A283B3830F900FBE8F
:102340008E01005C1F4F780124968CAD9DADAEAD23
:10235000BFAD2497BC0142CFE0910E06F0910F066D
:102360000FB6F8940F9280859185A285B3858CABCA
:102370009DABAEABBFAB0F900FBE8CA99DA9AEA914
:10238000BFA9BC0174CF0FB6F8940F920F900FBE87
:10239000E091F405F091F505408550E060E070E0D3
:1023A00080910806909109060FB6F8940F92DC010F
:1023B00018964D935D936D937C931B970F900FBE72
:1023C0000FB6F8940F920F900FBEA0910606B09131
:1023D00007060FB6F8940F92709560955095419549
:1023E0005F4F6F4F7F4F18964D935D936D937C9326
:1023F0001B970F900FBEE0911006F09111060FB6DB
:10240000F8940F92408551856285738548A759A736
:102410006AA77BA70F900FBE28A539A54AA55BA583
:10242000E091F205F091F3052A96FFAFEEAF2A97FF
:102430000FB6F8940F920F900FBE6085613009F4CB
:1024400092C1B7FC81C0CA01B9016C0D7D1D811D0F
:10245000911D2C966CAF7DAF8EAF9FAF2C972A96B7
:10246000CEACDFAC2A970FB6F8940F920F900FBE48
:102470000FB6F8940F920F900FBE0FB6F8940F920C
:102480000F900FBEE091EC05F091ED054085518570
:10249000E091EE05F091EF0560857185E091FA0518
:1024A000F091FB05808591850E943A22E091FA0522
:1024B000F091FB050FB6F8940F92918780870F90EB
:1024C0000FBE0FB6F8940F92A091F805B091F905E0
:1024D00018965C920F900FBE2A968EAD9FAD2A97EC
:1024E000A81AB90AC5016AE070E00E94053F892B6D
:1024F00009F0EACE73C00FB6F8940F9210860F90D1
:102500000FBEE2CE6BE0F401868197810E94183302
:102510008C0167ED78E00E94D33266E0C8010E942A
:102520001833BDCE6BE0D40116968D919C91179710
:102530000E9418338C0163EE78E00E94D33266E08B
:10254000C8010E94183362CE0FB6F8940F92E09142
:10255000FE05F091FF0510860F900FBE0FB6F894A0
:102560000F92E0911E06F0911F0650860F900FBE4D
:102570000FB6F8940F92E0910806F09109061086C4
:102580001186128613860F900FBE0FB6F8940F9225
:10259000E0910606F09107061086118612861386D2
:1025A0000F900FBEE091FA05F091FB050FB6F8947D
:1025B0000F92A8EBBBE0B187A0870F900FBE0FB6BC
:1025C000F8940F92A091F805B091F90518965C92D5
:1025D0000F900FBEC12CD12CA12CB12C0FB6F894AA
:1025E0000F92208531850F900FBE6BE0F40186813C
:1025F00097812F962FAF2F9760963FAF60970E94DD
:1026000018338C016FEA78E00E94D3322F962FADF9
:102610002F9760963FAD6097B901C8010E94BE3305
:1026200066E00E9418336BE0D40116968D919C9160
:1026300017970E9418338C0161E978E00E94D33229
:10264000B501C8010E945D336BE00E9418338C0114
:1026500066EA78E00E94D33266E0C8010E9418332F
:102660006BE0F401868197810E9418338C0163E747
:1026700078E00E94D332B601C8010E94BE336BE0FD
:102680000E9418338C0168E878E00E94D33266E03B
:10269000C8010E9418330FB6F8940F92E091EC0530
:1026A000F091ED05208531850F900FBE6BE0D401D0
:1026B00016968D919C9117972F962FAF2F97609616
:1026C0003FAF60970E9418338C0163E578E00E9469
:1026D000D3322F962FAD2F9760963FAD6097B901FB
:1026E000C8010E94BE336BE00E9418338C0168E67B
:1026F00078E00E94D33266E0C8010E94183366E099
:102700000E941833E1CDE0911006F09111060FB64A
:10271000F8940F9280859185A285B3858CAF9DAF8B
:10272000AEAFBFAF0F900FBE6CAD7DAD8EAD9FADA8
:1027300042EC5EEF53CDE0910E06F0910F060FB61E
:10274000F8940F9280859185A285B38588AB99AB6B
:10275000AAABBBAB0F900FBE68A979A98AA99BA9A8
:1027600042EC5EEF84CD0FB6F8940F926091FA05BB
:102770007091FB0508EB1BE0FB01118700870F90B0
:102780000FBE0FB6F8940F926091F8057091F9059D
:10279000FB0150860F900FBE0FB6F8940F92FC010C
:1027A00010861186128613860F900FBE0FB6F8940E
:1027B0000F9218961D921D921D921C921B970F90BE
:1027C0000FBE0FB6F8940F920F900FBEA091F005B8
:1027D000B091F10518968D919C91199704E611E03E
:1027E000809F5001819FB00C909FB00C11240FB6B8
:1027F000F8940F922A96AEADBFAD2A9718961C9208
:102800000F900FBE0FB6F8940F92E091EC05F09187
:10281000ED05008511852A961FAF0EAF2A970F9000
:102820000FBE6BE0D40116968D919C9117972F9651
:102830002FAF2F9760963FAF60972D964FAF2D9794
:102840002E965FAF2E970E9418338C0164EC78E0CF
:102850000E94D3322A966EAD7FAD2A97C8010E949E
:10286000BE3366E00E94183366E00E9418332E964D
:102870005FAD2E972D964FAD2D9760963FAD60972B
:102880002F962FAD2F97DDCD0F931F93CF93DF930F
:10289000EC010E945A2E8DE292E099838883DF91A9
:1028A000CF911F910F910895CF93DF9300D000D067
:1028B000CDB7DEB78C010E94042969837A838B83AC
:1028C0009C8382E090E00E949C325C01F80166816A
:1028D00077810E94521982E090E00E949C326C0144
:1028E000F801668177810E94521984E090E00E948D
:1028F0009C327C01F801668177810E943A183CC0C5
:1029000061E0C7010E94D918E091EC05F091ED0556
:102910000FB6F8940F92208531850F900FBE0FB639
:10292000F8940F92918780870F900FBE0FB6F8949E
:102930000F920F900FBE0FB6F8940F92E091EA0538
:10294000F091EB05821B930B918780870F900FBE50
:10295000F80186859785A089B1890196A11DB11DD1
:1029600086879787A08BB18B4AE050E060E070E0EB
:10297000CE0101960E94A42A4AE061E0C5010E94AE
:1029800085194AE062E0C6010E9485190FB6F894E5
:102990000F920F900FBEE091E805F091E905808558
:1029A000813009F0ADCFC7010E947D180FB6F894B1
:1029B0000F92E091E805F091E90510860F900FBEA7
:1029C0009FCF0F931F93CF93DF93EC010E945A2E5A
:1029D00085E392E099838883DF91CF911F910F91D6
:1029E0000895CF93DF9300D000D0CDB7DEB78C0130
:1029F0000E94042969837A838B839C8382E090E020
:102A00000E949C326C01F801668177810E94211935
:102A100082E090E00E949C327C01F801668177811F
:102A20000E9452194AE060E0C7010E9485199695FC
:102A30008795BC01675C744F0FB6F8940F92E091D4
:102A4000FA05F091FB05718760870F900FBE0FB6F6
:102A5000F8940F920F900FBEC6010E9437191BC049
:102A60000FB6F8940F9210860F900FBEF8014685AE
:102A70005785608971894F5F5F4F6F4F7F4F4687E2
:102A80005787608B718B4AE050E060E070E0CE01C8
:102A900001960E94A42A4AE060E0C7010E948519BD
:102AA000E091F805F091F9050FB6F8940F920F90A8
:102AB0000FBE20852130A1F60FB6F8940F920F902B
:102AC0000FBEE091FA05F091FB05608571856F57A7
:102AD000710996958795680F791FC6010E9437196D
:102AE000E091F805F091F905BBCF0F931F93CF93B9
:102AF000DF93EC010E945A2E8DE392E09983888344
:102B0000DF91CF911F910F910895CF93DF93FC0137
:102B100071836083428380918000826A8093800009
:102B200080918000809380008091810089618093F2
:102B30008100809181008093810080E496E09093F1
:102B40008700809386008281813089F08230B9F0DD
:102B5000C081D181209781F061E472E0CE010E94B2
:102B6000D33266E0CE01DF91CF910C94183387B158
:102B7000876087B9329A269ADF91CF9108958AB1FA
:102B8000806E8AB94F9A259ADF91CF910895FC0102
:102B90002281213071F0223009F0089577FD18C0AC
:102BA0008BB18BB95E985D9A7093890060938800B1
:102BB000089528B128B977FD13C04198409A7093C1
:102BC0008B0060938A00FC018281823049F3089572
:102BD0008BB18BB95E9A5D98719561957109E4CF5F
:102BE000419A4098719561957109E9CFFC01228164
:102BF000213039F0223009F008958BB180668BB90D
:102C0000089528B1236028B92281F4CFCF93DF93B0
:102C1000E0911C06F0911D060FB6F8940F921186F4
:102C200010860F900FBEE0911A06F0911B060FB6AA
:102C3000F8940F92118610860F900FBEE09118063F
:102C4000F09119060FB6F8940F9210860F900FBEF0
:102C5000E0911606F09117060FB6F8940F921086C1
:102C60000F900FBEE0911406F09115060FB6F89480
:102C70000F9210860F900FBEE0911206F09113068E
:102C80000FB6F8940F9210860F900FBE60916A00F5
:102C9000242F30E081E090E0FC01042E01C0EE0F13
:102CA0000A94EAF75E2F5095562350936A0050918C
:102CB0006A00B90161507109DC0102C0AA0FBB1F93
:102CC0006A95E2F7BD015A2B50936A0050916A0051
:102CD000D9011297EC0102C0CC0FDD1FAA95E2F7D3
:102CE000DE01A095A523A0936A0050916A00D90146
:102CF0001397EC0102C0CC0FDD1FAA95E2F75C2B05
:102D000050936A00473029F1433061F08DB18F70E4
:102D10008DB98DB18F608DB98EB1806F8EB9DF9115
:102D2000CF9108956DB3A9014E5F5F4FFC0102C0C2
:102D3000EE0FFF1F4A95E2F76E2B6DBB4DB32F5F71
:102D40003F4F022E01C0880F0A94EAF7482B4DBB73
:102D5000DDCF8DB38E2B8DBB8DB3862B8DBBD6CFA8
:102D6000461B570BBA0180E090E008951F920F9226
:102D70000FB60F9211240BB60F928F939F93AF93C0
:102D8000BF93EF93FF93CF93DF93CDB7DEB7259734
:102D9000DEBFCDBFE0911606F09117060FB6F8948E
:102DA0000F9280858D830F900FBE8D81A0911806A4
:102DB000B09119060FB6F8940F9218968C93189745
:102DC0000F900FBE9CB18CB180729071892B90E0F6
:102DD00095958795959587959595879595958795DB
:102DE0000FB6F8940F9280870F900FBE18968C91B3
:102DF000813009F454C008F442C0823039F1833084
:102E000089F48085813009F451C08085823009F0D1
:102E10003CC0E0911C06F0911D06808591850197CC
:102E2000918780870F900F900F900F900F90DF91F8
:102E3000CF91FF91EF91BF91AF919F918F910F90A3
:102E40000BBE0F900FBE0F901F901895808583309A
:102E500069F18085811119C0E0911C06F0911D0671
:102E60000FB6F8940F92808591859A8389830F908D
:102E70000FBE89819A81019791878087D3CF808502
:102E80008230A1F080858130D9F0E0910C06F0917C
:102E90000D0680859185019691878087C3CF8085B7
:102EA000882321F08085833081F7B3CFE0911C0621
:102EB000F0911D0680859185019691878087B2CF1C
:102EC000E0911C06F0911D060FB6F8940F928085D4
:102ED00091859C838B830F900FBE8B819C81019782
:102EE000918780879FCF0C94B6161F920F920FB6D2
:102EF0000F9211240BB60F928F939F93AF93BF93B2
:102F0000EF93FF93E0911206F09113068085A09154
:102F10001406B091150618968C9318979CB18CB135
:102F200080789074892B90E0082E892F000C881FE0
:102F3000990B000C881F991F808718968C918130FF
:102F4000C1F138F1823049F08330B1F480858130AD
:102F5000B9F18085823019F506C08085833081F112
:102F6000808581111CC0E0911A06F0911B068085B6
:102F70009185019791878087FF91EF91BF91AF91E4
:102F80009F918F910F900BBE0F900FBE0F901F90CF
:102F9000189580858230A1F08085813021F3E09101
:102FA0000A06F0910B0680859185019691878087AE
:102FB000E3CF8085882321F08085833081F7D3CFCC
:102FC000E0911A06F0911B06808591850196918704
:102FD0008087D2CF0C947517CF93DF93EC01262F07
:102FE0004DE360E58A819B810E948D206BE08881A2
:102FF00099810E941833EC0164E679E00E94D33293
:1030000066E0CE01DF91CF910C941833CF93DF931C
:10301000EC01262F4EE360E58A819B810E948D2082
:103020006BE0888199810E941833EC0161E579E0B9
:103030000E94D33266E0CE01DF91CF910C94183319
:10304000CF93DF93EC0120E04BE360E58A819B8125
:103050000E948D206BE0888199810E941833EC01D9
:1030600063E479E00E94D33266E0CE01DF91CF9134
:103070000C9418330F931F93CF93DF93EC01798354
:10308000688384E090E00E949C328C0168817981A1
:103090000E940E1E1B830A8340E060E5C8010E9467
:1030A000FC1E6BE0803A09F1888199810E941833F7
:1030B0008C0162EA79E0C8010E94D33266E0C8015F
:1030C0000E94183360E0CE010E94EC1760E0CE0150
:1030D0000E940618CE010E9420186CE0CE01DF91FC
:1030E000CF911F910F910C94EC17888199810E94C8
:1030F00018338C016BE779E0DECFEF92FF920F93EC
:103100001F93CF93DF93EC0149E360E58A819B81B4
:103110000E94FC1EF82E46E360E58A819B810E9496
:10312000FC1EE82E6BE0888199810E9418338C0187
:103130006FE279E00E94D3326F2DC8010E944034C3
:1031400066E00E94183381E0F816D1F06BE08881C8
:1031500099810E941833EC0164E079E00E94D33237
:103160006E2DCE010E94403466E00E94183366E066
:10317000DF91CF911F910F91FF90EF900C94183336
:103180004AE360E58A819B810E94FC1EF82E6BE079
:10319000888199810E9418338C0162E279E00E9453
:1031A000D3326F2DC8010E94403466E00E9418336C
:1031B000CDCF1F93CF93DF93EC01613081F162306B
:1031C000B9F16330A9F06BE0888199810E941833CE
:1031D000EC016FEE78E00E94D33266E0CE010E94EF
:1031E000183320E030E0C901DF91CF911F9108959D
:1031F0004FE160E58A819B810E94FC1E182F4EE101
:1032000060E58A819B810E94FC1E212F30E0322FD5
:103210002227282BC901DF91CF911F9108954BE1FF
:1032200060E58A819B810E94FC1E182F4AE1E8CF4D
:103230004DE160E58A819B810E94FC1E182F4CE1C4
:10324000DFCFE0E9F0E08081826880838081808345
:10325000E1E9F0E080818A6180838081808380E47D
:103260009CE990939700809396006B9A0895603D37
:1032700087E0780780F0613A8FE0780728F4709350
:10328000990060939800089560EA7FE07093990038
:1032900060939800089560ED77E0709399006093D3
:1032A00098000895FC0171836083EAE7F0E0808173
:1032B0008068808380818160808380818D7F80832E
:1032C000808184608083ECE7F0E08081806480838B
:1032D00080818F778083089580917C00887F8093A0
:1032E0007C0080917C006770682B60937C008091EB
:1032F0007A00806480937A0080917A0086FDFCCF0A
:1033000080917800909179000895403430F1ECE399
:10331000F0E04CE3677080E090E020917C00287F33
:1033200020937C0020917C00262B20937C00209110
:103330007A00206420937A0020917A0026FDFCCF49
:103340002091780030917900820F931F415029F726
:10335000BF010E94F13ECB010895442319F0E42FF0
:10336000F0E0D8CFE0E0F0E080E090E0BF010E9424
:10337000F13ECB0108952F923F924F925F926F9250
:103380007F928F929F92AF92BF92CF92DF92EF92F5
:10339000FF920F931F93CF93DF9300D000D000D004
:1033A000CDB7DEB79E838D8380917C00887F80932C
:1033B0007C0080917C00876080937C0080917A0003
:1033C000806480937A0080917A0086FDFCCF209102
:1033D00078003091790080917C00887F80937C0018
:1033E00080917C00866080937C0080917A0080646C
:1033F00080937A0080917A0086FDFCCF209078003F
:103400003090790080917C00887F80937C0080914F
:103410007C00856080937C0080917A00806480933A
:103420007A0080917A0086FDFCCF40907800509021
:10343000790080917C00887F80937C0080917C0063
:10344000846080937C0080917A00806480937A000D
:1034500080917A0086FDFCCF009178001091790070
:1034600080917C00887F80937C0080917C008360C9
:1034700080937C0080917A00806480937A008091B0
:103480007A0086FDFCCFE0907800F0907900809182
:103490007C00887F80937C0080917C008260809398
:1034A0007C0080917A00806480937A0080917A0019
:1034B00086FDFCCFC0907800D090790080917C0090
:1034C000887F80937C0080917C00816080937C0069
:1034D00080917A00806480937A0080917A0086FDE2
:1034E000FCCFA0907800B090790080917C00887F1C
:1034F00080937C0080917C0080937C0080917A0096
:10350000806480937A0080917A0086FDFCCF809061
:1035100078009090790040917C0050917A006BE0A7
:103520008D819E812B833C834A8359830E9418336B
:103530003C0168EC79E00E94D3325981652FC301C8
:103540000E94403466E00E9418336BE00E941833FA
:103550003C0161ED79E00E94D3324A81642FC301BE
:103560000E94403466E00E9418336BE00E941833DA
:103570003C0169ED79E00E94D332B401C3010E949D
:10358000BE3366E00E9418336BE00E9418334C0192
:1035900061EE79E00E94D332B501C4010E94BE33CE
:1035A00066E00E9418336BE00E9418335C0169EEFC
:1035B00079E00E94D332B601C5010E94BE3366E0B5
:1035C0000E9418336BE00E9418336C0161EF79E0C0
:1035D0000E94D332B701C6010E94BE3366E00E944A
:1035E00018336BE00E9418337C0169EF79E00E9488
:1035F000D332B801C7010E94BE3366E00E9418337F
:103600006BE00E9418338C0161E07AE00E94D332B3
:10361000B201C8010E94BE3366E00E9418336BE01D
:103620000E9418338C0169E07AE00E94D332B10124
:10363000C8010E94BE3366E00E9418336BE00E940E
:1036400018338C0161E17AE00E94D3322B813C81F6
:10365000B901C8010E94BE3366E00E9418338D8113
:103660009E8126960FB6F894DEBF0FBECDBFDF91C8
:10367000CF911F910F91FF90EF90DF90CF90BF906F
:10368000AF909F908F907F906F905F904F903F9002
:103690002F900895CF93DF93EC01DC016D937D9320
:1036A0008DE0E8E0F2E001900D928A95E1F7188A4A
:1036B0001F861A8A198A1C8A1B8A1E8A1D8A188EDE
:1036C0001F8A1C8E1B8EDF91CF910895FC016283AF
:1036D000148E138E0895CF93DF93EC01CB016F8589
:1036E0007889788F6F8B988B8F870E94931D9A8F24
:1036F000898FDF91CF910895FC01728B618B0895C2
:10370000FC01748B638B0895AF92BF92CF92DF92CE
:10371000EF92FF920F931F93CF93DF93CDB7DEB756
:103720002D970FB6F894DEBF0FBECDBFA982BA8227
:10373000CB82DC82ED82FE820F83188729873A874D
:103740004B875C876D872DE0FE013196DC01129678
:1037500001900D922A95E1F7FC01148E138E2D969F
:103760000FB6F894DEBF0FBECDBFDF91CF911F9192
:103770000F91FF90EF90DF90CF90BF90AF900895A2
:10378000FC01748363830895FC0176836583089547
:10379000FC01708767830895FC0172876187089533
:1037A000FC0174876387568745870895FC018281F1
:1037B0000895FC01878590890895FC01818992898B
:1037C0000895FC018389948908952DE0FB013296C8
:1037D000DC0101900D922A95E1F70895FC018581A5
:1037E00096810895FC01838194810895FC0187816D
:1037F00090850895FC01818592850895FC0183855B
:1038000094850895FC018585968508950F931F93EF
:10381000CF93DF93EC018B899C892F853889821B9C
:10382000930B9E8B8D8B6D8D7E8D89859A850E94E5
:10383000DD1D40E054E00E94EF1D8C016D897E8902
:103840008B8D9C8D0E94761DB8010E94931D9C8FCC
:103850008B8F8A81833009F472C090F5813009F42E
:1038600063C0823009F044C06D897E898B819C8160
:103870000E94DD1D40E054E00E94EF1D8C016B8D25
:103880007C8D8D819E810E94DD1D40E054E00E9470
:10389000EF1DB8010E94761D6D857E85681779073A
:1038A000D4F06B857C85861797070CF458C01E8E64
:1038B0001D8E9A8B898BDF91CF911F910F91089567
:1038C0008430C9F08530A1F489899A896D857E8517
:1038D0006817790734F70E94931D9E8F8D8F8D8511
:1038E0009E85898B9A8BDF91CF911F910F910895BF
:1038F00080E090E0D1CF6D897E898B819C810E9490
:10390000DD1D40E054E00E94EF1D8C01698D7A8D31
:103910008F8198850E94DD1D40E054E00E94EF1DDC
:10392000B8010E94761DAACF6D897E898B819C810A
:103930000E94DD1D40E054E00E94EF1DADCF6D8977
:103940007E898B819C810E94DD1D40E054E00E94B5
:10395000EF1D8C01698D7A8D8F81988594CF0E949F
:10396000931D9E8F8D8F8B859C85898B9A8BDF9184
:10397000CF911F910F9108950F931F93CF93DF93D2
:10398000EC01CB018A016F857889788F6F8B988BDA
:103990008F870E94931D9A8F898F1C8B0B8BCE0172
:1039A000DF91CF911F910F910C94061C4F925F9263
:1039B0006F927F928F929F92AF92BF92CF92DF923F
:1039C000EF92FF920F931F93CF93DF93EC01FB01D4
:1039D000418452846780708403811481E580F6807D
:1039E000C584D684A384B4848280912C62E772E07B
:1039F0000E94D33262E0CE010E941833B4010E94CB
:103A00005D3366E00E9418334C016DE772E00E945E
:103A1000D33262E0C4010E941833B5010E945D33C5
:103A20005C016AE872E00E94D33262E0C5010E9444
:103A30001833B6010E945D3366E00E9418336C01B2
:103A40006FE872E00E94D33266E0C6010E9418332C
:103A50006C0166E972E00E94D33262E0C6010E9406
:103A60001833B7010E945D3366E00E9418337C0171
:103A700062EA72E00E94D33262E0C7010E9418330A
:103A8000B8010E945D3366E00E9418338C016EEA33
:103A900072E00E94D33262E0C8010E941833B30181
:103AA0000E945D3366E00E9418338C016AEB72E07D
:103AB0000E94D33262E0C8010E941833B2010E9412
:103AC0005D3366E00E941833CE01DF91CF911F91E4
:103AD0000F91FF90EF90DF90CF90BF90AF909F90AD
:103AE0008F907F906F905F904F9008959C01432F2F
:103AF0004095441F4427441F80E090E8841B9109AF
:103B0000AC01421B530BE1E0461757070CF0E0E015
:103B1000432F4095441F4427441FE41719F0C9015F
:103B2000860F971F08958617970799F1611520E86A
:103B3000720741F1719561957109492F4095441FB4
:103B40004427441F20E030E8241B3109A901481B09
:103B5000590BE1E04617570764F4492F4095441F7D
:103B60004427441FE41719F0860F971F0895C901D1
:103B70000895E0E0492F4095441F4427441FE4176F
:103B8000B1F3F2CF97FD03C06FEF7FE7D6CF019679
:103B9000FBCF80E090E00895811520E8920729F09E
:103BA0009C0197FD05C0C90108958FEF9FE7089517
:103BB000319521953109C9010895811520E89207B1
:103BC00029F09C01DB010E94B83E0895611520E8B0
:103BD0007207B9F76FEF7FEF8FEF9FE708959A01B4
:103BE000442737FD4095542F0E943B3F211580E824
:103BF00038074105510524F02FEF3FE740E050E042
:103C0000DA01C901811520E892072FEFA207B20758
:103C100024F480E090E8AFEFBFEF0895CF93DF93F7
:103C2000EC017983688388E48093B80081E00E9486
:103C30000B259B838A83892B19F0DF91CF910895FF
:103C40000990D881C02D2097C1F36AE575E0CE01B7
:103C50000E94D33266E0CE01DF91CF910C941833ED
:103C600084EA8093BC008091BC0087FD0AC089EE85
:103C700093E003C00197009769F02091BC0027FFF3
:103C8000F9CF9091B900987F81E0983009F00895BC
:103C900080E0089581E008951F93CF93DF9324EA95
:103CA0002093BC002091BC0027FD0CC029EE33E01E
:103CB00005C02150310921153105C1F14091BC00E9
:103CC00047FFF7CF2091B900287F203151F1FC0147
:103CD00080819181009729F11091B9006BE00E94D9
:103CE0001833EC016DE67AE00E94D33263E0CE0136
:103CF0000E941833612F0E9440346BE00E941833F9
:103D0000EC016EE77AE00E94D33262E0CE010E94BD
:103D1000183366E00E94183380E0DF91CF911F9145
:103D2000089580E0DF91CF911F91089581E0DF91A8
:103D3000CF911F910895CF93DF936093BB0024E848
:103D40002093BC002091BC0027FD0CC029EE33E07D
:103D500005C0215031092115310591F04091BC0079
:103D600047FFF7CF9091B900987F81E0983129F013
:103D7000983219F0903409F080E0DF91CF910895E6
:103D8000FC01808191810097B9F36BE00E941833A8
:103D9000EC016CE57AE00E94D33266E0CE010E942D
:103DA000183380E0DF91CF9108956623E9F084EC29
:103DB0008093BC0040E59091BC0097FD0AC089EE5D
:103DC00093E003C00197009769F02091BC0027FFA2
:103DD000F9CF2091B900287F30E0842F90E0281798
:103DE000390739F08FEF089584E88093BC0048E5E7
:103DF000E2CF8091BB000895FF920F931F93CF9362
:103E0000DF93EC01162FF42E00E02FEF3FEFA90116
:103E100060E070E08A819B810E94742584EA80932F
:103E2000BC008091BC0087FD0CC029EE33E005C0CA
:103E3000215031092115310531F08091BC0087FFF7
:103E4000F7CF8091B900612FCE010E949B1E811196
:103E50001AC088819981009721F06EE675E00E9472
:103E6000D33200E020E030E0A90160E070E08A8118
:103E70009B810E94532411E0812FDF91CF911F91EC
:103E80000F91FF9008956F2DCE010E949B1E8823F5
:103E900001F384E98093BC0084EA8093BC008091A4
:103EA000BC0087FD0CC029EE33E005C0215031096C
:103EB0002115310531F08091BC0087FFF7CF80914B
:103EC000B900612F6160CE010E949B1E81111AC052
:103ED00088819981009721F064E775E00E94D332D0
:103EE00000E020E030E0A90160E070E08A819B8181
:103EF0000E9453241FEF812FDF91CF911F910F91CB
:103F0000FF90089584E88093BC008091BC0087FDF9
:103F10000CC029EE33E005C02150310921153105CF
:103F200049F08091BC0087FFF7CF8091B900887F6E
:103F30008835A9F01FEF84E98093BC0000E020E001
:103F400030E0A90160E070E08A819B810E945324E7
:103F5000812FDF91CF911F910F91FF9008951091C4
:103F6000BB00E9CFCF92DF92EF92FF920F931F93A6
:103F7000CF93DF93EC01C62ED42E7901102F00E0F1
:103F80002FEF3FEFA90160E070E08A819B810E94E2
:103F9000742584EA8093BC008091BC0087FD0AC030
:103FA000E9EEF3E003C03197309731F09091BC0017
:103FB00097FFF9CF8091B9006C2DCE010E949B1E16
:103FC00081111EC088819981009721F06AE775E010
:103FD0000E94D33200E020E030E0A90160E070E010
:103FE0008A819B810E945324DD24D3948D2DDF91FF
:103FF000CF911F910F91FF90EF90DF90CF90089598
:104000006D2DCE010E949B1ED82E8823D9F284E903
:104010008093BC0084EA8093BC008091BC0087FD43
:104020000CC049EE53E005C04150510941155105FE
:1040300031F09091BC0097FFF7CF8091B9006C2DC3
:104040006160CE010E949B1E811113C088819981FD
:10405000009721F060E875E00E94D33200E020E094
:1040600030E0A90160E070E08A819B810E945324C6
:10407000BDCF8FEF810F19F1F70124EC2093BC0025
:104080009091BC0097FD0CC049EE53E005C0415033
:1040900051094115510549F09091BC0097FFF7CFA8
:1040A0009091B900987F903591F19FEF9193815055
:1040B00029F71250812F90E00196E80EF91E84E84E
:1040C0008093BC008091BC0087FD0AC089EE93E01C
:1040D00003C00197009749F02091BC0027FFF9CF5A
:1040E0008091B900887F8835A9F08FEFF701808330
:1040F00084E98093BC0000E020E030E0A90160E0AA
:1041000070E08A819B810E945324D12C6FCF9091C3
:10411000BB00CCCF8091BB00E9CFEF92FF920F9311
:104120001F93CF93DF93EC01162FF42EE22E00E0C5
:104130002FEF3FEFA90160E070E08A819B810E9430
:10414000742584EA8093BC008091BC0087FD0AC07E
:10415000E9EEF3E003C03197309731F08091BC0075
:1041600087FFF9CF8091B900612FCE010E949B1E7D
:1041700081111AC088819981009721F066E875E065
:104180000E94D33200E020E030E0A90160E070E05E
:104190008A819B810E94532481E0DF91CF911F91FE
:1041A0000F91FF90EF9008956F2DCE010E949B1EFE
:1041B000882301F36E2DCE010E949B1E8823D1F22D
:1041C00084E98093BC0000E020E030E0A90160E0D9
:1041D00070E08A819B810E94532480E0DECFBF92F1
:1041E000CF92DF92EF92FF920F931F93CF93DF93C3
:1041F0007C01C62FD42FB22E132FD02E00E02FEF2C
:104200003FEFA90160E070E0DC0112968D919C9176
:1042100013970E94742584EA8093BC008091BC00AF
:1042200087FD0AC0E9EEF3E003C03197309731F023
:104230008091BC0087FFF9CF8091B9006C2FC70136
:104240000E949B1E811123C0D7018D919C910097E4
:1042500021F06CE875E00E94D33200E020E030E00D
:10426000A90160E070E0D70112968D919C9113979F
:104270000E945324CC24C3948C2DDF91CF911F91A5
:104280000F91FF90EF90DF90CF90BF9008956D2F2A
:10429000C7010E949B1EC82E8823B1F2DD2079F150
:1042A000CB2DD12F10E003C01F5F1D1541F1699187
:1042B000C7010E949B1E8111F7CFF701C081D181F8
:1042C000209789F062E975E0CE010E94D332612F18
:1042D000CE010E944034DC01ED91FC910280F3811B
:1042E000E02D6EE3099500E020E030E0A90160E0F8
:1042F00070E0F701828193810E945324BDCF84E94D
:104300008093BC0000E020E030E0A90160E070E0B4
:10431000F701828193810E945324C12CADCF8BB1D0
:104320008695817008950F931F93CF93DF93EC01CF
:10433000162F00E02FEF3FEFA90160E070E08A81C7
:104340009B810E94742584EA8093BC008091BC000C
:1043500087FD0CC029EE33E005C02150310921153D
:10436000310531F08091BC0087FFF7CF8091B90013
:10437000612FCE010E949B1E182F84E98093BC0000
:1043800000E020E030E0A90160E070E08A819B81DC
:104390000E945324812FDF91CF911F910F91089597
:1043A000CF92DF92EF92FF920F931F93CF93DF9301
:1043B0008C01EB016BE0CE010E9418337C0168E4B4
:1043C0007AE00E94D33263E0C7010E94183366E0AE
:1043D0000E941833E12CF12C6E2DCE010E94403446
:1043E000DC01ED91FC910280F381E02D60E3099501
:1043F000CE2CC29480EFC822D12C08C060E4CE013C
:104400000995D394D394B0E1DB16E1F0E881F9810A
:104410000280F381E02D60E2CE0109956D2D6C29BB
:10442000C8010E949321E881F9810280F381E02D87
:104430008111E4CF6DE2CE010995D394D394B0E11C
:10444000DB12E4CF66E0CE010E9418338FEFE81A4A
:10445000F80AA0E1EA16F10409F0BECF62E0CE014D
:10446000DF91CF911F910F91FF90EF90DF90CF9050
:104470000C9418338652944F641B750B4EED460313
:104480009001479F300D1124820F931F08950F93C1
:104490001F93CF93DF93EC010E94FE2880912C069E
:1044A000811121C086E396E0909332068093310615
:1044B000109234061092330687E397E1909330060A
:1044C00080932F0610922E0610922D069093390697
:1044D000809338068DE296E09093370680933606F7
:1044E00081E080932C06209709F460C0AE014C5FF8
:1044F0005F4F2396C633D74108F058C0E09131068C
:10450000F0913206A1E3B6E006C080819181009768
:1045100039F0DF01FC012281338124173507A8F32C
:10452000C6E0ED32FC0709F441C00D911C911197D2
:104530000C5F1F4F808191818D939C93C901841BD7
:10454000950B8930910500F1BF01640F751FDB01E8
:1045500013969C938E9312975383428312968D9158
:104560009C911397A1E3B6E001C0DF01ED91FC91AE
:1045700011972281338128173907B8F3EB01F983AA
:10458000E8836D937C939A018091000290910102DF
:10459000821B930B90930102809300020E94312AA8
:1045A000C801DF91CF911F910F91089500E010E0B5
:1045B0000E94312AC801DF91CF911F910F91089578
:1045C000CF93DF93009721F1EC0124970E94FE28FE
:1045D0004A815B81A1E3B6E001C0DF01ED91FC916E
:1045E00011972281338124173507B8F3F983E883C3
:1045F000CD93DC938091000290910102840F951F6E
:104600009093010280930002DF91CF910C94312AA4
:10461000DF91CF9108958091000290910102089559
:1046200008951F93CF93DF93EC01142F88A181117C
:104630000DC088819981892B09F44DC080E09E8D41
:104640009F5F9E8FDF91CF911F910895482F50E07B
:1046500011111CC08C819D810E94564028A18C8123
:104660009D81820F911D9D838C832A813B818217BE
:10467000930720F3888199819D838C8380E09E8DB0
:104680009F5F9E8FDF91CF911F9108958E819F81B3
:104690000E94564028A130E03195219531098E8144
:1046A0009F81820F931F9F838E83688179818617F4
:1046B000970730F48A819B81820F931F9F838E839B
:1046C000123009F0BBCF8E8D882309F4B7CF8E8DC1
:1046D00081508E8FB3CF8A819B810E945C2D1B827B
:1046E0001A82ADCFFC01CB0140A1442399F050E0E8
:1046F00026813781240F351F37832683628173819A
:104700002617370720F02081318137832683B901AE
:104710000C94564008950F931F93CF93DF93EC01B1
:104720000FB6F8940F928AA11816ECF48B8988239F
:10473000D1F08E010D5E1F4F09C08AA181508AA35E
:104740008AA1181684F48B89882369F0C8010E9415
:10475000E82B882391F30E94DC2C8AA181508AA344
:104760008AA1181684F38FEF8AA30F900FBE0FB69D
:10477000F8940F9289A11816ECF488858823D1F05B
:104780008E01085F1F4F09C089A1815089A389A1AB
:10479000181684F48885882369F0C8010E94E82BE4
:1047A000882391F30E94DC2C89A1815089A389A1DF
:1047B000181684F38FEF89A30F900FBEDF91CF916E
:1047C0001F910F910895CF93DF93EC010FB6F894EA
:1047D0000F92288139818F8D78A1879FC001112484
:1047E000A901480F591F5B834A831E8E3D832C838A
:1047F000871B9109820F931F9F838E838FEF89A35D
:104800008AA3611112C08885811106C00F900FBE66
:1048100081E0DF91CF910895CE0108960E94E82BA8
:104820008130A1F70E94BE37F1CFCE0108960E94D9
:104830004F36CE0143960E944F360F900FBE81E057
:10484000DF91CF9108950F931F93CF93DF93182F8C
:10485000062F882301F183E290E00E944722EC01B9
:104860000097C9F0109FC001112401960E944722B1
:1048700099838883892B61F01F8F08A361E0CE01A3
:104880000E94E323CE01DF91CF911F910F910895F4
:10489000CE010E94E022C0E0D0E0CE01DF91CF91B6
:1048A0001F910F9108956F927F928F929F92AF9276
:1048B000BF92CF92DF92EF92FF920F93CF93DF934D
:1048C000CDB7DEB729970FB6F894DEBF0FBECDBFC8
:1048D0005C014B012E833F834887598720E03C01D0
:1048E00088E0680E711C0FB6F8940F92F501968D52
:1048F000878D981708F459C0023009F456C0CE804D
:10490000DF80E884F984CD28CE28CF2809F46FC051
:10491000222309F441C00F900FBE0E94FE280FB65B
:10492000F8940F92F50181A18F3F09F43CC0F50185
:1049300082A18F3FB1F10F900FBEBE016A5F7F4F22
:10494000CE0101960E947B2C811155C00FB6F894C0
:104950000F92F501968D0F900FBEF501878D98137C
:1049600014C04E815F8168857985C3010E948D2BBB
:10497000C5010E948B230E94312A882311F021E077
:10498000B2CF0E94BE3721E0AECFC5010E948B237B
:104990000E94312A21E0A7CFCE0101960E946A2C05
:1049A000BACF12A2C8CF11A2C2CF402FB401C50105
:1049B0000E941123F5019389911124C0811128C00F
:1049C0000F900FBE81E029960FB6F894DEBF0FBEA0
:1049D000CDBFDF91CF910F91FF90EF90DF90CF90FF
:1049E000BF90AF909F908F907F906F9008950F90A1
:1049F0000FBE80E0E8CFC5010E948B230E94312AC0
:104A000080E0E1CFC50143960E94E82B8130C1F6DA
:104A10000E94BE37D5CF0F93CF93DF9383E290E010
:104A20000E944722EC01009701F11B821A82198231
:104A300018821D821C821F821E821E8E81E08F8F33
:104A400018A28FEF89A38AA3CE0108960E944F3641
:104A5000CE0143960E944F3600E020E030E0A901ED
:104A600060E070E0CE010E945324CE01DF91CF912F
:104A70000F9108950F931F93CF93DF93EC018A0159
:104A80009E8D8F8D981740F0223031F080E0DF91BD
:104A9000CF911F910F910895422FCE010E941123B3
:104AA000882331F00115110519F081E0F8018083A8
:104AB0008AA18F3F49F08AA18F5F8AA381E0DF91AD
:104AC000CF911F910F9108958B898823B9F3CE015F
:104AD00043960E94E82B882389F30115110571F391
:104AE00081E0F8018083D3CFAF92BF92CF92DF9263
:104AF000EF92FF920F93CF93DF93CDB7DEB7299755
:104B00000FB6F894DEBF0FBECDBF7C016B012E83C4
:104B10003F834887598790E0570183E1A80EB11C75
:104B20000FB6F8940F92F701868D811169C04E81FE
:104B30005F8168857985452B462B472B09F47DC01D
:104B4000992309F43EC00F900FBE0E94FE280FB6B5
:104B5000F8940F92F70181A18F3F09F43EC0F7014D
:104B600082A18F3F09F43FC00F900FBEBE016A5F64
:104B70007F4FCE0101960E947B2C811171C00FB630
:104B8000F8940F92F701868D0F900FBE81111EC011
:104B9000F70180819181892B41F14E815F81688588
:104BA0007985C5010E948D2BC7010E948B230E942D
:104BB000312A882311F091E0B3CF0E94BE3791E0F3
:104BC000AFCFCE0101960E946A2CBDCFC7010E94D3
:104BD0008B230E94312A91E0A3CF11A2F70182A179
:104BE0008F3F09F0C1CF12A2BFCF0FB6F8940F923A
:104BF000F701828193810E94012D0F900FBECDCFCE
:104C0000A680B780B601C7010E947223F701011187
:104C10002EC0868D8150868F80819181892BB9F13C
:104C2000F7018085882341F1C70108960E94E82B8F
:104C3000813011F50E94BE371FC00F900FBE80E07B
:104C400029960FB6F894DEBF0FBECDBFDF91CF918E
:104C50000F91FF90EF90DF90CF90BF90AF900895AD
:104C6000C7010E948B230E94312A80E0E9CFB782DE
:104C7000A6828389811104C00F900FBE81E0E0CF2E
:104C8000C70143960E94E82B8823B1F3D3CF0E943B
:104C9000C32DF70193838283C3CF0F931F93CF93C9
:104CA000DF9300D0CDB7DEB78C01FC01868D81117A
:104CB00008C080E00F900F90DF91CF911F910F916E
:104CC0000895C80149835A830E947223F801868D92
:104CD0008150868F81A149815A818F3F61F0F8010F
:104CE00081A18F5F81A381E00F900F90DF91CF9121
:104CF0001F910F91089580858823A9F3C801089614
:104D000049835A830E94E82B49815A81882359F3A9
:104D10004115510541F381E0FA018083CBCF0F9318
:104D20001F93CF93DF93EC018E8D811106C080E03D
:104D3000DF91CF911F910F9108950E811F81CE01B8
:104D40000E9472231F830E8381E0DF91CF911F9118
:104D50000F9108950FB6F8940F92FC01868D0F9075
:104D60000FBE08950FB6F8940F92FC01268D0F9098
:104D70000FBEFC01878D821B0895FC01868D08956E
:104D8000CF93DF93EC0188819981009711F00E9405
:104D9000E022CE01DF91CF910C94E022FC01968DB0
:104DA00081E0911180E00895FC01268D81E0978DCE
:104DB000291380E008958091A21D823018F00E948E
:104DC000BE37F9CFFFCFCF92DF92EF92FF926B0108
:104DD0007C01E0916D1DF0916E1D6283738384836D
:104DE00095838091761D9091771DA091781DB0914B
:104DF000791D60916D1D70916E1DC816D906EA0669
:104E0000FB0610F180918A1D90918B1D6E5F7F4F84
:104E10000E9485368091020290910302A0910402C3
:104E2000B0910502C816D906EA06FB0640F4C09206
:104E30000202D0920302E0920402F0920502FF9077
:104E4000EF90DF90CF9008958091881D9091891DFB
:104E50006E5F7F4FFF90EF90DF90CF900C94853680
:104E60005F926F927F928F929F92AF92BF92CF92FA
:104E7000DF92EF92FF920F931F93CF93DF934C013A
:104E8000162F572E5A01390189E290E00E944722DD
:104E9000EC01009709F4E9C0C114D10409F4DAC0A7
:104EA000DC8ECB8EC601A50165EA70E00E945F40F2
:104EB00021E0A21AB108CB8CDC8CCA0CDB1CAE0141
:104EC000435E5F4FE12FF52D2AE0CF013191DA01EA
:104ED0003D93AD01DC018C91882311F02150A9F79D
:104EE0001EA2102F043008F07DC01A8F1FA318A631
:104EF0005E01B2E0AB0EB11CC5010E946036CE016E
:104F00000E960E946036DB87CA8784E090E0A0E0BE
:104F1000B0E0811B9109A109B1098E879F87A88BF9
:104F2000B98BDF8BCE8BA301B401C6010E94EE3694
:104F300099838883E114F10419F0F701D183C083C8
:104F40000FB6F8940F9280917A1D8F5F80937A1D2F
:104F500080916D1D90916E1D892B09F449C080913F
:104F6000741D81110BC0E0916D1DF0916E1D828D3D
:104F7000081720F0D0936E1DC0936D1D8091701D99
:104F80008F5F8093701D8A8D9091751D981738F1F1
:104F9000FBE08F9FC0011124B5018E55924E0E94F7
:104FA00064360F900FBE8091741D882339F0E09114
:104FB0006D1DF0916E1D828D8017B0F081E0DF9144
:104FC000CF911F910F91FF90EF90DF90CF90BF9006
:104FD000AF909F908F907F906F905F900895809397
:104FE000751DD6CF13E081CF0E94BE3781E0E7CF99
:104FF000D0936E1DC0936D1D80917A1D813009F094
:10500000BDCF82EA9DE10E944F368DEA9DE10E946C
:105010004F3688EB9DE10E944F3683EC9DE10E9464
:105020004F3687E99DE10E944F368CE89DE10E9452
:105030004F368DE79DE10E944F3687E99DE19093C1
:105040008B1D80938A1D8CE89DE19093891D809330
:10505000881D94CFC5010E9447229C8F8B8F00979B
:1050600009F021CFCE010E94E0228FEFA8CF0FB62A
:10507000F8940F92009729F00F900FBEFC01828DDB
:10508000089580916D1D90916E1D0F900FBEFC01D3
:10509000828D0895EF92FF921F93CF93DF93EC01DF
:1050A000262F643008F023E00FB6F8940F92209773
:1050B00009F44AC03FA13217A9F180916D1D90916A
:1050C0006E1D3217B8F5C817D90741F0E0916D1D74
:1050D000F0916E1D11E0828D281708F410E08A8D82
:1050E000381769F12FA34E855F856889798977FD27
:1050F0000CC044E050E060E070E0421B51096109DF
:1051000071094E875F87688B798B2BE0829FC00186
:1051100011248E55924E2C853D8528173907C9F0EC
:10512000113079F00F900FBEDF91CF911F91FF905A
:10513000EF90089511E0C817D90781F6D0CF2A8FD4
:10514000D1CF0E94BE37EECFC0916D1DD0916E1DA4
:10515000B1CF7E0182E0E80EF11CC7010E94C23689
:105160008A8D9091751D981710F48093751D2BE012
:10517000829FC0011124B7018E55924E0E94643661
:10518000CFCFAF92BF92CF92DF92EF92FF920F9369
:10519000A12CB12CC12CD12C8BE7E82E8DE1F82E5F
:1051A00000E020E030E044E650E066E975E08BED99
:1051B00096E20E943027813041F00F91FF90EF90EE
:1051C000DF90CF90BF90AF900895F8948093741DB6
:1051D0001092761D1092771D1092781D1092791DF5
:1051E0000F91FF90EF90DF90CF90BF90AF900C9415
:1051F0008237F8941092741D0C94BD3780916F1D06
:105200008F5F80936F1D08950FB6F8940F92609191
:10521000761D7091771D8091781D9091791D0F906A
:105220000FBE08956091761D7091771D8091781D55
:105230009091791D089580917A1D0895009711F03D
:105240004D96089580916D1D90916E1D4D96089517
:1052500080917B1D90917C1D0895AF92BF92CF925B
:10526000DF92EF92FF920F931F93CF93DF93809182
:105270006F1D8111CFC08091761D9091771DA091F7
:10528000781DB091791D0196A11DB11D8093761DE9
:105290009093771DA093781DB093791DC090761DD3
:1052A000D090771DE090781DF090791DC114D10445
:1052B000E104F10439F580918A1D90918B1D2091B4
:1052C000881D3091891D30938B1D20938A1D9093EA
:1052D000891D8093881D8091711D8F5F8093711D42
:1052E000E0918A1DF0918B1D808181119AC08FEF12
:1052F0009FEFDC018093020290930302A0930402CB
:10530000B09305028091020290910302A0910402E1
:10531000B0910502B12CC816D906EA06FB0608F4BE
:1053200057C09BE0A92EE0918A1DF0918B1D8081D2
:10533000882309F442C0E0918A1DF0918B1D0780FB
:10534000F085E02DC085D1854A815B816C817D81AE
:10535000C416D506E606F70608F47AC08E010E5F7D
:105360001F4FC8010E94C236888D998D892B21F06C
:10537000CE010E960E94C2368A8D9091751D9817A7
:1053800010F48093751DA89EC0011124B8018E559C
:10539000924E0E946436E0916D1DF0916E1D9A8DC3
:1053A000828D981708F4BFCFBB24B394E0918A1D77
:1053B000F0918B1D80818111BECF4FEF5FEFBA015D
:1053C000409302025093030260930402709305021B
:1053D000E0916D1DF0916E1DE28D8BE0E89FF00174
:1053E0001124EE55F24E8081823010F0BB24B3942C
:1053F0008091721D882311F0BB24B3948B2DDF9113
:10540000CF911F910F91FF90EF90DF90CF90BF90C1
:10541000AF9008958091731D8F5F8093731DB12CA1
:10542000E7CFE0918A1DF0918B1D0780F085E02D7C
:105430000084F185E02D82819381A481B5818093E0
:10544000020290930302A0930402B09305025ACF84
:10545000409302025093030260930402709305028A
:10546000B7CFEF92FF920F931F93CF93DF930FB6B7
:10547000F8940F9280916F1D815080936F1D8091E1
:105480006F1D811150C080917A1D882309F44BC093
:105490002BE0F22EEE24E39427C0E091841DF091DE
:1054A000851DC085D185CE010E960E94C2368E0123
:1054B0000E5F1F4FC8010E94C2368A8D9091751DE4
:1054C000981710F48093751DF89EC0011124B8013F
:1054D0008E55924E0E946436E0916D1DF0916E1DC6
:1054E0009A8D828D981748F580917D1D8111D5CFB9
:1054F0008091731D882399F08091731D882379F022
:10550000C1E00E942D298111C093721D8091731DED
:1055100081508093731D8091731D8111F2CF809112
:10552000721D813069F080E00F900FBEDF91CF9146
:105530001F910F91FF90EF900895E092721DD4CFCC
:105540000E94BE3781E0F0CFCF92DF92EF92FF92C0
:105550000F931F93CF93DF9300D000D0CDB7DEB76A
:1055600020916F1D2F5F20936F1DC090761DD090EE
:10557000771DE090781DF090791DFC01008111816C
:1055800022813381400F511F621F731FC016D10645
:10559000E206F306E8F44017510762077307E8F0E4
:1055A000FC0140835183628373830E94312A8111FD
:1055B00002C00E94BE370F900F900F900F90DF91A6
:1055C000CF911F910F91FF90EF90DF90CF900895B2
:1055D000401751076207730728F0C416D506E60680
:1055E000F706F0F6FC014083518362837383809158
:1055F0006D1D90916E1D029649835A836B837C8347
:105600000E94C23649815A816B817C81CB01BA01EB
:105610000E94E326CACFCF92DF92EF92FF926115EC
:1056200071058105910539F40E94BE37FF90EF9016
:10563000DF90CF90089520916F1D2F5F20936F1DF5
:10564000C090761DD090771DE090781DF090791D68
:10565000C60ED71EE81EF91E80916D1D90916E1D1D
:1056600002960E94C236C701B6010E94E3260E943C
:10567000312A8823C9F2FF90EF90DF90CF900895F0
:1056800080916F1D81113BC01092721DE091751DBC
:105690008BE0E89FF0011124EE55F24E80818111DC
:1056A00010C09BE08091751D81508093751DE09125
:1056B000751D9E9FF0011124EE55F24E80818823C6
:1056C00089F3E091751D8BE0E89FF0011124EE5500
:1056D000F24EA181B28114960D90BC91A02DB2839F
:1056E000A183CF010396A817B90769F018968D9189
:1056F0009C91199790936E1D80936D1D089581E084
:105700008093721D089514969C91149715968C9110
:1057100091838283A92FB82FE9CFCF92DF92EF92A6
:10572000FF926A017B0160916D1D70916E1D625F39
:105730007F4F0E94853680916D1D90916E1D02965F
:105740000E94C2366091761D7091771D8091781D00
:105750009091791D6C0D7D1D8E1D9F1DFF90EF900A
:10576000DF90CF900C94E326CF92DF92EF92FF92DE
:105770000F931F9368017901E0916D1DF0916E1DEB
:10578000706846875787608B718B60916D1D709133
:105790006E1D625F7F4F0E94643680916D1D9091F7
:1057A0006E1D02960E94C2366091761D7091771D23
:1057B0008091781D9091791D6C0D7D1D8E1D9F1D12
:1057C0001F910F91FF90EF90DF90CF900C94E32604
:1057D0000F931F93CF93DF93DC011796ED91FC910C
:1057E0001897C085D1858E01025F1F4FC8010E94A6
:1057F000C23680916F1D811124C08E010E5F1F4F34
:10580000C8010E94C2368A8D9091751D9817F8F0D4
:10581000BBE08B9FC0011124B8018E55924E0E94AF
:105820006436E0916D1DF0916E1D9A8D828D891701
:1058300088F481E08093721DDF91CF911F910F91C9
:105840000895B8018DE79DE10E946436EACF809308
:10585000751DDECF80E0DF91CF911F910F910895EC
:105860000F931F93CF93DF937068FC0140835183A4
:1058700062837383C085D1850E94C2368E010E5F1C
:105880001F4FC8010E94C2368A8D9091751D9817CE
:1058900010F48093751DFBE08F9FC0011124B801A7
:1058A0008E55924E0E946436E0916D1DF0916E1DF2
:1058B0009A8D828D891740F481E08093721DDF916B
:1058C000CF911F910F91089580E0DF91CF911F91AB
:1058D0000F9108952091711DFC0120834091761D48
:1058E0005091771D6091781D7091791D418352838D
:1058F0006383748308958F929F92AF92BF92CF92E9
:10590000DF92EF92FF920F931F93FC01DB010FB622
:10591000F8940F924091761D5091771D6091781DFB
:105920007091791D8091711D908101811281238177
:105930003481981729F0401751076207730770F5F3
:10594000CD90DD90ED90FC9013974A015B01801A99
:10595000910AA20AB30A8C149D04AE04BF04F0F4A9
:10596000C41AD50AE60AF70AC00ED11EE21EF31EBB
:10597000CD92DD92ED92FC9213978091711D808300
:105980008091761D9091771DA091781DB091791D21
:1059900081839283A383B48380E001C081E00F9070
:1059A0000FBE1F910F91FF90EF90DF90CF90BF90AF
:1059B000AF909F908F90089581E08093721D08951D
:1059C000009799F0DC015B96ED91FC915C978081EA
:1059D000853A81F4319680E090E0DC010196A11DCA
:1059E000B11D2191253AD1F3089580916D1D9091BB
:1059F0006E1DE8CF80E0089580916D1D90916E1D21
:105A000008950F931F93CF93DF93EC01009781F1DB
:105A10008A8DE0916D1DF0916E1D928D891740F574
:105A20004E855F856889798977FD11C0E0916D1D8C
:105A3000F0916E1D928D44E050E060E070E0491BF3
:105A40005109610971094E875F87688B798B2BE05B
:105A5000829FC00111248E55924E2C853D852817BA
:105A6000390759F0E0916D1DF0916E1D828D8A8F7E
:105A7000DF91CF911F910F9108958E010E5F1F4FFF
:105A8000C8010E94C236E0916D1DF0916E1D828D9D
:105A90008A8F9091751D981710F48093751D2BE0D7
:105AA000829FC0011124B8018E55924EDF91CF9193
:105AB0001F910F910C9464360F931F93CF93DF9334
:105AC000EC01009749F088A5815088A72A8D9FA1F5
:105AD000291711F0882331F080E0DF91CF911F91D9
