:100000000C9418040C9437040C9437040C943704A3
:100010000C9437040C94910D0C944E0E0C94500ECD
:100020000C94CE0E0C9437040C9437040C943704C3
:100030000C9437040C9437040C9437040C94370454
:100040000C9437040C9437040C9437040C94370444
:100050000C9437040C9437040C9437040C94370434
:100060000C9437040C94752C0C9437040C943704BE
:100070000C9437040C9437040C9437040C94370414
:100080000C9437040C9437040C9437040C94370404
:100090000C94C82C0C9437040C9437040C9437043B
:1000A0000C9437040C9437040C9437040C943704E4
:1000B0000C9437040C9437040C9437040C943F2FA1
:1000C0000C9437040C9437040C943704E729F02976
:1000D000F329F629E929E929F929092A102A172AF1
:1000E0001B2AED295F5F5F5F5F5F5F5F204D4534D7
:1000F0003035204C61622033204D6F64696669653C
:10010000642050726F6772616D205F5F5F5F5F5F39
:100110005F5F004D6179203231203230313600533B
:10012000797374656D2074696D653A20002C2048E0
:100130006561703A20002C204F435235413A20002F
:1001400020202020723A2020202020205265747523
:10015000726E20746F204D61696E204D656E750062
:10016000202043746C2D433A202020205265736573
:100170007420415652206D6963726F636F6E7472A2
:100180006F6C6C65720020202020733A20202020A4
:10019000202046756C6C204272616B650020202027
:1001A00020623A2020202020204D6F746F72204260
:1001B00052414B4520776974682050574D205B2D84
:1001C0003235352C203235355D0020202020703A24
:1001D0002020202020204D6F746F7220504F5745F3
:1001E0005220776974682050574D205B2D32353589
:1001F0002C203235355D002D2D2D2D2D2D2D2D2D25
:100200002D2D2D2D2D2D2D2D204D4F544F52204D68
:10021000454E55202D2D2D2D2D2D2D2D2D2D2D2DBA
:100220002D2D2D2D2D0020202020723A2020202041
:10023000202052657475726E20746F204D61696E56
:10024000204D656E7500202043746C2D433A2020AC
:100250002020526573657420415652206D69637287
:100260006F636F6E74726F6C6C657200202020205B
:100270006D3A2020202020204D6F746F722073650E
:100280006C65637420616E6420506F7765722076B0
:10029000616C75650020202020643A2020202020F9
:1002A00020537461636B2064756D7020666F7220DB
:1002B0007461736B730020202020733A202020206B
:1002C000202056657273696F6E2F536574757020A8
:1002D000696E666F726D6174696F6E0020202020F8
:1002E000743A20202020202053686F77207468659E
:1002F0002063757272656E742074696D65002D2DB2
:100300002D2D2D2D2D2D2D2D2D2D2D2D2D2D2D202A
:100310004D41494E204D454E55202D2D2D2D2D2D35
:100320002D2D2D2D2D2D2D2D2D2D2D00496C6C6558
:1003300067616C2073746174652120526573657404
:1003400074696E6720415652002220003C2D2D20FA
:10035000556E6B6E6F776E20636F6D6D616E642E80
:10036000205479706520636F6D6D616E64206672D4
:100370006F6D206D656E752E0052657365747469BE
:100380006E6720415652004D6F746F7220002048F6
:10039000414C5445442100456E746572206E756D64
:1003A00062657220666F72204D6F746F7220004517
:1003B0006E746572206E756D62657220666F722054
:1003C0004D6F746F7220002220003C2D2D20556E41
:1003D0006B6E6F776E20636F6D6D616E642E20544F
:1003E00079706520636F6D6D616E642066726F6DEC
:1003F000206D656E752E00506C6561736520747993
:1004000070652061206E756D62657220626574771B
:1004100065656E203020746F203235352C2074686D
:10042000656E20454E54455200506C6561736520E1
:10043000747970652061206E756D626572206265E9
:10044000747765656E202D32353520746F20323516
:10045000352C207468656E20454E54455200506C12
:1004600065617365207479706520612031206F7239
:10047000203220666F72206D6F746F722073656C0E
:100480006563742C207468656E20454E5445520097
:100490004E756D62657220456E74657265643A20B2
:1004A000004E756D62657220456E74657265643AC2
:1004B000202D002220003C2D2D20556E6B6E6F7775
:1004C0006E20636F6D6D616E642E205479706520AF
:1004D000636F6D6D616E642066726F6D206D656E09
:1004E000752E00526573657474696E6720415652AB
:1004F00000456E746572206E756D6265722C2031D8
:10050000206F7220322C20666F72206D6F746F72B4
:100510002073656C656374696F6E3A20004D6F746B
:100520006F722053706565645F32202872706D2988
:10053000203D20004D6F746F722053706565645FBD
:1005400031202872706D29203D200045756C657240
:100550002050697463683A200045756C65722052BA
:100560006F6C6C3A200045756C657220486561645B
:10057000696E673A20004572726F7220696E20675B
:10058000657445756C6572416E6700494D55207301
:10059000797374656D2073656C662074657374205F
:1005A0007374617475733A20004572726F722043E0
:1005B0006F64653A2000494D552073797374656DF9
:1005C000207374617475733A2000494D5520756E1F
:1005D0006974732073657400494D5520706F776599
:1005E00072206D6F64652073657400494D55206FEE
:1005F0007065726174696F6E206D6F6465207365DC
:100600007400494D55206F626A65637420696E7489
:1006100069616C20636F6D6D756E69636174696F7C
:100620006E2073756365737300494D55206F626A60
:1006300065637420696E7469616C20636F6D6D759C
:100640006E69636174696F6E206572726F720041CA
:1006500044435352413A200041444D55583A2000FA
:1006600041444330203D200041444331203D20009F
:1006700041444332203D200041444333203D20008B
:1006800041444334203D200041444335203D200077
:1006900041444336203D200041444337203D200063
:1006A0002D2D2D2D2D2D2D2D204D45343035204C2B
:1006B00061622035205374617274696E67205072D4
:1006C0006F6772616D202D2D2D2D2D2D2D2D00206C
:1006D0002020203020322034203620382041204372
:1006E0002045004932432073656E642074696D654E
:1006F0006F7574004932432072652D737461727492
:100700003A20307800206E6F742030783130004EFF
:100710006F2073686172656420646174612069741C
:10072000656D7320746F207072696E74002D2D2DAD
:100730002D2020202020202020202020202D2D2D85
:100740002D202020202D2D2D2D2D2D2D2D2D2D003A
:1007500053686172652F51756575652020202020D2
:100760005479706520202020467265652F546F747F
:10077000616C004552524F52206372656174696E1C
:1007800067207461736B2022005461736B20220018
:100790002220637265617465642C20737461636BDD
:1007A000206174203078005461736B3A20005461EA
:1007B000736B3A2049444C450049444C4509093083
:1007C000092D09002F0009092D002D2D2D2D0909B6
:1007D0002D2D2D2D092D2D2D2D2D00092D2D2D2DBE
:1007E0002D2D2D2D2D2D00092D2D2D2D004E616D22
:1007F0006509095072692E095374617465000946D0
:100800007265652F546F74616C000952756E7300C8
:100810005461736B09092020092000095374616336
:100820006B00090009002F000900090020200000CA
:1008300011241FBECFEFD1E2DEBFCDBF14E0A0E098
:10084000B2E0ECE2FBE600E00BBF02C007900D92C5
:10085000A03FB107D9F71CE1A0EFB4E001C01D92A1
:10086000A63CB107E1F70E94BF310C9494350C947B
:1008700000000F931F93CF93DF93EC010E941C2580
:1008800080E392E099838883DF91CF911F910F914C
:1008900008950F931F93CF93DF93EC0166E08E8151
:1008A0009F810E94DA296BE08E819F810E94DA2964
:1008B0008C016EEF72E00E94952966E0C8010E94EB
:1008C000DA296BE08E819F810E94DA298C016CED20
:1008D00072E00E94952966E0C8010E94DA296BE067
:1008E0008E819F810E94DA298C0166EB72E00E9462
:1008F000952966E0C8010E94DA296BE08E819F810C
:100900000E94DA298C0165E972E00E94952966E06F
:10091000C8010E94DA296BE08E819F810E94DA294A
:100920008C016CE672E00E94952966E0C8010E9485
:10093000DA296BE08E819F810E94DA298C0166E4BE
:1009400072E00E94952966E0C8010E94DA296BE0F6
:100950008E819F810E94DA298C0166E272E00E94FA
:10096000952966E0C8010E94DA2966E08E819F81A0
:10097000DF91CF911F910F910C94DA290F931F9360
:10098000CF93DF93EC0166E08E819F810E94DA298C
:100990006BE08E819F810E94DA298C0167EF71E004
:1009A0000E94952966E0C8010E94DA296BE08E81D9
:1009B0009F810E94DA298C016AEC71E00E949529DE
:1009C00066E0C8010E94DA296BE08E819F810E9457
:1009D000DA298C016DE971E00E94952966E0C80171
:1009E0000E94DA296BE08E819F810E94DA298C01B6
:1009F00066E871E00E94952966E0C8010E94DA2944
:100A00006BE08E819F810E94DA298C0160E671E0A3
:100A10000E94952966E0C8010E94DA296BE08E8168
:100A20009F810E94DA298C0160E471E00E9495297F
:100A300066E0C8010E94DA2966E08E819F81DF911D
:100A4000CF911F910F910C94DA298F929F92AF92C0
:100A5000BF92CF92DF92EF92FF920F931F93CF93AB
:100A6000DF9300D000D000D0CDB7DEB78C01198263
:100A70001A821B821C821E821D82C0902801D09087
:100A800029010E94CD195C01CE0101960E94C62861
:100A90004C0166E0F801868197810E94DA296BE0BB
:100AA0000E94DA297C0164EE70E00E9495296BE0D7
:100AB000C7010E94DA297C0163E171E00E94952957
:100AC00066E0C7010E94DA296BE00E94DA297C0106
:100AD0006FE171E00E949529B401C7010E94652869
:100AE0006BE00E94DA297C016DE271E00E94952999
:100AF000B501C7010E948A2A7C0165E172E00E946B
:100B0000952948E357E160E070E0C7010E94C42ADC
:100B10006BE00E94DA297C0166E371E00E9495296E
:100B2000B601C7010E948A2A66E00E94DA2966E0BF
:100B30000E94DA29F801868197810E94172766E0D2
:100B4000F801868197810E94DA29F80186819781D0
:100B50000E94D72426960FB6F894DEBF0FBECDBFF5
:100B6000DF91CF911F910F91FF90EF90DF90CF9089
:100B7000BF90AF909F908F900895CF93DF93CDB7A4
:100B8000DEB727970FB6F894DEBF0FBECDBF8C013E
:100B900019821A821B821C821E821D820FB6F89453
:100BA0000F92E0910E05F0910F0510860F900FBE89
:100BB0000E944904C12CB12CD12CE12CF12CAA2487
:100BC000A3945AE0452E512CD8011C968C9181306B
:100BD00079F1813008F4A4C0823009F086C0D801D0
:100BE00016968D919C911797DC01ED91FC910480F4
:100BF000F581E02D09958111E8C0D8011E964D912F
:100C00005D916D917C9151974F5F5F4F6F4F7F4F1B
:100C1000F80146875787608B718B61E070E080E058
:100C200090E00E94CD21D8011C968C91813089F6EC
:100C3000F80186819781DC01ED91FC910480F581BA
:100C4000E02D0995882309F428C3F801868197814E
:100C5000DC01ED91FC910680F781E02D0995482F8C
:100C600080ED840F8A3008F4F5C24D3209F4BCC21D
:100C70004F3709F487C24A3009F4AEC24D3009F04B
:100C800083C266E0B1102DC2F801868197810E946F
:100C9000DA296BE00E94DA294C0160E974E0C401B2
:100CA0000E949529B701C4010E941F2A66E00E9494
:100CB000DA29D110E9C1C7010197029708F4C6C02B
:100CC0006BE0D80116968D919C9117970E94DA29B6
:100CD0007C016EE574E0C7010E94952966E0C701BA
:100CE0000E94DA29E12CF12C88CF6BE0F801868193
:100CF00097810E94DA298C016CE273E00E949529A9
:100D000066E0C8010E94DA292BE088E190E00FB686
:100D1000F894A895809360000FBE20936000FFCFE9
:100D2000F80186819781DC01ED91FC910480F581C9
:100D3000E02D0995882309F460CFF8018681978119
:100D4000DC01ED91FC910680F781E02D0995282FBB
:100D50008D3609F45BC10CF44CC1833709F445C1ED
:100D6000843709F434C1823709F42DC1F801868033
:100D70009780D401ED91FC910280F381E02D62E235
:100D8000C4012F830995D401ED91FC910280F38178
:100D9000E02D2F81622FC40109956BE0C4010E94F0
:100DA000DA294C0163EB74E00E9495296BE0C401E1
:100DB0000E94DA294C0166EB74E0C4010E94952977
:100DC00066E0C4010E94DA2918CFF8018681978174
:100DD000DC01ED91FC910680F781E02D0995282F2B
:100DE000803709F4AAC00CF06DC0833009F4CEC07E
:100DF000823609F03FC00FB6F8940F92E0910E05CD
:100E0000F0910F05D0840F900FBE6BE0D8011696BD
:100E10008D919C9117970E94DA294C0167E973E044
:100E20000E9495296D2DC4010E944E2A4C0161E259
:100E300072E00E94952966E0C4010E94DA2961E00F
:100E4000C8010E94D22582E0D82ED7CE0FB6F894E2
:100E50000F92E0910E05F0910F05E0860F900FBE06
:100E6000C8010E94BE0462E0C8010E94D225E12CA4
:100E7000F12CC3CEF80186809780D401ED91FC91CE
:100E80000280F381E02D62E2C4012F830995D40131
:100E9000ED91FC910280F381E02D2F81622FC4013E
:100EA00009956BE0C4010E94DA294C0169E473E002
:100EB0000E9495296BE0C4010E94DA294C016CE480
:100EC00073E07BCF823789F18337A1F60FB6F894B0
:100ED0000F92E0910405F0910505A0860F900FBEDA
:100EE0000FB6F8940F92E0910E05F0910F05708403
:100EF0000F900FBE6BE0F801868197810E94DA297E
:100F00004C0167E873E00E949529672DC4010E9497
:100F10004E2A6BE00E94DA294C016EE873E00E94D1
:100F2000952966E0C4010E94DA29C8010E9449049B
:100F300060E0C8010E94D22560CE0FB6F8940F92EF
:100F4000E0910E05F0910F05D0840F900FBE6BE07D
:100F5000F801868197810E94DA294C016FEA73E0DB
:100F60000E9495296D2DC4010E944E2A4C0169E111
:100F700072E00E94952966E0C4010E94DA2961E0CE
:100F8000C8010E94D225DD24D39437CE6BE0D8016E
:100F900016968D919C9117970E94DA298C0169E72A
:100FA00073E00E94952966E0C8010E94DA292BE0CF
:100FB00088E190E00FB6F894A895809360000FBE8A
:100FC00020936000FFCFC8010E94490416CECE01D5
:100FD00001960E94C628BC01F801868197810E9473
:100FE000652866E00E94DA2908CEC8010E9425051E
:100FF00004CE833061F1843609F0B8CED80116965C
:101000008D919C9117970E943126F7CD6BE0F801E6
:10101000868197810E94DA297C0161EF74E00E9449
:10102000952966E0C7010E94DA290FB6F8940F925D
:10103000E0910E05F0910F0510860F900FBE61E054
:10104000C8010E94D225D12CE12CF12CD6CD6BE029
:10105000D80116968D919C9117970E94DA298C01E0
:1010600063EE74E00E94952966E0C8010E94DA29C7
:101070002BE088E190E00FB6F894A895809360008B
:101080000FBE20936000FFCFB1E0DB1609F437C03C
:10109000B2E0DB12B2CDEFEFEE16F10411F008F082
:1010A00065C00FB6F8940F92E0910805F09109051C
:1010B000F186E0860F900FBE0FB6F8940F92E09184
:1010C0000605F0910705A0860F900FBEC8010E948B
:1010D000490460E0C8010E94D225D12CE12CF12CFA
:1010E0008CCDD80116968D919C9117970E94DA2984
:1010F0006BE00E94DA294C0161EA74E0D0CDEFEF99
:10110000EE16F10409F030F5BB2019F0F194E194EA
:10111000F1080FB6F8940F92E0910C05F0910D05CF
:10112000F186E0860F900FBE0FB6F8940F92E09113
:101130000A05F0910B05A0860F900FBEC8010E9412
:10114000490460E0C8010E94D225B12CD12CE12CC9
:10115000F12C53CD6BE0D80116968D919C91179789
:101160000E94DA297C0169E274E0B5CD6BE0D80118
:1011700016968D919C9117970E94DA297C0167EF52
:1011800073E0A9CDC1103EC0F801E680F780D70119
:10119000ED91FC910280F381E02D62E2C7014F8363
:1011A0000995D701ED91FC910280F381E02D4F81EB
:1011B000642FC70109956BE0C7010E94DA297C0101
:1011C00067EC73E00E9495296BE0C7010E94DA2961
:1011D0007C016AEC73E07FCD67E172E0F801868103
:1011E00097810E94952909CDF80186819781DC01BC
:1011F000ED91FC910280F381E02D6DE20995BB2415
:10120000B394FBCCF80186819781DC01ED91FC91D0
:101210000280F381E02D6FE70995F80186819781BF
:10122000DC01ED91FC910280F381E02D60E20995F3
:10123000F80186819781DC01ED91FC910280F381B8
:10124000E02D6FE70995C701B2010E94B8337B0119
:10125000CA94D3CCF80186819781DC01ED91FC9191
:101260000280F381E02D642F4F8309959701220FAF
:10127000331FEE0CFF1CEE0CFF1CEE0CFF1C2E0DA2
:101280003F1D4F81E42EFF24E7FCF094B0E3EB1AFE
:10129000F108E20EF31EC394B0CC8091100590913A
:1012A0001105DC01ED91FC910480F581E02D09959B
:1012B000882309F4A2CCD8011696ED91FC911797DA
:1012C0000190F081E02D82809380809110059091B3
:1012D0001105DC01ED91FC910680F781E02D099567
:1012E000682FF80186819781F401099586CCEC017D
:1012F00083E090E00E945E298C016E817F8141E055
:101300000E942A0C83E090E00E945E297C016E819D
:101310007F8142E00E942A0CE0910A05F0910B05C2
:10132000DF010FB6F8940F9210860F900FBE80E089
:1013300029C0A0910605B09107050FB6F8940F9249
:101340000F900FBE18968C911897813009F469C0E0
:1013500020910405309105050FB6F8940F920F9077
:101360000FBEE9018885813009F430C064E670E081
:1013700080E090E00E94CD21E0910A05F0910B05FC
:10138000DF0180850FB6F8940F920F900FBE813069
:1013900081F60FB6F8940F92C0910E05D0910F050B
:1013A00088850F900FBE813009F46FC00FB6F89496
:1013B0000F920F900FBE823009F4B7C00FB6F894A9
:1013C0000F9218961C920F900FBEB3CF0FB6F894E1
:1013D0000F9280910E0590910F05EC0188850F907A
:1013E0000FBE813009F441C00FB6F8940F920F90F0
:1013F0000FBE823009F489C0E9010FB6F8940F924C
:1014000010860F900FBE0FB6F8940F9218961C928C
:101410000F900FBE0FB6F8940F9218860F900FBE64
:10142000A5CF0FB6F8940F92C0910E05D0910F057D
:1014300088850F900FBE813009F43BC00FB6F89439
:101440000F920F900FBE823009F449C00FB6F89486
:101450000F9210860F900FBE0FB6F8940F92189649
:101460001C9218970F900FBE73CFC8010E94950C65
:10147000C0910405D0910505E0910A05F0910B0596
:10148000A0910605B0910705B8CF0FB6F8940F925A
:101490000F900FBEE0910C05F0910D0560857185F0
:1014A000C8010E94660CE0910A05F0910B05DF016E
:1014B00085CF0FB6F8940F920F900FBEE0910805FC
:1014C000F09109056085C8010E94A50CA091060550
:1014D000B0910705E0910A05F0910B05B7CF0FB663
:1014E000F8940F920F900FBEE0910805F091090556
:1014F0006085C7010E94A50CA0910605B091070563
:10150000E0910A05F0910B05A1CFC7010E94950C4F
:10151000C0910405D0910505E0910A05F0910B05F5
:10152000A0910605B091070568CF0FB6F8940F9209
:101530000F900FBEE0910C05F0910D05608571854F
:10154000C7010E94660CE0910A05F0910B05DF01CE
:1015500035CF0F931F93CF93DF93EC010E941C258F
:1015600088E392E099838883DF91CF911F910F9157
:101570000895CF93DF93CDB7DEB728970FB6F894D1
:10158000DEBF0FBECDBF6C0182E090E00E945E29FD
:101590004C01F6016681778147E00E94BE0C82E033
:1015A00090E00E945E295C01F6016681778145E04A
:1015B0000E94BE0C612C712C40E050E0E0910205CD
:1015C000F09103050FB6F8940F9280859185988766
:1015D0008F830F900FBEEF80F884E0910005F091AB
:1015E00001050FB6F8940F92808591859E838D83B7
:1015F0000F900FBE0D811E8125E030E0B701C401C0
:101600000E946B0DE091F204F091F3040FB6F89490
:101610000F92918780870F900FBE25E030E0A301E5
:10162000B801C5010E946B0DE091F004F091F10446
:101630000FB6F8940F92918780870F900FBEE091BC
:10164000F204F091F3040FB6F8940F92808591851F
:101650009C838B830F900FBE6B807C806BE0F601C8
:10166000868197810E94DA292C0164E375E00E944B
:10167000952962E0C2010E94DA29B3010E948A2AF8
:1016800066E00E94DA29E091F004F091F1040FB6CF
:10169000F8940F92808591859A8389830F900FBE6D
:1016A00069807A806BE0F601868197810E94DA2951
:1016B0002C016DE175E00E94952962E0C2010E9453
:1016C000DA29B3010E948A2A66E00E94DA2965E0DD
:1016D00070E080E090E00E94CD21A70138016ECF3C
:1016E0000F931F93CF93DF93EC010E941C2580E49E
:1016F00092E099838883DF91CF911F910F91089594
:1017000068EE73E080E090E00E94CD21F9CF0F9366
:101710001F93CF93DF93EC010E941C2588E492E095
:1017200099838883DF91CF911F910F9108958C0148
:1017300084E090E00E945E29EC01F80166817781E7
:101740000E941E0FCE010E94610F61E0CE010E9437
:10175000BD0F4C0162E0CE010E94BD0F5C0163E051
:10176000CE010E94BD0F6C016BE0F801868197816C
:101770000E94DA297C0166E675E00E949529B40191
:10178000C7010E941F2A66E00E94DA296BE0F80177
:10179000868197810E94DA297C0169E575E00E94C3
:1017A0009529B501C7010E941F2A66E00E94DA2927
:1017B0006BE0F801868197810E94DA297C016BE455
:1017C00075E00E949529B601C7010E941F2A66E0B4
:1017D0000E94DA2966E00E94DA2960ED77E080E075
:1017E00090E00E94CD21AECF0F931F93CF93DF9354
:1017F000EC010E941C2580E592E099838883DF91AB
:10180000CF911F910F9108958C0182E090E00E948A
:101810005E29EC01F801668177810E94121069E16E
:10182000CE010E941F106AE070E080E090E00E940C
:10183000CD21F5CF0F931F93CF93DF93EC010E943F
:101840001C2588E592E099838883DF91CF911F91D1
:101850000F910895CF93DF93FC01718360834283DE
:1018600080918000816A80938000809180008093C5
:101870008000809181008A60809381008091810046
:10188000809381008281813089F08230B9F0C081FB
:10189000D181209781F06CE572E0CE010E949529FC
:1018A00066E0CE01DF91CF910C94DA2987B1876091
:1018B00087B9329A269ADF91CF9108958AB1806EC6
:1018C0008AB94F9A259ADF91CF910895FC01228120
:1018D000213071F0223009F0089577FD18C08BB1E6
:1018E0008BB95E985D9A7093890060938800089523
:1018F00028B128B977FD13C04198409A70938B00A6
:1019000060938A00FC018281823049F308958BB193
:101910008BB95E9A5D98719561957109E4CF419A92
:101920004098719561957109E9CFFC0122812130C0
:1019300039F0223009F008958BB180668BB9089593
:1019400028B1236028B92281F4CFFC012281213003
:1019500059F0223009F008958BB18BB970E0709383
:10196000890060938800089528B128B9262F30E0B7
:1019700030938B0020938A002281EBCFCF93DF93AB
:10198000DC016D937C93E0910205F09103050FB6A5
:10199000F8940F92118610860F900FBEE09100050B
:1019A000F09101050FB6F8940F92118610860F90F2
:1019B0000FBEE091FE04F091FF040FB6F8940F9271
:1019C00010860F900FBEE091FC04F091FD040FB65D
:1019D000F8940F9210860F900FBEE091FA04F091E8
:1019E000FB040FB6F8940F9210860F900FBEE09193
:1019F000F804F091F9040FB6F8940F9210860F9046
:101A00000FBE8FB780688FBF60916A00242F30E0CF
:101A100081E090E0FC01042E01C0EE0F0A94EAF789
:101A20005E2F5095562350936A0050916A00B90179
:101A300061507109EC0102C0CC0FDD1F6A95E2F71D
:101A4000BE015C2B50936A0050916A00D901129735
:101A5000EC0102C0CC0FDD1FAA95E2F7DE01A095D4
:101A6000A523A0936A0050916A00D9011397EC0155
:101A700002C0CC0FDD1FAA95E2F75C2B50936A00E1
:101A8000473011F1433049F08DB18F708DB98EB16F
:101A9000806F8EB9DF91CF9108956DB3A9014E5F2C
:101AA0005F4FFC0102C0EE0FFF1F4A95E2F76E2B5D
:101AB0006DBB4DB32F5F3F4F022E01C0880F0A94BC
:101AC000EAF7482B4DBBE0CF8DB38E2B8DBB8DB38A
:101AD000862B8DBBD9CF461B570B8CE3849FF0011F
:101AE000859FF00D112436952795369527953695C7
:101AF0002795A5ECB0E20E947333929582958F7082
:101B000089279F70892723ED33E0829FB001839F4F
:101B1000700D929F700D1124CF010E94A433CB0150
:101B200008951F920F920FB60F9211240BB60F92C9
:101B30008F939F93AF93BF93EF93FF93CF93DF93D5
:101B4000CDB7DEB72597DEBFCDBFE091FC04F091A5
:101B5000FD040FB6F8940F9280858D830F900FBE11
:101B60008D81A091FE04B091FF040FB6F8940F92FE
:101B700018968C9318970F900FBE9CB18CB1807201
:101B80009071892B90E0959587959595879595957A
:101B90008795959587950FB6F8940F9280870F904B
:101BA0000FBE18968C91813009F454C008F442C0DD
:101BB000823039F1833089F48085813009F451C055
:101BC0008085823009F03CC0E0910205F091030568
:101BD000808591850197918780870F900F900F9056
:101BE0000F900F90DF91CF91FF91EF91BF91AF9147
:101BF0009F918F910F900BBE0F900FBE0F901F9073
:101C000018958085833069F18085811119C0E09134
:101C10000205F09103050FB6F8940F928085918527
:101C20009A8389830F900FBE89819A81019791874A
:101C30008087D3CF80858230A1F080858130D9F034
:101C4000E091F604F091F7048085918501969187E3
:101C50008087C3CF8085882321F08085833081F7FA
:101C6000B3CFE0910205F09103058085918501963F
:101C700091878087B2CFE0910205F09103050FB6FE
:101C8000F8940F92808591859C838B830F900FBE73
:101C90008B819C810197918780879FCF0C94910DB8
:101CA0001F920F920FB60F9211240BB60F928F93C3
:101CB0009F93AF93BF93EF93FF93E091F804F0915C
:101CC000F9048085A091FA04B091FB0418968C93D6
:101CD00018979CB18CB180789074892B90E0082E75
:101CE000892F000C881F990B000C881F991F808773
:101CF00018968C918130E9F160F1823071F0833077
:101D0000D9F48085813009F43FC0E091FC04F09162
:101D1000FD048085823019F506C080858330A1F1ED
:101D2000808581111CC0E0910005F091010580853E
:101D30009185019791878087FF91EF91BF91AF9136
:101D40009F918F910F900BBE0F900FBE0F901F9021
:101D5000189580858230C1F08085813021F3E09133
:101D6000F404F091F5048085918501969187808730
:101D7000E3CF8085882341F0E091FC04F091FD04DD
:101D80008085833061F7CFCFE0910005F0910105A8
:101D900080859185019691878087CECF0C94500ED7
:101DA000CF93DF93EC01262F4DE360E58A819B8181
:101DB0000E945C176BE0888199810E94DA29EC010E
:101DC0006BEE75E00E94952966E0CE01DF91CF9120
:101DD0000C94DA29CF93DF93EC01262F4EE360E5D4
:101DE0008A819B810E945C176BE0888199810E94A7
:101DF000DA29EC0168ED75E00E94952966E0CE01D4
:101E0000DF91CF910C94DA29CF93DF93EC0120E09E
:101E10004BE360E58A819B810E945C176BE08881BF
:101E200099810E94DA29EC016AEC75E00E949529FB
:101E300066E0CE01DF91CF910C94DA290F931F93C6
:101E4000CF93DF93EC017983688384E090E00E9474
:101E50005E298C01688179810E94DD141B830A83CD
:101E600040E060E5C8010E94CB156BE0803A09F1C3
:101E7000888199810E94DA298C0169E276E0C801A3
:101E80000E94952966E0C8010E94DA2960E0CE012F
:101E90000E94D00E60E0CE010E94EA0ECE010E94A8
:101EA000040F6CE0CE01DF91CF911F910F910C9444
:101EB000D00E888199810E94DA298C0162E076E057
:101EC000DECFEF92FF920F931F93CF93DF93EC013E
:101ED00049E360E58A819B810E94CB15F82E46E399
:101EE00060E58A819B810E94CB15E82E6BE088819A
:101EF00099810E94DA298C0166EB75E00E94952990
:101F00006F2DC8010E940C2B66E00E94DA2981E047
:101F1000F816D1F06BE0888199810E94DA29EC01F2
:101F20006BE875E00E9495296E2DCE010E940C2B66
:101F300066E00E94DA2966E0DF91CF911F910F9150
:101F4000FF90EF900C94DA294AE360E58A819B8147
:101F50000E94CB15F82E6BE0888199810E94DA29C6
:101F60008C0169EA75E00E9495296F2DC8010E94D5
:101F70000C2B66E00E94DA29CDCF1F93CF93DF931D
:101F8000EC016130D1F1623009F440C06330A1F05E
:101F90006BE0888199810E94DA29EC0166E775E09F
:101FA0000E94952966E0CE010E94DA2980E090E047
:101FB000DF91CF911F9108954FE160E58A819B8168
:101FC0000E94CB15182F4EE160E58A819B810E940B
:101FD000CB15212F30E0322F2227282B37FD1FC0B1
:101FE000C90195958795959587959595879595952B
:101FF0008795DF91CF911F9108954BE160E58A812C
:102000009B810E94CB15182F4AE1DECF4DE160E5A0
:102010008A819B810E94CB15182F4CE1D5CF215F7F
:102020003F4FDECF84B5836884BD84B58F7B84BD8C
:1020300085B585BD85B5856085BD279A089567BD41
:102040000895FC0171836083EAE7F0E08081806895
:10205000808380818160808380818D7F8083808187
:1020600084608083ECE7F0E08081806480838081FD
:102070008F778083089580917C00887F80937C0097
:1020800080917C006770682B60937C0080917A005F
:10209000806480937A0080917A0086FDFCCF8091E5
:1020A0007800909179000895403430F1ECE3F0E04D
:1020B0004CE3677080E090E020917C00287F2093C3
:1020C0007C0020917C00262B20937C0020917A00BC
:1020D000206420937A0020917A0026FDFCCF209185
:1020E000780030917900820F931F415029F7BF018A
:1020F0000E94A433CB010895442319F0E42FF0E0AB
:10210000D8CFE0E0F0E080E090E0BF010E94A4338F
:10211000CB0108952F923F924F925F926F927F92E0
:102120008F929F92AF92BF92CF92DF92EF92FF92E7
:102130000F931F93CF93DF9300D000D000D0CDB783
:10214000DEB79E838D8380917C00887F80937C00A6
:1021500080917C00876080937C0080917A0080640D
:1021600080937A0080917A0086FDFCCF20917800E0
:102170003091790080917C00887F80937C008091F1
:102180007C00866080937C0080917A0080648093DC
:102190007A0080917A0086FDFCCF20907800309004
:1021A000790080917C00887F80937C0080917C0006
:1021B000856080937C0080917A00806480937A00AF
:1021C00080917A0086FDFCCF409078005090790095
:1021D00080917C00887F80937C0080917C0084606B
:1021E00080937C0080917A00806480937A00809153
:1021F0007A0086FDFCCF00917800109179008091E3
:102200007C00887F80937C0080917C008360809339
:102210007C0080917A00806480937A0080917A00BB
:1022200086FDFCCFE0907800F090790080917C00F2
:10223000887F80937C0080917C00826080937C000A
:1022400080917A00806480937A0080917A0086FD84
:10225000FCCFC0907800D090790080917C00887F7E
:1022600080937C0080917C00816080937C008091D1
:102270007A00806480937A0080917A0086FDFCCF9A
:10228000A0907800B090790080917C00887F809346
:102290007C0080917C0080937C0080917A00806437
:1022A00080937A0080917A0086FDFCCF8090780040
:1022B0009090790040917C0050917A006BE08D8184
:1022C0009E812B833C834A8359830E94DA293C01F7
:1022D0006FE476E00E9495295981652FC3010E9421
:1022E0000C2B66E00E94DA296BE00E94DA293C019F
:1022F00068E576E00E9495294A81642FC3010E9417
:102300000C2B66E00E94DA296BE00E94DA293C017E
:1023100060E676E00E949529B401C3010E948A2AF2
:1023200066E00E94DA296BE00E94DA294C0168E637
:1023300076E00E949529B501C4010E948A2A66E0D0
:102340000E94DA296BE00E94DA295C0160E776E0FE
:102350000E949529B601C5010E948A2A66E00E9462
:10236000DA296BE00E94DA296C0168E776E00E94C6
:102370009529B701C6010E948A2A66E00E94DA29DF
:102380006BE00E94DA297C0160E876E00E949529E2
:10239000B801C7010E948A2A66E00E94DA296BE030
:1023A0000E94DA298C0168E876E00E949529B20142
:1023B000C8010E948A2A66E00E94DA296BE00E9426
:1023C000DA298C0160E976E00E949529B101C80103
:1023D0000E948A2A66E00E94DA296BE00E94DA29CC
:1023E0008C0168E976E00E9495292B813C81B90136
:1023F000C8010E948A2A66E00E94DA298D819E81A6
:1024000026960FB6F894DEBF0FBECDBFDF91CF91F9
:102410001F910F91FF90EF90DF90CF90BF90AF9002
:102420009F908F907F906F905F904F903F902F90F4
:102430000895CF93DF93EC01DC016D937D938DE0E4
:10244000E8E0F2E001900D928A95E1F7188A1F8684
:102450001A8A198A1C8A1B8A1E8A1D8A188E1F8A4C
:102460001C8E1B8EDF91CF910895FC016283148E28
:10247000138E0895CF93DF93EC01CB016F8578899C
:10248000788F6F8B988B8F870E9462149A8F898FB9
:10249000DF91CF910895FC01728B618B0895FC014F
:1024A000748B638B0895AF92BF92CF92DF92EF92BD
:1024B000FF920F931F93CF93DF93CDB7DEB72D9786
:1024C0000FB6F894DEBF0FBECDBFA982BA82CB8211
:1024D000DC82ED82FE820F83188729873A874B873B
:1024E0005C876D872DE0FE013196DC01129601902C
:1024F0000D922A95E1F7FC01148E138E2D960FB6DE
:10250000F894DEBF0FBECDBFDF91CF911F910F9129
:10251000FF90EF90DF90CF90BF90AF900895FC01B7
:10252000748363830895FC01768365830895FC01B9
:10253000708767830895FC01728761870895FC01A5
:1025400074876387568745870895FC0182810895C3
:10255000FC01878590890895FC01818992890895FD
:10256000FC018389948908952DE0FB013296DC01FA
:1025700001900D922A95E1F70895FC0185819681DD
:102580000895FC01838194810895FC0187819085E1
:102590000895FC01818592850895FC0183859485C9
:1025A0000895FC018585968508950F931F93CF9319
:1025B000DF93EC018F8598892B893C89821B930BD3
:1025C0009E8B8D8B6D8D7E8D89859A850E94AC1436
:1025D00040E054E00E94BE148C016D897E898B8D91
:1025E0009C8D0E944514B8010E9462149C8F8B8FB1
:1025F0008A81833009F472C090F5813009F463C098
:10260000823009F044C06D897E898B819C810E9453
:10261000AC1440E054E00E94BE148C016B8D7C8DA4
:102620008D819E810E94AC1440E054E00E94BE1453
:10263000B8010E9445146D857E8568177907D4F02E
:102640006B857C85861797070CF458C01E8E1D8EEF
:102650009A8B898BDF91CF911F910F9108958430D0
:10266000C9F08530A1F489899A896D857E856817BE
:10267000790734F70E9462149E8F8D8F8D859E8519
:10268000898B9A8BDF91CF911F910F91089580E0F4
:1026900090E0D1CF6D897E898B819C810E94AC14A2
:1026A00040E054E00E94BE148C01698D7A8D8F81C8
:1026B00098850E94AC1440E054E00E94BE14B8011A
:1026C0000E944514AACF6D897E898B819C810E94CE
:1026D000AC1440E054E00E94BE14ADCF6D897E89F9
:1026E0008B819C810E94AC1440E054E00E94BE1497
:1026F0008C01698D7A8D8F81988594CF0E946214A8
:102700009E8F8D8F8B859C85898B9A8BDF91CF9146
:102710001F910F9108950F931F93CF93DF93EC01B7
:10272000CB018A016F857889788F6F8B988B8F8723
:102730000E9462149A8F898F1C8B0B8BCE01DF91C4
:10274000CF911F910F910C94D5124F925F926F927F
:102750007F928F929F92AF92BF92CF92DF92EF9231
:10276000FF920F931F93CF93DF93EC01FB01418402
:1027700052846780708403811481E580F680C5846B
:10278000D684A384B4848280912C6DE872E00E9488
:10279000952962E0CE010E94DA29B4010E941F2A25
:1027A00066E00E94DA294C0168E972E00E949529EE
:1027B00062E0C4010E94DA29B5010E941F2A5C016F
:1027C00065EA72E00E94952962E0C5010E94DA295B
:1027D000B6010E941F2A66E00E94DA296C016AEAAB
:1027E00072E00E94952966E0C6010E94DA296C0118
:1027F00061EB72E00E94952962E0C6010E94DA292D
:10280000B7010E941F2A66E00E94DA297C016DEB65
:1028100072E00E94952962E0C7010E94DA29B8019E
:102820000E941F2A66E00E94DA298C0169EC72E09E
:102830000E94952962E0C8010E94DA29B3010E9432
:102840001F2A66E00E94DA298C0165ED72E00E9481
:10285000952962E0C8010E94DA29B2010E941F2A6C
:1028600066E00E94DA29CE01DF91CF911F910F918E
:10287000FF90EF90DF90CF90BF90AF909F908F90A0
:102880007F906F905F904F9008959C01432F4095EB
:10289000441F4427441F80E090E8841B9109AC0149
:1028A000421B530BE1E0461757070CF0E0E0432FC3
:1028B0004095441F4427441FE41719F0C901860FAF
:1028C000971F08958617970799F1611520E87207F9
:1028D00041F1719561957109492F4095441F442735
:1028E000441F20E030E8241B3109A901481B590B83
:1028F000E1E04617570764F4492F4095441F4427E9
:10290000441FE41719F0860F971F0895C901089511
:10291000E0E0492F4095441F4427441FE417B1F3DA
:10292000F2CF97FD03C06FEF7FE7D6CF0196FBCFC5
:1029300080E090E00895811520E8920729F09C013D
:1029400097FD05C0C90108958FEF9FE70895319560
:1029500021953109C9010895811520E8920729F0D0
:102960009C01DB010E946B330895611520E872071A
:10297000B9F76FEF7FEF8FEF9FE708959A01442734
:1029800037FD4095542F0E94EE33211580E838071B
:102990004105510524F02FEF3FE740E050E0DA0118
:1029A000C901811520E892072FEFA207B20724F48E
:1029B00080E090E8AFEFBFEF0895CF93DF93EC0195
:1029C0007983688388E48093B80081E00E94CD1BFE
:1029D0009B838A83892B19F0DF91CF910895099009
:1029E000D881C02D2097C1F362E674E0CE010E9429
:1029F000952966E0CE01DF91CF910C94DA2984EA23
:102A00008093BC008091BC0087FD0AC089EE93E0F2
:102A100003C00197009769F02091BC0027FFF9CF10
:102A20009091B900987F81E0983009F0089580E096
:102A3000089581E008951F93CF93DF9324EA2093B4
:102A4000BC002091BC0027FD0CC029EE33E005C07E
:102A50002150310921153105C1F14091BC0047FFDA
:102A6000F7CF2091B900287F203151F1FC018081FE
:102A70009181009729F11091B9006BE00E94DA2949
:102A8000EC0164EF76E00E94952963E0CE010E949C
:102A9000DA29612F0E940C2B6BE00E94DA29EC01ED
:102AA00065E077E00E94952962E0CE010E94DA2974
:102AB00066E00E94DA2980E0DF91CF911F910895AE
:102AC00080E0DF91CF911F91089581E0DF91CF9158
:102AD0001F910895CF93DF936093BB0024E8209368
:102AE000BC002091BC0027FD0CC029EE33E005C0DE
:102AF000215031092115310591F04091BC0047FF6B
:102B0000F7CF9091B900987F81E0983129F0983201
:102B100019F0903409F080E0DF91CF910895FC0125
:102B2000808191810097B9F36BE00E94DA29EC0172
:102B300063EE76E00E94952966E0CE010E94DA29D4
:102B400080E0DF91CF9108956623E9F084EC8093D3
:102B5000BC0040E59091BC0097FD0AC089EE93E06F
:102B600003C00197009769F02091BC0027FFF9CFBF
:102B70002091B900287F30E0842F90E02817390792
:102B800039F08FEF089584E88093BC0048E5E2CFE8
:102B90008091BB000895FF920F931F93CF93DF9313
:102BA000EC01162FF42E00E02FEF3FEFA90160E0BB
:102BB00070E08A819B810E94361C84EA8093BC006D
:102BC0008091BC0087FD0CC029EE33E005C0215088
:102BD00031092115310531F08091BC0087FFF7CF15
:102BE0008091B900612FCE010E946A1581111AC02F
:102BF00088819981009721F066E774E00E94952909
:102C000000E020E030E0A90160E070E08A819B8173
:102C10000E94151B11E0812FDF91CF911F910F9121
:102C2000FF9008956F2DCE010E946A15882301F34D
:102C300084E98093BC0084EA8093BC008091BC004E
:102C400087FD0CC029EE33E005C021503109211564
:102C5000310531F08091BC0087FFF7CF8091B9003A
:102C6000612F6160CE010E946A1581111AC08881AE
:102C70009981009721F06CE774E00E94952900E0AB
:102C800020E030E0A90160E070E08A819B810E9431
:102C9000151B1FEF812FDF91CF911F910F91FF9097
:102CA000089584E88093BC008091BC0087FD0CC02F
:102CB00029EE33E005C0215031092115310549F0D5
:102CC0008091BC0087FFF7CF8091B900887F88355D
:102CD000A9F01FEF84E98093BC0000E020E030E021
:102CE000A90160E070E08A819B810E94151B812F01
:102CF000DF91CF911F910F91FF9008951091BB002C
:102D0000E9CFCF92DF92EF92FF920F931F93CF9371
:102D1000DF93EC01C62ED42E7901102F00E02FEFA7
:102D20003FEFA90160E070E08A819B810E94361C20
:102D300084EA8093BC008091BC0087FD0AC0E9EE64
:102D4000F3E003C03197309731F09091BC0097FFCA
:102D5000F9CF8091B9006C2DCE010E946A158111C6
:102D60001EC088819981009721F062E874E00E947A
:102D7000952900E020E030E0A90160E070E08A8160
:102D80009B810E94151BDD24D3948D2DDF91CF9163
:102D90001F910F91FF90EF90DF90CF9008956D2DD0
:102DA000CE010E946A15D82E8823D9F284E9809337
:102DB000BC0084EA8093BC008091BC0087FD0CC0FD
:102DC00049EE53E005C0415051094115510531F01C
:102DD0009091BC0097FFF7CF8091B9006C2D616096
:102DE000CE010E946A15811113C0888199810097D4
:102DF00021F068E874E00E94952900E020E030E0CE
:102E0000A90160E070E08A819B810E94151BBDCF03
:102E10008FEF810F19F1F70124EC2093BC00909102
:102E2000BC0097FD0CC049EE53E005C0415051096C
:102E30004115510549F09091BC0097FFF7CF909153
:102E4000B900987F903591F19FEF9193815029F7C8
:102E50001250812F90E00196E80EF91E84E88093CD
:102E6000BC008091BC0087FD0AC089EE93E003C0DE
:102E70000197009749F02091BC0027FFF9CF80917E
:102E8000B900887F8835A9F08FEFF701808384E946
:102E90008093BC0000E020E030E0A90160E070E039
:102EA0008A819B810E94151BD12C6FCF9091BB0012
:102EB000CCCF8091BB00E9CFEF92FF920F931F938D
:102EC000CF93DF93EC01162FF42EE22E00E02FEFCC
:102ED0003FEFA90160E070E08A819B810E94361C6F
:102EE00084EA8093BC008091BC0087FD0AC0E9EEB3
:102EF000F3E003C03197309731F08091BC0087FF39
:102F0000F9CF8091B900612FCE010E946A1581111D
:102F10001AC088819981009721F06EE874E00E94C0
:102F2000952900E020E030E0A90160E070E08A81AE
:102F30009B810E94151B81E0DF91CF911F910F9122
:102F4000FF90EF9008956F2DCE010E946A1588239F
:102F500001F36E2DCE010E946A158823D1F284E917
:102F60008093BC0000E020E030E0A90160E070E068
:102F70008A819B810E94151B80E0DECFBF92CF9299
:102F8000DF92EF92FF920F931F93CF93DF937C0119
:102F9000C62FD42FB22E132FD02E00E02FEF3FEFED
:102FA000A90160E070E0DC0112968D919C9113976D
:102FB0000E94361C84EA8093BC008091BC0087FD8F
:102FC0000AC0E9EEF3E003C03197309731F0809109
:102FD000BC0087FFF9CF8091B9006C2FC7010E9418
:102FE0006A15811123C0D7018D919C91009721F022
:102FF00064E974E00E94952900E020E030E0A90136
:1030000060E070E0D70112968D919C9113970E9419
:10301000151BCC24C3948C2DDF91CF911F910F9160
:10302000FF90EF90DF90CF90BF9008956D2FC70174
:103030000E946A15C82E8823B1F2DD2079F1CB2DCC
:10304000D12F10E003C01F5F1D1541F16991C70129
:103050000E946A158111F7CFF701C081D1812097B5
:1030600089F06AE974E0CE010E949529612FCE01B2
:103070000E940C2BDC01ED91FC910280F381E02D8C
:103080006EE3099500E020E030E0A90160E070E027
:10309000F701828193810E94151BBDCF84E9809343
:1030A000BC0000E020E030E0A90160E070E0F70142
:1030B000828193810E94151BC12CADCF8BB1869567
:1030C000817008950F931F93CF93DF93EC01162F18
:1030D00000E02FEF3FEFA90160E070E08A819B8163
:1030E0000E94361C84EA8093BC008091BC0087FD5E
:1030F0000CC029EE33E005C02150310921153105FE
:1031000031F08091BC0087FFF7CF8091B900612F2B
:10311000CE010E946A15182F84E98093BC0000E05C
:1031200020E030E0A90160E070E08A819B810E948C
:10313000151B812FDF91CF911F910F910895CF9291
:10314000DF92EF92FF920F931F93CF93DF938C0147
:10315000EB016BE0CE010E94DA297C016FEC76E096
:103160000E94952963E0C7010E94DA2966E00E9467
:10317000DA29E12CF12C6E2DCE010E940C2BDC0102
:10318000ED91FC910280F381E02D60E30995CE2C56
:10319000C29480EFC822D12C08C060E4CE0109950A
:1031A000D394D394B0E1DB16E1F0E881F981028099
:1031B000F381E02D60E2CE0109956D2D6C29C801E7
:1031C0000E946218E881F9810280F381E02D81116B
:1031D000E4CF6DE2CE010995D394D394B0E1DB1234
:1031E000E4CF66E0CE010E94DA298FEFE81AF80AF0
:1031F000A0E1EA16F10409F0BECF62E0CE01DF9152
:10320000CF911F910F91FF90EF90DF90CF900C9492
:10321000DA290F931F93CF93DF93EC010E94C01F15
:1032200080911205811121C08CE195E090931805E1
:103230008093170510921A051092190587E397E1FC
:10324000909316058093150510921405109213059E
:1032500090931F0580931E0583E195E090931D05D3
:1032600080931C0581E080931205209709F460C0CB
:10327000AE014C5F5F4F2396C633D74108F058C06C
:10328000E0911705F0911805A7E1B5E006C080812F
:103290009181009739F0DF01FC01228133812417ED
:1032A0003507A8F3C5E0E331FC0709F441C00D91EF
:1032B0001C9111970C5F1F4F808191818D939C937E
:1032C000C901841B950B8930910500F1BF01640F82
:1032D000751FDB0113969C938E9312975383428341
:1032E00012968D919C911397A7E1B5E001C0DF0183
:1032F000ED91FC9111972281338128173907B8F39A
:10330000EB01F983E8836D937C939A01809100022D
:1033100090910102821B930B909301028093000213
:103320000E94F320C801DF91CF911F910F91089562
:1033300000E010E00E94F320C801DF91CF911F91BF
:103340000F910895CF93DF93009721F1EC0124971B
:103350000E94C01F4A815B81A7E1B5E001C0DF0187
:10336000ED91FC9111972281338124173507B8F331
:10337000F983E883CD93DC93809100029091010260
:10338000840F951F9093010280930002DF91CF91EB
:103390000C94F320DF91CF910895809100029091D9
:1033A0000102089508951F93CF93DF93EC01142F2A
:1033B00088A181110DC088819981892B09F44DC0A4
:1033C00080E09E8D9F5F9E8FDF91CF911F9108952A
:1033D000482F50E011111CC08C819D810E9409353D
:1033E00028A18C819D81820F911D9D838C832A81D0
:1033F0003B818217930720F3888199819D838C8379
:1034000080E09E8D9F5F9E8FDF91CF911F910895E9
:103410008E819F810E94093528A130E03195219548
:1034200031098E819F81820F931F9F838E836881D4
:1034300079818617970730F48A819B81820F931FC9
:103440009F838E83123009F0BBCF8E8D882309F4C1
:10345000B7CF8E8D81508E8FB3CF8A819B810E9492
:103460001E241B821A82ADCFFC01CB0140A1442354
:1034700099F050E026813781240F351F378326834A
:10348000628173812617370720F0208131813783CD
:103490002683B9010C94093508950F931F93CF9398
:1034A000DF93EC010FB6F8940F928AA11816ECF492
:1034B0008B898823D1F08E010D5E1F4F09C08AA130
:1034C00081508AA38AA1181684F48B89882369F015
:1034D000C8010E94AA22882391F30E949E238AA1F8
:1034E00081508AA38AA1181684F38FEF8AA30F90C4
:1034F0000FBE0FB6F8940F9289A11816ECF48885C8
:103500008823D1F08E01085F1F4F09C089A1815027
:1035100089A389A1181684F48885882369F0C801D5
:103520000E94AA22882391F30E949E2389A18150A0
:1035300089A389A1181684F38FEF89A30F900FBE7A
:10354000DF91CF911F910F910895CF93DF93EC01FD
:103550000FB6F8940F92288139818F8D78A1879FBB
:10356000C0011124A901480F591F5B834A831E8E95
:103570003D832C83871B9109820F931F9F838E832A
:103580008FEF89A38AA3611112C08885811106C0BB
:103590000F900FBE81E0DF91CF910895CE01089684
:1035A0000E94AA228130A1F70E948A2EF1CFCE017B
:1035B00008960E941B2DCE0143960E941B2D0F9052
:1035C0000FBE81E0DF91CF9108950F931F93CF93AA
:1035D000DF93182F062F882301F183E290E00E94E9
:1035E0000919EC010097C9F0109FC0011124019640
:1035F0000E94091999838883892B61F01F8F08A382
:1036000061E0CE010E94A51ACE01DF91CF911F91FA
:103610000F910895CE010E94A219C0E0D0E0CE0122
:10362000DF91CF911F910F9108956F927F928F92AA
:103630009F92AF92BF92CF92DF92EF92FF920F9341
:10364000CF93DF93CDB7DEB729970FB6F894DEBFDF
:103650000FBECDBF5C014B012E833F834887598746
:1036600020E03C0188E0680E711C0FB6F8940F92C0
:10367000F501968D878D981708F459C0023009F42A
:1036800056C0CE80DF80E884F984CD28CE28CF28AC
:1036900009F46FC0222309F441C00F900FBE0E94AD
:1036A000C01F0FB6F8940F92F50181A18F3F09F466
:1036B0003CC0F50182A18F3FB1F10F900FBEBE015A
:1036C0006A5F7F4FCE0101960E943D23811155C054
:1036D0000FB6F8940F92F501968D0F900FBEF5017D
:1036E000878D981314C04E815F8168857985C301E9
:1036F0000E944F22C5010E944D1A0E94F320882388
:1037000011F021E0B2CF0E948A2E21E0AECFC50198
:103710000E944D1A0E94F32021E0A7CFCE0101960E
:103720000E942C23BACF12A2C8CF11A2C2CF402F21
:10373000B401C5010E94D319F5019389911124C0E8
:10374000811128C00F900FBE81E029960FB6F89422
:10375000DEBF0FBECDBFDF91CF910F91FF90EF90F5
:10376000DF90CF90BF90AF909F908F907F906F90A1
:1037700008950F900FBE80E0E8CFC5010E944D1A5A
:103780000E94F32080E0E1CFC50143960E94AA2267
:103790008130C1F60E948A2ED5CF0F93CF93DF934D
:1037A00083E290E00E940919EC01009701F11B826D
:1037B0001A82198218821D821C821F821E821E8E0E
:1037C00081E08F8F18A28FEF89A38AA3CE0108967C
:1037D0000E941B2DCE0143960E941B2D00E020E08D
:1037E00030E0A90160E070E0CE010E94151BCE011F
:1037F000DF91CF910F9108950F931F93CF93DF9394
:10380000EC018A019E8D8F8D981740F0223031F0A7
:1038100080E0DF91CF911F910F910895422FCE014B
:103820000E94D319882331F00115110519F081E0A8
:10383000F80180838AA18F3F49F08AA18F5F8AA314
:1038400081E0DF91CF911F910F9108958B8988239B
:10385000B9F3CE0143960E94AA22882389F3011569
:10386000110571F381E0F8018083D3CFAF92BF924D
:10387000CF92DF92EF92FF920F93CF93DF93CDB76A
:10388000DEB729970FB6F894DEBF0FBECDBF7C011F
:103890006B012E833F834887598790E0570183E16E
:1038A000A80EB11C0FB6F8940F92F701868D811106
:1038B00069C04E815F8168857985452B462B472BF2
:1038C00009F47DC0992309F43EC00F900FBE0E94F9
:1038D000C01F0FB6F8940F92F70181A18F3F09F432
:1038E0003EC0F70182A18F3F09F43FC00F900FBE89
:1038F000BE016A5F7F4FCE0101960E943D23811178
:1039000071C00FB6F8940F92F701868D0F900FBE1D
:1039100081111EC0F70180819181892B41F14E8177
:103920005F8168857985C5010E944F22C7010E9489
:103930004D1A0E94F320882311F091E0B3CF0E942A
:103940008A2E91E0AFCFCE0101960E942C23BDCFED
:10395000C7010E944D1A0E94F32091E0A3CF11A24B
:10396000F70182A18F3F09F0C1CF12A2BFCF0FB6DE
:10397000F8940F92F701828193810E94C3230F90E4
:103980000FBECDCFA680B780B601C7010E94341A02
:10399000F70101112EC0868D8150868F8081918123
:1039A000892BB9F1F7018085882341F1C701089679
:1039B0000E94AA22813011F50E948A2E1FC00F900A
:1039C0000FBE80E029960FB6F894DEBF0FBECDBFC4
:1039D000DF91CF910F91FF90EF90DF90CF90BF904C
:1039E000AF900895C7010E944D1A0E94F32080E015
:1039F000E9CFB782A6828389811104C00F900FBEE0
:103A000081E0E0CFC70143960E94AA228823B1F348
:103A1000D3CF0E948524F70193838283C3CF0F9372
:103A20001F93CF93DF9300D0CDB7DEB78C01FC019D
:103A3000868D811108C080E00F900F90DF91CF91AB
:103A40001F910F910895C80149835A830E94341A27
:103A5000F801868D8150868F81A149815A818F3FDF
:103A600061F0F80181A18F5F81A381E00F900F9039
:103A7000DF91CF911F910F91089580858823A9F33D
:103A8000C801089649835A830E94AA2249815A8113
:103A9000882359F34115510541F381E0FA018083F0
:103AA000CBCF0F931F93CF93DF93EC018E8D8111BA
:103AB00006C080E0DF91CF911F910F9108950E8194
:103AC0001F81CE010E94341A1F830E8381E0DF9193
:103AD000CF911F910F9108950FB6F8940F92FC01AA
:103AE000868D0F900FBE08950FB6F8940F92FC01CB
:103AF000268D0F900FBEFC01878D821B0895FC015F
:103B0000868D0895CF93DF93EC018881998100978A
:103B100011F00E94A219CE01DF91CF910C94A2194D
:103B2000FC01968D81E0911180E00895FC01268DC5
:103B300081E0978D291380E008958091881C823060
:103B400018F00E948A2EF9CFFFCFCF92DF92EF922A
:103B5000FF926B017C01E091531CF091541C628335
:103B600073838483958380915C1C90915D1CA091EC
:103B70005E1CB0915F1C6091531C7091541CC81660
:103B8000D906EA06FB0610F18091701C9091711C19
:103B90006E5F7F4F0E94512D80910202909103022F
:103BA000A0910402B0910502C816D906EA06FB06E8
:103BB00040F4C0920202D0920302E0920402F0921A
:103BC0000502FF90EF90DF90CF90089580916E1CDA
:103BD00090916F1C6E5F7F4FFF90EF90DF90CF90C2
:103BE0000C94512D5F926F927F928F929F92AF9221
:103BF000BF92CF92DF92EF92FF920F931F93CF93DA
:103C0000DF934C01162F572E5A01390189E290E0BB
:103C10000E940919EC01009709F4E9C0C114D1040C
:103C200009F4DAC0DC8ECB8EC601A50165EA70E02E
:103C30000E94123521E0A21AB108CB8CDC8CCA0C90
:103C4000DB1CAE01435E5F4FE12FF52D2AE0CF0173
:103C50003191DA013D93AD01DC018C91882311F0A3
:103C60002150A9F71EA2102F043008F07DC01A8F32
:103C70001FA318A65E01B2E0AB0EB11CC5010E94E5
:103C80002C2DCE010E960E942C2DDB87CA8784E056
:103C900090E0A0E0B0E0811B9109A109B1098E87F5
:103CA0009F87A88BB98BDF8BCE8BA301B401C60194
:103CB0000E94BA2D99838883E114F10419F0F70169
:103CC000D183C0830FB6F8940F928091601C8F5FF0
:103CD0008093601C8091531C9091541C892B09F493
:103CE00049C080915A1C81110BC0E091531CF09186
:103CF000541C828D081720F0D093541CC093531C81
:103D00008091561C8F5F8093561C8A8D90915B1C0E
:103D1000981738F1FBE08F9FC0011124B501885737
:103D2000934E0E94302D0F900FBE80915A1C882315
:103D300039F0E091531CF091541C828D8017B0F043
:103D400081E0DF91CF911F910F91FF90EF90DF9075
:103D5000CF90BF90AF909F908F907F906F905F902B
:103D6000089580935B1CD6CF13E081CF0E948A2EEA
:103D700081E0E7CFD093541CC093531C8091601C0A
:103D8000813009F0BDCF88E89CE10E941B2D83E9BA
:103D90009CE10E941B2D8EE99CE10E941B2D89EA6B
:103DA0009CE10E941B2D8DE79CE10E941B2D82E768
:103DB0009CE10E941B2D83E69CE10E941B2D8DE758
:103DC0009CE19093711C8093701C82E79CE190931E
:103DD0006F1C80936E1C94CFC5010E9409199C8FA3
:103DE0008B8F009709F021CFCE010E94A2198FEF8F
:103DF000A8CF0FB6F8940F92009729F00F900FBE3E
:103E0000FC01828D08958091531C9091541C0F9059
:103E10000FBEFC01828D0895EF92FF921F93CF9306
:103E2000DF93EC01262F643008F023E00FB6F894FE
:103E30000F92209709F44AC03FA13217A9F180914F
:103E4000531C9091541C3217B8F5C817D90741F08C
:103E5000E091531CF091541C11E0828D281708F456
:103E600010E08A8D381769F12FA34E855F85688928
:103E7000798977FD0CC044E050E060E070E0421BBF
:103E80005109610971094E875F87688B798B2BE037
:103E9000829FC00111248857934E2C853D85281799
:103EA0003907C9F0113079F00F900FBEDF91CF9133
:103EB0001F91FF90EF90089511E0C817D90781F680
:103EC000D0CF2A8FD1CF0E948A2EEECFC091531C23
:103ED000D091541CB1CF7E0182E0E80EF11CC701E5
:103EE0000E948E2D8A8D90915B1C981710F4809300
:103EF0005B1C2BE0829FC0011124B7018857934EB1
:103F00000E94302DCFCFAF92BF92CF92DF92EF922F
:103F1000FF920F93A12CB12CC12CD12C81E6E82E5D
:103F20008CE1F82E00E020E030E044E650E06EE95D
:103F300074E08DE99DE10E94F21D813041F00F9106
:103F4000FF90EF90DF90CF90BF90AF900895F894DE
:103F500080935A1C10925C1C10925D1C10925E1C87
:103F600010925F1C0F91FF90EF90DF90CF90BF9069
:103F7000AF900C944E2EF89410925A1C0C94892EEB
:103F80008091551C8F5F8093551C08950FB6F8944F
:103F90000F9260915C1C70915D1C80915E1C9091F1
:103FA0005F1C0F900FBE089560915C1C70915D1CAA
:103FB00080915E1C90915F1C08958091601C089513
:103FC000009711F04D9608958091531C9091541CC8
:103FD0004D9608958091611C9091621C0895AF9256
:103FE000BF92CF92DF92EF92FF920F931F93CF93E6
:103FF000DF938091551C8111CFC080915C1C909102
:104000005D1CA0915E1CB0915F1C0196A11DB11DAD
:1040100080935C1C90935D1CA0935E1CB0935F1C0E
:10402000C0905C1CD0905D1CE0905E1CF0905F1C0A
:10403000C114D104E104F10439F58091701C909110
:10404000711C20916E1C30916F1C3093711C209359
:10405000701C90936F1C80936E1C8091571C8F5F17
:104060008093571CE091701CF091711C808181112C
:104070009AC08FEF9FEFDC018093020290930302BE
:10408000A0930402B0930502809102029091030272
:10409000A0910402B0910502B12CC816D906EA0617
:1040A000FB0608F457C09BE0A92EE091701CF0912C
:1040B000711C8081882309F442C0E091701CF0914A
:1040C000711C0780F085E02DC085D1854A815B8118
:1040D0006C817D81C416D506E606F70608F47AC021
:1040E0008E010E5F1F4FC8010E948E2D888D998D05
:1040F000892B21F0CE010E960E948E2D8A8D9091F3
:104100005B1C981710F480935B1CA89EC0011124BF
:10411000B8018857934E0E94302DE091531CF091C6
:10412000541C9A8D828D981708F4BFCFBB24B3948A
:10413000E091701CF091711C80818111BECF4FEF16
:104140005FEFBA01409302025093030260930402AE
:1041500070930502E091531CF091541CE28D8BE0AA
:10416000E89FF0011124E857F34E8081823010F06F
:10417000BB24B3948091581C882311F0BB24B394C2
:104180008B2DDF91CF911F910F91FF90EF90DF90DA
:10419000CF90BF90AF9008958091591C8F5F80930E
:1041A000591CB12CE7CFE091701CF091711C078075
:1041B000F085E02D0084F185E02D82819381A4813A
:1041C000B5818093020290930302A0930402B093FE
:1041D00005025ACF409302025093030260930402F7
:1041E00070930502B7CFEF92FF920F931F93CF9377
:1041F000DF930FB6F8940F928091551C81508093F5
:10420000551C8091551C811150C08091601C8823E1
:1042100009F44BC02BE0F22EEE24E39427C0E0918A
:104220006A1CF0916B1CC085D185CE010E960E9450
:104230008E2D8E010E5F1F4FC8010E948E2D8A8D1C
:1042400090915B1C981710F480935B1CF89EC00142
:104250001124B8018857934E0E94302DE091531CD1
:10426000F091541C9A8D828D981748F58091631CAB
:104270008111D5CF8091591C882399F08091591CC8
:10428000882379F0C1E00E94EF1F8111C093581C70
:104290008091591C81508093591C8091591C811127
:1042A000F2CF8091581C813069F080E00F900FBEF2
:1042B000DF91CF911F910F91FF90EF900895E092C1
:1042C000581CD4CF0E948A2E81E0F0CFCF92DF928B
:1042D000EF92FF920F931F93CF93DF9300D000D004
:1042E000CDB7DEB72091551C2F5F2093551CC09091
:1042F0005C1CD0905D1CE0905E1CF0905F1CFC018B
:104300000081118122813381400F511F621F731F71
:10431000C016D106E206F306E8F44017510762071B
:104320007307E8F0FC0140835183628373830E942A
:10433000F320811102C00E948A2E0F900F900F90DF
:104340000F90DF91CF911F910F91FF90EF90DF9031
:10435000CF900895401751076207730728F0C416DD
:10436000D506E606F706F0F6FC014083518362832A
:1043700073838091531C9091541C029649835A83F5
:104380006B837C830E948E2D49815A816B817C8155
:10439000CB01BA010E94A51DCACFCF92DF92EF9246
:1043A000FF92611571058105910539F40E948A2EED
:1043B000FF90EF90DF90CF9008952091551C2F5FD4
:1043C0002093551CC0905C1CD0905D1CE0905E1C3E
:1043D000F0905F1CC60ED71EE81EF91E8091531C7C
:1043E0009091541C02960E948E2DC701B6010E9426
:1043F000A51D0E94F3208823C9F2FF90EF90DF9063
:10440000CF9008958091551C81113BC01092581C8B
:10441000E0915B1C8BE0E89FF0011124E857F34E1C
:104420008081811110C09BE080915B1C8150809342
:104430005B1CE0915B1C9E9FF0011124E857F34E3A
:104440008081882389F3E0915B1C8BE0E89FF00179
:104450001124E857F34EA181B28114960D90BC91BE
:10446000A02DB283A183CF010396A817B90769F0E5
:1044700018968D919C9119979093541C8093531C7E
:10448000089581E08093581C089514969C91149788
:1044900015968C9191838283A92FB82FE9CFCF9263
:1044A000DF92EF92FF926A017B016091531C709141
:1044B000541C625F7F4F0E94512D8091531C90913C
:1044C000541C02960E948E2D60915C1C70915D1CA4
:1044D00080915E1C90915F1C6C0D7D1D8E1D9F1D3B
:1044E000FF90EF90DF90CF900C94A51DCF92DF92BC
:1044F000EF92FF920F931F9368017901E091531C93
:10450000F091541C706846875787608B718B60915F
:10451000531C7091541C625F7F4F0E94302D80911C
:10452000531C9091541C02960E948E2D60915C1C2D
:1045300070915D1C80915E1C90915F1C6C0D7D1DC7
:104540008E1D9F1D1F910F91FF90EF90DF90CF90D8
:104550000C94A51D0F931F93CF93DF93DC01179647
:10456000ED91FC911897C085D1858E01025F1F4F98
:10457000C8010E948E2D8091551C811124C08E018E
:104580000E5F1F4FC8010E948E2D8A8D90915B1C7B
:104590009817F8F0BBE08B9FC0011124B801885731
:1045A000934E0E94302DE091531CF091541C9A8D33
:1045B000828D891788F481E08093581CDF91CF9118
:1045C0001F910F910895B80183E69CE10E94302D60
:1045D000EACF80935B1CDECF80E0DF91CF911F910B
:1045E0000F9108950F931F93CF93DF937068FC0191
:1045F0004083518362837383C085D1850E948E2D51
:104600008E010E5F1F4FC8010E948E2D8A8D9091E2
:104610005B1C981710F480935B1CFBE08F9FC0011C
:104620001124B8018857934E0E94302DE091531CFD
:10463000F091541C9A8D828D891740F481E080930B
:10464000581CDF91CF911F910F91089580E0DF9169
:10465000CF911F910F9108952091571CFC01208349
:1046600040915C1C50915D1C60915E1C70915F1CC0
:10467000418352836383748308958F929F92AF9294
:10468000BF92CF92DF92EF92FF920F931F93FC01A4
:10469000DB010FB6F8940F9240915C1C50915D1CA9
:1046A00060915E1C70915F1C8091571C908101810C
:1046B000128123813481981729F04017510762072E
:1046C000730770F5CD90DD90ED90FC9013974A0143
:1046D0005B01801A910AA20AB30A8C149D04AE04ED
:1046E000BF04F0F4C41AD50AE60AF70AC00ED11EB8
:1046F000E21EF31ECD92DD92ED92FC921397809113
:10470000571C808380915C1C90915D1CA0915E1C65
:10471000B0915F1C81839283A383B48380E001C046
:1047200081E00F900FBE1F910F91FF90EF90DF90EF
:10473000CF90BF90AF909F908F90089581E080932D
:10474000581C0895009799F0DC015B96ED91FC915F
:104750005C978081853A81F4319680E090E0DC01BD
:104760000196A11DB11D2191253AD1F308958091A3
:10477000531C9091541CE8CF80E008958091531C05
:104780009091541C08950F931F93CF93DF93EC01E6
:10479000009781F18A8DE091531CF091541C928D09
:1047A000891740F54E855F856889798977FD11C045
:1047B000E091531CF091541C928D44E050E060E075
:1047C00070E0491B5109610971094E875F87688B49
:1047D000798B2BE0829FC00111248857934E2C8542
:1047E0003D852817390759F0E091531CF091541C6E
:1047F000828D8A8FDF91CF911F910F9108958E0145
:104800000E5F1F4FC8010E948E2DE091531CF09146
:10481000541C828D8A8F90915B1C981710F48093A2
:104820005B1C2BE0829FC0011124B8018857934E76
:10483000DF91CF911F910F910C94302D0F931F9307
:10484000CF93DF93EC01009749F088A5815088A7AA
:104850002A8D9FA1291711F0882331F080E0DF9184
:10486000CF911F910F9108958E010E5F1F4FC801C8
:104870000E948E2D8FA18A8F44E050E060E070E0AE
:10488000481B5109610971094E875F87688B798BD5
:1048900090915B1C981710F480935B1C2BE0829F17
:1048A000C0011124B8018857934E0E94302D81E039
:1048B000DF91CF911F910F910895CF92DF92EF92E8
:1048C000FF92E091531CF091541C66857785808996
:1048D0009189E091531CF091541CA091531CB0910C
:1048E000541C5A962C9134E0C32ED12CE12CF12C7F
:1048F000C21AD108E108F108C686D786E08AF18A93
:10490000FF90EF90DF90CF9008958091531C90918D
:10491000541C892B39F0E091531CF091541C80A554
:104920008F5F80A78091531C9091541C0895EF9243
:10493000FF920F931F93CF93DF9300D0CDB7DEB7D5
:104940007C0187EA94E0F70191838083611571050A
:10495000C1F0FB0101900020E9F73197E61BED3033
:1049600020F50E2F10E0C801019669837A830E941A
:104970006529F70195838483A80169817A810E9462
:1049800019358091B41C9091B51CF70197838683EB
:10499000F092B51CE092B41C0F900F90DF91CF9174
:1049A0001F910F91FF90EF900895ECE0DACF0F93F5
:1049B0001F93CF93DF93EC018091B41C9091B51CB1
:1049C0006BE0892B49F1CE010E94DA298C0160E568
:1049D00077E00E94952966E0C8010E94DA296BE021
:1049E000CE010E94DA298C016DE277E00E949529C0
:1049F00066E0C8010E94DA298091B41C9091B51C30
:104A0000DC01ED91FC910190F081E02DBE01DF9180
:104A1000CF911F910F910994CE010E94DA29EC01E8
:104A20006FE077E00E94952966E0CE01DF91CF919B
:104A30001F910F910C94DA294F925F926F927F929F
:104A40008F929F92AF92BF92CF92DF92EF92FF929E
:104A50000F931F93CF93DF93EC013B014901280192
:104A6000FC018DEA94E081939193A12CB12CC12C8F
:104A7000D12C7F01042F9E01A40189E293E30E94BF
:104A8000F21D5F824E82998688862091B61C3091F5
:104A9000B71C3D832C83D093B71CC093B61C1C86D7
:104AA0001D868090C41C9090C51C9FEF891A990A9E
:104AB0009092C51C8092C41C9B868A861E861F8687
:104AC000188A198A4114510409F44CC06BE08130F2
:104AD00041F1C2010E94DA29EC0163E777E00E940C
:104AE0009529B301CE010E949529E881F9810280C0
:104AF000F381E02D62E2CE01099566E0CE01DF91FF
:104B0000CF911F910F91FF90EF90DF90CF90BF90CA
:104B1000AF909F908F907F906F905F904F900C948C
:104B2000DA29C2010E94DA29EC0169E877E00E94E3
:104B30009529B301CE010E9495296BE0CE010E9418
:104B4000DA29EC0160E977E00E94952963E0CE0163
:104B50000E94DA29B4010E948A2A62E00E94DA29BE
:104B600066E0CDCFDF91CF911F910F91FF90EF9035
:104B7000DF90CF90BF90AF909F908F907F906F907D
:104B80005F904F900895EC01E881F9810190F081E8
:104B9000E02D09951B821A826FEF7FEFCB010E94F7
:104BA000CD21FACFFC01648765870895FC01C68199
:104BB000D781209739F0CE010E94952966E0CE0179
:104BC0000E94DA292BE088E190E00FB6F894A895CE
:104BD000809360000FBE20936000FFCF0E94C61F2D
:104BE0000E947B3420E030E04AE754E40E94133412
:104BF0000895CF92DF92EF92FF920F931F93CF937E
:104C0000DF93EC017B018A819B810E94E01F6C0194
:104C10006BE0C7010E94DA298C0167EA77E00E9405
:104C20009529B601C8010E94952966E0C8010E9435
:104C3000DA298A859B8528853985A701BC01821BD5
:104C4000930B0E94DE280C80DD81C02D2097D9F6C1
:104C5000DF91CF911F910F91FF90EF90DF90CF9058
:104C600008950F931F93CF93DF93EC018091B61CAF
:104C70009091B71C009719F0BE010E94F9256BE0D6
:104C8000CE010E94DA298C016EEA77E00E94952914
:104C900066E0C8010E94DA298091C41C9091C51C6D
:104CA000BC016F5F7F4FAE0183569109DF91CF91B9
:104CB0001F910F910C94DE288F929F92AF92BF921A
:104CC000CF92DF92EF92FF920F931F93CF93DF93D8
:104CD000EC018B018A819B810E94E01FBC01C8010D
:104CE0000E949529D801ED91FC910280F381E02D7D
:104CF00069E0C80109958A819B810E94E01FFC013F
:104D000001900020E9F73197E81BF90B389748F438
:104D1000D801ED91FC910280F381E02D69E0C8019A
:104D20000995CE84DF84E888F988A884B9848A81CB
:104D30009B810E94A223982E8C848A819B810E9451
:104D4000F91E682FC8010E940C2B6BE00E94DA2923
:104D5000EC0162E278E00E949529682DCE010E9464
:104D60000C2B6BE00E94DA29EC0164E278E00E94EF
:104D70009529692DCE010E940C2B6BE00E94DA2947
:104D8000EC0166E278E00E949529B501CE010E940F
:104D90008A2A6BE00E94DA29EC0168E278E00E943E
:104DA00095296BE0CE010E94DA29EC016AE278E0F5
:104DB0000E949529B701A601CE01DF91CF911F91E5
:104DC0000F91FF90EF90DF90CF90BF90AF909F90AA
:104DD0008F900C94C42A0F931F93CF93DF93EC0111
:104DE0008B01E881F9810280F381E02DB801CE01C9
:104DF000099566E0C8010E94DA290C80DD81C02D8A
:104E0000209779F7DF91CF911F910F910895CF935C
:104E1000DF93EC01CB01DB01ED91FC910280F3818A
:104E2000E02DBE010995CE01DF91CF9108950F933A
:104E30001F93CF93DF93EC016BE00E94DA298C0182
:104E400060E178E00E9495296BE0C8010E94DA29B0
:104E50008C016BE178E00E94952966E0C8010E9410
:104E6000DA296BE0CE010E94DA298C016DEE77E041
:104E70000E9495296BE0C8010E94DA298C016EEF2F
:104E800077E00E9495296BE0C8010E94DA298C0125
:104E90006AE078E00E94952966E0C8010E94DA295C
:104EA0006BE0CE010E94DA298C016AEC77E00E9467
:104EB00095296BE0C8010E94DA298C016BED77E03F
:104EC0000E9495296BE0C8010E94DA298C0167EEE7
:104ED00077E00E94952966E0C8010E94DA29809156
:104EE000B61C9091B71C009719F0BE010E94EB26EA
:104EF0000E94EA1F0E94A223182F6BE0CE010E949D
:104F0000DA29EC0169EB77E00E949529612FCE0147
:104F10000E940C2B6BE00E94DA29EC0164EC77E034
:104F20000E94952964E670E0CE010E948A2A6BE017
:104F30000E94DA29EC0166EC77E00E94952966E090
:104F4000CE01DF91CF911F910F910C94DA29CF926E
:104F5000DF92EF92FF920F931F93CF93DF937C0129
:104F60008B01DC011A966D917C911B97C8010E9400
:104F70009529F701A285B385FD0101900020E9F78D
:104F80003197DE2EDA1AFFE0FD1580F0C0E0D0E0A8
:104F9000D801ED91FC910280F381E02D60E2C8011F
:104FA000099521968C2F8D0D803190F361EB74E083
:104FB000C8010E949529D7015696CD90DC9057974D
:104FC0001E968D919C911F970E94741D682FC80199
:104FD0000E940C2BEC01E881F9810280F381E02D25
:104FE0006FE20995B601CE010E948A2ADC01ED919B
:104FF000FC910280F381E02D69E0099566E0C8012B
:105000000E94DA29F70184859585009781F0DC01FB
:10501000ED91FC910190F081E02DB801DF91CF91ED
:105020001F910F91FF90EF90DF90CF900994DF9147
:10503000CF911F910F91FF90EF90DF90CF90089547
:105040006F927F928F929F92AF92BF92CF92DF9298
:10505000EF92FF920F931F93CF93DF93EC01762E85
:10506000672E4A015901670178010E948A29B4011B
:10507000CE0106960E9497248CEB94E09983888356
:105080002EEC34E03F832E83BD8AAC8A40E061E0A1
:10509000872D0E94E51A9F878E87C88AD98AEA8A57
:1050A000FB8A7E8A6F8ADF91CF911F910F91FF90CB
:1050B000EF90DF90CF90BF90AF909F908F907F90B8
:1050C0006F90089506970C94A727CF92DF92EF92E6
:1050D000FF920F931F93CF93DF93CDB7DEB72F9738
:1050E0000FB6F894DEBF0FBECDBF8C017B01DB0194
:1050F0006D917D918D919C9128EE33E040E050E0E0
:105100000E94CC33BA01A901C8010E94C42AD80167
:10511000ED91FC910280F381E02D6EE2C8010995CA
:10512000C7010E94422F6E01B9E0CB0ED11C7E0157
:10513000EFE0EE0EF11C2AE030E040E050E00E948B
:10514000EE33E62F29833A834B835C8369817A812E
:105150008B819C81E05DD701EE937D01AC15BD058F
:1051600051F71F86BD01C8010E949529C8012F96DD
:105170000FB6F894DEBF0FBECDBFDF91CF911F9168
:105180000F91FF90EF90DF90CF900895CF93DF9332
:10519000EC010FB6F8940F928091240190912501B3
:1051A0009D838C830E94C61F688379838A839B8337
:1051B0000F900FBECE01DF91CF9108958F929F92F5
:1051C000AF92BF92CF92DF92EF92FF920F931F9315
:1051D000CF93DF936C014B01EA0163E0CA010E94A7
:1051E000DA29C814D90408F059C0560184E1A80E80
:1051F000B11C7501B601CE010E948A2A6BE00E94A3
:10520000DA296CE278E00E9495298601F801619123
:105210008F01CE010E940C2BE881F9810280F3817D
:10522000E02D60E2CE0109950E151F0579F7E881A2
:10523000F9810280F381E02D60E2CE0109950FC073
:1052400080EE860FE881F9810280F381E02D8F35B1
:1052500008F06EE2CE010995CE14DF0481F0F6016C
:1052600061916F01653A61F7E881F9810280F3810C
:10527000E02D60E2CE010995CE14DF0481F76501CF
:1052800066E0CE010E94DA29F4E1EF0EF11CA814C9
:10529000B90420F4C50144965C01ACCF62E0CE01B4
:1052A000DF91CF911F910F91FF90EF90DF90CF9002
:1052B000BF90AF909F908F900C94DA290C940919AD
:1052C000009711F00C94A21908950C9409190097F5
:1052D00011F00C94A2190895FC0181E090E0208166
:1052E000222311F080E090E0089521E0FC0120836A
:1052F00008950895089581E0089580E0089580E07C
:1053000008950895DC01ED91FC910280F381E02D78
:105310006CE00994FC0184ED94E0918380838AE041
:10532000828383E08583148208950F931F93CF9324
:10533000DF93EC01FB018C81811117C06081662332
:1053400079F08F010F5F1F4FE881F9810280F381AF
:10535000E02DCE010995F80161918F016111F4CF23
:10536000DF91CF911F910F9108951C828B010F5FE8
:105370001F4F64916623A1F3A881B9811296ED9124
:10538000FC911397CE010995F80164910F5F1F4FAF
:105390006111F2CFE5CF883008F087E080930702F3
:1053A00089E008959EEF980F9F3010F480930602D5
:1053B0008AE00895CF93DF93EC01462F50E04C3004
:1053C000510538F4FA01EA59FF4F0C940D3482E08C
:1053D0008A83CE01DF91CF91089581E08C83F9CF4C
:1053E00088E08A83F6CF8AE08A83F3CF80E18A83DC
:1053F000F0CFE881F9810280F381E02D6DE009951D
:10540000E881F9810280F381E02D6AE0CE010995FF
:10541000E0CFE881F9810284F385E02D0995D9CFA9
:10542000E881F9810084F185E02D0995D2CF809142
:1054300007028D83CECF809106028A83CACF0F9355
:105440001F93CF93DF93CDB7DEB761970FB6F89474
:10545000DEBF0FBECDBF8C01CB01F80122812A3007
:1054600079F0C8010E948A2AC80161960FB6F894A3
:10547000DEBF0FBECDBFDF91CF911F910F91089579
:105480004AE050E0BE016F5F7F4F0E942835BE01A9
:105490006F5F7F4FC8010E949529E6CF0F931F933E
:1054A000CF93DF9300D000D01F92CDB7DEB78C0131
:1054B000862FD80113969C911397911112C0F80171
:1054C00092819A30B1F0C8010E940C2BC8010F9054
:1054D0000F900F900F900F90DF91CF911F910F9130
:1054E0000895ED91FC910280F381E02DC8010995AA
:1054F000EDCF4AE050E0BE016F5F7F4F992787FDF7
:1055000090950E942835BE016F5F7F4FC8010E94B1
:105510009529DCCFFF920F931F93CF93DF93CDB7E5
:10552000DEB761970FB6F894DEBF0FBECDBF8C011A
:10553000F62E972FF8014281403191F0483081F0EA
:10554000423071F050E0BE016F5F7F4F8F2D0E949F
:105550006E35BE016F5F7F4FC8010E94952907C05D
:10556000692FC8010E940C2B6F2D0E940C2BC801C3
:1055700061960FB6F894DEBF0FBECDBFDF91CF911D
:105580001F910F91FF900895DF92EF92FF920F937A
:105590001F93CF93DF93CDB7DEB7A1970FB6F894E3
:1055A000DEBF0FBECDBF8C01D42EE52EF62E972F79
:1055B000F80122812031A1F0283091F0223081F0D1
:1055C00030E0AE014F5F5F4F6D2D7E2D8F2D0E941D
:1055D0004935BE016F5F7F4FC8010E9495290DC0FC
:1055E000692FC8010E940C2B6F2D0E940C2B6E2D71
:1055F0000E940C2B6D2D0E940C2BC801A1960FB69A
:10560000F894DEBF0FBECDBFDF91CF911F910F91F8
:10561000FF90EF90DF900895CF92DF92EF92FF928C
:105620000F931F93CF93DF93CDB7DEB729970FB6B4
:10563000F894DEBF0FBECDBF8C01D62EDC011396D1
:105640008C91139781115DC0F80142814230D9F1EC
:105650004031F1F050E0BE016F5F7F4F8D2D90E043
:105660000E946E35BE016F5F7F4FC8010E94952971
:10567000C80129960FB6F894DEBF0FBECDBFDF91EB
:10568000CF911F910F91FF90EF90DF90CF900895F1
:1056900062956F700190F081E02D0280F381E02D22
:1056A0006A30B8F5605DC80109956D2D6F70D8013D
:1056B000ED91FC910280F381E02D6A3060F1695C2C
:1056C000C8010995D5CF88E0E82EF12C90E8C92EC5
:1056D0000AC061E3C8010995C694B1E0EB1AF1086C
:1056E000E114F10429F28C2D8D21D801ED91FC916A
:1056F0000280F381E02D8111ECCF60E3C8010995B0
:10570000EBCFED91FC910280F381E02DC80109956A
:10571000AFCF695CC8CF605DD3CFDC011896ED9147
:10572000FC91199780811C969C911C97892359F4B0
:1057300021E23EE405C0215031092115310571F007
:1057400080818923C1F380811E969C911E97892BAD
:1057500080831696ED91FC91179760830895FC0164
:10576000878581111DC02091C01C3091C11C809182
:10577000BE1C9091BF1C2817390789F0E091C21C0C
:10578000F091C31CE20FF31F80812F5F3F4F203247
:10579000310518F11092C11C1092C01C0895FFCF62
:1057A0002091BA1C3091BB1C8091B81C9091B91CFF
:1057B0002817390789F0E091BC1CF091BD1CE20F5D
:1057C000F31F80812F5F3F4F2032310558F0109238
:1057D000BB1C1092BA1C0895FFCF3093C11C2093BC
:1057E000C01C08953093BB1C2093BA1C0895DC01A3
:1057F000ED91FC910280F381E02D6CE00994FC01B5
:105800008785882369F081E04091BA1C5091BB1CC8
:105810002091B81C3091B91C4217530769F00895C4
:1058200081E04091C01C5091C11C2091BE1C309160
:10583000BF1C4217530799F780E00895EF92FF923B
:105840001F93CF93DF9300D0CDB7DEB77C01142F29
:1058500069837A830E948A29412F69817A81C701ED
:1058600006960E94802F84EE94E0F7019183808356
:1058700017871123E9F08091C90080688093C900DF
:1058800080E290E00E9465299093BD1C8093BC1C2F
:105890001092BB1C1092BA1C1092B91C1092B81C2A
:1058A0000F900F90DF91CF911F91FF90EF9008958F
:1058B0008091C10080688093C10080E290E00E94E6
:1058C00065299093C31C8093C21C1092C11C109236
:1058D000C01C1092BF1C1092BE1C0F900F90DF9145
:1058E000CF911F91FF90EF9008951F920F920FB6E6
:1058F0000F9211240BB60F922F933F938F939F9388
:10590000EF93FF932091C600E091C21CF091C31C5D
:105910008091BE1C9091BF1CE80FF91F20838091DD
:10592000BE1C9091BF1C019680329105C0F49093EB
:10593000BF1C8093BE1C2091C01C3091C11C281735
:105940003907D1F0FF91EF919F918F913F912F9166
:105950000F900BBE0F900FBE0F901F9018951092D6
:10596000BF1C1092BE1C80E090E02091C01C3091C2
:10597000C11C2817390731F701969093C11C8093F9
:10598000C01C8097F8F21092C11C1092C01CDACF94
:105990001F920F920FB60F9211240BB60F922F93F6
:1059A0003F938F939F93EF93FF932091CE00E091CD
:1059B000BC1CF091BD1C8091B81C9091B91CE80FE3
:1059C000F91F20838091B81C9091B91C01968032F8
:1059D0009105C0F49093B91C8093B81C2091BA1C17
:1059E0003091BB1C28173907D1F0FF91EF919F919F
:1059F0008F913F912F910F900BBE0F900FBE0F9084
:105A00001F9018951092B91C1092B81C80E090E07D
:105A10002091BA1C3091BB1C2817390731F7019629
:105A20009093BB1C8093BA1C8097F8F21092BB1C19
:105A30001092BA1CDACFFC010396928381834FEF58
:105A40005FEFBA01438354836583768390878783AE
:105A50009287818710820895FC011386128608952B
:105A6000CF93DF939C01FB01DC011196CD91DC917A
:105A70001297D583C4838E819F81978386838E817D
:105A80009F81DC0115967C936E9314977F836E83C0
:105A900033872287F90180818F5F8083DF91CF91E7
:105AA00008950F931F93CF93DF93EB010881198122
:105AB0002A813B810F3F4FEF14072407340731F150
:105AC000DC01139601C0DF011496ED91FC9115974E
:105AD00040815181628173810417150726073707BA
