:100000000C94D6070C94F5070C94F5070C94F5079F
:100010000C94F5070C94DE1A0C949B1B0C949D1BFE
:100020000C94121C0C94F5070C94F5070C94F5072E
:100030000C94F5070C94F5070C94F5070C94F50750
:100040000C94F5070C94F5070C94F5070C94F50740
:100050000C94F5070C94F5070C94F5070C94F50730
:100060000C94F5070C9486390C94F5070C94F5075D
:100070000C94F5070C94F5070C94F5070C94F50710
:100080000C94F5070C94F5070C94F5070C94F50700
:100090000C94D9390C94F5070C94F5070C94F507DA
:1000A0000C94F5070C94F5070C94F5070C94F507E0
:1000B0000C94F5070C94F5070C94F5070C94503C40
:1000C0000C94F5070C94F5070C94F50702370B37E1
:1000D0000E37113704370437143724372B373237AC
:1000E000363708375F5F5F5F5F5F5F5F204D453486
:1000F0003035204C61622033204D6F64696669653C
:10010000642050726F6772616D205F5F5F5F5F5F39
:100110005F5F004A756E202039203230313600533F
:10012000797374656D2074696D653A20002C2048E0
:100130006561703A20002C204F435235413A20002F
:1001400020202020723A2020202020205265747523
:10015000726E20746F204D61696E204D656E750062
:10016000202043746C2D433A202020205265736573
:100170007420415652206D6963726F636F6E7472A2
:100180006F6C6C65720020202020733A20202020A4
:100190002020456E74657220736574706F696E748B
:1001A000732078787878787820666F72204D6F7435
:1001B0006F722031207468656E204D6F746F7220ED
:1001C00032002D2D2D2D2D2D2D2D2D2D2D2D2D2D87
:1001D0002D204155544F4E4F4D4F5553204D454EB8
:1001E00055202D2D2D2D2D2D2D2D2D2D2D2D2D2D24
:1001F0002D0020202020723A20202020202052652F
:100200007475726E20746F204D61696E204D656E3D
:100210007500202043746C2D433A20202020526525
:1002200073657420415652206D6963726F636F6EFF
:1002300074726F6C6C65720020202020633A20205D
:1002400020202020546F67676C65206361722061F5
:10025000766F6964616E6365002D2D2D2D2D2D2D1A
:100260002D2D2D2D2D2D2D2D2D2D20484947485735
:100270004159205441534B204D454E55202D2D2D95
:100280002D2D2D2D2D2D2D2D2D2D2D2D2D2D0020D8
:10029000202020723A202020202020526574757280
:1002A0006E20746F204D61696E204D656E75002063
:1002B0002043746C2D433A202020205265736574CE
:1002C00020415652206D6963726F636F6E74726F56
:1002D0006C6C65720020202020633A2020202020B2
:1002E0002043697263756C617220706174680020CC
:1002F0002020206C3A2020202020204C696E65614F
:10030000722068656164696E672061646865726106
:100310006E6365002D2D2D2D2D2D2D2D2D2D2D2D8B
:100320002D2D2D2D2D20434C415353205441534B03
:10033000204D454E55202D2D2D2D2D2D2D2D2D2D86
:100340002D2D0020202020723A2020202020205215
:10035000657475726E20746F204D61696E204D65F5
:100360006E7500202043746C2D433A2020202052CB
:100370006573657420415652206D6963726F636FB7
:100380006E74726F6C6C65720020202020733A20AE
:100390002020202020506F736974696F6E20736570
:1003A00074706F696E740020202020703A20202025
:1003B000202020536572766F20706F736974696FA7
:1003C0006E20776974682050574D205B3430303090
:1003D000205B4C5D2C2033303030205B435D2C2083
:1003E00032303030205B525D5D002D2D2D2D2D2DB6
:1003F0002D2D2D2D2D2D2D2D2D2D2D2053455256AE
:100400004F204D454E55202D2D2D2D2D2D2D2D2D93
:100410002D2D2D2D2D2D2D2D0020202020723A2028
:10042000202020202052657475726E20746F204D3C
:1004300061696E204D656E7500202043746C2D43FC
:100440003A20202020526573657420415652206D59
:100450006963726F636F6E74726F6C6C657200208B
:10046000202020733A20202020202056656C6F63C6
:1004700069747920736574706F696E74205B2D34B4
:10048000302C2034305D0020202020663A202020AF
:1004900020202046756C6C204272616B6500202024
:1004A0002020623A2020202020204D6F746F72207F
:1004B0004252414B4520776974682050574D205B6C
:1004C0002D313630302C20313630305D0020202068
:1004D00020703A2020202020204D6F746F72205011
:1004E0004F57455220776974682050574D205B2D37
:1004F000313630302C20313630305D002D2D2D2D11
:100500002D2D2D2D2D2D2D2D2D2D2D2D2D204D4FE6
:10051000544F52204D454E55202D2D2D2D2D2D2D36
:100520002D2D2D2D2D2D2D2D2D2D00202020207217
:100530003A20202020202052657475726E20746F3E
:10054000204D61696E204D656E7500202043746CEE
:100550002D433A2020202052657365742041565265
:10056000206D6963726F636F6E74726F6C6C65720D
:100570000020202020643A20202020202053746175
:10058000636B2064756D7020666F72207461736B8D
:10059000730020202020733A202020202020566540
:1005A0007273696F6E2F536574757020696E666F14
:1005B000726D6174696F6E0020202020743A2020D3
:1005C0002020202053686F7720746865206375723F
:1005D00072656E742074696D65002D2D2D2D2D2D85
:1005E0002D2D2D2D2D2D2D2D2D2D2D2048454C50D3
:1005F000204D454E55202D2D2D2D2D2D2D2D2D2DC4
:100600002D2D2D2D2D2D2D0020202020723A202043
:100610002020202052657475726E20746F204D6109
:10062000696E204D656E7500202043746C2D433A31
:1006300020202020526573657420415652206D6938
:1006400063726F636F6E74726F6C6C6572002020E2
:100650002020623A202020202020456D65726765A9
:100660006E637920627265616B2100202020206416
:100670003A202020202020526F746174652073740A
:10068000656572696E6720746F2074686520726991
:10069000676874202B3130300020202020613A2000
:1006A0002020202020526F7461746520737465656A
:1006B00072696E6720746F20746865206C6566745B
:1006C000202D3130300020202020733A202020209F
:1006D000202044656372656D656E74206D6F746F64
:1006E000722076656C6F63697479202D313030002B
:1006F00020202020773A202020202020496E63727D
:10070000656D656E74206D6F746F722076656C6FA9
:1007100063697479202B313030002D2D2D2D2D2D36
:100720002D2D2D2D2D2D2D2D434152204452495636
:1007300045204D454E55202D2D2D2D2D2D2D2D2D6A
:100740002D2D2D2D2D2D2D2D0020202020723A20F5
:10075000202020202052657475726E20746F204D09
:1007600061696E204D656E7500202043746C2D43C9
:100770003A20202020526573657420415652206D26
:100780006963726F636F6E74726F6C6C6572002058
:100790002020203F3A20202020202048656C702017
:1007A0004D656E750020202020683A2020202020F2
:1007B0002048696768776179206D61696E74656E3C
:1007C000616E63650020202020633A2020202020D5
:1007D00020436C6173732072657175697265642062
:1007E0007461736B730020202020643A2020202045
:1007F00020204472697665207468652063617221E7
:10080000002D2D2D2D2D2D2D2D2D2D2D2D2D2D2D45
:100810002D2D204D41494E204D454E55202D2D2D3D
:100820002D2D2D2D2D2D2D2D2D2D2D2D2D2D004909
:100830006C6C6567616C207374617465212052650E
:1008400073657474696E6720415652002220003C23
:100850002D2D20556E6B6E6F776E20636F6D6D6101
:100860006E642E205479706520636F6D6D616E64C7
:100870002066726F6D206D656E752E005265736512
:100880007474696E67204156520043757272656ECA
:100890007420536572766F20506F736974696F6E40
:1008A0003A200043757272656E74204D6F746F72DA
:1008B0002056656C6F6369746965733A20004375EF
:1008C0007272656E7420536572766F20506F736913
:1008D00074696F6E3A200043757272656E74204DB4
:1008E0006F746F722056656C6F6369746965733AD3
:1008F000200043757272656E7420536572766F20A6
:10090000506F736974696F6E3A2000437572726537
:100910006E74204D6F746F722056656C6F636974CE
:100920006965733A200043757272656E7420536571
:1009300072766F20506F736974696F6E3A2000434E
:10094000757272656E74204D6F746F722056656C8F
:100950006F6369746965733A20002220003C2D2D75
:1009600020556E6B6E6F776E20636F6D6D616E6478
:100970002E205479706520636F6D6D616E64206602
:10098000726F6D206D656E752E005265736574749F
:10099000696E6720415652002220003C2D2D2055C3
:1009A0006E6B6E6F776E20636F6D6D616E642E205F
:1009B0005479706520636F6D6D616E642066726F2F
:1009C0006D206D656E752E00526573657474696E69
:1009D000672041565200456E7465722072616469E9
:1009E0007573206F662063697263756C6172207025
:1009F000617468205B302C3235355D00456E74655E
:100A0000722064697374616E6365206F66206C691F
:100A10006E6561722070617468205B302C313830F3
:100A20005D002220003C2D2D20556E6B6E6F776E81
:100A300020636F6D6D616E642E2054797065206344
:100A40006F6D6D616E642066726F6D206D656E7581
:100A50002E00506C6561736520747970652061208B
:100A60006E756D626572206265747765656E2030A3
:100A700020746F203138302C207468656E20454E0C
:100A800054455200506C6561736520656E746572E3
:100A90002061206C696E65617220706174682076D7
:100AA000656C6F63697479205B302C203331385D5D
:100AB00000506C6561736520747970652061206EEB
:100AC000756D626572206265747765656E20302091
:100AD000746F203331382C207468656E20454E5475
:100AE000455200506C6561736520747970652061B2
:100AF000206E756D626572206265747765656E2023
:100B00003020746F203331382C207468656E204596
:100B10004E54455200506C6561736520656E746576
:100B20007220612063697263756C617220706174F8
:100B3000682076656C6F63697479205B302C333183
:100B4000385D00506C656173652074797065206153
:100B5000206E756D626572206265747765656E20C2
:100B60003231303020746F20333930302C207468AB
:100B7000656E20454E54455200506C65617365208A
:100B8000747970652061206E756D62657220626592
:100B9000747765656E203020746F20313630302CCC
:100BA000207468656E20454E54455200506C656156
:100BB000736520747970652061206E756D62657251
:100BC000206265747765656E202D31363030207473
:100BD0006F20313630302C207468656E20454E54BD
:100BE000455200506C6561736520747970652061B1
:100BF0002031206F72203220666F72206D6F746F0B
:100C0000722073656C6563742C207468656E204572
:100C10004E544552004E756D62657220456E746586
:100C20007265643A20004E756D62657220456E747F
:100C3000657265643A202D002220003C2D2D205540
:100C40006E6B6E6F776E20636F6D6D616E642E20BC
:100C50005479706520636F6D6D616E642066726F8C
:100C60006D206D656E752E00526573657474696EC6
:100C70006720415652002220003C2D2D20556E6BDE
:100C80006E6F776E20636F6D6D616E642E20547988
:100C9000706520636F6D6D616E642066726F6D208C
:100CA0006D656E752E00526573657474696E67208C
:100CB00041565200456E746572206E756D626572A4
:100CC0002C2031206F7220322C20666F72206D6FC5
:100CD000746F722073656C656374696F6E3A20007F
:100CE0004175746F6E6F6D6F7573204D6F64653AEB
:100CF0002048414C544544004175746F6E6F6D6FD0
:100D00007573204D6F64653A204143544956450040
:100D100053746F7070656421200050494420322064
:100D20006572726F72005049442031206572726F93
:100D300072004572726F7220696E20676574457526
:100D40006C6572416E6700494D5520756E6974730C
:100D50002073657400494D5520706F776572206D62
:100D60006F64652073657400494D55206F7065721E
:100D70006174696F6E206D6F6465207365740049DE
:100D80004D55206F626A65637420696E7469616C89
:100D900020636F6D6D756E69636174696F6E20732A
:100DA000756365737300494D55206F626A6563749E
:100DB00020696E7469616C20636F6D6D756E696317
:100DC0006174696F6E206572726F720041444353A3
:100DD00052413A200041444D55583A200041444385
:100DE00030203D200041444331203D200041444318
:100DF00032203D200041444333203D200041444304
:100E000034203D200041444335203D2000414443EF
:100E100036203D200041444337203D20002D2D2D1C
:100E20002D2D2D2D2D204D45343035204C61622047
:100E300035205374617274696E672050726F6772E7
:100E4000616D202D2D2D2D2D2D2D2D0020202020CC
:100E500030203220342036203820412043204500E5
:100E60004932432073656E642074696D656F7574D3
:100E7000004932432072652D73746172743A2030D8
:100E80007800206E6F742030783130004E6F207300
:100E900068617265642064617461206974656D7352
:100EA00020746F207072696E74002D2D2D2D2020FE
:100EB000202020202020202020202D2D2D2D2020FE
:100EC00020202D2D2D2D2D2D2D2D2D2D0053686104
:100ED00072652F517565756520202020205479702A
:100EE0006520202020467265652F546F74616C0068
:100EF0004552524F52206372656174696E67207467
:100F000061736B2022005461736B202200222063E6
:100F10007265617465642C20737461636B20617405
:100F2000203078005461736B3A20005461736B3A3F
:100F30002049444C450049444C45090930092D09D4
:100F4000002F0009092D002D2D2D2D09092D2D2DE6
:100F50002D092D2D2D2D2D00092D2D2D2D2D2D2D36
:100F60002D2D2D00092D2D2D2D004E616D650909AA
:100F70005072692E09537461746500094672656583
:100F80002F546F74616C000952756E730054617355
:100F90006B0909202009200009537461636B000963
:100FA0000009002F000900090020200011241FBEA5
:100FB000CFEFD1E2DEBFCDBF15E0A0E0B2E0E8ECBC
:100FC000F9E800E00BBF02C007900D92AA3DB107FF
:100FD000D9F71DE1AAEDB5E001C01D92A03DB10712
:100FE000E1F70E94CF3F0C94E2440C9400000F9371
:100FF0001F93CF93DF93EC010E9437328DE192E093
:1010000099838883DF91CF911F910F9108950F935A
:101010001F93CF93DF93EC0166E08E819F810E9446
:10102000F5366BE08E819F810E94F5368C0161E080
:1010300078E00E94B03666E0C8010E94F5366BE0A9
:101040008E819F810E94F5368C0166EE77E00E94CA
:10105000B03666E0C8010E94F5366BE08E819F8154
:101060000E94F5368C0165EC77E00E94B03666E0B0
:10107000C8010E94F5366BE08E819F810E94F53693
:101080008C0165EA77E00E94B03666E0C8010E94F4
:10109000F5366BE08E819F810E94F5368C016FE8FA
:1010A00077E00E94B03666E0C8010E94F5366BE03A
:1010B0008E819F810E94F5368C0169E677E00E945F
:1010C000B03666E0C8010E94F5366BE08E819F81E4
:1010D0000E94F5368C0169E477E00E94B03666E044
:1010E000C8010E94F53666E08E819F81DF91CF9125
:1010F0001F910F910C94F5360F931F93CF93DF93AD
:10110000EC0166E08E819F810E94F5366BE08E8156
:101110009F810E94F5368C016AE177E00E94B0362B
:1011200066E0C8010E94F5366BE08E819F810E94C7
:10113000F5368C0160EF76E00E94B03666E0C801BB
:101140000E94F5366BE08E819F810E94F5368C01FE
:1011500066EC76E00E94B03666E0C8010E94F53683
:101160006BE08E819F810E94F5368C0169E976E003
:101170000E94B03666E0C8010E94F5366BE08E81B1
:101180009F810E94F5368C016BE676E00E94B036B6
:1011900066E0C8010E94F5366BE08E819F810E9457
:1011A000F5368C016EE476E00E94B03666E0C80148
:1011B0000E94F5366BE08E819F810E94F5368C018E
:1011C00068E276E00E94B03666E0C8010E94F5361B
:1011D0006BE08E819F810E94F5368C0168E076E09D
:1011E0000E94B03666E0C8010E94F53666E08E8146
:1011F0009F81DF91CF911F910F910C94F5360F9342
:101200001F93CF93DF93EC0166E08E819F810E9454
:10121000F5366BE08E819F810E94F5368C016AED78
:1012200075E00E94B03666E0C8010E94F5366BE0BA
:101230008E819F810E94F5368C0168EB75E00E94DB
:10124000B03666E0C8010E94F5366BE08E819F8162
:101250000E94F5368C0162E975E00E94B03666E0C6
:10126000C8010E94F5366BE08E819F810E94F536A1
:101270008C0161E775E00E94B03666E0C8010E940B
:10128000F5366BE08E819F810E94F5368C016BE410
:1012900075E00E94B03666E0C8010E94F5366BE04A
:1012A0008E819F810E94F5368C016BE275E00E9471
:1012B000B03666E0C8010E94F53666E08E819F81F7
:1012C000DF91CF911F910F910C94F5360F931F93DF
:1012D000CF93DF93EC0166E08E819F810E94F5360B
:1012E0006BE08E819F810E94F5368C016CEF74E07B
:1012F0000E94B03666E0C8010E94F5366BE08E8130
:101300009F810E94F5368C016DEC74E00E94B0362E
:1013100066E0C8010E94F5366BE08E819F810E94D5
:10132000F5368C016EE974E00E94B03666E0C801C3
:101330000E94F5366BE08E819F810E94F5368C010C
:1013400067E874E00E94B03666E0C8010E94F53696
:101350006BE08E819F810E94F5368C016FE574E011
:101360000E94B03666E0C8010E94F5366BE08E81BF
:101370009F810E94F5368C0169E374E00E94B036CB
:1013800066E0C8010E94F5366BE08E819F810E9465
:10139000F5368C0169E174E00E94B03666E0C80160
:1013A0000E94F53666E08E819F81DF91CF911F917B
:1013B0000F910C94F5360F931F93CF93DF93EC01AD
:1013C00066E08E819F810E94F5366BE08E819F8161
:1013D0000E94F5368C016AEE73E00E94B03666E03A
:1013E000C8010E94F5366BE08E819F810E94F53620
:1013F0008C0167EA73E00E94B03666E0C8010E9483
:10140000F5366BE08E819F810E94F5368C0169E88C
:1014100073E00E94B03666E0C8010E94F5366BE0CA
:101420008E819F810E94F5368C0163E673E00E94F5
:10143000B03666E0C8010E94F5366BE08E819F8170
:101440000E94F5368C0163E473E00E94B03666E0DA
:10145000C8010E94F53666E08E819F81DF91CF91B1
:101460001F910F910C94F5360F931F93CF93DF9339
:10147000EC0166E08E819F810E94F5366BE08E81E3
:101480009F810E94F5368C0164E173E00E94B036C2
:1014900066E0C8010E94F5366BE08E819F810E9454
:1014A000F5368C016FEE72E00E94B03666E0C8013E
:1014B0000E94F5366BE08E819F810E94F5368C018B
:1014C00065ED72E00E94B03666E0C8010E94F53614
:1014D0006BE08E819F810E94F5368C016FEA72E08D
:1014E0000E94B03666E0C8010E94F5366BE08E813E
:1014F0009F810E94F5368C016FE872E00E94B03641
:1015000066E0C8010E94F53666E08E819F81DF911A
:10151000CF911F910F910C94F5360F931F93CF939A
:10152000DF93EC0166E08E819F810E94F5366BE0CF
:101530008E819F810E94F5368C0169E572E00E94E0
:10154000B03666E0C8010E94F5366BE08E819F815F
:101550000E94F5368C0168E372E00E94B03666E0C6
:10156000C8010E94F5366BE08E819F810E94F5369E
:101570008C0162E172E00E94B03666E0C8010E9410
:10158000F5366BE08E819F810E94F5368C0162EF0B
:1015900071E00E94B03666E0C8010E94F53666E050
:1015A0008E819F81DF91CF911F910F910C94F53621
:1015B0000F931F93CF93DF93EC0166E08E819F81A1
:1015C0000E94F5366BE08E819F810E94F5368C017A
:1015D00062EC71E00E94B03666E0C8010E94F53608
:1015E0006BE08E819F810E94F5368C0166E871E088
:1015F0000E94B03666E0C8010E94F5366BE08E812D
:101600009F810E94F5368C0160E671E00E94B03641
:1016100066E0C8010E94F5366BE08E819F810E94D2
:10162000F5368C0160E471E00E94B03666E0C801D6
:101630000E94F53666E08E819F81DF91CF911F91E8
:101640000F910C94F5368F929F92AF92BF92CF92EA
:10165000DF92EF92FF920F931F93CF93DF9300D00F
:1016600000D000D0CDB7DEB78C0119821A821B8260
:101670001C821E821D82C0902801D09029010E94E8
:10168000E8265C01CE0101960E94E1354C0166E03E
:10169000F801868197810E94F5366BE00E94F5364D
:1016A0007C0164EE70E00E94B0366BE0C7010E94DE
:1016B000F5367C0163E171E00E94B03666E0C70157
:1016C0000E94F5366BE00E94F5367C016FE171E017
:1016D0000E94B036B401C7010E9480356BE00E94C1
:1016E000F5367C016DE271E00E94B036B501C701AC
:1016F0000E949B377C0165E172E00E94B03648E3AE
:1017000057E160E070E0C7010E94D5376BE00E94AE
:10171000F5367C0166E371E00E94B036B601C70180
:101720000E949B3766E00E94F53666E00E94F5361F
:10173000F801868197810E94323466E0F801868143
:1017400097810E94F536F801868197810E94F231D7
:1017500026960FB6F894DEBF0FBECDBFDF91CF91B6
:101760001F910F91FF90EF90DF90CF90BF90AF90BF
:101770009F908F900895CF93DF93CDB7DEB72797D3
:101780000FB6F894DEBF0FBECDBF8C0119821A824E
:101790001B821C821E821D820FB6F8940F92E0916C
:1017A0001806F091190610860F900FBE0E940708C8
:1017B000512C412C712CA12CB12C6624639460EA2D
:1017C000262E6FE0362ED8011C968C91823009F4BB
:1017D0004FC0833020F1863009F453C1873009F4BB
:1017E000D1C0853009F4A1C06BE0F80186819781F2
:1017F0000E94F5368C016FE278E00E94B03666E018
:10180000C8010E94F5362BE088E190E00FB6F8940D
:10181000A895809360000FBE20936000FFCF8823BF
:1018200009F4FFC0813001F7F80186819781DC015E
:10183000ED91FC910480F581E02D09958111E4C3BF
:10184000F80186859785A089B1890196A11DB11DF2
:1018500086879787A08BB18B62E370E080E090E091
:101860000E94E82ED8011C968C91823009F0B1CFED
:10187000F80186819781DC01ED91FC910480F5816E
:10188000E02D0995882309F495C3F8018681978195
:10189000DC01ED91FC910680F781E02D0995482F40
:1018A00080ED840F8A3008F462C34D3209F428C3F6
:1018B0004F3709F4F1C24A3009F41AC34D3009F028
:1018C000EDC266E04110DCC1F801868197810E947B
:1018D000F5366BE00E94F5367C0165E17CE0C701DE
:1018E0000E94B036B501C7010E943A3766E00E94F7
:1018F000F536711084C1C5010197029708F404C43C
:101900006BE0D80116968D919C9117970E94F53641
:101910007C0163EE7BE0C7010E94B03666E0C70140
:101920000E94F536A12CB12C8BCFD80116968D9143
:101930009C911797DC01ED91FC910480F581E02DDD
:101940000995882309F47CCFF80186819781DC0111
:10195000ED91FC910680F781E02D0995282F8336C3
:1019600009F42AC10CF40BC18C3609F46BC382371D
:1019700009F0D4C0C8010E94070860E0C8010E94B5
:10198000ED325ECFF80186819781DC01ED91FC910B
:101990000480F581E02D0995882309F451CFF801E1
:1019A00086819781DC01ED91FC910680F781E02D25
:1019B0000995282F843609F469C50CF4E2C48337ED
:1019C00009F44BC4873709F4B3C3823799F2D801BD
:1019D0001696ED90FC901797D701ED91FC9102803F
:1019E000F381E02D62E2C7012F830995D701ED91C4
:1019F000FC910280F381E02D2F81622FC7010995B0
:101A00006BE0C7010E94F5367C016CE478E00E942F
:101A1000B0366BE0C7010E94F5367C016FE478E0D8
:101A2000A6C0F80186819781DC01ED91FC910480CC
:101A3000F581E02D0995882309F402CFF80186810C
:101A40009781DC01ED91FC910680F781E02D0995ED
:101A5000282F843609F48AC60CF056C68F3309F451
:101A6000F0C50CF4CEC5813609F49EC5833609F065
:101A700073C5C8010E94340A65E0C8010E94ED32B6
:101A8000DFCEF80186819781DC01ED91FC91048025
:101A9000F581E02D0995882309F4D2CEF8018681DD
:101AA0009781DC01ED91FC910680F781E02D09958D
:101AB000282F8C3609F461CF0CF01FC3833009F452
:101AC00001C3833609F459CFD8011696ED90FC90E6
:101AD0001797D701ED91FC910280F381E02D62E22E
:101AE000C7012F830995D701ED91FC910280F38105
:101AF000E02D2F81622FC70109956BE0C7010E947D
:101B0000F5367C016AE579E00E94B0366BE0C701EA
:101B10000E94F5367C016DE579E029C0D801169662
:101B2000ED90FC901797D701ED91FC910280F38125
:101B3000E02D62E2C7012F830995D701ED91FC9159
:101B40000280F381E02D2F81622FC70109956BE0A0
:101B5000C7010E94F5367C0168E979E00E94B03641
:101B60006BE0C7010E94F5367C016BE979E0C701A3
:101B70000E94B03666E0C7010E94F53661CE833020
:101B800069F66BE0F801868197810E94F5368C0139
:101B900068EC79E00E94B03666E0C8010E94F53634
:101BA0002BE088E190E00FB6F894A8958093600050
:101BB0000FBE20936000FFCF6BE0D80116968D9189
:101BC0009C9117970E94F5367C0166ED79E00E94A2
:101BD000B03666E0C7010E94F5360FB6F8940F9252
:101BE000E091EE05F091EF0582E080870F900FBE47
:101BF00062E0C8010E94ED3284E0782E21CEB1E08F
:101C00007B1609F406C1B2E07B1609F4E6C0B3E026
:101C10007B1609F49AC0F4E07F1609F46CC0F5E075
:101C20007F1609F43BC0B6E07B120ACEE5EBAE1698
:101C3000B10408F04AC00FB6F8940F92E091E005A5
:101C4000F091E105B186A0860F900FBE6BE0D80140
:101C500016968D919C9117970E94F5367C0164E849
:101C60007AE00E94B03666E0C7010E94F53665E072
:101C7000C8010E94ED3225E0722EA12CB12CE0CDDE
:101C8000D80116968D919C9117970E94F5366BE0BE
:101C90000E94F5367C0166E27CE021CE2FE3A2169D
:101CA00021E0B206E0F40FB6F8940F92E091E4055B
:101CB000F091E505A0860F900FBE65E0C8010E9477
:101CC000ED32712CA12CB12CBBCD6BE0F8018681DB
:101CD00097810E94F5367C0162E57AE01CCE6BE0CC
:101CE000D80116968D919C9117970E94F5367C012C
:101CF00061EB7AE010CE21E4A21626E0B20608F0ED
:101D000058C00FB6F8940F92E091E605F091E70500
:101D1000A0860F900FBE6BE0D80116968D919C9116
:101D200017970E94F5367C0165E17BE00E94B03692
:101D300066E0C7010E94F53662E0C8010E94ED32FC
:101D400035E0732EA12CB12C7BCDC501805D974071
:101D5000813D974008F037C00FB6F8940F92E0919C
:101D6000EA05F091EB05B186A0860F900FBE0FB685
:101D7000F8940F92E091E805F091E90560860F90E4
:101D80000FBE0FB6F8940F920F900FBE61E0D8010E
:101D900016968D919C9117970E941D38C8010E943C
:101DA000070860E0C8010E94ED32712CA12CB12C13
:101DB00047CD6BE0F801868197810E94F5367C0162
:101DC00063EE7AE0A8CD6BE0F801868197810E94EE
:101DD000F5367C0163E47BE09ECDE1E4AE16E6E0FF
:101DE000BE0608F04DC00FB6F8940F92E0911206AF
:101DF000F0911306B186A0860F900FBE0FB6F8942F
:101E00000F92E0911006F091110660860F900FBEC0
:101E1000C5CFE1E4AE16E6E0BE0630F5442019F089
:101E2000B194A194B1080FB6F8940F92E091160600
:101E3000F0911706B186A0860F900FBE0FB6F894EA
:101E40000F92E0911406F091150660860F900FBE78
:101E5000C8010E94070860E0C8010E94ED32412CD1
:101E6000712CA12CB12CECCC6BE0D80116968D9185
:101E70009C9117970E94F5367C016CEA7BE04BCD74
:101E80006BE0D80116968D919C9117970E94F536BC
:101E90007C0169E77BE03FCD511040C0D801169628
:101EA000ED90FC901797D701ED91FC910280F381A2
:101EB000E02D62E2C7014F830995D701ED91FC91B6
:101EC0000280F381E02D4F81642FC70109956BE0FB
:101ED000C7010E94F5367C0162E27AE00E94B036CA
:101EE0006BE0C7010E94F5367C0165E27AE013CD14
:101EF00067E172E0F801868197810E94B036A0CC3C
:101F0000F80186819781DC01ED91FC910280F381DB
:101F1000E02D6DE209954424439492CCF80186812A
:101F20009781DC01ED91FC910280F381E02D6FE758
:101F30000995F80186819781DC01ED91FC91028081
:101F4000F381E02D60E20995F80186819781DC013B
:101F5000ED91FC910280F381E02D6FE70995C501B9
:101F60006AE070E00E94D2425B015A9469CCF801A9
:101F700086819781DC01ED91FC910280F381E02D57
:101F8000642F4F8309959501220F331FAA0CBB1CA8
:101F9000AA0CBB1CAA0CBB1C2A0D3B1D4F81A42EF6
:101FA000BB24A7FCB094B0E3AB1AB108A20EB31ED9
:101FB000539446CC80911A0690911B06DC01ED915A
:101FC000FC910480F581E02D0995882309F438CC33
:101FD000D8011696ED91FC9117970190F081E02DB4
:101FE000E280F38080911A0690911B06DC01ED914E
:101FF000FC910680F781E02D0995682FF801868114
:102000009781F70109951CCCF80186819781DC0145
:10201000ED91FC910680F781E02D0995282F8237FC
:1020200009F4A8CC0CF05BC3833009F43DC38436BB
:1020300009F010C3D80116968D919C9117970E94B4
:102040004C33FECB6BE0F801868197810E94F53618
:102050007C016CEF79E00E94B03666E0C7010E9417
:10206000F5360FB6F8940F92E091DC05F091DD059E
:10207000808591850F900FBE0FB6F8940F92E09176
:10208000DE05F091DF05918780870F900FBE0FB6B8
:10209000F8940F92E091EE05F091EF0560860F90B5
:1020A0000FBE0FB6F8940F92E091E205F091E305B0
:1020B00060860F900FBE62E0C8010E94ED3296E08C
:1020C000792EBECB6BE0F801868197810E94F536B0
:1020D0008C016AE879E00E94B03666E0C8010E948F
:1020E000F5362BE088E190E00FB6F894A895809340
:1020F00060000FBE20936000FFCF803709F43DCC15
:10210000823709F437CCE0CC0FB6F8940F92E09107
:102110001806F0911906A0860F900FBEC8010E9404
:10212000660963E0C8010E94ED32A12CB12C88CB76
:102130004091F8055091F9050FB6F8940F920F9061
:102140000FBEFA0180859185A285B3858896A11D71
:10215000B11D0FB6F8940F92FA0180879187A2877C
:10216000B3870F900FBE0FB6F8940F920F900FBE6B
:102170008E33F1E09F07A105B10594F00FB6F894F6
:102180000F928EE391E0A0E0B0E0FA0180879187A2
:10219000A287B3870F900FBE8EE391E0A0E0B0E07E
:1021A0000FB6F8940F920F900FBE0FB6F8940F92DF
:1021B0002091F6053091F705F90180879187A28774
:1021C000B3870F900FBE0FB6F8940F92DA011896EE
:1021D000CD90DD90ED90FC901B970F900FBE6BE0C3
:1021E000F801868197810E94F5364C016FE379E012
:1021F0000E94B036B701A601C4010E94693766E0AB
:102200000E94F5360FB6F8940F92E091EA05F0912E
:10221000EB05E084F1840F900FBE6BE0D8011696B9
:102220008D919C9117970E94F5366C0166E279E0DA
:10223000C6010E94B036B701C6010E949B3766E016
:102240000E94F53666E0F801868197810E94F53696
:1022500067E0C8010E94ED32F3CAE091F805F09101
:10226000F9050FB6F8940F920F900FBE4085518577
:102270006285738548525109610971090FB6F89456
:102280000F9240875187628773870F900FBE0FB6FA
:10229000F8940F920F900FBE423C2EEF52072FEF93
:1022A000620772078CF00FB6F8940F9282EC9EEFE3
:1022B000AFEFBFEF80879187A287B3870F900FBEE4
:1022C00042EC5EEF6FEF7FEF0FB6F8940F920F9036
:1022D0000FBE0FB6F8940F92A091F605B091F705D6
:1022E00018964D935D936D937C931B970F900FBE43
:1022F0000FB6F8940F92C084D184E284F3840F90D7
:102300000FBE6BE0D80116968D919C9117970E9495
:10231000F5364C016BE079E00E94B036B701A601BA
:10232000C4010E94693766E00E94F5360FB6F89442
:102330000F92E091EA05F091EB05E084F1840F90B3
:102340000FBE6BE0F801868197810E94F5366C0123
:1023500062EF78E0C6010E94B036B701C6010E9464
:102360009B3766E00E94F53666E0D80116968D919F
:102370009C9117970E94F53667E0C8010E94ED32E4
:102380005FCA833009F467C0813609F020CBE09141
:10239000EA05F091EB050FB6F8940F920F900FBE7F
:1023A000808591858C599F4F0FB6F8940F92918735
:1023B00080870F900FBE0FB6F8940F920F900FBE4C
:1023C000803A9F4038F00FB6F8940F9231862086FD
:1023D0000F900FBE0FB6F8940F92E091E805F091C0
:1023E000E90560860F900FBE0FB6F8940F92E0914A
:1023F000F805F091F905C084D184E284F3840F904C
:102400000FBE6BE0F801868197810E94F5364C0182
:1024100067ED78E00E94B036B701A601C4010E94C2
:10242000693766E00E94F5360FB6F8940F92E09196
:10243000EA05F091EB05E084F1840F900FBE6BE0AC
:10244000D80116968D919C9117970E94F5366C01D4
:102450006EEB78E0EDCE6BE0F801868197810E940B
:10246000F5368C016CE778E00E94B03666E0C80172
:102470000E94F5362BE088E190E00FB6F894A8951D
:10248000809360000FBE20936000FFCFE091EA05CB
:10249000F091EB050FB6F8940F920F900FBE808568
:1024A0009185845691090FB6F8940F929187808791
:1024B0000F900FBE0FB6F8940F920F900FBE813D94
:1024C000974048F40FB6F8940F9280ED97E091870B
:1024D00080870F900FBE0FB6F8940F92E091E80539
:1024E000F091E90560860F900FBE0FB6F8940F9239
:1024F000E091F805F091F905C084D184E284F38479
:102500000F900FBE6BE0D80116968D919C91179796
:102510000E94F5364C0163EA78E00E94B036B701BC
:10252000A601C4010E94693766E00E94F5360FB625
:10253000F8940F92E091EA05F091EB05E084F184C4
:102540000F900FBE6BE0F801868197810E94F536EF
:102550006C016AE878E0FECEF801E680F780D701EA
:10256000ED91FC910280F381E02D62E2C7012F839F
:102570000995D701ED91FC910280F381E02D2F8127
:10258000622FC70109956BE0C7010E94F5367C01F7
:1025900066E77CE00E94B0366BE0C7010E94F5362A
:1025A0007C0169E77CE0E3CAE091EE05F091EF057C
:1025B0000FB6F8940F9280850F900FBE882309F410
:1025C000B7C00FB6F8940F920F900FBE813009F08C
:1025D00037C90FB6F8940F9210860F900FBE6BE0BC
:1025E000D80116968D919C9117970E94F5367C0123
:1025F00060EE7CE00E94B03666E0C7010E94F536CE
:10260000B9C9833009F0A8CF6BE0D80116968D9137
:102610009C9117970E94F5368C0166EA7CE00E9437
:10262000B03666E0C8010E94F5362BE088E190E004
:102630000FB6F894A895809360000FBE20936000B9
:10264000FFCFC8010E94FF0861E0C8010E94ED327F
:102650000C94200CD8011696ED90FC901797D7019A
:10266000ED91FC910280F381E02D62E2C7012F839E
:102670000995D701ED91FC910280F381E02D2F8126
:10268000622FC70109956BE0C7010E94F5367C01F6
:1026900068E37CE00E94B0366BE0C7010E94F5362B
:1026A0007C016BE37CE063CA6BE0F8018681978173
:1026B0000E94F5368C0168E67CE00E94B03666E048
:1026C000C8010E94F5362BE088E190E00FB6F8943F
:1026D000A895809360000FBE20936000FFCF8337E2
:1026E00009F463C0843709F0B5CFCE0101960E948A
:1026F000E135BC01F801868197810E94803566E052
:102700000E94F5360C94200C8D3609F45FC00CF451
:1027100051C0823709F42EC9833709F01DCFC80193
:102720000E94DB0964E0C8010E94ED320C94200C89
:102730000FB6F8940F9260860F900FBE6BE0F80111
:10274000868197810E94F5367C0168EF7CE00E94CB
:10275000B03666E0C7010E94F536C8010E94D80A6B
:1027600064E0C8010E94ED320C94200CC8010E9464
:102770007C080FB6F8940F92E0911406F0911506BC
:1027800083E080870F900FBE0FB6F8940F92E09110
:10279000E805F091E90582E080870F900FBE67E0C1
:1027A000C8010E94ED320C94200CC8010E94230B3A
:1027B0000C94200C883609F0CFCEC8010E948D0AF7
:1027C00066E0C8010E94ED320C94200C6BE0F80129
:1027D000868197810E94F5367C0164EB7CE00E9443
:1027E000B03666E0C7010E94F5360FB6F8940F9236
:1027F000E0911806F091190610860F900FBE62E066
:10280000C8010E94ED32712CA12CB12C0C94200C2B
:10281000CF93DF93CDB7DEB728970FB6F894DEBF1E
:102820000FBECDBF6C010E94E12C69837A838B833C
:102830009C8383E090E00E9479363C01F60166813A
:10284000778141E00E94AD1983E090E00E947936E3
:102850002C01F6016681778142E00E94AD190FB626
:10286000F8940F92E0911406F091150610860F90DF
:102870000FBE82E090E00E9479364C01F60166813D
:10288000778147E00E942E1A82E090E00E9479361C
:102890005C01F6016681778143E00E942E1A312C9B
:1028A000212C40E050E02CC00FB6F8940F920F900E
:1028B0000FBE833009F4C8C00FB6F8940F920F9082
:1028C0000FBEE0910E06F0910F068085813009F46D
:1028D0008DC0F60186859785A089B1890196A11DD5
:1028E000B11D86879787A08BB18B4AE050E060E0EE
:1028F00070E0CE0101960E94812EA701302E212E7C
:10290000E0910C06F0910D060FB6F8940F928085B9
:10291000918598878F830F900FBEEF80F884E091A8
:102920000A06F0910B060FB6F8940F9280859185F8
:102930009E838D830F900FBE0D811E81B701C40150
:102940000E94D81AE0910006F09101060FB6F894A3
:102950000F9260877187828793870F900FBE432DF8
:10296000522DB801C5010E94D81AE091FE05F091E0
:10297000FF050FB6F8940F9260877187828793875F
:102980000F900FBE0FB6F8940F92E0911406F091DD
:10299000150680850F900FBE813009F085CF0FB6E8
:1029A000F8940F920F900FBEE091F405F091F505A9
:1029B00060857185C3010E94EF190FB6F8940F92DC
:1029C0000F900FBEE091F205F091F30560857185DF
:1029D000C2010E94EF190FB6F8940F92E09114060D
:1029E000F091150610860F900FBE66CFC3010E94AE
:1029F0001E1AC2010E941E1A0FB6F8940F92E0919F
:102A00001406F091150683E080870F900FBE0FB675
:102A1000F8940F92E0910E06F0910F0610860F9039
:102A20000FBE6BE0F601868197810E94F5361C018E
:102A300060E17DE00E94B03666E0C1010E94F5369B
:102A400066E00E94F53645CF60E070E0C3010E9469
:102A5000EF1960E070E0BCCF0F931F93CF93DF932B
:102A6000EC010E94373285E292E099838883DF91FE
:102A7000CF911F910F910895CF93DF93CDB7DEB71C
:102A8000CC54D1090FB6F894DEBF0FBECDBF1C01E8
:102A90000E94E12C28966CAF7DAF8EAF9FAF289738
:102AA0008FE190E00E9479363C01D10116966D913C
:102AB0007C9117970E94271F8FE190E00E94793642
:102AC0004C01F101668177810E94271F8FE190E020
:102AD0000E9479362C01D10116966D917C91179741
:102AE0000E94271FE0910006F09101060FB6F894AE
:102AF0000F9210861186128613860F900FBE0FB6A6
:102B0000F8940F92E091F805F091F905108611867E
:102B1000128613860F900FBE82E08B8F80E0B82E56
:102B20008C8F84E08D8F80E091E0D82E8E8F9F8FE8
:102B300019A218A2182F8AA39BA380EC382F8CA36C
:102B400089EF8DA380E4582F8EA386E08FA382E0C7
:102B5000A82E94E0C92EEE24E394F12C09A121E0E3
:102B600049EF66E0C3010E94611FE091FE05F0910C
:102B7000FF050FB6F8940F92108611861286138601
:102B80000F900FBE0FB6F8940F92E091F605F091FA
:102B9000F70510861186128613860F900FBEB2E0DD
:102BA000BE871F86E4E0E88B70E0D72E798BF1E0DA
:102BB000FA8B1C8A1B8A172F7D8BFE8B80EC382F9B
:102BC0008F8B89EF888F80E4582F898F86E08A8FDA
:102BD0000C8921E049EF66E0C4012B967FAF2B976B
:102BE0000E94611FA9821A8224E02B832B967FAD5D
:102BF0002B97D72E7C8331E03D831F821E82172FB7
:102C00007887398780ED382F8A8787E08B8780EA3D
:102C1000582F8C878FE08D870F8121E047E06FE090
:102C2000C2010E94611F2A961FAE1EAE2A97412C38
:102C3000512CCE01805C9F4F5C0111E0A4C057FD78
:102C400016C2892B09F4A5C1E0910006F091010696
:102C50000FB6F8940F9280859185A285B38588AFD1
:102C600099AFAAAFBBAF0F900FBE68AD79AD8AAD7B
:102C70009BAD4EE351E0C3010E9499200FB6F8943A
:102C80000F92E091F405F091F505918780870F9000
:102C90000FBE0FB6F8940F92E0911406F09115064E
:102CA00010870F900FBE0FB6F8940F92E091F605C3
:102CB000F091F70540855185628573850F900FBEB1
:102CC000CA019A01225C3E4F2D37324008F48EC073
:102CD00057FDB5C1892B09F44CC1E091FE05F09177
:102CE000FF050FB6F8940F9280859185A285B38574
:102CF0008CA79DA7AEA7BFA70F900FBE6CA57DA503
:102D00008EA59FA54EE351E0C4010E9499200FB605
:102D1000F8940F92E091F205F091F3059187808786
:102D20000F900FBE0FB6F8940F92E0911406F09139
:102D3000150610870F900FBEE091EE05F091EF059C
:102D40000FB6F8940F920F900FBE8085813009F472
:102D500064C00FB6F8940F920F900FBEF1018685F4
:102D60009785A089B1890196A11DB11D8687978796
:102D7000A08BB18B4AE050E060E070E0CE018C5B4C
:102D80009F4F0E94812E0FB6F8940F92E091F805A4
:102D9000F091F90540855185628573850F900FBECE
:102DA000CA019A01225C3E4F2D37324008F047CFCE
:102DB000E0910006F09101060FB6F8940F9280851D
:102DC0009185A285B385F50180839183A283B38326
:102DD0000F900FBE9E01205C3F4F590124968CAD91
:102DE0009DADAEADBFAD2497BC0145CFE091FE05D2
:102DF000F091FF050FB6F8940F9280859185A2851A
:102E0000B3858CAB9DABAEABBFAB0F900FBE8CA9A7
:102E10009DA9AEA9BFA9BC0177CF0FB6F8940F92B8
:102E20000F900FBEA091E405B091E50518964C9166
:102E300050E060E070E08091F8059091F9050FB6E0
:102E4000F8940F92DC0118964D935D936D937C93EB
:102E50001B970F900FBE0FB6F8940F920F900FBEF6
:102E60002091F6053091F7052D963FAF2EAF2D97A7
:102E70000FB6F8940F92D90118964D935D936D9308
:102E80007C931B970F900FBE209100063091010696
:102E90000FB6F8940F92D90118964D915D916D91EE
:102EA0007C911B9748A759A76AA77BA70F900FBED5
:102EB00048A559A56AA57BA5E090E205F090E30539
:102EC0000FB6F8940F920F900FBED70118962C9161
:102ED000213009F4E4C02091EA053091EB0557FC5C
:102EE0006AC06A017B012A96EEADFFAD2A97CE0E2D
:102EF000DF1EE11CF11C2A96DFAECEAE2A970FB67C
:102F0000F8940F920F900FBE0FB6F8940F920F9097
:102F10000FBE0FB6F8940F920F900FBEE091DC0534
:102F2000F091DD0540855185E091DE05F091DF05EA
:102F300060857185D90118968D919C9119970E9491
:102F400017260FB6F8940F92E091EA05F091EB0581
:102F5000918780870F900FBE0FB6F8940F92E09183
:102F6000E805F091E90510870F900FBE4C185D0839
:102F7000F5CE6BE0F101868197810E94F5367C01E8
:102F80006AE17DE00E94B03666E0C7010E94F53636
:102F9000D3CE6BE0D10116968D919C9117970E942C
:102FA000F5367C0166E27DE00E94B03666E0C7013E
:102FB0000E94F53678CE0FB6F8940F9210860F90D7
:102FC0000FBE0FB6F8940F92E0910E06F0910F0627
:102FD00010870F900FBE0FB6F8940F92FC01108669
:102FE0001186128613860F900FBE0FB6F8940F92BB
:102FF0002D96AEADBFAD2D9718961D921D921D92C8
:103000001C921B970F900FBE0FB6F8940F9288EB8F
:103010009BE0F901918780870F900FBE0FB6F8945F
:103020000F92E091E805F091E90510870F900FBE2F
:103030002A961FAE1EAE2A97412C512C8FCEE091BE
:10304000FE05F091FF050FB6F8940F9280859185EB
:10305000A285B38588AB99ABAAABBBAB0F900FBE73
:1030600068A979A98AA99BA942EC5EEF4DCEE091AF
:103070000006F09101060FB6F8940F9280859185B5
:10308000A285B3858CAF9DAFAEAFBFAF0F900FBE23
:103090006CAD7DAD8EAD9FAD42EC5EEFECCDC090E2
:1030A000EA05D090EB050FB6F8940F9228EB3BE0C1
:1030B000D60119963C932E9318970F900FBE0FB61A
:1030C000F8940F92DC0118961D921D921D921C928D
:1030D0001B970F900FBE0FB6F8940F922D96AEADC2
:1030E000BFAD2D9718961D921D921D921C921B9795
:1030F0000F900FBE0FB6F8940F920F900FBE209155
:10310000E0053091E105D90118962D913C91199770
:10311000A4E6B1E02A9F20012B9F500C3A9F500C4F
:1031200011240FB6F8940F92D70118961C920F90A5
:103130000FBE9601D4CE0F931F93CF93DF93EC0174
:103140000E9437328DE292E099838883DF91CF919C
:103150001F910F910895CF93DF9300D000D0CDB78A
:10316000DEB78C010E94E12C69837A838B839C8378
:1031700082E090E00E9479365C01F80166817781F7
:103180000E942F1D82E090E00E9479366C01F801C8
:10319000668177810E942F1D84E090E00E9479363D
:1031A0007C01F801668177810E94621C4AE061E03F
:1031B000C5010E94621D4AE062E0C6010E94621DD4
:1031C000C7010E94A51C61E0C7010E94B61CE091E6
:1031D000DC05F091DD050FB6F8940F92208531855E
:1031E0000F900FBE0FB6F8940F92918780870F90C3
:1031F0000FBE0FB6F8940F920F900FBE0FB6F89453
:103200000F92E091DA05F091DB05821B930B918719
:1032100080870F900FBEF80186859785A089B189B8
:103220000196A11DB11D86879787A08BB18B4AE0BF
:1032300050E060E070E0CE0101960E94812EB6CF92
:103240000F931F93CF93DF93EC010E94373285E3F6
:1032500092E099838883DF91CF911F910F91089518
:10326000CF93DF9300D000D0CDB7DEB78C010E94A2
:10327000E12C69837A838B839C8382E090E00E94B7
:1032800079367C01F801668177810E94FE1C82E01C
:1032900090E00E9479366C01F801668177810E9486
:1032A0002F1D4AE060E0C6010E94621D9695879539
:1032B000BC01675C744F0FB6F8940F92E091EA0579
:1032C000F091EB05718760870F900FBE0FB6F894F1
:1032D0000F920F900FBEC7010E94141D4AE060E0DC
:1032E000C6010E94621D0FB6F8940F920F900FBE98
:1032F000E091EA05F091EB05608571856F577109E2
:1033000096958795680F791FC7010E94141DF801D3
:1033100046855785608971894F5F5F4F6F4F7F4F3B
:1033200046875787608B718B4AE050E060E070E021
:10333000CE0101960E94812ED1CF0F931F93CF9380
:10334000DF93EC010E9437328DE392E0998388830A
:10335000DF91CF911F910F910895CF93DF93FC01DF
:1033600071836083428380918000826A80938000B1
:10337000809180008093800080918100896180939A
:103380008100809181008093810080E496E0909399
:103390008700809386008281813089F08230B9F085
:1033A000C081D181209781F061E472E0CE010E945A
:1033B000B03666E0CE01DF91CF910C94F53687B13F
:1033C000876087B9329A269ADF91CF9108958AB1A2
:1033D000806E8AB94F9A259ADF91CF910895FC01AA
:1033E0002281213071F0223009F0089577FD18C054
:1033F0008BB18BB95E985D9A709389006093880059
:10340000089528B128B977FD13C04198409A709368
:103410008B0060938A00FC018281823049F3089519
:103420008BB18BB95E9A5D98719561957109E4CF06
:10343000419A4098719561957109E9CFFC0122810B
:10344000213039F0223009F008958BB180668BB9B4
:10345000089528B1236028B92281F4CFCF93DF9358
:10346000E0910C06F0910D060FB6F8940F921186BC
:1034700010860F900FBEE0910A06F0910B060FB672
:10348000F8940F92118610860F900FBEE0910806F7
:10349000F09109060FB6F8940F9210860F900FBEA8
:1034A000E0910606F09107060FB6F8940F92108689
:1034B0000F900FBEE0910406F09105060FB6F89448
:1034C0000F9210860F900FBEE0910206F091030656
:1034D0000FB6F8940F9210860F900FBE60916A009D
:1034E000242F30E081E090E0FC01042E01C0EE0FBB
:1034F0000A94EAF75E2F5095562350936A00509134
:103500006A00B90161507109DC0102C0AA0FBB1F3A
:103510006A95E2F7BD015A2B50936A0050916A00F8
:10352000D9011297EC0102C0CC0FDD1FAA95E2F77A
:10353000DE01A095A523A0936A0050916A00D901ED
:103540001397EC0102C0CC0FDD1FAA95E2F75C2BAC
:1035500050936A00473029F1433061F08DB18F708C
:103560008DB98DB18F608DB98EB1806F8EB9DF91BD
:10357000CF9108956DB3A9014E5F5F4FFC0102C06A
:10358000EE0FFF1F4A95E2F76E2B6DBB4DB32F5F19
:103590003F4F022E01C0880F0A94EAF7482B4DBB1B
:1035A000DDCF8DB38E2B8DBB8DB3862B8DBBD6CF50
:1035B000461B570BBA0180E090E008951F920F92CE
:1035C0000FB60F9211240BB60F928F939F93AF9368
:1035D000BF93EF93FF93CF93DF93CDB7DEB72597DC
:1035E000DEBFCDBFE0910606F09107060FB6F89456
:1035F0000F9280858D830F900FBE8D81A09108065C
:10360000B09109060FB6F8940F9218968C931897FC
:103610000F900FBE9CB18CB180729071892B90E09D
:103620009595879595958795959587959595879582
:103630000FB6F8940F9280870F900FBE18968C915A
:10364000813009F454C008F442C0823039F183302B
:1036500089F48085813009F451C08085823009F079
:103660003CC0E0910C06F0910D0680859185019794
:10367000918780870F900F900F900F900F90DF91A0
:10368000CF91FF91EF91BF91AF919F918F910F904B
:103690000BBE0F900FBE0F901F9018958085833042
:1036A00069F18085811119C0E0910C06F0910D0639
:1036B0000FB6F8940F92808591859A8389830F9035
:1036C0000FBE89819A81019791878087D3CF8085AA
:1036D0008230A1F080858130D9F0E091FC05F09135
:1036E000FD0580859185019691878087C3CF808570
:1036F000882321F08085833081F7B3CFE0910C06D9
:10370000F0910D0680859185019691878087B2CFD3
:10371000E0910C06F0910D060FB6F8940F9280859B
:1037200091859C838B830F900FBE8B819C81019729
:10373000918780879FCF0C94DE1A1F920F920FB64D
:103740000F9211240BB60F928F939F93AF93BF9359
:10375000EF93FF93E0910206F09103068085A0911C
:103760000406B091050618968C9318979CB18CB1FD
:1037700080789074892B90E0082E892F000C881F88
:10378000990B000C881F991F808718968C918130A7
:10379000C1F138F1823049F08330B1F48085813055
:1037A000B9F18085823019F506C08085833081F1BA
:1037B000808581111CC0E0910A06F0910B0680857E
:1037C0009185019791878087FF91EF91BF91AF918C
:1037D0009F918F910F900BBE0F900FBE0F901F9077
:1037E000189580858230A1F08085813021F3E091A9
:1037F000FA05F091FB058085918501969187808778
:10380000E3CF8085882321F08085833081F7D3CF73
:10381000E0910A06F0910B068085918501969187CB
:103820008087D2CF0C949D1BCF93DF93EC01262F82
:103830004DE360E58A819B810E946A246BE0888168
:1038400099810E94F536EC0168E67DE00E94B03671
:1038500066E0CE01DF91CF910C94F536CF93DF93E4
:10386000EC01262F4EE360E58A819B810E946A2449
:103870006BE0888199810E94F536EC0165E57DE079
:103880000E94B03666E0CE01DF91CF910C94F53600
:10389000CF93DF93EC0120E04BE360E58A819B81CD
:1038A0000E946A246BE0888199810E94F536EC01C0
:1038B00067E47DE00E94B03666E0CE01DF91CF91F3
:1038C0000C94F5360F931F93CF93DF93EC0179831C
:1038D000688384E090E00E9479368C016881798168
:1038E0000E94EB211B830A8340E060E5C8010E942F
:1038F000D9226BE0803A09F1888199810E94F536DE
:103900008C0166EA7DE0C8010E94B03666E0C8011D
:103910000E94F53660E0CE010E94141C60E0CE01EA
:103920000E942E1CCE010E94481C6CE0CE01DF914B
:10393000CF911F910F910C94141C888199810E9442
:10394000F5368C016FE77DE0DECFCF93DF93EC019E
:1039500049E360E58A819B810E94D92246E360E5C4
:103960008A819B81DF91CF910C94D9221F93CF93B1
:10397000DF93EC01613081F16230B9F16330A9F07D
:103980006BE0888199810E94F536EC0162E37DE06D
:103990000E94B03666E0CE010E94F53620E030E0AD
:1039A000C901DF91CF911F9108954FE160E58A81B0
:1039B0009B810E94D922182F4EE160E58A819B816C
:1039C0000E94D922212F30E0322F2227282BC90133
:1039D000DF91CF911F9108954BE160E58A819B8132
:1039E0000E94D922182F4AE1E8CF4DE160E58A8193
:1039F0009B810E94D922182F4CE1DFCFE0E9F0E053
:103A000080818268808380818083E1E9F0E0808129
:103A10008A6180838081808380E49CE99093970011
:103A2000809396006B9A0895603D87E0780780F058
:103A3000613A8FE0780728F47093990060939800BA
:103A4000089560EA7FE0709399006093980008956C
:103A500060ED77E070939900609398000895FC0101
:103A600071836083EAE7F0E08081806880838081F1
:103A70008160808380818D7F80838081846080836A
:103A8000ECE7F0E080818064808380818F778083A1
:103A9000089580917C00887F80937C0080917C00D9
:103AA0006770682B60937C0080917A0080648093BB
:103AB0007A0080917A0086FDFCCF80917800909109
:103AC00079000895403430F1ECE3F0E04CE36770A6
:103AD00080E090E020917C00287F20937C00209162
:103AE0007C00262B20937C0020917A002064209378
:103AF0007A0020917A0026FDFCCF20917800309149
:103B00007900820F931F415029F7BF010E94BE42E6
:103B1000CB010895442319F0E42FF0E0D8CFE0E082
:103B2000F0E080E090E0BF010E94BE42CB0108952A
:103B30002F923F924F925F926F927F928F929F92BD
:103B4000AF92BF92CF92DF92EF92FF920F931F93AB
:103B5000CF93DF9300D000D000D0CDB7DEB79E83E7
:103B60008D8380917C00887F80937C0080917C0095
:103B7000876080937C0080917A00806480937A00D3
:103B800080917A0086FDFCCF2091780030917900F9
:103B900080917C00887F80937C0080917C0086608F
:103BA00080937C0080917A00806480937A00809179
:103BB0007A0086FDFCCF20907800309079008091CB
:103BC0007C00887F80937C0080917C00856080935E
:103BD0007C0080917A00806480937A0080917A00E2
:103BE00086FDFCCF409078005090790080917C0059
:103BF000887F80937C0080917C00846080937C002F
:103C000080917A00806480937A0080917A0086FDAA
:103C1000FCCF009178001091790080917C00887F22
:103C200080937C0080917C00836080937C008091F5
:103C30007A00806480937A0080917A0086FDFCCFC0
:103C4000E0907800F090790080917C00887F8093EC
:103C50007C0080917C00826080937C0080917A005F
:103C6000806480937A0080917A0086FDFCCFC090BA
:103C70007800D090790080917C00887F80937C00D0
:103C800080917C00816080937C0080917A008064C8
:103C900080937A0080917A0086FDFCCFA090780016
:103CA000B090790080917C00887F80937C00809127
:103CB0007C0080937C0080917A00806480937A00FD
:103CC00080917A0086FDFCCF8090780090907900FA
:103CD00040917C0050917A006BE08D819E812B8316
:103CE0003C834A8359830E94F5363C016CEC7DE0AD
:103CF0000E94B0365981652FC3010E941D3866E0CD
:103D00000E94F5366BE00E94F5363C0165ED7DE0E2
:103D10000E94B0364A81642FC3010E941D3866E0BC
:103D20000E94F5366BE00E94F5363C016DED7DE0BA
:103D30000E94B036B401C3010E949B3766E00E9426
:103D4000F5366BE00E94F5364C0165EE7DE00E9491
:103D5000B036B501C4010E949B3766E00E94F5367B
:103D60006BE00E94F5365C016DEE7DE00E94B0369E
:103D7000B601C5010E949B3766E00E94F5366BE0F4
:103D80000E94F5366C0165EF7DE00E94B036B70108
:103D9000C6010E949B3766E00E94F5366BE00E94E8
:103DA000F5367C016DEF7DE00E94B036B801C701A9
:103DB0000E949B3766E00E94F5366BE00E94F53664
:103DC0008C0165E07EE00E94B036B201C8010E941D
:103DD0009B3766E00E94F5366BE00E94F5368C0159
:103DE0006DE07EE00E94B036B101C8010E949B37B1
:103DF00066E00E94F5366BE00E94F5368C0165E1C5
:103E00007EE00E94B0362B813C81B901C8010E943E
:103E10009B3766E00E94F5368D819E8126960FB60F
:103E2000F894DEBF0FBECDBFDF91CF911F910F91F0
:103E3000FF90EF90DF90CF90BF90AF909F908F90CA
:103E40007F906F905F904F903F902F900895CF9309
:103E5000DF93EC01DC016D937D938DE0E8E0F2E00F
:103E600001900D928A95E1F7188A1F861A8A198A9D
:103E70001C8A1B8A1E8A1D8A188E1F8A1C8E1B8E06
:103E8000DF91CF910895FC016283148E138E089503
:103E9000CF93DF93EC01CB016F857889788F6F8B9F
:103EA000988B8F870E9470219A8F898FDF91CF9195
:103EB0000895FC01728B618B0895FC01748B638BF8
:103EC0000895AF92BF92CF92DF92EF92FF920F933D
:103ED0001F93CF93DF93CDB7DEB72D970FB6F8942E
:103EE000DEBF0FBECDBFA982BA82CB82DC82ED825B
:103EF000FE820F83188729873A874B875C876D87F7
:103F00002DE0FE013196DC01129601900D922A956A
:103F1000E1F7FC01148E138E2D960FB6F894DEBFD8
:103F20000FBECDBFDF91CF911F910F91FF90EF900A
:103F3000DF90CF90BF90AF900895FC0174836383AE
:103F40000895FC01768365830895FC01708767837B
:103F50000895FC01728761870895FC017487638767
:103F6000568745870895FC0182810895FC01878565
:103F700090890895FC01818992890895FC018389C3
:103F8000948908952DE0FB013296DC0101900D9299
:103F90002A95E1F70895FC01858196810895FC0139
:103FA000838194810895FC01878190850895FC01A7
:103FB000818592850895FC01838594850895FC018F
:103FC0008585968508950F931F93CF93DF93EC011A
:103FD0008F8598892B893C89821B930B9E8B8D8BB7
:103FE0006D8D7E8D89859A850E94BA2140E054E0CE
:103FF0000E94CC218C016D897E898B8D9C8D0E94C5
:104000005321B8010E9470219C8F8B8F8A8183304D
:1040100009F472C090F5813009F463C0823009F070
:1040200044C06D897E898B819C810E94BA2140E0C9
:1040300054E00E94CC218C016B8D7C8D8D819E8102
:104040000E94BA2140E054E00E94CC21B8010E94B5
:1040500053216D857E8568177907D4F06B857C8543
:10406000861797070CF458C01E8E1D8E9A8B898B6D
:10407000DF91CF911F910F9108958430C9F0853061
:10408000A1F489899A896D857E856817790734F747
:104090000E9470219E8F8D8F8D859E85898B9A8B36
:1040A000DF91CF911F910F91089580E090E0D1CFE3
:1040B0006D897E898B819C810E94BA2140E054E009
:1040C0000E94CC218C01698D7A8D8F8198850E9408
:1040D000BA2140E054E00E94CC21B8010E94532153
:1040E000AACF6D897E898B819C810E94BA2140E094
:1040F00054E00E94CC21ADCF6D897E898B819C815B
:104100000E94BA2140E054E00E94CC218C01698DCC
:104110007A8D8F81988594CF0E9470219E8F8D8F8C
:104120008B859C85898B9A8BDF91CF911F910F9105
:1041300008950F931F93CF93DF93EC01CB018A0176
:104140006F857889788F6F8B988B8F870E9470210D
:104150009A8F898F1C8B0B8BCE01DF91CF911F9192
:104160000F910C94E31F4F925F926F927F928F9208
:104170009F92AF92BF92CF92DF92EF92FF920F93F6
:104180001F93CF93DF93EC01FB014184528467803E
:10419000708403811481E580F680C584D684A3846D
:1041A000B4848280912C62E772E00E94B03662E0B3
:1041B000CE010E94F536B4010E943A3766E00E94B3
:1041C000F5364C016DE772E00E94B03662E0C40142
:1041D0000E94F536B5010E943A375C016AE872E048
:1041E0000E94B03662E0C5010E94F536B6010E9419
:1041F0003A3766E00E94F5366C016FE872E00E9483
:10420000B03666E0C6010E94F5366C0166E972E0E0
:104210000E94B03662E0C6010E94F536B7010E94E6
:104220003A3766E00E94F5367C0162EA72E00E944D
:10423000B03662E0C7010E94F536B8010E943A37F5
:1042400066E00E94F5368C016EEA72E00E94B0369C
:1042500062E0C8010E94F536B3010E943A3766E079
:104260000E94F5368C016AEB72E00E94B03662E083
:10427000C8010E94F536B2010E943A3766E00E94FA
:10428000F536CE01DF91CF911F910F91FF90EF9006
:10429000DF90CF90BF90AF909F908F907F906F9066
:1042A0005F904F9008959C01432F4095441F4427F1
:1042B000441F80E090E8841B9109AC01421B530B22
:1042C000E1E0461757070CF0E0E0432F4095441F0C
:1042D0004427441FE41719F0C901860F971F08955A
:1042E0008617970799F1611520E8720741F17195DA
:1042F00061957109492F4095441F4427441F20E0D0
:1043000030E8241B3109A901481B590BE1E046178D
:10431000570764F4492F4095441F4427441FE4176E
:1043200019F0860F971F0895C9010895E0E0492FFD
:104330004095441F4427441FE417B1F3F2CF97FD83
:1043400003C06FEF7FE7D6CF0196FBCF80E090E010
:104350000895811520E8920729F09C0197FD05C07A
:10436000C90108958FEF9FE708953195219531098F
:10437000C9010895811520E8920729F09C01DB010D
:104380000E9485420895611520E87207B9F76FEF22
:104390007FEF8FEF9FE708959A01442737FD4095FF
:1043A000542F0E940843211580E838074105510524
:1043B00024F02FEF3FE740E050E0DA01C90181151A
:1043C00020E892072FEFA207B20724F480E090E8DC
:1043D000AFEFBFEF0895CF93DF93EC01798368834C
:1043E00088E48093B80081E00E94E8289B838A8358
:1043F000892B19F0DF91CF9108950990D881C02DB4
:104400002097C1F36CE475E0CE010E94B03666E0FF
:10441000CE01DF91CF910C94F53684EA8093BC00F5
:104420008091BC0087FD0AC089EE93E003C001972C
:10443000009769F02091BC0027FFF9CF9091B90057
:10444000987F81E0983009F0089580E0089581E038
:1044500008951F93CF93DF9324EA2093BC0020910B
:10446000BC0027FD0CC029EE33E005C02150310906
:1044700021153105C1F14091BC0047FFF7CF2091D4
:10448000B900287F203151F1FC0180819181009792
:1044900029F11091B9006BE00E94F536EC0161E75B
:1044A0007EE00E94B03663E0CE010E94F536612FB7
:1044B0000E941D386BE00E94F536EC0162E87EE058
:1044C0000E94B03662E0CE010E94F53666E00E949E
:1044D000F53680E0DF91CF911F91089580E0DF9164
:1044E000CF911F91089581E0DF91CF911F910895A1
:1044F000CF93DF936093BB0024E82093BC0020910E
:10450000BC0027FD0CC029EE33E005C02150310965
:104510002115310591F04091BC0047FFF7CF9091F4
:10452000B900987F81E0983129F0983219F09034E1
:1045300009F080E0DF91CF910895FC0180819181A5
:104540000097B9F36BE00E94F536EC0160E67EE07F
:104550000E94B03666E0CE010E94F53680E0DF9121
:10456000CF9108956623E9F084EC8093BC0040E588
:104570009091BC0097FD0AC089EE93E003C00197BB
:10458000009769F02091BC0027FFF9CF2091B90076
:10459000287F30E0842F90E02817390739F08FEF1B
:1045A000089584E88093BC0048E5E2CF8091BB0089
:1045B0000895FF920F931F93CF93DF93EC01162F73
:1045C000F42E00E02FEF3FEFA90160E070E08A8158
:1045D0009B810E94512984EA8093BC008091BC0099
:1045E00087FD0CC029EE33E005C0215031092115AB
:1045F000310531F08091BC0087FFF7CF8091B90081
:10460000612FCE010E94782281111AC08881998180
:10461000009721F060E675E00E94B03600E020E0EF
:1046200030E0A90160E070E08A819B810E9430281F
:1046300011E0812FDF91CF911F910F91FF9008958D
:104640006F2DCE010E947822882301F384E98093A4
:10465000BC0084EA8093BC008091BC0087FD0CC044
:1046600029EE33E005C0215031092115310531F023
:104670008091BC0087FFF7CF8091B900612F616006
:10468000CE010E94782281111AC0888199810097F9
:1046900021F066E675E00E94B03600E020E030E0F0
:1046A000A90160E070E08A819B810E9430281FEFA1
:1046B000812FDF91CF911F910F91FF90089584E892
:1046C0008093BC008091BC0087FD0CC029EE33E0D4
:1046D00005C0215031092115310549F08091BC00F8
:1046E00087FFF7CF8091B900887F8835A9F01FEF49
:1046F00084E98093BC0000E020E030E0A90160E0A4
:1047000070E08A819B810E943028812FDF91CF91B8
:104710001F910F91FF9008951091BB00E9CFCF92A8
:10472000DF92EF92FF920F931F93CF93DF93EC01F1
:10473000C62ED42E7901102F00E02FEF3FEFA901F4
:1047400060E070E08A819B810E94512984EA809315
:10475000BC008091BC0087FD0AC0E9EEF3E003C015
:104760003197309731F09091BC0097FFF9CF80914D
:10477000B9006C2DCE010E94782281111EC0888163
:104780009981009721F06CE675E00E94B03600E058
:1047900020E030E0A90160E070E08A819B810E9406
:1047A0003028DD24D3948D2DDF91CF911F910F916F
:1047B000FF90EF90DF90CF9008956D2DCE010E9475
:1047C0007822D82E8823D9F284E98093BC0084EA29
:1047D0008093BC008091BC0087FD0CC049EE53E083
:1047E00005C0415051094115510531F09091BC006F
:1047F00097FFF7CF8091B9006C2D6160CE010E94C8
:104800007822811113C088819981009721F062E795
:1048100075E00E94B03600E020E030E0A90160E0E1
:1048200070E08A819B810E943028BDCF8FEF810F7D
:1048300019F1F70124EC2093BC009091BC0097FD86
:104840000CC049EE53E005C04150510941155105D6
:1048500049F09091BC0097FFF7CF9091B900987FF5
:10486000903591F19FEF9193815029F71250812F4C
:1048700090E00196E80EF91E84E88093BC008091D8
:10488000BC0087FD0AC089EE93E003C00197009742
:1048900049F02091BC0027FFF9CF8091B900887FB3
:1048A0008835A9F08FEFF701808384E98093BC00FD
:1048B00000E020E030E0A90160E070E08A819B81A7
:1048C0000E943028D12C6FCF9091BB00CCCF80912B
:1048D000BB00E9CFEF92FF920F931F93CF93DF932B
:1048E000EC01162FF42EE22E00E02FEF3FEFA9018E
:1048F00060E070E08A819B810E94512984EA809364
:10490000BC008091BC0087FD0AC0E9EEF3E003C063
:104910003197309731F08091BC0087FFF9CF8091BB
:10492000B900612FCE010E94782281111AC08881BE
:104930009981009721F068E775E00E94B03600E0A9
:1049400020E030E0A90160E070E08A819B810E9454
:10495000302881E0DF91CF911F910F91FF90EF9070
:1049600008956F2DCE010E947822882301F36E2DC9
:10497000CE010E9478228823D1F284E98093BC0082
:1049800000E020E030E0A90160E070E08A819B81D6
:104990000E94302880E0DECFBF92CF92DF92EF926C
:1049A000FF920F931F93CF93DF937C01C62FD42FD9
:1049B000B22E132FD02E00E02FEF3FEFA90160E0C1
:1049C00070E0DC0112968D919C9113970E94512901
:1049D00084EA8093BC008091BC0087FD0AC0E9EEA8
:1049E000F3E003C03197309731F08091BC0087FF2E
:1049F000F9CF8091B9006C2FC7010E9478228111F4
:104A000023C0D7018D919C91009721F06EE775E04E
:104A10000E94B03600E020E030E0A90160E070E0E4
:104A2000D70112968D919C9113970E943028CC2427
:104A3000C3948C2DDF91CF911F910F91FF90EF9038
:104A4000DF90CF90BF9008956D2FC7010E9478220C
:104A5000C82E8823B1F2DD2079F1CB2DD12F10E0C3
:104A600003C01F5F1D1541F16991C7010E947822A3
:104A70008111F7CFF701C081D181209789F064E8D7
:104A800075E0CE010E94B036612FCE010E941D3824
:104A9000DC01ED91FC910280F381E02D6EE309953C
:104AA00000E020E030E0A90160E070E0F7018281E1
:104AB00093810E943028BDCF84E98093BC0000E040
:104AC00020E030E0A90160E070E0F701828193818D
:104AD0000E943028C12CADCF8BB18695817008958E
:104AE0000F931F93CF93DF93EC01162F00E02FEF6E
:104AF0003FEFA90160E070E08A819B810E9451290B
:104B000084EA8093BC008091BC0087FD0CC029EE34
:104B100033E005C0215031092115310531F0809174
:104B2000BC0087FFF7CF8091B900612FCE010E94B2
:104B30007822182F84E98093BC0000E020E030E068
:104B4000A90160E070E08A819B810E943028812F5A
:104B5000DF91CF911F910F910895CF92DF92EF9245
:104B6000FF920F931F93CF93DF938C01EB016BE0C8
:104B7000CE010E94F5367C016CE47EE00E94B036E6
:104B800063E0C7010E94F53666E00E94F536E12C2D
:104B9000F12C6E2DCE010E941D38DC01ED91FC91AF
:104BA0000280F381E02D60E30995CE2CC29480EF62
:104BB000C822D12C08C060E4CE010995D394D394C7
:104BC000B0E1DB16E1F0E881F9810280F381E02DAC
:104BD00060E2CE0109956D2D6C29C8010E947025F7
:104BE000E881F9810280F381E02D8111E4CF6DE24B
:104BF000CE010995D394D394B0E1DB12E4CF66E003
:104C0000CE010E94F5368FEFE81AF80AA0E1EA1605
:104C1000F10409F0BECF62E0CE01DF91CF911F9188
:104C20000F91FF90EF90DF90CF900C94F536865265
:104C3000944F641B750B4EED46039001479F300D5A
:104C40001124820F931F08950F931F93CF93DF9327
:104C5000EC010E94DB2C80911C06811121C086E2B0
:104C600096E09093220680932106109224061092DB
:104C7000230687E397E19093200680931F06109206
:104C80001E0610921D0690932906809328068DE13A
:104C900096E0909327068093260681E080931C0679
:104CA000209709F460C0AE014C5F5F4F2396C63376
:104CB000D74108F058C0E0912106F0912206A1E208
:104CC000B6E006C080819181009739F0DF01FC01D8
:104CD0002281338124173507A8F3C6E0ED31FC07A4
:104CE00009F441C00D911C9111970C5F1F4F8081F9
:104CF00091818D939C93C901841B950B89309105FB
:104D000000F1BF01640F751FDB0113969C938E9316
:104D100012975383428312968D919C911397A1E22F
:104D2000B6E001C0DF01ED91FC9111972281338142
:104D300028173907B8F3EB01F983E8836D937C9367
:104D40009A018091000290910102821B930B909333
:104D50000102809300020E940E2EC801DF91CF91C4
:104D60001F910F91089500E010E00E940E2EC801DF
:104D7000DF91CF911F910F910895CF93DF9300970B
:104D800021F1EC0124970E94DB2C4A815B81A1E296
:104D9000B6E001C0DF01ED91FC91119722813381D2
:104DA00024173507B8F3F983E883CD93DC9380911A
:104DB000000290910102840F951F9093010280934D
:104DC0000002DF91CF910C940E2EDF91CF910895C8
:104DD0008091000290910102089508951F93CF934E
:104DE000DF93EC01142F88A181110DC08881998176
:104DF000892B09F44DC080E09E8D9F5F9E8FDF91CF
:104E0000CF911F910895482F50E011111CC08C8143
:104E10009D810E94234428A18C819D81820F911D38
:104E20009D838C832A813B818217930720F388819D
:104E300099819D838C8380E09E8D9F5F9E8FDF9103
:104E4000CF911F9108958E819F810E94234428A1B4
:104E500030E03195219531098E819F81820F931F1A
:104E60009F838E83688179818617970730F48A81C2
:104E70009B81820F931F9F838E83123009F0BBCFDB
:104E80008E8D882309F4B7CF8E8D81508E8FB3CF4E
:104E90008A819B810E9439311B821A82ADCFFC012D
:104EA000CB0140A1442399F050E026813781240FA3
:104EB000351F37832683628173812617370720F0D9
:104EC0002081318137832683B9010C9423440895CE
:104ED0000F931F93CF93DF93EC010FB6F8940F92CB
:104EE0008AA11816ECF48B898823D1F08E010D5E0F
:104EF0001F4F09C08AA181508AA38AA1181684F481
:104F00008B89882369F0C8010E94C52F882391F3FB
:104F10000E94B9308AA181508AA38AA1181684F30D
:104F20008FEF8AA30F900FBE0FB6F8940F9289A14E
:104F30001816ECF488858823D1F08E01085F1F4F86
:104F400009C089A1815089A389A1181684F4888594
:104F5000882369F0C8010E94C52F882391F30E941D
:104F6000B93089A1815089A389A1181684F38FEFE4
:104F700089A30F900FBEDF91CF911F910F910895DC
:104F8000CF93DF93EC010FB6F8940F92288139810B
:104F90008F8D78A1879FC0011124A901480F591F47
:104FA0005B834A831E8E3D832C83871B9109820F6E
:104FB000931F9F838E838FEF89A38AA3611112C0F1
:104FC0008885811106C00F900FBE81E0DF91CF91DF
:104FD0000895CE0108960E94C52F8130A1F70E9446
:104FE0009B3BF1CFCE0108960E942C3ACE0143960E
:104FF0000E942C3A0F900FBE81E0DF91CF9108956F
:105000000F931F93CF93DF93182F062F882301F15F
:1050100083E290E00E942426EC010097C9F0109FE3
:10502000C001112401960E94242699838883892B2C
:1050300061F01F8F08A361E0CE010E94C027CE015E
:10504000DF91CF911F910F910895CE010E94BD264F
:10505000C0E0D0E0CE01DF91CF911F910F91089574
:105060006F927F928F929F92AF92BF92CF92DF9278
:10507000EF92FF920F93CF93DF93CDB7DEB72997CF
:105080000FB6F894DEBF0FBECDBF5C014B012E837F
:105090003F834887598720E03C0188E0680E711CF7
:1050A0000FB6F8940F92F501968D878D981708F436
:1050B00059C0023009F456C0CE80DF80E884F984FC
:1050C000CD28CE28CF2809F46FC0222309F441C08F
:1050D0000F900FBE0E94DB2C0FB6F8940F92F501D3
:1050E00081A18F3F09F43CC0F50182A18F3FB1F14E
:1050F0000F900FBEBE016A5F7F4FCE0101960E94E6
:105100005830811155C00FB6F8940F92F501968D65
:105110000F900FBEF501878D981314C04E815F81EB
:1051200068857985C3010E946A2FC5010E9468279E
:105130000E940E2E882311F021E0B2CF0E949B3BEB
:1051400021E0AECFC5010E9468270E940E2E21E00B
:10515000A7CFCE0101960E944730BACF12A2C8CF86
:1051600011A2C2CF402FB401C5010E94EE26F50165
:105170009389911124C0811128C00F900FBE81E046
:1051800029960FB6F894DEBF0FBECDBFDF91CF9149
:105190000F91FF90EF90DF90CF90BF90AF909F90D6
:1051A0008F907F906F9008950F900FBE80E0E8CFB2
:1051B000C5010E9468270E940E2E80E0E1CFC50144
:1051C00043960E94C52F8130C1F60E949B3BD5CFEC
:1051D0000F93CF93DF9383E290E00E942426EC01AB
:1051E000009701F11B821A82198218821D821C828B
:1051F0001F821E821E8E81E08F8F18A28FEF89A3DF
:105200008AA3CE0108960E942C3ACE0143960E94B2
:105210002C3A00E020E030E0A90160E070E0CE012F
:105220000E943028CE01DF91CF910F9108950F9306
:105230001F93CF93DF93EC018A019E8D8F8D98177A
:1052400040F0223031F080E0DF91CF911F910F913B
:105250000895422FCE010E94EE26882331F00115D9
:10526000110519F081E0F80180838AA18F3F49F090
:105270008AA18F5F8AA381E0DF91CF911F910F9167
:1052800008958B898823B9F3CE0143960E94C52FD8
:10529000882389F30115110571F381E0F8018083FA
:1052A000D3CFAF92BF92CF92DF92EF92FF920F9344
:1052B000CF93DF93CDB7DEB729970FB6F894DEBF53
:1052C0000FBECDBF7C016B012E833F83488759877A
:1052D00090E0570183E1A80EB11C0FB6F8940F922D
:1052E000F701868D811169C04E815F81688579855E
:1052F000452B462B472B09F47DC0992309F43EC06A
:105300000F900FBE0E94DB2C0FB6F8940F92F7019E
:1053100081A18F3F09F43EC0F70182A18F3F09F4BC
:105320003FC00F900FBEBE016A5F7F4FCE01019656
:105330000E945830811171C00FB6F8940F92F70196
:10534000868D0F900FBE81111EC0F7018081918163
:10535000892B41F14E815F8168857985C5010E9465
:105360006A2FC7010E9468270E940E2E882311F021
:1053700091E0B3CF0E949B3B91E0AFCFCE0101966D
:105380000E944730BDCFC7010E9468270E940E2EA1
:1053900091E0A3CF11A2F70182A18F3F09F0C1CF05
:1053A00012A2BFCF0FB6F8940F92F70182819381BA
:1053B0000E94DE300F900FBECDCFA680B780B60121
:1053C000C7010E944F27F70101112EC0868D815021
:1053D000868F80819181892BB9F1F701808588239F
:1053E00041F1C70108960E94C52F813011F50E9436
:1053F0009B3B1FC00F900FBE80E029960FB6F8941C
:10540000DEBF0FBECDBFDF91CF910F91FF90EF9028
:10541000DF90CF90BF90AF900895C7010E9468279A
:105420000E940E2E80E0E9CFB782A6828389811187
:1054300004C00F900FBE81E0E0CFC70143960E94E9
:10544000C52F8823B1F3D3CF0E94A031F7019383F6
:105450008283C3CF0F931F93CF93DF9300D0CDB739
:10546000DEB78C01FC01868D811108C080E00F90B1
:105470000F90DF91CF911F910F910895C80149833B
:105480005A830E944F27F801868D8150868F81A113
:1054900049815A818F3F61F0F80181A18F5F81A31B
:1054A00081E00F900F90DF91CF911F910F910895A0
:1054B00080858823A9F3C801089649835A830E94EE
:1054C000C52F49815A81882359F34115510541F36C
:1054D00081E0FA018083CBCF0F931F93CF93DF93AB
:1054E000EC018E8D811106C080E0DF91CF911F917C
:1054F0000F9108950E811F81CE010E944F271F83B7
:105500000E8381E0DF91CF911F910F9108950FB627
:10551000F8940F92FC01868D0F900FBE08950FB680
:10552000F8940F92FC01268D0F900FBEFC01878D21
:10553000821B0895FC01868D0895CF93DF93EC01C3
:1055400088819981009711F00E94BD26CE01DF91DC
:10555000CF910C94BD26FC01968D81E0911180E0E5
:105560000895FC01268D81E0978D291380E0089530
:105570008091921D823018F00E949B3BF9CFFFCFA3
:10558000CF92DF92EF92FF926B017C01E0915D1D63
:10559000F0915E1D62837383848395838091661D81
:1055A0009091671DA091681DB091691D60915D1D6E
:1055B00070915E1DC816D906EA06FB0610F18091AF
:1055C0007A1D90917B1D6E5F7F4F0E94623A8091A1
:1055D000020290910302A0910402B0910502C81644
:1055E000D906EA06FB0640F4C0920202D0920302FA
:1055F000E0920402F0920502FF90EF90DF90CF90CE
:1056000008958091781D9091791D6E5F7F4FFF9076
:10561000EF90DF90CF900C94623A5F926F927F92FE
:105620008F929F92AF92BF92CF92DF92EF92FF92B2
:105630000F931F93CF93DF934C01162F572E5A01D0
:10564000390189E290E00E942426EC01009709F4D8
:10565000E9C0C114D10409F4DAC0DC8ECB8EC601D6
:10566000A50165EA70E00E942C4421E0A21AB1086D
:10567000CB8CDC8CCA0CDB1CAE01435E5F4FE12F90
:10568000F52D2AE0CF013191DA013D93AD01DC0126
:105690008C91882311F02150A9F71EA2102F0430FD
:1056A00008F07DC01A8F1FA318A65E01B2E0AB0EF2
:1056B000B11CC5010E943D3ACE010E960E943D3AB2
:1056C000DB87CA8784E090E0A0E0B0E0811B91090D
:1056D000A109B1098E879F87A88BB98BDF8BCE8BF1
:1056E000A301B401C6010E94CB3A99838883E114D7
:1056F000F10419F0F701D183C0830FB6F8940F922B
:1057000080916A1D8F5F80936A1D80915D1D9091CD
:105710005E1D892B09F449C08091641D81110BC065
:10572000E0915D1DF0915E1D828D081720F0D093F1
:105730005E1DC0935D1D8091601D8F5F8093601D15
:105740008A8D9091651D981738F1FBE08F9FC001FD
:105750001124B5018E56924E0E94413A0F900FBE11
:105760008091641D882339F0E0915D1DF0915E1DEC
:10577000828D8017B0F081E0DF91CF911F910F9162
:10578000FF90EF90DF90CF90BF90AF909F908F9061
:105790007F906F905F9008958093651DD6CF13E042
:1057A00081CF0E949B3B81E0E7CFD0935E1DC093E9
:1057B0005D1D80916A1D813009F0BDCF82E99DE1B8
:1057C0000E942C3A8DE99DE10E942C3A88EA9DE1E5
:1057D0000E942C3A83EB9DE10E942C3A87E89DE1E0
:1057E0000E942C3A8CE79DE10E942C3A8DE69DE1C7
:1057F0000E942C3A87E89DE190937B1D80937A1D4F
:105800008CE79DE19093791D8093781D94CFC5011D
:105810000E9424269C8F8B8F009709F021CFCE0108
:105820000E94BD268FEFA8CF0FB6F8940F92009775
:1058300029F00F900FBEFC01828D089580915D1DAF
:1058400090915E1D0F900FBEFC01828D0895EF9226
:10585000FF921F93CF93DF93EC01262F643008F063
:1058600023E00FB6F8940F92209709F44AC03FA1A5
:105870003217A9F180915D1D90915E1D3217B8F528
:10588000C817D90741F0E0915D1DF0915E1D11E050
:10589000828D281708F410E08A8D381769F12FA33C
:1058A0004E855F856889798977FD0CC044E050E0BA
:1058B00060E070E0421B5109610971094E875F8702
:1058C000688B798B2BE0829FC00111248E56924EFB
:1058D0002C853D8528173907C9F0113079F00F90D4
:1058E0000FBEDF91CF911F91FF90EF90089511E0CF
:1058F000C817D90781F6D0CF2A8FD1CF0E949B3B02
:10590000EECFC0915D1DD0915E1DB1CF7E0182E0D2
:10591000E80EF11CC7010E949F3A8A8D9091651D87
:10592000981710F48093651D2BE0829FC00111240D
:10593000B7018E56924E0E94413ACFCFAF92BF929E
:10594000CF92DF92EF92FF920F93A12CB12CC12C3A
:10595000D12C8BE6E82E8DE1F82E00E020E030E03F
:1059600044E650E068E875E088EB9AE20E940D2B6F
:10597000813041F00F91FF90EF90DF90CF90BF907A
:10598000AF900895F8948093641D1092661D109254
:10599000671D1092681D1092691D0F91FF90EF9086
:1059A000DF90CF90BF90AF900C945F3BF894109233
:1059B000641D0C949A3B80915F1D8F5F80935F1DE7
:1059C00008950FB6F8940F926091661D7091671D4F
:1059D0008091681D9091691D0F900FBE0895609190
:1059E000661D7091671D8091681D9091691D0895D5
:1059F00080916A1D0895009711F04D960895809149
:105A00005D1D90915E1D4D96089580916B1D909146
:105A10006C1D0895AF92BF92CF92DF92EF92FF92EA
:105A20000F931F93CF93DF9380915F1D8111CFC0A0
:105A30008091661D9091671DA091681DB091691DB0
:105A40000196A11DB11D8093661D9093671DA093C3
:105A5000681DB093691DC090661DD090671DE090D1
:105A6000681DF090691DC114D104E104F10439F5F9
:105A700080917A1D90917B1D2091781D3091791D28
:105A800030937B1D20937A1D9093791D8093781D10
:105A90008091611D8F5F8093611DE0917A1DF0916F
:105AA0007B1D808181119AC08FEF9FEFDC01809375
:105AB000020290930302A0930402B0930502809126
:105AC000020290910302A0910402B0910502B12C50
:105AD000C816D906EA06FB0608F457C09BE0A92EB3
