:100000000C94D7050C94F6050C94F6050C94F605A3
:100010000C94F6050C94BD110C947A120C947C127D
:100020000C94FA120C94F6050C94F6050C94F60553
:100030000C94F6050C94F6050C94F6050C94F60554
:100040000C94F6050C94F6050C94F6050C94F60544
:100050000C94F6050C94F6050C94F6050C94F60534
:100060000C94F6050C9460300C94F6050C94F6058F
:100070000C94F6050C94F6050C94F6050C94F60514
:100080000C94F6050C94F6050C94F6050C94F60504
:100090000C94B3300C94F6050C94F6050C94F6050C
:1000A0000C94F6050C94F6050C94F6050C94F605E4
:1000B0000C94F6050C94F6050C94F6050C942A3372
:1000C0000C94F6050C94F6050C94F605D22DDB2D58
:1000D000DE2DE12DD42DD42DE42DF42DFB2D022E7B
:1000E000062ED82D5F5F5F5F5F5F5F5F204D4534F9
:1000F0003035204C61622033204D6F64696669653C
:10010000642050726F6772616D205F5F5F5F5F5F39
:100110005F5F004D6179203232203230313600533A
:10012000797374656D2074696D653A20002C2048E0
:100130006561703A20002C204F435235413A20002F
:1001400020202020723A2020202020205265747523
:10015000726E20746F204D61696E204D656E750062
:10016000202043746C2D433A202020205265736573
:100170007420415652206D6963726F636F6E7472A2
:100180006F6C6C65720020202020703A20202020A7
:1001900020204578656375746520686967687761B4
:1001A000792070617373696E670020202020633AA4
:1001B000202020202020546F67676C6520636172C7
:1001C0002061766F6964616E636500202020206C79
:1001D0003A202020202020546F67676C65206C61D6
:1001E0006E65206B656570696E67002D2D2D2D2D58
:1001F0002D2D2D2D2D2D2D2D2D2D2D2D20484947EB
:1002000048574159205441534B204D454E55202DC0
:100210002D2D2D2D2D2D2D2D2D2D2D2D2D2D2D2D0E
:100220000020202020723A202020202020526574B7
:1002300075726E20746F204D61696E204D656E750C
:1002400000202043746C2D433A20202020526573F7
:10025000657420415652206D6963726F636F6E74CE
:10026000726F6C6C65720020202020633A20202081
:1002700020202043697263756C617220706174681C
:1002800000202020206C3A2020202020204C696E65
:100290006561722068656164696E67206164686584
:1002A00072616E6365002D2D2D2D2D2D2D2D2D2D83
:1002B0002D2D2D2D2D2D2D20434C415353205441B8
:1002C000534B204D454E55202D2D2D2D2D2D2D2DB3
:1002D0002D2D2D2D2D2D2D2D2D0020202020723A5D
:1002E00020202020202052657475726E20746F20AB
:1002F0004D61696E204D656E7500202043746C2D34
:10030000433A2020202052657365742041565220C4
:100310006D6963726F636F6E74726F6C6C6572007F
:1003200020202020733A202020202020506F736945
:1003300074696F6E20736574706F696E740020202D
:100340002020703A202020202020536572766F20D4
:10035000706F736974696F6E207769746820505785
:100360004D205B32302C2033305D002D2D2D2D2D76
:100370002D2D2D2D2D2D2D2D2D2D2D2D2053455257
:10038000564F204D454E55202D2D2D2D2D2D2D2DEB
:100390002D2D2D2D2D2D2D2D2D0020202020723A9C
:1003A00020202020202052657475726E20746F20EA
:1003B0004D61696E204D656E7500202043746C2D73
:1003C000433A202020205265736574204156522004
:1003D0006D6963726F636F6E74726F6C6C657200BF
:1003E00020202020733A20202020202056656C6F8A
:1003F0006369747920736574706F696E74205B2D06
:1004000034302C2034305D0020202020663A20201B
:100410002020202046756C6C204272616B650020A4
:10042000202020623A2020202020204D6F746F72FF
:10043000204252414B4520776974682050574D2027
:100440005B2D3235352C203235355D0020202020C3
:10045000703A2020202020204D6F746F7220504F62
:1004600057455220776974682050574D205B2D32D4
:1004700035352C203235355D002D2D2D2D2D2D2D92
:100480002D2D2D2D2D2D2D2D2D2D204D4F544F52F9
:10049000204D454E55202D2D2D2D2D2D2D2D2D2D25
:1004A0002D2D2D2D2D2D2D0020202020723A2020A5
:1004B0002020202052657475726E20746F204D616B
:1004C000696E204D656E7500202043746C2D433A93
:1004D00020202020526573657420415652206D699A
:1004E00063726F636F6E74726F6C6C657200202044
:1004F0002020683A20202020202048696768776102
:1005000079206D61696E74656E616E63650020208F
:100510002020633A202020202020436C6173732028
:100520007265717569726564207461736B73002004
:10053000202020763A202020202020536572766FDC
:10054000206D616E75616C206D616E6970756C6196
:1005500074696F6E00202020206D3A20202020201A
:10056000204D6F746F72206D616E75616C206D61CE
:100570006E6970756C6174696F6E00202020206454
:100580003A202020202020537461636B2064756D15
:100590007020666F72207461736B730020202020BE
:1005A000733A20202020202056657273696F6E2FC9
:1005B000536574757020696E666F726D6174696FD2
:1005C0006E0020202020743A202020202020536814
:1005D0006F77207468652063757272656E7420741D
:1005E000696D65002D2D2D2D2D2D2D2D2D2D2D2DB4
:1005F0002D2D2D2D2D204D41494E204D454E552060
:100600002D2D2D2D2D2D2D2D2D2D2D2D2D2D2D2D1A
:100610002D00496C6C6567616C2073746174652191
:1006200020526573657474696E67204156520022CA
:1006300020003C2D2D20556E6B6E6F776E20636F02
:100640006D6D616E642E205479706520636F6D6DE1
:10065000616E642066726F6D206D656E752E00523E
:100660006573657474696E672041565200222000DC
:100670003C2D2D20556E6B6E6F776E20636F6D6D08
:10068000616E642E205479706520636F6D6D616EAC
:10069000642066726F6D206D656E752E00526573F5
:1006A000657474696E672041565200456E746572B8
:1006B00020726164697573206F6620636972637567
:1006C0006C61722070617468205B302C3235355D4E
:1006D00000456E746572206C696E65617220686594
:1006E0006164696E67002220003C2D2D20556E6BE1
:1006F0006E6F776E20636F6D6D616E642E2054791E
:10070000706520636F6D6D616E642066726F6D2021
:100710006D656E752E00526573657474696E672021
:1007200041565200456E74657220706F736974692A
:100730006F6E20736574706F696E7420666F7220BF
:10074000536572766F00456E74657220706F7369C1
:1007500074696F6E20666F7220536572766F002227
:1007600020003C2D2D20556E6B6E6F776E20636FD1
:100770006D6D616E642E205479706520636F6D6DB0
:10078000616E642066726F6D206D656E752E00520D
:100790006573657474696E6720415652004D6F74BD
:1007A0006F7220002048414C5445442100456E742E
:1007B0006572206E756D62657220666F72204D6F76
:1007C000746F722000456E746572206E756D62657F
:1007D0007220666F72204D6F746F722000222000AD
:1007E0003C2D2D20556E6B6E6F776E20636F6D6D97
:1007F000616E642E205479706520636F6D6D616E3B
:10080000642066726F6D206D656E752E00506C658C
:1008100061736520747970652061206E756D626505
:1008200072206265747765656E203020746F2032A7
:1008300035352C207468656E20454E544552005065
:100840006C6561736520747970652061206E756DCB
:10085000626572206265747765656E202D3235356C
:1008600020746F203235352C207468656E20454E1B
:1008700054455200506C6561736520747970652031
:10088000612031206F72203220666F72206D6F748C
:100890006F722073656C6563742C207468656E20BC
:1008A000454E544552004E756D62657220456E741A
:1008B000657265643A20004E756D62657220456E02
:1008C00074657265643A202D002220003C2D2D2095
:1008D000556E6B6E6F776E20636F6D6D616E642EFB
:1008E000205479706520636F6D6D616E642066724F
:1008F0006F6D206D656E752E005265736574746939
:100900006E672041565200456E746572206E756D9B
:100910006265722C2031206F7220322C20666F723B
:10092000206D6F746F722073656C656374696F6E90
:100930003A20004572726F7220696E2067657445B7
:10094000756C6572416E6700494D5520756E69740E
:10095000732073657400494D5520706F7765722060
:100960006D6F64652073657400494D55206F706527
:10097000726174696F6E206D6F64652073657400B9
:10098000494D55206F626A65637420696E746961B0
:100990006C20636F6D6D756E69636174696F6E2035
:1009A00073756365737300494D55206F626A6563A3
:1009B0007420696E7469616C20636F6D6D756E690A
:1009C000636174696F6E206572726F720041444397
:1009D0005352413A200041444D55583A2000414479
:1009E0004330203D200041444331203D200041441C
:1009F0004332203D200041444333203D2000414408
:100A00004334203D200041444335203D20004144F3
:100A10004336203D200041444337203D20002D2D0A
:100A20002D2D2D2D2D2D204D45343035204C61623E
:100A30002035205374617274696E672050726F673D
:100A400072616D202D2D2D2D2D2D2D2D002020207E
:100A500020302032203420362038204120432045C9
:100A6000004932432073656E642074696D656F754B
:100A700074004932432072652D73746172743A2098
:100A8000307800206E6F742030783130004E6F2047
:100A90007368617265642064617461206974656D56
:100AA0007320746F207072696E74002D2D2D2D20AF
:100AB00020202020202020202020202D2D2D2D2002
:100AC0002020202D2D2D2D2D2D2D2D2D2D00536849
:100AD0006172652F5175657565202020202054793D
:100AE000706520202020467265652F546F74616CFC
:100AF000004552524F52206372656174696E6720DF
:100B00007461736B2022005461736B2022002220D9
:100B1000637265617465642C20737461636B20611A
:100B200074203078005461736B3A20005461736B09
:100B30003A2049444C450049444C45090930092DA7
:100B400009002F0009092D002D2D2D2D09092D2D0E
:100B50002D2D092D2D2D2D2D00092D2D2D2D2D2D3A
:100B60002D2D2D2D00092D2D2D2D004E616D65098A
:100B7000095072692E0953746174650009467265E3
:100B8000652F546F74616C000952756E7300546167
:100B9000736B0909202009200009537461636B00FD
:100BA000090009002F00090009002020000011247D
:100BB0001FBECFEFD1E2DEBFCDBF15E0A0E0B2E0B7
:100BC000E0E7F3E700E00BBF02C007900D92A0330F
:100BD000B107D9F71DE1A0E3B5E001C01D92A63031
:100BE000B107E1F70E94AA350C94B6390C940000C5
:100BF0000F931F93CF93DF93EC010E94072980E3AB
:100C000092E099838883DF91CF911F910F9108958E
:100C10000F931F93CF93DF93EC0166E08E819F814A
:100C20000E94C52D6BE08E819F810E94C52D8C0195
:100C300064EE75E00E94802D66E0C8010E94C52D1B
:100C40006BE08E819F810E94C52D8C0162EC75E066
:100C50000E94802D66E0C8010E94C52D6BE08E8148
:100C60009F810E94C52D8C016CE975E00E94802D4A
:100C700066E0C8010E94C52D6BE08E819F810E94B5
:100C8000C52D8C016BE775E00E94802D66E0C801E0
:100C90000E94C52D6BE08E819F810E94C52D8C0125
:100CA00065E575E00E94802D66E0C8010E94C52DB3
:100CB0006BE08E819F810E94C52D8C016FE275E0F3
:100CC0000E94802D66E0C8010E94C52D6BE08E81D8
:100CD0009F810E94C52D8C016EE075E00E94802DE1
:100CE00066E0C8010E94C52D6BE08E819F810E9445
:100CF000C52D8C016EEE74E00E94802D66E0C80167
:100D00000E94C52D6BE08E819F810E94C52D8C01B4
:100D100068EC74E00E94802D66E0C8010E94C52D39
:100D20006BE08E819F810E94C52D8C0168EA74E082
:100D30000E94802D66E0C8010E94C52D66E08E816C
:100D40009F81DF91CF911F910F910C94C52D0F932F
:100D50001F93CF93DF93EC0166E08E819F810E9409
:100D6000C52D6BE08E819F810E94C52D8C0169E7A6
:100D700074E00E94802D66E0C8010E94C52D6BE0E2
:100D80008E819F810E94C52D8C016CE474E00E94CD
:100D9000802D66E0C8010E94C52D6BE08E819F8189
:100DA0000E94C52D8C016FE174E00E94802D66E0E9
:100DB000C8010E94C52D6BE08E819F810E94C52DC8
:100DC0008C0168E074E00E94802D66E0C8010E94FA
:100DD000C52D6BE08E819F810E94C52D8C0160EE38
:100DE00073E00E94802D66E0C8010E94C52D6BE073
:100DF0008E819F810E94C52D8C016AEB73E00E9459
:100E0000802D66E0C8010E94C52D6BE08E819F8118
:100E10000E94C52D8C016AE973E00E94802D66E076
:100E2000C8010E94C52D66E08E819F81DF91CF9120
:100E30001F910F910C94C52D0F931F93CF93DF93A8
:100E4000EC0166E08E819F810E94C52D6BE08E8152
:100E50009F810E94C52D8C016BE673E00E94802D5E
:100E600066E0C8010E94C52D6BE08E819F810E94C3
:100E7000C52D8C016EE373E00E94802D66E0C801F1
:100E80000E94C52D6BE08E819F810E94C52D8C0133
:100E900060E273E00E94802D66E0C8010E94C52DCB
:100EA0006BE08E819F810E94C52D8C016AEF72E0FC
:100EB0000E94802D66E0C8010E94C52D6BE08E81E6
:100EC0009F810E94C52D8C016AED72E00E94802DE9
:100ED00066E0C8010E94C52D66E08E819F81DF918A
:100EE000CF911F910F910C94C52D0F931F93CF930A
:100EF000DF93EC0166E08E819F810E94C52D6BE03F
:100F00008E819F810E94C52D8C0166EA72E00E944D
:100F1000802D66E0C8010E94C52D6BE08E819F8107
:100F20000E94C52D8C0161E872E00E94802D66E070
:100F3000C8010E94C52D6BE08E819F810E94C52D46
:100F40008C0167E672E00E94802D66E0C8010E9475
:100F5000C52D6BE08E819F810E94C52D8C0161E4BF
:100F600072E00E94802D66E0C8010E94C52D6BE0F2
:100F70008E819F810E94C52D8C0161E272E00E94EA
:100F8000802D66E0C8010E94C52D66E08E819F819C
:100F9000DF91CF911F910F910C94C52D0F931F934B
:100FA000CF93DF93EC0166E08E819F810E94C52D77
:100FB0006BE08E819F810E94C52D8C016BEE71E0EC
:100FC0000E94802D66E0C8010E94C52D6BE08E81D5
:100FD0009F810E94C52D8C016BEC71E00E94802DD9
:100FE00066E0C8010E94C52D6BE08E819F810E9442
:100FF000C52D8C016AEA71E00E94802D66E0C8016F
:101000000E94C52D6BE08E819F810E94C52D8C01B1
:1010100066E871E00E94802D66E0C8010E94C52D3F
:101020006BE08E819F810E94C52D8C0160E671E08E
:101030000E94802D66E0C8010E94C52D6BE08E8164
:101040009F810E94C52D8C0160E471E00E94802D7B
:1010500066E0C8010E94C52D66E08E819F81DF9108
:10106000CF911F910F910C94C52D8F929F92AF92AB
:10107000BF92CF92DF92EF92FF920F931F93CF9385
:10108000DF9300D000D000D0CDB7DEB78C0119823D
:101090001A821B821C821E821D82C0902801D09061
:1010A00029010E94B81D5C01CE0101960E94B12C5D
:1010B0004C0166E0F801868197810E94C52D6BE0A6
:1010C0000E94C52D7C0164EE70E00E94802D6BE0D3
:1010D000C7010E94C52D7C0163E171E00E94802D53
:1010E00066E0C7010E94C52D6BE00E94C52D7C0102
:1010F0006FE171E00E94802DB401C7010E94502C65
:101100006BE00E94C52D7C016DE271E00E94802D94
:10111000B501C7010E94752E7C0165E172E00E9455
:10112000802D48E357E160E070E0C7010E94AF2ED8
:101130006BE00E94C52D7C0166E371E00E94802D6A
:10114000B601C7010E94752E66E00E94C52D66E0BB
:101150000E94C52DF801868197810E94022B66E0CE
:10116000F801868197810E94C52DF80186819781BB
:101170000E94C22826960FB6F894DEBF0FBECDBFE0
:10118000DF91CF911F910F91FF90EF90DF90CF9063
:10119000BF90AF909F908F900895CF93DF93CDB77E
:1011A000DEB727970FB6F894DEBF0FBECDBF8C0118
:1011B00019821A821B821C821E821D820FB6F8942D
:1011C0000F92E0914E05F0914F0510860F900FBEE3
:1011D0000E940806C12CB12CD12CE12CF12CAA24A0
:1011E000A3945AE0452E512C2AC0843009F465C1DD
:1011F00008F42AC1853009F00CC1F8018681978175
:10120000DC01ED91FC910480F581E02D09958111BF
:1012100085C3D8011E964D915D916D917C9151973A
:101220004F5F5F4F6F4F7F4FF80146875787608B47
:10123000718B61E070E080E090E00E94B825D801F9
:101240001C968C91823009F464C078F6882309F4E6
:10125000B0C0813009F0DDC0F80186819781DC01E2
:10126000ED91FC910480F581E02D0995882309F426
:1012700087C2F80186819781DC01ED91FC9106809F
:10128000F781E02D0995482F80ED840F8A3008F40E
:1012900054C24D3209F443C24F3709F4FAC14A30FF
:1012A00009F421C24D3009F0F6C166E0B110E3C186
:1012B000F801868197810E94C52D6BE00E94C52DA3
:1012C0004C0166EA78E0C4010E94802DB701C40198
:1012D0000E940A2E66E00E94C52DD11024C4C701C9
:1012E0000197029708F407C26BE0D80116968D911A
:1012F0009C9117970E94C52D7C0164E778E0C70197
:101300000E94802D66E0C7010E94C52DE12CF12CC2
:1013100080CFD80116968D919C911797DC01ED91A5
:10132000FC910480F581E02D0995882309F471CFA3
:10133000F80186819781DC01ED91FC910680F781AF
:10134000E02D0995282F863609F48FC20CF042C291
:10135000833009F46DC2823609F042C20FB6F894A8
:101360000F92E0914E05F0914F05D0840F900FBE83
:101370006BE0D80116968D919C9117970E94C52D10
:101380004C016DEA77E00E94802D6D2DC4010E9412
:10139000392E4C0161E272E00E94802D66E0C401AA
:1013A0000E94C52D61E0C8010E94BD2982E0D82EAF
:1013B00030CFF80186819781DC01ED91FC910480AA
:1013C000F581E02D0995882309F423CFF801868162
:1013D0009781DC01ED91FC910680F781E02D099564
:1013E000282F8D3609F443C30CF02FC3833609F43C
:1013F00024C30CF403C3843609F4F8C2883609F018
:10140000CDC2C8010E94CE0765E0C8010E94BD2977
:1014100000CF6BE0F801868197810E94C52D8C0179
:1014200062E176E00E94802D66E0C8010E94C52D31
:101430002BE088E190E00FB6F894A89580936000C7
:101440000FBE20936000FFCFF80186819781DC01F9
:10145000ED91FC910480F581E02D0995882309F434
:10146000D8CEF80186819781DC01ED91FC91068050
:10147000F781E02D0995282F803709F4F2C00CF48C
:10148000D3C08237D9F1833709F0A4C06BE0D8010B
:1014900016968D919C9117970E94C52D4C0164E280
:1014A00077E0C4010E94802D66E0C4010E94C52D32
:1014B00060E0C8010E94BD29ACCEF8018681978109
:1014C000DC01ED91FC910480F581E02D09958823E4
:1014D00009F49FCEF80186819781DC01ED91FC91A2
:1014E0000680F781E02D0995282F833609F466C020
:1014F0000CF447C08C36D9F1823741F4C8010E9400
:10150000080660E0C8010E94BD2983CED801169666
:101510008D909C901797D401ED91FC910280F381FE
:10152000E02D62E2C4012F830995D401ED91FC9175
:101530000280F381E02D2F81622FC40109956BE0B9
:10154000C4010E94C52D4C016DE676E00E94802DFD
:101550006BE0C4010E94C52D4C0160E776E0C40138
:101560000E94802D66E0C4010E94C52D52CE6BE022
:10157000F801868197810E94C52D4C0161ED76E0CE
:1015800090CF833019F66BE0F801868197810E9435
:10159000C52D8C016DE976E00E94802D66E0C801C2
:1015A0000E94C52D2BE088E190E00FB6F894A89535
:1015B000809360000FBE20936000FFCF6BE0D801E6
:1015C00016968D919C9117970E94C52D4C016BEA40
:1015D00076E067CFD80116968D909C901797D4012E
:1015E000ED91FC910280F381E02D62E2C4012F8332
:1015F0000995D401ED91FC910280F381E02D2F81BA
:10160000622FC40109956BE0C4010E94C52D4C01F5
:1016100066EE76E00E94802D6BE0C4010E94C52D2D
:101620004C0169EE76E09BCF8330A1F66BE0F801C8
:10163000868197810E94C52D8C0166E177E00E942A
:10164000802D66E0C8010E94C52D2BE088E190E066
:101650000FB6F894A895809360000FBE20936000A9
:10166000FFCF6BE0F801868197810E94C52D4C0168
:1016700066E477E016CFD80116968D919C91179766
:101680000E94C52D6BE00E94C52D4C0167EB78E0F0
:101690001ACEC11075C2F801E680F780D701ED912E
:1016A000FC910280F381E02D62E2C7014F8309952E
:1016B000D701ED91FC910280F381E02D4F81642FE1
:1016C000C70109956BE0C7010E94C52D7C016DED36
:1016D00077E00E94802D6BE0C7010E94C52D7C0140
:1016E00060EE77E00CCE67E172E0F80186819781C9
:1016F0000E94802D8ECD0FB6F8940F92E0914E058A
:10170000F0914F05E0860F900FBEC8010E94A7061A
:1017100062E0C8010E94BD29E12CF12C7ACDF801CC
:1017200086819781DC01ED91FC910280F381E02DAF
:101730006DE20995BB24B3946CCDF8018681978145
:10174000DC01ED91FC910280F381E02D642F4F8349
:1017500009959701220F331FEE0CFF1CEE0CFF1CA6
:10176000EE0CFF1C2E0D3F1D4F81E42EFF24E7FCE5
:10177000F094B0E3EB1AF108E20EF31EC39449CDE6
:101780008091500590915105DC01ED91FC91048010
:10179000F581E02D0995882309F43BCDD8011696F3
:1017A000ED91FC9117970190F081E02D828093805C
:1017B0008091500590915105DC01ED91FC910680DE
:1017C000F781E02D0995682FF80186819781F40152
:1017D00009951FCD803709F478C0823709F48ECE81
:1017E000F80186809780D401ED91FC910280F3810D
:1017F000E02D62E2C4012F830995D401ED91FC91A3
:101800000280F381E02D2F81622FC40109956BE0E6
:10181000C4010E94C52D4C016FE577E00E94802D28
:101820006BE0C4010E94C52D4C0162E677E097CEC3
:101830006BE0D80116968D919C9117970E94C52D4B
:101840008C016FE877E00E94802D66E0C8010E945D
:10185000C52D2BE088E190E00FB6F894A895809311
:1018600060000FBE20936000FFCF0FB6F8940F9278
:10187000E0914405F0914505A0860F900FBE0FB68C
:10188000F8940F92E0914E05F0914F0570840F90FF
:101890000FBE6BE0F801868197810E94C52D4C0137
:1018A0006DE977E00E94802D672DC4010E94392EDA
:1018B0006BE00E94C52D4C0164EA77E00E94802D08
:1018C00066E0C4010E94C52D19CE0FB6F8940F92A0
:1018D000E0914E05F0914F05D0840F900FBE6BE064
:1018E000F801868197810E94C52D4C0165EC77E057
:1018F0000E94802D6D2DC4010E94392E4C0169E19A
:1019000072E00E94802D66E0C4010E94C52D61E056
:10191000C8010E94BD29DD24D3947BCCF8018681C7
:101920009781DC01ED91FC910680F781E02D09950E
:10193000282F8C3609F4BCCD0CF0EEC0833009F4AE
:10194000D0C0833609F4B4CDD80116968D909C9002
:101950001797D401ED91FC910280F381E02D62E2B2
:10196000C4012F830995D401ED91FC910280F3818C
:10197000E02D2F81622FC40109956BE0C4010E9404
:10198000C52D4C016FE276E00E94802D6BE0C40112
:101990000E94C52D4C0162E376E0E1CDF80186801E
:1019A0009780D401ED91FC910280F381E02D62E2F9
:1019B000C4012F830995D401ED91FC910280F3813C
:1019C000E02D2F81622FC40109956BE0C4010E94B4
:1019D000C52D4C0169EC78E00E94802D6BE0C401BC
:1019E0000E94C52D4C016CEC78E0B9CDD80116965B
:1019F0008D919C9117970E941C2A0BCC833071F615
:101A00006BE0D80116968D919C9117970E94C52D79
:101A10008C0169EF78E00E94802D66E0C8010E9489
:101A2000C52D2BE088E190E00FB6F894A89580933F
:101A300060000FBE20936000FFCFC8010E947507B1
:101A400064E0C8010E94BD29E4CB833709F445C096
:101A50000CF43CC0843761F1863709F09FCFC80190
:101A60000E941C0763E0C8010E94BD29D2CB6BE035
:101A7000F801868197810E94C52D7C0167E079E09D
:101A80000E94802D66E0C7010E94C52D0FB6F89414
:101A90000F92E0914E05F0914F0510860F900FBE0A
:101AA00061E0C8010E94BD29D12CE12CF12CB1CB01
:101AB000CE0101960E94B12CBC01F801868197816C
:101AC0000E94502C66E00E94C52DA3CB823709F0FE
:101AD00065CFC8010E9408069CCBC8010E9435084A
:101AE00098CB6BE0F801868197810E94C52D8C010F
:101AF0006FE576E00E94802D66E0C8010E94C52D4A
:101B00002BE088E190E00FB6F894A89580936000F0
:101B10000FBE20936000FFCF803709F4C9CC823715
:101B200009F4ECCC11CFB1E0DB1609F451C0B2E0FE
:101B3000DB126FCBEFEFEE16F10411F008F07FC06F
:101B40000FB6F8940F92E0914805F0914905F1869F
:101B5000E0860F900FBE0FB6F8940F92E091460505
:101B6000F0914705A0860F900FBEC8010E9408069D
:101B700060E0C8010E94BD29D12CE12CF12C49CB99
:101B8000F80186819781DC01ED91FC910280F3815F
:101B9000E02D6FE70995F80186819781DC01ED91D1
:101BA000FC910280F381E02D60E20995F8018681C5
:101BB0009781DC01ED91FC910280F381E02D6FE7CC
:101BC0000995C701B2010E94DA377B01CA9421CB83
:101BD000EFEFEE16F10409F030F5BB2019F0F194A7
:101BE000E194F1080FB6F8940F92E0914C05F09152
:101BF0004D05F186E0860F900FBE0FB6F8940F9258
:101C0000E0914A05F0914B05A0860F900FBEC801E8
:101C10000E94080660E0C8010E94BD29B12CD12CA9
:101C2000E12CF12CF6CA6BE0D80116968D919C91AF
:101C300017970E94C52D7C016FE378E060CB6BE0C5
:101C4000D80116968D919C9117970E94C52D7C0105
:101C50006DE078E054CBEC0183E090E00E94492DE8
:101C60008C016E817F8141E00E94561083E090E0FC
:101C70000E94492D7C016E817F8142E00E945610B6
:101C8000E0914A05F0914B05DF010FB6F8940F92F1
:101C900010860F900FBE80E029C0A0914605B0913C
:101CA00047050FB6F8940F920F900FBE18968C91BF
:101CB0001897813009F469C0209144053091450599
:101CC0000FB6F8940F920F900FBEE901888581300E
:101CD00009F430C064E670E080E090E00E94B8252E
:101CE000E0914A05F0914B05DF0180850FB6F8942D
:101CF0000F920F900FBE813081F60FB6F8940F92BD
:101D0000C0914E05D0914F0588850F900FBE813050
:101D100009F46FC00FB6F8940F920F900FBE823087
:101D200009F4B7C00FB6F8940F9218961C920F9052
:101D30000FBEB3CF0FB6F8940F9280914E059091DD
:101D40004F05EC0188850F900FBE813009F441C02A
:101D50000FB6F8940F920F900FBE823009F489C02D
:101D6000E9010FB6F8940F9210860F900FBE0FB6D0
:101D7000F8940F9218961C920F900FBE0FB6F8941D
:101D80000F9218860F900FBEA5CF0FB6F8940F9242
:101D9000C0914E05D0914F0588850F900FBE8130C0
:101DA00009F43BC00FB6F8940F920F900FBE82302B
:101DB00009F449C00FB6F8940F9210860F900FBE29
:101DC0000FB6F8940F9218961C9218970F900FBEAA
:101DD00073CFC8010E94C110C0914405D091450540
:101DE000E0914A05F0914B05A0914605B091470559
:101DF000B8CF0FB6F8940F920F900FBEE0914C053C
:101E0000F0914D0560857185C8010E949210E091A6
:101E10004A05F0914B05DF0185CF0FB6F8940F927C
:101E20000F900FBEE0914805F09149056085C8010B
:101E30000E94D110A0914605B0914705E0914A0556
:101E4000F0914B05B7CF0FB6F8940F920F900FBEDD
:101E5000E0914805F09149056085C7010E94D110C5
:101E6000A0914605B0914705E0914A05F0914B05D8
:101E7000A1CFC7010E94C110C0914405D091450572
:101E8000E0914A05F0914B05A0914605B0914705B8
:101E900068CF0FB6F8940F920F900FBEE0914C05EB
:101EA000F0914D0560857185C7010E949210E09107
:101EB0004A05F0914B05DF0135CF0F931F93CF9368
:101EC000DF93EC010E94072988E392E099838883DD
:101ED000DF91CF911F910F910895CF93DF9300D0A1
:101EE00000D0CDB7DEB78C0182E090E00E94492D92
:101EF0005C01F8016681778147E00E94EA1082E088
:101F000090E00E94492D6C01F8016681778145E0DF
:101F10000E94EA10812C912C40E050E0E0914205B3
:101F2000F09143050FB6F8940F92808591859C83BC
:101F30008B830F900FBEEB80FC80E0914005F09109
:101F400041050FB6F8940F92808591859A83898315
:101F50000F900FBE09811A8125E030E0B701C5015D
:101F60000E949711E0913205F09133050FB6F89475
:101F70000F92918780870F900FBE25E030E0A4017B
:101F8000B801C6010E949711E0913005F09131052A
:101F90000FB6F8940F92918780870F900FBE65E07F
:101FA00070E080E090E00E94B825A7014801B6CF1C
:101FB0000F931F93CF93DF93EC010E94072980E4D6
:101FC00092E099838883DF91CF911F910F910895BB
:101FD00068EE73E080E090E00E94B825F9CF0F939F
:101FE0001F93CF93DF93EC010E94072988E492E0CE
:101FF00099838883DF91CF911F910F9108958C0170
:1020000084E090E00E94492DEC01F801668177811F
:102010000E944A13CE010E948D1361E0CE010E94FE
:102020009E1362E0CE010E949E1363E0CE010E94E7
:102030009E1360ED77E080E090E00E94B825EACF43
:102040000F931F93CF93DF93EC010E94072980E544
:1020500092E099838883DF91CF911F910F9108952A
:102060008C0182E090E00E94492DEC01F80166812C
:1020700077810E94F31369E1CE010E9400146AE0A7
:1020800070E080E090E00E94B825F5CF0F931F9399
:10209000CF93DF93EC010E94072988E592E09983B2
:1020A0008883DF91CF911F910F910895CF93DF9394
:1020B000FC0171836083428380918000816A8093F8
:1020C00080008091800080938000809181008A60F0
:1020D0008093810080918100809381008281813092
:1020E00089F08230B9F0C081D181209781F06CE510
:1020F00072E0CE010E94802D66E0CE01DF91CF918B
:102100000C94C52D87B1876087B9329A269ADF91E2
:10211000CF9108958AB1806E8AB94F9A259ADF913E
:10212000CF910895FC012281213071F0223009F015
:10213000089577FD18C08BB18BB95E985D9A709346
:10214000890060938800089528B128B977FD13C0ED
:102150004198409A70938B0060938A00FC018281C1
:10216000823049F308958BB18BB95E9A5D98719571
:1021700061957109E4CF419A409871956195710913
:10218000E9CFFC012281213039F0223009F0089595
:102190008BB180668BB9089528B1236028B922815C
:1021A000F4CFFC012281213059F0223009F008954A
:1021B0008BB18BB970E070938900609388000895AB
:1021C00028B128B9262F30E030938B0020938A0065
:1021D0002281EBCFCF93DF93DC016D937C93E09171
:1021E0004205F09143050FB6F8940F9211861086C0
:1021F0000F900FBEE0914005F09141050FB6F894A5
:102200000F92118610860F900FBEE0913E05F0915F
:102210003F050FB6F8940F9210860F900FBEE09115
:102220003C05F0913D050FB6F8940F9210860F9083
:102230000FBEE0913A05F0913B050FB6F8940F926E
:1022400010860F900FBEE0913805F09139050FB65A
:10225000F8940F9210860F900FBE8FB780688FBFD3
:1022600060916A00242F30E081E090E0FC01042EB0
:1022700001C0EE0F0A94EAF75E2F50955623509353
:102280006A0050916A00B90161507109EC0102C005
:10229000CC0FDD1F6A95E2F7BE015C2B50936A00FC
:1022A00050916A00D9011297EC0102C0CC0FDD1FDA
:1022B000AA95E2F7DE01A095A523A0936A005091AC
:1022C0006A00D9011397EC0102C0CC0FDD1FAA955B
:1022D000E2F75C2B50936A00473011F1433049F02C
:1022E0008DB18F708DB98EB1806F8EB9DF91CF9126
:1022F00008956DB3A9014E5F5F4FFC0102C0EE0F60
:10230000FF1F4A95E2F76E2B6DBB4DB32F5F3F4F1A
:10231000022E01C0880F0A94EAF7482B4DBBE0CF8C
:102320008DB38E2B8DBB8DB3862B8DBBD9CF461B2A
:10233000570B8CE3849FF001859FF00D1124369597
:1023400027953695279536952795A5ECB0E20E94FE
:102350009537929582958F7089279F70892723EDF5
:1023600033E0829FB001839F700D929F700D112406
:10237000CF010E94C637CB0108951F920F920FB66E
:102380000F9211240BB60F928F939F93AF93BF932D
:10239000EF93FF93CF93DF93CDB7DEB72597DEBFE3
:1023A000CDBFE0913C05F0913D050FB6F8940F923A
:1023B00080858D830F900FBE8D81A0913E05B091D9
:1023C0003F050FB6F8940F9218968C9318970F90BC
:1023D0000FBE9CB18CB180729071892B90E0959565
:1023E00087959595879595958795959587950FB63A
:1023F000F8940F9280870F900FBE18968C918130C1
:1024000009F454C008F442C0823039F1833089F4B1
:102410008085813009F451C08085823009F03CC04C
:10242000E0914205F0914305808591850197918760
:1024300080870F900F900F900F900F90DF91CF91AA
:10244000FF91EF91BF91AF919F918F910F900BBE34
:102450000F900FBE0F901F9018958085833069F103
:102460008085811119C0E0914205F09143050FB6B6
:10247000F8940F92808591859A8389830F900FBE7F
:1024800089819A81019791878087D3CF8085823017
:10249000A1F080858130D9F0E0913605F0913705C3
:1024A00080859185019691878087C3CF8085882319
:1024B00021F08085833081F7B3CFE0914205F09120
:1024C000430580859185019691878087B2CFE09101
:1024D0004205F09143050FB6F8940F9280859185DF
:1024E0009C838B830F900FBE8B819C81019791877A
:1024F00080879FCF0C94BD111F920F920FB60F9241
:1025000011240BB60F928F939F93AF93BF93EF93CA
:10251000FF93E0913805F09139058085A0913A0547
:10252000B0913B0518968C9318979CB18CB180782C
:102530009074892B90E0082E892F000C881F990B2E
:10254000000C881F991F808718968C918130E9F1C3
:1025500060F1823071F08330D9F48085813009F4E4
:102560003FC0E0913C05F0913D058085823019F532
:1025700006C080858330A1F1808581111CC0E09167
:102580004005F0914105808591850197918780876D
:10259000FF91EF91BF91AF919F918F910F900BBEE3
:1025A0000F900FBE0F901F90189580858230C1F05C
:1025B0008085813021F3E0913405F09135058085E7
:1025C0009185019691878087E3CF8085882341F0AC
:1025D000E0913C05F0913D058085833061F7CFCFD8
:1025E000E0914005F09141058085918501969187A4
:1025F0008087CECF0C947C12CF93DF93EC01262FF3
:102600004DE360E58A819B810E94471B6BE08881D6
:1026100099810E94C52DEC0169E679E00E94802D28
:1026200066E0CE01DF91CF910C94C52DCF93DF935F
:10263000EC01262F4EE360E58A819B810E94471BB7
:102640006BE0888199810E94C52DEC0166E579E0F7
:102650000E94802D66E0CE01DF91CF910C94C52DB4
:10266000CF93DF93EC0120E04BE360E58A819B810F
:102670000E94471B6BE0888199810E94C52DEC0167
:1026800068E479E00E94802D66E0CE01DF91CF9171
:102690000C94C52D0F931F93CF93DF93EC01798397
:1026A000688384E090E00E94492D8C0168817981E3
:1026B0000E94C8181B830A8340E060E5C8010E949D
:1026C000B6196BE0803A09F1888199810E94C52D85
:1026D0008C0167EA79E0C8010E94802D66E0C8019C
:1026E0000E94C52D60E0CE010E94FC1260E0CE0188
:1026F0000E941613CE010E9430136CE0CE01DF91D0
:10270000CF911F910F910C94FC12888199810E94A6
:10271000C52D8C0160E879E0DECFCF93DF93EC012B
:1027200049E360E58A819B810E94B61946E360E532
:102730008A819B81DF91CF910C94B6191F93CF931F
:10274000DF93EC016130D1F1623009F440C06330B5
:10275000A1F06BE0888199810E94C52DEC0163E3B3
:1027600079E00E94802D66E0CE010E94C52D80E0B8
:1027700090E0DF91CF911F9108954FE160E58A814C
:102780009B810E94B619182F4EE160E58A819B81DA
:102790000E94B619212F30E0322F2227282B37FD37
:1027A0001FC0C901959587959595879595958795AE
:1027B00095958795DF91CF911F9108954BE160E545
:1027C0008A819B810E94B619182F4AE1DECF4DE124
:1027D00060E58A819B810E94B619182F4CE1D5CF04
:1027E000215F3F4FDECF84B5836884BD84B58F7B86
:1027F00084BD85B585BD85B5856085BD279A08955D
:10280000643138F06F3110F467BD08956EE167BD33
:10281000089564E167BD0895FC0171836083EAE770
:10282000F0E0808180688083808181608083808106
:102830008D7F8083808184608083ECE7F0E08081FD
:102840008064808380818F778083089580917C006D
:10285000887F80937C0080917C006770682B6093F8
:102860007C0080917A00806480937A0080917A0065
:1028700086FDFCCF809178009091790008954034D6
:1028800030F1ECE3F0E04CE3677080E090E0209101
:102890007C00287F20937C0020917C00262B2093B5
:1028A0007C0020917A00206420937A0020917A00A5
:1028B00026FDFCCF2091780030917900820F931F84
:1028C000415029F7BF010E94C637CB010895442328
:1028D00019F0E42FF0E0D8CFE0E0F0E080E090E005
:1028E000BF010E94C637CB0108952F923F924F92AD
:1028F0005F926F927F928F929F92AF92BF92CF9290
:10290000DF92EF92FF920F931F93CF93DF9300D04C
:1029100000D000D0CDB7DEB79E838D8380917C0040
:10292000887F80937C0080917C00876080937C000E
:1029300080917A00806480937A0080917A0086FD8D
:10294000FCCF209178003091790080917C00887FC5
:1029500080937C0080917C00866080937C008091D5
:102960007A00806480937A0080917A0086FDFCCFA3
:10297000209078003090790080917C00887F80934F
:102980007C0080917C00856080937C0080917A003F
:10299000806480937A0080917A0086FDFCCF40901D
:1029A00078005090790080917C00887F80937C0033
:1029B00080917C00846080937C0080917A008064A8
:1029C00080937A0080917A0086FDFCCF0091780098
:1029D0001091790080917C00887F80937C008091A9
:1029E0007C00836080937C0080917A008064809377
:1029F0007A0080917A0086FDFCCFE0907800F0901C
:102A0000790080917C00887F80937C0080917C009D
:102A1000826080937C0080917A00806480937A0049
:102A200080917A0086FDFCCFC0907800D09079002C
:102A300080917C00887F80937C0080917C00816005
:102A400080937C0080917A00806480937A008091EA
:102A50007A0086FDFCCFA0907800B090790080913C
:102A60007C00887F80937C0080917C0080937C0038
:102A700080917A00806480937A0080917A0086FD4C
:102A8000FCCF809078009090790040917C0050912C
:102A90007A006BE08D819E812B833C834A8359832E
:102AA0000E94C52D3C016DEC79E00E94802D59817A
:102AB000652FC3010E94F72E66E00E94C52D6BE0D2
:102AC0000E94C52D3C0166ED79E00E94802D4A816F
:102AD000642FC3010E94F72E66E00E94C52D6BE0B3
:102AE0000E94C52D3C016EED79E00E94802DB4015D
:102AF000C3010E94752E66E00E94C52D6BE00E9406
:102B0000C52D4C0166EE79E00E94802DB501C4010F
:102B10000E94752E66E00E94C52D6BE00E94C52DB7
:102B20005C016EEE79E00E94802DB601C5010E9425
:102B3000752E66E00E94C52D6BE00E94C52D6C01CC
:102B400066EF79E00E94802DB701C6010E94752EC4
:102B500066E00E94C52D6BE00E94C52D7C016EEFE2
:102B600079E00E94802DB801C7010E94752E66E0B1
:102B70000E94C52D6BE00E94C52D8C0166E07AE0B5
:102B80000E94802DB201C8010E94752E66E00E944D
:102B9000C52D6BE00E94C52D8C016EE07AE00E948D
:102BA000802DB101C8010E94752E66E00E94C52DDE
:102BB0006BE00E94C52D8C0166E17AE00E94802DB9
:102BC0002B813C81B901C8010E94752E66E00E94EC
:102BD000C52D8D819E8126960FB6F894DEBF0FBE5F
:102BE000CDBFDF91CF911F910F91FF90EF90DF90BC
:102BF000CF90BF90AF909F908F907F906F905F909D
:102C00004F903F902F900895CF93DF93EC01DC011C
:102C10006D937D938DE0E8E0F2E001900D928A954E
:102C2000E1F7188A1F861A8A198A1C8A1B8A1E8A4B
:102C30001D8A188E1F8A1C8E1B8EDF91CF910895DE
:102C4000FC016283148E138E0895CF93DF93EC0101
:102C5000CB016F857889788F6F8B988B8F870E94D7
:102C60004D189A8F898FDF91CF910895FC01728B57
:102C7000618B0895FC01748B638B0895AF92BF92B2
:102C8000CF92DF92EF92FF920F931F93CF93DF9338
:102C9000CDB7DEB72D970FB6F894DEBF0FBECDBF10
:102CA000A982BA82CB82DC82ED82FE820F831887F2
:102CB00029873A874B875C876D872DE0FE01319627
:102CC000DC01129601900D922A95E1F7FC01148E19
:102CD000138E2D960FB6F894DEBF0FBECDBFDF91D9
:102CE000CF911F910F91FF90EF90DF90CF90BF9009
:102CF000AF900895FC01748363830895FC0176838B
:102D000065830895FC01708767830895FC017287CD
:102D100061870895FC017487638756874587089506
:102D2000FC0182810895FC01878590890895FC014A
:102D3000818992890895FC018389948908952DE001
:102D4000FB013296DC0101900D922A95E1F708957E
:102D5000FC01858196810895FC0183819481089509
:102D6000FC01878190850895FC01818592850895F5
:102D7000FC01838594850895FC01858596850895D9
:102D80000F931F93CF93DF93EC018F8598892B8945
:102D90003C89821B930B9E8B8D8B6D8D7E8D8985DF
:102DA0009A850E94971840E054E00E94A9188C016F
:102DB0006D897E898B8D9C8D0E943018B8010E9490
:102DC0004D189C8F8B8F8A81833009F472C090F5E7
:102DD000813009F463C0823009F044C06D897E8976
:102DE0008B819C810E94971840E054E00E94A918B2
:102DF0008C016B8D7C8D8D819E810E94971840E0A7
:102E000054E00E94A918B8010E9430186D857E8593
:102E100068177907D4F06B857C85861797070CF4C3
:102E200058C01E8E1D8E9A8B898BDF91CF911F917A
:102E30000F9108958430C9F08530A1F489899A8969
:102E40006D857E856817790734F70E944D189E8F2F
:102E50008D8F8D859E85898B9A8BDF91CF911F9168
:102E60000F91089580E090E0D1CF6D897E898B81AC
:102E70009C810E94971840E054E00E94A9188C01A0
:102E8000698D7A8D8F8198850E94971840E054E073
:102E90000E94A918B8010E943018AACF6D897E89B6
:102EA0008B819C810E94971840E054E00E94A918F1
:102EB000ADCF6D897E898B819C810E94971840E0FF
:102EC00054E00E94A9188C01698D7A8D8F819885B4
:102ED00094CF0E944D189E8F8D8F8B859C85898BFA
:102EE0009A8BDF91CF911F910F9108950F931F93AC
:102EF000CF93DF93EC01CB018A016F857889788FBE
:102F00006F8B988B8F870E944D189A8F898F1C8B9F
:102F10000B8BCE01DF91CF911F910F910C94C016B6
:102F20004F925F926F927F928F929F92AF92BF92D9
:102F3000CF92DF92EF92FF920F931F93CF93DF9385
:102F4000EC01FB0141845284678070840381148109
:102F5000E580F680C584D684A384B4848280912CD5
:102F60006DE872E00E94802D62E0CE010E94C52DC6
:102F7000B4010E940A2E66E00E94C52D4C0168E94A
:102F800072E00E94802D62E0C4010E94C52DB5014F
:102F90000E940A2E5C0165EA72E00E94802D62E0C8
:102FA000C5010E94C52DB6010E940A2E66E00E944E
:102FB000C52D6C016AEA72E00E94802D66E0C601B0
:102FC0000E94C52D6C0161EB72E00E94802D62E0D1
:102FD000C6010E94C52DB7010E940A2E66E00E941C
:102FE000C52D7C016DEB72E00E94802D62E0C7016F
:102FF0000E94C52DB8010E940A2E66E00E94C52DD0
:103000008C0169EC72E00E94802D62E0C8010E9490
:10301000C52DB3010E940A2E66E00E94C52D8C01C9
:1030200065ED72E00E94802D62E0C8010E94C52D0E
:10303000B2010E940A2E66E00E94C52DCE01DF91EA
:10304000CF911F910F91FF90EF90DF90CF90BF90A5
:10305000AF909F908F907F906F905F904F9008956A
:103060009C01432F4095441F4427441F80E090E873
:10307000841B9109AC01421B530BE1E04617570733
:103080000CF0E0E0432F4095441F4427441FE41711
:1030900019F0C901860F971F08958617970799F1B0
:1030A000611520E8720741F1719561957109492F09
:1030B0004095441F4427441F20E030E8241B310979
:1030C000A901481B590BE1E04617570764F4492F43
:1030D0004095441F4427441FE41719F0860F971F9B
:1030E0000895C9010895E0E0492F4095441F442701
:1030F000441FE417B1F3F2CF97FD03C06FEF7FE7F2
:10310000D6CF0196FBCF80E090E00895811520E8AE
:10311000920729F09C0197FD05C0C90108958FEF22
:103120009FE70895319521953109C90108958115C9
:1031300020E8920729F09C01DB010E948D37089559
:10314000611520E87207B9F76FEF7FEF8FEF9FE708
:1031500008959A01442737FD4095542F0E94103856
:10316000211580E838074105510524F02FEF3FE78E
:1031700040E050E0DA01C901811520E892072FEF05
:10318000A207B20724F480E090E8AFEFBFEF089504
:10319000CF93DF93EC017983688388E48093B80050
:1031A00081E00E94B81F9B838A83892B19F0DF91ED
:1031B000CF9108950990D881C02D2097C1F362EA7C
:1031C00074E0CE010E94802D66E0CE01DF91CF91A8
:1031D0000C94C52D84EA8093BC008091BC0087FDCF
:1031E0000AC089EE93E003C00197009769F020912F
:1031F000BC0027FFF9CF9091B900987F81E098300B
:1032000009F0089580E0089581E008951F93CF9319
:10321000DF9324EA2093BC002091BC0027FD0CC062
:1032200029EE33E005C02150310921153105C1F1E6
:103230004091BC0047FFF7CF2091B900287F203193
:1032400051F1FC0180819181009729F11091B90021
:103250006BE00E94C52DEC0162E77AE00E94802DB0
:1032600063E0CE010E94C52D612F0E94F72E6BE016
:103270000E94C52DEC0163E87AE00E94802D62E097
:10328000CE010E94C52D66E00E94C52D80E0DF9131
:10329000CF911F91089580E0DF91CF911F91089504
:1032A00081E0DF91CF911F910895CF93DF936093D9
:1032B000BB0024E82093BC002091BC0027FD0CC07B
:1032C00029EE33E005C0215031092115310591F077
:1032D0004091BC0047FFF7CF9091B900987F81E003
:1032E000983129F0983219F0903409F080E0DF919C
:1032F000CF910895FC01808191810097B9F36BE033
:103300000E94C52DEC0161E67AE00E94802D66E006
:10331000CE010E94C52D80E0DF91CF9108956623F4
:10332000E9F084EC8093BC0040E59091BC0097FDEF
:103330000AC089EE93E003C00197009769F02091DD
:10334000BC0027FFF9CF2091B900287F30E0842FFF
:1033500090E02817390739F08FEF089584E88093BB
:10336000BC0048E5E2CF8091BB000895FF920F9327
:103370001F93CF93DF93EC01162FF42E00E02FEF75
:103380003FEFA90160E070E08A819B810E942120CB
:1033900084EA8093BC008091BC0087FD0CC029EEBC
:1033A00033E005C0215031092115310531F08091FC
:1033B000BC0087FFF7CF8091B900612FCE010E943A
:1033C000551981111AC088819981009721F066EB07
:1033D00074E00E94802D00E020E030E0A90160E070
:1033E00070E08A819B810E94001F11E0812FDF9194
:1033F000CF911F910F91FF9008956F2DCE010E94E4
:103400005519882301F384E98093BC0084EA8093F2
:10341000BC008091BC0087FD0CC029EE33E005C0E4
:10342000215031092115310531F08091BC0087FF11
:10343000F7CF8091B900612F6160CE010E945519CC
:1034400081111AC088819981009721F06CEB74E09A
:103450000E94802D00E020E030E0A90160E070E0F3
:103460008A819B810E94001F1FEF812FDF91CF91E6
:103470001F910F91FF90089584E88093BC00809184
:10348000BC0087FD0CC029EE33E005C02150310996
:103490002115310549F08091BC0087FFF7CF80915D
:1034A000B900887F8835A9F01FEF84E98093BC00BC
:1034B00000E020E030E0A90160E070E08A819B81BB
:1034C0000E94001F812FDF91CF911F910F91FF90DC
:1034D00008951091BB00E9CFCF92DF92EF92FF9257
:1034E0000F931F93CF93DF93EC01C62ED42E790157
:1034F000102F00E02FEF3FEFA90160E070E08A811C
:103500009B810E94212084EA8093BC008091BC00B2
:1035100087FD0AC0E9EEF3E003C03197309731F040
:103520009091BC0097FFF9CF8091B9006C2DCE012E
:103530000E94551981111EC088819981009721F040
:1035400062EC74E00E94802D00E020E030E0A901F0
:1035500060E070E08A819B810E94001FDD24D3948B
:103560008D2DDF91CF911F910F91FF90EF90DF9004
:10357000CF9008956D2DCE010E945519D82E882325
:10358000D9F284E98093BC0084EA8093BC008091E6
:10359000BC0087FD0CC049EE53E005C04150510905
:1035A0004115510531F09091BC0097FFF7CF809104
:1035B000B9006C2D6160CE010E945519811113C0B4
:1035C00088819981009721F068EC74E00E94802D39
:1035D00000E020E030E0A90160E070E08A819B819A
:1035E0000E94001FBDCF8FEF810F19F1F70124EC6E
:1035F0002093BC009091BC0097FD0CC049EE53E0B5
:1036000005C0415051094115510549F09091BC0048
:1036100097FFF7CF9091B900987F903591F19FEF88
:103620009193815029F71250812F90E00196E80E76
:10363000F91E84E88093BC008091BC0087FD0AC01D
:1036400089EE93E003C00197009749F02091BC00F8
:1036500027FFF9CF8091B900887F8835A9F08FEFD7
:10366000F701808384E98093BC0000E020E030E033
:10367000A90160E070E08A819B810E94001FD12C2B
:103680006FCF9091BB00CCCF8091BB00E9CFEF9280
:10369000FF920F931F93CF93DF93EC01162FF42E1D
:1036A000E22E00E02FEF3FEFA90160E070E08A8199
:1036B0009B810E94212084EA8093BC008091BC0001
:1036C00087FD0AC0E9EEF3E003C03197309731F08F
:1036D0008091BC0087FFF9CF8091B900612FCE01A6
:1036E0000E94551981111AC088819981009721F093
:1036F0006EEC74E00E94802D00E020E030E0A90133
:1037000060E070E08A819B810E94001F81E0DF9170
:10371000CF911F910F91FF90EF9008956F2DCE01E3
:103720000E945519882301F36E2DCE010E94551970
:103730008823D1F284E98093BC0000E020E030E0EF
:10374000A90160E070E08A819B810E94001F80E0F7
:10375000DECFBF92CF92DF92EF92FF920F931F9333
:10376000CF93DF937C01C62FD42FB22E132FD02EF0
:1037700000E02FEF3FEFA90160E070E0DC0112965E
:103780008D919C9113970E94212084EA8093BC0024
:103790008091BC0087FD0AC0E9EEF3E003C03197D9
:1037A000309731F08091BC0087FFF9CF8091B9004C
:1037B0006C2FC7010E945519811123C0D7018D912B
:1037C0009C91009721F064ED74E00E94802D00E050
:1037D00020E030E0A90160E070E0D70112968D9101
:1037E0009C9113970E94001FCC24C3948C2DDF91D1
:1037F000CF911F910F91FF90EF90DF90CF90BF90EE
:1038000008956D2FC7010E945519C82E8823B1F263
:10381000DD2079F1CB2DD12F10E003C01F5F1D15E6
:1038200041F16991C7010E9455198111F7CFF70144
:10383000C081D181209789F06AED74E0CE010E94A9
:10384000802D612FCE010E94F72EDC01ED91FC91BD
:103850000280F381E02D6EE3099500E020E030E086
:10386000A90160E070E0F701828193810E94001F4E
:10387000BDCF84E98093BC0000E020E030E0A901E6
:1038800060E070E0F701828193810E94001FC12CEB
:10389000ADCF8BB18695817008950F931F93CF9311
:1038A000DF93EC01162F00E02FEF3FEFA90160E05E
:1038B00070E08A819B810E94212084EA8093BC0071
:1038C0008091BC0087FD0CC029EE33E005C021507B
:1038D00031092115310531F08091BC0087FFF7CF08
:1038E0008091B900612FCE010E945519182F84E9EB
:1038F0008093BC0000E020E030E0A90160E070E0CF
:103900008A819B810E94001F812FDF91CF911F919F
:103910000F910895CF92DF92EF92FF920F931F9332
:10392000CF93DF938C01EB016BE0CE010E94C52D9C
:103930007C016DE47AE00E94802D63E0C7010E9463
:10394000C52D66E00E94C52DE12CF12C6E2DCE0117
:103950000E94F72EDC01ED91FC910280F381E02DB5
:1039600060E30995CE2CC29480EFC822D12C08C008
:1039700060E4CE010995D394D394B0E1DB16E1F075
:10398000E881F9810280F381E02D60E2CE010995A2
:103990006D2D6C29C8010E944D1CE881F9810280BF
:1039A000F381E02D8111E4CF6DE2CE010995D3942E
:1039B000D394B0E1DB12E4CF66E0CE010E94C52DC6
:1039C0008FEFE81AF80AA0E1EA16F10409F0BECF79
:1039D00062E0CE01DF91CF911F910F91FF90EF90A8
:1039E000DF90CF900C94C52D0F931F93CF93DF934F
:1039F000EC010E94AB2380915205811121C08CE51E
:103A000095E0909358058093570510925A051092AF
:103A1000590587E397E190935605809355051092D9
:103A200054051092530590935F0580935E0583E5DE
:103A300095E090935D0580935C0581E0809352054D
:103A4000209709F460C0AE014C5F5F4F2396C633E8
:103A5000D74108F058C0E0915705F0915805A7E507
:103A6000B5E006C080819181009739F0DF01FC014B
:103A70002281338124173507A8F3C5E0E335FC071D
:103A800009F441C00D911C9111970C5F1F4F80816B
:103A900091818D939C93C901841B950B893091056D
:103AA00000F1BF01640F751FDB0113969C938E9389
:103AB00012975383428312968D919C911397A7E599
:103AC000B5E001C0DF01ED91FC91119722813381B6
:103AD00028173907B8F3EB01F983E8836D937C93DA
:103AE0009A018091000290910102821B930B9093A6
:103AF0000102809300020E94DE24C801DF91CF9171
:103B00001F910F91089500E010E00E94DE24C8018B
:103B1000DF91CF911F910F910895CF93DF9300977D
:103B200021F1EC0124970E94AB234A815B81A7E538
:103B3000B5E001C0DF01ED91FC9111972281338145
:103B400024173507B8F3F983E883CD93DC9380918C
:103B5000000290910102840F951F909301028093BF
:103B60000002DF91CF910C94DE24DF91CF91089574
:103B70008091000290910102089508951F93CF93C0
:103B8000DF93EC01142F88A181110DC088819981E8
:103B9000892B09F44DC080E09E8D9F5F9E8FDF9141
:103BA000CF911F910895482F50E011111CC08C81B6
:103BB0009D810E942B3928A18C819D81820F911DAE
:103BC0009D838C832A813B818217930720F3888110
:103BD00099819D838C8380E09E8D9F5F9E8FDF9176
:103BE000CF911F9108958E819F810E942B3928A12A
:103BF00030E03195219531098E819F81820F931F8D
:103C00009F838E83688179818617970730F48A8134
:103C10009B81820F931F9F838E83123009F0BBCF4D
:103C20008E8D882309F4B7CF8E8D81508E8FB3CFC0
:103C30008A819B810E9409281B821A82ADCFFC01D8
:103C4000CB0140A1442399F050E026813781240F15
:103C5000351F37832683628173812617370720F04B
:103C60002081318137832683B9010C942B39089543
:103C70000F931F93CF93DF93EC010FB6F8940F923D
:103C80008AA11816ECF48B898823D1F08E010D5E81
:103C90001F4F09C08AA181508AA38AA1181684F4F3
:103CA0008B89882369F0C8010E949526882391F3A7
:103CB0000E9489278AA181508AA38AA1181684F3B9
:103CC0008FEF8AA30F900FBE0FB6F8940F9289A1C1
:103CD0001816ECF488858823D1F08E01085F1F4FF9
:103CE00009C089A1815089A389A1181684F4888507
:103CF000882369F0C8010E949526882391F30E94C9
:103D0000892789A1815089A389A1181684F38FEF8F
:103D100089A30F900FBEDF91CF911F910F9108954E
:103D2000CF93DF93EC010FB6F8940F92288139817D
:103D30008F8D78A1879FC0011124A901480F591FB9
:103D40005B834A831E8E3D832C83871B9109820FE0
:103D5000931F9F838E838FEF89A38AA3611112C063
:103D60008885811106C00F900FBE81E0DF91CF9151
:103D70000895CE0108960E9495268130A1F70E94F1
:103D80007532F1CFCE0108960E940631CE014396DE
:103D90000E9406310F900FBE81E0DF91CF91089510
:103DA0000F931F93CF93DF93182F062F882301F1D2
:103DB00083E290E00E94F41CEC010097C9F0109F90
:103DC000C001112401960E94F41C99838883892BD9
:103DD00061F01F8F08A361E0CE010E94901ECE010A
:103DE000DF91CF911F910F910895CE010E948D1DFB
:103DF000C0E0D0E0CE01DF91CF911F910F910895E7
:103E00006F927F928F929F92AF92BF92CF92DF92EA
:103E1000EF92FF920F93CF93DF93CDB7DEB7299741
:103E20000FB6F894DEBF0FBECDBF5C014B012E83F1
:103E30003F834887598720E03C0188E0680E711C69
:103E40000FB6F8940F92F501968D878D981708F4A8
:103E500059C0023009F456C0CE80DF80E884F9846E
:103E6000CD28CE28CF2809F46FC0222309F441C001
:103E70000F900FBE0E94AB230FB6F8940F92F5017E
:103E800081A18F3F09F43CC0F50182A18F3FB1F1C0
:103E90000F900FBEBE016A5F7F4FCE0101960E9458
:103EA0002827811155C00FB6F8940F92F501968D11
:103EB0000F900FBEF501878D981314C04E815F815E
:103EC00068857985C3010E943A26C5010E94381E83
:103ED0000E94DE24882311F021E0B2CF0E947532C7
:103EE00021E0AECFC5010E94381E0E94DE2421E0F1
:103EF000A7CFCE0101960E941727BACF12A2C8CF32
:103F000011A2C2CF402FB401C5010E94BE1DF50110
:103F10009389911124C0811128C00F900FBE81E0B8
:103F200029960FB6F894DEBF0FBECDBFDF91CF91BB
:103F30000F91FF90EF90DF90CF90BF90AF909F9048
:103F40008F907F906F9008950F900FBE80E0E8CF24
:103F5000C5010E94381E0E94DE2480E0E1CFC50129
:103F600043960E9495268130C1F60E947532D5CFC6
:103F70000F93CF93DF9383E290E00E94F41CEC0157
:103F8000009701F11B821A82198218821D821C82FD
:103F90001F821E821E8E81E08F8F18A28FEF89A351
:103FA0008AA3CE0108960E940631CE0143960E9454
:103FB000063100E020E030E0A90160E070E0CE01D1
:103FC0000E94001FCE01DF91CF910F9108950F93B2
:103FD0001F93CF93DF93EC018A019E8D8F8D9817ED
:103FE00040F0223031F080E0DF91CF911F910F91AE
:103FF0000895422FCE010E94BE1D882331F0011585
:10400000110519F081E0F80180838AA18F3F49F002
:104010008AA18F5F8AA381E0DF91CF911F910F91D9
:1040200008958B898823B9F3CE0143960E94952683
:10403000882389F30115110571F381E0F80180836C
:10404000D3CFAF92BF92CF92DF92EF92FF920F93B6
:10405000CF93DF93CDB7DEB729970FB6F894DEBFC5
:104060000FBECDBF7C016B012E833F8348875987EC
:1040700090E0570183E1A80EB11C0FB6F8940F929F
:10408000F701868D811169C04E815F8168857985D0
:10409000452B462B472B09F47DC0992309F43EC0DC
:1040A0000F900FBE0E94AB230FB6F8940F92F7014A
:1040B00081A18F3F09F43EC0F70182A18F3F09F42F
:1040C0003FC00F900FBEBE016A5F7F4FCE010196C9
:1040D0000E942827811171C00FB6F8940F92F70142
:1040E000868D0F900FBE81111EC0F70180819181D6
:1040F000892B41F14E815F8168857985C5010E94D8
:104100003A26C7010E94381E0E94DE24882311F03F
:1041100091E0B3CF0E94753291E0AFCFCE0101960E
:104120000E941727BDCFC7010E94381E0E94DE24BF
:1041300091E0A3CF11A2F70182A18F3F09F0C1CF77
:1041400012A2BFCF0FB6F8940F92F701828193812C
:104150000E94AE270F900FBECDCFA680B780B601CC
:10416000C7010E941F1EF70101112EC0868D8150CC
:10417000868F80819181892BB9F1F7018085882311
:1041800041F1C70108960E949526813011F50E94E1
:1041900075321FC00F900FBE80E029960FB6F894BD
:1041A000DEBF0FBECDBFDF91CF910F91FF90EF909B
:1041B000DF90CF90BF90AF900895C7010E94381E46
:1041C0000E94DE2480E0E9CFB782A6828389811134
:1041D00004C00F900FBE81E0E0CFC70143960E945C
:1041E00095268823B1F3D3CF0E947028F7019383DB
:1041F0008283C3CF0F931F93CF93DF9300D0CDB7AC
:10420000DEB78C01FC01868D811108C080E00F9023
:104210000F90DF91CF911F910F910895C8014983AD
:104220005A830E941F1EF801868D8150868F81A1BE
:1042300049815A818F3F61F0F80181A18F5F81A38D
:1042400081E00F900F90DF91CF911F910F91089512
:1042500080858823A9F3C801089649835A830E9460
:10426000952649815A81882359F34115510541F317
:1042700081E0FA018083CBCF0F931F93CF93DF931D
:10428000EC018E8D811106C080E0DF91CF911F91EE
:104290000F9108950E811F81CE010E941F1E1F8362
:1042A0000E8381E0DF91CF911F910F9108950FB69A
:1042B000F8940F92FC01868D0F900FBE08950FB6F3
:1042C000F8940F92FC01268D0F900FBEFC01878D94
:1042D000821B0895FC01868D0895CF93DF93EC0136
:1042E00088819981009711F00E948D1DCE01DF9188
:1042F000CF910C948D1DFC01968D81E0911180E091
:104300000895FC01268D81E0978D291380E00895A2
:104310008091C81C823018F00E947532F9CFFFCF0F
:10432000CF92DF92EF92FF926B017C01E091931CA0
:10433000F091941C628373838483958380919C1C89
:1043400090919D1CA0919E1CB0919F1C6091931C0C
:104350007091941CC816D906EA06FB0610F18091EC
:10436000B01C9091B11C6E5F7F4F0E943C318091D8
:10437000020290910302A0910402B0910502C816B6
:10438000D906EA06FB0640F4C0920202D09203026C
:10439000E0920402F0920502FF90EF90DF90CF9040
:1043A00008958091AE1C9091AF1C6E5F7F4FFF907F
:1043B000EF90DF90CF900C943C315F926F927F92A0
:1043C0008F929F92AF92BF92CF92DF92EF92FF9225
:1043D0000F931F93CF93DF934C01162F572E5A0143
:1043E000390189E290E00E94F41CEC01009709F485
:1043F000E9C0C114D10409F4DAC0DC8ECB8EC60149
:10440000A50165EA70E00E94343921E0A21AB108E2
:10441000CB8CDC8CCA0CDB1CAE01435E5F4FE12F02
:10442000F52D2AE0CF013191DA013D93AD01DC0198
:104430008C91882311F02150A9F71EA2102F04306F
:1044400008F07DC01A8F1FA318A65E01B2E0AB0E64
:10445000B11CC5010E941731CE010E960E94173182
:10446000DB87CA8784E090E0A0E0B0E0811B91097F
:10447000A109B1098E879F87A88BB98BDF8BCE8B63
:10448000A301B401C6010E94A53199838883E11478
:10449000F10419F0F701D183C0830FB6F8940F929D
:1044A0008091A01C8F5F8093A01C8091931C9091A1
:1044B000941C892B09F449C080919A1C81110BC06E
:1044C000E091931CF091941C828D081720F0D093FA
:1044D000941CC093931C8091961C8F5F8093961CB4
:1044E0008A8D90919B1C981738F1FBE08F9FC0013B
:1044F0001124B5018853934E0E941B310F900FBEBB
:1045000080919A1C882339F0E091931CF091941CBF
:10451000828D8017B0F081E0DF91CF911F910F91D4
:10452000FF90EF90DF90CF90BF90AF909F908F90D3
:104530007F906F905F90089580939B1CD6CF13E07F
:1045400081CF0E94753281E0E7CFD093941CC09355
:10455000931C8091A01C813009F0BDCF88EC9CE1B8
:104560000E94063183ED9CE10E9406318EED9CE1B4
:104570000E94063189EE9CE10E9406318DEB9CE1A0
:104580000E94063182EB9CE10E94063183EA9CE1A5
:104590000E9406318DEB9CE19093B11C8093B01C7E
:1045A00082EB9CE19093AF1C8093AE1C94CFC5012D
:1045B0000E94F41C9C8F8B8F009709F021CFCE01B5
:1045C0000E948D1D8FEFA8CF0FB6F8940F92009721
:1045D00029F00F900FBEFC01828D08958091931CED
:1045E0009091941C0F900FBEFC01828D0895EF9264
:1045F000FF921F93CF93DF93EC01262F643008F0D6
:1046000023E00FB6F8940F92209709F44AC03FA117
:104610003217A9F18091931C9091941C3217B8F530
:10462000C817D90741F0E091931CF091941C11E058
:10463000828D281708F410E08A8D381769F12FA3AE
:104640004E855F856889798977FD0CC044E050E02C
:1046500060E070E0421B5109610971094E875F8774
:10466000688B798B2BE0829FC00111248853934E75
:104670002C853D8528173907C9F0113079F00F9046
:104680000FBEDF91CF911F91FF90EF90089511E041
:10469000C817D90781F6D0CF2A8FD1CF0E947532A3
:1046A000EECFC091931CD091941CB1CF7E0182E0DB
:1046B000E80EF11CC7010E9479318A8D90919B1CF4
:1046C000981710F480939B1C2BE0829FC00111244B
:1046D000B7018853934E0E941B31CFCFAF92BF9248
:1046E000CF92DF92EF92FF920F93A12CB12CC12CAD
:1046F000D12C81EAE82E8CE1F82E00E020E030E0B9
:1047000044E650E06EED74E088E891E20E94DD211D
:10471000813041F00F91FF90EF90DF90CF90BF90EC
:10472000AF900895F89480939A1C10929C1C10925C
:104730009D1C10929E1C10929F1C0F91FF90EF9059
:10474000DF90CF90BF90AF900C943932F8941092D4
:104750009A1C0C9474328091951C8F5F8093951CE9
:1047600008950FB6F8940F9260919C1C70919D1C57
:1047700080919E1C90919F1C0F900FBE0895609198
:104780009C1C70919D1C80919E1C90919F1C089573
:104790008091A01C0895009711F04D960895809186
:1047A000931C9091941C4D9608958091A11C90911A
:1047B000A21C0895AF92BF92CF92DF92EF92FF9228
:1047C0000F931F93CF93DF938091951C8111CFC0DE
:1047D00080919C1C90919D1CA0919E1CB0919F1C4F
:1047E0000196A11DB11D80939C1C90939D1CA093CC
:1047F0009E1CB0939F1CC0909C1CD0909D1CE09070
:104800009E1CF0909F1CC114D104E104F10439F501
:104810008091B01C9091B11C2091AE1C3091AF1CC6
:104820003093B11C2093B01C9093AF1C8093AE1CAE
:104830008091971C8F5F8093971CE091B01CF09142
:10484000B11C808181119AC08FEF9FEFDC018093B2
:10485000020290930302A0930402B0930502809198
:10486000020290910302A0910402B0910502B12CC2
:10487000C816D906EA06FB0608F457C09BE0A92E25
:10488000E091B01CF091B11C8081882309F442C0F2
:10489000E091B01CF091B11C0780F085E02DC0853F
:1048A000D1854A815B816C817D81C416D506E6067F
:1048B000F70608F47AC08E010E5F1F4FC8010E94F0
:1048C0007931888D998D892B21F0CE010E960E9429
:1048D00079318A8D90919B1C981710F480939B1CC2
:1048E000A89EC0011124B8018853934E0E941B3129
:1048F000E091931CF091941C9A8D828D981708F486
:10490000BFCFBB24B394E091B01CF091B11C808167
:104910008111BECF4FEF5FEFBA0140930202509377
:1049200003026093040270930502E091931CF091DE
:10493000941CE28D8BE0E89FF0011124E853F34EC4
:104940008081823010F0BB24B3948091981C88231E
:1049500011F0BB24B3948B2DDF91CF911F910F9158
:10496000FF90EF90DF90CF90BF90AF90089580912F
:10497000991C8F5F8093991CB12CE7CFE091B01CFC
:10498000F091B11C0780F085E02D0084F185E02DC9
:1049900082819381A481B581809302029093030266
:1049A000A0930402B09305025ACF409302025093A1
:1049B00003026093040270930502B7CFEF92FF9257
:1049C0000F931F93CF93DF930FB6F8940F928091BC
:1049D000951C81508093951C8091951C811150C02D
:1049E0008091A01C882309F44BC02BE0F22EEE240A
:1049F000E39427C0E091AA1CF091AB1CC085D1853F
:104A0000CE010E960E9479318E010E5F1F4FC801B4
:104A10000E9479318A8D90919B1C981710F4809395
:104A20009B1CF89EC0011124B8018853934E0E942C
:104A30001B31E091931CF091941C9A8D828D9817F4
:104A400048F58091A31C8111D5CF8091991C8823B2
:104A500099F08091991C882379F0C1E00E94DA23B3
:104A60008111C093981C8091991C81508093991C4E
:104A70008091991C8111F2CF8091981C813069F04E
:104A800080E00F900FBEDF91CF911F910F91FF90AB
:104A9000EF900895E092981CD4CF0E94753281E087
:104AA000F0CFCF92DF92EF92FF920F931F93CF93AD
:104AB000DF9300D000D0CDB7DEB72091951C2F5FDB
:104AC0002093951CC0909C1CD0909D1CE0909E1C37
:104AD000F0909F1CFC010081118122813381400FE5
:104AE000511F621F731FC016D106E206F306E8F4D9
:104AF0004017510762077307E8F0FC0140835183B8
:104B0000628373830E94DE24811102C00E94753289
:104B10000F900F900F900F90DF91CF911F910F91F9
:104B2000FF90EF90DF90CF900895401751076207F4
:104B3000730728F0C416D506E606F706F0F6FC0162
:104B400040835183628373838091931C9091941C62
:104B5000029649835A836B837C830E947931498111
:104B60005A816B817C81CB01BA010E949021CACF0E
:104B7000CF92DF92EF92FF92611571058105910549
:104B800039F40E947532FF90EF90DF90CF90089536
:104B90002091951C2F5F2093951CC0909C1CD09059
:104BA0009D1CE0909E1CF0909F1CC60ED71EE81E18
:104BB000F91E8091931C9091941C02960E94793169
:104BC000C701B6010E9490210E94DE248823C9F209
:104BD000FF90EF90DF90CF9008958091951C811108
:104BE0003BC01092981CE0919B1C8BE0E89FF00169
:104BF0001124E853F34E8081811110C09BE0809115
:104C00009B1C815080939B1CE0919B1C9E9FF001FC
:104C10001124E853F34E8081882389F3E0919B1C93
:104C20008BE0E89FF0011124E853F34EA181B2819B
:104C300014960D90BC91A02DB283A183CF01039651
:104C4000A817B90769F018968D919C9119979093C0
:104C5000941C8093931C089581E08093981C089580
:104C600014969C91149715968C9191838283A92F09
:104C7000B82FE9CFCF92DF92EF92FF926A017B01CA
:104C80006091931C7091941C625F7F4F0E943C3135
:104C90008091931C9091941C02960E9479316091AE
:104CA0009C1C70919D1C80919E1C90919F1C6C0D72
:104CB0007D1D8E1D9F1DFF90EF90DF90CF900C9477
:104CC0009021CF92DF92EF92FF920F931F93680192
:104CD0007901E091931CF091941C70684687578786
:104CE000608B718B6091931C7091941C625F7F4FFD
:104CF0000E941B318091931C9091941C02960E94FB
:104D0000793160919C1C70919D1C80919E1C9091AA
:104D10009F1C6C0D7D1D8E1D9F1D1F910F91FF907F
:104D2000EF90DF90CF900C9490210F931F93CF932F
:104D3000DF93DC011796ED91FC911897C085D18522
:104D40008E01025F1F4FC8010E9479318091951C2E
:104D5000811124C08E010E5F1F4FC8010E9479315E
:104D60008A8D90919B1C9817F8F0BBE08B9FC00137
:104D70001124B8018853934E0E941B31E091931C7B
:104D8000F091941C9A8D828D891788F481E080932C
:104D9000981CDF91CF911F910F910895B80183EA7C
:104DA0009CE10E941B31EACF80939B1CDECF80E008
:104DB000DF91CF911F910F9108950F931F93CF9380
:104DC000DF937068FC014083518362837383C085E5
:104DD000D1850E9479318E010E5F1F4FC8010E945C
:104DE00079318A8D90919B1C981710F480939B1CAD
:104DF000FBE08F9FC0011124B8018853934E0E949D
:104E00001B31E091931CF091941C9A8D828D89172F
:104E100040F481E08093981CDF91CF911F910F9116
:104E2000089580E0DF91CF911F910F910895209117
:104E3000971CFC01208340919C1C50919D1C60910B
:104E40009E1C70919F1C41835283638374830895D9
:104E50008F929F92AF92BF92CF92DF92EF92FF928A
:104E60000F931F93FC01DB010FB6F8940F92409152
:104E70009C1C50919D1C60919E1C70919F1C809168
:104E8000971C90810181128123813481981729F028
:104E9000401751076207730770F5CD90DD90ED90D4
:104EA000FC9013974A015B01801A910AA20AB30A87
:104EB0008C149D04AE04BF04F0F4C41AD50AE60AAB
:104EC000F70AC00ED11EE21EF31ECD92DD92ED92C6
:104ED000FC9213978091971C808380919C1C9091E9
:104EE0009D1CA0919E1CB0919F1C81839283A383E3
:104EF000B48380E001C081E00F900FBE1F910F913D
:104F0000FF90EF90DF90CF90BF90AF909F908F90E9
:104F1000089581E08093981C0895009799F0DC0132
:104F20005B96ED91FC915C978081853A81F4319696
:104F300080E090E0DC010196A11DB11D2191253A90
:104F4000D1F308958091931C9091941CE8CF80E058
:104F500008958091931C9091941C08950F931F9332
:104F6000CF93DF93EC01009781F18A8DE091931C40
:104F7000F091941C928D891740F54E855F85688964
:104F8000798977FD11C0E091931CF091941C928D6A
:104F900044E050E060E070E0491B5109610971098B
:104FA0004E875F87688B798B2BE0829FC00111242D
:104FB0008853934E2C853D852817390759F0E09189
:104FC000931CF091941C828D8A8FDF91CF911F9159
:104FD0000F9108958E010E5F1F4FC8010E94793115
:104FE000E091931CF091941C828D8A8F90919B1C70
:104FF000981710F480939B1C2BE0829FC001112412
:10500000B8018853934EDF91CF911F910F910C946B
:105010001B310F931F93CF93DF93EC01009749F05F
:1050200088A5815088A72A8D9FA1291711F0882370
:1050300031F080E0DF91CF911F910F9108958E01A3
:105040000E5F1F4FC8010E9479318FA18A8F44E003
:1050500050E060E070E0481B5109610971094E871A
:105060005F87688B798B90919B1C981710F48093C5
:105070009B1C2BE0829FC0011124B8018853934EE2
:105080000E941B3181E0DF91CF911F910F91089514
:10509000CF92DF92EF92FF92E091931CF091941CDB
:1050A0006685778580899189E091931CF091941CA5
:1050B000A091931CB091941C5A962C9134E0C32E6D
:1050C000D12CE12CF12CC21AD108E108F108C686D6
:1050D000D786E08AF18AFF90EF90DF90CF90089515
:1050E0008091931C9091941C892B39F0E091931C32
:1050F000F091941C80A58F5F80A78091931C909164
:10510000941C0895EF92FF920F931F93CF93DF9318
:1051100000D0CDB7DEB77C0187EE94E0F701918334
:10512000808361157105C1F0FB0101900020E9F752
:105130003197E61BED3020F50E2F10E0C8010196E7
:1051400069837A830E94502DF70195838483A80197
:1051500069817A810E943B398091F41C9091F51C01
:10516000F70197838683F092F51CE092F41C0F9070
:105170000F90DF91CF911F910F91FF90EF900895C5
:10518000ECE0DACF0F931F93CF93DF93EC01809184
:10519000F41C9091F51C6BE0892B49F1CE010E9423
:1051A000C52D8C016EEC7AE00E94802D66E0C8016E
:1051B0000E94C52D6BE0CE010E94C52D8C016BEACB
:1051C0007AE00E94802D66E0C8010E94C52D809182
:1051D000F41C9091F51CDC01ED91FC910190F081A3
:1051E000E02DBE01DF91CF911F910F910994CE0167
:1051F0000E94C52DEC016DE87AE00E94802D66E0EA
:10520000CE01DF91CF911F910F910C94C52D4F923C
:105210005F926F927F928F929F92AF92BF92CF9246
:10522000DF92EF92FF920F931F93CF93DF93EC01E6
:105230003B0149012801FC018DEE94E0819391939B
:10524000A12CB12CC12CD12C7F01042F9E01A401D3
:105250008BE497E30E94DD215F824E8299868886E7
:105260002091F61C3091F71C3D832C83D093F71CC2
:10527000C093F61C1C861D868090041D9090051D11
:105280009FEF891A990A9092051D8092041D9B86B2
:105290008A861E861F86188A198A4114510409F4C9
:1052A0004CC06BE0813041F1C2010E94C52DEC0180
:1052B00061EF7AE00E94802DB301CE010E94802D23
:1052C000E881F9810280F381E02D62E2CE01099547
:1052D00066E0CE01DF91CF911F910F91FF90EF908B
:1052E000DF90CF90BF90AF909F908F907F906F9006
:1052F0005F904F900C94C52DC2010E94C52DEC010A
:1053000067E07BE00E94802DB301CE010E94802DDA
:105310006BE0CE010E94C52DEC016EE07BE00E94A7
:10532000802D63E0CE010E94C52DB4010E94752E30
:1053300062E00E94C52D66E0CDCFDF91CF911F9135
:105340000F91FF90EF90DF90CF90BF90AF909F9024
:105350008F907F906F905F904F900895EC01E8815F
:10536000F9810190F081E02D09951B821A826FEF7F
:105370007FEFCB010E94B825FACFFC0164876587D7
:105380000895FC01C681D781209739F0CE010E9493
:10539000802D66E0CE010E94C52D2BE088E190E0D3
:1053A0000FB6F894A895809360000FBE209360001C
:1053B000FFCF0E94B1230E949D3820E030E04AE7F1
:1053C00054E40E9435380895CF92DF92EF92FF9215
:1053D0000F931F93CF93DF93EC017B018A819B8115
:1053E0000E94CB236C016BE0C7010E94C52D8C018C
:1053F00065E27BE00E94802DB601C8010E94802DED
:1054000066E0C8010E94C52D8A859B85288539855F
:10541000A701BC01821B930B0E94C92C0C80DD816B
:10542000C02D2097D9F6DF91CF911F910F91FF905A
:10543000EF90DF90CF9008950F931F93CF93DF935A
:10544000EC018091F61C9091F71C009719F0BE01B9
:105450000E94E4296BE0CE010E94C52D8C016CE214
:105460007BE00E94802D66E0C8010E94C52D8091DE
:10547000041D9091051DBC016F5F7F4FAE018356E7
:105480009109DF91CF911F910F910C94C92C8F92AC
:105490009F92AF92BF92CF92DF92EF92FF920F93C3
:1054A0001F93CF93DF93EC018B018A819B810E9434
:1054B000CB23BC01C8010E94802DD801ED91FC9145
:1054C0000280F381E02D69E0C80109958A819B8102
:1054D0000E94CB23FC0101900020E9F73197E81BE3
:1054E000F90B389748F4D801ED91FC910280F381D3
:1054F000E02D69E0C8010995CE84DF84E888F98849
:10550000A884B9848A819B810E948D27982E8C84DF
:105510008A819B810E94E422682FC8010E94F72E95
:105520006BE00E94C52DEC0160EA7BE00E94802DBB
:10553000682DCE010E94F72E6BE00E94C52DEC0174
:1055400062EA7BE00E94802D692DCE010E94F72E39
:105550006BE00E94C52DEC0164EA7BE00E94802D87
:10556000B501CE010E94752E6BE00E94C52DEC01A5
:1055700066EA7BE00E94802D6BE0CE010E94C52D83
:10558000EC0168EA7BE00E94802DB701A601CE0104
:10559000DF91CF911F910F91FF90EF90DF90CF900F
:1055A000BF90AF909F908F900C94AF2E0F931F934E
:1055B000CF93DF93EC018B01E881F9810280F381C5
:1055C000E02DB801CE01099566E0C8010E94C52D05
:1055D0000C80DD81C02D209779F7DF91CF911F914D
:1055E0000F910895CF93DF93EC01CB01DB01ED9197
:1055F000FC910280F381E02DBE010995CE01DF917F
:10560000CF9108950F931F93CF93DF93EC016BE03D
:105610000E94C52D8C016EE87BE00E94802D6BE01E
:10562000C8010E94C52D8C0169E97BE00E94802D94
:1056300066E0C8010E94C52D6BE0CE010E94C52D19
:105640008C016BE67BE00E94802D6BE0C8010E941C
:10565000C52D8C016CE77BE00E94802D6BE0C801BA
:105660000E94C52D8C0168E87BE00E94802D66E0D9
:10567000C8010E94C52D6BE0CE010E94C52D8C0192
:1056800068E47BE00E94802D6BE0C8010E94C52D7C
:105690008C0169E57BE00E94802D6BE0C8010E94CF
:1056A000C52D8C0165E67BE00E94802D66E0C80177
:1056B0000E94C52D8091F61C9091F71C009719F05F
:1056C000BE010E94D62A0E94D5230E948D27182F42
:1056D0006BE0CE010E94C52DEC0167E37BE00E94E8
:1056E000802D612FCE010E94F72E6BE00E94C52D08
:1056F000EC0162E47BE00E94802D64E670E0CE0164
:105700000E94752E6BE00E94C52DEC0164E47BE0E5
:105710000E94802D66E0CE01DF91CF911F910F9105
:105720000C94C52DCF92DF92EF92FF920F931F93AF
:10573000CF93DF937C018B01DC011A966D917C91F4
:105740001B97C8010E94802DF701A285B385FD013A
:1057500001900020E9F73197DE2EDA1AFFE0FD15FF
:1057600080F0C0E0D0E0D801ED91FC910280F3819F
:10577000E02D60E2C801099521968C2F8D0D8031B6
:1057800090F361EF74E0C8010E94802DD701569616
:10579000CD90DC9057971E968D919C911F970E94FB
:1057A0005F21682FC8010E94F72EEC01E881F98182
:1057B0000280F381E02D6FE20995B601CE010E94CF
:1057C000752EDC01ED91FC910280F381E02D69E002
:1057D000099566E0C8010E94C52DF701848595856D
:1057E000009781F0DC01ED91FC910190F081E02DBA
:1057F000B801DF91CF911F910F91FF90EF90DF9053
:10580000CF900994DF91CF911F910F91FF90EF906E
:10581000DF90CF9008956F927F928F929F92AF9278
:10582000BF92CF92DF92EF92FF920F931F93CF938D
:10583000DF93EC01762E672E4A015901670178014A
:105840000E94752DB401CE0106960E9482288CEF2D
:1058500094E0998388832EE035E03F832E83BD8AD0
:10586000AC8A40E061E0872D0E94D01E9F878E8722
:10587000C88AD98AEA8AFB8A7E8A6F8ADF91CF91A9
:105880001F910F91FF90EF90DF90CF90BF90AF905E
:105890009F908F907F906F90089506970C94922B15
:1058A000CF92DF92EF92FF920F931F93CF93DF93EC
:1058B000CDB7DEB72F970FB6F894DEBF0FBECDBFC2
:1058C0008C017B01DB016D917D918D919C9128EE86
:1058D00033E040E050E00E94EE37BA01A901C80170
:1058E0000E94AF2ED801ED91FC910280F381E02D52
:1058F0006EE2C8010995C7010E942D336E01B9E01F
:10590000CB0ED11C7E01EFE0EE0EF11C2AE030E060
:1059100040E050E00E941038E62F29833A834B8301
:105920005C8369817A818B819C81E05DD701EE93F4
:105930007D01AC15BD0551F71F86BD01C8010E9450
:10594000802DC8012F960FB6F894DEBF0FBECDBFD5
:10595000DF91CF911F910F91FF90EF90DF90CF904B
:105960000895CF93DF93EC010FB6F8940F928091D6
:105970002401909125019D838C830E94B12368832B
:1059800079838A839B830F900FBECE01DF91CF91E5
:1059900008958F929F92AF92BF92CF92DF92EF9233
:1059A000FF920F931F93CF93DF936C014B01EA019A
:1059B00063E0CA010E94C52DC814D90408F059C07B
:1059C000560184E1A80EB11C7501B601CE010E94FA
:1059D000752E6BE00E94C52D6AEA7BE00E94802D47
:1059E0008601F80161918F01CE010E94F72EE881B6
:1059F000F9810280F381E02D60E2CE0109950E1558
:105A00001F0579F7E881F9810280F381E02D60E2DA
:105A1000CE0109950FC080EE860FE881F9810280E2
:105A2000F381E02D8F3508F06EE2CE010995CE149A
:105A3000DF0481F0F60161916F01653A61F7E88159
:105A4000F9810280F381E02D60E2CE010995CE1448
:105A5000DF0481F7650166E0CE010E94C52DF4E107
:105A6000EF0EF11CA814B90420F4C50144965C01A2
:105A7000ACCF62E0CE01DF91CF911F910F91FF90EB
:105A8000EF90DF90CF90BF90AF909F908F900C944D
:105A9000C52D0C94F41C009711F00C948D1D0895E5
:105AA0000C94F41C009711F00C948D1D0895FC01CA
:105AB00081E090E02081222311F080E090E00895C1
:105AC00021E0FC01208308950895089581E0089560
:105AD00080E0089580E008950895DC01ED91FC9147
