:100000000C9433070C9452070C9452070C9452072B
:100010000C9452070C941E170C94DB170C94DD17EC
:100020000C9452180C9452070C9452070C945207DB
:100030000C9452070C9452070C9452070C945207DC
:100040000C9452070C9452070C9452070C945207CC
:100050000C9452070C9452070C9452070C945207BC
:100060000C9452070C94B8350C9452070C94520718
:100070000C9452070C9452070C9452070C9452079C
:100080000C9452070C9452070C9452070C9452078C
:100090000C940B360C9452070C9452070C94520794
:1000A0000C9452070C9452070C9452070C9452076C
:1000B0000C9452070C9452070C9452070C948238FB
:1000C0000C9452070C9452070C945207170C470CCF
:1000D000BA0B6A0B300B0D0B720C2A3333333633E9
:1000E00039332C332C333C334C3353335A335E3354
:1000F00030335F5F5F5F5F5F5F5F204D453430355A
:10010000204C61622033204D6F646966696564200C
:1001100050726F6772616D205F5F5F5F5F5F5F5FEF
:10012000004D6179203236203230313600537973F8
:1001300074656D2074696D653A20002C20486561F6
:10014000703A20002C204F435235413A20002020A5
:100150002020723A20202020202052657475726E73
:1001600020746F204D61696E204D656E75002020F2
:1001700043746C2D433A202020205265736574200F
:10018000415652206D6963726F636F6E74726F6C4B
:100190006C65720020202020733A2020202020202F
:1001A000456E74657220736574706F696E74732028
:1001B00078787878787820666F72204D6F746F72D7
:1001C0002031207468656E204D6F746F722032008C
:1001D0002D2D2D2D2D2D2D2D2D2D2D2D2D2D2D205C
:1001E0004155544F4E4F4D4F5553204D454E552080
:1001F0002D2D2D2D2D2D2D2D2D2D2D2D2D2D2D005C
:1002000020202020723A2020202020205265747562
:10021000726E20746F204D61696E204D656E7500A1
:10022000202043746C2D433A2020202052657365B2
:100230007420415652206D6963726F636F6E7472E1
:100240006F6C6C65720020202020703A20202020E6
:1002500020204578656375746520686967687761F3
:10026000792070617373696E670020202020633AE3
:10027000202020202020546F67676C652063617206
:100280002061766F6964616E636500202020206CB8
:100290003A202020202020546F67676C65206C6115
:1002A0006E65206B656570696E67002D2D2D2D2D97
:1002B0002D2D2D2D2D2D2D2D2D2D2D2D204849472A
:1002C00048574159205441534B204D454E55202D00
:1002D0002D2D2D2D2D2D2D2D2D2D2D2D2D2D2D2D4E
:1002E0000020202020723A202020202020526574F7
:1002F00075726E20746F204D61696E204D656E754C
:1003000000202043746C2D433A2020202052657336
:10031000657420415652206D6963726F636F6E740D
:10032000726F6C6C65720020202020633A202020C0
:1003300020202043697263756C617220706174685B
:1003400000202020206C3A2020202020204C696EA4
:100350006561722068656164696E672061646865C3
:1003600072616E6365002D2D2D2D2D2D2D2D2D2DC2
:100370002D2D2D2D2D2D2D20434C415353205441F7
:10038000534B204D454E55202D2D2D2D2D2D2D2DF2
:100390002D2D2D2D2D2D2D2D2D0020202020723A9C
:1003A00020202020202052657475726E20746F20EA
:1003B0004D61696E204D656E7500202043746C2D73
:1003C000433A202020205265736574204156522004
:1003D0006D6963726F636F6E74726F6C6C657200BF
:1003E00020202020733A202020202020506F736985
:1003F00074696F6E20736574706F696E740020206D
:100400002020703A202020202020536572766F2013
:10041000706F736974696F6E2077697468205057C4
:100420004D205B3239205B4C5D2C203232205B4307
:100430005D2C203135205B525D5D002D2D2D2D2D45
:100440002D2D2D2D2D2D2D2D2D2D2D2D2053455286
:10045000564F204D454E55202D2D2D2D2D2D2D2D1A
:100460002D2D2D2D2D2D2D2D2D0020202020723ACB
:1004700020202020202052657475726E20746F2019
:100480004D61696E204D656E7500202043746C2DA2
:10049000433A202020205265736574204156522033
:1004A0006D6963726F636F6E74726F6C6C657200EE
:1004B00020202020733A20202020202056656C6FB9
:1004C0006369747920736574706F696E74205B2D35
:1004D00034302C2034305D0020202020663A20204B
:1004E0002020202046756C6C204272616B650020D4
:1004F000202020623A2020202020204D6F746F722F
:10050000204252414B4520776974682050574D2056
:100510005B2D3235352C203235355D0020202020F2
:10052000703A2020202020204D6F746F7220504F91
:1005300057455220776974682050574D205B2D3203
:1005400035352C203235355D002D2D2D2D2D2D2DC1
:100550002D2D2D2D2D2D2D2D2D2D204D4F544F5228
:10056000204D454E55202D2D2D2D2D2D2D2D2D2D54
:100570002D2D2D2D2D2D2D0020202020723A2020D4
:100580002020202052657475726E20746F204D619A
:10059000696E204D656E7500202043746C2D433AC2
:1005A00020202020526573657420415652206D69C9
:1005B00063726F636F6E74726F6C6C657200202073
:1005C0002020643A202020202020537461636B2077
:1005D00064756D7020666F72207461736B73002098
:1005E000202020733A202020202020566572736935
:1005F0006F6E2F536574757020696E666F726D61D2
:1006000074696F6E0020202020743A202020202062
:100610002053686F77207468652063757272656E09
:10062000742074696D65002D2D2D2D2D2D2D2D2DF2
:100630002D2D2D2D2D2D2D2D2048454C50204D4557
:100640004E55202D2D2D2D2D2D2D2D2D2D2D2D2D9E
:100650002D2D2D2D0020202020723A20202020201A
:100660002052657475726E20746F204D61696E2022
:100670004D656E7500202043746C2D433A20202078
:1006800020526573657420415652206D6963726F04
:10069000636F6E74726F6C6C657200202020203F57
:1006A0003A20202020202048656C70204D656E7512
:1006B0000020202020683A20202020202048696740
:1006C00068776179206D61696E74656E616E6365CE
:1006D0000020202020633A202020202020436C612D
:1006E0007373207265717569726564207461736BD0
:1006F000730020202020733A2020202020205365E2
:1007000072766F206D616E75616C206D616E6970BF
:10071000756C6174696F6E00202020206D3A202076
:10072000202020204D6F746F72206D616E75616C9A
:10073000206D616E6970756C6174696F6E002D2D2E
:100740002D2D2D2D2D2D2D2D2D2D2D2D2D2D2D20E6
:100750004D41494E204D454E55202D2D2D2D2D2DF1
:100760002D2D2D2D2D2D2D2D2D2D2D00496C6C6514
:1007700067616C20737461746521205265736574C0
:1007800074696E6720415652002220003C2D2D20B6
:10079000556E6B6E6F776E20636F6D6D616E642E3C
:1007A000205479706520636F6D6D616E6420667290
:1007B0006F6D206D656E752E00526573657474697A
:1007C0006E6720415652002220003C2D2D20556E90
:1007D0006B6E6F776E20636F6D6D616E642E20544B
:1007E00079706520636F6D6D616E642066726F6DE8
:1007F000206D656E752E00526573657474696E6741
:100800002041565200456E746572207261646975AC
:1008100073206F662063697263756C61722070610A
:100820007468205B302C3235355D00456E7465721E
:10083000206C696E6561722068656164696E67002D
:100840002220003C2D2D20556E6B6E6F776E20633D
:100850006F6D6D616E642E205479706520636F6DCD
:100860006D616E642066726F6D206D656E752E0011
:10087000526573657474696E672041565200456E07
:1008800074657220706F736974696F6E207365741C
:10089000706F696E7420666F7220536572766F0098
:1008A000456E74657220706F736974696F6E20662F
:1008B0006F7220536572766F002220003C2D2D2030
:1008C000556E6B6E6F776E20636F6D6D616E642E0B
:1008D000205479706520636F6D6D616E642066725F
:1008E0006F6D206D656E752E005265736574746949
:1008F0006E6720415652004D6F746F722000204881
:10090000414C5445442100456E746572206E756DEE
:1009100062657220666F72204D6F746F72200045A1
:100920006E746572206E756D62657220666F7220DE
:100930004D6F746F7220002220003C2D2D20556ECB
:100940006B6E6F776E20636F6D6D616E642E2054D9
:1009500079706520636F6D6D616E642066726F6D76
:10096000206D656E752E00506C656173652074791D
:1009700070652061206E756D6265722062657477A6
:1009800065656E20323020746F2033302C207468FF
:10099000656E20454E54455200506C65617365206C
:1009A000747970652061206E756D62657220626574
:1009B000747765656E203020746F203235352C20B9
:1009C0007468656E20454E54455200506C656173E5
:1009D0006520747970652061206E756D6265722086
:1009E0006265747765656E202D32353520746F2011
:1009F0003235352C207468656E20454E54455200C2
:100A0000506C6561736520747970652061203120B8
:100A10006F72203220666F72206D6F746F72207358
:100A2000656C6563742C207468656E20454E544572
:100A300052004E756D62657220456E746572656414
:100A40003A20004E756D62657220456E7465726560
:100A5000643A202D002220003C2D2D20556E6B6E17
:100A60006F776E20636F6D6D616E642E20547970A8
:100A70006520636F6D6D616E642066726F6D206DB1
:100A8000656E752E00526573657474696E672041DA
:100A90005652002220003C2D2D20556E6B6E6F7734
:100AA0006E20636F6D6D616E642E205479706520C9
:100AB000636F6D6D616E642066726F6D206D656E23
:100AC000752E00526573657474696E6720415652C5
:100AD00000456E746572206E756D6265722C2031F2
:100AE000206F7220322C20666F72206D6F746F72CF
:100AF0002073656C656374696F6E3A20004175748C
:100B00006F6E6F6D6F7573204D6F64653A2048414D
:100B10004C544544004175746F6E6F6D6F75732052
:100B20004D6F64653A20414354495645004F7570F6
:100B3000757420202020202020202020203A200012
:100B4000466565646261636B2020202020202020A0
:100B50003A200073685F736574706F696E745F32FA
:100B60002020203A2000205B7469636B735D007362
:100B7000685F6D6F746F725F325F73706565643A42
:100B800020004F7570757420202020202020202008
:100B900020203A2000466565646261636B20202056
:100BA00020202020203A200073685F736574706FE6
:100BB000696E745F312020203A2000205B746963E5
:100BC0006B735D0073685F6D6F746F725F315F731D
:100BD000706565643A2000504944206572726F72F6
:100BE00000504944206572726F72004572726F72D4
:100BF00020696E2067657445756C6572416E67008B
:100C0000494D5520756E6974732073657400494DA4
:100C10005520706F776572206D6F64652073657401
:100C200000494D55206F7065726174696F6E206D5B
:100C30006F64652073657400494D55206F626A6565
:100C4000637420696E7469616C20636F6D6D756E7D
:100C500069636174696F6E207375636573730049AE
:100C60004D55206F626A65637420696E7469616CAA
:100C700020636F6D6D756E69636174696F6E206559
:100C800072726F72004144435352413A2000414412
:100C90004D55583A200041444330203D2000414406
:100CA0004331203D200041444332203D2000414457
:100CB0004333203D200041444334203D2000414443
:100CC0004335203D200041444336203D200041442F
:100CD0004337203D20002D2D2D2D2D2D2D2D204D48
:100CE00045343035204C6162203520537461727474
:100CF000696E672050726F6772616D202D2D2D2DEA
:100D00002D2D2D2D00202020203020322034203683
:100D10002038204120432045004932432073656E2E
:100D2000642074696D656F75740049324320726583
:100D30002D73746172743A20307800206E6F7420C5
:100D400030783130004E6F207368617265642064C2
:100D5000617461206974656D7320746F20707269AD
:100D60006E74002D2D2D2D202020202020202020CD
:100D70002020202D2D2D2D202020202D2D2D2D2DFE
:100D80002D2D2D2D2D0053686172652F51756575C0
:100D90006520202020205479706520202020467274
:100DA00065652F546F74616C004552524F52206339
:100DB00072656174696E67207461736B20220054E0
:100DC00061736B2022002220637265617465642C5C
:100DD00020737461636B20617420307800546173F8
:100DE0006B3A20005461736B3A2049444C450049EA
:100DF000444C45090930092D09002F0009092D002F
:100E00002D2D2D2D09092D2D2D2D092D2D2D2D2D7E
:100E100000092D2D2D2D2D2D2D2D2D2D00092D2DA4
:100E20002D2D004E616D6509095072692E095374AC
:100E30006174650009467265652F546F74616C00BA
:100E40000952756E73005461736B090920200920E3
:100E50000009537461636B00090009002F00090049
:100E600009002020000011241FBECFEFD1E2DEBF19
:100E7000CDBF15E0A0E0B2E0E2E2F1E800E00BBF98
:100E800002C007900D92AC3AB107D9F71DE1ACEA68
:100E9000B5E001C01D92A039B107E1F70E94013C05
:100EA0000C948F400C9400000F931F93CF93DF930B
:100EB000EC010E945F2E80E392E099838883DF91AA
:100EC000CF911F910F9108950F931F93CF93DF93AD
:100ED000EC0166E08E819F810E941D336BE08E8164
:100EE0009F810E941D338C016EE377E00E94D8320F
:100EF00066E0C8010E941D336BE08E819F810E94D5
:100F00001D338C0168E177E00E94D83266E0C801A9
:100F10000E941D336BE08E819F810E941D338C01E6
:100F200062EF76E00E94D83266E0C8010E941D336D
:100F30006BE08E819F810E941D338C0161ED76E014
:100F40000E94D83266E0C8010E941D336BE08E819A
:100F50009F810E941D338C0161EB76E00E94D832A4
:100F600066E0C8010E941D336BE08E819F810E9464
:100F70001D338C016BE976E00E94D83266E0C8012F
:100F80000E941D336BE08E819F810E941D338C0176
:100F900065E776E00E94D83266E0C8010E941D3302
:100FA0006BE08E819F810E941D338C0165E576E0A8
:100FB0000E94D83266E0C8010E941D3366E08E812F
:100FC0009F81DF91CF911F910F910C941D330F934F
:100FD0001F93CF93DF93EC0166E08E819F810E9487
:100FE0001D336BE08E819F810E941D338C0167E26F
:100FF00076E00E94D83266E0C8010E941D336BE0A3
:101000008E819F810E941D338C0165E076E00E94F5
:10101000D83266E0C8010E941D336BE08E819F814B
:101020000E941D338C016FED75E00E94D83266E09E
:10103000C8010E941D336BE08E819F810E941D3389
:101040008C016EEB75E00E94D83266E0C8010E9408
:101050001D336BE08E819F810E941D338C0168E9F6
:1010600075E00E94D83266E0C8010E941D336BE033
:101070008E819F810E941D338C0168E775E00E947C
:10108000D83266E0C8010E941D3366E08E819F81E0
:10109000DF91CF911F910F910C941D330F931F93EC
:1010A000CF93DF93EC0166E08E819F810E941D3318
:1010B0006BE08E819F810E941D338C0169E475E095
:1010C0000E94D83266E0C8010E941D336BE08E8119
:1010D0009F810E941D338C016CE175E00E94D83223
:1010E00066E0C8010E941D336BE08E819F810E94E3
:1010F0001D338C016FEE74E00E94D83266E0C801A7
:101100000E941D336BE08E819F810E941D338C01F4
:1011100068ED74E00E94D83266E0C8010E941D3379
:101120006BE08E819F810E941D338C0160EB74E027
:101130000E94D83266E0C8010E941D336BE08E81A8
:101140009F810E941D338C016AE874E00E94D832AE
:1011500066E0C8010E941D336BE08E819F810E9472
:101160001D338C016AE674E00E94D83266E0C80143
:101170000E941D3366E08E819F81DF91CF911F9188
:101180000F910C941D330F931F93CF93DF93EC01BA
:1011900066E08E819F810E941D336BE08E819F816E
:1011A0000E941D338C016BE374E00E94D83266E02C
:1011B000C8010E941D336BE08E819F810E941D3308
:1011C0008C016EEF73E00E94D83266E0C8010E9485
:1011D0001D336BE08E819F810E941D338C0160EE78
:1011E00073E00E94D83266E0C8010E941D336BE0B4
:1011F0008E819F810E941D338C016AEB73E00E94F7
:10120000D83266E0C8010E941D336BE08E819F8159
:101210000E941D338C016AE973E00E94D83266E0B7
:10122000C8010E941D3366E08E819F81DF91CF91BE
:101230001F910F910C941D330F931F93CF93DF9346
:10124000EC0166E08E819F810E941D336BE08E81F0
:101250009F810E941D338C0166E673E00E94D832A4
:1012600066E0C8010E941D336BE08E819F810E9461
:101270001D338C0161E473E00E94D83266E0C8013E
:101280000E941D336BE08E819F810E941D338C0173
:1012900067E273E00E94D83266E0C8010E941D3305
:1012A0006BE08E819F810E941D338C0161E073E0B1
:1012B0000E94D83266E0C8010E941D336BE08E8127
:1012C0009F810E941D338C0161EE72E00E94D83232
:1012D00066E0C8010E941D3366E08E819F81DF9128
:1012E000CF911F910F910C941D330F931F93CF93A8
:1012F000DF93EC0166E08E819F810E941D336BE0DD
:101300008E819F810E941D338C016BEA72E00E94E6
:10131000D83266E0C8010E941D336BE08E819F8148
:101320000E941D338C016BE872E00E94D83266E0A7
:10133000C8010E941D336BE08E819F810E941D3386
:101340008C016AE672E00E94D83266E0C8010E9411
:101350001D336BE08E819F810E941D338C0166E4FA
:1013600072E00E94D83266E0C8010E941D336BE033
:101370008E819F810E941D338C0160E272E00E9489
:10138000D83266E0C8010E941D336BE08E819F81D8
:101390000E941D338C0160E072E00E94D83266E04A
:1013A000C8010E941D3366E08E819F81DF91CF913D
:1013B0001F910F910C941D330F931F93CF93DF93C5
:1013C000EC0166E08E819F810E941D336BE08E816F
:1013D0009F810E941D338C0160ED71E00E94D83224
:1013E00066E0C8010E941D336BE08E819F810E94E0
:1013F0001D338C0164E971E00E94D83266E0C801B7
:101400000E941D336BE08E819F810E941D338C01F1
:101410006EE671E00E94D83266E0C8010E941D337A
:101420006BE08E819F810E941D338C016EE471E020
:101430000E94D83266E0C8010E941D3366E08E81AA
:101440009F81DF91CF911F910F910C941D338F924B
:101450009F92AF92BF92CF92DF92EF92FF920F9343
:101460001F93CF93DF9300D000D000D0CDB7DEB76D
:101470008C0119821A821B821C821E821D82C090DE
:101480002801D09029010E9410235C01CE01019611
:101490000E9409324C0166E0F801868197810E9422
:1014A0001D336BE00E941D337C0162EF70E00E94EF
:1014B000D8326BE0C7010E941D337C0161E271E00C
:1014C0000E94D83266E0C7010E941D336BE00E9483
:1014D0001D337C016DE271E00E94D832B401C70176
:1014E0000E94A8316BE00E941D337C016BE371E028
:1014F0000E94D832B501C7010E94CD337C0165E15D
:1015000072E00E94D83248E357E160E070E0C70122
:101510000E9407346BE00E941D337C0164E471E09B
:101520000E94D832B601C7010E94CD3366E00E9406
:101530001D3366E00E941D33F801868197810E9469
:101540005A3066E0F801868197810E941D33F801C8
:10155000868197810E941A2E26960FB6F894DEBFD8
:101560000FBECDBFDF91CF911F910F91FF90EF90F4
:10157000DF90CF90BF90AF909F908F900895CF93C2
:10158000DF93CDB7DEB727970FB6F894DEBF0FBE57
:10159000CDBF8C0119821A821B821C821E821D8281
:1015A0000FB6F8940F92E091D805F091D905108606
:1015B0000F900FBE0E946407C12CA12CD12CE12CEE
:1015C000F12CBB24B3946AE0462E512CD8011C9612
:1015D0008C9190E087309105D8F06BE0F80186811E
:1015E00097810E941D338C016CE677E00E94D8320F
:1015F00066E0C8010E941D332BE088E190E00FB641
:10160000F894A895809360000FBE20936000FFCFF0
:10161000FC01EA59FF4F0C94083FF801868197813D
:10162000DC01ED91FC910480F581E02D099581119B
:10163000A6C1D8011E964D915D916D917C915197F7
:101640004F5F5F4F6F4F7F4FF80146875787608B23
:10165000718B61E070E080E090E00E94102BB6CFCB
:10166000F80186819781DC01ED91FC910480F58180
:10167000E02D09958823E9F2F80186819781DC0144
:10168000ED91FC910680F781E02D0995282F803798
:1016900009F404C20CF4E4C1823709F486C183372B
:1016A00009F08BC16BE0D80116968D919C9117972C
:1016B0000E941D334C016EE778E00E94D83266E04C
:1016C000C4010E941D3362E0C8010E94152F83E00F
:1016D000D82EAFCFD80116968D919C911797DC012B
:1016E000ED91FC910480F581E02D0995882309F4A2
:1016F000A0CFF80186819781DC01ED91FC910680F5
:10170000F781E02D0995282F863609F45CC30CF08B
:101710003DC2833009F468C2823609F03DC20FB67B
:10172000F8940F92E091D805F091D905D0840F90EC
:101730000FBE6BE0D80116968D919C9117970E9471
:101740001D334C0167E079E00E94D8326D2DC40151
:101750000E9491334C0161E272E00E94D83266E04F
:10176000C4010E941D3362E0C8010E94152F92E05F
:10177000D92E5FCFF80186819781DC01ED91FC9134
:101780000480F581E02D0995882309F49CC4F801B3
:1017900086819781DC01ED91FC910680F781E02D37
:1017A0000995482F80ED840F8A3008F469C44D32C2
:1017B00009F430C44F3709F492C34A3009F4BBC36B
:1017C0004D3009F08EC366E0A110A7C4F8018681F0
:1017D00097810E941D336BE00E941D334C0162E330
:1017E0007AE0C4010E94D832B701C4010E9462337A
:1017F00066E00E941D33D1104DC3C70101970297C7
:1018000008F434C36BE0D80116968D919C9117971C
:101810000E941D337C0160E07AE0C7010E94D8324B
:1018200066E0C7010E941D33E12CF12C02CFF801C4
:1018300086819781DC01ED91FC910480F581E02D9A
:101840000995882309F4F5CEF80186819781DC019A
:10185000ED91FC910680F781E02D0995282F8336C4
:1018600009F48CC20CF430C28D3609F40CC20CF4AD
:1018700000C2823709F499C0833709F0D2C1C80188
:101880000E94C30864E0C8010E94152FD2CEF8015F
:1018900086819781DC01ED91FC910480F581E02D3A
:1018A0000995882309F4C5CEF80186819781DC016A
:1018B000ED91FC910680F781E02D0995282F823764
:1018C00009F473C00CF052C4833009F434C4843674
:1018D00009F05EC4D80116968D919C9117970E94CD
:1018E000742FA7CEF80186819781DC01ED91FC91E0
:1018F0000480F581E02D0995882309F49ACEF8013A
:1019000086819781DC01ED91FC910680F781E02DC5
:101910000995282F8C3609F44BC00CF09AC08330FF
:1019200009F47CC0833609F443C0D80116968D9023
:101930009C901797D401ED91FC910280F381E02DEA
:1019400062E2C4012F830995D401ED91FC910280DC
:10195000F381E02D2F81622FC40109956BE0C40152
:101960000E941D334C0169E877E00E94D8326BE099
:10197000C4010E941D334C016CE877E047C0F801B8
:1019800086819781DC01ED91FC910680F781E02D45
:101990000995282F833609F4E3C00CF4C4C08C36B3
:1019A00009F4B7C0823709F08AC0C8010E946407F1
:1019B00060E0C8010E94152F3CCED80116968D908C
:1019C0009C901797D401ED91FC910280F381E02D5A
:1019D00062E2C4012F830995D401ED91FC9102804C
:1019E000F381E02D2F81622FC40109956BE0C401C2
:1019F0000E941D334C0160E478E00E94D8326BE015
:101A0000C4010E941D334C0163E478E0C4010E94CC
:101A1000D83266E0C4010E941D330BCE6BE0F801A2
:101A2000868197810E941D338C0169EB77E00E94CB
:101A3000D83266E0C8010E941D332BE088E190E0B7
:101A40000FB6F894A895809360000FBE20936000B5
:101A5000FFCF803709F4ACCF823709F4A6CF65CF2A
:101A6000833009F0AACF6BE0F801868197810E944C
:101A70001D338C0160E778E00E94D83266E0C8012F
:101A80000E941D332BE088E190E00FB6F894A895F2
:101A9000809360000FBE20936000FFCF6BE0F801E1
:101AA000868197810E941D334C0160EA78E0C40171
:101AB0000E94D83266E0C4010E941D3379CFD8015C
:101AC00016968D909C901797D401ED91FC91028011
:101AD000F381E02D62E2C4012F830995D401ED91D9
:101AE000FC910280F381E02D2F81622FC4010995C2
:101AF0006BE0C4010E941D334C0167EC77E00E944B
:101B0000D8326BE0C4010E941D334C016AEC77E0CF
:101B10007DCF6BE0F801868197810E941D334C01D7
:101B20006BE278E0C4CF833051F66BE0F801868138
:101B300097810E941D338C0167EF77E00E94D832B5
:101B400066E0C8010E941D332BE088E190E00FB6EB
:101B5000F894A895809360000FBE20936000FFCF9B
:101B60006BE0D80116968D919C9117970E941D33BA
:101B70004C0165E078E00E94D83266E0C4010E9422
:101B80001D3360E0C8010E94152F53CD803709F442
:101B900044C1823709F409CFF80186809780D401C7
:101BA000ED91FC910280F381E02D62E2C4012F836C
:101BB0000995D401ED91FC910280F381E02D2F81F4
:101BC000622FC40109956BE0C4010E941D334C01D2
:101BD00069EB78E00E94D8326BE0C4010E941D33AB
:101BE0004C016CEB78E012CF6BE0D80116968D912A
:101BF0009C9117970E941D338C0169EE78E00E943A
:101C0000D83266E0C8010E941D332BE088E190E0E5
:101C10000FB6F894A895809360000FBE20936000E3
:101C2000FFCFF80186809780D401ED91FC9102806E
:101C3000F381E02D62E2C4012F830995D401ED9177
:101C4000FC910280F381E02D2F81622FC401099560
:101C50006BE0C4010E941D334C0163E97AE00E94ED
:101C6000D8326BE0C4010E941D334C0166E97AE072
:101C7000CDCE8836B1F6C8010E94750966E0C8016C
:101C80000E94152FD6CC6BE0F801868197810E94C7
:101C90001D337C0161ED7AE00E94D83266E0C70115
:101CA0000E941D330FB6F8940F92E091D805F09181
:101CB000D90510860F900FBE62E0C8010E94152F53
:101CC000D12CE12CF12CB5CC8F3309F44FC08136E7
:101CD00001F1833009F0A5CF6BE0D80116968D9104
:101CE0009C9117970E941D338C0163EC7AE00E944F
:101CF000D83266E0C8010E941D332BE088E190E0F5
:101D00000FB6F894A895809360000FBE20936000F2
:101D1000FFCFE091B005F091B1050FB6F8940F92A6
:101D200080850F900FBE882389F10FB6F8940F922B
:101D30000F900FBE813009F07CCC0FB6F8940F9253
:101D400010860F900FBE6BE0D80116968D919C9176
:101D500017970E941D334C016DEF7AE0C4010E9479
:101D6000D83266E0C4010E941D331FCEC8010E9414
:101D7000E70761E0C8010E94152F5BCCC8010E94F3
:101D80001C0965E0C8010E94152F53CC0FB6F894CA
:101D90000F92B0860F900FBE6BE0F801868197819D
:101DA0000E941D334C0165E17BE00E94D83266E061
:101DB000C4010E941D33C8010E94DC0964E0C8010F
:101DC0000E94152F36CC0FB6F8940F92E091CE05F5
:101DD000F091CF05B0860F900FBE0FB6F8940F921A
:101DE000E091D805F091D90570840F900FBE6BE09B
:101DF000F801868197810E941D334C0167EF78E0DE
:101E00000E94D832672DC4010E9491336BE00E947A
:101E10001D334C016EEF78E0A1CF0FB6F8940F920E
:101E2000E091D805F091D905D0840F900FBE6BE0FA
:101E3000F801868197810E941D334C016FE179E0A2
:101E40000E94D8326D2DC4010E9491334C0169E18A
:101E500072E00E94D83266E0C4010E941D3362E045
:101E6000C8010E94152FDD24D394E3CB0FB6F8945C
:101E70000F92E091D805F091D905E0860F900FBE42
:101E8000C8010E944E0863E0C8010E94152FE12C92
:101E9000F12CCFCBB1E0DB1609F46FC0B2E0DB165A
:101EA00009F451C0B3E0DB12C4CBC7010F970F9701
:101EB00008F09AC00FB6F8940F92E091AC05F0913B
:101EC000AD05E0860F900FBEC8010E94640760E078
:101ED000C8010E94152FD12CE12CF12CAACBC110E6
:101EE000A7C0D8011696ED90FC901797D701ED91F9
:101EF000FC910280F381E02D62E2C7014F830995D6
:101F0000D701ED91FC910280F381E02D4F81642F88
:101F1000C70109956BE0C7010E941D337C0167E38F
:101F200079E00E94D8326BE0C7010E941D337C012A
:101F30006AE379E072CC67E172E0F801868197810B
:101F40000E94D83276CBEFEFEE16F10411F008F0D4
:101F500055C00FB6F8940F92E091D205F091D305D9
:101F6000F186E0860F900FBE0FB6F8940F92E091C5
:101F7000D005F091D105B086A5CFEFEFEE16F104B4
:101F800009F030F5AA2019F0F194E194F1080FB6A8
:101F9000F8940F92E091D605F091D705F186E0868E
:101FA0000F900FBE0FB6F8940F92E091D405F09108
:101FB000D505B0860F900FBEC8010E94640760E08F
:101FC000C8010E94152FA12CD12CE12CF12C31CB72
:101FD0006BE0D80116968D919C9117970E941D3346
:101FE0007C016BEC79E019CC6BE0F801868197817C
:101FF0000E941D337C0167E679E00FCC6BE0D801CD
:1020000016968D919C9117970E941D337C0169E96A
:1020100079E003CCF80186819781DC01ED91FC9198
:102020000280F381E02D6DE20995AA24A39401CBEF
:10203000F80186819781DC01ED91FC910280F381AA
:10204000E02D6FE70995F80186819781DC01ED911C
:10205000FC910280F381E02D60E20995F801868110
:102060009781DC01ED91FC910280F381E02D6FE717
:102070000995C701B2010E94B33E7B01CA94D9CA37
:10208000F80186819781DC01ED91FC910280F3815A
:10209000E02D642F4F8309959701220F331FEE0C1B
:1020A000FF1CEE0CFF1CEE0CFF1C2E0D3F1D4F8184
:1020B000E42EFF24E7FCF094B0E3EB1AF108E20E03
:1020C000F31EC394B6CA8091DA059091DB05DC015A
:1020D000ED91FC910480F581E02D0995882309F4A8
:1020E000A8CAD8011696ED91FC9117970190F0813E
:1020F000E02D828093808091DA059091DB05DC01F0
:10210000ED91FC910680F781E02D0995682FF8018B
:1021100086819781F40109958CCAD80116968D9114
:102120009C9117970E941D336BE00E941D334C0158
:1021300063E47AE056CB6BE0F801868197810E94D8
:102140001D338C0165E87AE00E94D83266E0C80150
:102150000E941D332BE088E190E00FB6F894A8951B
:10216000809360000FBE20936000FFCF8337D1F1D2
:10217000843771F4CE0101960E940932BC01F80146
:10218000868197810E94A83166E00E941D3351CA62
:10219000D80116968D909C901797D401ED91FC91E3
:1021A0000280F381E02D62E2C4012F830995D401FE
:1021B000ED91FC910280F381E02D2F81622FC4010B
:1021C00009956BE0C4010E941D334C0165E57AE07E
:1021D0000E94D8326BE0C4010E941D334C0168E5B7
:1021E0007AE014CCC8010E94270A23CAEC0183E0DC
:1021F00090E00E94A1328C016E817F8141E00E94BB
:10220000DD1583E090E00E94A1327C016E817F8128
:1022100042E00E94DD15E091D405F091D505DF0183
:102220000FB6F8940F9210860F900FBE80E029C071
:10223000A091D005B091D1050FB6F8940F920F90F0
:102240000FBE18968C911897813009F469C02091BF
:10225000CE053091CF050FB6F8940F920F900FBEB8
:10226000E9018885813009F430C064E670E080E0DF
:1022700090E00E94102BE091D405F091D505DF018C
:1022800080850FB6F8940F920F900FBE813081F6C3
:102290000FB6F8940F92C091D805D091D9058885D2
:1022A0000F900FBE813009F46FC00FB6F8940F92F3
:1022B0000F900FBE823009F4B7C00FB6F8940F929A
:1022C00018961C920F900FBEB3CF0FB6F8940F92D2
:1022D0008091D8059091D905EC0188850F900FBEAB
:1022E000813009F441C00FB6F8940F920F900FBEE1
:1022F000823009F489C0E9010FB6F8940F92108674
:102300000F900FBE0FB6F8940F9218961C920F9074
:102310000FBE0FB6F8940F9218860F900FBEA5CF80
:102320000FB6F8940F92C091D805D091D905888541
:102330000F900FBE813009F43BC00FB6F8940F9296
:102340000F900FBE823009F449C00FB6F8940F9277
:1023500010860F900FBE0FB6F8940F9218961C922D
:1023600018970F900FBE73CFC8010E944816C091F6
:10237000CE05D091CF05E091D405F091D505A0917F
:10238000D005B091D105B8CF0FB6F8940F920F9049
:102390000FBEE091D605F091D70560857185C80123
:1023A0000E941916E091D405F091D505DF0185CF83
:1023B0000FB6F8940F920F900FBEE091D205F091F6
:1023C000D3056085C8010E945816A091D005B09130
:1023D000D105E091D405F091D505B7CF0FB6F894AB
:1023E0000F920F900FBEE091D205F091D30560855A
:1023F000C7010E945816A091D005B091D105E09177
:10240000D405F091D505A1CFC7010E944816C0910F
:10241000CE05D091CF05E091D405F091D505A091DE
:10242000D005B091D10568CF0FB6F8940F920F90F8
:102430000FBEE091D605F091D70560857185C70183
:102440000E941916E091D405F091D505DF0135CF32
:102450000F931F93CF93DF93EC010E945F2E88E3CD
:1024600092E099838883DF91CF911F910F91089516
:10247000CF93DF9300D000D0CDB7DEB78C0182E0E0
:1024800090E00E94A1325C01F8016681778147E00B
:102490000E94711682E090E00E94A1326C01F80166
:1024A0006681778145E00E947116812C912C40E075
:1024B00050E0E091CC05F091CD050FB6F8940F9265
:1024C000808591859C838B830F900FBEEB80FC8071
:1024D000E091CA05F091CB050FB6F8940F92808574
:1024E00091859A8389830F900FBE09811A81B70164
:1024F000C5010E941817E091C005F091C1050FB603
:10250000F8940F92718760870F900FBEA401B801F5
:10251000C6010E941817E091BE05F091BF050FB6E5
:10252000F8940F92718760870F900FBE65E070E09E
:1025300080E090E00E94102BA7014801BACF0F93D2
:102540001F93CF93DF93EC010E945F2E80E492E013
:1025500099838883DF91CF911F910F910895CF9335
:10256000DF93CDB7DEB7E0970FB6F894DEBF0FBEAE
:10257000CDBF4C0182E090E00E94A13298AB8FA7C2
:10258000F401668177810E9464190E9409296B8F8A
:102590007C8F8D8F9E8F8FE190E00E94A1322C0165
:1025A000F401668177810E945C1B8FE190E00E94BC
:1025B000A1323C01F401668177810E945C1BE091AD
:1025C000C005F091C1050FB6F8940F9211861086E0
:1025D0000F900FBE0FB6F8940F92E091B805F091EE
:1025E000B90510861186128613860F900FBE82E001
:1025F0008E8780E0B82E8F8784E0888B80E091E022
:10260000D82E898B9A8B1C8A1B8A182F8D8B9E8BB8
:1026100081E0382F8F8B8FEF888F582F898F1A8EFC
:1026200042E0A42E64E0C62EEE24E394F12C0C8943
:1026300021E04FEF60E0C2010E94961BE091BE05D1
:10264000F091BF050FB6F8940F92118610860F9087
:102650000FBE0FB6F8940F92E091B605F091B70552
:1026600010861186128613860F900FBE82E0898332
:1026700080E0B82E8A8384E08B8380E091E0D82EBE
:102680008C839D831F821E82182F8887998781E003
:10269000382F8A878FEF8B87582F8C871D860F8165
:1026A00021E04FEF60E0C3010E94961B77EAC72E3E
:1026B000D12CE12CF12C15C0F40186859785A089D9
:1026C000B1890196A11DB11DF40186879787A08B62
:1026D000B18B45E050E060E070E0CE014B960E9487
:1026E000A92A0FB6F8940F920F900FBEE091B00593
:1026F000F091B10580858130F9F64AE060E08FA560
:1027000098A90E949719929582958F7089279F703A
:102710008927182F28E2280F213508F45BC087FD90
:1027200090C1882309F46EC1E091C005F091C10504
:102730000FB6F8940F92808591859AA789A70F907C
:102740000FBE69A57AA548E250E0C2010E94CE1CE6
:102750000FB6F8940F92E091B405F091B50591870A
:1027600080870F900FBEE091BE05F091BF050FB6B8
:10277000F8940F92808591859CA38BA30F900FBE38
:102780006BA17CA148E250E0C3010E94CE1C0FB6B1
:10279000F8940F92E091B205F091B305918780878C
:1027A0000F900FBE18E2F4013684A784B088018927
:1027B000632D7A2D8B2D902FA70196010E94C73E85
:1027C000672B682B692B09F446C0832D9A2DAB2DFE
:1027D000B02F77CFA82EBB24A7FCB094E091C00502
:1027E000F091C1050FB6F8940F92808591859EA750
:1027F0008DA70F900FBE6DA57EA5A501C2010E94F9
:10280000CE1C0FB6F8940F92E091B405F091B50587
:10281000918780870F900FBEE091BE05F091BF05B4
:102820000FB6F8940F928085918598A78FA30F908B
:102830000FBE6FA178A5A501C3010E94CE1C0FB6E3
:10284000F8940F92E091B205F091B30591878087DB
:102850000F900FBEA8CFE091C005F091C1050FB653
:10286000F8940F92808591859AA389A30F900FBE4B
:1028700029A03AA06BE0F401868197810E941D3364
:102880005C0164EC7BE00E94D832B101C5010E947A
:10289000623366E00E941D336BE0F401868197810C
:1028A0000E941D335C0168EA7BE00E94D832612FF0
:1028B000C5010E9491336BE00E941D335C016BEBFC
:1028C0007BE00E94D83266E0C5010E941D33C20140
:1028D0000E94EB1B1C016BE0F401868197810E9432
:1028E0001D335C0165E97BE00E94D832B101C5016E
:1028F0000E94623366E00E941D33C2010E94EF1BFA
:102900001C016BE0F401868197810E941D335C01FC
:1029100062E87BE00E94D832B101C5010E946233B7
:1029200066E00E941D3366E00E941D33E091BE0503
:10293000F091BF050FB6F8940F928085918598A30A
:102940008F8F0F900FBE2F8C38A06BE0F401868123
:1029500097810E941D335C016FE67BE00E94D832B4
:10296000B101C5010E94623366E00E941D336BE035
:10297000F401868197810E941D335C0163E57BE051
:102980000E94D832612FC5010E9491336BE00E94F2
:102990001D338C0166E67BE00E94D83266E0C801F8
:1029A0000E941D33C3010E94EB1B5C016BE0F4012C
:1029B000868197810E941D338C0160E47BE00E9438
:1029C000D832B501C8010E94623366E00E941D330F
:1029D000C3010E94EF1B5C016BE0F40186819781CB
:1029E0000E941D338C016DE27BE00E94D832B5015C
:1029F000C8010E94623366E00E941D3366E00E94B7
:102A00001D335ACE6BE0F401868197810E941D33FD
:102A10005C0161EE7BE00E94D83266E0C5010E9455
:102A20001D336BE0F401868197810E941D335C01A8
:102A300067ED7BE00E94D83266E0C5010E941D333D
:102A4000B2CEE091C005F091C1050FB6F8940F9297
:102A5000808591859CA78BA70F900FBE6BA57CA549
:102A600048ED5FEFC2010E94CE1C0FB6F8940F92A2
:102A7000E091B405F091B505918780870F900FBE66
:102A8000E091BE05F091BF050FB6F8940F928085D6
:102A900091859EA38DA30F900FBE6DA17EA148EDE1
:102AA0005FEFC3010E94CE1C0FB6F8940F92E09125
:102AB000B205F091B305918780870F900FBE18ED96
:102AC00072CE0F931F93CF93DF93EC010E945F2E82
:102AD00088E492E099838883DF91CF911F910F91D1
:102AE00008958C0184E090E00E94A132EC01F8018D
:102AF000668177810E94A218CE010E94E51861E0EC
:102B0000CE010E94F61862E0CE010E94F61863E042
:102B1000CE010E94F61860ED77E080E090E00E9420
:102B2000102BEACF0F931F93CF93DF93EC010E94FA
:102B30005F2E80E592E099838883DF91CF911F918A
:102B40000F9108958C0182E090E00E94A132EC0187
:102B5000F801668177810E944B190FB6F8940F92A5
:102B6000E091AC05F091AD0586E180870F900FBE36
:102B700066E10FB6F8940F920F900FBECE010E943F
:102B800058196AE070E080E090E00E94102BE0911C
:102B9000AC05F091AD056085ECCF0F931F93CF93FB
:102BA000DF93EC010E945F2E88E592E09983888391
:102BB000DF91CF911F910F910895CF93DF93FC0187
:102BC00071836083428380918000816A809380005A
:102BD0008091800080938000809181008A60809342
:102BE000810080918100809381008281813089F011
:102BF0008230B9F0C081D181209781F06CE572E01C
:102C0000CE010E94D83266E0CE01DF91CF910C94C4
:102C10001D3387B1876087B9329A269ADF91CF91A9
:102C200008958AB1806E8AB94F9A259ADF91CF9123
:102C30000895FC012281213071F0223009F00895BD
:102C400077FD18C08BB18BB95E985D9A709389003F
:102C500060938800089528B128B977FD13C0419882
:102C6000409A70938B0060938A00FC0182818230CD
:102C700049F308958BB18BB95E9A5D987195619512
:102C80007109E4CF419A4098719561957109E9CF36
:102C9000FC012281213039F0223009F008958BB1F6
:102CA00080668BB9089528B1236028B92281F4CFBA
:102CB000FC012281213059F0223009F008958BB1B6
:102CC0008BB970E07093890060938800089528B1F3
:102CD00028B9262F30E030938B0020938A00228180
:102CE000EBCFCF93DF93E091CC05F091CD050FB6FC
:102CF000F8940F92118610860F900FBEE091CA05CE
:102D0000F091CB050FB6F8940F92118610860F90B4
:102D10000FBEE091C805F091C9050FB6F8940F9267
:102D200010860F900FBEE091C605F091C7050FB653
:102D3000F8940F9210860F900FBEE091C405F091A9
:102D4000C5050FB6F8940F9210860F900FBEE09154
:102D5000C205F091C3050FB6F8940F9210860F903C
:102D60000FBE60916A00242F30E081E090E0FC010A
:102D7000042E01C0EE0F0A94EAF75E2F50955623F9
:102D800050936A0050916A00B90161507109DC01E9
:102D900002C0AA0FBB1F6A95E2F7BD015A2B5093E0
:102DA0006A0050916A00D9011297EC0102C0CC0F61
:102DB000DD1FAA95E2F7DE01A095A523A0936A0086
:102DC00050916A00D9011397EC0102C0CC0FDD1FAE
:102DD000AA95E2F75C2B50936A00473011F143301B
:102DE00049F08DB18F708DB98EB1806F8EB9DF9142
:102DF000CF9108956DB3A9014E5F5F4FFC0102C0F2
:102E0000EE0FFF1F4A95E2F76E2B6DBB4DB32F5FA0
:102E10003F4F022E01C0880F0A94EAF7482B4DBBA2
:102E2000E0CF8DB38E2B8DBB8DB3862B8DBBD9CFD1
:102E3000461B570BBA0180E090E008951F920F9255
:102E40000FB60F9211240BB60F928F939F93AF93EF
:102E5000BF93EF93FF93CF93DF93CDB7DEB7259763
:102E6000DEBFCDBFE091C605F091C7050FB6F8945F
:102E70000F9280858D830F900FBE8D81A091C80524
:102E8000B091C9050FB6F8940F9218968C931897C5
:102E90000F900FBE9CB18CB180729071892B90E025
:102EA000959587959595879595958795959587950A
:102EB0000FB6F8940F9280870F900FBE18968C91E2
:102EC000813009F454C008F442C0823039F18330B3
:102ED00089F48085813009F451C08085823009F001
:102EE0003CC0E091CC05F091CD058085918501979E
:102EF000918780870F900F900F900F900F90DF9128
:102F0000CF91FF91EF91BF91AF919F918F910F90D2
:102F10000BBE0F900FBE0F901F90189580858330C9
:102F200069F18085811119C0E091CC05F091CD0542
:102F30000FB6F8940F92808591859A8389830F90BC
:102F40000FBE89819A81019791878087D3CF808531
:102F50008230A1F080858130D9F0E091BC05F091FC
:102F6000BD0580859185019691878087C3CF808537
:102F7000882321F08085833081F7B3CFE091CC05A1
:102F8000F091CD0580859185019691878087B2CF9C
:102F9000E091CC05F091CD050FB6F8940F928085A5
:102FA00091859C838B830F900FBE8B819C810197B1
:102FB000918780879FCF0C941E171F920F920FB698
:102FC0000F9211240BB60F928F939F93AF93BF93E1
:102FD000EF93FF93E091C205F091C3058085A09126
:102FE000C405B091C50518968C9318979CB18CB107
:102FF00080789074892B90E0082E892F000C881F10
:10300000990B000C881F991F808718968C9181302E
:10301000C1F138F1823049F08330B1F480858130DC
:10302000B9F18085823019F506C08085833081F141
:10303000808581111CC0E091CA05F091CB05808587
:103040009185019791878087FF91EF91BF91AF9113
:103050009F918F910F900BBE0F900FBE0F901F90FE
:10306000189580858230A1F08085813021F3E09130
:10307000BA05F091BB05808591850196918780877F
:10308000E3CF8085882321F08085833081F7D3CFFB
:10309000E091CA05F091CB058085918501969187D5
:1030A0008087D2CF0C94DD17CF93DF93EC01262FCE
:1030B0004DE360E58A819B810E949F206BE08881BF
:1030C00099810E941D33EC0161E27CE00E94D832BC
:1030D00066E0CE01DF91CF910C941D33CF93DF9347
:1030E000EC01262F4EE360E58A819B810E949F20A0
:1030F0006BE0888199810E941D33EC016EE07CE0D9
:103100000E94D83266E0CE01DF91CF910C941D333E
:10311000CF93DF93EC0120E04BE360E58A819B8154
:103120000E949F206BE0888199810E941D33EC01F1
:1031300060E07CE00E94D83266E0CE01DF91CF9162
:103140000C941D330F931F93CF93DF93EC0179837E
:10315000688384E090E00E94A1328C0168817981CB
:103160000E94201E1B830A8340E060E5C8010E9484
:103170000E1F6BE0803A09F1888199810E941D330E
:103180008C016FE57CE0C8010E94D83266E0C8017E
:103190000E941D3360E0CE010E94541860E0CE0111
:1031A0000E946E18CE010E9488186CE0CE01DF915B
:1031B000CF911F910F910C945418888199810E948E
:1031C0001D338C0168E37CE0DECFCF93DF93EC010D
:1031D00049E360E58A819B810E940E1F46E360E51A
:1031E0008A819B81DF91CF910C940E1F1F93CF9307
:1031F000DF93EC016130D1F1623009F440C06330FB
:10320000A1F06BE0888199810E941D33EC016BEE87
:103210007BE00E94D83266E0CE010E941D3380E040
:1032200090E0DF91CF911F9108954FE160E58A8191
:103230009B810E940E1F182F4EE160E58A819B81C1
:103240000E940E1F212F30E0322F2227282B37FD1E
:103250001FC0C901959587959595879595958795F3
:1032600095958795DF91CF911F9108954BE160E58A
:103270008A819B810E940E1F182F4AE1DECF4DE10B
:1032800060E58A819B810E940E1F182F4CE1D5CFEB
:10329000215F3F4FDECF84B5836884BD84B58F7BCB
:1032A00084BD85B585BD85B5856085BD279A0895A2
:1032B0006F3038F06E3110F467BD08956DE167BD71
:1032C00008956FE067BD0895FC0171836083EAE7AC
:1032D000F0E080818068808380818160808380814C
:1032E0008D7F8083808184608083ECE7F0E0808143
:1032F0008064808380818F778083089580917C00B3
:10330000887F80937C0080917C006770682B60933D
:103310007C0080917A00806480937A0080917A00AA
:1033200086FDFCCF8091780090917900089540341B
:1033300030F1ECE3F0E04CE3677080E090E0209146
:103340007C00287F20937C0020917C00262B2093FA
:103350007C0020917A00206420937A0020917A00EA
:1033600026FDFCCF2091780030917900820F931FC9
:10337000415029F7BF010E949F3ECB01089544238D
:1033800019F0E42FF0E0D8CFE0E0F0E080E090E04A
:10339000BF010E949F3ECB0108952F923F924F9212
:1033A0005F926F927F928F929F92AF92BF92CF92D5
:1033B000DF92EF92FF920F931F93CF93DF9300D092
:1033C00000D000D0CDB7DEB79E838D8380917C0086
:1033D000887F80937C0080917C00876080937C0054
:1033E00080917A00806480937A0080917A0086FDD3
:1033F000FCCF209178003091790080917C00887F0B
:1034000080937C0080917C00866080937C0080911A
:103410007A00806480937A0080917A0086FDFCCFE8
:10342000209078003090790080917C00887F809394
:103430007C0080917C00856080937C0080917A0084
:10344000806480937A0080917A0086FDFCCF409062
:1034500078005090790080917C00887F80937C0078
:1034600080917C00846080937C0080917A008064ED
:1034700080937A0080917A0086FDFCCF00917800DD
:103480001091790080917C00887F80937C008091EE
:103490007C00836080937C0080917A0080648093BC
:1034A0007A0080917A0086FDFCCFE0907800F09061
:1034B000790080917C00887F80937C0080917C00E3
:1034C000826080937C0080917A00806480937A008F
:1034D00080917A0086FDFCCFC0907800D090790072
:1034E00080917C00887F80937C0080917C0081604B
:1034F00080937C0080917A00806480937A00809130
:103500007A0086FDFCCFA0907800B0907900809181
:103510007C00887F80937C0080917C0080937C007D
:1035200080917A00806480937A0080917A0086FD91
:10353000FCCF809078009090790040917C00509171
:103540007A006BE08D819E812B833C834A83598373
:103550000E941D333C0165E87CE00E94D83259810D
:10356000652FC3010E944F3466E00E941D336BE05B
:103570000E941D333C016EE87CE00E94D8324A81F3
:10358000642FC3010E944F3466E00E941D336BE03C
:103590000E941D333C0166E97CE00E94D832B401F0
:1035A000C3010E94CD3366E00E941D336BE00E9490
:1035B0001D334C016EE97CE00E94D832B501C40194
:1035C0000E94CD3366E00E941D336BE00E941D33E4
:1035D0005C0166EA7CE00E94D832B601C5010E9417
:1035E000CD3366E00E941D336BE00E941D336C01F9
:1035F0006EEA7CE00E94D832B701C6010E94CD334A
:1036000066E00E941D336BE00E941D337C0166EB77
:103610007CE00E94D832B801C7010E94CD3366E039
:103620000E941D336BE00E941D338C016EEB7CE029
:103630000E94D832B201C8010E94CD3366E00E94D8
:103640001D336BE00E941D338C0166EC7CE00E9410
:10365000D832B101C8010E94CD3366E00E941D330B
:103660006BE00E941D338C016EEC7CE00E94D8322E
:103670002B813C81B901C8010E94CD3366E00E94D4
:103680001D338D819E8126960FB6F894DEBF0FBE46
:10369000CDBFDF91CF911F910F91FF90EF90DF9001
:1036A000CF90BF90AF909F908F907F906F905F90E2
:1036B0004F903F902F900895CF93DF93EC01DC0162
:1036C0006D937D938DE0E8E0F2E001900D928A9594
:1036D000E1F7188A1F861A8A198A1C8A1B8A1E8A91
:1036E0001D8A188E1F8A1C8E1B8EDF91CF91089524
:1036F000FC016283148E138E0895CF93DF93EC0147
:10370000CB016F857889788F6F8B988B8F870E941C
:10371000A51D9A8F898FDF91CF910895FC01728B3F
:10372000618B0895FC01748B638B0895AF92BF92F7
:10373000CF92DF92EF92FF920F931F93CF93DF937D
:10374000CDB7DEB72D970FB6F894DEBF0FBECDBF55
:10375000A982BA82CB82DC82ED82FE820F83188737
:1037600029873A874B875C876D872DE0FE0131966C
:10377000DC01129601900D922A95E1F7FC01148E5E
:10378000138E2D960FB6F894DEBF0FBECDBFDF911E
:10379000CF911F910F91FF90EF90DF90CF90BF904E
:1037A000AF900895FC01748363830895FC017683D0
:1037B00065830895FC01708767830895FC01728713
:1037C00061870895FC01748763875687458708954C
:1037D000FC0182810895FC01878590890895FC0190
:1037E000818992890895FC018389948908952DE047
:1037F000FB013296DC0101900D922A95E1F70895C4
:10380000FC01858196810895FC018381948108954E
:10381000FC01878190850895FC018185928508953A
:10382000FC01838594850895FC018585968508951E
:103830000F931F93CF93DF93EC018F8598892B898A
:103840003C89821B930B9E8B8D8B6D8D7E8D898524
:103850009A850E94EF1D40E054E00E94011E8C01F9
:103860006D897E898B8D9C8D0E94881DB8010E9478
:10387000A51D9C8F8B8F8A81833009F472C090F5CF
:10388000813009F463C0823009F044C06D897E89BB
:103890008B819C810E94EF1D40E054E00E94011E3C
:1038A0008C016B8D7C8D8D819E810E94EF1D40E08F
:1038B00054E00E94011EB8010E94881D6D857E851E
:1038C00068177907D4F06B857C85861797070CF409
:1038D00058C01E8E1D8E9A8B898BDF91CF911F91C0
:1038E0000F9108958430C9F08530A1F489899A89AF
:1038F0006D857E856817790734F70E94A51D9E8F18
:103900008D8F8D859E85898B9A8BDF91CF911F91AD
:103910000F91089580E090E0D1CF6D897E898B81F1
:103920009C810E94EF1D40E054E00E94011E8C012A
:10393000698D7A8D8F8198850E94EF1D40E054E05B
:103940000E94011EB8010E94881DAACF6D897E8940
:103950008B819C810E94EF1D40E054E00E94011E7B
:10396000ADCF6D897E898B819C810E94EF1D40E0E7
:1039700054E00E94011E8C01698D7A8D8F8198859B
:1039800094CF0E94A51D9E8F8D8F8B859C85898BE2
:103990009A8BDF91CF911F910F9108950F931F93F1
:1039A000CF93DF93EC01CB018A016F857889788F03
:1039B0006F8B988B8F870E94A51D9A8F898F1C8B88
:1039C0000B8BCE01DF91CF911F910F910C94181C9E
:1039D0004F925F926F927F928F929F92AF92BF921F
:1039E000CF92DF92EF92FF920F931F93CF93DF93CB
:1039F000EC01FB014184528467807084038114814F
:103A0000E580F680C584D684A384B4848280912C1A
:103A10006DE872E00E94D83262E0CE010E941D3350
:103A2000B4010E94623366E00E941D334C0168E9D4
:103A300072E00E94D83262E0C4010E941D33B501D9
:103A40000E9462335C0165EA72E00E94D83262E053
:103A5000C5010E941D33B6010E94623366E00E94D8
:103A60001D336C016AEA72E00E94D83266E0C6013A
:103A70000E941D336C0161EB72E00E94D83262E05B
:103A8000C6010E941D33B7010E94623366E00E94A6
:103A90001D337C016DEB72E00E94D83262E0C701F9
:103AA0000E941D33B8010E94623366E00E941D33FC
:103AB0008C0169EC72E00E94D83262E0C8010E9479
:103AC0001D33B3010E94623366E00E941D338C01F6
:103AD00065ED72E00E94D83262E0C8010E941D3399
:103AE000B2010E94623366E00E941D33CE01DF9175
:103AF000CF911F910F91FF90EF90DF90CF90BF90EB
:103B0000AF909F908F907F906F905F904F900895AF
:103B10009C01432F4095441F4427441F80E090E8B8
:103B2000841B9109AC01421B530BE1E04617570778
:103B30000CF0E0E0432F4095441F4427441FE41756
:103B400019F0C901860F971F08958617970799F1F5
:103B5000611520E8720741F1719561957109492F4E
:103B60004095441F4427441F20E030E8241B3109BE
:103B7000A901481B590BE1E04617570764F4492F88
:103B80004095441F4427441FE41719F0860F971FE0
:103B90000895C9010895E0E0492F4095441F442746
:103BA000441FE417B1F3F2CF97FD03C06FEF7FE737
:103BB000D6CF0196FBCF80E090E00895811520E8F4
:103BC000920729F09C0197FD05C0C90108958FEF68
:103BD0009FE70895319521953109C901089581150F
:103BE00020E8920729F09C01DB010E94663E0895BF
:103BF000611520E87207B9F76FEF7FEF8FEF9FE74E
:103C000008959A01442737FD4095542F0E94E93EBC
:103C1000211580E838074105510524F02FEF3FE7D3
:103C200040E050E0DA01C901811520E892072FEF4A
:103C3000A207B20724F480E090E8AFEFBFEF089549
:103C4000CF93DF93EC017983688388E48093B80095
:103C500081E00E9410259B838A83892B19F0DF91D4
:103C6000CF9108950990D881C02D2097C1F36EE1BE
:103C700075E0CE010E94D83266E0CE01DF91CF918F
:103C80000C941D3384EA8093BC008091BC0087FDB6
:103C90000AC089EE93E003C00197009769F0209174
:103CA000BC0027FFF9CF9091B900987F81E0983050
:103CB00009F0089580E0089581E008951F93CF935F
:103CC000DF9324EA2093BC002091BC0027FD0CC0A8
:103CD00029EE33E005C02150310921153105C1F12C
:103CE0004091BC0047FFF7CF2091B900287F2031D9
:103CF00051F1FC0180819181009729F11091B90067
:103D00006BE00E941D33EC016AE27DE00E94D83234
:103D100063E0CE010E941D33612F0E944F346BE09F
:103D20000E941D33EC016BE37DE00E94D83262E01B
:103D3000CE010E941D3366E00E941D3380E0DF91BA
:103D4000CF911F91089580E0DF91CF911F91089549
:103D500081E0DF91CF911F910895CF93DF9360931E
:103D6000BB0024E82093BC002091BC0027FD0CC0C0
:103D700029EE33E005C0215031092115310591F0BC
:103D80004091BC0047FFF7CF9091B900987F81E048
:103D9000983129F0983219F0903409F080E0DF91E1
:103DA000CF910895FC01808191810097B9F36BE078
:103DB0000E941D33EC0169E17DE00E94D83266E08B
:103DC000CE010E941D3380E0DF91CF9108956623DC
:103DD000E9F084EC8093BC0040E59091BC0097FD35
:103DE0000AC089EE93E003C00197009769F0209123
:103DF000BC0027FFF9CF2091B900287F30E0842F45
:103E000090E02817390739F08FEF089584E8809300
:103E1000BC0048E5E2CF8091BB000895FF920F936C
:103E20001F93CF93DF93EC01162FF42E00E02FEFBA
:103E30003FEFA90160E070E08A819B810E947925B3
:103E400084EA8093BC008091BC0087FD0CC029EE01
:103E500033E005C0215031092115310531F0809141
:103E6000BC0087FFF7CF8091B900612FCE010E947F
:103E7000AD1E81111AC088819981009721F062E3FB
:103E800075E00E94D83200E020E030E0A90160E057
:103E900070E08A819B810E94582411E0812FDF917C
:103EA000CF911F910F91FF9008956F2DCE010E9429
:103EB000AD1E882301F384E98093BC0084EA8093DB
:103EC000BC008091BC0087FD0CC029EE33E005C02A
:103ED000215031092115310531F08091BC0087FF57
:103EE000F7CF8091B900612F6160CE010E94AD1EB5
:103EF00081111AC088819981009721F068E375E0EB
:103F00000E94D83200E020E030E0A90160E070E0DB
:103F10008A819B810E9458241FEF812FDF91CF91CE
:103F20001F910F91FF90089584E88093BC008091C9
:103F3000BC0087FD0CC029EE33E005C021503109DB
:103F40002115310549F08091BC0087FFF7CF8091A2
:103F5000B900887F8835A9F01FEF84E98093BC0001
:103F600000E020E030E0A90160E070E08A819B8100
:103F70000E945824812FDF91CF911F910F91FF90C4
:103F800008951091BB00E9CFCF92DF92EF92FF929C
:103F90000F931F93CF93DF93EC01C62ED42E79019C
:103FA000102F00E02FEF3FEFA90160E070E08A8161
:103FB0009B810E94792584EA8093BC008091BC009B
:103FC00087FD0AC0E9EEF3E003C03197309731F086
:103FD0009091BC0097FFF9CF8091B9006C2DCE0174
:103FE0000E94AD1E81111EC088819981009721F029
:103FF0006EE375E00E94D83200E020E030E0A901D5
:1040000060E070E08A819B810E945824DD24D39473
:104010008D2DDF91CF911F910F91FF90EF90DF9049
:10402000CF9008956D2DCE010E94AD1ED82E88230D
:10403000D9F284E98093BC0084EA8093BC0080912B
:10404000BC0087FD0CC049EE53E005C0415051094A
:104050004115510531F09091BC0097FFF7CF809149
:10406000B9006C2D6160CE010E94AD1E811113C09C
:1040700088819981009721F064E475E00E94D8322C
:1040800000E020E030E0A90160E070E08A819B81DF
:104090000E945824BDCF8FEF810F19F1F70124EC56
:1040A0002093BC009091BC0097FD0CC049EE53E0FA
:1040B00005C0415051094115510549F09091BC008E
:1040C00097FFF7CF9091B900987F903591F19FEFCE
:1040D0009193815029F71250812F90E00196E80EBC
:1040E000F91E84E88093BC008091BC0087FD0AC063
:1040F00089EE93E003C00197009749F02091BC003E
:1041000027FFF9CF8091B900887F8835A9F08FEF1C
:10411000F701808384E98093BC0000E020E030E078
:10412000A90160E070E08A819B810E945824D12C13
:104130006FCF9091BB00CCCF8091BB00E9CFEF92C5
:10414000FF920F931F93CF93DF93EC01162FF42E62
:10415000E22E00E02FEF3FEFA90160E070E08A81DE
:104160009B810E94792584EA8093BC008091BC00E9
:1041700087FD0AC0E9EEF3E003C03197309731F0D4
:104180008091BC0087FFF9CF8091B900612FCE01EB
:104190000E94AD1E81111AC088819981009721F07B
:1041A0006AE475E00E94D83200E020E030E0A90126
:1041B00060E070E08A819B810E94582481E0DF9159
:1041C000CF911F910F91FF90EF9008956F2DCE0129
:1041D0000E94AD1E882301F36E2DCE010E94AD1EFC
:1041E0008823D1F284E98093BC0000E020E030E035
:1041F000A90160E070E08A819B810E94582480E0E0
:10420000DECFBF92CF92DF92EF92FF920F931F9378
:10421000CF93DF937C01C62FD42FB22E132FD02E35
:1042200000E02FEF3FEFA90160E070E0DC011296A3
:104230008D919C9113970E94792584EA8093BC000C
:104240008091BC0087FD0AC0E9EEF3E003C031971E
:10425000309731F08091BC0087FFF9CF8091B90091
:104260006C2FC7010E94AD1E811123C0D7018D9113
:104270009C91009721F060E575E00E94D83200E043
:1042800020E030E0A90160E070E0D70112968D9146
:104290009C9113970E945824CC24C3948C2DDF91B9
:1042A000CF911F910F91FF90EF90DF90CF90BF9033
:1042B00008956D2FC7010E94AD1EC82E8823B1F24C
:1042C000DD2079F1CB2DD12F10E003C01F5F1D152C
:1042D00041F16991C7010E94AD1E8111F7CFF7012D
:1042E000C081D181209789F066E575E0CE010E94FA
:1042F000D832612FCE010E944F34DC01ED91FC9148
:104300000280F381E02D6EE3099500E020E030E0CB
:10431000A90160E070E0F701828193810E94582436
:10432000BDCF84E98093BC0000E020E030E0A9012B
:1043300060E070E0F701828193810E945824C12CD3
:10434000ADCF8BB18695817008950F931F93CF9356
:10435000DF93EC01162F00E02FEF3FEFA90160E0A3
:1043600070E08A819B810E94792584EA8093BC0059
:104370008091BC0087FD0CC029EE33E005C02150C0
:1043800031092115310531F08091BC0087FFF7CF4D
:104390008091B900612FCE010E94AD1E182F84E9D3
:1043A0008093BC0000E020E030E0A90160E070E014
:1043B0008A819B810E945824812FDF91CF911F9188
:1043C0000F910895CF92DF92EF92FF920F931F9378
:1043D000CF93DF938C01EB016BE0CE010E941D3384
:1043E0007C0165E07DE00E94D83263E0C7010E9455
:1043F0001D3366E00E941D33E12CF12C6E2DCE01A1
:104400000E944F34DC01ED91FC910280F381E02D9C
:1044100060E30995CE2CC29480EFC822D12C08C04D
:1044200060E4CE010995D394D394B0E1DB16E1F0BA
:10443000E881F9810280F381E02D60E2CE010995E7
:104440006D2D6C29C8010E94A521E881F9810280A7
:10445000F381E02D8111E4CF6DE2CE010995D39473
:10446000D394B0E1DB12E4CF66E0CE010E941D33AD
:104470008FEFE81AF80AA0E1EA16F10409F0BECFBE
:1044800062E0CE01DF91CF911F910F91FF90EF90ED
:10449000DF90CF900C941D330F931F93CF93DF9336
:1044A000EC010E9403298091DC05811121C086EE78
:1044B00095E09093E2058093E1051092E405109257
:1044C000E30587E397E19093E0058093DF05109281
:1044D000DE051092DD059093E9058093E8058DEDEA
:1044E00095E09093E7058093E60581E08093DC05F5
:1044F000209709F460C0AE014C5F5F4F2396C6332E
:10450000D74108F058C0E091E105F091E205A1EE35
:10451000B5E006C080819181009739F0DF01FC0190
:104520002281338124173507A8F3C5E0ED3DFC0750
:1045300009F441C00D911C9111970C5F1F4F8081B0
:1045400091818D939C93C901841B950B89309105B2
:1045500000F1BF01640F751FDB0113969C938E93CE
:1045600012975383428312968D919C911397A1EEDB
:10457000B5E001C0DF01ED91FC91119722813381FB
:1045800028173907B8F3EB01F983E8836D937C931F
:104590009A018091000290910102821B930B9093EB
:1045A0000102809300020E94362AC801DF91CF9158
:1045B0001F910F91089500E010E00E94362AC80173
:1045C000DF91CF911F910F910895CF93DF930097C3
:1045D00021F1EC0124970E9403294A815B81A1EE1D
:1045E000B5E001C0DF01ED91FC911197228133818B
:1045F00024173507B8F3F983E883CD93DC938091D2
:10460000000290910102840F951F90930102809304
:104610000002DF91CF910C94362ADF91CF9108955B
:104620008091000290910102089508951F93CF9305
:10463000DF93EC01142F88A181110DC0888199812D
:10464000892B09F44DC080E09E8D9F5F9E8FDF9186
:10465000CF911F910895482F50E011111CC08C81FB
:104660009D810E94044028A18C819D81820F911D13
:104670009D838C832A813B818217930720F3888155
:1046800099819D838C8380E09E8D9F5F9E8FDF91BB
:10469000CF911F9108958E819F810E94044028A18F
:1046A00030E03195219531098E819F81820F931FD2
:1046B0009F838E83688179818617970730F48A817A
:1046C0009B81820F931F9F838E83123009F0BBCF93
:1046D0008E8D882309F4B7CF8E8D81508E8FB3CF06
:1046E0008A819B810E94612D1B821A82ADCFFC01C1
:1046F000CB0140A1442399F050E026813781240F5B
:10470000351F37832683628173812617370720F090
:104710002081318137832683B9010C9404400895A8
:104720000F931F93CF93DF93EC010FB6F8940F9282
:104730008AA11816ECF48B898823D1F08E010D5EC6
:104740001F4F09C08AA181508AA38AA1181684F438
:104750008B89882369F0C8010E94ED2B882391F38F
:104760000E94E12C8AA181508AA38AA1181684F3A1
:104770008FEF8AA30F900FBE0FB6F8940F9289A106
:104780001816ECF488858823D1F08E01085F1F4F3E
:1047900009C089A1815089A389A1181684F488854C
:1047A000882369F0C8010E94ED2B882391F30E94B1
:1047B000E12C89A1815089A389A1181684F38FEF78
:1047C00089A30F900FBEDF91CF911F910F91089594
:1047D000CF93DF93EC010FB6F8940F9228813981C3
:1047E0008F8D78A1879FC0011124A901480F591FFF
:1047F0005B834A831E8E3D832C83871B9109820F26
:10480000931F9F838E838FEF89A38AA3611112C0A8
:104810008885811106C00F900FBE81E0DF91CF9196
:104820000895CE0108960E94ED2B8130A1F70E94D9
:10483000CD37F1CFCE0108960E945E36CE01439669
:104840000E945E360F900FBE81E0DF91CF910895F8
:104850000F931F93CF93DF93182F062F882301F117
:1048600083E290E00E944C22EC010097C9F0109F77
:10487000C001112401960E944C2299838883892BC0
:1048800061F01F8F08A361E0CE010E94E823CE01F2
:10489000DF91CF911F910F910895CE010E94E522E3
:1048A000C0E0D0E0CE01DF91CF911F910F9108952C
:1048B0006F927F928F929F92AF92BF92CF92DF9230
:1048C000EF92FF920F93CF93DF93CDB7DEB7299787
:1048D0000FB6F894DEBF0FBECDBF5C014B012E8337
:1048E0003F834887598720E03C0188E0680E711CAF
:1048F0000FB6F8940F92F501968D878D981708F4EE
:1049000059C0023009F456C0CE80DF80E884F984B3
:10491000CD28CE28CF2809F46FC0222309F441C046
:104920000F900FBE0E9403290FB6F8940F92F50165
:1049300081A18F3F09F43CC0F50182A18F3FB1F105
:104940000F900FBEBE016A5F7F4FCE0101960E949D
:10495000802C811155C00FB6F8940F92F501968DF9
:104960000F900FBEF501878D981314C04E815F81A3
:1049700068857985C3010E94922BC5010E9490230E
:104980000E94362A882311F021E0B2CF0E94CD3751
:1049900021E0AECFC5010E9490230E94362A21E07B
:1049A000A7CFCE0101960E946F2CBACF12A2C8CF1A
:1049B00011A2C2CF402FB401C5010E941623F501F8
:1049C0009389911124C0811128C00F900FBE81E0FE
:1049D00029960FB6F894DEBF0FBECDBFDF91CF9101
:1049E0000F91FF90EF90DF90CF90BF90AF909F908E
:1049F0008F907F906F9008950F900FBE80E0E8CF6A
:104A0000C5010E9490230E94362A80E0E1CFC501B3
:104A100043960E94ED2B8130C1F60E94CD37D5CF51
:104A20000F93CF93DF9383E290E00E944C22EC013E
:104A3000009701F11B821A82198218821D821C8242
:104A40001F821E821E8E81E08F8F18A28FEF89A396
:104A50008AA3CE0108960E945E36CE0143960E943C
:104A60005E3600E020E030E0A90160E070E0CE01B9
:104A70000E945824CE01DF91CF910F9108950F939A
:104A80001F93CF93DF93EC018A019E8D8F8D981732
:104A900040F0223031F080E0DF91CF911F910F91F3
:104AA0000895422FCE010E941623882331F001156C
:104AB000110519F081E0F80180838AA18F3F49F048
:104AC0008AA18F5F8AA381E0DF91CF911F910F911F
:104AD00008958B898823B9F3CE0143960E94ED2B6C
:104AE000882389F30115110571F381E0F8018083B2
:104AF000D3CFAF92BF92CF92DF92EF92FF920F93FC
:104B0000CF93DF93CDB7DEB729970FB6F894DEBF0A
:104B10000FBECDBF7C016B012E833F834887598731
:104B200090E0570183E1A80EB11C0FB6F8940F92E4
:104B3000F701868D811169C04E815F816885798515
:104B4000452B462B472B09F47DC0992309F43EC021
:104B50000F900FBE0E9403290FB6F8940F92F70131
:104B600081A18F3F09F43EC0F70182A18F3F09F474
:104B70003FC00F900FBEBE016A5F7F4FCE0101960E
:104B80000E94802C811171C00FB6F8940F92F7012A
:104B9000868D0F900FBE81111EC0F701808191811B
:104BA000892B41F14E815F8168857985C5010E941D
:104BB000922BC7010E9490230E94362A882311F06D
:104BC00091E0B3CF0E94CD3791E0AFCFCE010196F7
:104BD0000E946F2CBDCFC7010E9490230E94362AED
:104BE00091E0A3CF11A2F70182A18F3F09F0C1CFBD
:104BF00012A2BFCF0FB6F8940F92F7018281938172
:104C00000E94062D0F900FBECDCFA680B780B601B3
:104C1000C7010E947723F70101112EC0868D8150B4
:104C2000868F80819181892BB9F1F7018085882356
:104C300041F1C70108960E94ED2B813011F50E94C9
:104C4000CD371FC00F900FBE80E029960FB6F894A5
:104C5000DEBF0FBECDBFDF91CF910F91FF90EF90E0
:104C6000DF90CF90BF90AF900895C7010E9490232E
:104C70000E94362A80E0E9CFB782A682838981111B
:104C800004C00F900FBE81E0E0CFC70143960E94A1
:104C9000ED2B8823B1F3D3CF0E94C82DF701938366
:104CA0008283C3CF0F931F93CF93DF9300D0CDB7F1
:104CB000DEB78C01FC01868D811108C080E00F9069
:104CC0000F90DF91CF911F910F910895C8014983F3
:104CD0005A830E947723F801868D8150868F81A1A7
:104CE00049815A818F3F61F0F80181A18F5F81A3D3
:104CF00081E00F900F90DF91CF911F910F91089558
:104D000080858823A9F3C801089649835A830E94A5
:104D1000ED2B49815A81882359F34115510541F3FF
:104D200081E0FA018083CBCF0F931F93CF93DF9362
:104D3000EC018E8D811106C080E0DF91CF911F9133
:104D40000F9108950E811F81CE010E9477231F834A
:104D50000E8381E0DF91CF911F910F9108950FB6DF
:104D6000F8940F92FC01868D0F900FBE08950FB638
:104D7000F8940F92FC01268D0F900FBEFC01878DD9
:104D8000821B0895FC01868D0895CF93DF93EC017B
:104D900088819981009711F00E94E522CE01DF9170
:104DA000CF910C94E522FC01968D81E0911180E079
:104DB0000895FC01268D81E0978D291380E00895E8
:104DC0008091521D823018F00E94CD37F9CFFFCF6D
:104DD000CF92DF92EF92FF926B017C01E0911D1D5B
:104DE000F0911E1D62837383848395838091261DB9
:104DF0009091271DA091281DB091291D60911D1D26
:104E000070911E1DC816D906EA06FB0610F18091A6
:104E10003A1D90913B1D6E5F7F4F0E9494368091AA
:104E2000020290910302A0910402B0910502C816FB
:104E3000D906EA06FB0640F4C0920202D0920302B1
:104E4000E0920402F0920502FF90EF90DF90CF9085
:104E500008958091381D9091391D6E5F7F4FFF90AE
:104E6000EF90DF90CF900C9494365F926F927F9288
:104E70008F929F92AF92BF92CF92DF92EF92FF926A
:104E80000F931F93CF93DF934C01162F572E5A0188
:104E9000390189E290E00E944C22EC01009709F46C
:104EA000E9C0C114D10409F4DAC0DC8ECB8EC6018E
:104EB000A50165EA70E00E940D4021E0A21AB10848
:104EC000CB8CDC8CCA0CDB1CAE01435E5F4FE12F48
:104ED000F52D2AE0CF013191DA013D93AD01DC01DE
:104EE0008C91882311F02150A9F71EA2102F0430B5
:104EF00008F07DC01A8F1FA318A65E01B2E0AB0EAA
:104F0000B11CC5010E946F36CE010E960E946F360D
:104F1000DB87CA8784E090E0A0E0B0E0811B9109C4
:104F2000A109B1098E879F87A88BB98BDF8BCE8BA8
:104F3000A301B401C6010E94FD3699838883E11460
:104F4000F10419F0F701D183C0830FB6F8940F92E2
:104F500080912A1D8F5F80932A1D80911D1D909145
:104F60001E1D892B09F449C08091241D81110BC09D
:104F7000E0911D1DF0911E1D828D081720F0D09329
:104F80001E1DC0931D1D8091201D8F5F8093201DCD
:104F90008A8D9091251D981738F1FBE08F9FC001F5
:104FA0001124B5018E5A924E0E9473360F900FBE97
:104FB0008091241D882339F0E0911D1DF0911E1D64
:104FC000828D8017B0F081E0DF91CF911F910F911A
:104FD000FF90EF90DF90CF90BF90AF909F908F9019
:104FE0007F906F905F9008958093251DD6CF13E03A
:104FF00081CF0E94CD3781E0E7CFD0931E1DC093B3
:105000001D1D80912A1D813009F0BDCF82E59DE1F3
:105010000E945E368DE59DE10E945E3688E69DE148
:105020000E945E3683E79DE10E945E3687E49DE143
:105030000E945E368CE39DE10E945E368DE29DE12A
:105040000E945E3687E49DE190933B1D80933A1D5C
:105050008CE39DE19093391D8093381D94CFC50159
:105060000E944C229C8F8B8F009709F021CFCE019C
:105070000E94E5228FEFA8CF0FB6F8940F92009709
:1050800029F00F900FBEFC01828D089580911D1DA7
:1050900090911E1D0F900FBEFC01828D0895EF921E
:1050A000FF921F93CF93DF93EC01262F643008F01B
:1050B00023E00FB6F8940F92209709F44AC03FA15D
:1050C0003217A9F180911D1D90911E1D3217B8F560
:1050D000C817D90741F0E0911D1DF0911E1D11E088
:1050E000828D281708F410E08A8D381769F12FA3F4
:1050F0004E855F856889798977FD0CC044E050E072
:1051000060E070E0421B5109610971094E875F87B9
:10511000688B798B2BE0829FC00111248E5A924EAE
:105120002C853D8528173907C9F0113079F00F908B
:105130000FBEDF91CF911F91FF90EF90089511E086
:10514000C817D90781F6D0CF2A8FD1CF0E94CD378B
:10515000EECFC0911D1DD0911E1DB1CF7E0182E00A
:10516000E80EF11CC7010E94D1368A8D9091251D51
:10517000981710F48093251D2BE0829FC001112405
:10518000B7018E5A924E0E947336CFCFAF92BF9224
:10519000CF92DF92EF92FF920F93A12CB12CC12CF2
:1051A000D12C8BE2E82E8DE1F82E00E020E030E0FB
:1051B00044E650E06AE575E080EE96E20E9435270D
:1051C000813041F00F91FF90EF90DF90CF90BF9032
:1051D000AF900895F8948093241D1092261D10928C
:1051E000271D1092281D1092291D0F91FF90EF90FE
:1051F000DF90CF90BF90AF900C949137F8941092BD
:10520000241D0C94CC3780911F1D8F5F80931F1D30
:1052100008950FB6F8940F926091261D7091271D86
:105220008091281D9091291D0F900FBE08956091C7
:10523000261D7091271D8091281D9091291D08958C
:1052400080912A1D0895009711F04D960895809140
:105250001D1D90911E1D4D96089580912B1D9091BE
:105260002C1D0895AF92BF92CF92DF92EF92FF92E2
:105270000F931F93CF93DF9380911F1D8111CFC098
:105280008091261D9091271DA091281DB091291D68
:105290000196A11DB11D8093261D9093271DA093FB
:1052A000281DB093291DC090261DD090271DE09089
:1052B000281DF090291DC114D104E104F10439F531
:1052C00080913A1D90913B1D2091381D3091391DE0
:1052D00030933B1D20933A1D9093391D8093381DC8
:1052E0008091211D8F5F8093211DE0913A1DF091E7
:1052F0003B1D808181119AC08FEF9FEFDC0180936D
:10530000020290930302A0930402B09305028091DD
:10531000020290910302A0910402B0910502B12C07
:10532000C816D906EA06FB0608F457C09BE0A92E6A
:10533000E0913A1DF0913B1D8081882309F442C021
:10534000E0913A1DF0913B1D0780F085E02DC0856E
:10535000D1854A815B816C817D81C416D506E606C4
:10536000F70608F47AC08E010E5F1F4FC8010E9435
:10537000D136888D998D892B21F0CE010E960E9411
:10538000D1368A8D9091251D981710F48093251D94
:10539000A89EC0011124B8018E5A924E0E94733605
:1053A000E0911D1DF0911E1D9A8D828D981708F4B5
:1053B000BFCFBB24B394E0913A1DF0913B1D808197
:1053C0008111BECF4FEF5FEFBA01409302025093BD
:1053D00003026093040270930502E0911D1DF09199
:1053E0001E1DE28D8BE0E89FF0011124EE5AF24E73
:1053F0008081823010F0BB24B3948091221D8823D9
:1054000011F0BB24B3948B2DDF91CF911F910F919D
:10541000FF90EF90DF90CF90BF90AF900895809174
:10542000231D8F5F8093231DB12CE7CFE0913A1DA0
:10543000F0913B1D0780F085E02D0084F185E02D83
:1054400082819381A481B5818093020290930302AB
:10545000A0930402B09305025ACF409302025093E6
:1054600003026093040270930502B7CFEF92FF929C
:105470000F931F93CF93DF930FB6F8940F92809101
:105480001F1D815080931F1D80911F1D811150C0D1
:1054900080912A1D882309F44BC02BE0F22EEE24C4
:1054A000E39427C0E091341DF091351DC085D1856E
:1054B000CE010E960E94D1368E010E5F1F4FC8019D
:1054C0000E94D1368A8D9091251D981710F48093F3
:1054D000251DF89EC0011124B8018E5A924E0E94DB
:1054E0007336E0911D1DF0911E1D9A8D828D9817C7
:1054F00048F580912D1D8111D5CF8091231D8823E2
:1055000099F08091231D882379F0C1E00E9432290F
:105510008111C093221D8091231D81508093231DF2
:105520008091231D8111F2CF8091221D813069F07D
:1055300080E00F900FBEDF91CF911F910F91FF90F0
:10554000EF900895E092221DD4CF0E94CD3781E0E4
:10555000F0CFCF92DF92EF92FF920F931F93CF93F2
:10556000DF9300D000D0CDB7DEB720911F1D2F5F95
:1055700020931F1DC090261DD090271DE090281D50
:10558000F090291DFC010081118122813381400F9F
:10559000511F621F731FC016D106E206F306E8F41E
:1055A0004017510762077307E8F0FC0140835183FD
:1055B000628373830E94362A811102C00E94CD3714
:1055C0000F900F900F900F90DF91CF911F910F913F
:1055D000FF90EF90DF90CF9008954017510762073A
:1055E000730728F0C416D506E606F706F0F6FC01A8
:1055F000408351836283738380911D1D90911E1D92
:10560000029649835A836B837C830E94D1364981F9
:105610005A816B817C81CB01BA010E94E826CACFF6
:10562000CF92DF92EF92FF9261157105810591058E
:1056300039F40E94CD37FF90EF90DF90CF9008951E
:1056400020911F1D2F5F20931F1DC090261DD090FD
:10565000271DE090281DF090291DC60ED71EE81EBC
:10566000F91E80911D1D90911E1D02960E94D1363B
:10567000C701B6010E94E8260E94362A8823C9F293
:10568000FF90EF90DF90CF90089580911F1D8111C2
:105690003BC01092221DE091251D8BE0E89FF00198
:1056A0001124EE5AF24E8081811110C09BE080914E
:1056B000251D81508093251DE091251D9E9FF001A1
:1056C0001124EE5AF24E8081882389F3E091251D42
:1056D0008BE0E89FF0011124EE5AF24EA181B281D5
:1056E00014960D90BC91A02DB283A183CF01039697
:1056F000A817B90769F018968D919C911997909306
:105700001E1D80931D1D089581E08093221D089524
:1057100014969C91149715968C9191838283A92F4E
:10572000B82FE9CFCF92DF92EF92FF926A017B010F
:1057300060911D1D70911E1D625F7F4F0E94943607
:1057400080911D1D90911E1D02960E94D136609180
:10575000261D7091271D8091281D9091291D6C0D8B
:105760007D1D8E1D9F1DFF90EF90DF90CF900C94BC
:10577000E826CF92DF92EF92FF920F931F9368017A
:105780007901E0911D1DF0911E1D706846875787B5
:10579000608B718B60911D1D70911E1D625F7F4F2C
:1057A0000E94733680911D1D90911E1D02960E94CD
:1057B000D1366091261D7091271D8091281D9091F2
:1057C000291D6C0D7D1D8E1D9F1D1F910F91FF903A
:1057D000EF90DF90CF900C94E8260F931F93CF9318
:1057E000DF93DC011796ED91FC911897C085D18568
:1057F0008E01025F1F4FC8010E94D13680911F1D8C
:10580000811124C08E010E5F1F4FC8010E94D13646
:105810008A8D9091251D9817F8F0BBE08B9FC001F1
:105820001124B8018E5A924E0E947336E0911D1DCC
:10583000F0911E1D9A8D828D891788F481E08093E6
:10584000221DDF91CF911F910F910895B8018DE234
:105850009DE10E947336EACF8093251DDECF80E064
:10586000DF91CF911F910F9108950F931F93CF93C5
:10587000DF937068FC014083518362837383C0852A
:10588000D1850E94D1368E010E5F1F4FC8010E9444
:10589000D1368A8D9091251D981710F48093251D7F
:1058A000FBE08F9FC0011124B8018E5A924E0E94D6
:1058B0007336E0911D1DF0911E1D9A8D828D891702
:1058C00040F481E08093221DDF91CF911F910F91D1
:1058D000089580E0DF91CF911F910F91089520915D
:1058E000211DFC0120834091261D5091271D6091B0
:1058F000281D7091291D4183528363837483089509
:105900008F929F92AF92BF92CF92DF92EF92FF92CF
:105910000F931F93FC01DB010FB6F8940F92409197
:10592000261D5091271D6091281D7091291D809181
:10593000211D90810181128123813481981729F0E2
:10594000401751076207730770F5CD90DD90ED9019
:10595000FC9013974A015B01801A910AA20AB30ACC
:105960008C149D04AE04BF04F0F4C41AD50AE60AF0
:10597000F70AC00ED11EE21EF31ECD92DD92ED920B
:10598000FC9213978091211D80838091261D909118
:10599000271DA091281DB091291D81839283A38387
:1059A000B48380E001C081E00F900FBE1F910F9182
:1059B000FF90EF90DF90CF90BF90AF909F908F902F
:1059C000089581E08093221D0895009799F0DC01ED
:1059D0005B96ED91FC915C978081853A81F43196DC
:1059E00080E090E0DC010196A11DB11D2191253AD6
:1059F000D1F3089580911D1D90911E1DE8CF80E088
:105A0000089580911D1D90911E1D08950F931F9361
:105A1000CF93DF93EC01009781F18A8DE0911D1DFA
:105A2000F0911E1D928D891740F54E855F8568891E
:105A3000798977FD11C0E0911D1DF0911E1D928D99
:105A400044E050E060E070E0491B510961097109D0
:105A50004E875F87688B798B2BE0829FC001112472
:105A60008E5A924E2C853D852817390759F0E091C2
:105A70001D1DF0911E1D828D8A8FDF91CF911F9188
:105A80000F9108958E010E5F1F4FC8010E94D136FD
:105A9000E0911D1DF0911E1D828D8A8F9091251D14
:105AA000981710F48093251D2BE0829FC0011124CC
:105AB000B8018E5A924EDF91CF911F910F910C94A5
:105AC00073360F931F93CF93DF93EC01009749F048
:105AD00088A5815088A72A8D9FA1291711F08823B6
