:100000000C9495050C94B4050C94B4050C94B405AB
:100010000C94B4050C9425150C94E2150C94E4157D
:100020000C9459160C94B4050C94B4050C94B405B6
:100030000C94B4050C94B4050C94B4050C94B4055C
:100040000C94B4050C94B4050C94B4050C94B4054C
:100050000C94B4050C94B4050C94B4050C94B4053C
:100060000C94B4050C9457340C94B4050C94B4055A
:100070000C94B4050C94B4050C94B4050C94B4051C
:100080000C94B4050C94B4050C94B4050C94B4050C
:100090000C94AA340C94B4050C94B4050C94B405D7
:1000A0000C94B4050C94B4050C94B4050C94B405EC
:1000B0000C94B4050C94B4050C94B4050C9421373D
:1000C0000C94B4050C94B4050C94B405D331DC3114
:1000D000DF31E231D531D531E531F531FC31033253
:1000E0000732D9315F5F5F5F5F5F5F5F204D4534EF
:1000F0003035204C61622033204D6F64696669653C
:10010000642050726F6772616D205F5F5F5F5F5F39
:100110005F5F004A756E2031302032303136005337
:10012000797374656D2074696D653A20002C2048E0
:100130006561703A20002C204F435235413A20002F
:1001400020202020723A2020202020205265747523
:10015000726E20746F204D61696E204D656E750062
:10016000202043746C2D433A202020205265736573
:100170007420415652206D6963726F636F6E7472A2
:100180006F6C6C65720020202020633A20202020B4
:10019000202043697263756C61722070617468001D
:1001A000202020206C3A2020202020204C696E65E1
:1001B00061722068656164696E6720616468657258
:1001C000616E6365002D2D2D2D2D2D2D2D2D2D2DA9
:1001D0002D2D2D2D2D2D20434C4153532054415373
:1001E0004B204D454E55202D2D2D2D2D2D2D2D2DBA
:1001F0002D2D2D0020202020723A2020202020208C
:1002000052657475726E20746F204D61696E204D59
:10021000656E7500202043746C2D433A2020202009
:10022000526573657420415652206D6963726F6325
:100230006F6E74726F6C6C65720020202020693ABA
:100240002020202020205072696E7420494D5520B6
:1002500073746174757320636F646573002020206C
:1002600020643A202020202020537461636B206496
:10027000756D7020666F72207461736B730020203F
:100280002020733A20202020202056657273696F49
:100290006E2F536574757020696E666F726D617430
:1002A000696F6E0020202020743A2020202020201A
:1002B00053686F77207468652063757272656E7419
:1002C0002074696D65002D2D2D2D2D2D2D2D2D2D9D
:1002D0002D2D2D2D2D2D2D2048454C50204D454E9A
:1002E00055202D2D2D2D2D2D2D2D2D2D2D2D2D2D23
:1002F0002D2D2D0020202020723A2020202020208B
:1003000052657475726E20746F204D61696E204D58
:10031000656E7500202043746C2D433A2020202008
:10032000526573657420415652206D6963726F6324
:100330006F6E74726F6C6C65720020202020623AC0
:10034000202020202020456D657267656E6379202E
:10035000627265616B210020202020643A202020F9
:10036000202020526F746174652073746565726912
:100370006E6720746F2074686520726967687420E6
:100380002B3130300020202020613A2020202020F6
:1003900020526F74617465207374656572696E674D
:1003A00020746F20746865206C656674202D313070
:1003B000300020202020733A202020202020446577
:1003C0006372656D656E74206D6F746F72207665F3
:1003D0006C6F63697479202D3130002020202077E4
:1003E0003A202020202020496E6372656D656E746E
:1003F000206D6F746F722076656C6F6369747920FD
:100400002B3130002D2D2D2D2D2D2D2D2D2D2D2D44
:100410002D2D434152204452495645204D454E55BD
:10042000202D2D2D2D2D2D2D2D2D2D2D2D2D2D2D09
:100430002D2D0020202020723A2020202020205224
:10044000657475726E20746F204D61696E204D6504
:100450006E7500202043746C2D433A2020202052DA
:100460006573657420415652206D6963726F636FC6
:100470006E74726F6C6C657200202020203F3A20F1
:10048000202020202048656C70204D656E7500206E
:10049000202020633A202020202020436C617373A9
:1004A000207265717569726564207461736B730085
:1004B00020202020643A20202020202044726976C9
:1004C00065207468652063617221002D2D2D2D2D0E
:1004D0002D2D2D2D2D2D2D2D2D2D2D2D204D414909
:1004E0004E204D454E55202D2D2D2D2D2D2D2D2DB4
:1004F0002D2D2D2D2D2D2D2D00496C6C6567616CDA
:100500002073746174652120526573657474696E1B
:100510006720415652002220003C2D2D20556E6B45
:100520006E6F776E20636F6D6D616E642E205479EF
:10053000706520636F6D6D616E642066726F6D20F3
:100540006D656E752E00526573657474696E6720F3
:100550004156520043757272656E7420536572760F
:100560006F20506F736974696F6E3A200043757223
:1005700072656E74204D6F746F722056656C6F6378
:1005800069746965733A200043757272656E7420F0
:10059000536572766F20506F736974696F6E3A207D
:1005A0000043757272656E74204D6F746F722056C1
:1005B000656C6F6369746965733A20004375727284
:1005C000656E7420536572766F20506F736974691D
:1005D0006F6E3A200043757272656E74204D6F74B1
:1005E0006F722056656C6F6369746965733A200099
:1005F00043757272656E7420536572766F20506F0A
:10060000736974696F6E3A200043757272656E7417
:10061000204D6F746F722056656C6F6369746965E5
:10062000733A20002220003C2D2D20556E6B6E6FFA
:10063000776E20636F6D6D616E642E2054797065E6
:1006400020636F6D6D616E642066726F6D206D65E5
:100650006E752E00526573657474696E672041561D
:100660005200456E74657220726164697573206F03
:10067000662063697263756C6172207061746820B2
:100680005B31352C33305D20696E636865730045DE
:100690006E7465722064697374616E6365206F6641
:1006A000206C696E6561722070617468205B302C0B
:1006B0003138305D20696E63686573002220003C2C
:1006C0002D2D20556E6B6E6F776E20636F6D6D6193
:1006D0006E642E205479706520636F6D6D616E6459
:1006E0002066726F6D206D656E752E00506C6561B1
:1006F000736520747970652061206E756D62657216
:10070000206265747765656E203020746F20383004
:100710002C207468656E20454E54455200506C651F
:1007200061736520747970652061206E756D6265F6
:1007300072206265747765656E203020746F203199
:1007400038302C207468656E20454E544552005058
:100750006C6561736520656E7465722061206C69DB
:100760006E65617220706174682076656C6F636974
:100770007479205B302C2038305D00506C656173DB
:100780006520747970652061206E756D62657220D8
:100790006265747765656E20313520616E64203343
:1007A000302C207468656E20454E54455200506CC4
:1007B0006561736520656E7465722061206369727E
:1007C00063756C617220706174682076656C6F630C
:1007D000697479205B302C2038305D002220003C89
:1007E0002D2D20556E6B6E6F776E20636F6D6D6172
:1007F0006E642E205479706520636F6D6D616E6438
:100800002066726F6D206D656E752E005265736582
:100810007474696E6720415652002220003C2D2DD1
:1008200020556E6B6E6F776E20636F6D6D616E64B9
:100830002E205479706520636F6D6D616E64206643
:10084000726F6D206D656E752E00526573657474E0
:10085000696E67204156520050494420322065722B
:10086000726F72005049442031206572726F7200BD
:100870004572726F7220696E2067657445756C658C
:1008800072416E6700494D552073797374656D2010
:1008900073656C662074657374207374617475730A
:1008A0003A20004572726F7220436F64653A2000EF
:1008B000494D552073797374656D20737461747537
:1008C000733A2000494D5520756E69747320736525
:1008D0007400494D5520706F776572206D6F6465A7
:1008E0002073657400494D55206F7065726174699D
:1008F0006F6E206D6F64652073657400494D5520DF
:100900006F626A65637420696E7469616C20636FDD
:100910006D6D756E69636174696F6E207375636563
:10092000737300494D55206F626A65637420696E68
:100930007469616C20636F6D6D756E696361746954
:100940006F6E206572726F72004144435352413A98
:10095000200041444D55583A200041444330203D49
:10096000200041444331203D200041444332203D9A
:10097000200041444333203D200041444334203D86
:10098000200041444335203D200041444336203D72
:10099000200041444337203D20002D2D2D2D2D2DAD
:1009A0002D2D204D45343035204C616220352053AB
:1009B00074617274696E672050726F6772616D2026
:1009C0002D2D2D2D2D2D2D2D0020202020302032BD
:1009D000203420362038204120432045004932432E
:1009E0002073656E642074696D656F75740049329B
:1009F000432072652D73746172743A203078002040
:100A00006E6F742030783130004E6F2073686172E1
:100A100065642064617461206974656D7320746F0E
:100A2000207072696E74002D2D2D2D202020202025
:100A3000202020202020202D2D2D2D202020202D75
:100A40002D2D2D2D2D2D2D2D2D0053686172652FEF
:100A5000517565756520202020205479706520200F
:100A60002020467265652F546F74616C00455252A8
:100A70004F52206372656174696E67207461736B95
:100A80002022005461736B20220022206372656172
:100A90007465642C20737461636B206174203078FA
:100AA000005461736B3A20005461736B3A204944DF
:100AB0004C450049444C45090930092D09002F00D7
:100AC00009092D002D2D2D2D09092D2D2D2D092D37
:100AD0002D2D2D2D00092D2D2D2D2D2D2D2D2D2D97
:100AE00000092D2D2D2D004E616D6509095072698B
:100AF0002E0953746174650009467265652F546F41
:100B000074616C000952756E73005461736B09094E
:100B1000202009200009537461636B00090009005B
:100B20002F00090009002020000011241FBECFEF74
:100B3000D1E2DEBFCDBF16E0A0E0B2E0EEEAFFE713
:100B400000E00BBF02C007900D92A632B107D9F7A3
:100B50001EE1A6E2B6E001C01D92AE31B107E1F799
:100B60000E94A03A0C94D53F0C9400000F931F9361
:100B7000CF93DF93EC010E94082D8DE192E09983E1
:100B80008883DF91CF911F910F9108950F931F9349
:100B9000CF93DF93EC0166E08E819F810E94C63186
:100BA0006BE08E819F810E94C6318C016BEC74E0FA
:100BB0000E94813166E0C8010E94C6316BE08E81DF
:100BC0009F810E94C6318C0160EB74E00E948131EC
:100BD00066E0C8010E94C6316BE08E819F810E9451
:100BE000C6318C016FE874E00E94813166E0C80173
:100BF0000E94C6316BE08E819F810E94C6318C01BC
:100C000069E774E00E94813166E0C8010E94C63144
:100C10006BE08E819F810E94C6318C0163E574E098
:100C20000E94813166E0C8010E94C6316BE08E816E
:100C30009F810E94C6318C0163E374E00E94813180
:100C400066E0C8010E94C63166E08E819F81DF9117
:100C5000CF911F910F910C94C6310F931F93CF9397
:100C6000DF93EC0166E08E819F810E94C6316BE0CC
:100C70008E819F810E94C6318C0164E074E00E94E5
:100C8000813166E0C8010E94C6316BE08E819F8190
:100C90000E94C6318C016BED73E00E94813166E0E9
:100CA000C8010E94C6316BE08E819F810E94C631CF
:100CB0008C0162EB73E00E94813166E0C8010E9402
:100CC000C6316BE08E819F810E94C6318C0165E840
:100CD00073E00E94813166E0C8010E94C6316BE07A
:100CE0008E819F810E94C6318C0167E573E00E946E
:100CF000813166E0C8010E94C6316BE08E819F8120
:100D00000E94C6318C016AE373E00E94813166E083
:100D1000C8010E94C6316BE08E819F810E94C6315E
:100D20008C0164E173E00E94813166E0C8010E9499
:100D3000C6316BE08E819F810E94C6318C0164EFC9
:100D400072E00E94813166E0C8010E94C63166E00F
:100D50008E819F81DF91CF911F910F910C94C631AD
:100D60000F931F93CF93DF93EC0166E08E819F81F9
:100D70000E94C6316BE08E819F810E94C6318C013A
:100D800066EC72E00E94813166E0C8010E94C631C3
:100D90006BE08E819F810E94C6318C0164EA72E013
:100DA0000E94813166E0C8010E94C6316BE08E81ED
:100DB0009F810E94C6318C016EE772E00E948131F2
:100DC00066E0C8010E94C6316BE08E819F810E945F
:100DD000C6318C016DE572E00E94813166E0C80188
:100DE0000E94C6316BE08E819F810E94C6318C01CA
:100DF0006AE372E00E94813166E0C8010E94C63158
:100E00006BE08E819F810E94C6318C0164E172E0AB
:100E10000E94813166E0C8010E94C6316BE08E817C
:100E20009F810E94C6318C0164EF71E00E94813184
:100E300066E0C8010E94C63166E08E819F81DF9125
:100E4000CF911F910F910C94C6310F931F93CF93A5
:100E5000DF93EC0166E08E819F810E94C6316BE0DA
:100E60008E819F810E94C6318C0165EC71E00E94E9
:100E7000813166E0C8010E94C6316BE08E819F819E
:100E80000E94C6318C0160EA71E00E94813166E007
:100E9000C8010E94C6316BE08E819F810E94C631DD
:100EA0008C0166E871E00E94813166E0C8010E9411
:100EB000C6316BE08E819F810E94C6318C0160E655
:100EC00071E00E94813166E0C8010E94C6316BE08A
:100ED0008E819F810E94C6318C0160E471E00E9486
:100EE000813166E0C8010E94C63166E08E819F8133
:100EF000DF91CF911F910F910C94C6318F929F92E9
:100F0000AF92BF92CF92DF92EF92FF920F931F9317
:100F1000CF93DF9300D000D000D0CDB7DEB78C01E7
:100F200019821A821B821C821E821D82C090280197
:100F3000D09029010E94B9215C01CE0101960E9446
:100F4000B2304C0166E0F801868197810E94C6317B
:100F50006BE00E94C6317C0164EE70E00E9481313A
:100F60006BE0C7010E94C6317C0163E171E00E9421
:100F7000813166E0C7010E94C6316BE00E94C63134
:100F80007C016FE171E00E948131B401C7010E94D0
:100F900051306BE00E94C6317C016DE271E00E942D
:100FA0008131B501C7010E946C327C0165E172E0BC
:100FB0000E94813148E357E160E070E0C7010E9480
:100FC000A6326BE00E94C6317C0166E371E00E94AC
:100FD0008131B601C7010E946C3266E00E94C631C1
:100FE00066E00E94C631F801868197810E94032F36
:100FF00066E0F801868197810E94C631F8018681FA
:1010000097810E94C32C26960FB6F894DEBF0FBEC0
:10101000CDBFDF91CF911F910F91FF90EF90DF90A7
:10102000CF90BF90AF909F908F900895CF93DF9314
:10103000CDB7DEB728970FB6F894DEBF0FBECDBF91
:101040008C0119821A821B821C821E821D820FB69D
:10105000F8940F92E0916606F091670610860F9063
:101060000FBE0E94C605A12CB12CE12CF12C33241B
:10107000339420EB422E55245A94652C752CBF8254
:101080002A2C24C0833009F41AC1843009F0D1C05D
:10109000F80186819781DC01ED91FC910480F58156
:1010A000E02D0995811138C1F80186859785A089C1
:1010B000B1890196A11DB11D86879787A08BB18B41
:1010C00062E370E080E090E00E94B929D8011C96AC
:1010D0008C91823009F456C0A8F6882309F4C4C064
:1010E000813009F0A6C0F80186819781DC01ED917D
:1010F000FC910480F581E02D09958823A9F2F8017F
:1011000086819781DC01ED91FC910680F781E02DCD
:101110000995282F893609F49AC50CF48BC58337B5
:1011200009F4BBC5843709F477C5823709F4ECC0EC
:10113000D8011696CD90DC901797D601ED91FC91D1
:101140000280F381E02D62E2C60128870995D6016D
:10115000ED91FC910280F381E02D2885622FC6017C
:1011600009956BE0C6010E94C6316C016CED77E019
:101170000E9481316BE0C6010E94C6316C016FEDA7
:1011800077E00BC1F80186819781DC01ED91FC913C
:101190000480F581E02D0995882309F413C5F80131
:1011A00086819781DC01ED91FC910680F781E02D2D
:1011B0000995482F80ED840F8A3008F4E0C44D3241
:1011C00009F4A8C44F3709F45AC14A3009F481C15F
:1011D0004D3009F056C12F81213009F415C12F81FE
:1011E000223009F4E2C02F81233009F05DCFC7011E
:1011F00001978035910508F0DCC30FB6F8940F9283
:10120000E0913206F0913306E0860F900FBE0FB6E4
:10121000F8940F92E0913C06F0913D0630860F90D5
:101220000FBE63E0C8010E94BE2D1F82E12CF12C8D
:101230003BCF6BE0F801868197810E94C6318C011B
:1012400069EF74E00E94813166E0C8010E94C631F6
:101250002BE088E190E00FB6F894A89580936000A9
:101260000FBE20936000FFCFF80186819781DC01DB
:10127000ED91FC910480F581E02D0995882309F416
:1012800013CFF80186819781DC01ED91FC910680F6
:10129000F781E02D0995282F833609F46FC30CF0F0
:1012A00022C3833009F44FC38F3309F022C3C8012E
:1012B0000E94B00661E0C8010E94BE2DF5CED801A3
:1012C00016968D919C911797DC01ED91FC9104800D
:1012D000F581E02D0995882309F4E6CEF801868191
:1012E0009781DC01ED91FC910680F781E02D099555
:1012F000282F833609F4EBC30CF4C9C38C3609F4E8
:101300008CC3823709F061C3C8010E94C60560E042
:10131000C8010E94BE2DC8CEF80186819781DC01EC
:10132000ED91FC910680F781E02D0995282F8436F8
:1013300009F47DC20CF4E8C1833709F466C187372C
:1013400009F4CFC0823701F3D8011696CD90DC9016
:101350001797D601ED91FC910280F381E02D62E2B6
:10136000C60128870995D601ED91FC910280F38191
:10137000E02D2885622FC60109956BE0C6010E9409
:10138000C6316C0166E175E00E9481316BE0C601F7
:101390000E94C6316C0169E175E0C6010E9481318D
:1013A00066E0C6010E94C6317FCEC7010197843B2B
:1013B000910508F043C00FB6F8940F92E0912E0605
:1013C000F0912F06F186E0860F900FBE66E0D801FF
:1013D00016968D919C9117970E94C6316BE00E94E2
:1013E000C6317C016FE477E0C7010E94813166E07D
:1013F000C7010E94C63162E0C8010E94BE2D23E0F1
:101400002F83E12CF12C50CEC70140970F9758F550
:101410000FB6F8940F92E0913406F0913506E0860D
:101420000F900FBE6BE0D80116968D919C91179787
:101430000E94C6317C016EEA77E0D6CF6BE0D8011E
:1014400016968D919C9117970E94C6317C016DE193
:1014500077E0C7010E94813166E0C7010E94C63172
:10146000E12CF12C21CE6BE0D80116968D919C9148
:1014700017970E94C6317C016BE777E0EACF211015
:1014800055C3F801E680F780D701ED91FC91028009
:10149000F381E02D62E2C70148870995D701ED91FC
:1014A000FC910280F381E02D4885642FC7010995E6
:1014B0006BE0C7010E94C6317C016CEB76E00E94B4
:1014C00081316BE0C7010E94C6317C016FEB76E091
:1014D000C0CF67E172E0F801868197810E94813177
:1014E000E3CD40914606509147060FB6F8940F920F
:1014F0000F900FBEFA0180859185A285B3850A966B
:10150000A11DB11D0FB6F8940F92FA018087918743
:10151000A287B3870F900FBE0FB6F8940F920F906B
:101520000FBE80359105A105B10594F00FB6F89472
:101530000F9280E590E0A0E0B0E0FA01808791870B
:10154000A287B3870F900FBE80E590E0A0E0B0E0E7
:101550000FB6F8940F920F900FBE0FB6F8940F923B
:101560002091440630914506F90180879187A28732
:10157000B3870F900FBE0FB6F8940F92DA0118964A
:101580008D909D90AD90BC901B970F900FBE6BE01F
:10159000F801868197810E94C6316C0169E076E08E
:1015A0000E948131B501A401C6010E943A3266E071
:1015B0000E94C6310FB6F8940F92E0913806F09170
:1015C0003906C084D1840F900FBE6BE0D801169607
:1015D0008D919C9117970E94C6315C0160EF75E078
:1015E000C5010E948131B601C5010E946C3266E0DE
:1015F0000E94C63166E0F801868197810E94C6315B
:1016000064E0C8010E94BE2D4FCD40914606509126
:1016100047060FB6F8940F920F900FBEFA0180851F
:101620009185A285B3850A97A109B1090FB6F894EF
:101630000F92FA0180879187A287B3870F900FBE20
:101640000FB6F8940F920F900FBE813BFFEF9F07EC
:10165000AF07BF0784F40FB6F8940F92DA0118961B
:101660004D925D926D927C921B970F900FBE80EB16
:101670009FEFAFEFBFEF0FB6F8940F920F900FBE32
:101680000FB6F8940F922091440630914506F90167
:1016900080879187A287B3870F900FBE0FB6F8940B
:1016A0000F92DA0118968D909D90AD90BC901B978B
:1016B0000F900FBE6BE0F801868197810E94C631C2
:1016C0006C0165ED75E00E948131B501A401C60190
:1016D0000E943A3266E00E94C6310FB6F8940F922B
:1016E000E0913806F0913906C084D1840F900FBE86
:1016F0006BE0D80116968D919C9117970E94C63188
:101700005C016CEB75E06CCF833009F475C08136F9
:1017100009F01ACEE0913806F09139060FB6F89428
:101720000F920F900FBE808591858C599F4F0FB6F9
:10173000F8940F92918780870F900FBE0FB6F894A0
:101740000F920F900FBE803A9F4048F00FB6F8946A
:101750000F9280EA9FE0918780870F900FBE0FB6AF
:10176000F8940F92E0914606F091470680849184A8
:10177000A284B3840F900FBE6BE0D80116968D91B2
:101780009C9117970E94C6316C0161EA75E00E9436
:101790008131B501A401C6010E943A3266E00E947F
:1017A000C6310FB6F8940F92E0913806F0913906E1
:1017B000C084D1840F900FBE6BE0F80186819781C1
:1017C0000E94C6315C0168E875E0C5010E94813164
:1017D000B601C5010E946C3266E00E94C63166E027
:1017E000D80116968D919C9117970E94C63164E09E
:1017F000C8010E94BE2D58CC6BE0F801868197810C
:101800000E94C6318C0166E475E00E94813166E079
:10181000C8010E94C6312BE088E190E00FB6F89431
:10182000A895809360000FBE20936000FFCFE091E9
:101830003806F09139060FB6F8940F920F900FBE4C
:1018400080859185845691090FB6F8940F929187FF
:1018500080870F900FBE0FB6F8940F920F900FBEB7
:10186000813D974048F40FB6F8940F9280ED97E0D1
:10187000918780870F900FBE0FB6F8940F92E0917A
:101880004606F091470680849184A284B3840F9029
:101890000FBE6BE0D80116968D919C9117970E9410
:1018A000C6316C016DE675E00E948131B501A4017D
:1018B000C6010E943A3266E00E94C6310FB6F89423
:1018C0000F92E0913806F0913906C084D1840F90D0
:1018D0000FBE6BE0F801868197810E94C6315C01E2
:1018E00064E575E072CF843609F450C0823709F49C
:1018F0000BCDD8011696CD90DC901797D601ED91BF
:10190000FC910280F381E02D62E2C60128870995EF
:10191000D601ED91FC910280F381E02D2885622FA4
:10192000C60109956BE0C6010E94C6316C016AE1EF
:1019300078E00E9481316BE0C6010E94C6316C01E3
:101940006DE178E02ACD6BE0F801868197810E94F5
:10195000C6318C016AE478E00E94813166E0C801FA
:101960000E94C6312BE088E190E00FB6F894A8956C
:10197000809360000FBE20936000FFCFC8010E94DB
:10198000250763E0C8010E94BE2D8ECBC8010E94CE
:101990002D060FB6F8940F92E0916206F09163065F
:1019A00082E080870F900FBE64E0C8010E94BE2DC8
:1019B0007BCB6BE0D80116968D919C9117970E9476
:1019C000C6317C016CEE76E044CDF801C680D7804C
:1019D000D601ED91FC910280F381E02D62E2C60117
:1019E00028870995D601ED91FC910280F381E02DC5
:1019F0002885622FC60109956BE0C6010E94C63199
:101A00006C0164E276E00E9481316BE0C6010E94C5
:101A1000C6316C0167E276E0C0CC6BE0F8018681EC
:101A200097810E94C6316C016FE876E00E94813197
:101A300066E0C6010E94C6310FB6F8940F92E0919D
:101A40002A06F0912B0680859185A285B3850F909B
:101A50000FBE0FB6F8940F92E0912C06F0912D0670
:101A600080879187A287B3870F900FBE0FB6F89437
:101A70000F92E0913006F091310630860F900FBE44
:101A800062E0C8010E94BE2D22E02F830DCB83307F
:101A900009F09BCF6BE0D80116968D919C9117971A
:101AA0000E94C6318C0164E576E00E94813166E0D7
:101AB000C8010E94C6312BE088E190E00FB6F8948F
:101AC000A895809360000FBE20936000FFCF6BE06D
:101AD000D80116968D919C9117970E94C6316C0182
:101AE00062E676E00E94813166E0C6010E94C6315E
:101AF0000FB6F8940F92E0913C06F0913D0682E01B
:101B000080870F900FBE62E0C8010E94BE2D21E0C9
:101B10002F83CACAF80186819781DC01ED91FC917F
:101B20000280F381E02D6DE20995BECAF80186813D
:101B30009781DC01ED91FC910280F381E02D6FE74C
:101B40000995F80186819781DC01ED91FC91028075
:101B5000F381E02D60E20995F80186819781DC012F
:101B6000ED91FC910280F381E02D6FE70995C701AB
:101B70006AE070E00E94C53D7B012A9495CAF80195
:101B800086819781DC01ED91FC910280F381E02D4B
:101B9000642F488709959701220F331FEE0CFF1C15
:101BA000EE0CFF1CEE0CFF1C2E0D3F1D4885E42E95
:101BB000FF24E7FCF094B0E3EB1AF108E20EF31E09
:101BC000239472CA8091680690916906DC01ED91B8
:101BD000FC910480F581E02D0995882309F464CAFD
:101BE000D8011696ED91FC9117970190F081E02DA8
:101BF000C280D3808091680690916906DC01ED91E6
:101C0000FC910680F781E02D0995682FF801868107
:101C10009781F601099548CACE0101960E94B2301B
:101C2000BC01F801868197810E94513066E00E94D4
:101C3000C6313ACA8330B1F0843609F079CAD80186
:101C400016968D919C9117970E941D2E2DCA0FB646
:101C5000F8940F92E0912606F091270630860F90B7
:101C60000FBE22CA6BE0F801868197810E94C631BF
:101C70008C016CE078E00E94813166E0C8010E942E
:101C8000C6312BE088E190E00FB6F894A8958093D8
:101C900060000FBE20936000FFCFC8010E947E0746
:101CA00003CACF93DF93CDB7DEB728970FB6F8946A
:101CB000DEBF0FBECDBF6C010E94B22769837A835D
:101CC0008B839C8383E090E00E944A313C01F601C3
:101CD0006681778141E00E94F41383E090E00E94E6
:101CE0004A312C01F6016681778142E00E94F413AB
:101CF0000FB6F8940F92E0916206F0916306108699
:101D00000F900FBE82E090E00E944A314C01F60134
:101D10006681778147E00E94751482E090E00E941E
:101D20004A315C01F6016681778143E00E947514B7
:101D3000312C212C60E070E02CC00FB6F8940F928B
:101D40000F900FBE823009F4B6C00FB6F8940F9210
:101D50000F900FBEE0915C06F0915D0680858130AA
:101D600009F48DC0F60186859785A089B189019611
:101D7000A11DB11D86879787A08BB18B4AE050E0EB
:101D800060E070E0CE0101960E945229B701302E2A
:101D9000212EE0915A06F0915B060FB6F8940F924F
:101DA0008085918598878F830F900FBEEF80F88490
:101DB000E0915806F09159060FB6F8940F9280857D
:101DC00091859E838D830F900FBE0D811E81A7018B
:101DD000C4010E941F15E0914E06F0914F060FB608
:101DE000F8940F9260877187828793870F900FBE58
:101DF000A801632D722DC5010E941F15E0914C06AC
:101E0000F0914D060FB6F8940F9260877187828724
:101E100093870F900FBE0FB6F8940F92E091620671
:101E2000F091630680850F900FBE813009F085CF59
:101E30000FB6F8940F920F900FBEE0914206F0910A
:101E4000430660857185C3010E9436140FB6F8946D
:101E50000F920F900FBEE0914006F0914106608511
:101E60007185C2010E9436140FB6F8940F92E0916A
:101E70006206F091630610860F900FBE66CFC30115
:101E80000E946514C2010E9465140FB6F8940F9267
:101E9000E0916206F091630682E080870F900FBEAA
:101EA0000FB6F8940F92E0915C06F0915D061086F3
:101EB0000F900FBE57CF60E070E0C3010E94361450
:101EC00060E070E0CECF0F931F93CF93DF93EC01D0
:101ED0000E94082D85E292E099838883DF91CF915B
:101EE0001F910F910895CF93DF93CDB7DEB7CC54F8
:101EF000D1090FB6F894DEBF0FBECDBF4C010E94D2
:101F0000B22728966CAF7DAF8EAF9FAF28978FE139
:101F100090E00E944A311C01D40116966D917C918B
:101F200017970E94D4198FE190E00E944A312C014A
:101F3000F401668177810E94D4198FE190E00E94BC
:101F40004A313C01D40116966D917C9117970E94FD
:101F5000D419E0914E06F0914F060FB6F8940F9207
:101F600010861186128613860F900FBE0FB6F89456
:101F70000F92E0914606F091470610861186128670
:101F800013860F900FBE82E08B8F80E0B82E8C8F6F
:101F900084E08D8F80E091E0D82E8E8F9F8F19A2E4
:101FA00018A2182F8AA39BA380EC382F8CA389EF4B
:101FB0008DA380E4582F8EA386E08FA382E0A82E05
:101FC00094E0C92EEE24E394F12C09A121E049EF1D
:101FD00066E0C1010E940E1AE0914C06F0914D0698
:101FE0000FB6F8940F9210861186128613860F9002
:101FF0000FBE0FB6F8940F92E0914406F09145069B
:1020000010861186128613860F900FBE82E08E878F
:102010001F86B4E0B88B80E091E0D82E898B9A8B34
:102020001C8A1B8A182F8D8B9E8B30EC3F8BE9EF1F
:10203000E88F70E4572F798FF6E0FA8F0C8921E052
:1020400049EF66E0C2012B967FAF2B970E940E1AD4
:1020500083E089831A8224E02B831D821C8280E81E
:10206000F82E8E831F821986188630EC3A8749EF46
:102070004B872B967FAD2B97572F7C8786E08D87DC
:1020800023E0A22EED8000E0298566E0C3010E94D6
:102090000E1AC12CD12C7601DE01A05CBF4F5D0170
:1020A00011E02A965FAE4EAE2A97B1C0403B3FEF9B
:1020B00053070CF4BEC1413551050CF490C1E091B9
:1020C0004E06F0914F060FB6F8940F9280859185D9
:1020D000A285B38588AF99AFAAAFBBAF0F900FBEF3
:1020E00068AD79AD8AAD9BAD40E550E0C1010E947D
:1020F000461B0FB6F8940F92E0914206F09143060A
:10210000918780870F900FBE0FB6F8940F92E091E1
:102110006206F091630610870F900FBE0FB6F89419
:102120000F920F900FBEE0914406F0914506208576
:10213000318544275527421B530B80E590E0821BD5
:10214000930B813A910508F494C0403BBFEF5B07C5
:102150000CF457C1413551050CF431C1E0914C06E6
:10216000F0914D060FB6F8940F9280859185A28567
:10217000B3858CA79DA7AEA7BFA70F900FBE6CA578
:102180007DA58EA59FA540E550E02A968EAD9FAD1A
:102190002A970E94461B0FB6F8940F92E0914006D2
:1021A000F0914106918780870F900FBE0FB6F8948B
:1021B0000F92E0916206F091630610870F900FBEB8
:1021C000E0913C06F0913D060FB6F8940F920F9007
:1021D0000FBE8085813009F462C00FB6F8940F926B
:1021E0000F900FBEF40186859785A089B18901966D
:1021F000A11DB11D86879787A08BB18B4AE050E067
:1022000060E070E0CE018C5B9F4F0E9452290FB6B8
:10221000F8940F92E0914606F0914706408551856B
:10222000628573850F900FBE9A01205B3F4F213A64
:10223000310508F03BCFE0914E06F0914F060FB606
:10224000F8940F9280859185A285B385F5018083EE
:102250009183A283B3830F900FBE9E01205C3F4FFA
:10226000590124968CAD9DADAEADBFAD2497BC0198
:102270003DCFE0914C06F0914D060FB6F8940F92C9
:1022800080859185A285B3858CAB9DABAEABBFAB92
:102290000F900FBE6CA97DA98EA99FA976CF0FB60E
:1022A000F8940F920F900FBEA0913206B0913306B2
:1022B00018964C9150E060E070E080914606909155
:1022C00047060FB6F8940F92DC0118964D935D9374
:1022D0006D937C931B970F900FBE0FB6F8940F92DF
:1022E0000F900FBE20914406309145062D963FAFCA
:1022F0002EAF2D970FB6F8940F92D90118964D93E3
:102300005D936D937C931B970F900FBE20914E06AB
:1023100030914F060FB6F8940F92D90118964D914F
:102320005D916D917C911B9748A759A76AA77BA7E0
:102330000F900FBE48A459A46AA47BA42091300634
:10234000309131060FB6F8940F920F900FBED9015D
:1023500018964C91413009F484C0F7FEC6C00FB600
:10236000F8940F9210860F900FBE0FB6F8940F924C
:10237000FC0110861186128613860F900FBE0FB6D1
:10238000F8940F922D96AEADBFAD2D9718961D9275
:102390001D921D921C921B970F900FBE0FB6F894C2
:1023A0000F92E0913806F091390628EB3BE0318737
:1023B00020870F900FBEC12CD12C760113CF6BE07C
:1023C000F401868197810E94C6313C0168E578E07E
:1023D0000E94813166E0C3010E94C631F1CE6BE0FC
:1023E000D40116968D919C9117970E94C6313C019D
:1023F00064E678E00E94813166E0C3010E94C63144
:102400008DCEE0914C06F0914D060FB6F8940F92E8
:1024100080859185A285B38588AB99ABAAABBBAB10
:102420000F900FBE68A979A98AA99BA940EB5FEF1D
:10243000ACCEE0914E06F0914F060FB6F8940F9295
:1024400080859185A285B3858CAF9DAFAEAFBFAFC0
:102450000F900FBE6CAD7DAD8EAD9FAD40EB5FEFCD
:1024600045CE0FB6F8940F92E0913806F0913906F8
:1024700048EB5BE0518740870F900FBE0FB6F89492
:102480000F92DC0118961D921D921D921C921B97B3
:102490000F900FBE0FB6F8940F922D96EEADFFADD4
:1024A0002D9710861186128613860F900FBE0FB6D9
:1024B000F8940F920F900FBEE0912E06F0912F0628
:1024C0008085918544E651E0849F6001859FD00C12
:1024D000949FD00C1124E12CF12C0FB6F8940F929C
:1024E000D90118961C920F900FBE0FB6F8940F9258
:1024F0000F900FBE0FB6F8940F920F900FBEA091E1
:102500002C06B0912D06E0912A06F0912B06189624
:102510006D917D918D919C911B9720853185428590
:102520005385621B730B840B950B2AE030E040E06F
:1025300050E00E94FB3DC9010E94D9200FB6F894DB
:102540000F92E0913806F0913906918780870F90BD
:102550000FBED301C201AA27BB27C81AD90AEA0AAB
:10256000FB0A40CE0F931F93CF93DF93EC010E94A1
:10257000082D8DE292E099838883DF91CF911F919E
:102580000F910895CF93DF9300D000D0CDB7DEB781
:102590008C010E94B22769837A838B839C8382E0BB
:1025A00090E00E944A315C01F801668177810E94C7
:1025B000C11782E090E00E944A316C01F801668107
:1025C00077810E94C11784E090E00E944A317C012B
:1025D000F801668177810E94A9164AC061E0C701AF
:1025E0000E944817E0912A06F0912B060FB6F89446
:1025F0000F920F900FBE40855185AA2797FDA09599
:10260000BA2F0FB6F8940F9280879187A287B3876D
:102610000F900FBE0FB6F8940F920F900FBE0FB62B
:10262000F8940F92E0912806F0912906662757FD4D
:102630006095762F841B950BA60BB70B808791872F
:10264000A287B3870F900FBEF80186859785A08972
:10265000B1890196A11DB11D86879787A08BB18B8B
:102660004AE050E060E070E0CE0101960E945229FD
:102670004AE061E0C5010E940F184AE062E0C6012D
:102680000E940F180FB6F8940F920F900FBEE091B2
:102690002606F09127068085813009F09FCFC7017B
:1026A0000E94EC160FB6F8940F92E0912606F09176
:1026B000270610860F900FBE91CF0F931F93CF93D5
:1026C000DF93EC010E94082D85E392E099838883D3
:1026D000DF91CF911F910F910895CF93DF9300D099
:1026E00000D0CDB7DEB78C010E94B22769837A8310
:1026F0008B839C8382E090E00E944A317C01F80148
:10270000668177810E94901782E090E00E944A31B2
:102710006C01F801668177810E94C1174AE060E090
:10272000C6010E940F1896958795BC01675C744F8F
:102730000FB6F8940F92E0913806F0913906718740
:1027400060870F900FBE0FB6F8940F920F900FBED8
:10275000C7010E94A6174AE060E0C6010E940F1858
:102760000FB6F8940F920F900FBEE0913806F091DB
:102770003906608571856F57710996958795680F41
:10278000791FC7010E94A6170FB6F8940F92E09127
:102790003606F091370610860F900FBEF801468579
:1027A0005785608971894F5F5F4F6F4F7F4F4687B5
:1027B0005787608B718B4AE050E060E070E0CE019B
:1027C00001960E945229C7CF0F931F93CF93DF9397
:1027D000EC010E94082D8DE392E099838883DF91BC
:1027E000CF911F910F910895CF93DF93FC017183D7
:1027F0006083428380918000826A80938000809110
:1028000080008093800080918100896180938100A5
:10281000809181008093810080E496E0909387000E
:10282000809386008281813089F08230B9F0C08146
:10283000D181209781F061E472E0CE010E94813164
:1028400066E0CE01DF91CF910C94C63187B18760ED
:1028500087B9329A269ADF91CF9108958AB1806E16
:102860008AB94F9A259ADF91CF910895FC01228170
:10287000213071F0223009F0089577FD18C08BB136
:102880008BB95E985D9A7093890060938800089573
:1028900028B128B977FD13C04198409A70938B00F6
:1028A00060938A00FC018281823049F308958BB1E4
:1028B0008BB95E9A5D98719561957109E4CF419AE3
:1028C0004098719561957109E9CFFC012281213011
:1028D00039F0223009F008958BB180668BB90895E4
:1028E00028B1236028B92281F4CFCF93DF93E09100
:1028F0005A06F0915B060FB6F8940F921186108677
:102900000F900FBEE0915806F09159060FB6F8945B
:102910000F92118610860F900FBEE0915606F0912F
:1029200057060FB6F8940F9210860F900FBEE091E5
:102930005406F09155060FB6F8940F9210860F903A
:102940000FBEE0915206F09153060FB6F8940F9225
:1029500010860F900FBEE0915006F09151060FB611
:10296000F8940F9210860F900FBE60916A00242F8A
:1029700030E081E090E0FC01042E01C0EE0F0A94EB
:10298000EAF75E2F5095562350936A0050916A00E3
:10299000B90161507109DC0102C0AA0FBB1F6A9521
:1029A000E2F7BD015A2B50936A0050916A00D90199
:1029B0001297EC0102C0CC0FDD1FAA95E2F7DE01F1
:1029C000A095A523A0936A0050916A00D90113979E
:1029D000EC0102C0CC0FDD1FAA95E2F75C2B5093EF
:1029E0006A00473029F1433061F08DB18F708DB9A5
:1029F0008DB18F608DB98EB1806F8EB9DF91CF911F
:102A000008956DB3A9014E5F5F4FFC0102C0EE0F48
:102A1000FF1F4A95E2F76E2B6DBB4DB32F5F3F4F03
:102A2000022E01C0880F0A94EAF7482B4DBBDDCF78
:102A30008DB38E2B8DBB8DB3862B8DBBD6CF461B16
:102A4000570BBA0180E090E008951F920F920FB6E5
:102A50000F9211240BB60F928F939F93AF93BF9356
:102A6000EF93FF93CF93DF93CDB7DEB72597DEBF0C
:102A7000CDBFE0915406F09155060FB6F8940F9231
:102A800080858D830F900FBE8D81A0915606B091E9
:102A900057060FB6F8940F9218968C9318970F90CC
:102AA0000FBE9CB18CB180729071892B90E095958E
:102AB00087959595879595958795959587950FB663
:102AC000F8940F9280870F900FBE18968C918130EA
:102AD00009F454C008F442C0823039F1833089F4DB
:102AE0008085813009F451C08085823009F03CC076
:102AF000E0915A06F0915B06808591850197918758
:102B000080870F900F900F900F900F90DF91CF91D3
:102B1000FF91EF91BF91AF919F918F910F900BBE5D
:102B20000F900FBE0F901F9018958085833069F12C
:102B30008085811119C0E0915A06F0915B060FB6AD
:102B4000F8940F92808591859A8389830F900FBEA8
:102B500089819A81019791878087D3CF8085823040
:102B6000A1F080858130D9F0E0914A06F0914B06C2
:102B700080859185019691878087C3CF8085882342
:102B800021F08085833081F7B3CFE0915A06F09130
:102B90005B0680859185019691878087B2CFE09111
:102BA0005A06F0915B060FB6F8940F9280859185D6
:102BB0009C838B830F900FBE8B819C8101979187A3
:102BC00080879FCF0C9425151F920F920FB60F92FE
:102BD00011240BB60F928F939F93AF93BF93EF93F4
:102BE000FF93E0915006F09151068085A091520626
:102BF000B091530618968C9318979CB18CB180783D
:102C00009074892B90E0082E892F000C881F990B57
:102C1000000C881F991F808718968C918130C1F114
:102C200038F1823049F08330B1F480858130B9F1D8
:102C30008085823019F506C08085833081F18085DA
:102C400081111CC0E0915806F0915906808591854C
:102C5000019791878087FF91EF91BF91AF919F91ED
:102C60008F910F900BBE0F900FBE0F901F90189575
:102C700080858230A1F08085813021F3E091480683
:102C8000F091490680859185019691878087E3CFF1
:102C90008085882321F08085833081F7D3CFE09130
:102CA0005806F09159068085918501969187808715
:102CB000D2CF0C94E415CF93DF93EC01262F4DE394
:102CC00060E58A819B810E94171F6BE08881998152
:102CD0000E94C631EC0165EE78E00E94813166E029
:102CE000CE01DF91CF910C94C631CF93DF93EC01ED
:102CF000262F4EE360E58A819B810E94171F6BE0BF
:102D0000888199810E94C631EC0162ED78E00E94D1
:102D1000813166E0CE01DF91CF910C94C631CF9323
:102D2000DF93EC0120E04BE360E58A819B810E9408
:102D3000171F6BE0888199810E94C631EC0164EC19
:102D400078E00E94813166E0CE01DF91CF910C9452
:102D5000C6310F931F93CF93DF93EC017983688380
:102D600084E090E00E944A318C01688179810E9460
:102D7000981C1B830A8340E060E5C8010E94861D01
:102D80006BE0803A09F1888199810E94C6318C01FB
:102D900063E279E0C8010E94813166E0C8010E94C7
:102DA000C63160E0CE010E945B1660E0CE010E9459
:102DB0007516CE010E948F166CE0CE01DF91CF9187
:102DC0001F910F910C945B16888199810E94C631E6
:102DD0008C016CEF78E0DECFEF92FF920F931F93A0
:102DE000CF93DF93EC0149E360E58A819B810E94E8
:102DF000861DF82E46E360E58A819B810E94861D30
:102E0000E82E6BE0888199810E94C6318C0160EBCD
:102E100078E00E9481316F2DC8010E94EE3266E099
:102E20000E94C63181E0F816D1F06BE0888199816B
:102E30000E94C631EC0165E878E00E9481316E2D78
:102E4000CE010E94EE3266E00E94C63166E0DF915C
:102E5000CF911F910F91FF90EF900C94C6314AE3F0
:102E600060E58A819B810E94861DF82E6BE0888137
:102E700099810E94C6318C0163EA78E00E94813119
:102E80006F2DC8010E94EE3266E00E94C631CDCFA0
:102E90001F93CF93DF93EC01613081F16230B9F180
:102EA0006330A9F06BE0888199810E94C631EC0102
:102EB00060E778E00E94813166E0CE010E94C63171
:102EC00020E030E0C901DF91CF911F9108954FE1DB
:102ED00060E58A819B810E94861D182F4EE160E586
:102EE0008A819B810E94861D212F30E0322F22276C
:102EF000282BC901DF91CF911F9108954BE160E527
:102F00008A819B810E94861D182F4AE1E8CF4DE1FE
:102F100060E58A819B810E94861D182F4CE1DFCFDE
:102F2000E0E9F0E080818268808380818083E1E94C
:102F3000F0E080818A6180838081808380E49CE9E5
:102F400090939700809396006B9A0895603D87E078
:102F5000780780F0613A8FE0780728F47093990041
:102F600060939800089560EA7FE070939900609301
:102F70009800089560ED77E0709399006093980051
:102F80000895CF93DF93FC017183608320917A00D1
:102F9000206820937A0020917A00216020937A00A3
:102FA00020917A002D7F20937A0020917A0024606E
:102FB00020937A0020917C00206420937C00209153
:102FC0007C002F7720937C00C081D181209759F01D
:102FD00062E772E0CE010E94813166E0CE01DF91AE
:102FE000CF910C94C631DF91CF91089580917C00F0
:102FF000887F80937C0080917C006770682B609351
:103000007C0080917A00806480937A0080917A00BD
:1030100086FDFCCF8091780090917900089540342E
:1030200030F1ECE3F0E04CE3677080E090E0209159
:103030007C00287F20937C0020917C00262B20930D
:103040007C0020917A00206420937A0020917A00FD
:1030500026FDFCCF2091780030917900820F931FDC
:10306000415029F7BF010E94B13DCB01089544238F
:1030700019F0E42FF0E0D8CFE0E0F0E080E090E05D
:10308000BF010E94B13DCB0108952F923F924F9214
:103090005F926F927F928F929F92AF92BF92CF92E8
:1030A000DF92EF92FF920F931F93CF93DF9300D0A5
:1030B00000D000D0CDB7DEB79E838D8380917C0099
:1030C000887F80937C0080917C00876080937C0067
:1030D00080917A00806480937A0080917A0086FDE6
:1030E000FCCF209178003091790080917C00887F1E
:1030F00080937C0080917C00866080937C0080912E
:103100007A00806480937A0080917A0086FDFCCFFB
:10311000209078003090790080917C00887F8093A7
:103120007C0080917C00856080937C0080917A0097
:10313000806480937A0080917A0086FDFCCF409075
:1031400078005090790080917C00887F80937C008B
:1031500080917C00846080937C0080917A00806400
:1031600080937A0080917A0086FDFCCF00917800F0
:103170001091790080917C00887F80937C00809101
:103180007C00836080937C0080917A0080648093CF
:103190007A0080917A0086FDFCCFE0907800F09074
:1031A000790080917C00887F80937C0080917C00F6
:1031B000826080937C0080917A00806480937A00A2
:1031C00080917A0086FDFCCFC0907800D090790085
:1031D00080917C00887F80937C0080917C0081605E
:1031E00080937C0080917A00806480937A00809143
:1031F0007A0086FDFCCFA0907800B0907900809195
:103200007C00887F80937C0080917C0080937C0090
:1032100080917A00806480937A0080917A0086FDA4
:10322000FCCF809078009090790040917C00509184
:103230007A006BE08D819E812B833C834A83598386
:103240000E94C6313C0169E479E00E9481315981D4
:10325000652FC3010E94EE3266E00E94C6316BE02A
:103260000E94C6313C0162E579E00E9481314A81C9
:10327000642FC3010E94EE3266E00E94C6316BE00B
:103280000E94C6313C016AE579E00E948131B401B7
:10329000C3010E946C3266E00E94C6316BE00E945E
:1032A000C6314C0162E679E00E948131B501C4016A
:1032B0000E946C3266E00E94C6316BE00E94C6310B
:1032C0005C016AE679E00E948131B601C5010E9485
:1032D0006C3266E00E94C6316BE00E94C6316C0120
:1032E00062E779E00E948131B701C6010E946C3229
:1032F00066E00E94C6316BE00E94C6317C016AE73D
:1033000079E00E948131B801C7010E946C3266E009
:103310000E94C6316BE00E94C6318C0162E879E000
:103320000E948131B201C8010E946C3266E00E94A5
:10333000C6316BE00E94C6318C016AE879E00E94D8
:103340008131B101C8010E946C3266E00E94C63131
:103350006BE00E94C6318C0162E979E00E94813104
:103360002B813C81B901C8010E946C3266E00E9449
:10337000C6318D819E8126960FB6F894DEBF0FBEB2
:10338000CDBFDF91CF911F910F91FF90EF90DF9014
:10339000CF90BF90AF909F908F907F906F905F90F5
:1033A0004F903F902F900895CF93DF93EC01DC0175
:1033B0006D937D938DE0E8E0F2E001900D928A95A7
:1033C000E1F7188A1F861A8A198A1C8A1B8A1E8AA4
:1033D0001D8A188E1F8A1C8E1B8EDF91CF91089537
:1033E000FC016283148E138E0895CF93DF93EC015A
:1033F000CB016F857889788F6F8B988B8F870E9430
:103400001D1C9A8F898FDF91CF910895FC01728BDB
:10341000618B0895FC01748B638B0895AF92BF920A
:10342000CF92DF92EF92FF920F931F93CF93DF9390
:10343000CDB7DEB72D970FB6F894DEBF0FBECDBF68
:10344000A982BA82CB82DC82ED82FE820F8318874A
:1034500029873A874B875C876D872DE0FE0131967F
:10346000DC01129601900D922A95E1F7FC01148E71
:10347000138E2D960FB6F894DEBF0FBECDBFDF9131
:10348000CF911F910F91FF90EF90DF90CF90BF9061
:10349000AF900895FC01748363830895FC017683E3
:1034A00065830895FC01708767830895FC01728726
:1034B00061870895FC01748763875687458708955F
:1034C000FC0182810895FC01878590890895FC01A3
:1034D000818992890895FC018389948908952DE05A
:1034E000FB013296DC0101900D922A95E1F70895D7
:1034F000FC01858196810895FC0183819481089562
:10350000FC01878190850895FC018185928508954D
:10351000FC01838594850895FC0185859685089531
:103520000F931F93CF93DF93EC018B899C892F8599
:103530003889821B930B9E8B8D8B6D8D7E8D89853B
:103540009A850E94671C40E054E00E94791C8C011F
:103550006D897E898B8D9C8D0E94001CB8010E9414
:103560001D1C9C8F8B8F8A81833009F472C090F56B
:10357000813009F463C0823009F044C06D897E89CE
:103580008B819C810E94671C40E054E00E94791C62
:103590008C016B8D7C8D8D819E810E94671C40E02B
:1035A00054E00E94791CB8010E94001C6D857E8544
:1035B00068177907D4F06B857C85861797070CF41C
:1035C00058C01E8E1D8E9A8B898BDF91CF911F91D3
:1035D0000F9108958430C9F08530A1F489899A89C2
:1035E0006D857E856817790734F70E941D1C9E8FB4
:1035F0008D8F8D859E85898B9A8BDF91CF911F91C1
:103600000F91089580E090E0D1CF6D897E898B8104
:103610009C810E94671C40E054E00E94791C8C0150
:10362000698D7A8D8F8198850E94671C40E054E0F7
:103630000E94791CB8010E94001CAACF6D897E8966
:103640008B819C810E94671C40E054E00E94791CA1
:10365000ADCF6D897E898B819C810E94671C40E083
:1036600054E00E94791C8C01698D7A8D8F81988538
:1036700094CF0E941D1C9E8F8D8F8B859C85898B7E
:103680009A8BDF91CF911F910F9108950F931F9304
:10369000CF93DF93EC01CB018A016F857889788F16
:1036A0006F8B988B8F870E941D1C9A8F898F1C8B24
:1036B0000B8BCE01DF91CF911F910F910C94901A3B
:1036C0004F925F926F927F928F929F92AF92BF9232
:1036D000CF92DF92EF92FF920F931F93CF93DF93DE
:1036E000EC01FB0141845284678070840381148162
:1036F000E580F680C584D684A384B4848280912C2E
:1037000065E872E00E94813162E0CE010E94C6311C
:10371000B4010E940B3266E00E94C6314C0160E9A0
:1037200072E00E94813162E0C4010E94C631B5019D
:103730000E940B325C016DE972E00E94813162E00F
:10374000C5010E94C631B6010E940B3266E00E949C
:10375000C6316C0162EA72E00E94813166E0C60106
:103760000E94C6316C0169EA72E00E94813162E018
:10377000C6010E94C631B7010E940B3266E00E946A
:10378000C6317C0165EB72E00E94813162E0C701C5
:103790000E94C631B8010E940B3266E00E94C63119
:1037A0008C0161EC72E00E94813162E0C8010E94EC
:1037B000C631B3010E940B3266E00E94C6318C0113
:1037C0006DEC72E00E94813162E0C8010E94C63156
:1037D000B2010E940B3266E00E94C631CE01DF9139
:1037E000CF911F910F91FF90EF90DF90CF90BF90FE
:1037F000AF909F908F907F906F905F904F900895C3
:103800009C01432F4095441F4427441F80E090E8CB
:10381000841B9109AC01421B530BE1E0461757078B
:103820000CF0E0E0432F4095441F4427441FE41769
:1038300019F0C901860F971F08958617970799F108
:10384000611520E8720741F1719561957109492F61
:103850004095441F4427441F20E030E8241B3109D1
:10386000A901481B590BE1E04617570764F4492F9B
:103870004095441F4427441FE41719F0860F971FF3
:103880000895C9010895E0E0492F4095441F442759
:10389000441FE417B1F3F2CF97FD03C06FEF7FE74A
:1038A000D6CF0196FBCF80E090E00895811520E807
:1038B000920729F09C0197FD05C0C90108958FEF7B
:1038C0009FE70895319521953109C9010895811522
:1038D00020E8920729F09C01DB010E94783D0895C1
:1038E000611520E87207B9F76FEF7FEF8FEF9FE761
:1038F00008959A01442737FD4095542F0E94FB3DBF
:10390000211580E838074105510524F02FEF3FE7E6
:1039100040E050E0DA01C901811520E892072FEF5D
:10392000A207B20724F480E090E8AFEFBFEF08955C
:10393000CF93DF93EC017983688388E48093B800A8
:1039400081E00E94B9239B838A83892B19F0DF9140
:10395000CF9108950990D881C02D2097C1F367E9D0
:1039600075E0CE010E94813166E0CE01DF91CF91FA
:103970000C94C63184EA8093BC008091BC0087FD22
:103980000AC089EE93E003C00197009769F0209187
:10399000BC0027FFF9CF9091B900987F81E0983063
:1039A00009F0089580E0089581E008951F93CF9372
:1039B000DF9324EA2093BC002091BC0027FD0CC0BB
:1039C00029EE33E005C02150310921153105C1F13F
:1039D0004091BC0047FFF7CF2091B900287F2031EC
:1039E00051F1FC0180819181009729F11091B9007A
:1039F0006BE00E94C631EC016EEE79E00E948131ED
:103A000063E0CE010E94C631612F0E94EE326BE06E
:103A10000E94C631EC016FEF79E00E94813162E0D3
:103A2000CE010E94C63166E00E94C63180E0DF917F
:103A3000CF911F91089580E0DF91CF911F9108955C
:103A400081E0DF91CF911F910895CF93DF93609331
:103A5000BB0024E82093BC002091BC0027FD0CC0D3
:103A600029EE33E005C0215031092115310591F0CF
:103A70004091BC0047FFF7CF9091B900987F81E05B
:103A8000983129F0983219F0903409F080E0DF91F4
:103A9000CF910895FC01808191810097B9F36BE08B
:103AA0000E94C631EC016DED79E00E94813166E043
:103AB000CE010E94C63180E0DF91CF910895662348
:103AC000E9F084EC8093BC0040E59091BC0097FD48
:103AD0000AC089EE93E003C00197009769F0209136
:103AE000BC0027FFF9CF2091B900287F30E0842F58
:103AF00090E02817390739F08FEF089584E8809314
:103B0000BC0048E5E2CF8091BB000895FF920F937F
:103B10001F93CF93DF93EC01162FF42E00E02FEFCD
:103B20003FEFA90160E070E08A819B810E9422241E
:103B300084EA8093BC008091BC0087FD0CC029EE14
:103B400033E005C0215031092115310531F0809154
:103B5000BC0087FFF7CF8091B900612FCE010E9492
:103B6000251D81111AC088819981009721F06BEA87
:103B700075E00E94813100E020E030E0A90160E0C2
:103B800070E08A819B810E94012311E0812FDF91E7
:103B9000CF911F910F91FF9008956F2DCE010E943C
:103BA000251D882301F384E98093BC0084EA809377
:103BB000BC008091BC0087FD0CC029EE33E005C03D
:103BC000215031092115310531F08091BC0087FF6A
:103BD000F7CF8091B900612F6160CE010E94251D51
:103BE00081111AC088819981009721F061EB75E0FD
:103BF0000E94813100E020E030E0A90160E070E047
:103C00008A819B810E9401231FEF812FDF91CF9139
:103C10001F910F91FF90089584E88093BC008091DC
:103C2000BC0087FD0CC029EE33E005C021503109EE
:103C30002115310549F08091BC0087FFF7CF8091B5
:103C4000B900887F8835A9F01FEF84E98093BC0014
:103C500000E020E030E0A90160E070E08A819B8113
:103C60000E940123812FDF91CF911F910F91FF902F
:103C700008951091BB00E9CFCF92DF92EF92FF92AF
:103C80000F931F93CF93DF93EC01C62ED42E7901AF
:103C9000102F00E02FEF3FEFA90160E070E08A8174
:103CA0009B810E94222484EA8093BC008091BC0006
:103CB00087FD0AC0E9EEF3E003C03197309731F099
:103CC0009091BC0097FFF9CF8091B9006C2DCE0187
:103CD0000E94251D81111EC088819981009721F0C5
:103CE00067EB75E00E94813100E020E030E0A9013F
:103CF00060E070E08A819B810E940123DD24D394DF
:103D00008D2DDF91CF911F910F91FF90EF90DF905C
:103D1000CF9008956D2DCE010E94251DD82E8823A9
:103D2000D9F284E98093BC0084EA8093BC0080913E
:103D3000BC0087FD0CC049EE53E005C0415051095D
:103D40004115510531F09091BC0097FFF7CF80915C
:103D5000B9006C2D6160CE010E94251D811113C038
:103D600088819981009721F06DEB75E00E94813187
:103D700000E020E030E0A90160E070E08A819B81F2
:103D80000E940123BDCF8FEF810F19F1F70124ECC1
:103D90002093BC009091BC0097FD0CC049EE53E00D
:103DA00005C0415051094115510549F09091BC00A1
:103DB00097FFF7CF9091B900987F903591F19FEFE1
:103DC0009193815029F71250812F90E00196E80ECF
:103DD000F91E84E88093BC008091BC0087FD0AC076
:103DE00089EE93E003C00197009749F02091BC0051
:103DF00027FFF9CF8091B900887F8835A9F08FEF30
:103E0000F701808384E98093BC0000E020E030E08B
:103E1000A90160E070E08A819B810E940123D12C7E
:103E20006FCF9091BB00CCCF8091BB00E9CFEF92D8
:103E3000FF920F931F93CF93DF93EC01162FF42E75
:103E4000E22E00E02FEF3FEFA90160E070E08A81F1
:103E50009B810E94222484EA8093BC008091BC0054
:103E600087FD0AC0E9EEF3E003C03197309731F0E7
:103E70008091BC0087FFF9CF8091B900612FCE01FE
:103E80000E94251D81111AC088819981009721F017
:103E900063EC75E00E94813100E020E030E0A90190
:103EA00060E070E08A819B810E94012381E0DF91C4
:103EB000CF911F910F91FF90EF9008956F2DCE013C
:103EC0000E94251D882301F36E2DCE010E94251D21
:103ED0008823D1F284E98093BC0000E020E030E048
:103EE000A90160E070E08A819B810E94012380E04B
:103EF000DECFBF92CF92DF92EF92FF920F931F938C
:103F0000CF93DF937C01C62FD42FB22E132FD02E48
:103F100000E02FEF3FEFA90160E070E0DC011296B6
:103F20008D919C9113970E94222484EA8093BC0077
:103F30008091BC0087FD0AC0E9EEF3E003C0319731
:103F4000309731F08091BC0087FFF9CF8091B900A4
:103F50006C2FC7010E94251D811123C0D7018D91AF
:103F60009C91009721F069EC75E00E94813100E09E
:103F700020E030E0A90160E070E0D70112968D9159
:103F80009C9113970E940123CC24C3948C2DDF9124
:103F9000CF911F910F91FF90EF90DF90CF90BF9046
:103FA00008956D2FC7010E94251DC82E8823B1F2E8
:103FB000DD2079F1CB2DD12F10E003C01F5F1D153F
:103FC00041F16991C7010E94251D8111F7CFF701C9
:103FD000C081D181209789F06FEC75E0CE010E94FD
:103FE0008131612FCE010E94EE32DC01ED91FC9116
:103FF0000280F381E02D6EE3099500E020E030E0DF
:10400000A90160E070E0F701828193810E940123A1
:10401000BDCF84E98093BC0000E020E030E0A9013E
:1040200060E070E0F701828193810E940123C12C3E
:10403000ADCF8BB18695817008950F931F93CF9369
:10404000DF93EC01162F00E02FEF3FEFA90160E0B6
:1040500070E08A819B810E94222484EA8093BC00C4
:104060008091BC0087FD0CC029EE33E005C02150D3
:1040700031092115310531F08091BC0087FFF7CF60
:104080008091B900612FCE010E94251D182F84E96F
:104090008093BC0000E020E030E0A90160E070E027
:1040A0008A819B810E940123812FDF91CF911F91F3
:1040B0000F910895CF92DF92EF92FF920F931F938B
:1040C000CF93DF938C01EB016BE0CE010E94C631F0
:1040D0007C0169EC79E00E94813163E0C7010E94B4
:1040E000C63166E00E94C631E12CF12C6E2DCE0166
:1040F0000E94EE32DC01ED91FC910280F381E02D13
:1041000060E30995CE2CC29480EFC822D12C08C060
:1041100060E4CE010995D394D394B0E1DB16E1F0CD
:10412000E881F9810280F381E02D60E2CE010995FA
:104130006D2D6C29C8010E941D20E881F981028043
:10414000F381E02D8111E4CF6DE2CE010995D39486
:10415000D394B0E1DB12E4CF66E0CE010E94C63119
:104160008FEFE81AF80AA0E1EA16F10409F0BECFD1
:1041700062E0CE01DF91CF911F910F91FF90EF9000
:10418000DF90CF900C94C6319C01220F331F280F73
:10419000391F3695279536952795ABE7B4E10E94F0
:1041A000803D9C013695279589E590E0821B930B15
:1041B00008958E3191053CF4833E2FEF920734F43D
:1041C00086ED9FE008958EED97E0089542E2489FC6
:1041D0009001499F300D11248AED9BE0821B930BC7
:1041E000089580E090E0089508950F931F93CF9372
:1041F000DF93EC010E94AC2780916A06811121C0F7
:1042000084E796E09093700680936F061092720692
:104210001092710687E397E190936E0680936D0686
:1042200010926C0610926B06909377068093760638
:104230008BE696E0909375068093740681E08093F8
:104240006A06209709F460C0AE014C5F5F4F239669
:10425000C633D74108F058C0E0916F06F091700660
:10426000AFE6B6E006C080819181009739F0DF01AA
:10427000FC012281338124173507A8F3C6E0EB3611
:10428000FC0709F441C00D911C9111970C5F1F4F61
:10429000808191818D939C93C901841B950B8930FA
:1042A000910500F1BF01640F751FDB0113969C930C
:1042B0008E9312975383428312968D919C911397FC
:1042C000AFE6B6E001C0DF01ED91FC9111972281CC
:1042D000338128173907B8F3EB01F983E8836D932D
:1042E0007C939A018091000290910102821B930BB2
:1042F00090930102809300020E94DF28C801DF91A1
:10430000CF911F910F91089500E010E00E94DF28E7
:10431000C801DF91CF911F910F910895CF93DF9343
:10432000009721F1EC0124970E94AC274A815B8120
:10433000AFE6B6E001C0DF01ED91FC91119722815B
:10434000338124173507B8F3F983E883CD93DC93E1
:104350008091000290910102840F951F90930102B9
:1043600080930002DF91CF910C94DF28DF91CF91F1
:1043700008958091000290910102089508951F937D
:10438000CF93DF93EC01142F88A181110DC0888198
:104390009981892B09F44DC080E09E8D9F5F9E8F8F
:1043A000DF91CF911F910895482F50E011111CC04B
:1043B0008C819D810E94163F28A18C819D81820F56
:1043C000911D9D838C832A813B818217930720F363
:1043D000888199819D838C8380E09E8D9F5F9E8FD5
:1043E000DF91CF911F9108958E819F810E94163F8A
:1043F00028A130E03195219531098E819F81820F6E
:10440000931F9F838E83688179818617970730F485
:104410008A819B81820F931F9F838E83123009F0C4
:10442000BBCF8E8D882309F4B7CF8E8D81508E8FB0
:10443000B3CF8A819B810E940A2C1B821A82ADCF46
:10444000FC01CB0140A1442399F050E02681378143
:10445000240F351F37832683628173812617370720
:1044600020F02081318137832683B9010C94163FD7
:1044700008950F931F93CF93DF93EC010FB6F89439
:104480000F928AA11816ECF48B898823D1F08E0143
:104490000D5E1F4F09C08AA181508AA38AA11816F8
:1044A00084F48B89882369F0C8010E94962A8823A6
:1044B00091F30E948A2B8AA181508AA38AA118169F
:1044C00084F38FEF8AA30F900FBE0FB6F8940F926C
:1044D00089A11816ECF488858823D1F08E01085F35
:1044E0001F4F09C089A1815089A389A1181684F49E
:1044F0008885882369F0C8010E94962A882391F351
:104500000E948A2B89A1815089A389A1181684F35E
:104510008FEF89A30F900FBEDF91CF911F910F9165
:104520000895CF93DF93EC010FB6F8940F92288192
:1045300039818F8D78A1879FC0011124A901480F6F
:10454000591F5B834A831E8E3D832C83871B9109F1
:10455000820F931F9F838E838FEF89A38AA361119C
:1045600012C08885811106C00F900FBE81E0DF91D7
:10457000CF910895CE0108960E94962A8130A1F726
:104580000E946C36F1CFCE0108960E94FD34CE0118
:1045900043960E94FD340F900FBE81E0DF91CF91D2
:1045A00008950F931F93CF93DF93182F062F88231F
:1045B00001F183E290E00E94F520EC010097C9F040
:1045C000109FC001112401960E94F52099838883D1
:1045D000892B61F01F8F08A361E0CE010E94912218
:1045E000CE01DF91CF911F910F910895CE010E94CE
:1045F0008E21C0E0D0E0CE01DF91CF911F910F91CD
:1046000008956F927F928F929F92AF92BF92CF92B6
:10461000DF92EF92FF920F93CF93DF93CDB7DEB788
:1046200029970FB6F894DEBF0FBECDBF5C014B01DA
:104630002E833F834887598720E03C0188E0680E3D
:10464000711C0FB6F8940F92F501968D878D98170F
:1046500008F459C0023009F456C0CE80DF80E884E7
:10466000F984CD28CE28CF2809F46FC0222309F47D
:1046700041C00F900FBE0E94AC270FB6F8940F9266
:10468000F50181A18F3F09F43CC0F50182A18F3F64
:10469000B1F10F900FBEBE016A5F7F4FCE01019650
:1046A0000E94292B811155C00FB6F8940F92F50185
:1046B000968D0F900FBEF501878D981314C04E8113
:1046C0005F8168857985C3010E943B2AC5010E94EC
:1046D00039220E94DF28882311F021E0B2CF0E9406
:1046E0006C3621E0AECFC5010E9439220E94DF283E
:1046F00021E0A7CFCE0101960E94182BBACF12A2BB
:10470000C8CF11A2C2CF402FB401C5010E94BF2162
:10471000F5019389911124C0811128C00F900FBE1B
:1047200081E029960FB6F894DEBF0FBECDBFDF91B2
:10473000CF910F91FF90EF90DF90CF90BF90AF900F
:104740009F908F907F906F9008950F900FBE80E0A4
:10475000E8CFC5010E9439220E94DF2880E0E1CF26
:10476000C50143960E94962A8130C1F60E946C369C
:10477000D5CF0F93CF93DF9383E290E00E94F52093
:10478000EC01009701F11B821A82198218821D82A6
:104790001C821F821E821E8E81E08F8F18A28FEFD7
:1047A00089A38AA3CE0108960E94FD34CE014396C8
:1047B0000E94FD3400E020E030E0A90160E070E0FC
:1047C000CE010E940123CE01DF91CF910F91089578
:1047D0000F931F93CF93DF93EC018A019E8D8F8DF2
:1047E000981740F0223031F080E0DF91CF911F9197
:1047F0000F910895422FCE010E94BF21882331F0EE
:104800000115110519F081E0F80180838AA18F3F1D
:1048100049F08AA18F5F8AA381E0DF91CF911F9138
:104820000F9108958B898823B9F3CE0143960E9496
:10483000962A882389F30115110571F381E0F801A7
:104840008083D3CFAF92BF92CF92DF92EF92FF924D
:104850000F93CF93DF93CDB7DEB729970FB6F894B8
:10486000DEBF0FBECDBF7C016B012E833F83488727
:10487000598790E0570183E1A80EB11C0FB6F89458
:104880000F92F701868D811169C04E815F81688525
:104890007985452B462B472B09F47DC0992309F4D4
:1048A0003EC00F900FBE0E94AC270FB6F8940F9237
:1048B000F70181A18F3F09F43EC0F70182A18F3F2C
:1048C00009F43FC00F900FBEBE016A5F7F4FCE015B
:1048D00001960E94292B811171C00FB6F8940F9296
:1048E000F701868D0F900FBE81111EC0F7018081E8
:1048F0009181892B41F14E815F8168857985C50160
:104900000E943B2AC7010E9439220E94DF28882387
:1049100011F091E0B3CF0E946C3691E0AFCFCE01A1
:1049200001960E94182BBDCFC7010E9439220E9418
:10493000DF2891E0A3CF11A2F70182A18F3F09F0F8
:10494000C1CF12A2BFCF0FB6F8940F92F7018281A8
:1049500093810E94AF2B0F900FBECDCFA680B78062
:10496000B601C7010E942022F70101112EC0868DD9
:104970008150868F80819181892BB9F1F7018085E3
:10498000882341F1C70108960E94962A813011F5CB
:104990000E946C361FC00F900FBE80E029960FB6A4
:1049A000F894DEBF0FBECDBFDF91CF910F91FF9086
:1049B000EF90DF90CF90BF90AF900895C7010E9415
:1049C00039220E94DF2880E0E9CFB782A68283895E
:1049D000811104C00F900FBE81E0E0CFC701439664
:1049E0000E94962A8823B1F3D3CF0E94712CF7013D
:1049F00093838283C3CF0F931F93CF93DF9300D012
:104A0000CDB7DEB78C01FC01868D811108C080E036
:104A10000F900F90DF91CF911F910F910895C801D2
:104A200049835A830E942022F801868D8150868F07
:104A300081A149815A818F3F61F0F80181A18F5F87
:104A400081A381E00F900F90DF91CF911F910F9183
:104A5000089580858823A9F3C801089649835A835D
:104A60000E94962A49815A81882359F3411551059C
:104A700041F381E0FA018083CBCF0F931F93CF9353
:104A8000DF93EC018E8D811106C080E0DF91CF9124
:104A90001F910F9108950E811F81CE010E94202247
:104AA0001F830E8381E0DF91CF911F910F910895B5
:104AB0000FB6F8940F92FC01868D0F900FBE0895EB
:104AC0000FB6F8940F92FC01268D0F900FBEFC01DB
:104AD000878D821B0895FC01868D0895CF93DF9307
:104AE000EC0188819981009711F00E948E21CE01FE
:104AF000DF91CF910C948E21FC01968D81E0911174
:104B000080E00895FC01268D81E0978D291380E0D7
:104B100008958091E01D823018F00E946C36F9CF24
:104B2000FFCFCF92DF92EF92FF926B017C01E09179
:104B3000AB1DF091AC1D6283738384839583809158
:104B4000B41D9091B51DA091B61DB091B71D609197
:104B5000AB1D7091AC1DC816D906EA06FB0610F114
:104B60008091C81D9091C91D6E5F7F4F0E943335A3
:104B70008091020290910302A0910402B09105027B
:104B8000C816D906EA06FB0640F4C0920202D0928B
:104B90000302E0920402F0920502FF90EF90DF9092
:104BA000CF9008958091C61D9091C71D6E5F7F4F75
:104BB000FF90EF90DF90CF900C9433355F926F921F
:104BC0007F928F929F92AF92BF92CF92DF92EF929D
:104BD000FF920F931F93CF93DF934C01162F572E05
:104BE0005A01390189E290E00E94F520EC0100971A
:104BF00009F4E9C0C114D10409F4DAC0DC8ECB8E0B
:104C0000C601A50165EA70E00E941F3F21E0A21ADB
:104C1000B108CB8CDC8CCA0CDB1CAE01435E5F4F51
:104C2000E12FF52D2AE0CF013191DA013D93AD015D
:104C3000DC018C91882311F02150A9F71EA2102FBE
:104C4000043008F07DC01A8F1FA318A65E01B2E0E1
:104C5000AB0EB11CC5010E940E35CE010E960E940E
:104C60000E35DB87CA8784E090E0A0E0B0E0811BCE
:104C70009109A109B1098E879F87A88BB98BDF8B1A
:104C8000CE8BA301B401C6010E949C359983888311
:104C9000E114F10419F0F701D183C0830FB6F89441
:104CA0000F928091B81D8F5F8093B81D8091AB1DCE
:104CB0009091AC1D892B09F449C08091B21D8111DE
:104CC0000BC0E091AB1DF091AC1D828D081720F058
:104CD000D093AC1DC093AB1D8091AE1D8F5F8093B0
:104CE000AE1D8A8D9091B31D981738F1FBE08F9F10
:104CF000C0011124B5018052924E0E9412350F90CE
:104D00000FBE8091B21D882339F0E091AB1DF09168
:104D1000AC1D828D8017B0F081E0DF91CF911F91A3
:104D20000F91FF90EF90DF90CF90BF90AF909F904A
:104D30008F907F906F905F9008958093B31DD6CF32
:104D400013E081CF0E946C3681E0E7CFD093AC1D99
:104D5000C093AB1D8091B81D813009F0BDCF80EEAE
:104D60009DE10E94FD348BEE9DE10E94FD3486EFB3
:104D70009DE10E94FD3481E09EE10E94FD3485EDBD
:104D80009DE10E94FD348AEC9DE10E94FD348BEB95
:104D90009DE10E94FD3485ED9DE19093C91D8093B6
:104DA000C81D8AEC9DE19093C71D8093C61D94CFCA
:104DB000C5010E94F5209C8F8B8F009709F021CFB1
:104DC000CE010E948E218FEFA8CF0FB6F8940F92DC
:104DD000009729F00F900FBEFC01828D08958091FD
:104DE000AB1D9091AC1D0F900FBEFC01828D0895FC
:104DF000EF92FF921F93CF93DF93EC01262F643045
:104E000008F023E00FB6F8940F92209709F44AC0F7
:104E10003FA13217A9F18091AB1D9091AC1D3217C3
:104E2000B8F5C817D90741F0E091AB1DF091AC1D62
:104E300011E0828D281708F410E08A8D381769F187
:104E40002FA34E855F856889798977FD0CC044E082
:104E500050E060E070E0421B5109610971094E8722
:104E60005F87688B798B2BE0829FC0011124805271
:104E7000924E2C853D8528173907C9F0113079F0FD
:104E80000F900FBEDF91CF911F91FF90EF9008958B
:104E900011E0C817D90781F6D0CF2A8FD1CF0E9451
:104EA0006C36EECFC091AB1DD091AC1DB1CF7E0161
:104EB00082E0E80EF11CC7010E9470358A8D909146
:104EC000B31D981710F48093B31D2BE0829FC0018F
:104ED0001124B7018052924E0E941235CFCFAF926B
:104EE000BF92CF92DF92EF92FF920F93A12CB12C41
:104EF000C12CD12C89EBE82E8DE1F82E00E020E0CA
:104F000030E044E650E063ED75E089E895E20E9408
:104F1000DE25813041F00F91FF90EF90DF90CF9030
:104F2000BF90AF900895F8948093B21D1092B41D75
:104F30001092B51D1092B61D1092B71D0F91FF90E3
:104F4000EF90DF90CF90BF90AF900C943036F894F4
:104F50001092B21D0C946B368091AD1D8F5F8093C3
:104F6000AD1D08950FB6F8940F926091B41D709125
:104F7000B51D8091B61D9091B71D0F900FBE08957D
:104F80006091B41D7091B51D8091B61D9091B71DB3
:104F900008958091B81D0895009711F04D960895D9
:104FA0008091AB1D9091AC1D4D9608958091B91DD7
:104FB0009091BA1D0895AF92BF92CF92DF92EF9277
:104FC000FF920F931F93CF93DF938091AD1D8111BB
:104FD000CFC08091B41D9091B51DA091B61DB09128
:104FE000B71D0196A11DB11D8093B41D9093B51DF1
:104FF000A093B61DB093B71DC090B41DD090B51D41
:10500000E090B61DF090B71DC114D104E104F10485
:1050100039F58091C81D9091C91D2091C61D309110
:10502000C71D3093C91D2093C81D9093C71D809341
:10503000C61D8091AF1D8F5F8093AF1DE091C81D8D
:10504000F091C91D808181119AC08FEF9FEFDC0123
:105050008093020290930302A0930402B09305028E
:105060008091020290910302A0910402B091050286
:10507000B12CC816D906EA06FB0608F457C09BE017
:10508000A92EE091C81DF091C91D8081882309F4E3
:1050900042C0E091C81DF091C91D0780F085E02D48
:1050A000C085D1854A815B816C817D81C416D5061E
:1050B000E606F70608F47AC08E010E5F1F4FC8019E
:1050C0000E947035888D998D892B21F0CE010E9626
:1050D0000E9470358A8D9091B31D981710F48093BB
:1050E000B31DA89EC0011124B8018052924E0E94A7
:1050F0001235E091AB1DF091AC1D9A8D828D981701
:1051000008F4BFCFBB24B394E091C81DF091C91D32
:1051100080818111BECF4FEF5FEFBA014093020251
:10512000509303026093040270930502E091AB1D5B
:10513000F091AC1DE28D8BE0E89FF0011124E0526C
:10514000F24E8081823010F0BB24B3948091B01D68
:10515000882311F0BB24B3948B2DDF91CF911F9145
:105160000F91FF90EF90DF90CF90BF90AF90089598
:105170008091B11D8F5F8093B11DB12CE7CFE0917D
:10518000C81DF091C91D0780F085E02D0084F185D0
:10519000E02D82819381A481B58180930202909356
:1051A0000302A0930402B09305025ACF4093020277
:1051B000509303026093040270930502B7CFEF92FD
:1051C000FF920F931F93CF93DF930FB6F8940F9234
:1051D0008091AD1D81508093AD1D8091AD1D8111D9
:1051E00050C08091B81D882309F44BC02BE0F22EEB
:1051F000EE24E39427C0E091C21DF091C31DC08549
:10520000D185CE010E960E9470358E010E5F1F4F24
:10521000C8010E9470358A8D9091B31D981710F4C3
:105220008093B31DF89EC0011124B8018052924EA4
:105230000E941235E091AB1DF091AC1D9A8D828DCC
:10524000981748F58091BB1D8111D5CF8091B11D74
:10525000882399F08091B11D882379F0C1E00E94E4
:10526000DB278111C093B01D8091B11D81508093C7
:10527000B11D8091B11D8111F2CF8091B01D81309F
:1052800069F080E00F900FBEDF91CF911F910F91D9
:10529000FF90EF900895E092B01DD4CF0E946C363D
:1052A00081E0F0CFCF92DF92EF92FF920F931F93A6
:1052B000CF93DF9300D000D0CDB7DEB72091AD1DE6
:1052C0002F5F2093AD1DC090B41DD090B51DE09010
:1052D000B61DF090B71DFC01008111812281338140
:1052E000400F511F621F731FC016D106E206F3065E
:1052F000E8F44017510762077307E8F0FC014083A8
:105300005183628373830E94DF28811102C00E944F
:105310006C360F900F900F900F90DF91CF911F91EF
:105320000F91FF90EF90DF90CF90089540175107B5
:105330006207730728F0C416D506E606F706F0F6EE
:10534000FC0140835183628373838091AB1D9091F4
:10535000AC1D029649835A836B837C830E9470350F
:1053600049815A816B817C81CB01BA010E949125D0
:10537000CACFCF92DF92EF92FF926115710581053E
:10538000910539F40E946C36FF90EF90DF90CF903A
:1053900008952091AD1D2F5F2093AD1DC090B41DC9
:1053A000D090B51DE090B61DF090B71DC60ED71E6B
:1053B000E81EF91E8091AB1D9091AC1D02960E94D3
:1053C0007035C701B6010E9491250E94DF2888230D
:1053D000C9F2FF90EF90DF90CF9008958091AD1DBE
:1053E00081113BC01092B01DE091B31D8BE0E89F8E
:1053F000F0011124E052F24E8081811110C09BE037
:105400008091B31D81508093B31DE091B31D9E9F89
:10541000F0011124E052F24E8081882389F3E0915B
:10542000B31D8BE0E89FF0011124E052F24EA18100
:10543000B28114960D90BC91A02DB283A183CF01AF
:105440000396A817B90769F018968D919C91199742
:105450009093AC1D8093AB1D089581E08093B01DA7
:10546000089514969C91149715968C91918382833C
:10547000A92FB82FE9CFCF92DF92EF92FF926A0166
:105480007B016091AB1D7091AC1D625F7F4F0E94EC
:1054900033358091AB1D9091AC1D02960E94703502
:1054A0006091B41D7091B51D8091B61D9091B71D8E
:1054B0006C0D7D1D8E1D9F1DFF90EF90DF90CF9096
:1054C0000C949125CF92DF92EF92FF920F931F934E
:1054D00068017901E091AB1DF091AC1D70684687C1
:1054E0005787608B718B6091AB1D7091AC1D625FB3
:1054F0007F4F0E9412358091AB1D9091AC1D02969A
:105500000E9470356091B41D7091B51D8091B61DDB
:105510009091B71D6C0D7D1D8E1D9F1D1F910F91CC
:10552000FF90EF90DF90CF900C9491250F931F93F5
:10553000CF93DF93DC011796ED91FC911897C0850E
:10554000D1858E01025F1F4FC8010E947035809186
:10555000AD1D811124C08E010E5F1F4FC8010E9436
:1055600070358A8D9091B31D9817F8F0BBE08B9F32
:10557000C0011124B8018052924E0E941235E09170
:10558000AB1DF091AC1D9A8D828D891788F481E056
:105590008093B01DDF91CF911F910F910895B801B5
:1055A0008BEB9DE10E941235EACF8093B31DDECFD5
:1055B00080E0DF91CF911F910F9108950F931F937A
:1055C000CF93DF937068FC014083518362837383C0
:1055D000C085D1850E9470358E010E5F1F4FC801B6
:1055E0000E9470358A8D9091B31D981710F48093A6
:1055F000B31DFBE08F9FC0011124B8018052924E71
:105600000E941235E091AB1DF091AC1D9A8D828DF8
:10561000891740F481E08093B01DDF91CF911F91F5
:105620000F91089580E0DF91CF911F910F91089520
:105630002091AF1DFC0120834091B41D5091B51DF8
:105640006091B61D7091B71D41835283638374834B
:1056500008958F929F92AF92BF92CF92DF92EF9276
:10566000FF920F931F93FC01DB010FB6F8940F928A
:105670004091B41D5091B51D6091B61D7091B71D3C
:105680008091AF1D9081018112812381348198170F
:1056900029F0401751076207730770F5CD90DD9030
:1056A000ED90FC9013974A015B01801A910AA20ABF
:1056B000B30A8C149D04AE04BF04F0F4C41AD50AD6
:1056C000E60AF70AC00ED11EE21EF31ECD92DD924D
:1056D000ED92FC9213978091AF1D80838091B41D51
:1056E0009091B51DA091B61DB091B71D8183928395
:1056F000A383B48380E001C081E00F900FBE1F91AF
:105700000F91FF90EF90DF90CF90BF90AF909F9060
:105710008F90089581E08093B01D0895009799F0CF
:10572000DC015B96ED91FC915C978081853A81F478
:10573000319680E090E0DC010196A11DB11D219120
:10574000253AD1F308958091AB1D9091AC1DE8CF1F
:1057500080E008958091AB1D9091AC1D08950F934A
:105760001F93CF93DF93EC01009781F18A8DE09135
:10577000AB1DF091AC1D928D891740F54E855F856C
:105780006889798977FD11C0E091AB1DF091AC1D5E
:10579000928D44E050E060E070E0491B51096109DE
:1057A00071094E875F87688B798B2BE0829FC001E0
:1057B00011248052924E2C853D852817390759F0C7
:1057C000E091AB1DF091AC1D828D8A8FDF91CF915E
:1057D0001F910F9108958E010E5F1F4FC8010E9407
:1057E0007035E091AB1DF091AC1D828D8A8F909148
:1057F000B31D981710F48093B31D2BE0829FC00156
:105800001124B8018052924EDF91CF911F910F91D8
:105810000C9412350F931F93CF93DF93EC010097F5
:1058200049F088A5815088A72A8D9FA1291711F0DA
:10583000882331F080E0DF91CF911F910F9108957F
:105840008E010E5F1F4FC8010E9470358FA18A8F95
:1058500044E050E060E070E0481B510961097109C3
:105860004E875F87688B798B9091B31D981710F4E2
:105870008093B31D2BE0829FC0011124B801805298
:10588000924E0E94123581E0DF91CF911F910F91CE
:105890000895CF92DF92EF92FF92E091AB1DF091CD
:1058A000AC1D6685778580899189E091AB1DF0916B
:1058B000AC1DA091AB1DB091AC1D5A962C9134E05B
:1058C000C32ED12CE12CF12CC21AD108E108F10829
:1058D000C686D786E08AF18AFF90EF90DF90CF905E
:1058E00008958091AB1D9091AC1D892B39F0E0910A
:1058F000AB1DF091AC1D80A58F5F80A78091AB1D83
:105900009091AC1D0895EF92FF920F931F93CF9348
:10591000DF9300D0CDB7DEB77C018CED95E0F701C9
:105920009183808361157105C1F0FB010190002016
:10593000E9F73197E61BED3020F50E2F10E0C80196
:10594000019669837A830E945131F701958384839C
:10595000A80169817A810E94263F80910C1E909156
:105960000D1EF70197838683F0920D1EE0920C1EA8
:105970000F900F90DF91CF911F910F91FF90EF90BB
:105980000895ECE0DACF0F931F93CF93DF93EC01F0
:1059900080910C1E90910D1E6BE0892B49F1CE0178
:1059A0000E94C6318C016AE47AE00E94813166E08F
:1059B000C8010E94C6316BE0CE010E94C6318C0145
:1059C00067E27AE00E94813166E0C8010E94C63138
:1059D00080910C1E90910D1EDC01ED91FC910190C7
:1059E000F081E02DBE01DF91CF911F910F910994BD
:1059F000CE010E94C631EC0169E07AE00E9481315B
:105A000066E0CE01DF91CF911F910F910C94C631CA
:105A10004F925F926F927F928F929F92AF92BF92BE
:105A2000CF92DF92EF92FF920F931F93CF93DF936A
:105A3000EC013B0149012801FC0182EE95E08193D4
:105A40009193A12CB12CC12CD12C7F01042F9E014C
:105A5000A40186E39DE30E94DE255F824E82998643
:105A6000888620910E1E30910F1E3D832C83D0938B
:105A70000F1EC0930E1E1C861D8680901C1E9090CB
:105A80001D1E9FEF891A990A90921D1E80921C1E5E
:105A90009B868A861E861F86188A198A411451049D
:105AA00009F44CC06BE0813041F1C2010E94C63163
:105AB000EC016DE67AE00E948131B301CE010E94D3
:105AC0008131E881F9810280F381E02D62E2CE012B
:105AD000099566E0CE01DF91CF911F910F91FF9064
