:100000000C9486080C94A5080C94A5080C94A508DB
:100010000C94A5080C94881C0C94451D0C94471D49
:100020000C94BC1D0C94A5080C94A5080C94A50870
:100030000C94A5080C94A5080C94A5080C94A5088C
:100040000C94A5080C94A5080C94A5080C94A5087C
:100050000C94A5080C94A5080C94A5080C94A5086C
:100060000C94A5080C94223B0C94A5080C94A508AC
:100070000C94A5080C94A5080C94A5080C94A5084C
:100080000C94A5080C94A5080C94A5080C94A5083C
:100090000C94753B0C94A5080C94A5080C94A50829
:1000A0000C94A5080C94A5080C94A5080C94A5081C
:1000B0000C94A5080C94A5080C94A5080C94EC3D90
:1000C0000C94A5080C94A5080C94A508130E430ED7
:1000D000B60D660D2B0D050DE60C6E0E94389D3891
:1000E000A038A33896389638A638B638BD38C43804
:1000F000C8389A385F5F5F5F5F5F5F5F204D453450
:100100003035204C61622033204D6F64696669652B
:10011000642050726F6772616D205F5F5F5F5F5F29
:100120005F5F004A756E2020332032303136005335
:10013000797374656D2074696D653A20002C2048D0
:100140006561703A20002C204F435235413A20001F
:1001500020202020723A2020202020205265747513
:10016000726E20746F204D61696E204D656E750052
:10017000202043746C2D433A202020205265736563
:100180007420415652206D6963726F636F6E747292
:100190006F6C6C65720020202020733A2020202094
:1001A0002020456E74657220736574706F696E747B
:1001B000732078787878787820666F72204D6F7425
:1001C0006F722031207468656E204D6F746F7220DD
:1001D00032002D2D2D2D2D2D2D2D2D2D2D2D2D2D77
:1001E0002D204155544F4E4F4D4F5553204D454EA8
:1001F00055202D2D2D2D2D2D2D2D2D2D2D2D2D2D14
:100200002D0020202020723A20202020202052651E
:100210007475726E20746F204D61696E204D656E2D
:100220007500202043746C2D433A20202020526515
:1002300073657420415652206D6963726F636F6EEF
:1002400074726F6C6C65720020202020703A202040
:10025000202020204578656375746520686967688B
:100260007761792070617373696E670020202020A8
:10027000633A202020202020546F67676C6520633C
:1002800061722061766F6964616E63650020202071
:10029000206C3A202020202020546F67676C652056
:1002A0006C616E65206B656570696E67002D2D2D24
:1002B0002D2D2D2D2D2D2D2D2D2D2D2D2D2D204860
:1002C000494748574159205441534B204D454E55BD
:1002D000202D2D2D2D2D2D2D2D2D2D2D2D2D2D2D5B
:1002E0002D2D0020202020723A2020202020205276
:1002F000657475726E20746F204D61696E204D6556
:100300006E7500202043746C2D433A20202020522B
:100310006573657420415652206D6963726F636F17
:100320006E74726F6C6C65720020202020633A201E
:10033000202020202043697263756C6172207061F7
:10034000746800202020206C3A2020202020204C9F
:10035000696E6561722068656164696E67206164B9
:10036000686572616E6365002D2D2D2D2D2D2D2D4F
:100370002D2D2D2D2D2D2D2D2D20434C4153532032
:100380005441534B204D454E55202D2D2D2D2D2DB7
:100390002D2D2D2D2D2D0020202020723A202020C3
:1003A00020202052657475726E20746F204D616933
:1003B0006E204D656E7500202043746C2D433A20ED
:1003C000202020526573657420415652206D696368
:1003D000726F636F6E74726F6C6C65720020202098
:1003E00020733A202020202020506F736974696F99
:1003F0006E20736574706F696E7400202020207009
:100400003A202020202020536572766F20706F7371
:100410006974696F6E20776974682050574D205B4E
:100420003239205B4C5D2C203232205B435D2C2026
:100430003135205B525D5D002D2D2D2D2D2D2D2D67
:100440002D2D2D2D2D2D2D2D2D20534552564F2048
:100450004D454E55202D2D2D2D2D2D2D2D2D2D2D58
:100460002D2D2D2D2D2D0020202020723A202020F2
:1004700020202052657475726E20746F204D616962
:100480006E204D656E7500202043746C2D433A201C
:10049000202020526573657420415652206D696397
:1004A000726F636F6E74726F6C6C657200202020C7
:1004B00020733A20202020202056656C6F636974D9
:1004C0007920736574706F696E74205B2D34302CE5
:1004D0002034305D0020202020663A20202020207B
:1004E0002046756C6C204272616B650020202020D4
:1004F000623A2020202020204D6F746F72204252DB
:10050000414B4520776974682050574D205B2D3250
:1005100035352C203235355D0020202020703A20E2
:1005200020202020204D6F746F7220504F5745526D
:1005300020776974682050574D205B2D3235352C5B
:10054000203235355D002D2D2D2D2D2D2D2D2D2DD0
:100550002D2D2D2D2D2D2D204D4F544F52204D45FD
:100560004E55202D2D2D2D2D2D2D2D2D2D2D2D2D7F
:100570002D2D2D2D0020202020723A2020202020FB
:100580002052657475726E20746F204D61696E2003
:100590004D656E7500202043746C2D433A20202059
:1005A00020526573657420415652206D6963726FE5
:1005B000636F6E74726F6C6C657200202020206413
:1005C0003A202020202020537461636B2064756DD5
:1005D0007020666F72207461736B7300202020207E
:1005E000733A20202020202056657273696F6E2F89
:1005F000536574757020696E666F726D6174696F92
:100600006E0020202020743A2020202020205368D3
:100610006F77207468652063757272656E742074DC
:10062000696D65002D2D2D2D2D2D2D2D2D2D2D2D73
:100630002D2D2D2D2D2048454C50204D454E55201B
:100640002D2D2D2D2D2D2D2D2D2D2D2D2D2D2D2DDA
:100650002D0020202020723A2020202020205265CA
:100660007475726E20746F204D61696E204D656ED9
:100670007500202043746C2D433A202020205265C1
:1006800073657420415652206D6963726F636F6E9B
:1006900074726F6C6C65720020202020643A2020F8
:1006A00020202020526F7461746520737465657218
:1006B000696E6720746F207468652072696768745A
:1006C000202B310020202020613A202020202020D3
:1006D000526F74617465207374656572696E67200A
:1006E000746F20746865206C656674202D3100205D
:1006F000202020733A20202020202044656372654A
:100700006D656E74206D6F746F722076656C6F63AB
:10071000697479202D32300020202020773A202063
:1007200020202020496E6372656D656E74206D6FA8
:10073000746F722076656C6F63697479202B323028
:10074000002D2D2D2D2D2D2D2D2D2D2D2D2D2D43F0
:100750004152204452495645204D454E55202D2D9D
:100760002D2D2D2D2D2D2D2D2D2D2D2D2D2D2D00E6
:1007700020202020723A20202020202052657475ED
:10078000726E20746F204D61696E204D656E75002C
:10079000202043746C2D433A20202020526573653D
:1007A0007420415652206D6963726F636F6E74726C
:1007B0006F6C6C657200202020203F3A20202020A2
:1007C000202048656C70204D656E7500202020202B
:1007D000683A2020202020204869676877617920C6
:1007E0006D61696E74656E616E6365002020202006
:1007F000633A202020202020436C617373207265AF
:10080000717569726564207461736B7300202020B8
:1008100020643A20202020202044726976652074CC
:10082000686520636172210020202020733A202017
:1008300020202020536572766F206D616E75616C8B
:10084000206D616E6970756C6174696F6E00202037
:1008500020206D3A2020202020204D6F746F7220C0
:100860006D616E75616C206D616E6970756C61741F
:10087000696F6E002D2D2D2D2D2D2D2D2D2D2D2D16
:100880002D2D2D2D2D204D41494E204D454E5520CD
:100890002D2D2D2D2D2D2D2D2D2D2D2D2D2D2D2D88
:1008A0002D00496C6C6567616C20737461746521FF
:1008B00020526573657474696E6720415652002238
:1008C00020003C2D2D20556E6B6E6F776E20636F70
:1008D0006D6D616E642E205479706520636F6D6D4F
:1008E000616E642066726F6D206D656E752E0052AC
:1008F0006573657474696E67204156520043757262
:1009000072656E7420536572766F20506F736974D0
:10091000696F6E3A200043757272656E74204D6F78
:10092000746F722056656C6F6369746965733A20E1
:10093000002220003C2D2D20556E6B6E6F776E20AF
:10094000636F6D6D616E642E205479706520636FE6
:100950006D6D616E642066726F6D206D656E752EB3
:1009600000526573657474696E67204156520022A7
:1009700020003C2D2D20556E6B6E6F776E20636FBF
:100980006D6D616E642E205479706520636F6D6D9E
:10099000616E642066726F6D206D656E752E0052FB
:1009A0006573657474696E672041565200456E74B4
:1009B000657220726164697573206F662063697265
:1009C00063756C61722070617468205B302C323505
:1009D000355D00456E7465722076656C6F63697471
:1009E00079206F66206C696E656172207061746831
:1009F000205B302C3235355D002220003C2D2D202F
:100A0000556E6B6E6F776E20636F6D6D616E642EC9
:100A1000205479706520636F6D6D616E642066721D
:100A20006F6D206D656E752E005265736574746907
:100A30006E672041565200456E74657220706F7368
:100A40006974696F6E20736574706F696E74206667
:100A50006F7220536572766F00456E7465722070F8
:100A60006F736974696F6E20666F7220536572765A
:100A70006F002220003C2D2D20556E6B6E6F776E1F
:100A800020636F6D6D616E642E20547970652063F4
:100A90006F6D6D616E642066726F6D206D656E7531
:100AA0002E00526573657474696E6720415652005A
:100AB0004D6F746F7220002048414C544544210012
:100AC000456E746572206E756D62657220666F7218
:100AD000204D6F746F722000456E746572206E75C4
:100AE0006D62657220666F72204D6F746F722000A8
:100AF0002220003C2D2D20556E6B6E6F776E20638B
:100B00006F6D6D616E642E205479706520636F6D1A
:100B10006D616E642066726F6D206D656E752E005E
:100B2000506C6561736520747970652061206E7505
:100B30006D626572206265747765656E2030207421
:100B40006F203235352C207468656E20454E544533
:100B50005200506C65617365207479706520612066
:100B60006E756D626572206265747765656E2030A2
:100B700020746F203235352C207468656E20454E08
:100B800054455200506C6561736520656E746572E2
:100B900020612063697263756C6172207061746892
:100BA0002076656C6F63697479205B302C32353543
:100BB0005D00506C656173652074797065206120FB
:100BC0006E756D626572206265747765656E203141
:100BD0003520746F2032392C207468656E20454EA4
:100BE00054455200506C65617365207479706520BE
:100BF00061206E756D626572206265747765656EE1
:100C0000203020746F203235352C207468656E20BA
:100C1000454E54455200506C65617365207479707F
:100C2000652061206E756D626572206265747765FE
:100C3000656E202D32353520746F203235352C20ED
:100C40007468656E20454E54455200506C65617362
:100C500065207479706520612031206F7220322008
:100C6000666F72206D6F746F722073656C6563744C
:100C70002C207468656E20454E544552004E756DAB
:100C800062657220456E74657265643A20004E7527
:100C90006D62657220456E74657265643A202D0040
:100CA0002220003C2D2D20556E6B6E6F776E2063D9
:100CB0006F6D6D616E642E205479706520636F6D69
:100CC0006D616E642066726F6D206D656E752E00AD
:100CD000526573657474696E672041565200222014
:100CE000003C2D2D20556E6B6E6F776E20636F6DFF
:100CF0006D616E642E205479706520636F6D6D6137
:100D00006E642066726F6D206D656E752E00526583
:100D100073657474696E672041565200456E746540
:100D200072206E756D6265722C2031206F722032D8
:100D30002C20666F72206D6F746F722073656C6506
:100D40006374696F6E3A20004175746F6E6F6D6FDA
:100D50007573204D6F64653A2048414C54454400FA
:100D60004175746F6E6F6D6F7573204D6F64653A6A
:100D700020414354495645004F75747075742020C6
:100D800020202020202020203A2000466565646233
:100D900061636B20202020202020203A20007365F2
:100DA00074706F696E745F332020202020203A20F9
:100DB00000736572766F5F706F736974696F6E2010
:100DC000203A20004F757470757420202020202058
:100DD000202020203A2000466565646261636B2014
:100DE000202020202020203A2000736574706F6935
:100DF0006E745F322020202020203A2000205B7477
:100E000069636B735D0073685F6D6F746F725F32DF
:100E10005F73706565643A20004F75747075742057
:100E20002020202020202020203A200046656564D4
:100E30006261636B20202020202020203A20007354
:100E40006574706F696E745F312020202020203A15
:100E50002000205B7469636B735D0073685F6D6F66
:100E6000746F725F315F73706565643A200050493A
:100E7000442033206572726F720050494420322042
:100E80006572726F72005049442031206572726F32
:100E900072004572726F7220696E206765744575C5
:100EA0006C6572416E6700494D5520756E697473AB
:100EB0002073657400494D5520706F776572206D01
:100EC0006F64652073657400494D55206F706572BD
:100ED0006174696F6E206D6F64652073657400497D
:100EE0004D55206F626A65637420696E7469616C28
:100EF00020636F6D6D756E69636174696F6E2073C9
:100F0000756365737300494D55206F626A6563743C
:100F100020696E7469616C20636F6D6D756E6963B5
:100F20006174696F6E206572726F72004144435341
:100F300052413A200041444D55583A200041444323
:100F400030203D200041444331203D2000414443B6
:100F500032203D200041444333203D2000414443A2
:100F600034203D200041444335203D20004144438E
:100F700036203D200041444337203D20002D2D2DBB
:100F80002D2D2D2D2D204D45343035204C616220E6
:100F900035205374617274696E672050726F677286
:100FA000616D202D2D2D2D2D2D2D2D00202020206B
:100FB0003020322034203620382041204320450084
:100FC0004932432073656E642074696D656F757472
:100FD000004932432072652D73746172743A203077
:100FE0007800206E6F742030783130004E6F20739F
:100FF00068617265642064617461206974656D73F1
:1010000020746F207072696E74002D2D2D2D20209C
:10101000202020202020202020202D2D2D2D20209C
:1010200020202D2D2D2D2D2D2D2D2D2D00536861A2
:1010300072652F51756575652020202020547970C8
:101040006520202020467265652F546F74616C0006
:101050004552524F52206372656174696E67207405
:1010600061736B2022005461736B20220022206385
:101070007265617465642C20737461636B206174A4
:10108000203078005461736B3A20005461736B3ADE
:101090002049444C450049444C45090930092D0973
:1010A000002F0009092D002D2D2D2D09092D2D2D85
:1010B0002D092D2D2D2D2D00092D2D2D2D2D2D2DD5
:1010C0002D2D2D00092D2D2D2D004E616D65090949
:1010D0005072692E09537461746500094672656522
:1010E0002F546F74616C000952756E7300546173F4
:1010F0006B0909202009200009537461636B000902
:101100000009002F000900090020200011241FBE43
:10111000CFEFD1E2DEBFCDBF15E0A0E0B2E0E2E16B
:10112000FCE800E00BBF02C007900D92AC3BB1079A
:10113000D9F71DE1ACEBB5E001C01D92AC3AB107A7
:10114000E1F70E946B410C9407460C9400000F934A
:101150001F93CF93DF93EC010E94C93380E392E0A9
:1011600099838883DF91CF911F910F9108950F93F9
:101170001F93CF93DF93EC0166E08E819F810E94E5
:1011800087386BE08E819F810E9487388C0164E7ED
:1011900078E00E94423866E0C8010E9487386BE020
:1011A0008E819F810E9487388C016EE478E00E94D6
:1011B000423866E0C8010E9487386BE08E819F81CB
:1011C0000E9487388C0168E278E00E94423866E02D
:1011D000C8010E9487386BE08E819F810E9487380A
:1011E0008C016DE078E00E94423866E0C8010E9400
:1011F00087386BE08E819F810E9487388C016CEE6E
:1012000077E00E94423866E0C8010E9487386BE0B0
:101210008E819F810E9487388C016CEC77E00E9460
:10122000423866E0C8010E9487386BE08E819F815A
:101230000E9487388C0166EB77E00E94423866E0B6
:10124000C8010E9487386BE08E819F810E94873899
:101250008C0160E977E00E94423866E0C8010E9494
:1012600087386BE08E819F810E9487388C0160E710
:1012700077E00E94423866E0C8010E94873866E045
:101280008E819F81DF91CF911F910F910C948738B0
:101290000F931F93CF93DF93EC0166E08E819F81C4
:1012A0000E9487386BE08E819F810E9487388C0175
:1012B00061E477E00E94423866E0C8010E94873806
:1012C0006BE08E819F810E9487388C0168E177E016
:1012D0000E94423866E0C8010E9487386BE08E8128
:1012E0009F810E9487388C016FEE76E00E94423821
:1012F00066E0C8010E9487386BE08E819F810E9462
:1013000087388C0164EC76E00E94423866E0C801C0
:101310000E9487386BE08E819F810E9487388C0104
:1013200068E976E00E94423866E0C8010E9487388A
:101330006BE08E819F810E9487388C0162E776E0A6
:101340000E94423866E0C8010E9487386BE08E81B7
:101350009F810E9487388C0162E576E00E944238C6
:1013600066E0C8010E94873866E08E819F81DF9128
:10137000CF911F910F910C9487380F931F93CF93A8
:10138000DF93EC0166E08E819F810E9487386BE0DD
:101390008E819F810E9487388C0164E276E00E94F2
:1013A000423866E0C8010E9487386BE08E819F81D9
:1013B0000E9487388C0162E076E00E94423866E045
:1013C000C8010E9487386BE08E819F810E94873818
:1013D0008C016CED75E00E94423866E0C8010E9405
:1013E00087386BE08E819F810E9487388C016BEB80
:1013F00075E00E94423866E0C8010E9487386BE0C1
:101400008E819F810E9487388C0165E975E00E947A
:10141000423866E0C8010E9487386BE08E819F8168
:101420000E9487388C0165E775E00E94423866E0CB
:10143000C8010E94873866E08E819F81DF91CF913D
:101440001F910F910C9487380F931F93CF93DF93C5
:10145000EC0166E08E819F810E9487386BE08E816F
:101460009F810E9487388C0166E475E00E944238B3
:1014700066E0C8010E9487386BE08E819F810E94E0
:1014800087388C0169E175E00E94423866E0C80146
:101490000E9487386BE08E819F810E9487388C0183
:1014A0006CEE74E00E94423866E0C8010E94873802
:1014B0006BE08E819F810E9487388C0165ED74E01E
:1014C0000E94423866E0C8010E9487386BE08E8136
:1014D0009F810E9487388C016DEA74E00E94423837
:1014E00066E0C8010E9487386BE08E819F810E9470
:1014F00087388C0167E874E00E94423866E0C801D2
:101500000E9487386BE08E819F810E9487388C0112
:1015100067E674E00E94423866E0C8010E9487389E
:1015200066E08E819F81DF91CF911F910F910C9486
:1015300087380F931F93CF93DF93EC0166E08E8182
:101540009F810E9487386BE08E819F810E9487383F
:101550008C0168E374E00E94423866E0C8010E9492
:1015600087386BE08E819F810E9487388C016BEFFA
:1015700073E00E94423866E0C8010E9487386BE041
:101580008E819F810E9487388C016DED73E00E94EF
:10159000423866E0C8010E9487386BE08E819F81E7
:1015A0000E9487388C0167EB73E00E94423866E046
:1015B000C8010E9487386BE08E819F810E94873826
:1015C0008C0167E973E00E94423866E0C8010E941E
:1015D000873866E08E819F81DF91CF911F910F91B7
:1015E0000C9487380F931F93CF93DF93EC0166E041
:1015F0008E819F810E9487386BE08E819F810E943F
:1016000087388C0168E673E00E94423866E0C801C2
:101610000E9487386BE08E819F810E9487388C0101
:1016200063E473E00E94423866E0C8010E94873894
:101630006BE08E819F810E9487388C0169E273E0A4
:101640000E94423866E0C8010E9487386BE08E81B4
:101650009F810E9487388C0163E073E00E944238CA
:1016600066E0C8010E9487386BE08E819F810E94EE
:1016700087388C0163EE72E00E94423866E0C80150
:101680000E94873866E08E819F81DF91CF911F9104
:101690000F910C9487380F931F93CF93DF93EC0136
:1016A00066E08E819F810E9487386BE08E819F81EA
:1016B0000E9487388C016DEA72E00E94423866E031
:1016C000C8010E9487386BE08E819F810E94873815
:1016D0008C016DE872E00E94423866E0C8010E9409
:1016E00087386BE08E819F810E9487388C016CE681
:1016F00072E00E94423866E0C8010E9487386BE0C1
:101700008E819F810E9487388C0168E472E00E947C
:10171000423866E0C8010E9487386BE08E819F8165
:101720000E9487388C0162E272E00E94423866E0D3
:10173000C8010E9487386BE08E819F810E948738A4
:101740008C0162E072E00E94423866E0C8010E94AB
:10175000873866E08E819F81DF91CF911F910F9135
:101760000C9487380F931F93CF93DF93EC0166E0BF
:101770008E819F810E9487386BE08E819F810E94BD
:1017800087388C0162ED71E00E94423866E0C80142
:101790000E9487386BE08E819F810E9487388C0180
:1017A00066E971E00E94423866E0C8010E9487380D
:1017B0006BE08E819F810E9487388C0160E771E029
:1017C0000E94423866E0C8010E9487386BE08E8133
:1017D0009F810E9487388C0160E571E00E94423849
:1017E00066E0C8010E94873866E08E819F81DF91A4
:1017F000CF911F910F910C9487388F929F92AF9247
:10180000BF92CF92DF92EF92FF920F931F93CF93ED
:10181000DF9300D000D000D0CDB7DEB78C011982A5
:101820001A821B821C821E821D82C0902801D090C9
:1018300029010E947A285C01CE0101960E9473372B
:101840004C0166E0F801868197810E9487386BE041
:101850000E9487387C0164EF70E00E9442386BE0A0
:10186000C7010E9487387C0163E271E00E94423820
:1018700066E0C7010E9487386BE00E9487387C01D0
:101880006FE271E00E944238B401C7010E94123732
:101890006BE00E9487387C016DE371E00E94423862
:1018A000B501C7010E9437397C0165E172E00E94F1
:1018B000423848E357E160E070E0C7010E947139A7
:1018C0006BE00E9487387C0166E471E00E94423838
:1018D000B601C7010E94373966E00E94873866E08A
:1018E0000E948738F801868197810E94C43566E09E
:1018F000F801868197810E948738F8018681978157
:101900000E94843326960FB6F894DEBF0FBECDBF7B
:10191000DF91CF911F910F91FF90EF90DF90CF90CB
:10192000BF90AF909F908F900895CF93DF93CDB7E6
:10193000DEB727970FB6F894DEBF0FBECDBF8C0180
:1019400019821A821B821C821E821D820FB6F89495
:101950000F92E091F405F091F50510860F900FBEFF
:101960000E94B708312C212CB12CE12CF12CAA2497
:10197000A3944424439455245A94652C752CD8017F
:101980001C968C9190E088309105D8F06BE0F801BE
:10199000868197810E9487388C0162EA78E00E94F4
:1019A000423866E0C8010E9487382BE088E190E069
:1019B0000FB6F894A895809360000FBE2093600046
:1019C000FFCFFC01EA59FF4F0C948044F801868157
:1019D0009781DC01ED91FC910480F581E02D099562
:1019E00081110DC2F80186859785A089B18901967C
:1019F000A11DB11D86879787A08BB18B62E370E034
:101A000080E090E00E947A30BACFF8018681978119
:101A1000DC01ED91FC910480F581E02D099588238E
:101A200009F3F80186819781DC01ED91FC91068034
:101A3000F781E02D0995282F833609F448C20CF46C
:101A400029C28C3609F45BC2823709F0F2C1C801A1
:101A50000E94B708E9C1F80186819781DC01ED9108
:101A6000FC910480F581E02D0995882309F4BACF13
:101A7000F80186819781DC01ED91FC910680F78168
:101A8000E02D0995282F803709F496C20CF477C20F
:101A90008237E9F2833709F048C26BE0D801169625
:101AA0008D919C9117970E9487386C0167E37AE0CB
:101AB000C6010E94423866E0C6010E94873862E093
:101AC000C8010E947F3423E0B22E8CCFD801169635
:101AD0008D919C911797DC01ED91FC910480F5812B
:101AE000E02D0995882309F47DCFF801868197813F
:101AF000DC01ED91FC910680F781E02D0995282FFE
:101B0000863609F4D9C50CF08CC5833009F4B7C505
:101B1000823609F08CC50FB6F8940F92E091F40567
:101B2000F091F505B0840F900FBE6BE0D8011696CA
:101B30008D919C9117970E9487386C0160EC7AE038
:101B40000E9442386B2DC6010E94FB386C0161E295
:101B500072E00E94423866E0C6010E94873862E067
:101B6000C8010E947F3432E0B32E3CCFF801868159
:101B70009781DC01ED91FC910480F581E02D0995C0
:101B8000882309F4BFC3F80186819781DC01ED91B8
:101B9000FC910680F781E02D0995282F80ED820FBA
:101BA0008A3008F48CC32D3209F452C32F3709F45C
:101BB0001DC32A3009F444C32D3009F019C366E06F
:101BC00021102DC2F801868197810E9487386BE031
:101BD0000E9487386C016DE77CE0C6010E944238A4
:101BE000B701C6010E94CC3866E00E948738B11068
:101BF000EDC1C7010197029708F4D5C46BE0D80185
:101C000016968D919C9117970E9487387C016BE402
:101C10007CE0C7010E94423866E0C7010E94873815
:101C2000E12CF12CDFCEF80186819781DC01ED916A
:101C3000FC910480F581E02D0995882309F4D2CE2A
:101C4000F80186819781DC01ED91FC910680F78196
:101C5000E02D0995282F843609F465C60CF050C68E
:101C60008F3309F444C60CF422C6813609F4D5C575
:101C7000833609F0AAC5C8010E94F20A65E0C801CE
:101C80000E947F34AFCEF80186819781DC01ED910F
:101C9000FC910480F581E02D0995882309F4A2CEFA
:101CA000F80186819781DC01ED91FC910680F78136
:101CB000E02D0995282F823709F4C9CE0CF071C5A3
:101CC000833009F453C5843609F081C4D8011696CF
:101CD0008D919C9117970E94DE3484CEF801868105
:101CE0009781DC01ED91FC910480F581E02D09954F
:101CF000882309F477CEF80186819781DC01ED9184
:101D0000FC910680F781E02D0995282F0FB6F894F5
:101D10000F92E091F205F091F305808491840F9089
:101D20000FBE6BE0F801868197812F830E94873870
:101D30006C0166E179E00E944238B401C6010E945C
:101D4000CC3866E00E9487380FB6F8940F92E09185
:101D5000C605F091C70590840F900FBE6BE0D801C7
:101D600016968D919C9117970E9487386C016DEFA4
:101D700078E00E944238692DC6010E94B93966E0B8
:101D80000E94873866E0F801868197810E94873833
:101D90002F81243609F4CBC30CF47FC3233709F415
:101DA0004AC3273709F408C3223709F450CEF80193
:101DB000C680D780D601ED91FC910280F381E02DA1
:101DC00062E2C6012F830995D601ED91FC91028054
:101DD000F381E02D2F81622FC60109956BE0C601CA
:101DE0000E9487386C016FEB78E00E9442386BE00C
:101DF000C6010E9487386C0162EC78E043C0F801AC
:101E000086819781DC01ED91FC910680F781E02DC0
:101E10000995282F8C3641F00CF09EC2833009F4CE
:101E2000A7C3833609F09EC260E0C8010E947F34D8
:101E3000D9CDD8011696CD90DC901797D601ED91AB
:101E4000FC910280F381E02D62E2C6012F830995A7
:101E5000D601ED91FC910280F381E02D2F81622F5C
:101E6000C60109956BE0C6010E9487386C016FE6D8
:101E700079E00E9442386BE0C6010E9487386C010D
:101E800062E779E0C6010E94423866E0C6010E941E
:101E90008738A8CD833069F66BE0F8018681978199
:101EA0000E9487388C016FE979E00E94423866E031
:101EB000C8010E9487382BE088E190E00FB6F894C3
:101EC000A895809360000FBE20936000FFCF6BE069
:101ED000D80116968D919C9117970E9487386C01B6
:101EE0006DEA79E00E94423866E0C6010E948738B8
:101EF00062E0C8010E947F3484E0B82E73CD6BE0AD
:101F0000F801868197810E9487386C0163ED79E042
:101F10000E94423866E0C6010E94873862E0C8012C
:101F20000E947F3495E0B92E5DCDD8011696CD90F4
:101F3000DC901797D601ED91FC910280F381E02DA2
:101F400062E2C6012F830995D601ED91FC910280D2
:101F5000F381E02D2F81622FC60109956BE0C60148
:101F60000E9487386C0169EF79E00E9442386BE08B
:101F7000C6010E9487386C016CEF79E083CF833013
:101F8000A1F66BE0F801868197810E9487388C0169
:101F900069E27AE00E94423866E0C8010E94873810
:101FA0002BE088E190E00FB6F894A895809360004C
:101FB0000FBE20936000FFCF6BE0F8018681978110
:101FC0000E9487386C0169E57AE072CDB1E0BB16FA
:101FD00009F4C9C0B2E0BB1609F4A9C0B3E0BB164E
:101FE00009F454C0B4E0BB1641F1F5E0BF12FACCDD
:101FF00022EEE216F10408F078C00FB6F8940F92C2
:10200000E091C005F091C105E0860F900FBE65E03C
:10201000C8010E947F34B12CE12CF12CE3CCD80113
:1020200016968D919C9117970E9487386BE00E94BD
:1020300087386C016EE87CE0D0CDE2EEEE16F1045C
:1020400008F05FC00FB6F8940F92E091C205F091CE
:10205000C305E0860F900FBE6BE0D80116968D91F8
:102060009C9117970E9487387C0164E87BE00E946E
:10207000423866E0C7010E94873862E0C8010E94CA
:102080007F3445E0B42EE12CF12CACCCC7010F9786
:102090000F9708F040C00FB6F8940F92E091C60574
:1020A000F091C705E0860F900FBE0FB6F8940F921F
:1020B000E091C405F091C505A0860F900FBE0FB644
:1020C000F8940F920F900FBE61E0F801868197811E
:1020D0000E94B939C8010E94B70860E0C8010E9497
:1020E0007F34B12CE12CF12C7DCC6BE0D80116961D
:1020F0008D919C9117970E9487387C0160E27BE06C
:1021000088CD6BE0F801868197810E9487387C0139
:1021100062E57BE07ECD6BE0D80116968D919C91B7
:1021200017970E9487387C0162EB7BE072CDEFEF5E
:10213000EE16F10411F008F04DC00FB6F8940F92AE
:10214000E091EE05F091EF05F186E0860F900FBE6D
:102150000FB6F8940F92E091EC05F091ED05A08692
:102160000F900FBEB7CFEFEFEE16F10409F030F588
:10217000222019F0F194E194F1080FB6F8940F922F
:10218000E091F205F091F305F186E0860F900FBE25
:102190000FB6F8940F92E091F005F091F105A0864A
:1021A0000F900FBEC8010E94B70860E0C8010E94EE
:1021B0007F34212CB12CE12CF12C14CC6BE0D80114
:1021C00016968D919C9117970E9487387C0166E145
:1021D0007CE01FCD6BE0D80116968D919C911797EE
:1021E0000E9487387C0164EE7BE013CD31103EC045
:1021F000F801E680F780D701ED91FC910280F38130
:10220000E02D62E2C7012F830995D701ED91FC9182
:102210000280F381E02D2F81622FC70109956BE0C9
:10222000C7010E9487387C0160EF7AE00E94423843
:102230006BE0C7010E9487387C0163EF7AE0E9CC4C
:1022400067E172E0F801868197810E944238CACB2B
:10225000F80186819781DC01ED91FC910280F38188
:10226000E02D6DE2099522242394BCCBF8018681F0
:102270009781DC01ED91FC910280F381E02D6FE705
:102280000995F80186819781DC01ED91FC9102802E
:10229000F381E02D60E20995F80186819781DC01E8
:1022A000ED91FC910280F381E02D6FE70995C70164
:1022B0006AE070E00E942B447B013A9493CBF801D2
:1022C00086819781DC01ED91FC910280F381E02D04
:1022D000622F2F830995C701880F991FEE0CFF1CF1
:1022E000EE0CFF1CEE0CFF1C8E0D9F1D2F81E22EAD
:1022F000FF24E7FCF094B0E3EB1AF108E80EF91EB6
:10230000339470CB8091F6059091F705DC01ED9147
:10231000FC910480F581E02D0995882309F462CBB6
:10232000D8011696ED91FC9117970190F081E02D60
:10233000C280D3808091F6059091F705DC01ED9184
:10234000FC910680F781E02D0995682FF8018681C0
:102350009781F601099546CB803709F465CD823720
:1023600009F475CBD8011696CD90DC901797D6015D
:10237000ED91FC910280F381E02D62E2C6012F8392
:102380000995D601ED91FC910280F381E02D2F811A
:10239000622FC60109956BE0C6010E9487386C0167
:1023A00061E379E00E9442386BE0C6010E94873801
:1023B0006C0164E379E066CDE091D405F091D50538
:1023C0000FB6F8940F920F900FBE80859185A2856D
:1023D000B3854496A11DB11D0FB6F8940F92808766
:1023E0009187A287B3870F900FBE0FB6F8940F9214
:1023F0000F900FBE8F3F9105A105B1056CF00FB690
:10240000F8940F928FEF90E0A0E0B0E08087918782
:10241000A287B3870F900FBE0FB6F8940F92E0918A
:10242000CA05F091CB05A0860F900FBE67E0C801EA
:102430000E947F34D7CA0FB6F8940F920F900FBE48
:10244000E091F205F091F305808591854497AA27E4
:1024500097FDA095BA2FE091D205F091D3050FB664
:10246000F8940F9280879187A287B3870F900FBE51
:102470000FB6F8940F920F900FBE82309F4FAF4F60
:10248000BF4F0CF0C9CF0FB6F8940F92408651861B
:10249000628673860F900FBEBFCF233009F42AC027
:1024A000213609F084CCE091C605F091C7050FB63E
:1024B000F8940F920F900FBE80858F5F0FB6F8943F
:1024C0000F9280870F900FBE0FB6F8940F920F9067
:1024D0000FBE8D3138F00FB6F8940F928DE18087E2
:1024E0000F900FBE0FB6F8940F92E091C405F091D3
:1024F000C50599CF6BE0D80116968D919C911797E1
:102500000E9487388C016FEE78E00E94423866E0C6
:10251000C8010E9487382BE088E190E00FB6F8945C
:10252000A895809360000FBE20936000FFCFE091DC
:10253000C605F091C7050FB6F8940F920F900FBE25
:10254000808581500FB6F8940F9280870F900FBE50
:102550000FB6F8940F920F900FBE803108F0C2CFE3
:102560000FB6F8940F929FE090870F900FBEBACFEE
:102570006BE0F801868197810E9487388C0161E6C3
:1025800079E00E94423866E0C8010E9487382BE05B
:1025900088E190E00FB6F894A895809360000FBE94
:1025A00020936000FFCF0FB6F8940F92E091F405EE
:1025B000F091F505E0860F900FBEC8010E94240A35
:1025C00063E0C8010E947F34E12CF12C0BCAD801D2
:1025D0001696CD90DC901797D601ED91FC91028074
:1025E000F381E02D62E2C6012F830995D601ED91BA
:1025F000FC910280F381E02D2F81622FC6010995A5
:102600006BE0C6010E9487386C0160EA7CE00E94A2
:1026100042386BE0C6010E9487386C0163EA7CE0B7
:1026200031CC803709F479C0823709F410CAF80137
:10263000C680D780D601ED91FC910280F381E02D18
:1026400062E2C6012F830995D601ED91FC910280CB
:10265000F381E02D2F81622FC60109956BE0C60141
:102660000E9487386C0162E77AE00E9442386BE092
:10267000C6010E9487386C0165E77AE003CC6BE005
:10268000D80116968D919C9117970E9487388C01DE
:1026900062EA7AE00E94423866E0C8010E94873808
:1026A0002BE088E190E00FB6F894A8958093600045
:1026B0000FBE20936000FFCF0FB6F8940F92E09109
:1026C000EA05F091EB05A0860F900FBE0FB6F894C7
:1026D0000F92E091F405F091F50590840F900FBEF4
:1026E0006BE0F801868197810E9487386C0160EB6E
:1026F0007AE00E944238692DC6010E94FB386BE0E7
:102700000E9487386C0167EB7AE0C6010E9442386C
:1027100066E0C6010E9487389AC90FB6F8940F92F6
:10272000E091F405F091F505B0840F900FBE6BE0D9
:10273000F801868197810E9487386C0168ED7AE004
:102740000E9442386B2DC6010E94FB386C0169E182
:1027500072E00E94423866E0C6010E94873862E05B
:10276000C8010E947F34BB24B3943CC96BE0F801DC
:10277000868197810E9487388C0160ED7CE00E9401
:10278000423866E0C8010E9487382BE088E190E07B
:102790000FB6F894A895809360000FBE2093600058
:1027A000FFCF833709F460C0843709F010CFCE0122
:1027B00001960E947337BC01F801868197810E94BF
:1027C000123766E00E9487380DC9F801C680D780AD
:1027D000D601ED91FC910280F381E02D62E2C60109
:1027E0002F830995D601ED91FC910280F381E02DB4
:1027F0002F81622FC60109956BE0C6010E948738C0
:102800006C016EED7CE00E9442386BE0C6010E94D4
:1028100087386C0161EE7CE035CBE091CA05F09120
:10282000CB050FB6F8940F9280850F900FBE8823CA
:1028300001F10FB6F8940F920F900FBE813011F096
:102840000C94F20C0FB6F8940F9210860F900FBEF6
:102850006BE0D80116968D919C9117970E9487384E
:102860006C0168E47DE051CFC8010E94FD0B0C941F
:10287000F20C0FB6F8940F92A0860F900FBE6BE08B
:10288000F801868197810E9487386C0160E67DE0BF
:102890000E94423866E0C6010E948738C8010E9443
:1028A000B20B64E0C8010E947F340C94F20C8330B8
:1028B00009F08BCF6BE0D80116968D919C911797FC
:1028C0000E9487388C016EE07DE00E94423866E00D
:1028D000C8010E9487382BE088E190E00FB6F89499
:1028E000A895809360000FBE20936000FFCFC801C1
:1028F0000E94BD0961E0C8010E947F340C94F20C73
:102900008D36A9F144F1823711F40C94270D8337E9
:1029100009F05BCFC8010E94990A64E0C8010E94D7
:102920007F340C94F20CC8010E9448090FB6F89449
:102930000F92E091F005F091F10523E020870F90D0
:102940000FBE0FB6F8940F92E091C405F091C50543
:1029500082E0808769CD883609F037CFC8010E94B0
:102960004B0B66E0C8010E947F340C94F20C6BE0C4
:10297000F801868197810E9487387C016CE17DE0B7
:102980000E94423866E0C7010E9487380FB6F8946B
:102990000F92E091F405F091F50510860F900FBEAF
:1029A00062E0C8010E947F34B12CE12CF12C0C9420
:1029B000F20CEC0183E090E00E940B388C016E81F8
:1029C0007F8141E00E94471B83E090E00E940B382A
:1029D0007C016E817F8142E00E94471BE091F005FF
:1029E000F091F1050FB6F8940F9210860F900FBE7C
:1029F00080E037C00FB6F8940F920F900FBE823070
:102A000009F4A9C00FB6F8940F920F900FBE83304F
:102A100009F4BEC0E091EC05F091ED050FB6F89415
:102A20000F920F900FBE8085813009F46CC0A09189
:102A3000EA05B091EB050FB6F8940F920F900FBE18
:102A400018968C911897813009F430C064E670E0D4
:102A500080E090E00E947A30E091F005F091F1057D
:102A600080850FB6F8940F920F900FBE813009F059
:102A7000C1CF0FB6F8940F92A091F405B091F5056F
:102A800018968C910F900FBE813009F498C00FB644
:102A9000F8940F920F900FBE823009F4D3C00FB696
:102AA000F8940F9210860F900FBEB4CF0FB6F89423
:102AB0000F92C091F405D091F50588850F900FBE57
:102AC000813009F470C00FB6F8940F920F900FBECA
:102AD000823009F4ABC00FB6F8940F92C091F005A4
:102AE000D091F10518860F900FBE0FB6F8940F9293
:102AF00010860F900FBE0FB6F8940F9218961C9286
:102B00000F900FBEA3CF0FB6F8940F92A091F405CB
:102B1000B091F50518968C910F900FBE813009F495
:102B200061C00FB6F8940F920F900FBE823009F477
:102B30006BC00FB6F8940F92A091F005B091F1051B
:102B400018961C920F900FBE0FB6F8940F92108635
:102B50000F900FBE6CCF0FB6F8940F920F900FBE70
:102B6000E091F205F091F30560857185C8010E943E
:102B7000831B0FB6F8940F920F900FBEE091F205F1
:102B8000F091F30560857185C7010E94831B42CFD8
:102B900060E070E0C8010E94831B60E070E0C70144
:102BA0000E94831B37CFC8010E94B21BA091EA0587
:102BB000B091EB05E091EC05F091ED058CCF0FB6EF
:102BC000F8940F920F900FBEE091F205F091F3058B
:102BD00060857185C8010E94831BE091F005F0912A
:102BE000F1055DCF0FB6F8940F920F900FBEE091F4
:102BF000EE05F091EF056085C8010E94C21BE091CF
:102C0000EC05F091ED0595CF0FB6F8940F920F906B
:102C10000FBEE091EE05F091EF056085C7010E94BF
:102C2000C21BE091EC05F091ED0583CFC7010E9436
:102C3000B21BA091EA05B091EB05E091EC05F09193
:102C4000ED0549CF0FB6F8940F920F900FBEE091AB
:102C5000F205F091F30560857185C7010E94831B21
:102C6000E091F005F091F1051ACF0F931F93CF93E8
:102C7000DF93EC010E94C93388E392E09983888353
:102C8000DF91CF911F910F910895CF93DF9300D0E3
:102C900000D0CDB7DEB78C0182E090E00E940B3807
:102CA0005C01F8016681778147E00E94DB1B82E0CE
:102CB00090E00E940B386C01F8016681778145E055
:102CC0000E94DB1B812C912C40E050E0E091E80554
:102CD000F091E9050FB6F8940F92808591859C8359
:102CE0008B830F900FBEEB80FC80E091E605F091A6
:102CF000E7050FB6F8940F92808591859A838983B2
:102D00000F900FBE09811A81B701C5010E94821C74
:102D1000E091DC05F091DD050FB6F8940F92718714
:102D200060870F900FBEA401B801C6010E94821CEB
:102D3000E091DA05F091DB050FB6F8940F927187F8
:102D400060870F900FBE65E070E080E090E00E9429
:102D50007A30A7014801BACF0F931F93CF93DF9327
:102D6000EC010E94C93380E492E099838883DF916B
:102D7000CF911F910F910895CF93DF93CDB7DEB719
:102D8000C054D1090FB6F894DEBF0FBECDBF2C01E1
:102D900082E090E00E940B38F201668177810E9408
:102DA000CE1E0E94732E68A779A78AA79BA78FE1E2
:102DB00090E00E940B381C01F201668177810E942D
:102DC000C6208FE190E00E940B389DAF8CAFF201DE
:102DD000668177810E94C6208FE190E00E940B38C7
:102DE0009FAF8EAFF201668177810E94C620E0918D
:102DF000DC05F091DD050FB6F8940F921186108670
:102E00000F900FBE0FB6F8940F92E091D405F09199
:102E1000D50510861186128613860F900FBE82E0AC
:102E20008B8F80E0B82E8C8F84E08D8F80E091E0D6
:102E3000D82E8E8F9F8F19A218A2182F8AA39BA31A
:102E400081E0382F8CA38FEF8DA3582F8EA31FA264
:102E500072E0A72EE4E0CE2EEE24E394F12C09A13B
:102E600021E04FEF60E0C1010E940021E091DA050E
:102E7000F091DB050FB6F8940F92118610860F9033
:102E80000FBE0FB6F8940F92E091D205F091D305E2
:102E900010861186128613860F900FBEF2E06F2EF9
:102EA0006E86812C74E0B82C8F86788B912C7724D9
:102EB0007394D92C998A7A8A1C8A1B8A192D9D8A27
:102EC0007E8A81E0382F8F8B8FEF888F582F898FE4
:102ED0001A8E0C8921E04FEF60E08CAD9DAD2196FC
:102EE0007FAF21970E94002169828A8221967FAD5F
:102EF00021977B839C827D821F821E8298867986A1
:102F00008FE0382F8A871B868DE1582F8C871D868E
:102F1000C72E0F8121E040E060E08EAD9FAD0E94A2
:102F20000021A7EACA2ED12CE12CF12C15C0F20108
:102F300086859785A089B1890196A11DB11DF201F1
:102F400086879787A08BB18B45E050E060E070E00A
:102F5000CE0188960E9413300FB6F8940F920F900E
:102F60000FBEE091CA05F091CB0580858130F9F65E
:102F70000FB6F8940F92E091D405F091D5054085F5
:102F80000F900FBE842E88E2840F813508F4ABC009
:102F900047FD5FC2442309F44CC2E091DC05F09187
:102FA000DD050FB6F8940F92808591859FAB8EABAF
:102FB0000F900FBE6EA97FA948E250E0C1010E94A8
:102FC00038220FB6F8940F92E091D005F091D10518
:102FD000918780870F900FBE58E2852E0FB6F89428
:102FE0000F92E091D205F091D30540850F900FBE6E
:102FF000B42E88E2840F813508F4D9C147FD61C23F
:10300000442309F406C2E091DA05F091DB050FB61E
:10301000F8940F928085918599AB88AB0F900FBE85
:1030200068A979A948E250E08CAD9DAD0E94382294
:103030000FB6F8940F92E091CE05F091CF059187ED
:1030400080870F900FBE38E2B32E0FB6F8940F9220
:10305000E091C605F091C70540850F900FBE942EF4
:103060000FB6F8940F920F900FBEE091BC05F0914F
:10307000BD05808590E06CE070E00E942B442FE05D
:10308000A22EA60E83E0840F873008F47BC147FD93
:1030900002C2442309F4ADC16A2D70E043E050E060
:1030A0008EAD9FAD0E9438220FB6F8940F92E0913A
:1030B000CC05F091CD05918780870F900FBE83E0FE
:1030C000982EF2016684778400891189B301C801C2
:1030D000A70196010E943F44672B682B692B21F1C1
:1030E000C301D80129CFE091DC05F091DD050FB6D1
:1030F000F8940F92808591859BAF8AAF0F900FBE99
:103100006AAD7BAD552747FD5095C1010E9438221D
:103110000FB6F8940F92E091D005F091D105918708
:1031200080870F900FBE5ACFE091DC05F091DD054E
:103130000FB6F8940F92808591859FA78EA70F9068
:103140000FBE6EA47FA46BE0F201868197810E947E
:1031500087388C016BE57EE00E944238B301C801DC
:103160000E94CC3866E00E9487386BE0F2018681CD
:1031700097810E9487388C016FE37EE00E9442387D
:10318000682DC8010E94FB386BE00E9487388C01D3
:1031900062E57EE00E94423866E0C8010E948738FE
:1031A000C1010E9455213C016BE0F20186819781AB
:1031B0000E9487388C016CE27EE00E944238B301A5
:1031C000C8010E94CC3866E00E948738C1010E9485
:1031D00059213C016BE0F201868197810E9487387A
:1031E0008C0169E17EE00E944238B301C8010E946F
:1031F000CC3866E00E94873866E00E948738E0910C
:10320000DA05F091DB050FB6F8940F928085918571
:103210009DA78CA70F900FBE6CA47DA46BE0F2015C
:10322000868197810E9487388C0166E07EE00E944B
:103230004238B301C8010E94CC3866E00E9487384A
:103240006BE0F201868197810E9487388C016AEEDB
:103250007DE00E9442386B2DC8010E94FB386BE074
:103260000E9487388C016DEF7DE00E94423866E055
:10327000C8010E9487388CAD9DAD0E9455218C01FC
:103280006BE0F201868197810E9487383C0167EDEF
:103290007DE00E944238B801C3010E94CC3866E04C
:1032A0000E9487388CAD9DAD0E9459218C016BE046
:1032B000F201868197810E9487383C0164EC7DE0B1
:1032C0000E944238B801C3010E94CC3866E00E94D7
:1032D000873866E00E9487386BE0F201868197812B
:1032E0000E9487388C0161EB7DE00E9442386A2D94
:1032F000C8010E94FB3866E00E9487386BE0F2014B
:10330000868197810E9487388C016EE97DE00E945A
:103310004238692DC8010E94FB3866E00E94873858
:103320008EAD9FAD0E9455215C016BE0F20186815C
:1033300097810E9487388C016BE87DE00E944238BB
:10334000B501C8010E94CC3866E00E9487388EAD76
:103350009FAD0E9459215C016BE0F201868197814B
:103360000E9487388C0168E77DE00E944238B501F1
:10337000C8010E94CC3866E00E94873866E00E944F
:103380008738D5CD552747FD50956A2D70E08EAD15
:103390009FAD0E9438220FB6F8940F92E091CC05B1
:1033A000F091CD05918780870F900FBE8ACEE09176
:1033B000DA05F091DB050FB6F8940F9280859185C0
:1033C0009DAB8CAB0F900FBE6CA97DA9552747FD17
:1033D00050958CAD9DAD0E9438220FB6F8940F9297
:1033E000E091CE05F091CF05918780870F900FBEB9
:1033F0002CCE6BE0F201868197810E9487388C0188
:103400006EE67EE00E94423866E0C8010E9487387E
:1034100058CE6BE0F201868197810E9487388C013B
:103420006AE77EE00E94423866E0C8010E94873861
:103430000CCE6BE0F201868197810E9487388C0167
:1034400066E87EE00E94423866E0C8010E94873844
:10345000C5CDE091DC05F091DD050FB6F8940F9233
:103460008085918599AF88AF0F900FBE68AD79AD1B
:1034700048ED5FEFC1010E9438220FB6F8940F9219
:10348000E091D005F091D105918780870F900FBE14
:1034900068ED862EA3CD6A2D70E04DEF5FEF8EAD07
:1034A0009FAD0E9438220FB6F8940F92E091CC05A0
:1034B000F091CD05918780870F900FBE9DEF992EDB
:1034C00000CEE091DA05F091DB050FB6F8940F928B
:1034D000808591859BAB8AAB0F900FBE6AA97BA9B3
:1034E00048ED5FEF8CAD9DAD0E9438220FB6F89489
:1034F0000F92E091CE05F091CF05918780870F90D4
:103500000FBE48EDB42EA1CD0F931F93CF93DF9341
:10351000EC010E94C93388E492E099838883DF91AB
:10352000CF911F910F9108956C0182E090E00E946D
:103530000B387C01F601668177810E94CE1E82E005
:1035400090E00E940B388C01F601668177810E9421
:10355000CE1E84E090E00E940B38EC01F6016681FB
:1035600077810E940C1E4AE061E0C7010E94011FA2
:103570004AE062E0C8010E94011FCE010E944F1E76
:1035800061E0CE010E94601ED82E62E0CE010E9452
:10359000601E63E0CE010E94601EE091BE05F091C6
:1035A000BF050FB6F8940F9280850F900FBE0FB62F
:1035B000F8940F92D0860F900FBE0FB6F8940F922A
:1035C0000F900FBE0FB6F8940F92E091BC05F091EA
:1035D000BD05D81AD0860F900FBE64E170E080E080
:1035E00090E00E947A30BFCF0F931F93CF93DF9369
:1035F000EC010E94C93380E592E099838883DF91D2
:10360000CF911F910F9108958C0182E090E00E946C
:103610000B38EC01F801668177810E94B51E0FB668
:10362000F8940F92E091C605F091C70586E1808776
:103630000F900FBE0FB6F8940F920F900FBE66E179
:10364000CE010E94C21E0FB6F8940F920F900FBECB
:10365000E091C605F091C7056085CE010E94C21EAB
:103660006AE070E080E090E00E947A30ECCF0F9347
:103670001F93CF93DF93EC010E94C93388E592E05A
:1036800099838883DF91CF911F910F910895CF93F4
:10369000DF93FC0171836083428380918000816AA3
:1036A00080938000809180008093800080918100D1
:1036B0008A60809381008091810080938100828163
:1036C000813089F08230B9F0C081D181209781F0BA
:1036D0006CE572E0CE010E94423866E0CE01DF91D7
:1036E000CF910C94873887B1876087B9329A269A30
:1036F000DF91CF9108958AB1806E8AB94F9A259A49
:10370000DF91CF910895FC012281213071F02230A8
:1037100009F0089577FD18C08BB18BB95E985D9A5A
:103720007093890060938800089528B128B977FDC7
:1037300013C04198409A70938B0060938A00FC01FB
:103740008281823049F308958BB18BB95E9A5D987E
:10375000719561957109E4CF419A40987195619591
:103760007109E9CFFC012281213039F0223009F0C2
:1037700008958BB180668BB9089528B1236028B96C
:103780002281F4CFFC012281213059F0223009F04E
:1037900008958BB18BB970E07093890060938800B5
:1037A000089528B128B9262F30E030938B0020935C
:1037B0008A002281EBCFCF93DF93E091E805F0916F
:1037C000E9050FB6F8940F92118610860F900FBE80
:1037D000E091E605F091E7050FB6F8940F92118697
:1037E00010860F900FBEE091E405F091E5050FB64D
:1037F000F8940F9210860F900FBEE091E205F091C1
:10380000E3050FB6F8940F9210860F900FBEE0916B
:10381000E005F091E1050FB6F8940F9210860F9035
:103820000FBEE091DE05F091DF050FB6F8940F9220
:1038300010860F900FBE60916A00242F30E081E067
:1038400090E0FC01042E01C0EE0F0A94EAF75E2F0F
:103850005095562350936A0050916A00B901615007
:103860007109DC0102C0AA0FBB1F6A95E2F7BD0116
:103870005A2B50936A0050916A00D9011297EC01BB
:1038800002C0CC0FDD1FAA95E2F7DE01A095A523AB
:10389000A0936A0050916A00D9011397EC0102C00D
:1038A000CC0FDD1FAA95E2F75C2B50936A004730DE
:1038B00011F1433049F08DB18F708DB98EB1806FA9
:1038C0008EB9DF91CF9108956DB3A9014E5F5F4F1F
:1038D000FC0102C0EE0FFF1F4A95E2F76E2B6DBB95
:1038E0004DB32F5F3F4F022E01C0880F0A94EAF7B5
:1038F000482B4DBBE0CF8DB38E2B8DBB8DB3862B6C
:103900008DBBD9CF461B570BBA0180E090E00895DC
:103910001F920F920FB60F9211240BB60F928F9336
:103920009F93AF93BF93EF93FF93CF93DF93CDB765
:10393000DEB72597DEBFCDBFE091E205F091E3054C
:103940000FB6F8940F9280858D830F900FBE8D81F6
:10395000A091E405B091E5050FB6F8940F92189682
:103960008C9318970F900FBE9CB18CB180729071A0
:10397000892B90E095958795959587959595879551
:10398000959587950FB6F8940F9280870F900FBE8C
:1039900018968C91813009F454C008F442C08230EA
:1039A00039F1833089F48085813009F451C08085F4
:1039B000823009F03CC0E091E805F091E90580858E
:1039C00091850197918780870F900F900F900F90AE
:1039D0000F90DF91CF91FF91EF91BF91AF919F91A8
:1039E0008F910F900BBE0F900FBE0F901F901895E8
:1039F0008085833069F18085811119C0E091E805E7
:103A0000F091E9050FB6F8940F92808591859A831D
:103A100089830F900FBE89819A8101979187808752
:103A2000D3CF80858230A1F080858130D9F0E091BC
:103A3000D805F091D9058085918501969187808779
:103A4000C3CF8085882321F08085833081F7B3CF71
:103A5000E091E805F091E9058085918501969187CF
:103A60008087B2CFE091E805F091E9050FB6F894B0
:103A70000F92808591859C838B830F900FBE8B81E5
:103A80009C810197918780879FCF0C94881C1F92FF
:103A90000F920FB60F9211240BB60F928F939F9334
:103AA000AF93BF93EF93FF93E091DE05F091DF05B5
:103AB0008085A091E005B091E10518968C93189748
:103AC0009CB18CB180789074892B90E0082E892F5E
:103AD000000C881F990B000C881F991F808718966F
:103AE0008C918130C1F138F1823049F08330B1F4EA
:103AF00080858130B9F18085823019F506C08085D6
:103B0000833081F1808581111CC0E091E605F09140
:103B1000E70580859185019791878087FF91EF91D7
:103B2000BF91AF919F918F910F900BBE0F900FBEE1
:103B30000F901F90189580858230A1F0808581308C
:103B400021F3E091D605F091D70580859185019606
:103B500091878087E3CF8085882321F0808583301B
:103B600081F7D3CFE091E605F091E7058085918557
:103B7000019691878087D2CF0C94471DCF93DF9316
:103B8000EC01262F4DE360E58A819B810E94092686
:103B90006BE0888199810E948738EC0168EC7EE0B7
:103BA0000E94423866E0CE01DF91CF910C948738B5
:103BB000CF93DF93EC01262F4EE360E58A819B8152
:103BC0000E9409266BE0888199810E948738EC0168
:103BD00065EB7EE00E94423866E0CE01DF91CF9136
:103BE0000C948738CF93DF93EC0120E04BE360E542
:103BF0008A819B810E9409266BE0888199810E94BD
:103C00008738EC0167EA7EE00E94423866E0CE0128
:103C1000DF91CF910C9487380F931F93CF93DF934D
:103C2000EC017983688384E090E00E940B388C017A
:103C3000688179810E948A231B830A8340E060E5C2
:103C4000C8010E9478246BE0803A09F1888199814B
:103C50000E9487388C0166E07FE0C8010E944238EC
:103C600066E0C8010E94873860E0CE010E94BE1D58
:103C700060E0CE010E94D81DCE010E94F21D6CE0D2
:103C8000CE01DF91CF911F910F910C94BE1D8881C1
:103C900099810E9487388C016FED7EE0DECFCF9353
:103CA000DF93EC0149E360E58A819B810E947824DF
:103CB00046E360E58A819B81DF91CF910C94782463
:103CC0001F93CF93DF93EC016130D1F1623009F49F
:103CD00040C06330A1F06BE0888199810E948738F1
:103CE000EC0162E97EE00E94423866E0CE010E946B
:103CF000873880E090E0DF91CF911F9108954FE1E8
:103D000060E58A819B810E947824182F4EE160E54E
:103D10008A819B810E947824212F30E0322F222734
:103D2000282B37FD1FC0C9019595879595958795D7
:103D30009595879595958795DF91CF911F910895DA
:103D40004BE160E58A819B810E947824182F4AE12B
:103D5000DECF4DE160E58A819B810E947824182F97
:103D60004CE1D5CF215F3F4FDECF84B5836884BD62
:103D700084B58F7B84BD85B585BD85B5856085BDE2
:103D8000279A08956F3038F06E3110F467BD0895AA
:103D90006DE167BD08956FE067BD0895FC01718313
:103DA0006083EAE7F0E080818068808380818160C1
:103DB000808380818D7F8083808184608083ECE735
:103DC000F0E080818064808380818F778083089594
:103DD00080917C00887F80937C0080917C0067705C
:103DE000682B60937C0080917A00806480937A00D5
:103DF00080917A0086FDFCCF8091780090917900C7
:103E00000895403430F1ECE3F0E04CE3677080E07B
:103E100090E020917C00287F20937C0020917C0002
:103E2000262B20937C0020917A00206420937A0036
:103E300020917A0026FDFCCF209178003091790006
:103E4000820F931F415029F7BF010E941744CB01F5
:103E50000895442319F0E42FF0E0D8CFE0E0F0E03B
:103E600080E090E0BF010E941744CB0108952F929B
:103E70003F924F925F926F927F928F929F92AF92FA
:103E8000BF92CF92DF92EF92FF920F931F93CF9347
:103E9000DF9300D000D000D0CDB7DEB79E838D83F6
:103EA00080917C00887F80937C0080917C0087607B
:103EB00080937C0080917A00806480937A00809166
:103EC0007A0086FDFCCF20917800309179008091B6
:103ED0007C00887F80937C0080917C00866080934A
:103EE0007C0080917A00806480937A0080917A00CF
:103EF00086FDFCCF209078003090790080917C0086
:103F0000887F80937C0080917C00856080937C001A
:103F100080917A00806480937A0080917A0086FD97
:103F2000FCCF409078005090790080917C00887F91
:103F300080937C0080917C00846080937C008091E1
:103F40007A00806480937A0080917A0086FDFCCFAD
:103F5000009178001091790080917C00887F809397
:103F60007C0080917C00836080937C0080917A004B
:103F7000806480937A0080917A0086FDFCCFE09087
:103F80007800F090790080917C00887F80937C009D
:103F900080917C00826080937C0080917A008064B4
:103FA00080937A0080917A0086FDFCCFC0907800E3
:103FB000D090790080917C00887F80937C008091F4
:103FC0007C00816080937C0080917A008064809383
:103FD0007A0080917A0086FDFCCFA0907800B090A6
:103FE000790080917C00887F80937C0080917C00A8
:103FF00080937C0080917A00806480937A00809125
:104000007A0086FDFCCF80907800909079004091F6
:104010007C0050917A006BE08D819E812B833C83E4
:104020004A8359830E9487383C016CE27FE00E94FA
:1040300042385981652FC3010E94B93966E00E9458
:1040400087386BE00E9487383C0165E37FE00E947F
:1040500042384A81642FC3010E94B93966E00E9448
:1040600087386BE00E9487383C016DE37FE00E9457
:104070004238B401C3010E94373966E00E94873894
:104080006BE00E9487384C0165E47FE00E94423873
:10409000B501C4010E94373966E00E9487386BE0A1
:1040A0000E9487385C016DE47FE00E944238B601CF
:1040B000C5010E94373966E00E9487386BE00E9494
:1040C00087386C0165E57FE00E944238B701C60180
:1040D0000E94373966E00E9487386BE00E9487387B
:1040E0007C016DE57FE00E944238B801C7010E9463
:1040F000373966E00E9487386BE00E9487388C0170
:1041000065E67FE00E944238B201C8010E9437395B
:1041100066E00E9487386BE00E9487388C016DE66C
:104120007FE00E944238B101C8010E94373966E041
:104130000E9487386BE00E9487388C0165E77FE03A
:104140000E9442382B813C81B901C8010E94373955
:1041500066E00E9487388D819E8126960FB6F8947E
:10416000DEBF0FBECDBFDF91CF911F910F91FF90AA
:10417000EF90DF90CF90BF90AF909F908F907F9007
:104180006F905F904F903F902F900895CF93DF9363
:10419000EC01DC016D937D938DE0E8E0F2E00190AD
:1041A0000D928A95E1F7188A1F861A8A198A1C8A45
:1041B0001B8A1E8A1D8A188E1F8A1C8E1B8EDF91F9
:1041C000CF910895FC016283148E138E0895CF93CE
:1041D000DF93EC01CB016F857889788F6F8B988B9B
:1041E0008F870E940F239A8F898FDF91CF91089537
:1041F000FC01728B618B0895FC01748B638B0895B5
:10420000AF92BF92CF92DF92EF92FF920F931F93E4
:10421000CF93DF93CDB7DEB72D970FB6F894DEBFFF
:104220000FBECDBFA982BA82CB82DC82ED82FE8234
:104230000F83188729873A874B875C876D872DE026
:10424000FE013196DC01129601900D922A95E1F75C
:10425000FC01148E138E2D960FB6F894DEBF0FBEA0
:10426000CDBFDF91CF911F910F91FF90EF90DF9025
:10427000CF90BF90AF900895FC017483638308953D
:10428000FC01768365830895FC0170876783089538
:10429000FC01728761870895FC01748763875687E4
:1042A00045870895FC0182810895FC0187859089E6
:1042B0000895FC01818992890895FC01838994897C
:1042C00008952DE0FB013296DC0101900D922A95B4
:1042D000E1F70895FC01858196810895FC018381B1
:1042E00094810895FC01878190850895FC01818562
:1042F00092850895FC01838594850895FC01858548
:10430000968508950F931F93CF93DF93EC018F85CC
:1043100098892B893C89821B930B9E8B8D8B6D8D8D
:104320007E8D89859A850E94592340E054E00E9441
:104330006B238C016D897E898B8D9C8D0E94F2226E
:10434000B8010E940F239C8F8B8F8A81833009F4E0
:1043500072C090F5813009F463C0823009F044C026
:104360006D897E898B819C810E94592340E054E0B5
:104370000E946B238C016B8D7C8D8D819E810E94B0
:10438000592340E054E00E946B23B8010E94F222BE
:104390006D857E8568177907D4F06B857C858617D7
:1043A00097070CF458C01E8E1D8E9A8B898BDF9157
:1043B000CF911F910F9108958430C9F08530A1F4F9
:1043C00089899A896D857E856817790734F70E94F7
:1043D0000F239E8F8D8F8D859E85898B9A8BDF9184
:1043E000CF911F910F91089580E090E0D1CF6D891A
:1043F0007E898B819C810E94592340E054E00E9479
:104400006B238C01698D7A8D8F8198850E94592349
:1044100040E054E00E946B23B8010E94F222AACF30
:104420006D897E898B819C810E94592340E054E0F4
:104430000E946B23ADCF6D897E898B819C810E9408
:10444000592340E054E00E946B238C01698D7A8DE2
:104450008F81988594CF0E940F239E8F8D8F8B859F
:104460009C85898B9A8BDF91CF911F910F91089535
:104470000F931F93CF93DF93EC01CB018A016F85DC
:104480007889788F6F8B988B8F870E940F239A8FF4
:10449000898F1C8B0B8BCE01DF91CF911F910F91D8
:1044A0000C9482214F925F926F927F928F929F9293
:1044B000AF92BF92CF92DF92EF92FF920F931F9332
:1044C000CF93DF93EC01FB014184528467807084B9
:1044D00003811481E580F680C584D684A384B484E6
:1044E0008280912C6DE872E00E94423862E0CE0139
:1044F0000E948738B4010E94CC3866E00E94873859
:104500004C0168E972E00E94423862E0C4010E94F6
:104510008738B5010E94CC385C0165EA72E00E94E0
:10452000423862E0C5010E948738B6010E94CC384B
:1045300066E00E9487386C016AEA72E00E944238A5
:1045400066E0C6010E9487386C0161EB72E00E9450
:10455000423862E0C6010E948738B7010E94CC3819
:1045600066E00E9487387C016DEB72E00E94423861
:1045700062E0C7010E948738B8010E94CC3866E02B
:104580000E9487388C0169EC72E00E94423862E038
:10459000C8010E948738B3010E94CC3866E00E94AF
:1045A00087388C0165ED72E00E94423862E0C801F4
:1045B0000E948738B2010E94CC3866E00E9487389A
:1045C000CE01DF91CF911F910F91FF90EF90DF907F
:1045D000CF90BF90AF909F908F907F906F905F90A3
:1045E0004F9008959C01432F4095441F4427441F3A
:1045F00080E090E8841B9109AC01421B530BE1E081
:10460000461757070CF0E0E0432F4095441F44271E
:10461000441FE41719F0C901860F971F08958617E4
:10462000970799F1611520E8720741F1719561953D
:104630007109492F4095441F4427441F20E030E86A
:10464000241B3109A901481B590BE1E04617570704
:1046500064F4492F4095441F4427441FE41719F080
:10466000860F971F0895C9010895E0E0492F4095EE
:10467000441F4427441FE417B1F3F2CF97FD03C052
:104680006FEF7FE7D6CF0196FBCF80E090E00895F3
:10469000811520E8920729F09C0197FD05C0C9010A
:1046A00008958FEF9FE70895319521953109C9014C
:1046B0000895811520E8920729F09C01DB010E94F2
:1046C000DE430895611520E87207B9F76FEF7FEFB9
:1046D0008FEF9FE708959A01442737FD4095542FA7
:1046E0000E946144211580E838074105510524F0F6
:1046F0002FEF3FE740E050E0DA01C901811520E8E3
:1047000092072FEFA207B20724F480E090E8AFEF02
:10471000BFEF0895CF93DF93EC017983688388E43A
:104720008093B80081E00E947A2A9B838A83892B38
:1047300019F0DF91CF9108950990D881C02D20976D
:10474000C1F36DE275E0CE010E94423866E0CE0111
:10475000DF91CF910C94873884EA8093BC008091DC
:10476000BC0087FD0AC089EE93E003C00197009763
:1047700069F02091BC0027FFF9CF9091B900987F94
:1047800081E0983009F0089580E0089581E008956F
:104790001F93CF93DF9324EA2093BC002091BC00A9
:1047A00027FD0CC029EE33E005C021503109211549
:1047B0003105C1F14091BC0047FFF7CF2091B9000E
:1047C000287F203151F1FC0180819181009729F1EE
:1047D0001091B9006BE00E948738EC0161ED7FE039
:1047E0000E94423863E0CE010E948738612F0E9408
:1047F000B9396BE00E948738EC0162EE7FE00E94DD
:10480000423862E0CE010E94873866E00E94873815
:1048100080E0DF91CF911F91089580E0DF91CF91EB
:104820001F91089581E0DF91CF911F910895CF935B
:10483000DF936093BB0024E82093BC002091BC0070
:1048400027FD0CC029EE33E005C0215031092115A8
:10485000310591F04091BC0047FFF7CF9091B9002E
:10486000987F81E0983129F0983219F0903409F05E
:1048700080E0DF91CF910895FC01808191810097C4
:10488000B9F36BE00E948738EC0160EC7FE00E9496
:10489000423866E0CE010E94873880E0DF91CF91F8
:1048A00008956623E9F084EC8093BC0040E5909184
:1048B000BC0097FD0AC089EE93E003C00197009702
:1048C00069F02091BC0027FFF9CF2091B900287F23
:1048D00030E0842F90E02817390739F08FEF0895E2
:1048E00084E88093BC0048E5E2CF8091BB00089546
:1048F000FF920F931F93CF93DF93EC01162FF42EAB
:1049000000E02FEF3FEFA90160E070E08A819B811A
:104910000E94E32A84EA8093BC008091BC0087FD5A
:104920000CC029EE33E005C02150310921153105B5
:1049300031F08091BC0087FFF7CF8091B900612FE3
:10494000CE010E94172481111AC088819981009795
:1049500021F061E475E00E94423800E020E030E0A0
:10496000A90160E070E08A819B810E94C22911E068
:10497000812FDF91CF911F910F91FF9008956F2D9F
:10498000CE010E941724882301F384E98093BC00A0
:1049900084EA8093BC008091BC0087FD0CC029EEA6
:1049A00033E005C0215031092115310531F08091E6
:1049B000BC0087FFF7CF8091B900612F6160CE0105
:1049C0000E94172481111AC088819981009721F0D3
:1049D00067E475E00E94423800E020E030E0A90181
:1049E00060E070E08A819B810E94C2291FEF812FC5
:1049F000DF91CF911F910F91FF90089584E88093EC
:104A0000BC008091BC0087FD0CC029EE33E005C0DE
:104A1000215031092115310549F08091BC0087FFF3
:104A2000F7CF8091B900887F8835A9F01FEF84E91E
:104A30008093BC0000E020E030E0A90160E070E07D
:104A40008A819B810E94C229812FDF91CF911F9182
:104A50000F91FF9008951091BB00E9CFCF92DF92A4
:104A6000EF92FF920F931F93CF93DF93EC01C62E2B
:104A7000D42E7901102F00E02FEF3FEFA90160E065
:104A800070E08A819B810E94E32A84EA8093BC00C3
:104A90008091BC0087FD0AC0E9EEF3E003C03197C6
:104AA000309731F09091BC0097FFF9CF8091B90019
:104AB0006C2DCE010E94172481111EC0888199811E
:104AC000009721F06DE475E00E94423800E020E09C
:104AD00030E0A90160E070E08A819B810E94C229D8
:104AE000DD24D3948D2DDF91CF911F910F91FF90F5
:104AF000EF90DF90CF9008956D2DCE010E94172486
:104B0000D82E8823D9F284E98093BC0084EA80936C
:104B1000BC008091BC0087FD0CC049EE53E005C08D
:104B2000415051094115510531F09091BC0097FF5A
:104B3000F7CF8091B9006C2D6160CE010E941724DF
:104B4000811113C088819981009721F063E575E098
:104B50000E94423800E020E030E0A90160E070E00F
:104B60008A819B810E94C229BDCF8FEF810F19F1ED
:104B7000F70124EC2093BC009091BC0097FD0CC081
:104B800049EE53E005C0415051094115510549F026
:104B90009091BC0097FFF7CF9091B900987F903526
:104BA00091F19FEF9193815029F71250812F90E05E
:104BB0000196E80EF91E84E88093BC008091BC0049
:104BC00087FD0AC089EE93E003C00197009749F082
:104BD0002091BC0027FFF9CF8091B900887F8835EC
:104BE000A9F08FEFF701808384E98093BC0000E097
:104BF00020E030E0A90160E070E08A819B810E94A2
:104C0000C229D12C6FCF9091BB00CCCF8091BB003B
:104C1000E9CFEF92FF920F931F93CF93DF93EC01B5
:104C2000162FF42EE22E00E02FEF3FEFA90160E0F7
:104C300070E08A819B810E94E32A84EA8093BC0011
:104C40008091BC0087FD0AC0E9EEF3E003C0319714
:104C5000309731F08091BC0087FFF9CF8091B90087
:104C6000612FCE010E94172481111AC08881998179
:104C7000009721F069E575E00E94423800E020E0ED
:104C800030E0A90160E070E08A819B810E94C22926
:104C900081E0DF91CF911F910F91FF90EF900895E8
:104CA0006F2DCE010E941724882301F36E2DCE01B3
:104CB0000E9417248823D1F284E98093BC0000E08D
:104CC00020E030E0A90160E070E08A819B810E94D1
:104CD000C22980E0DECFBF92CF92DF92EF92FF92A7
:104CE0000F931F93CF93DF937C01C62FD42FB22E47
:104CF000132FD02E00E02FEF3FEFA90160E070E00E
:104D0000DC0112968D919C9113970E94E32A84EA0C
:104D10008093BC008091BC0087FD0AC0E9EEF3E0FF
:104D200003C03197309731F08091BC0087FFF9CFF5
:104D30008091B9006C2FC7010E941724811123C0F4
:104D4000D7018D919C91009721F06FE575E00E944D
:104D5000423800E020E030E0A90160E070E0D701D7
:104D600012968D919C9113970E94C229CC24C394D2
:104D70008C2DDF91CF911F910F91FF90EF90DF90DD
:104D8000CF90BF9008956D2FC7010E941724C82EA1
:104D90008823B1F2DD2079F1CB2DD12F10E003C0B3
:104DA0001F5F1D1541F16991C7010E9417248111F0
:104DB000F7CFF701C081D181209789F065E675E0D2
:104DC000CE010E944238612FCE010E94B939DC0128
:104DD000ED91FC910280F381E02D6EE3099500E0F6
:104DE00020E030E0A90160E070E0F701828193816A
:104DF0000E94C229BDCF84E98093BC0000E020E07E
:104E000030E0A90160E070E0F701828193810E94A7
:104E1000C229C12CADCF8BB18695817008950F93B7
:104E20001F93CF93DF93EC01162F00E02FEF3FEF9E
:104E3000A90160E070E08A819B810E94E32A84EAF4
:104E40008093BC008091BC0087FD0CC029EE33E04C
:104E500005C0215031092115310531F08091BC0088
:104E600087FFF7CF8091B900612FCE010E941724F0
:104E7000182F84E98093BC0000E020E030E0A90115
:104E800060E070E08A819B810E94C229812FDF91BE
:104E9000CF911F910F910895CF92DF92EF92FF92E1
:104EA0000F931F93CF93DF938C01EB016BE0CE0147
:104EB0000E9487387C016CEA7FE00E94423863E000
:104EC000C7010E94873866E00E948738E12CF12CE8
:104ED0006E2DCE010E94B939DC01ED91FC9102806A
:104EE000F381E02D60E30995CE2CC29480EFC822B7
:104EF000D12C08C060E4CE010995D394D394B0E1DD
:104F0000DB16E1F0E881F9810280F381E02D60E2B7
:104F1000CE0109956D2D6C29C8010E940F27E881EB
:104F2000F9810280F381E02D8111E4CF6DE2CE01A1
:104F30000995D394D394B0E1DB12E4CF66E0CE01BF
:104F40000E9487388FEFE81AF80AA0E1EA16F10408
:104F500009F0BECF62E0CE01DF91CF911F910F919A
:104F6000FF90EF90DF90CF900C9487380F931F93B2
:104F7000CF93DF93EC010E946D2E8091F805811193
:104F800021C082E096E09093FE058093FD0510928B
:104F900000061092FF0587E397E19093FC0580934C
:104FA000FB051092FA051092F9059093050680937F
:104FB000040689EF95E0909303068093020681E052
:104FC0008093F805209709F460C0AE014C5F5F4FF5
:104FD0002396C633D74108F058C0E091FD05F09103
:104FE000FE05ADEFB5E006C080819181009739F0F4
:104FF000DF01FC012281338124173507A8F3C5E0C6
:10500000E93FFC0709F441C00D911C9111970C5F19
:105010001F4F808191818D939C93C901841B950BB7
:105020008930910500F1BF01640F751FDB011396F4
:105030009C938E9312975383428312968D919C91E9
:105040001397ADEFB5E001C0DF01ED91FC91119731
:105050002281338128173907B8F3EB01F983E883FC
:105060006D937C939A018091000290910102821BC2
:10507000930B90930102809300020E94A02FC8011D
:10508000DF91CF911F910F91089500E010E00E94F1
:10509000A02FC801DF91CF911F910F910895CF9359
:1050A000DF93009721F1EC0124970E946D2E4A8135
:1050B0005B81ADEFB5E001C0DF01ED91FC9111978F
:1050C0002281338124173507B8F3F983E883CD9320
:1050D000DC938091000290910102840F951F9093C0
:1050E000010280930002DF91CF910C94A02FDF91F9
:1050F000CF91089580910002909101020895089542
:105100001F93CF93DF93EC01142F88A181110DC061
:1051100088819981892B09F44DC080E09E8D9F5F25
:105120009E8FDF91CF911F910895482F50E011116C
:105130001CC08C819D810E947C4528A18C819D8111
:10514000820F911D9D838C832A813B818217930757
:1051500020F3888199819D838C8380E09E8D9F5F61
:105160009E8FDF91CF911F9108958E819F810E9424
:105170007C4528A130E03195219531098E819F81B0
:10518000820F931F9F838E8368817981861797078B
:1051900030F48A819B81820F931F9F838E8312300C
:1051A00009F0BBCF8E8D882309F4B7CF8E8D815047
:1051B0008E8FB3CF8A819B810E94CB321B821A8251
:1051C000ADCFFC01CB0140A1442399F050E02681F2
:1051D0003781240F351F3783268362817381261719
:1051E000370720F02081318137832683B9010C9461
:1051F0007C4508950F931F93CF93DF93EC010FB677
:10520000F8940F928AA11816ECF48B898823D1F0B8
:105210008E010D5E1F4F09C08AA181508AA38AA109
:10522000181684F48B89882369F0C8010E945731CD
:10523000882391F30E944B328AA181508AA38AA1CC
:10524000181684F38FEF8AA30F900FBE0FB6F89451
:105250000F9289A11816ECF488858823D1F08E016D
:10526000085F1F4F09C089A1815089A389A1181621
:1052700084F48885882369F0C8010E945731882307
:1052800091F30E944B3289A1815089A389A11816FC
:1052900084F38FEF89A30F900FBEDF91CF911F9101
:1052A0000F910895CF93DF93EC010FB6F8940F920E
:1052B000288139818F8D78A1879FC0011124A90190
:1052C000480F591F5B834A831E8E3D832C83871BA7
:1052D0009109820F931F9F838E838FEF89A38AA3E7
:1052E000611112C08885811106C00F900FBE81E048
:1052F000DF91CF910895CE0108960E9457318130F9
:10530000A1F70E94373DF1CFCE0108960E94C83B1D
:10531000CE0143960E94C83B0F900FBE81E0DF9103
:10532000CF9108950F931F93CF93DF93182F062FDC
:10533000882301F183E290E00E94B627EC010097F8
:10534000C9F0109FC001112401960E94B6279983CD
:105350008883892B61F01F8F08A361E0CE010E9432
:105360005229CE01DF91CF911F910F910895CE0167
:105370000E944F28C0E0D0E0CE01DF91CF911F9175
:105380000F9108956F927F928F929F92AF92BF92EA
:10539000CF92DF92EF92FF920F93CF93DF93CDB72F
:1053A000DEB729970FB6F894DEBF0FBECDBF5C0104
:1053B0004B012E833F834887598720E03C0188E0DA
:1053C000680E711C0FB6F8940F92F501968D878DBB
:1053D000981708F459C0023009F456C0CE80DF8017
:1053E000E884F984CD28CE28CF2809F46FC0222381
:1053F00009F441C00F900FBE0E946D2E0FB6F894B5
:105400000F92F50181A18F3F09F43CC0F50182A103
:105410008F3FB1F10F900FBEBE016A5F7F4FCE018B
:1054200001960E94EA31811155C00FB6F8940F928F
:10543000F501968D0F900FBEF501878D981314C05E
:105440004E815F8168857985C3010E94FC30C5016A
:105450000E94FA280E94A02F882311F021E0B2CFE9
:105460000E94373D21E0AECFC5010E94FA280E947C
:10547000A02F21E0A7CFCE0101960E94D931BACF4B
:1054800012A2C8CF11A2C2CF402FB401C5010E9401
:105490008028F5019389911124C0811128C00F90B3
:1054A0000FBE81E029960FB6F894DEBF0FBECDBFC8
:1054B000DF91CF910F91FF90EF90DF90CF90BF9051
:1054C000AF909F908F907F906F9008950F900FBE38
:1054D00080E0E8CFC5010E94FA280E94A02F80E05A
:1054E000E1CFC50143960E9457318130C1F60E9439
:1054F000373DD5CF0F93CF93DF9383E290E00E94A7
:10550000B627EC01009701F11B821A8219821882DA
:105510001D821C821F821E821E8E81E08F8F18A228
:105520008FEF89A38AA3CE0108960E94C83BCE01C3
:1055300043960E94C83B00E020E030E0A90160E013
:1055400070E0CE010E94C229CE01DF91CF910F9170
:1055500008950F931F93CF93DF93EC018A019E8DE3
:105560008F8D981740F0223031F080E0DF91CF919D
:105570001F910F910895422FCE010E948028882309
:1055800031F00115110519F081E0F80180838AA13D
:105590008F3F49F08AA18F5F8AA381E0DF91CF918D
:1055A0001F910F9108958B898823B9F3CE014396FB
:1055B0000E945731882389F30115110571F381E0A9
:1055C000F8018083D3CFAF92BF92CF92DF92EF9258
:1055D000FF920F93CF93DF93CDB7DEB729970FB626
:1055E000F894DEBF0FBECDBF7C016B012E833F83DD
:1055F0004887598790E0570183E1A80EB11C0FB688
:10560000F8940F92F701868D811169C04E815F81F8
:1056100068857985452B462B472B09F47DC0992356
:1056200009F43EC00F900FBE0E946D2E0FB6F89485
:105630000F92F70181A18F3F09F43EC0F70182A1CB
:105640008F3F09F43FC00F900FBEBE016A5F7F4FCE
:10565000CE0101960E94EA31811171C00FB6F89413
:105660000F92F701868D0F900FBE81111EC0F701BA
:1056700080819181892B41F14E815F816885798597
:10568000C5010E94FC30C7010E94FA280E94A02F89
:10569000882311F091E0B3CF0E94373D91E0AFCF66
:1056A000CE0101960E94D931BDCFC7010E94FA28D0
:1056B0000E94A02F91E0A3CF11A2F70182A18F3FFA
:1056C00009F0C1CF12A2BFCF0FB6F8940F92F70125
:1056D000828193810E9470320F900FBECDCFA68041
:1056E000B780B601C7010E94E128F70101112EC061
:1056F000868D8150868F80819181892BB9F1F70148
:105700008085882341F1C70108960E945731813076
:1057100011F50E94373D1FC00F900FBE80E0299603
:105720000FB6F894DEBF0FBECDBFDF91CF910F91C2
:10573000FF90EF90DF90CF90BF90AF900895C7019A
:105740000E94FA280E94A02F80E0E9CFB782A682AB
:105750008389811104C00F900FBE81E0E0CFC701A3
:1057600043960E9457318823B1F3D3CF0E9432333E
:10577000F70193838283C3CF0F931F93CF93DF935C
:1057800000D0CDB7DEB78C01FC01868D811108C039
:1057900080E00F900F90DF91CF911F910F910895AE
:1057A000C80149835A830E94E128F801868D8150FF
:1057B000868F81A149815A818F3F61F0F80181A1D3
:1057C0008F5F81A381E00F900F90DF91CF911F91A8
:1057D0000F91089580858823A9F3C801089649830D
:1057E0005A830E94573149815A81882359F34115C0
:1057F000510541F381E0FA018083CBCF0F931F93D2
:10580000CF93DF93EC018E8D811106C080E0DF9194
:10581000CF911F910F9108950E811F81CE010E949B
:10582000E1281F830E8381E0DF91CF911F910F91BB
:1058300008950FB6F8940F92FC01868D0F900FBE5D
:1058400008950FB6F8940F92FC01268D0F900FBEAD
:10585000FC01878D821B0895FC01868D0895CF93EE
:10586000DF93EC0188819981009711F00E944F2805
:10587000CE01DF91CF910C944F28FC01968D81E0F1
:10588000911180E00895FC01268D81E0978D291308
:1058900080E0089580916E1D823018F00E94373D9F
:1058A000F9CFFFCFCF92DF92EF92FF926B017C0195
:1058B000E091391DF0913A1D62837383848395834F
:1058C0008091421D9091431DA091441DB091451DB2
:1058D0006091391D70913A1DC816D906EA06FB067B
:1058E00010F18091561D9091571D6E5F7F4F0E9461
:1058F000FE3B8091020290910302A0910402B091BC
:105900000502C816D906EA06FB0640F4C092020258
:10591000D0920302E0920402F0920502FF90EF9011
:10592000DF90CF9008958091541D9091551D6E5F2A
:105930007F4FFF90EF90DF90CF900C94FE3B5F92F3
:105940006F927F928F929F92AF92BF92CF92DF928F
:10595000EF92FF920F931F93CF93DF934C01162F7B
:10596000572E5A01390189E290E00E94B627EC01D6
:10597000009709F4E9C0C114D10409F4DAC0DC8E3F
:10598000CB8EC601A50165EA70E00E94854521E045
:10599000A21AB108CB8CDC8CCA0CDB1CAE01435EB6
:1059A0005F4FE12FF52D2AE0CF013191DA013D93D0
:1059B000AD01DC018C91882311F02150A9F71EA2C2
:1059C000102F043008F07DC01A8F1FA318A65E01A7
:1059D000B2E0AB0EB11CC5010E94D93BCE010E96C0
:1059E0000E94D93BDB87CA8784E090E0A0E0B0E06A
:1059F000811B9109A109B1098E879F87A88BB98B5B
:105A0000DF8BCE8BA301B401C6010E94673C998352
:105A10008883E114F10419F0F701D183C0830FB634
:105A2000F8940F928091461D8F5F8093461D809160
:105A3000391D90913A1D892B09F449C08091401D70
:105A400081110BC0E091391DF0913A1D828D08172C
:105A500020F0D0933A1DC093391D80913C1D8F5F7B
:105A600080933C1D8A8D9091411D981738F1FBE081
:105A70008F9FC0011124B5018259924E0E94DD3BD7
:105A80000F900FBE8091401D882339F0E091391DA1
:105A9000F0913A1D828D8017B0F081E0DF91CF91B7
:105AA0001F910F91FF90EF90DF90CF90BF90AF903C
:105AB0009F908F907F906F905F9008958093411D8D
:105AC000D6CF13E081CF0E94373D81E0E7CFD0935E
:105AD0003A1DC093391D8091461D813009F0BDCF1C
