:100000000C942A080C9449080C9449080C9449084B
:100010000C9449080C948B1A0C94481B0C944A1BA2
:100020000C94BF1B0C9449080C9449080C94490883
:100030000C9449080C9449080C9449080C944908FC
:100040000C9449080C9449080C9449080C944908EC
:100050000C9449080C9449080C9449080C944908DC
:100060000C9449080C9425390C9449080C944908BF
:100070000C9449080C9449080C9449080C944908BC
:100080000C9449080C9449080C9449080C944908AC
:100090000C9478390C9449080C9449080C9449083C
:1000A0000C9449080C9449080C9449080C9449088C
:1000B0000C9449080C9449080C9449080C94EF3BA3
:1000C0000C9449080C9449080C944908B80DE80DA3
:1000D0005B0D0B0DD00CAA0C8B0C130E9736A036B3
:1000E000A336A63699369936A936B936C036C736FC
:1000F000CB369D365F5F5F5F5F5F5F5F204D45344E
:100100003035204C61622033204D6F64696669652B
:10011000642050726F6772616D205F5F5F5F5F5F29
:100120005F5F004A756E2020312032303136005337
:10013000797374656D2074696D653A20002C2048D0
:100140006561703A20002C204F435235413A20001F
:1001500020202020723A2020202020205265747513
:10016000726E20746F204D61696E204D656E750052
:10017000202043746C2D433A202020205265736563
:100180007420415652206D6963726F636F6E747292
:100190006F6C6C65720020202020733A2020202094
:1001A0002020456E74657220736574706F696E747B
:1001B000732078787878787820666F72204D6F7425
:1001C0006F722031207468656E204D6F746F7220DD
:1001D00032002D2D2D2D2D2D2D2D2D2D2D2D2D2D77
:1001E0002D204155544F4E4F4D4F5553204D454EA8
:1001F00055202D2D2D2D2D2D2D2D2D2D2D2D2D2D14
:100200002D0020202020723A20202020202052651E
:100210007475726E20746F204D61696E204D656E2D
:100220007500202043746C2D433A20202020526515
:1002300073657420415652206D6963726F636F6EEF
:1002400074726F6C6C65720020202020703A202040
:10025000202020204578656375746520686967688B
:100260007761792070617373696E670020202020A8
:10027000633A202020202020546F67676C6520633C
:1002800061722061766F6964616E63650020202071
:10029000206C3A202020202020546F67676C652056
:1002A0006C616E65206B656570696E67002D2D2D24
:1002B0002D2D2D2D2D2D2D2D2D2D2D2D2D2D204860
:1002C000494748574159205441534B204D454E55BD
:1002D000202D2D2D2D2D2D2D2D2D2D2D2D2D2D2D5B
:1002E0002D2D0020202020723A2020202020205276
:1002F000657475726E20746F204D61696E204D6556
:100300006E7500202043746C2D433A20202020522B
:100310006573657420415652206D6963726F636F17
:100320006E74726F6C6C65720020202020633A201E
:10033000202020202043697263756C6172207061F7
:10034000746800202020206C3A2020202020204C9F
:10035000696E6561722068656164696E67206164B9
:10036000686572616E6365002D2D2D2D2D2D2D2D4F
:100370002D2D2D2D2D2D2D2D2D20434C4153532032
:100380005441534B204D454E55202D2D2D2D2D2DB7
:100390002D2D2D2D2D2D2D2D2D2D2D0020202020EE
:1003A000723A20202020202052657475726E2074CD
:1003B0006F204D61696E204D656E7500202043747D
:1003C0006C2D433A202020205265736574204156DD
:1003D00052206D6963726F636F6E74726F6C6C65BF
:1003E000720020202020733A202020202020506FEF
:1003F000736974696F6E20736574706F696E7400D1
:1004000020202020703A2020202020205365727662
:100410006F20706F736974696F6E207769746820DC
:1004200050574D205B3239205B4C5D2C20323220FE
:100430005B435D2C203135205B525D5D002D2D2D01
:100440002D2D2D2D2D2D2D2D2D2D2D2D2D2D2053C3
:100450004552564F204D454E55202D2D2D2D2D2DDD
:100460002D2D2D2D2D2D2D2D2D2D2D00202020201D
:10047000723A20202020202052657475726E2074FC
:100480006F204D61696E204D656E750020204374AC
:100490006C2D433A2020202052657365742041560C
:1004A00052206D6963726F636F6E74726F6C6C65EE
:1004B000720020202020733A202020202020566522
:1004C0006C6F6369747920736574706F696E7420E2
:1004D0005B2D34302C2034305D0020202020663A03
:1004E00020202020202046756C6C204272616B65B4
:1004F0000020202020623A2020202020204D6F74F0
:100500006F72204252414B452077697468205057E2
:100510004D205B2D3235352C203235355D002020C5
:100520002020703A2020202020204D6F746F7220F0
:10053000504F57455220776974682050574D205BC3
:100540002D3235352C203235355D002D2D2D2D2DBC
:100550002D2D2D2D2D2D2D2D2D2D2D2D204D4F546F
:100560004F52204D454E55202D2D2D2D2D2D2D2D0D
:100570002D2D2D2D2D2D2D2D2D0020202020723ABA
:1005800020202020202052657475726E20746F2008
:100590004D61696E204D656E7500202043746C2D91
:1005A000433A202020205265736574204156522022
:1005B0006D6963726F636F6E74726F6C6C657200DD
:1005C00020202020643A20202020202053746163C2
:1005D0006B2064756D7020666F72207461736B732D
:1005E0000020202020733A202020202020566572F1
:1005F00073696F6E2F536574757020696E666F72C4
:100600006D6174696F6E0020202020743A202020D4
:1006100020202053686F772074686520637572729C
:10062000656E742074696D65002D2D2D2D2D2D2D79
:100630002D2D2D2D2D2D2D2D2D2D2048454C50208F
:100640004D454E55202D2D2D2D2D2D2D2D2D2D2D66
:100650002D2D2D2D2D2D0020202020723A20202000
:1006600020202052657475726E20746F204D616970
:100670006E204D656E7500202043746C2D433A202A
:10068000202020526573657420415652206D6963A5
:10069000726F636F6E74726F6C6C657200202020D5
:1006A00020643A202020202020526F74617465203D
:1006B0007374656572696E6720746F207468652055
:1006C0007269676874202B310020202020613A2055
:1006D0002020202020526F7461746520737465653A
:1006E00072696E6720746F20746865206C6566742B
:1006F000202D310020202020733A2020202020208F
:1007000044656372656D656E74206D6F746F7220E1
:1007100076656C6F63697479202D3230002020205B
:1007200020773A202020202020496E6372656D6575
:100730006E74206D6F746F722076656C6F63697470
:1007400079202B3230002D2D2D2D2D2D2D2D2D2DC1
:100750002D2D2D2D434152204452495645204D45C3
:100760004E55202D2D2D2D2D2D2D2D2D2D2D2D2D7D
:100770002D2D2D2D0020202020723A2020202020F9
:100780002052657475726E20746F204D61696E2001
:100790004D656E7500202043746C2D433A20202057
:1007A00020526573657420415652206D6963726FE3
:1007B000636F6E74726F6C6C657200202020203F36
:1007C0003A20202020202048656C70204D656E75F1
:1007D0000020202020683A2020202020204869671F
:1007E00068776179206D61696E74656E616E6365AD
:1007F0000020202020633A202020202020436C610C
:100800007373207265717569726564207461736BAE
:10081000730020202020643A2020202020204472D1
:10082000697665207468652063617221002020204C
:1008300020733A202020202020536572766F206D8F
:10084000616E75616C206D616E6970756C61746943
:100850006F6E00202020206D3A2020202020204D87
:100860006F746F72206D616E75616C206D616E6961
:1008700070756C6174696F6E002D2D2D2D2D2D2DD1
:100880002D2D2D2D2D2D2D2D2D2D204D41494E2041
:100890004D454E55202D2D2D2D2D2D2D2D2D2D2D14
:1008A0002D2D2D2D2D2D00496C6C6567616C2073ED
:1008B000746174652120526573657474696E672074
:1008C000415652002220003C2D2D20556E6B6E6F3C
:1008D000776E20636F6D6D616E642E205479706544
:1008E00020636F6D6D616E642066726F6D206D6543
:1008F0006E752E00526573657474696E672041567B
:10090000520043757272656E7420536572766F2063
:10091000506F736974696F6E3A2000437572726527
:100920006E74204D6F746F722056656C6F636974BE
:100930006965733A20002220003C2D2D20556E6BF6
:100940006E6F776E20636F6D6D616E642E205479CB
:10095000706520636F6D6D616E642066726F6D20CF
:100960006D656E752E00526573657474696E6720CF
:10097000415652002220003C2D2D20556E6B6E6F8B
:10098000776E20636F6D6D616E642E205479706593
:1009900020636F6D6D616E642066726F6D206D6592
:1009A0006E752E00526573657474696E67204156CA
:1009B0005200456E74657220726164697573206FB0
:1009C000662063697263756C61722070617468205F
:1009D0005B302C3235355D002220003C2D2D20551A
:1009E0006E6B6E6F776E20636F6D6D616E642E201F
:1009F0005479706520636F6D6D616E642066726FEF
:100A00006D206D656E752E00526573657474696E28
:100A1000672041565200456E74657220706F73698D
:100A200074696F6E20736574706F696E7420666F81
:100A30007220536572766F00456E74657220706F18
:100A4000736974696F6E20666F7220536572766F7A
:100A5000002220003C2D2D20556E6B6E6F776E208E
:100A6000636F6D6D616E642E205479706520636FC5
:100A70006D6D616E642066726F6D206D656E752E92
:100A800000526573657474696E6720415652004D5B
:100A90006F746F7220002048414C5445442100453A
:100AA0006E746572206E756D62657220666F72205D
:100AB0004D6F746F722000456E746572206E756D97
:100AC00062657220666F72204D6F746F7220002213
:100AD00020003C2D2D20556E6B6E6F776E20636F5E
:100AE0006D6D616E642E205479706520636F6D6D3D
:100AF000616E642066726F6D206D656E752E00509C
:100B00006C6561736520747970652061206E756D08
:100B1000626572206265747765656E203020746F3F
:100B2000203235352C207468656E20454E54455270
:100B300000506C6561736520656E7465722061207C
:100B4000706174682076656C6F63697479205B30BE
:100B50002C3235355D00506C656173652074797099
:100B6000652061206E756D626572206265747765BF
:100B7000656E20323020746F2033302C207468650D
:100B80006E20454E54455200506C6561736520746B
:100B90007970652061206E756D6265722062657482
:100BA0007765656E203020746F203235352C2074C7
:100BB00068656E20454E54455200506C6561736502
:100BC00020747970652061206E756D626572206297
:100BD00065747765656E202D32353520746F20324F
:100BE00035352C207468656E20454E5445520050B2
:100BF0006C65617365207479706520612031206FA8
:100C000072203220666F72206D6F746F7220736570
:100C10006C6563742C207468656E20454E54455293
:100C2000004E756D62657220456E74657265643A3A
:100C300020004E756D62657220456E746572656444
:100C40003A202D002220003C2D2D20556E6B6E6F1A
:100C5000776E20636F6D6D616E642E2054797065C0
:100C600020636F6D6D616E642066726F6D206D65BF
:100C70006E752E00526573657474696E67204156F7
:100C800052002220003C2D2D20556E6B6E6F776E2A
:100C900020636F6D6D616E642E20547970652063E2
:100CA0006F6D6D616E642066726F6D206D656E751F
:100CB0002E00526573657474696E67204156520048
:100CC000456E746572206E756D6265722C203120E0
:100CD0006F7220322C20666F72206D6F746F7220DD
:100CE00073656C656374696F6E3A20004175746F4B
:100CF0006E6F6D6F7573204D6F64653A2048414C7F
:100D0000544544004175746F6E6F6D6F7573204D5F
:100D10006F64653A20414354495645004F757075DC
:100D20007420202020202020202020203A2000464F
:100D30006565646261636B20202020202020203ABA
:100D4000200073685F736574706F696E745F322022
:100D500020203A2000205B7469636B735D00736828
:100D60005F6D6F746F725F325F73706565643A2098
:100D7000004F757075742020202020202020202016
:100D8000203A2000466565646261636B2020202064
:100D9000202020203A200073685F736574706F69AB
:100DA0006E745F312020203A2000205B7469636BF1
:100DB000735D0073685F6D6F746F725F315F737026
:100DC0006565643A2000504944206572726F720074
:100DD000504944206572726F72004572726F7220C2
:100DE000696E2067657445756C6572416E67004970
:100DF0004D5520756E6974732073657400494D55A7
:100E000020706F776572206D6F6465207365740064
:100E1000494D55206F7065726174696F6E206D6FFA
:100E200064652073657400494D55206F626A65637F
:100E30007420696E7469616C20636F6D6D756E6985
:100E4000636174696F6E2073756365737300494DD8
:100E500055206F626A65637420696E7469616C20E5
:100E6000636F6D6D756E69636174696F6E20657215
:100E7000726F72004144435352413A200041444D45
:100E800055583A200041444330203D20004144431E
:100E900031203D200041444332203D200041444365
:100EA00033203D200041444334203D200041444351
:100EB00035203D200041444336203D20004144433D
:100EC00037203D20002D2D2D2D2D2D2D2D204D4554
:100ED000343035204C61622035205374617274695E
:100EE0006E672050726F6772616D202D2D2D2D2D34
:100EF0002D2D2D002020202030203220342036209F
:100F000038204120432045004932432073656E64F8
:100F10002074696D656F7574004932432072652DC8
:100F200073746172743A20307800206E6F742030D0
:100F3000783130004E6F207368617265642064619F
:100F40007461206974656D7320746F207072696EAE
:100F500074002D2D2D2D2020202020202020202029
:100F600020202D2D2D2D202020202D2D2D2D2D2DFF
:100F70002D2D2D2D0053686172652F517565756596
:100F80002020202020547970652020202046726582
:100F9000652F546F74616C004552524F522063723A
:100FA000656174696E67207461736B2022005461FF
:100FB000736B2022002220637265617465642C20AB
:100FC000737461636B206174203078005461736BBB
:100FD0003A20005461736B3A2049444C450049441F
:100FE0004C45090930092D09002F0009092D002D54
:100FF0002D2D2D09092D2D2D2D092D2D2D2D2D00BA
:10100000092D2D2D2D2D2D2D2D2D2D00092D2D2D85
:101010002D004E616D6509095072692E0953746186
:1010200074650009467265652F546F74616C000920
:1010300052756E73005461736B09092020092000FA
:1010400009537461636B00090009002F000900094E
:101050000020200011241FBECFEFD1E2DEBFCDBFA4
:1010600015E0A0E0B2E0E8E1F8E800E00BBF02C064
:1010700007900D92AC3BB107D9F71DE1ACEBB5E0A1
:1010800001C01D92A43AB107E1F70E946E3F0C9493
:101090000A440C9400000F931F93CF93DF93EC014D
:1010A0000E94CC3180E392E099838883DF91CF91D5
:1010B0001F910F9108950F931F93CF93DF93EC012E
:1010C00066E08E819F810E948A366BE08E819F81CF
:1010D0000E948A368C0169E778E00E94453666E016
:1010E000C8010E948A366BE08E819F810E948A36F9
:1010F0008C0163E578E00E94453666E0C8010E94F5
:101100008A366BE08E819F810E948A368C016DE267
:1011100078E00E94453666E0C8010E948A366BE09E
:101120008E819F810E948A368C0162E178E00E9464
:10113000453666E0C8010E948A366BE08E819F8149
:101140000E948A368C0161EF77E00E94453666E0A6
:10115000C8010E948A366BE08E819F810E948A3688
:101160008C0161ED77E00E94453666E0C8010E947F
:101170008A366BE08E819F810E948A368C016BEBF0
:1011800077E00E94453666E0C8010E948A366BE02F
:101190008E819F810E948A368C0165E977E00E94EA
:1011A000453666E0C8010E948A366BE08E819F81D9
:1011B0000E948A368C0165E777E00E94453666E03A
:1011C000C8010E948A3666E08E819F81DF91CF91AF
:1011D0001F910F910C948A360F931F93CF93DF9337
:1011E000EC0166E08E819F810E948A366BE08E81E1
:1011F0009F810E948A368C0166E477E00E94453622
:1012000066E0C8010E948A366BE08E819F810E9451
:101210008A368C016DE177E00E94453666E0C801B0
:101220000E948A366BE08E819F810E948A368C01F3
:1012300064EF76E00E94453666E0C8010E948A3677
:101240006BE08E819F810E948A368C0169EC76E08A
:101250000E94453666E0C8010E948A366BE08E81A6
:101260009F810E948A368C016DE976E00E944536A6
:1012700066E0C8010E948A366BE08E819F810E94E1
:101280008A368C0167E776E00E94453666E0C80141
:101290000E948A366BE08E819F810E948A368C0183
:1012A00067E576E00E94453666E0C8010E948A360E
:1012B00066E08E819F81DF91CF911F910F910C94F9
:1012C0008A360F931F93CF93DF93EC0166E08E81F4
:1012D0009F810E948A366BE08E819F810E948A36B0
:1012E0008C0169E276E00E94453666E0C8010E9402
:1012F0008A366BE08E819F810E948A368C0167E07E
:1013000076E00E94453666E0C8010E948A366BE0AE
:101310008E819F810E948A368C0161EE75E00E9469
:10132000453666E0C8010E948A366BE08E819F8157
:101330000E948A368C0160EC75E00E94453666E0BA
:10134000C8010E948A366BE08E819F810E948A3696
:101350008C016AE975E00E94453666E0C8010E948A
:101360008A366BE08E819F810E948A368C016AE703
:1013700075E00E94453666E0C8010E948A3666E044
:101380008E819F81DF91CF911F910F910C948A36AE
:101390000F931F93CF93DF93EC0166E08E819F81C3
:1013A0000E948A366BE08E819F810E948A368C0172
:1013B0006BE475E00E94453666E0C8010E948A36FB
:1013C0006BE08E819F810E948A368C016EE175E010
:1013D0000E94453666E0C8010E948A366BE08E8125
:1013E0009F810E948A368C0161EF74E00E9445362D
:1013F00066E0C8010E948A366BE08E819F810E9460
:101400008A368C016AED74E00E94453666E0C801B8
:101410000E948A366BE08E819F810E948A368C0101
:1014200062EB74E00E94453666E0C8010E948A368D
:101430006BE08E819F810E948A368C016CE874E09B
:101440000E94453666E0C8010E948A366BE08E81B4
:101450009F810E948A368C016CE674E00E944536BA
:1014600066E0C8010E948A3666E08E819F81DF9126
:10147000CF911F910F910C948A360F931F93CF93A6
:10148000DF93EC0166E08E819F810E948A366BE0DB
:101490008E819F810E948A368C016DE374E00E94E8
:1014A000453666E0C8010E948A366BE08E819F81D6
:1014B0000E948A368C0160E074E00E94453666E046
:1014C000C8010E948A366BE08E819F810E948A3615
:1014D0008C0162EE73E00E94453666E0C8010E940E
:1014E0008A366BE08E819F810E948A368C016CEB7C
:1014F00073E00E94453666E0C8010E948A366BE0C0
:101500008E819F810E948A368C016CE973E00E9473
:10151000453666E0C8010E948A3666E08E819F816A
:10152000DF91CF911F910F910C948A360F931F93E7
:10153000CF93DF93EC0166E08E819F810E948A3613
:101540006BE08E819F810E948A368C0168E673E091
:101550000E94453666E0C8010E948A366BE08E81A3
:101560009F810E948A368C0163E473E00E944536B5
:1015700066E0C8010E948A366BE08E819F810E94DE
:101580008A368C0169E273E00E94453666E0C80144
:101590000E948A366BE08E819F810E948A368C0180
:1015A00063E073E00E94453666E0C8010E948A3617
:1015B0006BE08E819F810E948A368C0163EE72E01F
:1015C0000E94453666E0C8010E948A3666E08E8138
:1015D0009F81DF91CF911F910F910C948A360F93C9
:1015E0001F93CF93DF93EC0166E08E819F810E9471
:1015F0008A366BE08E819F810E948A368C016DEA6B
:1016000072E00E94453666E0C8010E948A366BE0AF
:101610008E819F810E948A368C016DE872E00E9463
:10162000453666E0C8010E948A366BE08E819F8154
:101630000E948A368C016CE672E00E94453666E0B4
:10164000C8010E948A366BE08E819F810E948A3693
:101650008C0168E472E00E94453666E0C8010E9491
:101660008A366BE08E819F810E948A368C0162E20D
:1016700072E00E94453666E0C8010E948A366BE03F
:101680008E819F810E948A368C0162E072E00E9406
:10169000453666E0C8010E948A3666E08E819F81E9
:1016A000DF91CF911F910F910C948A360F931F9366
:1016B000CF93DF93EC0166E08E819F810E948A3692
:1016C0006BE08E819F810E948A368C0162ED71E011
:1016D0000E94453666E0C8010E948A366BE08E8122
:1016E0009F810E948A368C0166E971E00E9445362E
:1016F00066E0C8010E948A366BE08E819F810E945D
:101700008A368C0160E771E00E94453666E0C801C8
:101710000E948A366BE08E819F810E948A368C01FE
:1017200060E571E00E94453666E0C8010E948A3695
:1017300066E08E819F81DF91CF911F910F910C9474
:101740008A368F929F92AF92BF92CF92DF92EF92A2
:10175000FF920F931F93CF93DF9300D000D000D060
:10176000CDB7DEB78C0119821A821B821C821E82C1
:101770001D82C0902801D09029010E947D265C0125
:10178000CE0101960E9476354C0166E0F801868113
:1017900097810E948A366BE00E948A367C0164EF52
:1017A00070E00E9445366BE0C7010E948A367C01DA
:1017B00063E271E00E94453666E0C7010E948A3606
:1017C0006BE00E948A367C016FE271E00E94453630
:1017D000B401C7010E9415356BE00E948A367C0176
:1017E0006DE371E00E944536B501C7010E943A37AA
:1017F0007C0165E172E00E94453648E357E160E014
:1018000070E0C7010E9474376BE00E948A367C0149
:1018100066E471E00E944536B601C7010E943A377E
:1018200066E00E948A3666E00E948A36F801868168
:1018300097810E94C73366E0F801868197810E94F4
:101840008A36F801868197810E94873126960FB6E5
:10185000F894DEBF0FBECDBFDF91CF911F910F91E6
:10186000FF90EF90DF90CF90BF90AF909F908F90C0
:101870000895CF93DF93CDB7DEB727970FB6F894CF
:10188000DEBF0FBECDBF8C0119821A821B821C8263
:101890001E821D820FB6F8940F92E091EC05F09134
:1018A000ED0510860F900FBE0E945B08712C612C15
:1018B000912CE12CF12C8824839462E0562E73E065
:1018C000472EEAE02E2E312CD8011C968C9190E008
:1018D00088309105D8F06BE0F801868197810E94ED
:1018E0008A368C0167EA78E00E94453666E0C801D6
:1018F0000E948A362BE088E190E00FB6F894A89514
:10190000809360000FBE20936000FFCFFC01EA5976
:10191000FF4F0C948342F80186819781DC01ED91A1
:10192000FC910480F581E02D099581110FC2F80129
:1019300086859785A089B1890196A11DB11D8687ED
:101940009787A08BB18B61E070E080E090E00E940F
:101950007D2EBACFF80186819781DC01ED91FC9153
:101960000480F581E02D0995882309F3F80186812B
:101970009781DC01ED91FC910680F781E02D0995BE
:10198000282F833609F49CC20CF47AC28C3609F4F1
:10199000F2C1823709F0F4C1C8010E945B08EBC1B3
:1019A000F80186819781DC01ED91FC910480F5813D
:1019B000E02D0995882309F4BACFF8018681978133
:1019C000DC01ED91FC910680F781E02D0995282F2F
:1019D000803709F44BC20CF42CC28237E9F283370A
:1019E00009F0FDC16BE0D80116968D919C91179777
:1019F0000E948A366C0166E17AE0C6010E94453693
:101A000066E0C6010E948A3662E0C8010E94823206
:101A100093E0992E8CCFD80116968D919C911797B3
:101A2000DC01ED91FC910480F581E02D099588237E
:101A300009F47DCFF80186819781DC01ED91FC915D
:101A40000680F781E02D0995282F863609F474C5A4
:101A50000CF027C5833009F452C5823609F027C53A
:101A60000FB6F8940F92E091EC05F091ED05B0847B
:101A70000F900FBE6BE0D80116968D919C91179731
:101A80000E948A366C016FE97AE00E9445366B2D20
:101A9000C6010E94FE366C0161E272E00E9445368A
:101AA00066E0C6010E948A3662E0C8010E94823266
:101AB00022E0922E3CCFF80186819781DC01ED91E6
:101AC000FC910480F581E02D0995882309F474C305
:101AD000F80186819781DC01ED91FC910680F78108
:101AE000E02D0995282F80ED820F8A3008F441C33C
:101AF0002D3209F408C32F3709F4D1C22A3009F472
:101B0000FAC22D3009F0CDC266E0611027C2F8019B
:101B1000868197810E948A366BE00E948A366C012A
:101B200061E27CE0C6010E944536B701C6010E9411
:101B3000CF3666E00E948A369110D8C1C70101975E
:101B4000029708F470C46BE0D80116968D919C91B1
:101B500017970E948A367C016FEE7BE0C7010E94D6
:101B6000453666E0C7010E948A36E12CF12CDFCEB3
:101B7000F80186819781DC01ED91FC910480F5816B
:101B8000E02D0995882309F4D2CEF801868197814A
:101B9000DC01ED91FC910680F781E02D0995282F5D
:101BA000843609F4FCC50CF0E8C58F3309F4DCC5B4
:101BB0000CF4BAC5813609F470C5833609F045C501
:101BC000C8010E94960A65E0C8010E948232AFCE29
:101BD000F80186819781DC01ED91FC910480F5810B
:101BE000E02D0995882309F4A2CEF801868197811A
:101BF000DC01ED91FC910680F781E02D0995282FFD
:101C0000823709F4C9CE0CF00CC5833009F4EEC458
:101C1000843609F01CC4D80116968D919C911797B3
:101C20000E94E13284CEF80186819781DC01ED913A
:101C3000FC910480F581E02D0995882309F477CE85
:101C4000F80186819781DC01ED91FC910680F78196
:101C5000E02D0995282F0FB6F8940F92E091EA0530
:101C6000F091EB05A084B1840F900FBE6BE0F801FA
:101C7000868197812F830E948A366C016BE179E01F
:101C80000E944536B501C6010E94CF3666E00E942B
:101C90008A360FB6F8940F92E091C005F091C10515
:101CA000B0840F900FBE6BE0D80116968D919C9179
:101CB00017970E948A366C0162E079E00E944536EF
:101CC0006B2DC6010E94BC3766E00E948A3666E032
:101CD000F801868197810E948A362F81243609F483
:101CE00066C30CF41BC3233709F4F3C2273709F486
:101CF000BDC2223709F450CED8011696CD90DC90A3
:101D00001797D601ED91FC910280F381E02D62E2FC
:101D1000C6012F830995D601ED91FC910280F381D4
:101D2000E02D2F81622FC60109956BE0C6010E944C
:101D30008A366C0164EC78E00E9445366BE0C6019F
:101D40000E948A366C0167EC78E041C0F801868118
:101D50009781DC01ED91FC910680F781E02D0995DA
:101D6000282F8C3641F00CF051C2833009F440C367
:101D7000833609F051C260E0C8010E948232D7CD9B
:101D8000F801C680D780D601ED91FC910280F381E5
:101D9000E02D62E2C6012F830995D601ED91FC91F9
:101DA0000280F381E02D2F81622FC60109956BE03F
:101DB000C6010E948A366C0164E779E00E944536CC
:101DC0006BE0C6010E948A366C0167E779E0C601C4
:101DD0000E94453666E0C6010E948A36A8CDD80129
:101DE0001696CD90DC901797D601ED91FC9102806C
:101DF000F381E02D62E2C6012F830995D601ED91B2
:101E0000FC910280F381E02D2F81622FC60109959C
:101E10006BE0C6010E948A366C0168ED79E00E9491
:101E200045366BE0C6010E948A366C016BED79E0A5
:101E3000CECF8330A1F66BE0F801868197810E94B6
:101E40008A368C0168E07AE00E94453666E0C80177
:101E50000E948A362BE088E190E00FB6F894A895AE
:101E6000809360000FBE20936000FFCF6BE0F8010D
:101E7000868197810E948A366C0168E37AE0BDCD45
:101E8000833009F07DCF6BE0D80116968D919C913F
:101E900017970E948A368C0164EA79E00E944536E1
:101EA00066E0C8010E948A362BE088E190E00FB618
:101EB000F894A895809360000FBE20936000FFCF38
:101EC0006BE0F801868197810E948A366C0162EB93
:101ED00079E00E94453666E0C6010E948A3662E0DB
:101EE000C8010E94823284E0982E21CDB1E09B1679
:101EF00009F492C0B2E09B1609F475C0B3E09B16DA
:101F000009F43AC0F4E09F1212CD22EEE216F10479
:101F100008F055C00FB6F8940F92E091BC05F0910F
:101F2000BD05E0860F900FBE6BE0D80116968D912F
:101F30009C9117970E948A367C0161E37BE00E94A6
:101F4000453666E0C7010E948A3660E0C8010E94FB
:101F5000823235E0932EE12CF12CE9CCD801169693
:101F60008D919C9117970E948A366BE00E948A3669
:101F70006C0162E37CE0D6CDC7010F970F9748F55F
:101F80000FB6F8940F92E091C005F091C105E0867C
:101F90000F900FBE0FB6F8940F92E091BE05F0912E
:101FA000BF0580860F900FBEC8010E945B0860E0ED
:101FB000C8010E948232912CE12CF12CB8CC6BE04C
:101FC000F801868197810E948A367C016FEF7AE062
:101FD000C5CD6BE0F801868197810E948A367C012D
:101FE00066E57BE0BBCDEFEFEE16F10411F008F0F3
:101FF0004AC00FB6F8940F92E091E605F091E7051C
:10200000F186E0860F900FBE0FB6F8940F92E09124
:10201000E405F091E505C5CFEFEFEE16F10409F008
:1020200030F5662019F0F194E194F1080FB6F894B8
:102030000F92E091EA05F091EB05F186E0860F90B2
:102040000FBE0FB6F8940F92E091E805F091E90504
:1020500080860F900FBEC8010E945B0860E0C80137
:102060000E948232612C912CE12CF12C60CC6BE02F
:10207000D80116968D919C9117970E948A367C0103
:102080006AEB7BE06BCD6BE0D80116968D919C914D
:1020900017970E948A367C0168E87BE05FCD71105B
:1020A00040C0D8011696ED90FC901797D701ED919E
:1020B000FC910280F381E02D62E2C7012F83099534
:1020C000D701ED91FC910280F381E02D2F81622FE9
:1020D000C70109956BE0C7010E948A367C016FEC4D
:1020E0007AE00E9445366BE0C7010E948A367C0187
:1020F00062ED7AE033CD67E172E0F8018681978185
:102100000E94453614CCF80186819781DC01ED915F
:10211000FC910280F381E02D6DE2099566246394C1
:1021200006CCF80186819781DC01ED91FC9102805B
:10213000F381E02D6FE70995F80186819781DC0135
:10214000ED91FC910280F381E02D60E20995F801A8
:1021500086819781DC01ED91FC910280F381E02D75
:102160006FE70995C701B1010E942E427B017A9465
:10217000DECBF80186819781DC01ED91FC91028034
:10218000F381E02D622F2F830995C701880F991FD6
:10219000EE0CFF1CEE0CFF1CEE0CFF1C8E0D9F1DA9
:1021A0002F81E22EFF24E7FCF094B0E3EB1AF10854
:1021B000E80EF91E7394BBCB8091EE059091EF056C
:1021C000DC01ED91FC910480F581E02D09958823D7
:1021D00009F4ADCBD8011696ED91FC9117970190BB
:1021E000F081E02DC280D3808091EE059091EF05C3
:1021F000DC01ED91FC910680F781E02D0995682FB7
:10220000F80186819781F601099591CB803709F411
:10221000B2CD823709F4C0CBD8011696CD90DC90B0
:102220001797D601ED91FC910280F381E02D62E2D7
:10223000C6012F830995D601ED91FC910280F381AF
:10224000E02D2F81622FC60109956BE0C6010E9427
:102250008A366C0166E379E00E9445366BE0C60180
:102260000E948A366C0169E379E0B1CDE091EA051C
:10227000F091EB050FB6F8940F920F900FBE80858A
:10228000918544960FB6F8940F92918780870F90AE
:102290000FBE0FB6F8940F920F900FBE8F3F9105AF
:1022A0004CF00FB6F8940F928FEF90E091878087F3
:1022B0000F900FBE0FB6F8940F92E091E805F091E1
:1022C000E90550860F900FBE67E0C8010E94823278
:1022D0002ECBE091EA05F091EB050FB6F8940F9242
:1022E0000F900FBE8085918544970FB6F8940F929A
:1022F000918780870F900FBE0FB6F8940F920F90C2
:102300000FBE82309F4FB4F60FB6F8940F9281E063
:102310009FEF918780870F900FBECCCF233009F4B9
:102320002BC0213609F0E8CCE091C005F091C10541
:102330000FB6F8940F920F900FBE80858F5F0FB687
:10234000F8940F9280870F900FBE0FB6F8940F92FB
:102350000F900FBE8D3138F00FB6F8940F929DE1BB
:1023600090870F900FBE0FB6F8940F92E091BE05C4
:10237000F091BF058086A6CF6BE0F801868197813A
:102380000E948A368C0164EF78E00E94453666E050
:10239000C8010E948A362BE088E190E00FB6F894DD
:1023A000A895809360000FBE20936000FFCFE0915E
:1023B000C005F091C1050FB6F8940F920F900FBEB3
:1023C000808581500FB6F8940F9280870F900FBED2
:1023D0000FB6F8940F920F900FBE803108F0C3CF64
:1023E0000FB6F8940F92AFE0A0870F900FBEBBCF4F
:1023F0006BE0F801868197810E948A368C0166E63F
:1024000079E00E94453666E0C8010E948A362BE0DA
:1024100088E190E00FB6F894A895809360000FBE15
:1024200020936000FFCF0FB6F8940F92E091EC0577
:10243000F091ED05E0860F900FBEC8010E94C8091B
:1024400063E0C8010E948232E12CF12C70CAD801ED
:102450001696CD90DC901797D601ED91FC910280F5
:10246000F381E02D62E2C6012F830995D601ED913B
:10247000FC910280F381E02D2F81622FC601099526
:102480006BE0C6010E948A366C0164E47CE00E9425
:1024900045366BE0C6010E948A366C0167E47CE039
:1024A00096CC803709F479C0823709F475CAF801EF
:1024B000C680D780D601ED91FC910280F381E02D9A
:1024C00062E2C6012F830995D601ED91FC9102804D
:1024D000F381E02D2F81622FC60109956BE0C601C3
:1024E0000E948A366C0161E57AE00E9445366BE015
:1024F000C6010E948A366C0164E57AE068CC6BE024
:10250000D80116968D919C9117970E948A368C015E
:1025100061E87AE00E94453666E0C8010E948A368A
:102520002BE088E190E00FB6F894A89580936000C6
:102530000FBE20936000FFCF0FB6F8940F92E0918A
:10254000E205F091E30580860F900FBE0FB6F89478
:102550000F92E091EC05F091ED05B0840F900FBE65
:102560006BE0F801868197810E948A366C016FE8E2
:102570007AE00E9445366B2DC6010E94FE366BE064
:102580000E948A366C0166E97AE0C6010E944536EF
:1025900066E0C6010E948A36FFC90FB6F8940F9212
:1025A000E091EC05F091ED05B0840F900FBE6BE06B
:1025B000F801868197810E948A366C0167EB7AE088
:1025C0000E9445366B2DC6010E94FE366C0169E102
:1025D00072E00E94453666E0C6010E948A3662E0DB
:1025E000C8010E94823299249394A1C96BE0F8013A
:1025F000868197810E948A368C0164E77CE00E9484
:10260000453666E0C8010E948A362BE088E190E0FA
:102610000FB6F894A895809360000FBE20936000D9
:10262000FFCF833709F45FC0843709F010CFCE01A4
:1026300001960E947635BC01F801868197810E943F
:10264000153566E00E948A3672C9F801C680D780C7
:10265000D601ED91FC910280F381E02D62E2C6018A
:102660002F830995D601ED91FC910280F381E02D35
:102670002F81622FC60109956BE0C6010E948A3640
:102680006C0162E87CE00E9445366BE0C6010E9466
:102690008A366C0165E87CE09ACBE091C405F09144
:1026A000C5050FB6F8940F9280850F900FBE882352
:1026B000F1F00FB6F8940F920F900FBE813009F031
:1026C00036C90FB6F8940F9210860F900FBE6BE0CC
:1026D000D80116968D919C9117970E948A366C01AD
:1026E0006CEE7CE052CFC8010E94A10B20C90FB64E
:1026F000F8940F9280860F900FBE6BE0F8018681F0
:1027000097810E948A366C0164E07DE00E94453624
:1027100066E0C6010E948A36C8010E94560B64E03A
:10272000C8010E94823203C9833009F08ECF6BE06A
:10273000D80116968D919C9117970E948A368C012C
:1027400062EB7CE00E94453666E0C8010E948A3652
:102750002BE088E190E00FB6F894A8958093600094
:102760000FBE20936000FFCFC8010E94610961E0A5
:10277000C8010E9482320C94970C8D3691F12CF195
:10278000823709F409C9833709F05FCFC8010E9475
:102790003D0A64E0C8010E9482320C94970CC80183
:1027A0000E94EC080FB6F8940F92E091E805F091C2
:1027B000E90540860F900FBE0FB6F8940F92E09196
:1027C000BE05F091BF0550867DCD883609F03DCF1E
:1027D000C8010E94EF0A66E0C8010E9482320C9490
:1027E000970C6BE0F801868197810E948A367C0104
:1027F00060EC7CE00E94453666E0C7010E948A36A4
:102800000FB6F8940F92E091EC05F091ED0510866B
:102810000F900FBE62E0C8010E948232912CE12C21
:10282000F12C0C94970CEC0183E090E00E940E36A2
:102830008C016E817F8141E00E944A1983E090E023
:102840000E940E367C016E817F8142E00E944A190F
:10285000E091E805F091E9050FB6F8940F92108623
:102860000F900FBE80E037C00FB6F8940F920F9014
:102870000FBE823009F4A9C00FB6F8940F920F90E2
:102880000FBE833009F4BEC0E091E405F091E50588
:102890000FB6F8940F920F900FBE8085813009F427
:1028A0006CC0A091E205B091E3050FB6F8940F92C9
:1028B0000F900FBE18968C911897813009F430C094
:1028C00064E670E080E090E00E947D2EE091E805F3
:1028D000F091E90580850FB6F8940F920F900FBE26
:1028E000813009F0C1CF0FB6F8940F92A091EC059A
:1028F000B091ED0518968C910F900FBE813009F4C0
:1029000098C00FB6F8940F920F900FBE823009F462
:10291000D3C00FB6F8940F9210860F900FBEB4CFAD
:102920000FB6F8940F92C091EC05D091ED05888513
:102930000F900FBE813009F470C00FB6F8940F925B
:102940000F900FBE823009F4ABC00FB6F8940F920F
:10295000C091E805D091E90518860F900FBE0FB61B
:10296000F8940F9210860F900FBE0FB6F8940F9246
:1029700018961C920F900FBEA3CF0FB6F8940F922B
:10298000A091EC05B091ED0518968C910F900FBEBB
:10299000813009F461C00FB6F8940F920F900FBE0A
:1029A000823009F46BC00FB6F8940F92A091E8053D
:1029B000B091E90518961C920F900FBE0FB6F894CF
:1029C0000F9210860F900FBE6CCF0FB6F8940F9237
:1029D0000F900FBEE091EA05F091EB0560857185DF
:1029E000C8010E9486190FB6F8940F920F900FBE7F
:1029F000E091EA05F091EB0560857185C7010E94C1
:102A0000861942CF60E070E0C8010E94861960E03C
:102A100070E0C7010E94861937CFC8010E94B5191E
:102A2000A091E205B091E305E091E405F091E505A0
:102A30008CCF0FB6F8940F920F900FBEE091EA057D
:102A4000F091EB0560857185C8010E948619E091BF
:102A5000E805F091E9055DCF0FB6F8940F920F905D
:102A60000FBEE091E605F091E7056085C8010E9480
:102A7000C519E091E405F091E50595CF0FB6F894FE
:102A80000F920F900FBEE091E605F091E70560858B
:102A9000C7010E94C519E091E405F091E50583CFD7
:102AA000C7010E94B519A091E205B091E305E0913C
:102AB000E405F091E50549CF0FB6F8940F920F9019
:102AC0000FBEE091EA05F091EB0560857185C701C5
:102AD0000E948619E091E805F091E9051ACF0F935D
:102AE0001F93CF93DF93EC010E94CC3188E392E0F7
:102AF00099838883DF91CF911F910F910895CF9390
:102B0000DF9300D000D0CDB7DEB78C0182E090E03B
:102B10000E940E365C01F8016681778147E00E94D1
:102B2000DE1982E090E00E940E366C01F8016681A9
:102B3000778145E00E94DE19812C912C40E050E025
:102B4000E091E005F091E1050FB6F8940F928085D1
:102B500091859C838B830F900FBEEB80FC80E0916E
:102B6000DE05F091DF050FB6F8940F928085918510
:102B70009A8389830F900FBE09811A81B701C5011D
:102B80000E94851AE091D405F091D5050FB6F8940E
:102B90000F92718760870F900FBEA401B801C60124
:102BA0000E94851AE091D205F091D3050FB6F894F2
:102BB0000F92718760870F900FBE65E070E080E034
:102BC00090E00E947D2EA7014801BACF0F931F937A
:102BD000CF93DF93EC010E94CC3180E492E09983A3
:102BE0008883DF91CF911F910F910895CF93DF9349
:102BF000CDB7DEB7E0970FB6F894DEBF0FBECDBFFE
:102C00004C0182E090E00E940E3698AB8FA7F40151
:102C1000668177810E94D11C0E94762C6B8F7C8FFD
:102C20008D8F9E8F8FE190E00E940E362C01F40173
:102C3000668177810E94C91E8FE190E00E940E3666
:102C40003C01F401668177810E94C91EE091D405A0
:102C5000F091D5050FB6F8940F92118610860F905B
:102C60000FBE0FB6F8940F92E091CC05F091CD0510
:102C700010861186128613860F900FBE82E08E8713
:102C800080E0B82E8F8784E0888B80E091E0D82E9A
:102C9000898B9A8B1C8A1B8A182F8D8B9E8B81E0C7
:102CA000382F8F8B8FEF888F582F898F1A8E42E0A5
:102CB000A42E64E0C62EEE24E394F12C0C8921E0CE
:102CC0004FEF60E0C2010E94031FE091D205F09136
:102CD000D3050FB6F8940F92118610860F900FBE91
:102CE0000FB6F8940F92E091CA05F091CB051086CB
:102CF0001186128613860F900FBE82E0898380E0D2
:102D0000B82E8A8384E08B8380E091E0D82E8C8378
:102D10009D831F821E82182F8887998781E0382F14
:102D20008A878FEF8B87582F8C871D860F8121E034
:102D30004FEF60E0C3010E94031F77EAC72ED12C3A
:102D4000E12CF12C15C0F40186859785A089B18905
:102D50000196A11DB11DF40186879787A08BB18BC9
:102D600045E050E060E070E0CE014B960E94162EE8
:102D70000FB6F8940F920F900FBEE091C405F0913A
:102D8000C50580858130F9F64AE060E08FA598A9F5
:102D90000E94041D929582958F7089279F708927C4
:102DA000182F28E2280F213508F45BC087FD90C159
:102DB000882309F46EC1E091D405F091D5050FB6D2
:102DC000F8940F92808591859AA789A70F900FBEDE
:102DD00069A57AA548E250E0C2010E943B200FB6E7
:102DE000F8940F92E091C805F091C905918780870A
:102DF0000F900FBEE091D205F091D3050FB6F89475
:102E00000F92808591859CA38BA30F900FBE6BA121
:102E10007CA148E250E0C3010E943B200FB6F89429
:102E20000F92E091C605F091C705918780870F90BA
:102E30000FBE18E2F4013684A784B0880189632D9F
:102E40007A2D8B2D902FA70196010E944242672B6D
:102E5000682B692B09F446C0832D9A2DAB2DB02F1A
:102E600077CFA82EBB24A7FCB094E091D405F091B5
:102E7000D5050FB6F8940F92808591859EA78DA7F2
:102E80000F900FBE6DA57EA5A501C2010E943B203B
:102E90000FB6F8940F92E091C805F091C90591879B
:102EA00080870F900FBEE091D205F091D3050FB649
:102EB000F8940F928085918598A78FA30F900FBEED
:102EC0006FA178A5A501C3010E943B200FB6F8941D
:102ED0000F92E091C605F091C705918780870F900A
:102EE0000FBEA8CFE091D405F091D5050FB6F894A8
:102EF0000F92808591859AA389A30F900FBE29A078
:102F00003AA06BE0F401868197810E948A365C01C9
:102F100063EB7DE00E944536B101C5010E94CF36CA
:102F200066E00E948A366BE0F401868197810E94F8
:102F30008A365C0167E97DE00E944536612FC50154
:102F40000E94FE366BE00E948A365C016AEA7DE0F0
:102F50000E94453666E0C5010E948A36C2010E9481
:102F6000581F1C016BE0F401868197810E948A360C
:102F70005C0164E87DE00E944536B101C5010E9414
:102F8000CF3666E00E948A36C2010E945C1F1C0197
:102F90006BE0F401868197810E948A365C0161E7CB
:102FA0007DE00E944536B101C5010E94CF3666E042
:102FB0000E948A3666E00E948A36E091D205F0913E
:102FC000D3050FB6F8940F928085918598A38F8FC3
:102FD0000F900FBE2F8C38A06BE0F4018681978193
:102FE0000E948A365C016EE57DE00E944536B101A3
:102FF000C5010E94CF3666E00E948A366BE0F4017C
:10300000868197810E948A365C0162E47DE00E949D
:103010004536612FC5010E94FE366BE00E948A365C
:103020008C0165E57DE00E94453666E0C8010E949E
:103030008A36C3010E94581F5C016BE0F40186814F
:1030400097810E948A368C016FE27DE00E944536AE
:10305000B501C8010E94CF3666E00E948A36C301DE
:103060000E945C1F5C016BE0F401868197810E94E5
:103070008A368C016CE17DE00E944536B501C801BD
:103080000E94CF3666E00E948A3666E00E948A3649
:103090005ACE6BE0F401868197810E948A365C01EA
:1030A00060ED7DE00E94453666E0C5010E948A36EB
:1030B0006BE0F401868197810E948A365C0166ECA0
:1030C0007DE00E94453666E0C5010E948A36B2CE98
:1030D000E091D405F091D5050FB6F8940F92808554
:1030E00091859CA78BA70F900FBE6BA57CA548ED83
:1030F0005FEFC2010E943B200FB6F8940F92E0915F
:10310000C805F091C905918780870F900FBEE091A7
:10311000D205F091D3050FB6F8940F928085918572
:103120009EA38DA30F900FBE6DA17EA148ED5FEF12
:10313000C3010E943B200FB6F8940F92E091C605A0
:10314000F091C705918780870F900FBE18ED72CE62
:103150000F931F93CF93DF93EC010E94CC3188E44F
:1031600092E099838883DF91CF911F910F91089509
:103170008C0184E090E00E940E36EC01F80166813B
:1031800077810E940F1CCE010E94521C61E0CE018B
:103190000E94631C62E0CE010E94631C63E0CE01CA
:1031A0000E94631C60ED77E080E090E00E947D2E3D
:1031B000EACF0F931F93CF93DF93EC010E94CC31A2
:1031C00080E592E099838883DF91CF911F910F91E1
:1031D00008958C0182E090E00E940E36EC01F80127
:1031E000668177810E94B81C0FB6F8940F92E09127
:1031F000C005F091C10586E180870F900FBE13C016
:103200000FB6F8940F920F900FBE823051F10FB6A7
:10321000F8940F9210860F900FBE6AE070E080E085
:1032200090E00E947D2EE091BE05F091BF050FB6A3
:10323000F8940F9280850F900FBE813009F70FB67A
:10324000F8940F920F900FBEE091C005F091C10568
:103250006085CE010E94C51CE091BE05F091BF05BE
:10326000D6CF66E1CE010E94C51CE091BE05F0916B
:10327000BF05CDCF0F931F93CF93DF93EC010E9437
:10328000CC3188E592E099838883DF91CF911F91BB
:103290000F910895CF93DF93FC0171836083428384
:1032A00080918000816A809380008091800080936B
:1032B0008000809181008A608093810080918100EC
:1032C000809381008281813089F08230B9F0C081A1
:1032D000D181209781F06CE572E0CE010E944536E5
:1032E00066E0CE01DF91CF910C948A3687B187607A
:1032F00087B9329A269ADF91CF9108958AB1806E6C
:103300008AB94F9A259ADF91CF910895FC012281C5
:10331000213071F0223009F0089577FD18C08BB18B
:103320008BB95E985D9A70938900609388000895C8
:1033300028B128B977FD13C04198409A70938B004B
:1033400060938A00FC018281823049F308958BB139
:103350008BB95E9A5D98719561957109E4CF419A38
:103360004098719561957109E9CFFC012281213066
:1033700039F0223009F008958BB180668BB9089539
:1033800028B1236028B92281F4CFFC0122812130A9
:1033900059F0223009F008958BB18BB970E0709329
:1033A000890060938800089528B128B9262F30E05D
:1033B00030938B0020938A002281EBCFCF93DF9351
:1033C000E091E005F091E1050FB6F8940F921186B7
:1033D00010860F900FBEE091DE05F091DF050FB66D
:1033E000F8940F92118610860F900FBEE091DC05C5
:1033F000F091DD050FB6F8940F9210860F900FBE76
:10340000E091DA05F091DB050FB6F8940F92108683
:103410000F900FBEE091D805F091D9050FB6F89442
:103420000F9210860F900FBEE091D605F091D70550
:103430000FB6F8940F9210860F900FBE60916A003D
:10344000242F30E081E090E0FC01042E01C0EE0F5B
:103450000A94EAF75E2F5095562350936A005091D4
:103460006A00B90161507109DC0102C0AA0FBB1FDB
:103470006A95E2F7BD015A2B50936A0050916A0099
:10348000D9011297EC0102C0CC0FDD1FAA95E2F71B
:10349000DE01A095A523A0936A0050916A00D9018E
:1034A0001397EC0102C0CC0FDD1FAA95E2F75C2B4D
:1034B00050936A00473011F1433049F08DB18F705D
:1034C0008DB98EB1806F8EB9DF91CF9108956DB3B4
:1034D000A9014E5F5F4FFC0102C0EE0FFF1F4A952E
:1034E000E2F76E2B6DBB4DB32F5F3F4F022E01C035
:1034F000880F0A94EAF7482B4DBBE0CF8DB38E2B93
:103500008DBB8DB3862B8DBBD9CF461B570BBA0114
:1035100080E090E008951F920F920FB60F92112451
:103520000BB60F928F939F93AF93BF93EF93FF933D
:10353000CF93DF93CDB7DEB72597DEBFCDBFE09148
:10354000DA05F091DB050FB6F8940F9280858D8334
:103550000F900FBE8D81A091DC05B091DD050FB6F7
:10356000F8940F9218968C9318970F900FBE9CB1F9
:103570008CB180729071892B90E095958795959587
:10358000879595958795959587950FB6F8940F92A1
:1035900080870F900FBE18968C91813009F454C02B
:1035A00008F442C0823039F1833089F4808581305B
:1035B00009F451C08085823009F03CC0E091E005FB
:1035C000F091E105808591850197918780870F9023
:1035D0000F900F900F900F90DF91CF91FF91EF918F
:1035E000BF91AF919F918F910F900BBE0F900FBE27
:1035F0000F901F9018958085833069F18085811127
:1036000019C0E091E005F091E1050FB6F8940F9232
:10361000808591859A8389830F900FBE89819A81D5
:10362000019791878087D3CF80858230A1F08085F4
:103630008130D9F0E091D005F091D1058085918558
:10364000019691878087C3CF8085882321F080856C
:10365000833081F7B3CFE091E005F091E1058085FB
:103660009185019691878087B2CFE091E005F09136
:10367000E1050FB6F8940F92808591859C838B832A
:103680000F900FBE8B819C810197918780879FCF80
:103690000C948B1A1F920F920FB60F9211240BB637
:1036A0000F928F939F93AF93BF93EF93FF93E0910C
:1036B000D605F091D7058085A091D805B091D905A0
:1036C00018968C9318979CB18CB180789074892B44
:1036D00090E0082E892F000C881F990B000C881F82
:1036E000991F808718968C918130C1F138F1823012
:1036F00049F08330B1F480858130B9F18085823022
:1037000019F506C08085833081F1808581111CC048
:10371000E091DE05F091DF05808591850197918725
:103720008087FF91EF91BF91AF919F918F910F9003
:103730000BBE0F900FBE0F901F90189580858230A2
:10374000A1F08085813021F3E091CE05F091CF0585
:1037500080859185019691878087E3CF8085882336
:1037600021F08085833081F7D3CFE091DE05F091A1
:10377000DF0580859185019691878087D2CF0C9453
:103780004A1BCF93DF93EC01262F4DE360E58A813E
:103790009B810E940C246BE0888199810E948A366B
:1037A000EC0160E17EE00E94453666E0CE01DF91EB
:1037B000CF910C948A36CF93DF93EC01262F4EE302
:1037C00060E58A819B810E940C246BE0888199814D
:1037D0000E948A36EC016DEF7DE00E94453666E07E
:1037E000CE01DF91CF910C948A36CF93DF93EC0119
:1037F00020E04BE360E58A819B810E940C246BE012
:10380000888199810E948A36EC016FEE7DE00E94EA
:10381000453666E0CE01DF91CF910C948A360F9346
:103820001F93CF93DF93EC017983688384E090E06A
:103830000E940E368C01688179810E948D211B8344
:103840000A8340E060E5C8010E947B226BE0803A79
:1038500009F1888199810E948A368C016EE47EE0AC
:10386000C8010E94453666E0C8010E948A3660E0C1
:10387000CE010E94C11B60E0CE010E94DB1BCE0185
:103880000E94F51B6CE0CE01DF91CF911F910F914B
:103890000C94C11B888199810E948A368C0167E251
:1038A0007EE0DECFCF93DF93EC0149E360E58A81D0
:1038B0009B810E947B2246E360E58A819B81DF91A8
:1038C000CF910C947B221F93CF93DF93EC01613057
:1038D000D1F1623009F440C06330A1F06BE088811F
:1038E00099810E948A36EC016AED7DE00E9445369E
:1038F00066E0CE010E948A3680E090E0DF91CF91B1
:103900001F9108954FE160E58A819B810E947B228F
:10391000182F4EE160E58A819B810E947B22212F36
:1039200030E0322F2227282B37FD1FC0C901959583
:103930008795959587959595879595958795DF9129
:10394000CF911F9108954BE160E58A819B810E9490
:103950007B22182F4AE1DECF4DE160E58A819B8111
:103960000E947B22182F4CE1D5CF215F3F4FDECF45
:1039700084B5836884BD84B58F7B84BD85B585BDE2
:1039800085B5856085BD279A08956F3038F06E3112
:1039900010F467BD08956DE167BD08956FE067BDE0
:1039A0000895FC0171836083EAE7F0E0808180681C
:1039B000808380818160808380818D7F808380810E
:1039C00084608083ECE7F0E0808180648083808184
:1039D0008F778083089580917C00887F80937C001E
:1039E00080917C006770682B60937C0080917A00E6
:1039F000806480937A0080917A0086FDFCCF80916C
:103A00007800909179000895403430F1ECE3F0E0D3
:103A10004CE3677080E090E020917C00287F209349
:103A20007C0020917C00262B20937C0020917A0042
:103A3000206420937A0020917A0026FDFCCF20910B
:103A4000780030917900820F931F415029F7BF0110
:103A50000E941A42CB010895442319F0E42FF0E0AC
:103A6000D8CFE0E0F0E080E090E0BF010E941A4291
:103A7000CB0108952F923F924F925F926F927F9267
:103A80008F929F92AF92BF92CF92DF92EF92FF926E
:103A90000F931F93CF93DF9300D000D000D0CDB70A
:103AA000DEB79E838D8380917C00887F80937C002D
:103AB00080917C00876080937C0080917A00806494
:103AC00080937A0080917A0086FDFCCF2091780067
:103AD0003091790080917C00887F80937C00809178
:103AE0007C00866080937C0080917A008064809363
:103AF0007A0080917A0086FDFCCF2090780030908B
:103B0000790080917C00887F80937C0080917C008C
:103B1000856080937C0080917A00806480937A0035
:103B200080917A0086FDFCCF40907800509079001B
:103B300080917C00887F80937C0080917C008460F1
:103B400080937C0080917A00806480937A008091D9
:103B50007A0086FDFCCF0091780010917900809169
:103B60007C00887F80937C0080917C0083608093C0
:103B70007C0080917A00806480937A0080917A0042
:103B800086FDFCCFE0907800F090790080917C0079
:103B9000887F80937C0080917C00826080937C0091
:103BA00080917A00806480937A0080917A0086FD0B
:103BB000FCCFC0907800D090790080917C00887F05
:103BC00080937C0080917C00816080937C00809158
:103BD0007A00806480937A0080917A0086FDFCCF21
:103BE000A0907800B090790080917C00887F8093CD
:103BF0007C0080917C0080937C0080917A008064BE
:103C000080937A0080917A0086FDFCCF80907800C6
:103C10009090790040917C0050917A006BE08D810A
:103C20009E812B833C834A8359830E948A363C01C0
:103C300064E77EE00E9445365981652FC3010E94EA
:103C4000BC3766E00E948A366BE00E948A363C01EF
:103C50006DE77EE00E9445364A81642FC3010E94D1
:103C6000BC3766E00E948A366BE00E948A363C01CF
:103C700065E87EE00E944536B401C3010E943A37F0
:103C800066E00E948A366BE00E948A364C016DE83D
:103C90007EE00E944536B501C4010E943A3766E0D5
:103CA0000E948A366BE00E948A365C0165E97EE0FC
:103CB0000E944536B601C5010E943A3766E00E946F
:103CC0008A366BE00E948A366C016DE97EE00E94C4
:103CD0004536B701C6010E943A3766E00E948A362F
:103CE0006BE00E948A367C0165EA7EE00E944536E0
:103CF000B801C7010E943A3766E00E948A366BE03D
:103D00000E948A368C016DEA7EE00E944536B2013F
:103D1000C8010E943A3766E00E948A366BE00E9432
:103D20008A368C0165EB7EE00E944536B101C80100
:103D30000E943A3766E00E948A366BE00E948A361B
:103D40008C016DEB7EE00E9445362B813C81B901F0
:103D5000C8010E943A3766E00E948A368D819E81B2
:103D600026960FB6F894DEBF0FBECDBFDF91CF9180
:103D70001F910F91FF90EF90DF90CF90BF90AF9089
:103D80009F908F907F906F905F904F903F902F907B
:103D90000895CF93DF93EC01DC016D937D938DE06B
:103DA000E8E0F2E001900D928A95E1F7188A1F860B
:103DB0001A8A198A1C8A1B8A1E8A1D8A188E1F8AD3
:103DC0001C8E1B8EDF91CF910895FC016283148EAF
:103DD000138E0895CF93DF93EC01CB016F85788923
:103DE000788F6F8B988B8F870E9412219A8F898F83
:103DF000DF91CF910895FC01728B618B0895FC01D6
:103E0000748B638B0895AF92BF92CF92DF92EF9243
:103E1000FF920F931F93CF93DF93CDB7DEB72D970C
:103E20000FB6F894DEBF0FBECDBFA982BA82CB8297
:103E3000DC82ED82FE820F83188729873A874B87C1
:103E40005C876D872DE0FE013196DC0112960190B2
:103E50000D922A95E1F7FC01148E138E2D960FB664
:103E6000F894DEBF0FBECDBFDF91CF911F910F91B0
:103E7000FF90EF90DF90CF90BF90AF900895FC013E
:103E8000748363830895FC01768365830895FC0140
:103E9000708767830895FC01728761870895FC012C
:103EA00074876387568745870895FC01828108954A
:103EB000FC01878590890895FC0181899289089584
:103EC000FC018389948908952DE0FB013296DC0181
:103ED00001900D922A95E1F70895FC018581968164
:103EE0000895FC01838194810895FC018781908568
:103EF0000895FC01818592850895FC018385948550
:103F00000895FC018585968508950F931F93CF939F
:103F1000DF93EC018F8598892B893C89821B930B59
:103F20009E8B8D8B6D8D7E8D89859A850E945C21FF
:103F300040E054E00E946E218C016D897E898B8D5A
:103F40009C8D0E94F520B8010E9412219C8F8B8FBE
:103F50008A81833009F472C090F5813009F463C01E
:103F6000823009F044C06D897E898B819C810E94DA
:103F70005C2140E054E00E946E218C016B8D7C8DB1
:103F80008D819E810E945C2140E054E00E946E2160
:103F9000B8010E94F5206D857E8568177907D4F0F9
:103FA0006B857C85861797070CF458C01E8E1D8E76
:103FB0009A8B898BDF91CF911F910F910895843057
:103FC000C9F08530A1F489899A896D857E85681745
:103FD000790734F70E9412219E8F8D8F8D859E85E3
:103FE000898B9A8BDF91CF911F910F91089580E07B
:103FF00090E0D1CF6D897E898B819C810E945C216C
:1040000040E054E00E946E218C01698D7A8D8F8191
:1040100098850E945C2140E054E00E946E21B80126
:104020000E94F520AACF6D897E898B819C810E9498
:104030005C2140E054E00E946E21ADCF6D897E8905
:104040008B819C810E945C2140E054E00E946E21A3
:104050008C01698D7A8D8F81988594CF0E94122171
:104060009E8F8D8F8B859C85898B9A8BDF91CF91CD
:104070001F910F9108950F931F93CF93DF93EC013E
:10408000CB018A016F857889788F6F8B988B8F87AA
:104090000E9412219A8F898F1C8B0B8BCE01DF918E
:1040A000CF911F910F910C94851F4F925F926F9249
:1040B0007F928F929F92AF92BF92CF92DF92EF92B8
:1040C000FF920F931F93CF93DF93EC01FB01418489
:1040D00052846780708403811481E580F680C584F2
:1040E000D684A384B4848280912C6DE872E00E940F
:1040F000453662E0CE010E948A36B4010E94CF3676
:1041000066E00E948A364C0168E972E00E944536FA
:1041100062E0C4010E948A36B5010E94CF365C017C
:1041200065EA72E00E94453662E0C5010E948A3667
:10413000B6010E94CF3666E00E948A366C016AEAB8
:1041400072E00E94453666E0C6010E948A366C0124
:1041500061EB72E00E94453662E0C6010E948A3639
:10416000B7010E94CF3666E00E948A367C016DEB73
:1041700072E00E94453662E0C7010E948A36B801AB
:104180000E94CF3666E00E948A368C0169EC72E0AC
:104190000E94453662E0C8010E948A36B3010E943F
:1041A000CF3666E00E948A368C0165ED72E00E948F
:1041B000453662E0C8010E948A36B2010E94CF36BD
:1041C00066E00E948A36CE01DF91CF911F910F9158
:1041D000FF90EF90DF90CF90BF90AF909F908F9027
:1041E0007F906F905F904F9008959C01432F409572
:1041F000441F4427441F80E090E8841B9109AC01D0
:10420000421B530BE1E0461757070CF0E0E0432F49
:104210004095441F4427441FE41719F0C901860F35
:10422000971F08958617970799F1611520E872077F
:1042300041F1719561957109492F4095441F4427BB
:10424000441F20E030E8241B3109A901481B590B09
:10425000E1E04617570764F4492F4095441F44276F
:10426000441FE41719F0860F971F0895C901089598
:10427000E0E0492F4095441F4427441FE417B1F361
:10428000F2CF97FD03C06FEF7FE7D6CF0196FBCF4C
:1042900080E090E00895811520E8920729F09C01C4
:1042A00097FD05C0C90108958FEF9FE708953195E7
:1042B00021953109C9010895811520E8920729F057
:1042C0009C01DB010E94E1410895611520E872071D
:1042D000B9F76FEF7FEF8FEF9FE708959A014427BB
:1042E00037FD4095542F0E946442211580E838071D
:1042F0004105510524F02FEF3FE740E050E0DA019F
:10430000C901811520E892072FEFA207B20724F414
:1043100080E090E8AFEFBFEF0895CF93DF93EC011B
:104320007983688388E48093B80081E00E947D28C7
:104330009B838A83892B19F0DF91CF91089509908F
:10434000D881C02D2097C1F36DE275E0CE010E94A7
:10435000453666E0CE01DF91CF910C948A3684EA2F
:104360008093BC008091BC0087FD0AC089EE93E079
:1043700003C00197009769F02091BC0027FFF9CF97
:104380009091B900987F81E0983009F0089580E01D
:10439000089581E008951F93CF93DF9324EA20933B
:1043A000BC002091BC0027FD0CC029EE33E005C005
:1043B0002150310921153105C1F14091BC0047FF61
:1043C000F7CF2091B900287F203151F1FC01808185
:1043D0009181009729F11091B9006BE00E948A3613
:1043E000EC0169E17FE00E94453663E0CE010E9466
:1043F0008A36612F0E94BC376BE00E948A36EC013E
:104400006AE27FE00E94453662E0CE010E948A3671
:1044100066E00E948A3680E0DF91CF911F91089577
:1044200080E0DF91CF911F91089581E0DF91CF91DE
:104430001F910895CF93DF936093BB0024E82093EE
:10444000BC002091BC0027FD0CC029EE33E005C064
:10445000215031092115310591F04091BC0047FFF1
:10446000F7CF9091B900987F81E0983129F0983288
:1044700019F0903409F080E0DF91CF910895FC01AC
:10448000808191810097B9F36BE00E948A36EC013C
:1044900068E07FE00E94453666E0CE010E948A36E1
:1044A00080E0DF91CF9108956623E9F084EC80935A
:1044B000BC0040E59091BC0097FD0AC089EE93E0F6
:1044C00003C00197009769F02091BC0027FFF9CF46
:1044D0002091B900287F30E0842F90E02817390719
:1044E00039F08FEF089584E88093BC0048E5E2CF6F
:1044F0008091BB000895FF920F931F93CF93DF939A
:10450000EC01162FF42E00E02FEF3FEFA90160E041
:1045100070E08A819B810E94E62884EA8093BC0037
:104520008091BC0087FD0CC029EE33E005C021500E
:1045300031092115310531F08091BC0087FFF7CF9B
:104540008091B900612FCE010E941A2281111AC0F8
:1045500088819981009721F061E475E00E944536D9
:1045600000E020E030E0A90160E070E08A819B81FA
:104570000E94C52711E0812FDF91CF911F910F91EC
:10458000FF9008956F2DCE010E941A22882301F317
:1045900084E98093BC0084EA8093BC008091BC00D5
:1045A00087FD0CC029EE33E005C0215031092115EB
:1045B000310531F08091BC0087FFF7CF8091B900C1
:1045C000612F6160CE010E941A2281111AC0888178
:1045D0009981009721F067E475E00E94453600E07C
:1045E00020E030E0A90160E070E08A819B810E94B8
:1045F000C5271FEF812FDF91CF911F910F91FF9062
:10460000089584E88093BC008091BC0087FD0CC0B5
:1046100029EE33E005C0215031092115310549F05B
:104620008091BC0087FFF7CF8091B900887F8835E3
:10463000A9F01FEF84E98093BC0000E020E030E0A7
:10464000A90160E070E08A819B810E94C527812FCB
:10465000DF91CF911F910F91FF9008951091BB00B2
:10466000E9CFCF92DF92EF92FF920F931F93CF93F8
:10467000DF93EC01C62ED42E7901102F00E02FEF2E
:104680003FEFA90160E070E08A819B810E94E628EB
:1046900084EA8093BC008091BC0087FD0AC0E9EEEB
:1046A000F3E003C03197309731F09091BC0097FF51
:1046B000F9CF8091B9006C2DCE010E941A22811190
:1046C0001EC088819981009721F06DE475E00E94F9
:1046D000453600E020E030E0A90160E070E08A812A
:1046E0009B810E94C527DD24D3948D2DDF91CF912E
:1046F0001F910F91FF90EF90DF90CF9008956D2D57
:10470000CE010E941A22D82E8823D9F284E9809300
:10471000BC0084EA8093BC008091BC0087FD0CC083
:1047200049EE53E005C0415051094115510531F0A2
:104730009091BC0097FFF7CF8091B9006C2D61601C
:10474000CE010E941A22811113C08881998100979D
:1047500021F063E575E00E94453600E020E030E09E
:10476000A90160E070E08A819B810E94C527BDCFCE
:104770008FEF810F19F1F70124EC2093BC00909189
:10478000BC0097FD0CC049EE53E005C041505109F3
:104790004115510549F09091BC0097FFF7CF9091DA
:1047A000B900987F903591F19FEF9193815029F74F
:1047B0001250812F90E00196E80EF91E84E8809354
:1047C000BC008091BC0087FD0AC089EE93E003C065
:1047D0000197009749F02091BC0027FFF9CF809105
:1047E000B900887F8835A9F08FEFF701808384E9CD
:1047F0008093BC0000E020E030E0A90160E070E0C0
:104800008A819B810E94C527D12C6FCF9091BB00DC
:10481000CCCF8091BB00E9CFEF92FF920F931F9313
:10482000CF93DF93EC01162FF42EE22E00E02FEF52
:104830003FEFA90160E070E08A819B810E94E62839
:1048400084EA8093BC008091BC0087FD0AC0E9EE39
:10485000F3E003C03197309731F08091BC0087FFBF
:10486000F9CF8091B900612FCE010E941A228111E7
:104870001AC088819981009721F069E575E00E944E
:10488000453600E020E030E0A90160E070E08A8178
:104890009B810E94C52781E0DF91CF911F910F91ED
:1048A000FF90EF9008956F2DCE010E941A22882369
:1048B00001F36E2DCE010E941A228823D1F284E9E1
:1048C0008093BC0000E020E030E0A90160E070E0EF
:1048D0008A819B810E94C52780E0DECFBF92CF9264
:1048E000DF92EF92FF920F931F93CF93DF937C01A0
:1048F000C62FD42FB22E132FD02E00E02FEF3FEF74
:10490000A90160E070E0DC0112968D919C911397F3
:104910000E94E62884EA8093BC008091BC0087FD59
:104920000AC0E9EEF3E003C03197309731F080918F
:10493000BC0087FFF9CF8091B9006C2FC7010E949E
:104940001A22811123C0D7018D919C91009721F0EB
:104950006FE575E00E94453600E020E030E0A901F7
:1049600060E070E0D70112968D919C9113970E94A0
:10497000C527CC24C3948C2DDF91CF911F910F912B
:10498000FF90EF90DF90CF90BF9008956D2FC701FB
:104990000E941A22C82E8823B1F2DD2079F1CB2D96
:1049A000D12F10E003C01F5F1D1541F16991C701B0
:1049B0000E941A228111F7CFF701C081D18120977F
:1049C00089F065E675E0CE010E944536612FCE0183
:1049D0000E94BC37DC01ED91FC910280F381E02D57
:1049E0006EE3099500E020E030E0A90160E070E0AE
:1049F000F701828193810E94C527BDCF84E980930E
:104A0000BC0000E020E030E0A90160E070E0F701C8
:104A1000828193810E94C527C12CADCF8BB1869531
:104A2000817008950F931F93CF93DF93EC01162F9E
:104A300000E02FEF3FEFA90160E070E08A819B81E9
:104A40000E94E62884EA8093BC008091BC0087FD28
:104A50000CC029EE33E005C0215031092115310584
:104A600031F08091BC0087FFF7CF8091B900612FB2
:104A7000CE010E941A22182F84E98093BC0000E026
:104A800020E030E0A90160E070E08A819B810E9413
:104A9000C527812FDF91CF911F910F910895CF925C
:104AA000DF92EF92FF920F931F93CF93DF938C01CE
:104AB000EB016BE0CE010E948A367C0164EF7EE060
:104AC0000E94453663E0C7010E948A3666E00E9474
:104AD0008A36E12CF12C6E2DCE010E94BC37DC0110
:104AE000ED91FC910280F381E02D60E30995CE2CDD
:104AF000C29480EFC822D12C08C060E4CE01099591
:104B0000D394D394B0E1DB16E1F0E881F98102801F
:104B1000F381E02D60E2CE0109956D2D6C29C8016D
:104B20000E941225E881F9810280F381E02D811134
:104B3000E4CF6DE2CE010995D394D394B0E1DB12BA
:104B4000E4CF66E0CE010E948A368FEFE81AF80AB9
:104B5000A0E1EA16F10409F0BECF62E0CE01DF91D8
:104B6000CF911F910F91FF90EF90DF90CF900C9419
:104B70008A360F931F93CF93DF93EC010E94702C22
:104B80008091F005811121C08AEF95E09093F605A0
:104B90008093F5051092F8051092F70587E397E1E9
:104BA0009093F4058093F3051092F2051092F105AD
:104BB0009093FD058093FC0581EF95E09093FB05B4
:104BC0008093FA0581E08093F005209709F460C096
:104BD000AE014C5F5F4F2396C633D74108F058C0F3
:104BE000E091F505F091F605A5EFB5E006C08081EE
:104BF0009181009739F0DF01FC0122813381241774
:104C00003507A8F3C5E0E13FFC0709F441C00D9169
:104C10001C9111970C5F1F4F808191818D939C9304
:104C2000C901841B950B8930910500F1BF01640F08
:104C3000751FDB0113969C938E93129753834283C7
:104C400012968D919C911397A5EFB5E001C0DF01FD
:104C5000ED91FC9111972281338128173907B8F320
:104C6000EB01F983E8836D937C939A0180910002B4
:104C700090910102821B930B90930102809300029A
:104C80000E94A32DC801DF91CF911F910F9108952C
:104C900000E010E00E94A32DC801DF91CF911F9189
:104CA0000F910895CF93DF93009721F1EC012497A2
:104CB0000E94702C4A815B81A5EFB5E001C0DF0145
:104CC000ED91FC9111972281338124173507B8F3B8
:104CD000F983E883CD93DC938091000290910102E7
:104CE000840F951F9093010280930002DF91CF9172
:104CF0000C94A32DDF91CF910895809100029091A3
:104D00000102089508951F93CF93DF93EC01142FB0
:104D100088A181110DC088819981892B09F44DC02A
:104D200080E09E8D9F5F9E8FDF91CF911F910895B0
:104D3000482F50E011111CC08C819D810E947F433F
:104D400028A18C819D81820F911D9D838C832A8156
:104D50003B818217930720F3888199819D838C83FF
:104D600080E09E8D9F5F9E8FDF91CF911F91089570
:104D70008E819F810E947F4328A130E0319521954B
:104D800031098E819F81820F931F9F838E8368815B
:104D900079818617970730F48A819B81820F931F50
:104DA0009F838E83123009F0BBCF8E8D882309F448
:104DB000B7CF8E8D81508E8FB3CF8A819B810E9419
:104DC000CE301B821A82ADCFFC01CB0140A144231F
:104DD00099F050E026813781240F351F37832683D1
:104DE000628173812617370720F020813181378354
:104DF0002683B9010C947F4308950F931F93CF939B
:104E0000DF93EC010FB6F8940F928AA11816ECF418
:104E10008B898823D1F08E010D5E1F4F09C08AA1B6
:104E200081508AA38AA1181684F48B89882369F09B
:104E3000C8010E945A2F882391F30E944E308AA104
:104E400081508AA38AA1181684F38FEF8AA30F904A
:104E50000FBE0FB6F8940F9289A11816ECF488854E
:104E60008823D1F08E01085F1F4F09C089A18150AE
:104E700089A389A1181684F48885882369F0C8015C
:104E80000E945A2F882391F30E944E3089A18150AD
:104E900089A389A1181684F38FEF89A30F900FBE01
:104EA000DF91CF911F910F910895CF93DF93EC0184
:104EB0000FB6F8940F92288139818F8D78A1879F42
:104EC000C0011124A901480F591F5B834A831E8E1C
:104ED0003D832C83871B9109820F931F9F838E83B1
:104EE0008FEF89A38AA3611112C08885811106C042
:104EF0000F900FBE81E0DF91CF910895CE0108960B
:104F00000E945A2F8130A1F70E943A3BF1CFCE0187
:104F100008960E94CB39CE0143960E94CB390F9060
:104F20000FBE81E0DF91CF9108950F931F93CF9330
:104F3000DF93182F062F882301F183E290E00E946F
:104F4000B925EC010097C9F0109FC001112401960A
:104F50000E94B92599838883892B61F01F8F08A34C
:104F600061E0CE010E945527CE01DF91CF911F91C4
:104F70000F910895CE010E945226C0E0D0E0CE01EC
:104F8000DF91CF911F910F9108956F927F928F9231
:104F90009F92AF92BF92CF92DF92EF92FF920F93C8
:104FA000CF93DF93CDB7DEB729970FB6F894DEBF66
:104FB0000FBECDBF5C014B012E833F8348875987CD
:104FC00020E03C0188E0680E711C0FB6F8940F9247
:104FD000F501968D878D981708F459C0023009F4B1
:104FE00056C0CE80DF80E884F984CD28CE28CF2833
:104FF00009F46FC0222309F441C00F900FBE0E9434
:10500000702C0FB6F8940F92F50181A18F3F09F42F
:105010003CC0F50182A18F3FB1F10F900FBEBE01E0
:105020006A5F7F4FCE0101960E94ED2F811155C01E
:105030000FB6F8940F92F501968D0F900FBEF50103
:10504000878D981314C04E815F8168857985C3016F
:105050000E94FF2EC5010E94FD260E94A32D8823D9
:1050600011F021E0B2CF0E943A3B21E0AECFC50162
:105070000E94FD260E94A32D21E0A7CFCE0101961C
:105080000E94DC2FBACF12A2C8CF11A2C2CF402FEC
:10509000B401C5010E948326F5019389911124C0B2
:1050A000811128C00F900FBE81E029960FB6F894A9
:1050B000DEBF0FBECDBFDF91CF910F91FF90EF907C
:1050C000DF90CF90BF90AF909F908F907F906F9028
:1050D00008950F900FBE80E0E8CFC5010E94FD2625
:1050E0000E94A32D80E0E1CFC50143960E945A2F74
:1050F0008130C1F60E943A3BD5CF0F93CF93DF9317
:1051000083E290E00E94B925EC01009701F11B8237
:105110001A82198218821D821C821F821E821E8E94
:1051200081E08F8F18A28FEF89A38AA3CE01089602
:105130000E94CB39CE0143960E94CB3900E020E09B
:1051400030E0A90160E070E0CE010E94C527CE01E9
:10515000DF91CF910F9108950F931F93CF93DF931A
:10516000EC018A019E8D8F8D981740F0223031F02E
:1051700080E0DF91CF911F910F910895422FCE01D2
:105180000E948326882331F00115110519F081E072
:10519000F80180838AA18F3F49F08AA18F5F8AA39B
:1051A00081E0DF91CF911F910F9108958B89882322
:1051B000B9F3CE0143960E945A2F882389F3011533
:1051C000110571F381E0F8018083D3CFAF92BF92D4
:1051D000CF92DF92EF92FF920F93CF93DF93CDB7F1
:1051E000DEB729970FB6F894DEBF0FBECDBF7C01A6
:1051F0006B012E833F834887598790E0570183E1F5
:10520000A80EB11C0FB6F8940F92F701868D81118C
:1052100069C04E815F8168857985452B462B472B78
:1052200009F47DC0992309F43EC00F900FBE0E947F
:10523000702C0FB6F8940F92F70181A18F3F09F4FB
:105240003EC0F70182A18F3F09F43FC00F900FBE0F
:10525000BE016A5F7F4FCE0101960E94ED2F811142
:1052600071C00FB6F8940F92F701868D0F900FBEA4
:1052700081111EC0F70180819181892B41F14E81FE
:105280005F8168857985C5010E94FF2EC7010E9454
:10529000FD260E94A32D882311F091E0B3CF0E9438
:1052A0003A3B91E0AFCFCE0101960E94DC2FBDCFFB
:1052B000C7010E94FD260E94A32D91E0A3CF11A259
:1052C000F70182A18F3F09F0C1CF12A2BFCF0FB665
:1052D000F8940F92F701828193810E9473300F90AE
:1052E0000FBECDCFA680B780B601C7010E94E426CD
:1052F000F70101112EC0868D8150868F80819181AA
:10530000892BB9F1F7018085882341F1C7010896FF
:105310000E945A2F813011F50E943A3B1FC00F9016
:105320000FBE80E029960FB6F894DEBF0FBECDBF4A
:10533000DF91CF910F91FF90EF90DF90CF90BF90D2
:10534000AF900895C7010E94FD260E94A32D80E022
:10535000E9CFB782A6828389811104C00F900FBE66
:1053600081E0E0CFC70143960E945A2F8823B1F312
:10537000D3CF0E943531F70193838283C3CF0F933C
:105380001F93CF93DF9300D0CDB7DEB78C01FC0124
:10539000868D811108C080E00F900F90DF91CF9132
:1053A0001F910F910895C80149835A830E94E426F2
:1053B000F801868D8150868F81A149815A818F3F66
:1053C00061F0F80181A18F5F81A381E00F900F90C0
:1053D000DF91CF911F910F91089580858823A9F3C4
:1053E000C801089649835A830E945A2F49815A81DD
:1053F000882359F34115510541F381E0FA01808377
:10540000CBCF0F931F93CF93DF93EC018E8D811140
:1054100006C080E0DF91CF911F910F9108950E811A
:105420001F81CE010E94E4261F830E8381E0DF915D
:10543000CF911F910F9108950FB6F8940F92FC0130
:10544000868D0F900FBE08950FB6F8940F92FC0151
:10545000268D0F900FBEFC01878D821B0895FC01E5
:10546000868D0895CF93DF93EC0188819981009711
:1054700011F00E945226CE01DF91CF910C9452265A
:10548000FC01968D81E0911180E00895FC01268D4C
:1054900081E0978D291380E008958091661D823008
:1054A00018F00E943A3BF9CFFFCFCF92DF92EF92F4
:1054B000FF926B017C01E091311DF091321D6283FE
:1054C00073838483958380913A1D90913B1DA091B5
:1054D0003C1DB0913D1D6091311D7091321DC8166B
:1054E000D906EA06FB0610F180914E1D90914F1DE2
:1054F0006E5F7F4F0E94013A8091020290910302F9
:10550000A0910402B0910502C816D906EA06FB066E
:1055100040F4C0920202D0920302E0920402F092A0
:105520000502FF90EF90DF90CF90089580914C1D81
:1055300090914D1D6E5F7F4FFF90EF90DF90CF9069
:105540000C94013A5F926F927F928F929F92AF92EA
:10555000BF92CF92DF92EF92FF920F931F93CF9360
:10556000DF934C01162F572E5A01390189E290E042
:105570000E94B925EC01009709F4E9C0C114D104D7
:1055800009F4DAC0DC8ECB8EC601A50165EA70E0B5
:105590000E94884321E0A21AB108CB8CDC8CCA0C93
:1055A000DB1CAE01435E5F4FE12FF52D2AE0CF01FA
:1055B0003191DA013D93AD01DC018C91882311F02A
:1055C0002150A9F71EA2102F043008F07DC01A8FB9
:1055D0001FA318A65E01B2E0AB0EB11CC5010E946C
:1055E000DC39CE010E960E94DC39DB87CA8784E065
:1055F00090E0A0E0B0E0811B9109A109B1098E877C
:105600009F87A88BB98BDF8BCE8BA301B401C6011A
:105610000E946A3A99838883E114F10419F0F70132
:10562000D183C0830FB6F8940F9280913E1D8F5F97
:1056300080933E1D8091311D9091321D892B09F47C
:1056400049C08091381D81110BC0E091311DF0914E
:10565000321D828D081720F0D093321DC093311D6A
:105660008091341D8F5F8093341D8A8D9091391DF8
:10567000981738F1FBE08F9FC0011124B5018A59BA
:10568000924E0E94E0390F900FBE8091381D882302
:1056900039F0E091311DF091321D828D8017B0F00C
:1056A00081E0DF91CF911F910F91FF90EF90DF90FC
:1056B000CF90BF90AF909F908F907F906F905F90B2
:1056C00008958093391DD6CF13E081CF0E943A3BD5
:1056D00081E0E7CFD093321DC093311D80913E1DF4
:1056E000813009F0BDCF86E69DE10E94CB3981E78C
:1056F0009DE10E94CB398CE79DE10E94CB3987E880
:105700009DE10E94CB398BE59DE10E94CB3980E57C
:105710009DE10E94CB3981E49DE10E94CB398BE56C
:105720009DE190934F1D80934E1D80E59DE19093E8
:105730004D1D80934C1D94CFC5010E94B9259C8FAF
:105740008B8F009709F021CFCE010E9452268FEF58
:10575000A8CF0FB6F8940F92009729F00F900FBEC4
:10576000FC01828D08958091311D9091321D0F9022
:105770000FBEFC01828D0895EF92FF921F93CF938D
:10578000DF93EC01262F643008F023E00FB6F89485
:105790000F92209709F44AC03FA13217A9F18091D6
:1057A000311D9091321D3217B8F5C817D90741F055
:1057B000E091311DF091321D11E0828D281708F41F
:1057C00010E08A8D381769F12FA34E855F856889AF
:1057D000798977FD0CC044E050E060E070E0421B46
:1057E0005109610971094E875F87688B798B2BE0BE
:1057F000829FC00111248A59924E2C853D8528171D
:105800003907C9F0113079F00F900FBEDF91CF91B9
:105810001F91FF90EF90089511E0C817D90781F606
:10582000D0CF2A8FD1CF0E943A3BEECFC091311D0D
:10583000D091321DB1CF7E0182E0E80EF11CC7018C
:105840000E943E3A8A8D9091391D981710F48093EA
:10585000391D2BE0829FC0011124B7018A59924E55
:105860000E94E039CFCFAF92BF92CF92DF92EF92FA
:10587000FF920F93A12CB12CC12CD12C8FE3E82ED9
:105880008DE1F82E00E020E030E044E650E069E6EB
:1058900075E08DE49AE20E94A22A813041F00F91D6
:1058A000FF90EF90DF90CF90BF90AF900895F89465
:1058B0008093381D10923A1D10923B1D10923C1D92
:1058C00010923D1D0F91FF90EF90DF90CF90BF9011
:1058D000AF900C94FE3AF8941092381D0C94393B1A
:1058E0008091331D8F5F8093331D08950FB6F89418
:1058F0000F9260913A1D70913B1D80913C1D9091DB
:105900003D1D0F900FBE089560913A1D70913B1D93
:1059100080913C1D90913D1D089580913E1D0895FC
:10592000009711F04D9608958091311D9091321D90
:105930004D96089580913F1D9091401D0895AF921E
:10594000BF92CF92DF92EF92FF920F931F93CF936C
:10595000DF938091331D8111CFC080913A1D9091CA
:105960003B1DA0913C1DB0913D1D0196A11DB11D97
:1059700080933A1D90933B1DA0933C1DB0933D1D19
:10598000C0903A1DD0903B1DE0903C1DF0903D1D15
:10599000C114D104E104F10439F580914E1D9091B8
:1059A0004F1D20914C1D30914D1D30934F1D209364
:1059B0004E1D90934D1D80934C1D8091351D8F5F22
:1059C0008093351DE0914E1DF0914F1D8081811116
:1059D0009AC08FEF9FEFDC01809302029093030245
:1059E000A0930402B09305028091020290910302F9
:1059F000A0910402B0910502B12CC816D906EA069E
:105A0000FB0608F457C09BE0A92EE0914E1DF091D3
:105A10004F1D8081882309F442C0E0914E1DF09112
:105A20004F1D0780F085E02DC085D1854A815B81BF
:105A30006C817D81C416D506E606F70608F47AC0A7
:105A40008E010E5F1F4FC8010E943E3A888D998DCE
:105A5000892B21F0CE010E960E943E3A8A8D9091BC
:105A6000391D981710F48093391DA89EC001112488
:105A7000B8018A59924E0E94E039E091311DF091AF
:105A8000321D9A8D828D981708F4BFCFBB24B39432
:105A9000E0914E1DF0914F1D80818111BECF4FEFDF
:105AA0005FEFBA0140930202509303026093040235
:105AB00070930502E091311DF091321DE28D8BE073
:105AC000E89FF0011124EA59F24E8081823010F0F3
:105AD000BB24B3948091361D882311F0BB24B3946A
